{
  "_format": "hh-sol-artifact-1",
  "contractName": "NNSRewarder",
  "sourceName": "contracts/NNSRewarder.sol",
  "abi": [
    {
      "inputs": [
        {
          "internalType": "address",
          "name": "target",
          "type": "address"
        }
      ],
      "name": "AddressEmptyCode",
      "type": "error"
    },
    {
      "inputs": [
        {
          "internalType": "address",
          "name": "account",
          "type": "address"
        }
      ],
      "name": "AddressInsufficientBalance",
      "type": "error"
    },
    {
      "inputs": [
        {
          "internalType": "uint256",
          "name": "cldId",
          "type": "uint256"
        },
        {
          "internalType": "address",
          "name": "addr",
          "type": "address"
        }
      ],
      "name": "CallerNotCommunityManager",
      "type": "error"
    },
    {
      "inputs": [
        {
          "internalType": "address",
          "name": "addr",
          "type": "address"
        }
      ],
      "name": "CallerNotController",
      "type": "error"
    },
    {
      "inputs": [
        {
          "internalType": "uint256",
          "name": "cldId",
          "type": "uint256"
        }
      ],
      "name": "CldAlreadyRegistered",
      "type": "error"
    },
    {
      "inputs": [],
      "name": "FailedInnerCall",
      "type": "error"
    },
    {
      "inputs": [
        {
          "internalType": "address",
          "name": "account",
          "type": "address"
        }
      ],
      "name": "InvalidAccount",
      "type": "error"
    },
    {
      "inputs": [
        {
          "internalType": "uint256",
          "name": "cldId",
          "type": "uint256"
        }
      ],
      "name": "InvalidCld",
      "type": "error"
    },
    {
      "inputs": [],
      "name": "InvalidInitialization",
      "type": "error"
    },
    {
      "inputs": [],
      "name": "InvalidShares",
      "type": "error"
    },
    {
      "inputs": [],
      "name": "NotInitializing",
      "type": "error"
    },
    {
      "inputs": [],
      "name": "NothingToWithdraw",
      "type": "error"
    },
    {
      "inputs": [
        {
          "internalType": "address",
          "name": "owner",
          "type": "address"
        }
      ],
      "name": "OwnableInvalidOwner",
      "type": "error"
    },
    {
      "inputs": [
        {
          "internalType": "address",
          "name": "account",
          "type": "address"
        }
      ],
      "name": "OwnableUnauthorizedAccount",
      "type": "error"
    },
    {
      "inputs": [
        {
          "internalType": "address",
          "name": "token",
          "type": "address"
        }
      ],
      "name": "SafeERC20FailedOperation",
      "type": "error"
    },
    {
      "anonymous": false,
      "inputs": [
        {
          "indexed": false,
          "internalType": "uint256",
          "name": "cldId",
          "type": "uint256"
        },
        {
          "indexed": false,
          "internalType": "address",
          "name": "target",
          "type": "address"
        },
        {
          "indexed": false,
          "internalType": "uint8",
          "name": "referralShare",
          "type": "uint8"
        },
        {
          "indexed": false,
          "internalType": "uint8",
          "name": "communityShare",
          "type": "uint8"
        },
        {
          "indexed": false,
          "internalType": "uint8",
          "name": "ecosystemShare",
          "type": "uint8"
        }
      ],
      "name": "CldConfigurationChanged",
      "type": "event"
    },
    {
      "anonymous": false,
      "inputs": [
        {
          "indexed": false,
          "internalType": "uint256",
          "name": "cldId",
          "type": "uint256"
        }
      ],
      "name": "CldRegistered",
      "type": "event"
    },
    {
      "anonymous": false,
      "inputs": [
        {
          "indexed": false,
          "internalType": "uint256",
          "name": "cldId",
          "type": "uint256"
        },
        {
          "indexed": false,
          "internalType": "address",
          "name": "referer",
          "type": "address"
        },
        {
          "indexed": false,
          "internalType": "uint256",
          "name": "amountEth",
          "type": "uint256"
        },
        {
          "indexed": false,
          "internalType": "uint256",
          "name": "amountERC20",
          "type": "uint256"
        }
      ],
      "name": "Collected",
      "type": "event"
    },
    {
      "anonymous": false,
      "inputs": [
        {
          "indexed": false,
          "internalType": "uint64",
          "name": "version",
          "type": "uint64"
        }
      ],
      "name": "Initialized",
      "type": "event"
    },
    {
      "anonymous": false,
      "inputs": [
        {
          "indexed": true,
          "internalType": "address",
          "name": "previousOwner",
          "type": "address"
        },
        {
          "indexed": true,
          "internalType": "address",
          "name": "newOwner",
          "type": "address"
        }
      ],
      "name": "OwnershipTransferred",
      "type": "event"
    },
    {
      "anonymous": false,
      "inputs": [
        {
          "indexed": false,
          "internalType": "address",
          "name": "account",
          "type": "address"
        },
        {
          "indexed": false,
          "internalType": "uint256[]",
          "name": "holderTokenIds",
          "type": "uint256[]"
        },
        {
          "indexed": false,
          "internalType": "uint256[]",
          "name": "ecosystemTokenIds",
          "type": "uint256[]"
        },
        {
          "indexed": false,
          "internalType": "uint256",
          "name": "amount",
          "type": "uint256"
        }
      ],
      "name": "Withdrawn",
      "type": "event"
    },
    {
      "inputs": [],
      "name": "PROTOCOL_SHARE",
      "outputs": [
        {
          "internalType": "uint8",
          "name": "",
          "type": "uint8"
        }
      ],
      "stateMutability": "view",
      "type": "function"
    },
    {
      "inputs": [],
      "name": "accountRewarder",
      "outputs": [
        {
          "internalType": "contract IAccountRewarder",
          "name": "",
          "type": "address"
        }
      ],
      "stateMutability": "view",
      "type": "function"
    },
    {
      "inputs": [
        {
          "internalType": "address",
          "name": "account",
          "type": "address"
        },
        {
          "internalType": "uint256[]",
          "name": "holderTokenIds",
          "type": "uint256[]"
        },
        {
          "internalType": "uint256[]",
          "name": "ecosystemTokenIds",
          "type": "uint256[]"
        }
      ],
      "name": "balanceOf",
      "outputs": [
        {
          "internalType": "uint256",
          "name": "",
          "type": "uint256"
        }
      ],
      "stateMutability": "view",
      "type": "function"
    },
    {
      "inputs": [
        {
          "internalType": "uint256",
          "name": "cldId",
          "type": "uint256"
        },
        {
          "internalType": "address",
          "name": "referer",
          "type": "address"
        }
      ],
      "name": "collect",
      "outputs": [],
      "stateMutability": "payable",
      "type": "function"
    },
    {
      "inputs": [
        {
          "internalType": "uint256",
          "name": "cldId",
          "type": "uint256"
        }
      ],
      "name": "configurationOf",
      "outputs": [
        {
          "components": [
            {
              "internalType": "uint8",
              "name": "referralShare",
              "type": "uint8"
            },
            {
              "internalType": "uint8",
              "name": "communityShare",
              "type": "uint8"
            },
            {
              "internalType": "uint8",
              "name": "ecosystemShare",
              "type": "uint8"
            },
            {
              "internalType": "uint8",
              "name": "protocolShare",
              "type": "uint8"
            },
            {
              "internalType": "address",
              "name": "payoutTarget",
              "type": "address"
            },
            {
              "internalType": "contract IRegistry",
              "name": "registry",
              "type": "address"
            }
          ],
          "internalType": "struct IRewarder.CldConfiguration",
          "name": "c",
          "type": "tuple"
        }
      ],
      "stateMutability": "view",
      "type": "function"
    },
    {
      "inputs": [],
      "name": "ecosystemRewarder",
      "outputs": [
        {
          "internalType": "contract IERC721BasedRewarder",
          "name": "",
          "type": "address"
        }
      ],
      "stateMutability": "view",
      "type": "function"
    },
    {
      "inputs": [],
      "name": "holderRewarder",
      "outputs": [
        {
          "internalType": "contract IERC721BasedRewarder",
          "name": "",
          "type": "address"
        }
      ],
      "stateMutability": "view",
      "type": "function"
    },
    {
      "inputs": [
        {
          "internalType": "contract IV3SwapRouter",
          "name": "swapRouter",
          "type": "address"
        },
        {
          "internalType": "contract IERC20",
          "name": "rewardToken",
          "type": "address"
        },
        {
          "internalType": "contract IERC20",
          "name": "weth9",
          "type": "address"
        },
        {
          "internalType": "address",
          "name": "protocol",
          "type": "address"
        }
      ],
      "name": "initialize",
      "outputs": [],
      "stateMutability": "nonpayable",
      "type": "function"
    },
    {
      "inputs": [],
      "name": "owner",
      "outputs": [
        {
          "internalType": "address",
          "name": "",
          "type": "address"
        }
      ],
      "stateMutability": "view",
      "type": "function"
    },
    {
      "inputs": [
        {
          "internalType": "contract IRegistry",
          "name": "registry",
          "type": "address"
        },
        {
          "internalType": "address",
          "name": "payout",
          "type": "address"
        },
        {
          "internalType": "uint8",
          "name": "referralShare",
          "type": "uint8"
        },
        {
          "internalType": "uint8",
          "name": "communityShare",
          "type": "uint8"
        },
        {
          "internalType": "uint8",
          "name": "ecosystemShare",
          "type": "uint8"
        }
      ],
      "name": "registerCld",
      "outputs": [],
      "stateMutability": "nonpayable",
      "type": "function"
    },
    {
      "inputs": [],
      "name": "renounceOwnership",
      "outputs": [],
      "stateMutability": "nonpayable",
      "type": "function"
    },
    {
      "inputs": [
        {
          "internalType": "contract IAccountRewarder",
          "name": "rewarder",
          "type": "address"
        }
      ],
      "name": "setAccountRewarder",
      "outputs": [],
      "stateMutability": "nonpayable",
      "type": "function"
    },
    {
      "inputs": [
        {
          "internalType": "uint256",
          "name": "cldId",
          "type": "uint256"
        },
        {
          "internalType": "address",
          "name": "target",
          "type": "address"
        },
        {
          "internalType": "uint8",
          "name": "referralShare",
          "type": "uint8"
        },
        {
          "internalType": "uint8",
          "name": "communityShare",
          "type": "uint8"
        },
        {
          "internalType": "uint8",
          "name": "ecosystemShare",
          "type": "uint8"
        }
      ],
      "name": "setCldConfiguration",
      "outputs": [],
      "stateMutability": "nonpayable",
      "type": "function"
    },
    {
      "inputs": [
        {
          "internalType": "address",
          "name": "controller",
          "type": "address"
        }
      ],
      "name": "setController",
      "outputs": [],
      "stateMutability": "nonpayable",
      "type": "function"
    },
    {
      "inputs": [
        {
          "internalType": "contract IERC721BasedRewarder",
          "name": "rewarder",
          "type": "address"
        }
      ],
      "name": "setEcosystemRewarder",
      "outputs": [],
      "stateMutability": "nonpayable",
      "type": "function"
    },
    {
      "inputs": [
        {
          "internalType": "contract IERC721BasedRewarder",
          "name": "rewarder",
          "type": "address"
        }
      ],
      "name": "setHolderRewarder",
      "outputs": [],
      "stateMutability": "nonpayable",
      "type": "function"
    },
    {
      "inputs": [
        {
          "internalType": "address",
          "name": "newOwner",
          "type": "address"
        }
      ],
      "name": "transferOwnership",
      "outputs": [],
      "stateMutability": "nonpayable",
      "type": "function"
    },
    {
      "inputs": [
        {
          "internalType": "address",
          "name": "account",
          "type": "address"
        },
        {
          "internalType": "uint256[]",
          "name": "holderTokenIds",
          "type": "uint256[]"
        },
        {
          "internalType": "uint256[]",
          "name": "ecosystemTokenIds",
          "type": "uint256[]"
        }
      ],
      "name": "withdraw",
      "outputs": [],
      "stateMutability": "nonpayable",
      "type": "function"
    }
  ],
  "bytecode": "0x608060405234801561001057600080fd5b50611ef5806100206000396000f3fe6080604052600436106101295760003560e01c806387ad6d00116100a55780639339b0a011610074578063e514a14011610059578063e514a140146103a4578063f2fde38b146103c4578063f8c8765e146103e457600080fd5b80639339b0a0146103645780639aa9aac11461038457600080fd5b806387ad6d00146102d45780638d3c100a146102f45780638da5cb5b1461030757806392eefe9b1461034457600080fd5b80633561cee0116100fc57806355ea4259116100e157806355ea4259146102815780636fe13b491461029f578063715018a6146102bf57600080fd5b80633561cee01461022c57806351adc7611461025a57600080fd5b80630d804d401461012e57806322de3b91146101505780632b28e2e2146101875780632b545421146101a5575b600080fd5b34801561013a57600080fd5b5061014e6101493660046119fd565b610404565b005b34801561015c57600080fd5b506007546001600160a01b03165b6040516001600160a01b0390911681526020015b60405180910390f35b34801561019357600080fd5b506006546001600160a01b031661016a565b3480156101b157600080fd5b506101c56101c0366004611a66565b610593565b60405161017e9190600060c08201905060ff835116825260ff602084015116602083015260ff604084015116604083015260ff606084015116606083015260808301516001600160a01b0380821660808501528060a08601511660a0850152505092915050565b34801561023857600080fd5b5061024c610247366004611acb565b610656565b60405190815260200161017e565b34801561026657600080fd5b5061026f600581565b60405160ff909116815260200161017e565b34801561028d57600080fd5b506008546001600160a01b031661016a565b3480156102ab57600080fd5b5061014e6102ba366004611b4e565b61082d565b3480156102cb57600080fd5b5061014e610916565b3480156102e057600080fd5b5061014e6102ef366004611b78565b61092a565b61014e610302366004611b95565b610954565b34801561031357600080fd5b507f9016d09d72d40fdae2fd8ceac6b6234c7706214fd39c1cd1e609a0528c199300546001600160a01b031661016a565b34801561035057600080fd5b5061014e61035f366004611b78565b610f38565b34801561037057600080fd5b5061014e61037f366004611acb565b610f62565b34801561039057600080fd5b5061014e61039f366004611b78565b61123a565b3480156103b057600080fd5b5061014e6103bf366004611b78565b611264565b3480156103d057600080fd5b5061014e6103df366004611b78565b61128e565b3480156103f057600080fd5b5061014e6103ff366004611bc5565b6112e5565b600c546001600160a01b0316336001600160a01b03161461046457335b6040517f69867d640000000000000000000000000000000000000000000000000000000081526001600160a01b0390911660048201526024015b60405180910390fd5b6000856001600160a01b03166383d48e046040518163ffffffff1660e01b8152600401600060405180830381865afa1580156104a4573d6000803e3d6000fd5b505050506040513d6000823e601f3d908101601f191682016040526104cc9190810190611c5b565b6000818152600560205260409020549092506001600160a01b0316159050610523576040517f8099d0660000000000000000000000000000000000000000000000000000000081526004810182905260240161045b565b60008181526005602090815260409182902080546001600160a01b0319166001600160a01b038a1617905590518281527f8bd9cfa8c73842407f588399c731ae715c419ea74253764312148aa3f604cc8e910160405180910390a161058b818686868661146f565b505050505050565b6040805160c081018252600080825260208201819052918101829052606081018290526080810182905260a08101919091526000828152600560205260409020546001600160a01b0316806105e85750919050565b6040805160c0810182526000858152600360209081528382205460ff90811684528783526001825284832054811682850152878352600482528483205416838501526005606084015295815260029095529320546001600160a01b0390811660808501521660a08301525090565b600080805b85811015610700576007546001600160a01b0316639cc7f70888888481811061068657610686611d12565b905060200201356040518263ffffffff1660e01b81526004016106ab91815260200190565b602060405180830381865afa1580156106c8573d6000803e3d6000fd5b505050506040513d601f19601f820116820180604052508101906106ec9190611d28565b6106f69083611d57565b915060010161065b565b5060005b838110156107a9576006546001600160a01b0316639cc7f70886868481811061072f5761072f611d12565b905060200201356040518263ffffffff1660e01b815260040161075491815260200190565b602060405180830381865afa158015610771573d6000803e3d6000fd5b505050506040513d601f19601f820116820180604052508101906107959190611d28565b61079f9083611d57565b9150600101610704565b506008546040516370a0823160e01b81526001600160a01b038981166004830152909116906370a0823190602401602060405180830381865afa1580156107f4573d6000803e3d6000fd5b505050506040513d601f19601f820116820180604052508101906108189190611d28565b6108229082611d57565b979650505050505050565b600061083886611592565b90506001600160a01b0381166341ef73b9336040517fffffffff0000000000000000000000000000000000000000000000000000000060e084901b1681526001600160a01b039091166004820152602401602060405180830381865afa1580156108a6573d6000803e3d6000fd5b505050506040513d601f19601f820116820180604052508101906108ca9190611d6a565b610909576040517fef5e45790000000000000000000000000000000000000000000000000000000081526004810187905233602482015260440161045b565b61058b868686868661146f565b61091e6115ea565b610928600061165e565b565b6109326115ea565b600880546001600160a01b0319166001600160a01b0392909216919091179055565b600c546001600160a01b0316336001600160a01b0316146109755733610421565b61097e82611592565b506040805160e081018252600b546001600160a01b039081168252600954811660208301908152610bb883850190815230606085019081524760808601908152600060a0870181815260c08801828152600a5499517f04e45aaf000000000000000000000000000000000000000000000000000000008152895189166004820152965188166024880152945162ffffff16604487015292518616606486015290516084850152905160a48401529051831660c48301529293909116906304e45aaf90479060e40160206040518083038185885af1158015610a63573d6000803e3d6000fd5b50505050506040513d601f19601f82011682018060405250810190610a889190611d28565b9050826001600160a01b0381161580610b9457506001600160a01b03841615801590610b945750600760009054906101000a90046001600160a01b03166001600160a01b031663bca6ce646040518163ffffffff1660e01b8152600401602060405180830381865afa158015610b02573d6000803e3d6000fd5b505050506040513d601f19601f82011682018060405250810190610b269190611d8c565b6040516370a0823160e01b81526001600160a01b03868116600483015291909116906370a0823190602401602060405180830381865afa158015610b6e573d6000803e3d6000fd5b505050506040513d601f19601f82011682018060405250810190610b929190611d28565b155b15610bb4576000858152600260205260409020546001600160a01b031693505b600085815260036020526040812054606490610bd39060ff1685611da9565b610bdd9190611dc0565b600854604051634b4a1cd560e01b81526001600160a01b03888116600483015260248201849052929350911690634b4a1cd5906044016020604051808303816000875af1158015610c32573d6000803e3d6000fd5b505050506040513d601f19601f82011682018060405250810190610c569190611d28565b50600086815260016020526040812054606490610c769060ff1686611da9565b610c809190611dc0565b60085460008981526002602052604090819020549051634b4a1cd560e01b81526001600160a01b039182166004820152602481018490529293501690634b4a1cd5906044016020604051808303816000875af1158015610ce4573d6000803e3d6000fd5b505050506040513d601f19601f82011682018060405250810190610d089190611d28565b5060006064610d18600587611da9565b610d229190611dc0565b600854600054604051634b4a1cd560e01b81526001600160a01b039182166004820152602481018490529293501690634b4a1cd5906044016020604051808303816000875af1158015610d79573d6000803e3d6000fd5b505050506040513d601f19601f82011682018060405250810190610d9d9190611d28565b50600088815260046020526040812054606490610dbd9060ff1688611da9565b610dc79190611dc0565b60065460405163b32fe94f60e01b8152600481018390529192506001600160a01b03169063b32fe94f906024016020604051808303816000875af1158015610e13573d6000803e3d6000fd5b505050506040513d601f19601f82011682018060405250810190610e379190611d28565b506000828285610e47888b611de2565b610e519190611de2565b610e5b9190611de2565b610e659190611de2565b90508015610ede5760075460405163b32fe94f60e01b8152600481018390526001600160a01b039091169063b32fe94f906024016020604051808303816000875af1158015610eb8573d6000803e3d6000fd5b505050506040513d601f19601f82011682018060405250810190610edc9190611d28565b505b604080518b81526001600160a01b038816602082015234818301526060810189905290517fe985bb809569e1ab693b8d0a44015cb780fa698a4b16df55472d8eeffa185b399181900360800190a150505050505050505050565b610f406115ea565b600c80546001600160a01b0319166001600160a01b0392909216919091179055565b6000805b84811015611036576007546001600160a01b031663d571409188888885818110610f9257610f92611d12565b6040517fffffffff0000000000000000000000000000000000000000000000000000000060e087901b1681526001600160a01b03909416600485015260200291909101356024830152506044016020604051808303816000875af1158015610ffe573d6000803e3d6000fd5b505050506040513d601f19601f820116820180604052508101906110229190611d28565b61102c9083611d57565b9150600101610f66565b5060005b8281101561110a576006546001600160a01b031663d57140918886868581811061106657611066611d12565b6040517fffffffff0000000000000000000000000000000000000000000000000000000060e087901b1681526001600160a01b03909416600485015260200291909101356024830152506044016020604051808303816000875af11580156110d2573d6000803e3d6000fd5b505050506040513d601f19601f820116820180604052508101906110f69190611d28565b6111009083611d57565b915060010161103a565b506008546040517ff7b6d74f0000000000000000000000000000000000000000000000000000000081526001600160a01b0388811660048301529091169063f7b6d74f906024016020604051808303816000875af1158015611170573d6000803e3d6000fd5b505050506040513d601f19601f820116820180604052508101906111949190611d28565b61119e9082611d57565b9050806000036111da576040517fd0d04f6000000000000000000000000000000000000000000000000000000000815260040160405180910390fd5b6009546111f1906001600160a01b031687836116cf565b7f969b29af630290bc397caf79e9ccc1dc011eba52c697419736a7131a886a9dff86868686868660405161122a96959493929190611e40565b60405180910390a1505050505050565b6112426115ea565b600680546001600160a01b0319166001600160a01b0392909216919091179055565b61126c6115ea565b600780546001600160a01b0319166001600160a01b0392909216919091179055565b6112966115ea565b6001600160a01b0381166112d9576040517f1e4fbdf70000000000000000000000000000000000000000000000000000000081526000600482015260240161045b565b6112e28161165e565b50565b7ff0c57e16840df040f15088dc2f81fe391c3923bec73e23a9662efc9c229c6a00805468010000000000000000810460ff16159067ffffffffffffffff166000811580156113305750825b905060008267ffffffffffffffff16600114801561134d5750303b155b90508115801561135b575080155b15611392576040517ff92ee8a900000000000000000000000000000000000000000000000000000000815260040160405180910390fd5b845467ffffffffffffffff1916600117855583156113c657845468ff00000000000000001916680100000000000000001785555b6113cf33611754565b600a80546001600160a01b03808c166001600160a01b031992831617909255600980548b8416908316179055600b80548a84169083161790556000805492891692909116919091179055831561146457845468ff000000000000000019168555604051600181527fc7f505b2f371ae2175ee4913f4499e1f2633a7b5936321eed1cdaeb6115181d29060200160405180910390a15b505050505050505050565b606460058261147e8587611e8a565b6114889190611e8a565b6114929190611e8a565b60ff1611156114cd576040517f6edcc52300000000000000000000000000000000000000000000000000000000815260040160405180910390fd5b600085815260026020908152604080832080546001600160a01b0389166001600160a01b0319909116811790915560018352818420805460ff88811660ff1992831681179093556003865284872080548b831690841681179091556004875296859020805491891691909216811790915583518b81529485019290925291830193909352606082015260808101919091527f13586fd4fc41a55042bb5598cae4e4ca021684e2b1a1134f48d0fb7dbba31ca09060a00160405180910390a15050505050565b6000818152600560205260408120546001600160a01b0316806115e4576040517f6128427d0000000000000000000000000000000000000000000000000000000081526004810184905260240161045b565b92915050565b3361161c7f9016d09d72d40fdae2fd8ceac6b6234c7706214fd39c1cd1e609a0528c199300546001600160a01b031690565b6001600160a01b031614610928576040517f118cdaa700000000000000000000000000000000000000000000000000000000815233600482015260240161045b565b7f9016d09d72d40fdae2fd8ceac6b6234c7706214fd39c1cd1e609a0528c19930080546001600160a01b031981166001600160a01b03848116918217845560405192169182907f8be0079c531659141344cd1fd0a4f28419497f9722a3daafe3b4186f6b6457e090600090a3505050565b604080516001600160a01b038416602482015260448082018490528251808303909101815260649091019091526020810180517bffffffffffffffffffffffffffffffffffffffffffffffffffffffff167fa9059cbb0000000000000000000000000000000000000000000000000000000017905261174f908490611765565b505050565b61175c6117e1565b6112e281611848565b600061177a6001600160a01b03841683611850565b9050805160001415801561179f57508080602001905181019061179d9190611d6a565b155b1561174f576040517f5274afe70000000000000000000000000000000000000000000000000000000081526001600160a01b038416600482015260240161045b565b7ff0c57e16840df040f15088dc2f81fe391c3923bec73e23a9662efc9c229c6a005468010000000000000000900460ff16610928576040517fd7e6bcf800000000000000000000000000000000000000000000000000000000815260040160405180910390fd5b6112966117e1565b606061185e83836000611865565b9392505050565b6060814710156118a3576040517fcd78605900000000000000000000000000000000000000000000000000000000815230600482015260240161045b565b600080856001600160a01b031684866040516118bf9190611ea3565b60006040518083038185875af1925050503d80600081146118fc576040519150601f19603f3d011682016040523d82523d6000602084013e611901565b606091505b509150915061191186838361191b565b9695505050505050565b6060826119305761192b82611990565b61185e565b815115801561194757506001600160a01b0384163b155b15611989576040517f9996b3150000000000000000000000000000000000000000000000000000000081526001600160a01b038516600482015260240161045b565b508061185e565b8051156119a05780518082602001fd5b6040517f1425ea4200000000000000000000000000000000000000000000000000000000815260040160405180910390fd5b6001600160a01b03811681146112e257600080fd5b803560ff811681146119f857600080fd5b919050565b600080600080600060a08688031215611a1557600080fd5b8535611a20816119d2565b94506020860135611a30816119d2565b9350611a3e604087016119e7565b9250611a4c606087016119e7565b9150611a5a608087016119e7565b90509295509295909350565b600060208284031215611a7857600080fd5b5035919050565b60008083601f840112611a9157600080fd5b50813567ffffffffffffffff811115611aa957600080fd5b6020830191508360208260051b8501011115611ac457600080fd5b9250929050565b600080600080600060608688031215611ae357600080fd5b8535611aee816119d2565b9450602086013567ffffffffffffffff80821115611b0b57600080fd5b611b1789838a01611a7f565b90965094506040880135915080821115611b3057600080fd5b50611b3d88828901611a7f565b969995985093965092949392505050565b600080600080600060a08688031215611b6657600080fd5b853594506020860135611a30816119d2565b600060208284031215611b8a57600080fd5b813561185e816119d2565b60008060408385031215611ba857600080fd5b823591506020830135611bba816119d2565b809150509250929050565b60008060008060808587031215611bdb57600080fd5b8435611be6816119d2565b93506020850135611bf6816119d2565b92506040850135611c06816119d2565b91506060850135611c16816119d2565b939692955090935050565b634e487b7160e01b600052604160045260246000fd5b60005b83811015611c52578181015183820152602001611c3a565b50506000910152565b60008060408385031215611c6e57600080fd5b825167ffffffffffffffff80821115611c8657600080fd5b818501915085601f830112611c9a57600080fd5b815181811115611cac57611cac611c21565b604051601f8201601f19908116603f01168101908382118183101715611cd457611cd4611c21565b81604052828152886020848701011115611ced57600080fd5b611cfe836020830160208801611c37565b602097909701519698969750505050505050565b634e487b7160e01b600052603260045260246000fd5b600060208284031215611d3a57600080fd5b5051919050565b634e487b7160e01b600052601160045260246000fd5b808201808211156115e4576115e4611d41565b600060208284031215611d7c57600080fd5b8151801515811461185e57600080fd5b600060208284031215611d9e57600080fd5b815161185e816119d2565b80820281158282048414176115e4576115e4611d41565b600082611ddd57634e487b7160e01b600052601260045260246000fd5b500490565b818103818111156115e4576115e4611d41565b81835260007f07ffffffffffffffffffffffffffffffffffffffffffffffffffffffffffffff831115611e2757600080fd5b8260051b80836020870137939093016020019392505050565b6001600160a01b0387168152608060208201526000611e63608083018789611df5565b8281036040840152611e76818688611df5565b915050826060830152979650505050505050565b60ff81811683821601908111156115e4576115e4611d41565b60008251611eb5818460208701611c37565b919091019291505056fea26469706673582212204d37e9bd583d0a7895ad12f28bebcd00821424898b7eb8e52f94db35ed31444a64736f6c63430008180033",
  "linkReferences": {},
  "deployedLinkReferences": {}
}