{
  "_format": "hh-sol-artifact-1",
  "contractName": "AccountRewarder",
  "sourceName": "contracts/AccountRewarder.sol",
  "abi": [
    {
      "inputs": [],
      "stateMutability": "nonpayable",
      "type": "constructor"
    },
    {
      "inputs": [
        {
          "internalType": "address",
          "name": "owner",
          "type": "address"
        }
      ],
      "name": "OwnableInvalidOwner",
      "type": "error"
    },
    {
      "inputs": [
        {
          "internalType": "address",
          "name": "account",
          "type": "address"
        }
      ],
      "name": "OwnableUnauthorizedAccount",
      "type": "error"
    },
    {
      "anonymous": false,
      "inputs": [
        {
          "indexed": false,
          "internalType": "address",
          "name": "account",
          "type": "address"
        },
        {
          "indexed": false,
          "internalType": "uint256",
          "name": "oldBalance",
          "type": "uint256"
        },
        {
          "indexed": false,
          "internalType": "uint256",
          "name": "newBalance",
          "type": "uint256"
        }
      ],
      "name": "BalanceChanged",
      "type": "event"
    },
    {
      "anonymous": false,
      "inputs": [
        {
          "indexed": true,
          "internalType": "address",
          "name": "previousOwner",
          "type": "address"
        },
        {
          "indexed": true,
          "internalType": "address",
          "name": "newOwner",
          "type": "address"
        }
      ],
      "name": "OwnershipTransferred",
      "type": "event"
    },
    {
      "anonymous": false,
      "inputs": [
        {
          "indexed": false,
          "internalType": "address",
          "name": "account",
          "type": "address"
        },
        {
          "indexed": false,
          "internalType": "uint256",
          "name": "reward",
          "type": "uint256"
        }
      ],
      "name": "RewardClaimed",
      "type": "event"
    },
    {
      "inputs": [
        {
          "internalType": "address",
          "name": "account",
          "type": "address"
        }
      ],
      "name": "balanceOf",
      "outputs": [
        {
          "internalType": "uint256",
          "name": "",
          "type": "uint256"
        }
      ],
      "stateMutability": "view",
      "type": "function"
    },
    {
      "inputs": [
        {
          "internalType": "address",
          "name": "account",
          "type": "address"
        },
        {
          "internalType": "uint256",
          "name": "amount",
          "type": "uint256"
        }
      ],
      "name": "incrementBalanceOf",
      "outputs": [
        {
          "internalType": "uint256",
          "name": "newBalance",
          "type": "uint256"
        }
      ],
      "stateMutability": "nonpayable",
      "type": "function"
    },
    {
      "inputs": [
        {
          "internalType": "address",
          "name": "account",
          "type": "address"
        }
      ],
      "name": "issueReward",
      "outputs": [
        {
          "internalType": "uint256",
          "name": "",
          "type": "uint256"
        }
      ],
      "stateMutability": "nonpayable",
      "type": "function"
    },
    {
      "inputs": [],
      "name": "owner",
      "outputs": [
        {
          "internalType": "address",
          "name": "",
          "type": "address"
        }
      ],
      "stateMutability": "view",
      "type": "function"
    },
    {
      "inputs": [],
      "name": "renounceOwnership",
      "outputs": [],
      "stateMutability": "nonpayable",
      "type": "function"
    },
    {
      "inputs": [
        {
          "internalType": "address",
          "name": "newOwner",
          "type": "address"
        }
      ],
      "name": "transferOwnership",
      "outputs": [],
      "stateMutability": "nonpayable",
      "type": "function"
    }
  ],
  "bytecode": "0x608060405234801561001057600080fd5b50338061003757604051631e4fbdf760e01b81526000600482015260240160405180910390fd5b61004081610046565b50610096565b600080546001600160a01b038381166001600160a01b0319831681178455604051919092169283917f8be0079c531659141344cd1fd0a4f28419497f9722a3daafe3b4186f6b6457e09190a35050565b61041c806100a56000396000f3fe608060405234801561001057600080fd5b50600436106100725760003560e01c80638da5cb5b116100505780638da5cb5b146100d0578063f2fde38b146100eb578063f7b6d74f146100fe57600080fd5b80634b4a1cd51461007757806370a082311461009d578063715018a6146100c6575b600080fd5b61008a610085366004610360565b610111565b6040519081526020015b60405180910390f35b61008a6100ab36600461038a565b6001600160a01b031660009081526001602052604090205490565b6100ce6101c1565b005b6000546040516001600160a01b039091168152602001610094565b6100ce6100f936600461038a565b6101d5565b61008a61010c36600461038a565b610231565b600061011b61029b565b6001600160a01b038316600090815260016020526040812080549184919061014383856103ac565b90915550506001600160a01b03841660008181526001602090815260409182902054825193845290830184905282820152517faeeb0cb16f299136e7e5467ea84217150fe83008833064528f360cde7b7b54c39181900360600190a150506001600160a01b0382166000908152600160205260409020545b92915050565b6101c961029b565b6101d360006102e1565b565b6101dd61029b565b6001600160a01b038116610225576040517f1e4fbdf7000000000000000000000000000000000000000000000000000000008152600060048201526024015b60405180910390fd5b61022e816102e1565b50565b600061023b61029b565b6001600160a01b03821660008181526001602090815260408083208054939055805193845290830182905290917f106f923f993c2149d49b4255ff723acafa1f2d94393f561d3eda32ae348f7241910160405180910390a190505b919050565b6000546001600160a01b031633146101d3576040517f118cdaa700000000000000000000000000000000000000000000000000000000815233600482015260240161021c565b600080546001600160a01b038381167fffffffffffffffffffffffff0000000000000000000000000000000000000000831681178455604051919092169283917f8be0079c531659141344cd1fd0a4f28419497f9722a3daafe3b4186f6b6457e09190a35050565b80356001600160a01b038116811461029657600080fd5b6000806040838503121561037357600080fd5b61037c83610349565b946020939093013593505050565b60006020828403121561039c57600080fd5b6103a582610349565b9392505050565b808201808211156101bb577f4e487b7100000000000000000000000000000000000000000000000000000000600052601160045260246000fdfea26469706673582212204eb2aa767a0b6750a35aff1e5a8beff53b0965353beb9d654b3ba6e1bd65232b64736f6c63430008180033",
  "linkReferences": {},
  "deployedLinkReferences": {}
}