{
  "_format": "hh-sol-artifact-1",
  "contractName": "NNSResolver",
  "sourceName": "contracts/NNSResolver.sol",
  "abi": [
    {
      "inputs": [],
      "name": "CldAlreadyRegistered",
      "type": "error"
    },
    {
      "inputs": [],
      "name": "InvalidCld",
      "type": "error"
    },
    {
      "inputs": [],
      "name": "InvalidInitialization",
      "type": "error"
    },
    {
      "inputs": [],
      "name": "NotInitializing",
      "type": "error"
    },
    {
      "inputs": [
        {
          "internalType": "address",
          "name": "owner",
          "type": "address"
        }
      ],
      "name": "OwnableInvalidOwner",
      "type": "error"
    },
    {
      "inputs": [
        {
          "internalType": "address",
          "name": "account",
          "type": "address"
        }
      ],
      "name": "OwnableUnauthorizedAccount",
      "type": "error"
    },
    {
      "inputs": [],
      "name": "UnauthorizedAccount",
      "type": "error"
    },
    {
      "anonymous": false,
      "inputs": [
        {
          "indexed": false,
          "internalType": "uint256",
          "name": "cldId",
          "type": "uint256"
        },
        {
          "indexed": false,
          "internalType": "address",
          "name": "registry",
          "type": "address"
        }
      ],
      "name": "CldRegistered",
      "type": "event"
    },
    {
      "anonymous": false,
      "inputs": [
        {
          "indexed": false,
          "internalType": "address",
          "name": "account",
          "type": "address"
        },
        {
          "indexed": false,
          "internalType": "uint256",
          "name": "cldId",
          "type": "uint256"
        }
      ],
      "name": "DefaultCldChanged",
      "type": "event"
    },
    {
      "anonymous": false,
      "inputs": [
        {
          "indexed": false,
          "internalType": "uint256",
          "name": "cldId",
          "type": "uint256"
        }
      ],
      "name": "FallbackCldChanged",
      "type": "event"
    },
    {
      "anonymous": false,
      "inputs": [
        {
          "indexed": false,
          "internalType": "uint64",
          "name": "version",
          "type": "uint64"
        }
      ],
      "name": "Initialized",
      "type": "event"
    },
    {
      "anonymous": false,
      "inputs": [
        {
          "indexed": true,
          "internalType": "address",
          "name": "previousOwner",
          "type": "address"
        },
        {
          "indexed": true,
          "internalType": "address",
          "name": "newOwner",
          "type": "address"
        }
      ],
      "name": "OwnershipTransferred",
      "type": "event"
    },
    {
      "inputs": [
        {
          "internalType": "address",
          "name": "addr",
          "type": "address"
        }
      ],
      "name": "defaultCldOf",
      "outputs": [
        {
          "internalType": "uint256",
          "name": "",
          "type": "uint256"
        }
      ],
      "stateMutability": "view",
      "type": "function"
    },
    {
      "inputs": [],
      "name": "fallbackCld",
      "outputs": [
        {
          "internalType": "uint256",
          "name": "",
          "type": "uint256"
        }
      ],
      "stateMutability": "view",
      "type": "function"
    },
    {
      "inputs": [],
      "name": "initialize",
      "outputs": [],
      "stateMutability": "nonpayable",
      "type": "function"
    },
    {
      "inputs": [],
      "name": "owner",
      "outputs": [
        {
          "internalType": "address",
          "name": "",
          "type": "address"
        }
      ],
      "stateMutability": "view",
      "type": "function"
    },
    {
      "inputs": [
        {
          "internalType": "uint256",
          "name": "cldId",
          "type": "uint256"
        },
        {
          "internalType": "uint256",
          "name": "tokenId",
          "type": "uint256"
        },
        {
          "internalType": "uint256",
          "name": "key",
          "type": "uint256"
        }
      ],
      "name": "recordOf",
      "outputs": [
        {
          "internalType": "string",
          "name": "",
          "type": "string"
        }
      ],
      "stateMutability": "view",
      "type": "function"
    },
    {
      "inputs": [
        {
          "internalType": "uint256",
          "name": "cldId",
          "type": "uint256"
        },
        {
          "internalType": "uint256",
          "name": "tokenId",
          "type": "uint256"
        },
        {
          "internalType": "uint256[]",
          "name": "keys",
          "type": "uint256[]"
        }
      ],
      "name": "recordsOf",
      "outputs": [
        {
          "internalType": "string[]",
          "name": "values",
          "type": "string[]"
        }
      ],
      "stateMutability": "view",
      "type": "function"
    },
    {
      "inputs": [
        {
          "internalType": "contract IRegistry",
          "name": "registry",
          "type": "address"
        },
        {
          "internalType": "bool",
          "name": "isFallback",
          "type": "bool"
        }
      ],
      "name": "registerCld",
      "outputs": [],
      "stateMutability": "nonpayable",
      "type": "function"
    },
    {
      "inputs": [],
      "name": "renounceOwnership",
      "outputs": [],
      "stateMutability": "nonpayable",
      "type": "function"
    },
    {
      "inputs": [
        {
          "internalType": "address",
          "name": "addr",
          "type": "address"
        }
      ],
      "name": "reverseNameOf",
      "outputs": [
        {
          "internalType": "string",
          "name": "",
          "type": "string"
        }
      ],
      "stateMutability": "view",
      "type": "function"
    },
    {
      "inputs": [
        {
          "internalType": "address",
          "name": "addr",
          "type": "address"
        },
        {
          "internalType": "uint256[]",
          "name": "cldIds",
          "type": "uint256[]"
        },
        {
          "internalType": "bool",
          "name": "fallbackToDefault",
          "type": "bool"
        }
      ],
      "name": "reverseNameOf",
      "outputs": [
        {
          "internalType": "string",
          "name": "",
          "type": "string"
        }
      ],
      "stateMutability": "view",
      "type": "function"
    },
    {
      "inputs": [
        {
          "internalType": "address",
          "name": "addr",
          "type": "address"
        },
        {
          "internalType": "uint256[]",
          "name": "cldIds",
          "type": "uint256[]"
        },
        {
          "internalType": "bool",
          "name": "fallbackToDefault",
          "type": "bool"
        }
      ],
      "name": "reverseOf",
      "outputs": [
        {
          "internalType": "uint256",
          "name": "cldId",
          "type": "uint256"
        },
        {
          "internalType": "uint256",
          "name": "tokenId",
          "type": "uint256"
        }
      ],
      "stateMutability": "view",
      "type": "function"
    },
    {
      "inputs": [
        {
          "internalType": "address",
          "name": "addr",
          "type": "address"
        }
      ],
      "name": "reverseOf",
      "outputs": [
        {
          "internalType": "uint256",
          "name": "cldId",
          "type": "uint256"
        },
        {
          "internalType": "uint256",
          "name": "tokenId",
          "type": "uint256"
        }
      ],
      "stateMutability": "view",
      "type": "function"
    },
    {
      "inputs": [
        {
          "internalType": "address",
          "name": "account",
          "type": "address"
        },
        {
          "internalType": "uint256",
          "name": "cldId",
          "type": "uint256"
        }
      ],
      "name": "setDefaultCld",
      "outputs": [],
      "stateMutability": "nonpayable",
      "type": "function"
    },
    {
      "inputs": [
        {
          "internalType": "uint256",
          "name": "cldId",
          "type": "uint256"
        }
      ],
      "name": "setFallbackCld",
      "outputs": [],
      "stateMutability": "nonpayable",
      "type": "function"
    },
    {
      "inputs": [
        {
          "internalType": "address",
          "name": "newOwner",
          "type": "address"
        }
      ],
      "name": "transferOwnership",
      "outputs": [],
      "stateMutability": "nonpayable",
      "type": "function"
    }
  ],
  "bytecode": "0x608060405234801561001057600080fd5b50611277806100206000396000f3fe608060405234801561001057600080fd5b50600436106100f55760003560e01c80638da5cb5b11610097578063a102786f11610066578063a102786f14610204578063bebec6b414610224578063d966728914610237578063f2fde38b1461024a57600080fd5b80638da5cb5b146101845780639336fc7f146101be5780639bd90186146101d1578063a04d5165146101f157600080fd5b80636e3e7f48116100d35780636e3e7f481461014e578063715018a6146101615780637e37479e146101695780638129fc1c1461017c57600080fd5b806302ba102a146100fa5780630c68c74d1461010f5780632a003a0514610126575b600080fd5b61010d610108366004610cf3565b61025d565b005b6001545b6040519081526020015b60405180910390f35b610139610134366004610d7b565b6102b4565b6040805192835260208301919091520161011d565b61010d61015c366004610de3565b6103af565b61010d6104fa565b610139610177366004610e0f565b61050e565b61010d61059b565b7f9016d09d72d40fdae2fd8ceac6b6234c7706214fd39c1cd1e609a0528c199300546040516001600160a01b03909116815260200161011d565b6101136101cc366004610e0f565b6106d7565b6101e46101df366004610e33565b610702565b60405161011d9190610eaf565b61010d6101ff366004610ec2565b6107a4565b610217610212366004610efb565b6108e9565b60405161011d9190610f4e565b6101e4610232366004610e0f565b610971565b6101e4610245366004610d7b565b6109f4565b61010d610258366004610e0f565b610ada565b610265610b33565b61026e81610ba7565b5060015481146102b15760018190556040518181527f547f914863c509525a67bfd1b905c2c6c614e0198d5242aa652ad7a6b7d5dd119060200160405180910390a15b50565b60008060005b848110156103865760006102e58787848181106102d9576102d9610fb2565b90506020020135610ba7565b604051633f1ba3cf60e11b81526001600160a01b038a8116600483015291925090821690637e37479e90602401602060405180830381865afa15801561032f573d6000803e3d6000fd5b505050506040513d601f19601f820116820180604052508101906103539190610fc8565b9250821561037d5786868381811061036d5761036d610fb2565b90506020020135935050506103a6565b506001016102ba565b50821561039f576103968661050e565b915091506103a6565b5060009050805b94509492505050565b60006103ba82610ba7565b9050336001600160a01b0384161480159061046a57506001600160a01b03811663e985e9c584336040517fffffffff0000000000000000000000000000000000000000000000000000000060e085901b1681526001600160a01b03928316600482015291166024820152604401602060405180830381865afa158015610444573d6000803e3d6000fd5b505050506040513d601f19601f820116820180604052508101906104689190610fe1565b155b156104a1576040517fa97ff08a00000000000000000000000000000000000000000000000000000000815260040160405180910390fd5b6001600160a01b038316600081815260026020908152604091829020859055815192835282018490527fe4b54c6dd0e330a48975d7325ee994c79c566e6c78b3e375b2ade3bca34aeb8d910160405180910390a1505050565b610502610b33565b61050c6000610bf5565b565b60008061051a836106d7565b91508161052683610ba7565b604051633f1ba3cf60e11b81526001600160a01b0386811660048301529190911690637e37479e90602401602060405180830381865afa15801561056e573d6000803e3d6000fd5b505050506040513d601f19601f820116820180604052508101906105929190610fc8565b91509150915091565b7ff0c57e16840df040f15088dc2f81fe391c3923bec73e23a9662efc9c229c6a00805468010000000000000000810460ff16159067ffffffffffffffff166000811580156105e65750825b905060008267ffffffffffffffff1660011480156106035750303b155b905081158015610611575080155b15610648576040517ff92ee8a900000000000000000000000000000000000000000000000000000000815260040160405180910390fd5b845467ffffffffffffffff19166001178555831561067c57845468ff00000000000000001916680100000000000000001785555b61068533610c73565b83156106d057845468ff000000000000000019168555604051600181527fc7f505b2f371ae2175ee4913f4499e1f2633a7b5936321eed1cdaeb6115181d29060200160405180910390a15b5050505050565b6001600160a01b0381166000908152600260205260408120548082036106fc57506001545b92915050565b606061070d84610ba7565b6040517f064816cf00000000000000000000000000000000000000000000000000000000815260048101859052602481018490526001600160a01b03919091169063064816cf90604401600060405180830381865afa158015610774573d6000803e3d6000fd5b505050506040513d6000823e601f3d908101601f1916820160405261079c91908101906110a9565b949350505050565b6107ac610b33565b6000826001600160a01b03166383d48e046040518163ffffffff1660e01b8152600401600060405180830381865afa1580156107ec573d6000803e3d6000fd5b505050506040513d6000823e601f3d908101601f1916820160405261081491908101906110de565b6000818152602081905260409020549092506001600160a01b0316159050610868576040517fd36fe93200000000000000000000000000000000000000000000000000000000815260040160405180910390fd5b60008181526020818152604091829020805473ffffffffffffffffffffffffffffffffffffffff19166001600160a01b0387169081179091558251848152918201527f08c9b698b97f599b9e6bd9d77a2fc735231819e8fe5b06f44439eb688da1be3d910160405180910390a181156108e4576108e48161025d565b505050565b60606108f485610ba7565b6001600160a01b031663215adba28585856040518463ffffffff1660e01b815260040161092393929190611125565b600060405180830381865afa158015610940573d6000803e3d6000fd5b505050506040513d6000823e601f3d908101601f19168201604052610968919081019061117e565b95945050505050565b606061098461097f836106d7565b610ba7565b604051632fafb1ad60e21b81526001600160a01b038481166004830152919091169063bebec6b490602401600060405180830381865afa1580156109cc573d6000803e3d6000fd5b505050506040513d6000823e601f3d908101601f191682016040526106fc91908101906110a9565b606060005b83811015610aab576000610a188686848181106102d9576102d9610fb2565b604051632fafb1ad60e21b81526001600160a01b03898116600483015291925060009183169063bebec6b490602401600060405180830381865afa158015610a64573d6000803e3d6000fd5b505050506040513d6000823e601f3d908101601f19168201604052610a8c91908101906110a9565b90508051600014610aa157925061079c915050565b50506001016109f9565b508115610ac257610abb85610971565b905061079c565b50604080516020810190915260008152949350505050565b610ae2610b33565b6001600160a01b038116610b2a576040517f1e4fbdf7000000000000000000000000000000000000000000000000000000008152600060048201526024015b60405180910390fd5b6102b181610bf5565b33610b657f9016d09d72d40fdae2fd8ceac6b6234c7706214fd39c1cd1e609a0528c199300546001600160a01b031690565b6001600160a01b03161461050c576040517f118cdaa7000000000000000000000000000000000000000000000000000000008152336004820152602401610b21565b6000818152602081905260408120546001600160a01b0316806106fc576040517eea4de600000000000000000000000000000000000000000000000000000000815260040160405180910390fd5b7f9016d09d72d40fdae2fd8ceac6b6234c7706214fd39c1cd1e609a0528c199300805473ffffffffffffffffffffffffffffffffffffffff1981166001600160a01b03848116918217845560405192169182907f8be0079c531659141344cd1fd0a4f28419497f9722a3daafe3b4186f6b6457e090600090a3505050565b610c7b610c84565b6102b181610ceb565b7ff0c57e16840df040f15088dc2f81fe391c3923bec73e23a9662efc9c229c6a005468010000000000000000900460ff1661050c576040517fd7e6bcf800000000000000000000000000000000000000000000000000000000815260040160405180910390fd5b610ae2610c84565b600060208284031215610d0557600080fd5b5035919050565b6001600160a01b03811681146102b157600080fd5b60008083601f840112610d3357600080fd5b50813567ffffffffffffffff811115610d4b57600080fd5b6020830191508360208260051b8501011115610d6657600080fd5b9250929050565b80151581146102b157600080fd5b60008060008060608587031215610d9157600080fd5b8435610d9c81610d0c565b9350602085013567ffffffffffffffff811115610db857600080fd5b610dc487828801610d21565b9094509250506040850135610dd881610d6d565b939692955090935050565b60008060408385031215610df657600080fd5b8235610e0181610d0c565b946020939093013593505050565b600060208284031215610e2157600080fd5b8135610e2c81610d0c565b9392505050565b600080600060608486031215610e4857600080fd5b505081359360208301359350604090920135919050565b60005b83811015610e7a578181015183820152602001610e62565b50506000910152565b60008151808452610e9b816020860160208601610e5f565b601f01601f19169290920160200192915050565b602081526000610e2c6020830184610e83565b60008060408385031215610ed557600080fd5b8235610ee081610d0c565b91506020830135610ef081610d6d565b809150509250929050565b60008060008060608587031215610f1157600080fd5b8435935060208501359250604085013567ffffffffffffffff811115610f3657600080fd5b610f4287828801610d21565b95989497509550505050565b600060208083016020845280855180835260408601915060408160051b87010192506020870160005b82811015610fa557603f19888603018452610f93858351610e83565b94509285019290850190600101610f77565b5092979650505050505050565b634e487b7160e01b600052603260045260246000fd5b600060208284031215610fda57600080fd5b5051919050565b600060208284031215610ff357600080fd5b8151610e2c81610d6d565b634e487b7160e01b600052604160045260246000fd5b604051601f8201601f1916810167ffffffffffffffff8111828210171561103d5761103d610ffe565b604052919050565b600082601f83011261105657600080fd5b815167ffffffffffffffff81111561107057611070610ffe565b611083601f8201601f1916602001611014565b81815284602083860101111561109857600080fd5b61079c826020830160208701610e5f565b6000602082840312156110bb57600080fd5b815167ffffffffffffffff8111156110d257600080fd5b61079c84828501611045565b600080604083850312156110f157600080fd5b825167ffffffffffffffff81111561110857600080fd5b61111485828601611045565b925050602083015190509250929050565b8381526040602082015281604082015260007f07ffffffffffffffffffffffffffffffffffffffffffffffffffffffffffffff83111561116457600080fd5b8260051b8085606085013791909101606001949350505050565b6000602080838503121561119157600080fd5b825167ffffffffffffffff808211156111a957600080fd5b818501915085601f8301126111bd57600080fd5b8151818111156111cf576111cf610ffe565b8060051b6111de858201611014565b91825283810185019185810190898411156111f857600080fd5b86860192505b83831015611234578251858111156112165760008081fd5b6112248b89838a0101611045565b83525091860191908601906111fe565b999850505050505050505056fea2646970667358221220b4d6a380a1cd590795099545cc9aa1bf7eb9ad129de7e967f67fee6cb04f35c264736f6c63430008180033",
  "linkReferences": {},
  "deployedLinkReferences": {}
}