{
  "_format": "hh-sol-artifact-1",
  "contractName": "NNSResolverToken",
  "sourceName": "contracts/NNSResolverToken.sol",
  "abi": [
    {
      "inputs": [],
      "stateMutability": "nonpayable",
      "type": "constructor"
    },
    {
      "inputs": [
        {
          "internalType": "address",
          "name": "sender",
          "type": "address"
        },
        {
          "internalType": "uint256",
          "name": "tokenId",
          "type": "uint256"
        },
        {
          "internalType": "address",
          "name": "owner",
          "type": "address"
        }
      ],
      "name": "ERC721IncorrectOwner",
      "type": "error"
    },
    {
      "inputs": [
        {
          "internalType": "address",
          "name": "operator",
          "type": "address"
        },
        {
          "internalType": "uint256",
          "name": "tokenId",
          "type": "uint256"
        }
      ],
      "name": "ERC721InsufficientApproval",
      "type": "error"
    },
    {
      "inputs": [
        {
          "internalType": "address",
          "name": "approver",
          "type": "address"
        }
      ],
      "name": "ERC721InvalidApprover",
      "type": "error"
    },
    {
      "inputs": [
        {
          "internalType": "address",
          "name": "operator",
          "type": "address"
        }
      ],
      "name": "ERC721InvalidOperator",
      "type": "error"
    },
    {
      "inputs": [
        {
          "internalType": "address",
          "name": "owner",
          "type": "address"
        }
      ],
      "name": "ERC721InvalidOwner",
      "type": "error"
    },
    {
      "inputs": [
        {
          "internalType": "address",
          "name": "receiver",
          "type": "address"
        }
      ],
      "name": "ERC721InvalidReceiver",
      "type": "error"
    },
    {
      "inputs": [
        {
          "internalType": "address",
          "name": "sender",
          "type": "address"
        }
      ],
      "name": "ERC721InvalidSender",
      "type": "error"
    },
    {
      "inputs": [
        {
          "internalType": "uint256",
          "name": "tokenId",
          "type": "uint256"
        }
      ],
      "name": "ERC721NonexistentToken",
      "type": "error"
    },
    {
      "inputs": [
        {
          "internalType": "address",
          "name": "owner",
          "type": "address"
        }
      ],
      "name": "OwnableInvalidOwner",
      "type": "error"
    },
    {
      "inputs": [
        {
          "internalType": "address",
          "name": "account",
          "type": "address"
        }
      ],
      "name": "OwnableUnauthorizedAccount",
      "type": "error"
    },
    {
      "inputs": [
        {
          "internalType": "uint256",
          "name": "value",
          "type": "uint256"
        },
        {
          "internalType": "uint256",
          "name": "length",
          "type": "uint256"
        }
      ],
      "name": "StringsInsufficientHexLength",
      "type": "error"
    },
    {
      "anonymous": false,
      "inputs": [
        {
          "indexed": true,
          "internalType": "address",
          "name": "owner",
          "type": "address"
        },
        {
          "indexed": true,
          "internalType": "address",
          "name": "approved",
          "type": "address"
        },
        {
          "indexed": true,
          "internalType": "uint256",
          "name": "tokenId",
          "type": "uint256"
        }
      ],
      "name": "Approval",
      "type": "event"
    },
    {
      "anonymous": false,
      "inputs": [
        {
          "indexed": true,
          "internalType": "address",
          "name": "owner",
          "type": "address"
        },
        {
          "indexed": true,
          "internalType": "address",
          "name": "operator",
          "type": "address"
        },
        {
          "indexed": false,
          "internalType": "bool",
          "name": "approved",
          "type": "bool"
        }
      ],
      "name": "ApprovalForAll",
      "type": "event"
    },
    {
      "anonymous": false,
      "inputs": [
        {
          "indexed": true,
          "internalType": "address",
          "name": "previousOwner",
          "type": "address"
        },
        {
          "indexed": true,
          "internalType": "address",
          "name": "newOwner",
          "type": "address"
        }
      ],
      "name": "OwnershipTransferred",
      "type": "event"
    },
    {
      "anonymous": false,
      "inputs": [
        {
          "indexed": true,
          "internalType": "address",
          "name": "from",
          "type": "address"
        },
        {
          "indexed": true,
          "internalType": "address",
          "name": "to",
          "type": "address"
        },
        {
          "indexed": true,
          "internalType": "uint256",
          "name": "tokenId",
          "type": "uint256"
        }
      ],
      "name": "Transfer",
      "type": "event"
    },
    {
      "inputs": [
        {
          "internalType": "address",
          "name": "to",
          "type": "address"
        },
        {
          "internalType": "uint256",
          "name": "tokenId",
          "type": "uint256"
        }
      ],
      "name": "approve",
      "outputs": [],
      "stateMutability": "nonpayable",
      "type": "function"
    },
    {
      "inputs": [
        {
          "internalType": "address",
          "name": "owner",
          "type": "address"
        }
      ],
      "name": "balanceOf",
      "outputs": [
        {
          "internalType": "uint256",
          "name": "",
          "type": "uint256"
        }
      ],
      "stateMutability": "view",
      "type": "function"
    },
    {
      "inputs": [
        {
          "internalType": "string",
          "name": "name",
          "type": "string"
        }
      ],
      "name": "burn",
      "outputs": [],
      "stateMutability": "nonpayable",
      "type": "function"
    },
    {
      "inputs": [
        {
          "internalType": "uint256",
          "name": "tokenId",
          "type": "uint256"
        }
      ],
      "name": "getApproved",
      "outputs": [
        {
          "internalType": "address",
          "name": "",
          "type": "address"
        }
      ],
      "stateMutability": "view",
      "type": "function"
    },
    {
      "inputs": [
        {
          "internalType": "address",
          "name": "owner",
          "type": "address"
        },
        {
          "internalType": "address",
          "name": "operator",
          "type": "address"
        }
      ],
      "name": "isApprovedForAll",
      "outputs": [
        {
          "internalType": "bool",
          "name": "",
          "type": "bool"
        }
      ],
      "stateMutability": "view",
      "type": "function"
    },
    {
      "inputs": [
        {
          "internalType": "address",
          "name": "to",
          "type": "address"
        },
        {
          "internalType": "string",
          "name": "name",
          "type": "string"
        }
      ],
      "name": "mint",
      "outputs": [],
      "stateMutability": "nonpayable",
      "type": "function"
    },
    {
      "inputs": [
        {
          "internalType": "uint256",
          "name": "tokenId",
          "type": "uint256"
        }
      ],
      "name": "mintBlockNumberOf",
      "outputs": [
        {
          "internalType": "uint256",
          "name": "",
          "type": "uint256"
        }
      ],
      "stateMutability": "view",
      "type": "function"
    },
    {
      "inputs": [],
      "name": "name",
      "outputs": [
        {
          "internalType": "string",
          "name": "",
          "type": "string"
        }
      ],
      "stateMutability": "view",
      "type": "function"
    },
    {
      "inputs": [
        {
          "internalType": "uint256",
          "name": "tokenId",
          "type": "uint256"
        }
      ],
      "name": "nameOf",
      "outputs": [
        {
          "internalType": "string",
          "name": "",
          "type": "string"
        }
      ],
      "stateMutability": "view",
      "type": "function"
    },
    {
      "inputs": [],
      "name": "owner",
      "outputs": [
        {
          "internalType": "address",
          "name": "",
          "type": "address"
        }
      ],
      "stateMutability": "view",
      "type": "function"
    },
    {
      "inputs": [
        {
          "internalType": "uint256",
          "name": "tokenId",
          "type": "uint256"
        }
      ],
      "name": "ownerOf",
      "outputs": [
        {
          "internalType": "address",
          "name": "",
          "type": "address"
        }
      ],
      "stateMutability": "view",
      "type": "function"
    },
    {
      "inputs": [],
      "name": "renounceOwnership",
      "outputs": [],
      "stateMutability": "nonpayable",
      "type": "function"
    },
    {
      "inputs": [
        {
          "internalType": "address",
          "name": "from",
          "type": "address"
        },
        {
          "internalType": "address",
          "name": "to",
          "type": "address"
        },
        {
          "internalType": "uint256",
          "name": "tokenId",
          "type": "uint256"
        }
      ],
      "name": "safeTransferFrom",
      "outputs": [],
      "stateMutability": "nonpayable",
      "type": "function"
    },
    {
      "inputs": [
        {
          "internalType": "address",
          "name": "from",
          "type": "address"
        },
        {
          "internalType": "address",
          "name": "to",
          "type": "address"
        },
        {
          "internalType": "uint256",
          "name": "tokenId",
          "type": "uint256"
        },
        {
          "internalType": "bytes",
          "name": "data",
          "type": "bytes"
        }
      ],
      "name": "safeTransferFrom",
      "outputs": [],
      "stateMutability": "nonpayable",
      "type": "function"
    },
    {
      "inputs": [
        {
          "internalType": "address",
          "name": "operator",
          "type": "address"
        },
        {
          "internalType": "bool",
          "name": "approved",
          "type": "bool"
        }
      ],
      "name": "setApprovalForAll",
      "outputs": [],
      "stateMutability": "nonpayable",
      "type": "function"
    },
    {
      "inputs": [
        {
          "internalType": "bytes4",
          "name": "interfaceId",
          "type": "bytes4"
        }
      ],
      "name": "supportsInterface",
      "outputs": [
        {
          "internalType": "bool",
          "name": "",
          "type": "bool"
        }
      ],
      "stateMutability": "view",
      "type": "function"
    },
    {
      "inputs": [],
      "name": "symbol",
      "outputs": [
        {
          "internalType": "string",
          "name": "",
          "type": "string"
        }
      ],
      "stateMutability": "view",
      "type": "function"
    },
    {
      "inputs": [
        {
          "internalType": "uint256",
          "name": "tokenId",
          "type": "uint256"
        }
      ],
      "name": "tokenURI",
      "outputs": [
        {
          "internalType": "string",
          "name": "",
          "type": "string"
        }
      ],
      "stateMutability": "view",
      "type": "function"
    },
    {
      "inputs": [],
      "name": "totalSupply",
      "outputs": [
        {
          "internalType": "uint256",
          "name": "",
          "type": "uint256"
        }
      ],
      "stateMutability": "view",
      "type": "function"
    },
    {
      "inputs": [
        {
          "internalType": "address",
          "name": "from",
          "type": "address"
        },
        {
          "internalType": "address",
          "name": "to",
          "type": "address"
        },
        {
          "internalType": "uint256",
          "name": "tokenId",
          "type": "uint256"
        }
      ],
      "name": "transferFrom",
      "outputs": [],
      "stateMutability": "nonpayable",
      "type": "function"
    },
    {
      "inputs": [
        {
          "internalType": "address",
          "name": "newOwner",
          "type": "address"
        }
      ],
      "name": "transferOwnership",
      "outputs": [],
      "stateMutability": "nonpayable",
      "type": "function"
    }
  ],
  "bytecode": "0x60806040523480156200001157600080fd5b50336040518060400160405280600c81526020016b272729902932b9b7b63b32b960a11b81525060405180604001604052806004815260200163272729a960e11b8152508160009081620000669190620001b2565b506001620000758282620001b2565b5050506001600160a01b038116620000a757604051631e4fbdf760e01b81526000600482015260240160405180910390fd5b620000b281620000b9565b506200027e565b600680546001600160a01b038381166001600160a01b0319831681179093556040519116919082907f8be0079c531659141344cd1fd0a4f28419497f9722a3daafe3b4186f6b6457e090600090a35050565b634e487b7160e01b600052604160045260246000fd5b600181811c908216806200013657607f821691505b6020821081036200015757634e487b7160e01b600052602260045260246000fd5b50919050565b601f821115620001ad576000816000526020600020601f850160051c81016020861015620001885750805b601f850160051c820191505b81811015620001a95782815560010162000194565b5050505b505050565b81516001600160401b03811115620001ce57620001ce6200010b565b620001e681620001df845462000121565b846200015d565b602080601f8311600181146200021e5760008415620002055750858301515b600019600386901b1c1916600185901b178555620001a9565b600085815260208120601f198616915b828110156200024f578886015182559484019460019091019084016200022e565b50858210156200026e5787850151600019600388901b60f8161c191681555b5050505050600190811b01905550565b611b04806200028e6000396000f3fe608060405234801561001057600080fd5b50600436106101775760003560e01c806370a08231116100d8578063b88d4fde1161008c578063dafa1d2d11610066578063dafa1d2d146102ea578063e985e9c5146102fd578063f2fde38b1461033957600080fd5b8063b88d4fde146102b1578063c87b56dd146102c4578063d0def521146102d757600080fd5b80638da5cb5b116100bd5780638da5cb5b1461028557806395d89b4114610296578063a22cb4651461029e57600080fd5b806370a082311461026a578063715018a61461027d57600080fd5b806318160ddd1161012f57806342842e0e1161011457806342842e0e1461023157806358f3d653146102445780636352211e1461025757600080fd5b806318160ddd1461020c57806323b872dd1461021e57600080fd5b806306fdde031161016057806306fdde03146101c4578063081812fc146101cc578063095ea7b3146101f757600080fd5b806301ffc9a71461017c578063051a2664146101a4575b600080fd5b61018f61018a36600461145b565b61034c565b60405190151581526020015b60405180910390f35b6101b76101b2366004611478565b6103e9565b60405161019b91906114e1565b6101b7610493565b6101df6101da366004611478565b610525565b6040516001600160a01b03909116815260200161019b565b61020a610205366004611510565b61054e565b005b6009545b60405190815260200161019b565b61020a61022c36600461153a565b61055d565b61020a61023f36600461153a565b610606565b610210610252366004611478565b610626565b6101df610265366004611478565b610645565b610210610278366004611576565b610650565b61020a6106b1565b6006546001600160a01b03166101df565b6101b76106c5565b61020a6102ac366004611591565b6106d4565b61020a6102bf3660046115e3565b6106df565b6101b76102d2366004611478565b6106f6565b61020a6102e5366004611708565b61075e565b61020a6102f836600461175b565b6107ce565b61018f61030b36600461179d565b6001600160a01b03918216600090815260056020908152604080832093909416825291909152205460ff1690565b61020a610347366004611576565b610822565b60006001600160e01b031982167f80ac58cd0000000000000000000000000000000000000000000000000000000014806103af57506001600160e01b031982167f5b5e139f00000000000000000000000000000000000000000000000000000000145b806103e357507f01ffc9a7000000000000000000000000000000000000000000000000000000006001600160e01b03198316145b92915050565b60606103f482610879565b506000828152600860205260409020805461040e906117d0565b80601f016020809104026020016040519081016040528092919081815260200182805461043a906117d0565b80156104875780601f1061045c57610100808354040283529160200191610487565b820191906000526020600020905b81548152906001019060200180831161046a57829003601f168201915b50505050509050919050565b6060600080546104a2906117d0565b80601f01602080910402602001604051908101604052809291908181526020018280546104ce906117d0565b801561051b5780601f106104f05761010080835404028352916020019161051b565b820191906000526020600020905b8154815290600101906020018083116104fe57829003601f168201915b5050505050905090565b600061053082610879565b506000828152600460205260409020546001600160a01b03166103e3565b6105598282336108b2565b5050565b6001600160a01b03821661058c57604051633250574960e11b8152600060048201526024015b60405180910390fd5b60006105998383336108bf565b9050836001600160a01b0316816001600160a01b031614610600576040517f64283d7b0000000000000000000000000000000000000000000000000000000081526001600160a01b0380861660048301526024820184905282166044820152606401610583565b50505050565b610621838383604051806020016040528060008152506106df565b505050565b600061063182610879565b505060009081526007602052604090205490565b60006103e382610952565b60006001600160a01b038216610695576040517f89c62b6400000000000000000000000000000000000000000000000000000000815260006004820152602401610583565b506001600160a01b031660009081526003602052604090205490565b6106b961095d565b6106c360006109a3565b565b6060600180546104a2906117d0565b610559338383610a02565b6106ea84848461055d565b61060084848484610aba565b606061070182610879565b50600061070c610be3565b9050600081511161072c5760405180602001604052806000815250610757565b8061073684610c1c565b60405160200161074792919061180a565b6040516020818303038152906040525b9392505050565b61076661095d565b60006107a783838080601f01602080910402602001604051908101604052809392919081815260200183838082843760009201829052509250610cbc915050565b60008181526008602052604090209091506107c3838583611889565b506106008482610d1f565b6107d661095d565b600061081783838080601f01602080910402602001604051908101604052809392919081815260200183838082843760009201829052509250610cbc915050565b905061062181610d9d565b61082a61095d565b6001600160a01b03811661086d576040517f1e4fbdf700000000000000000000000000000000000000000000000000000000815260006004820152602401610583565b610876816109a3565b50565b6000818152600260205260408120546001600160a01b0316806103e357604051637e27328960e01b815260048101849052602401610583565b6106218383836001610dd8565b6000806108cd858585610f23565b90506001600160a01b03811661090257600084815260076020526040812043905560098054916108fc8361195f565b91905055505b6001600160a01b03851661094a57600084815260076020908152604080832083905560089091528120610934916113f7565b6009805490600061094483611978565b91905055505b949350505050565b60006103e382610879565b6006546001600160a01b031633146106c3576040517f118cdaa7000000000000000000000000000000000000000000000000000000008152336004820152602401610583565b600680546001600160a01b0383811673ffffffffffffffffffffffffffffffffffffffff19831681179093556040519116919082907f8be0079c531659141344cd1fd0a4f28419497f9722a3daafe3b4186f6b6457e090600090a35050565b6001600160a01b038216610a4d576040517f5b08ba180000000000000000000000000000000000000000000000000000000081526001600160a01b0383166004820152602401610583565b6001600160a01b03838116600081815260056020908152604080832094871680845294825291829020805460ff191686151590811790915591519182527f17307eab39ab6107e8899845ad3d59bd9653f200f220920489ca2b5937696c31910160405180910390a3505050565b6001600160a01b0383163b1561060057604051630a85bd0160e11b81526001600160a01b0384169063150b7a0290610afc90339088908790879060040161198f565b6020604051808303816000875af1925050508015610b37575060408051601f3d908101601f19168201909252610b34918101906119cb565b60015b610ba0573d808015610b65576040519150601f19603f3d011682016040523d82523d6000602084013e610b6a565b606091505b508051600003610b9857604051633250574960e11b81526001600160a01b0385166004820152602401610583565b805181602001fd5b6001600160e01b03198116630a85bd0160e11b14610bdc57604051633250574960e11b81526001600160a01b0385166004820152602401610583565b5050505050565b6060610bee46610c1c565b610bf730611029565b604051602001610c089291906119e8565b604051602081830303815290604052905090565b60606000610c298361103f565b600101905060008167ffffffffffffffff811115610c4957610c496115cd565b6040519080825280601f01601f191660200182016040528015610c73576020820181803683370190505b5090508181016020015b600019017f3031323334353637383961626364656600000000000000000000000000000000600a86061a8153600a8504945084610c7d57509392505050565b60008183604051602001610cd09190611a72565b60405160208183030381529060405280519060200120604051602001610d00929190918252602082015260400190565b60408051601f1981840301815291905280516020909101209392505050565b6001600160a01b038216610d4957604051633250574960e11b815260006004820152602401610583565b6000610d57838360006108bf565b90506001600160a01b03811615610621576040517f73c6ac6e00000000000000000000000000000000000000000000000000000000815260006004820152602401610583565b6000610dac60008360006108bf565b90506001600160a01b03811661055957604051637e27328960e01b815260048101839052602401610583565b8080610dec57506001600160a01b03821615155b15610ee6576000610dfc84610879565b90506001600160a01b03831615801590610e285750826001600160a01b0316816001600160a01b031614155b8015610e5a57506001600160a01b0380821660009081526005602090815260408083209387168352929052205460ff16155b15610e9c576040517fa9fbf51f0000000000000000000000000000000000000000000000000000000081526001600160a01b0384166004820152602401610583565b8115610ee45783856001600160a01b0316826001600160a01b03167f8c5be1e5ebec7d5bd14f71427d1e84f3dd0314c0f7b2291e5b200ac8c7c3b92560405160405180910390a45b505b50506000908152600460205260409020805473ffffffffffffffffffffffffffffffffffffffff19166001600160a01b0392909216919091179055565b6000828152600260205260408120546001600160a01b0390811690831615610f5057610f50818486611121565b6001600160a01b03811615610f8e57610f6d600085600080610dd8565b6001600160a01b038116600090815260036020526040902080546000190190555b6001600160a01b03851615610fbd576001600160a01b0385166000908152600360205260409020805460010190555b600084815260026020526040808220805473ffffffffffffffffffffffffffffffffffffffff19166001600160a01b0389811691821790925591518793918516917fddf252ad1be2c89b69c2b068fc378daa952ba7f163c4a11628f55a4df523b3ef91a4949350505050565b60606103e36001600160a01b038316601461119e565b6000807a184f03e93ff9f4daa797ed6e38ed64bf6a1f0100000000000000008310611088577a184f03e93ff9f4daa797ed6e38ed64bf6a1f010000000000000000830492506040015b6d04ee2d6d415b85acef810000000083106110b4576d04ee2d6d415b85acef8100000000830492506020015b662386f26fc1000083106110d257662386f26fc10000830492506010015b6305f5e10083106110ea576305f5e100830492506008015b61271083106110fe57612710830492506004015b60648310611110576064830492506002015b600a83106103e35760010192915050565b61112c838383611374565b610621576001600160a01b03831661115a57604051637e27328960e01b815260048101829052602401610583565b6040517f177e802f0000000000000000000000000000000000000000000000000000000081526001600160a01b038316600482015260248101829052604401610583565b60608260006111ae846002611a8e565b6111b9906002611aa5565b67ffffffffffffffff8111156111d1576111d16115cd565b6040519080825280601f01601f1916602001820160405280156111fb576020820181803683370190505b5090507f30000000000000000000000000000000000000000000000000000000000000008160008151811061123257611232611ab8565b60200101906001600160f81b031916908160001a9053507f78000000000000000000000000000000000000000000000000000000000000008160018151811061127d5761127d611ab8565b60200101906001600160f81b031916908160001a90535060006112a1856002611a8e565b6112ac906001611aa5565b90505b6001811115611331577f303132333435363738396162636465660000000000000000000000000000000083600f16601081106112ed576112ed611ab8565b1a60f81b82828151811061130357611303611ab8565b60200101906001600160f81b031916908160001a90535060049290921c9161132a81611978565b90506112af565b50811561094a576040517fe22e27eb0000000000000000000000000000000000000000000000000000000081526004810186905260248101859052604401610583565b60006001600160a01b0383161580159061094a5750826001600160a01b0316846001600160a01b031614806113ce57506001600160a01b0380851660009081526005602090815260408083209387168352929052205460ff165b8061094a5750506000908152600460205260409020546001600160a01b03908116911614919050565b508054611403906117d0565b6000825580601f10611413575050565b601f01602090049060005260206000209081019061087691905b80821115611441576000815560010161142d565b5090565b6001600160e01b03198116811461087657600080fd5b60006020828403121561146d57600080fd5b813561075781611445565b60006020828403121561148a57600080fd5b5035919050565b60005b838110156114ac578181015183820152602001611494565b50506000910152565b600081518084526114cd816020860160208601611491565b601f01601f19169290920160200192915050565b60208152600061075760208301846114b5565b80356001600160a01b038116811461150b57600080fd5b919050565b6000806040838503121561152357600080fd5b61152c836114f4565b946020939093013593505050565b60008060006060848603121561154f57600080fd5b611558846114f4565b9250611566602085016114f4565b9150604084013590509250925092565b60006020828403121561158857600080fd5b610757826114f4565b600080604083850312156115a457600080fd5b6115ad836114f4565b9150602083013580151581146115c257600080fd5b809150509250929050565b634e487b7160e01b600052604160045260246000fd5b600080600080608085870312156115f957600080fd5b611602856114f4565b9350611610602086016114f4565b925060408501359150606085013567ffffffffffffffff8082111561163457600080fd5b818701915087601f83011261164857600080fd5b81358181111561165a5761165a6115cd565b604051601f8201601f19908116603f01168101908382118183101715611682576116826115cd565b816040528281528a602084870101111561169b57600080fd5b82602086016020830137600060208483010152809550505050505092959194509250565b60008083601f8401126116d157600080fd5b50813567ffffffffffffffff8111156116e957600080fd5b60208301915083602082850101111561170157600080fd5b9250929050565b60008060006040848603121561171d57600080fd5b611726846114f4565b9250602084013567ffffffffffffffff81111561174257600080fd5b61174e868287016116bf565b9497909650939450505050565b6000806020838503121561176e57600080fd5b823567ffffffffffffffff81111561178557600080fd5b611791858286016116bf565b90969095509350505050565b600080604083850312156117b057600080fd5b6117b9836114f4565b91506117c7602084016114f4565b90509250929050565b600181811c908216806117e457607f821691505b60208210810361180457634e487b7160e01b600052602260045260246000fd5b50919050565b6000835161181c818460208801611491565b835190830190611830818360208801611491565b01949350505050565b601f821115610621576000816000526020600020601f850160051c810160208610156118625750805b601f850160051c820191505b818110156118815782815560010161186e565b505050505050565b67ffffffffffffffff8311156118a1576118a16115cd565b6118b5836118af83546117d0565b83611839565b6000601f8411600181146118e957600085156118d15750838201355b600019600387901b1c1916600186901b178355610bdc565b600083815260209020601f19861690835b8281101561191a57868501358255602094850194600190920191016118fa565b50868210156119375760001960f88860031b161c19848701351681555b505060018560011b0183555050505050565b634e487b7160e01b600052601160045260246000fd5b60006001820161197157611971611949565b5060010190565b60008161198757611987611949565b506000190190565b60006001600160a01b038087168352808616602084015250836040830152608060608301526119c160808301846114b5565b9695505050505050565b6000602082840312156119dd57600080fd5b815161075781611445565b7f68747470733a2f2f6d657461646174612e6e6e732e78797a2f00000000000000815260008351611a20816019850160208801611491565b80830190507f2f000000000000000000000000000000000000000000000000000000000000008060198301528451611a5f81601a850160208901611491565b601a920191820152601b01949350505050565b60008251611a84818460208701611491565b9190910192915050565b80820281158282048414176103e3576103e3611949565b808201808211156103e3576103e3611949565b634e487b7160e01b600052603260045260246000fdfea264697066735822122071be02820a891058aef03a917532497f39c3d6263ba9b8f39b4d8dee41534d9864736f6c63430008180033",
  "linkReferences": {},
  "deployedLinkReferences": {}
}