{
  "address": "0x551AdE51c28b67b66868D61125768d571D2bB8BA",
  "abi": [
    {
      "inputs": [
        {
          "internalType": "address",
          "name": "_nns",
          "type": "address"
        },
        {
          "internalType": "address",
          "name": "_ens",
          "type": "address"
        }
      ],
      "stateMutability": "nonpayable",
      "type": "constructor"
    },
    {
      "inputs": [],
      "name": "ens",
      "outputs": [
        {
          "internalType": "contract ENS",
          "name": "",
          "type": "address"
        }
      ],
      "stateMutability": "view",
      "type": "function"
    },
    {
      "inputs": [],
      "name": "nns",
      "outputs": [
        {
          "internalType": "contract ENS",
          "name": "",
          "type": "address"
        }
      ],
      "stateMutability": "view",
      "type": "function"
    },
    {
      "inputs": [
        {
          "internalType": "address",
          "name": "addr",
          "type": "address"
        }
      ],
      "name": "resolve",
      "outputs": [
        {
          "internalType": "string",
          "name": "",
          "type": "string"
        }
      ],
      "stateMutability": "view",
      "type": "function"
    }
  ],
  "transactionHash": "0xe599f9263c6188c97484818bb43f95e4fcf7eb36f5841ef5c2ccd6950b4e5194",
  "args": [
    "0xE8E0fFE372608122c10544c2445272eD8E79dbAB",
    "0x00000000000C2E074eC69A0dFb2997BA6C7d2e1e"
  ],
  "numDeployments": 16,
  "solcInputHash": "e920b0293043b7706e0ae35aa514b99d",
  "bytecode": "0x60c060405234801561001057600080fd5b50604051610b4a380380610b4a83398101604081905261002f91610062565b6001600160a01b0391821660a05216608052610095565b80516001600160a01b038116811461005d57600080fd5b919050565b6000806040838503121561007557600080fd5b61007e83610046565b915061008c60208401610046565b90509250929050565b60805160a051610a7e6100cc6000396000818160bc015260e8015260008181604b0152818161011c015261015f0152610a7e6000f3fe608060405234801561001057600080fd5b50600436106100415760003560e01c80633f15457f1461004657806355ea6c4714610097578063c358133b146100b7575b600080fd5b61006d7f000000000000000000000000000000000000000000000000000000000000000081565b60405173ffffffffffffffffffffffffffffffffffffffff90911681526020015b60405180910390f35b6100aa6100a53660046107c9565b6100de565b60405161008e9190610816565b61006d7f000000000000000000000000000000000000000000000000000000000000000081565b6060600061010c837f0000000000000000000000000000000000000000000000000000000000000000610190565b90508051600014801561015457507f000000000000000000000000000000000000000000000000000000000000000073ffffffffffffffffffffffffffffffffffffffff1615155b1561018a57610183837f0000000000000000000000000000000000000000000000000000000000000000610190565b9392505050565b92915050565b6060600061019d84610567565b6040517f0178b8bf0000000000000000000000000000000000000000000000000000000081526004810182905290915060009073ffffffffffffffffffffffffffffffffffffffff851690630178b8bf90602401602060405180830381865afa15801561020e573d6000803e3d6000fd5b505050506040513d601f19601f820116820180604052508101906102329190610867565b905073ffffffffffffffffffffffffffffffffffffffff811661026857604051806020016040528060008152509250505061018a565b6040517f691f343100000000000000000000000000000000000000000000000000000000815260048101839052819060009073ffffffffffffffffffffffffffffffffffffffff83169063691f343190602401600060405180830381865afa1580156102d8573d6000803e3d6000fd5b505050506040513d6000823e601f3d9081017fffffffffffffffffffffffffffffffffffffffffffffffffffffffffffffffe016820160405261031e91908101906108b3565b905080516000148061037657506040517f918d5359431a7007dec0d4722530b0726c0e1010a959bd8b871a6a5d6337144a9061035e90839060200161097e565b60405160208183030381529060405280519060200120145b15610396576040518060200160405280600081525094505050505061018a565b60006103a1826105c2565b6040517f0178b8bf0000000000000000000000000000000000000000000000000000000081526004810182905290915060009073ffffffffffffffffffffffffffffffffffffffff891690630178b8bf90602401602060405180830381865afa158015610412573d6000803e3d6000fd5b505050506040513d601f19601f820116820180604052508101906104369190610867565b905073ffffffffffffffffffffffffffffffffffffffff81166104705760405180602001604052806000815250965050505050505061018a565b6040517f3b3b57de00000000000000000000000000000000000000000000000000000000815260048101839052819060009073ffffffffffffffffffffffffffffffffffffffff831690633b3b57de90602401602060405180830381865afa1580156104e0573d6000803e3d6000fd5b505050506040513d601f19601f820116820180604052508101906105049190610867565b90508a73ffffffffffffffffffffffffffffffffffffffff168173ffffffffffffffffffffffffffffffffffffffff161461055857604051806020016040528060008152509850505050505050505061018a565b50929998505050505050505050565b60007f91d1777781884d03a6757a803996e38de2a42967fb37eeaca72729271025a9e2610593836105cf565b604080516020810193909352820152606001604051602081830303815290604052805190602001209050919050565b600061018a82600061066f565b60007f303132333435363738396162636465660000000000000000000000000000000060285b8015610662577fffffffffffffffffffffffffffffffffffffffffffffffffffffffffffffffff01600f841682901a81536010909304927fffffffffffffffffffffffffffffffffffffffffffffffffffffffffffffffff01600f841682901a81536010840493506105f5565b5050602860002092915050565b6000818351116106815750600061018a565b600061068d84846106e9565b90506106ad8461069d83866109c9565b6106a89060016109c9565b61066f565b6106b8858584610780565b6040805160208101939093528201526060016040516020818303038152906040528051906020012091505092915050565b6000805b83516106f982856109c9565b1415801561076957508361070d82856109c9565b8151811061071d5761071d6109e1565b6020910101517fff00000000000000000000000000000000000000000000000000000000000000167f2e0000000000000000000000000000000000000000000000000000000000000014155b15610183578061077881610a10565b9150506106ed565b825160009061078f83856109c9565b111561079a57600080fd5b5091016020012090565b73ffffffffffffffffffffffffffffffffffffffff811681146107c657600080fd5b50565b6000602082840312156107db57600080fd5b8135610183816107a4565b60005b838110156108015781810151838201526020016107e9565b83811115610810576000848401525b50505050565b60208152600082518060208401526108358160408501602087016107e6565b601f017fffffffffffffffffffffffffffffffffffffffffffffffffffffffffffffffe0169190910160400192915050565b60006020828403121561087957600080fd5b8151610183816107a4565b7f4e487b7100000000000000000000000000000000000000000000000000000000600052604160045260246000fd5b6000602082840312156108c557600080fd5b815167ffffffffffffffff808211156108dd57600080fd5b818401915084601f8301126108f157600080fd5b81518181111561090357610903610884565b604051601f82017fffffffffffffffffffffffffffffffffffffffffffffffffffffffffffffffe0908116603f0116810190838211818310171561094957610949610884565b8160405282815287602084870101111561096257600080fd5b6109738360208301602088016107e6565b979650505050505050565b600082516109908184602087016107e6565b9190910192915050565b7f4e487b7100000000000000000000000000000000000000000000000000000000600052601160045260246000fd5b600082198211156109dc576109dc61099a565b500190565b7f4e487b7100000000000000000000000000000000000000000000000000000000600052603260045260246000fd5b60007fffffffffffffffffffffffffffffffffffffffffffffffffffffffffffffffff8203610a4157610a4161099a565b506001019056fea26469706673582212207d93fbddc28e2bd1cdd4d6b3c0306ee0430bf0b08c8d4df2e950987d2143dcbf64736f6c634300080d0033",
  "devdoc": {
    "kind": "dev",
    "methods": {},
    "version": 1
  },
  "userdoc": {
    "kind": "user",
    "methods": {},
    "version": 1
  },
  "storageLayout": {
    "storage": [],
    "types": null
  }
}