{
  "contracts/NNSRewarderV1.sol": {
    "NNSRewarderV1": {
      "abi": [
        {
          "inputs": [
            {
              "internalType": "address",
              "name": "target",
              "type": "address"
            }
          ],
          "name": "AddressEmptyCode",
          "type": "error"
        },
        {
          "inputs": [
            {
              "internalType": "address",
              "name": "account",
              "type": "address"
            }
          ],
          "name": "AddressInsufficientBalance",
          "type": "error"
        },
        {
          "inputs": [
            {
              "internalType": "uint256",
              "name": "cldId",
              "type": "uint256"
            },
            {
              "internalType": "address",
              "name": "addr",
              "type": "address"
            }
          ],
          "name": "CallerNotCommunityManager",
          "type": "error"
        },
        {
          "inputs": [
            {
              "internalType": "address",
              "name": "addr",
              "type": "address"
            }
          ],
          "name": "CallerNotController",
          "type": "error"
        },
        {
          "inputs": [
            {
              "internalType": "uint256",
              "name": "cldId",
              "type": "uint256"
            }
          ],
          "name": "CldAlreadyRegistered",
          "type": "error"
        },
        {
          "inputs": [],
          "name": "FailedInnerCall",
          "type": "error"
        },
        {
          "inputs": [
            {
              "internalType": "address",
              "name": "account",
              "type": "address"
            }
          ],
          "name": "InvalidAccount",
          "type": "error"
        },
        {
          "inputs": [
            {
              "internalType": "uint256",
              "name": "cldId",
              "type": "uint256"
            }
          ],
          "name": "InvalidCld",
          "type": "error"
        },
        {
          "inputs": [],
          "name": "InvalidInitialization",
          "type": "error"
        },
        {
          "inputs": [],
          "name": "InvalidShares",
          "type": "error"
        },
        {
          "inputs": [],
          "name": "NotInitializing",
          "type": "error"
        },
        {
          "inputs": [],
          "name": "NothingToWithdraw",
          "type": "error"
        },
        {
          "inputs": [
            {
              "internalType": "address",
              "name": "owner",
              "type": "address"
            }
          ],
          "name": "OwnableInvalidOwner",
          "type": "error"
        },
        {
          "inputs": [
            {
              "internalType": "address",
              "name": "account",
              "type": "address"
            }
          ],
          "name": "OwnableUnauthorizedAccount",
          "type": "error"
        },
        {
          "inputs": [
            {
              "internalType": "address",
              "name": "token",
              "type": "address"
            }
          ],
          "name": "SafeERC20FailedOperation",
          "type": "error"
        },
        {
          "anonymous": false,
          "inputs": [
            {
              "indexed": false,
              "internalType": "uint256",
              "name": "cldId",
              "type": "uint256"
            },
            {
              "indexed": false,
              "internalType": "address",
              "name": "target",
              "type": "address"
            },
            {
              "indexed": false,
              "internalType": "uint8",
              "name": "referralShare",
              "type": "uint8"
            },
            {
              "indexed": false,
              "internalType": "uint8",
              "name": "communityShare",
              "type": "uint8"
            },
            {
              "indexed": false,
              "internalType": "uint8",
              "name": "ecosystemShare",
              "type": "uint8"
            }
          ],
          "name": "CldConfigurationChanged",
          "type": "event"
        },
        {
          "anonymous": false,
          "inputs": [
            {
              "indexed": false,
              "internalType": "uint256",
              "name": "cldId",
              "type": "uint256"
            }
          ],
          "name": "CldRegistered",
          "type": "event"
        },
        {
          "anonymous": false,
          "inputs": [
            {
              "indexed": false,
              "internalType": "uint256",
              "name": "cldId",
              "type": "uint256"
            },
            {
              "indexed": false,
              "internalType": "address",
              "name": "referer",
              "type": "address"
            },
            {
              "indexed": false,
              "internalType": "uint256",
              "name": "amountEth",
              "type": "uint256"
            },
            {
              "indexed": false,
              "internalType": "uint256",
              "name": "amountERC20",
              "type": "uint256"
            }
          ],
          "name": "Collected",
          "type": "event"
        },
        {
          "anonymous": false,
          "inputs": [
            {
              "indexed": false,
              "internalType": "uint64",
              "name": "version",
              "type": "uint64"
            }
          ],
          "name": "Initialized",
          "type": "event"
        },
        {
          "anonymous": false,
          "inputs": [
            {
              "indexed": true,
              "internalType": "address",
              "name": "previousOwner",
              "type": "address"
            },
            {
              "indexed": true,
              "internalType": "address",
              "name": "newOwner",
              "type": "address"
            }
          ],
          "name": "OwnershipTransferred",
          "type": "event"
        },
        {
          "anonymous": false,
          "inputs": [
            {
              "indexed": false,
              "internalType": "address",
              "name": "account",
              "type": "address"
            },
            {
              "indexed": false,
              "internalType": "uint256[]",
              "name": "holderTokenIds",
              "type": "uint256[]"
            },
            {
              "indexed": false,
              "internalType": "uint256[]",
              "name": "ecosystemTokenIds",
              "type": "uint256[]"
            },
            {
              "indexed": false,
              "internalType": "uint256",
              "name": "amount",
              "type": "uint256"
            }
          ],
          "name": "Withdrawn",
          "type": "event"
        },
        {
          "inputs": [],
          "name": "PROTOCOL_SHARE",
          "outputs": [
            {
              "internalType": "uint8",
              "name": "",
              "type": "uint8"
            }
          ],
          "stateMutability": "view",
          "type": "function"
        },
        {
          "inputs": [],
          "name": "accountRewarder",
          "outputs": [
            {
              "internalType": "contract IAccountRewarder",
              "name": "",
              "type": "address"
            }
          ],
          "stateMutability": "view",
          "type": "function"
        },
        {
          "inputs": [
            {
              "internalType": "address",
              "name": "account",
              "type": "address"
            },
            {
              "internalType": "uint256[]",
              "name": "holderTokenIds",
              "type": "uint256[]"
            },
            {
              "internalType": "uint256[]",
              "name": "ecosystemTokenIds",
              "type": "uint256[]"
            }
          ],
          "name": "balanceOf",
          "outputs": [
            {
              "internalType": "uint256",
              "name": "",
              "type": "uint256"
            }
          ],
          "stateMutability": "view",
          "type": "function"
        },
        {
          "inputs": [
            {
              "internalType": "uint256",
              "name": "cldId",
              "type": "uint256"
            },
            {
              "internalType": "address",
              "name": "referer",
              "type": "address"
            }
          ],
          "name": "collect",
          "outputs": [],
          "stateMutability": "payable",
          "type": "function"
        },
        {
          "inputs": [
            {
              "internalType": "uint256",
              "name": "cldId",
              "type": "uint256"
            }
          ],
          "name": "configurationOf",
          "outputs": [
            {
              "components": [
                {
                  "internalType": "uint8",
                  "name": "referralShare",
                  "type": "uint8"
                },
                {
                  "internalType": "uint8",
                  "name": "communityShare",
                  "type": "uint8"
                },
                {
                  "internalType": "uint8",
                  "name": "ecosystemShare",
                  "type": "uint8"
                },
                {
                  "internalType": "uint8",
                  "name": "protocolShare",
                  "type": "uint8"
                },
                {
                  "internalType": "address",
                  "name": "payoutTarget",
                  "type": "address"
                },
                {
                  "internalType": "contract IRegistry",
                  "name": "registry",
                  "type": "address"
                }
              ],
              "internalType": "struct IRewarder.CldConfiguration",
              "name": "c",
              "type": "tuple"
            }
          ],
          "stateMutability": "view",
          "type": "function"
        },
        {
          "inputs": [],
          "name": "ecosystemRewarder",
          "outputs": [
            {
              "internalType": "contract IERC721BasedRewarder",
              "name": "",
              "type": "address"
            }
          ],
          "stateMutability": "view",
          "type": "function"
        },
        {
          "inputs": [],
          "name": "holderRewarder",
          "outputs": [
            {
              "internalType": "contract IERC721BasedRewarder",
              "name": "",
              "type": "address"
            }
          ],
          "stateMutability": "view",
          "type": "function"
        },
        {
          "inputs": [
            {
              "internalType": "contract IV3SwapRouter",
              "name": "swapRouter",
              "type": "address"
            },
            {
              "internalType": "contract IERC20",
              "name": "rewardToken",
              "type": "address"
            },
            {
              "internalType": "contract IERC20",
              "name": "weth9",
              "type": "address"
            },
            {
              "internalType": "address",
              "name": "protocol",
              "type": "address"
            }
          ],
          "name": "initialize",
          "outputs": [],
          "stateMutability": "nonpayable",
          "type": "function"
        },
        {
          "inputs": [],
          "name": "owner",
          "outputs": [
            {
              "internalType": "address",
              "name": "",
              "type": "address"
            }
          ],
          "stateMutability": "view",
          "type": "function"
        },
        {
          "inputs": [
            {
              "internalType": "contract IRegistry",
              "name": "registry",
              "type": "address"
            },
            {
              "internalType": "address",
              "name": "payout",
              "type": "address"
            },
            {
              "internalType": "uint8",
              "name": "referralShare",
              "type": "uint8"
            },
            {
              "internalType": "uint8",
              "name": "communityShare",
              "type": "uint8"
            },
            {
              "internalType": "uint8",
              "name": "ecosystemShare",
              "type": "uint8"
            }
          ],
          "name": "registerCld",
          "outputs": [],
          "stateMutability": "nonpayable",
          "type": "function"
        },
        {
          "inputs": [],
          "name": "renounceOwnership",
          "outputs": [],
          "stateMutability": "nonpayable",
          "type": "function"
        },
        {
          "inputs": [
            {
              "internalType": "contract IAccountRewarder",
              "name": "rewarder",
              "type": "address"
            }
          ],
          "name": "setAccountRewarder",
          "outputs": [],
          "stateMutability": "nonpayable",
          "type": "function"
        },
        {
          "inputs": [
            {
              "internalType": "uint256",
              "name": "cldId",
              "type": "uint256"
            },
            {
              "internalType": "address",
              "name": "target",
              "type": "address"
            },
            {
              "internalType": "uint8",
              "name": "referralShare",
              "type": "uint8"
            },
            {
              "internalType": "uint8",
              "name": "communityShare",
              "type": "uint8"
            },
            {
              "internalType": "uint8",
              "name": "ecosystemShare",
              "type": "uint8"
            }
          ],
          "name": "setCldConfiguration",
          "outputs": [],
          "stateMutability": "nonpayable",
          "type": "function"
        },
        {
          "inputs": [
            {
              "internalType": "address",
              "name": "controller",
              "type": "address"
            }
          ],
          "name": "setController",
          "outputs": [],
          "stateMutability": "nonpayable",
          "type": "function"
        },
        {
          "inputs": [
            {
              "internalType": "contract IERC721BasedRewarder",
              "name": "rewarder",
              "type": "address"
            }
          ],
          "name": "setEcosystemRewarder",
          "outputs": [],
          "stateMutability": "nonpayable",
          "type": "function"
        },
        {
          "inputs": [
            {
              "internalType": "contract IERC721BasedRewarder",
              "name": "rewarder",
              "type": "address"
            }
          ],
          "name": "setHolderRewarder",
          "outputs": [],
          "stateMutability": "nonpayable",
          "type": "function"
        },
        {
          "inputs": [
            {
              "internalType": "address",
              "name": "newOwner",
              "type": "address"
            }
          ],
          "name": "transferOwnership",
          "outputs": [],
          "stateMutability": "nonpayable",
          "type": "function"
        },
        {
          "inputs": [
            {
              "internalType": "address",
              "name": "account",
              "type": "address"
            },
            {
              "internalType": "uint256[]",
              "name": "holderTokenIds",
              "type": "uint256[]"
            },
            {
              "internalType": "uint256[]",
              "name": "ecosystemTokenIds",
              "type": "uint256[]"
            }
          ],
          "name": "withdraw",
          "outputs": [],
          "stateMutability": "nonpayable",
          "type": "function"
        }
      ],
      "evm": {
        "bytecode": {
          "linkReferences": {},
          "object": "608060405234801561001057600080fd5b50611f50806100206000396000f3fe6080604052600436106101295760003560e01c806387ad6d00116100a55780639339b0a011610074578063e514a14011610059578063e514a140146103a4578063f2fde38b146103c4578063f8c8765e146103e457600080fd5b80639339b0a0146103645780639aa9aac11461038457600080fd5b806387ad6d00146102d45780638d3c100a146102f45780638da5cb5b1461030757806392eefe9b1461034457600080fd5b80633561cee0116100fc57806355ea4259116100e157806355ea4259146102815780636fe13b491461029f578063715018a6146102bf57600080fd5b80633561cee01461022c57806351adc7611461025a57600080fd5b80630d804d401461012e57806322de3b91146101505780632b28e2e2146101875780632b545421146101a5575b600080fd5b34801561013a57600080fd5b5061014e610149366004611a58565b610404565b005b34801561015c57600080fd5b506007546001600160a01b03165b6040516001600160a01b0390911681526020015b60405180910390f35b34801561019357600080fd5b506006546001600160a01b031661016a565b3480156101b157600080fd5b506101c56101c0366004611ac1565b610593565b60405161017e9190600060c08201905060ff835116825260ff602084015116602083015260ff604084015116604083015260ff606084015116606083015260808301516001600160a01b0380821660808501528060a08601511660a0850152505092915050565b34801561023857600080fd5b5061024c610247366004611b26565b610656565b60405190815260200161017e565b34801561026657600080fd5b5061026f600581565b60405160ff909116815260200161017e565b34801561028d57600080fd5b506008546001600160a01b031661016a565b3480156102ab57600080fd5b5061014e6102ba366004611ba9565b61082d565b3480156102cb57600080fd5b5061014e610916565b3480156102e057600080fd5b5061014e6102ef366004611bd3565b61092a565b61014e610302366004611bf0565b610954565b34801561031357600080fd5b507f9016d09d72d40fdae2fd8ceac6b6234c7706214fd39c1cd1e609a0528c199300546001600160a01b031661016a565b34801561035057600080fd5b5061014e61035f366004611bd3565b610f93565b34801561037057600080fd5b5061014e61037f366004611b26565b610fbd565b34801561039057600080fd5b5061014e61039f366004611bd3565b611295565b3480156103b057600080fd5b5061014e6103bf366004611bd3565b6112bf565b3480156103d057600080fd5b5061014e6103df366004611bd3565b6112e9565b3480156103f057600080fd5b5061014e6103ff366004611c20565b611340565b600c546001600160a01b0316336001600160a01b03161461046457335b6040517f69867d640000000000000000000000000000000000000000000000000000000081526001600160a01b0390911660048201526024015b60405180910390fd5b6000856001600160a01b03166383d48e046040518163ffffffff1660e01b8152600401600060405180830381865afa1580156104a4573d6000803e3d6000fd5b505050506040513d6000823e601f3d908101601f191682016040526104cc9190810190611cb6565b6000818152600560205260409020549092506001600160a01b0316159050610523576040517f8099d0660000000000000000000000000000000000000000000000000000000081526004810182905260240161045b565b60008181526005602090815260409182902080546001600160a01b0319166001600160a01b038a1617905590518281527f8bd9cfa8c73842407f588399c731ae715c419ea74253764312148aa3f604cc8e910160405180910390a161058b81868686866114ca565b505050505050565b6040805160c081018252600080825260208201819052918101829052606081018290526080810182905260a08101919091526000828152600560205260409020546001600160a01b0316806105e85750919050565b6040805160c0810182526000858152600360209081528382205460ff90811684528783526001825284832054811682850152878352600482528483205416838501526005606084015295815260029095529320546001600160a01b0390811660808501521660a08301525090565b600080805b85811015610700576007546001600160a01b0316639cc7f70888888481811061068657610686611d6d565b905060200201356040518263ffffffff1660e01b81526004016106ab91815260200190565b602060405180830381865afa1580156106c8573d6000803e3d6000fd5b505050506040513d601f19601f820116820180604052508101906106ec9190611d83565b6106f69083611db2565b915060010161065b565b5060005b838110156107a9576006546001600160a01b0316639cc7f70886868481811061072f5761072f611d6d565b905060200201356040518263ffffffff1660e01b815260040161075491815260200190565b602060405180830381865afa158015610771573d6000803e3d6000fd5b505050506040513d601f19601f820116820180604052508101906107959190611d83565b61079f9083611db2565b9150600101610704565b506008546040516370a0823160e01b81526001600160a01b038981166004830152909116906370a0823190602401602060405180830381865afa1580156107f4573d6000803e3d6000fd5b505050506040513d601f19601f820116820180604052508101906108189190611d83565b6108229082611db2565b979650505050505050565b6000610838866115ed565b90506001600160a01b0381166341ef73b9336040517fffffffff0000000000000000000000000000000000000000000000000000000060e084901b1681526001600160a01b039091166004820152602401602060405180830381865afa1580156108a6573d6000803e3d6000fd5b505050506040513d601f19601f820116820180604052508101906108ca9190611dc5565b610909576040517fef5e45790000000000000000000000000000000000000000000000000000000081526004810187905233602482015260440161045b565b61058b86868686866114ca565b61091e611645565b61092860006116b9565b565b610932611645565b600880546001600160a01b0319166001600160a01b0392909216919091179055565b600c546001600160a01b0316336001600160a01b0316146109755733610421565b61097e826115ed565b50346000036109da57604080518381526001600160a01b03831660208201526000818301819052606082015290517fe985bb809569e1ab693b8d0a44015cb780fa698a4b16df55472d8eeffa185b399181900360800190a15050565b6040805160e081018252600b546001600160a01b039081168252600954811660208301908152610bb883850190815230606085019081524760808601908152600060a0870181815260c08801828152600a5499517f04e45aaf000000000000000000000000000000000000000000000000000000008152895189166004820152965188166024880152945162ffffff16604487015292518616606486015290516084850152905160a48401529051831660c48301529293909116906304e45aaf90479060e40160206040518083038185885af1158015610abe573d6000803e3d6000fd5b50505050506040513d601f19601f82011682018060405250810190610ae39190611d83565b9050826001600160a01b0381161580610bef57506001600160a01b03841615801590610bef5750600760009054906101000a90046001600160a01b03166001600160a01b031663bca6ce646040518163ffffffff1660e01b8152600401602060405180830381865afa158015610b5d573d6000803e3d6000fd5b505050506040513d601f19601f82011682018060405250810190610b819190611de7565b6040516370a0823160e01b81526001600160a01b03868116600483015291909116906370a0823190602401602060405180830381865afa158015610bc9573d6000803e3d6000fd5b505050506040513d601f19601f82011682018060405250810190610bed9190611d83565b155b15610c0f576000858152600260205260409020546001600160a01b031693505b600085815260036020526040812054606490610c2e9060ff1685611e04565b610c389190611e1b565b600854604051634b4a1cd560e01b81526001600160a01b03888116600483015260248201849052929350911690634b4a1cd5906044016020604051808303816000875af1158015610c8d573d6000803e3d6000fd5b505050506040513d601f19601f82011682018060405250810190610cb19190611d83565b50600086815260016020526040812054606490610cd19060ff1686611e04565b610cdb9190611e1b565b60085460008981526002602052604090819020549051634b4a1cd560e01b81526001600160a01b039182166004820152602481018490529293501690634b4a1cd5906044016020604051808303816000875af1158015610d3f573d6000803e3d6000fd5b505050506040513d601f19601f82011682018060405250810190610d639190611d83565b5060006064610d73600587611e04565b610d7d9190611e1b565b600854600054604051634b4a1cd560e01b81526001600160a01b039182166004820152602481018490529293501690634b4a1cd5906044016020604051808303816000875af1158015610dd4573d6000803e3d6000fd5b505050506040513d601f19601f82011682018060405250810190610df89190611d83565b50600088815260046020526040812054606490610e189060ff1688611e04565b610e229190611e1b565b60065460405163b32fe94f60e01b8152600481018390529192506001600160a01b03169063b32fe94f906024016020604051808303816000875af1158015610e6e573d6000803e3d6000fd5b505050506040513d601f19601f82011682018060405250810190610e929190611d83565b506000828285610ea2888b611e3d565b610eac9190611e3d565b610eb69190611e3d565b610ec09190611e3d565b90508015610f395760075460405163b32fe94f60e01b8152600481018390526001600160a01b039091169063b32fe94f906024016020604051808303816000875af1158015610f13573d6000803e3d6000fd5b505050506040513d601f19601f82011682018060405250810190610f379190611d83565b505b604080518b81526001600160a01b038816602082015234818301526060810189905290517fe985bb809569e1ab693b8d0a44015cb780fa698a4b16df55472d8eeffa185b399181900360800190a150505050505050505050565b610f9b611645565b600c80546001600160a01b0319166001600160a01b0392909216919091179055565b6000805b84811015611091576007546001600160a01b031663d571409188888885818110610fed57610fed611d6d565b6040517fffffffff0000000000000000000000000000000000000000000000000000000060e087901b1681526001600160a01b03909416600485015260200291909101356024830152506044016020604051808303816000875af1158015611059573d6000803e3d6000fd5b505050506040513d601f19601f8201168201806040525081019061107d9190611d83565b6110879083611db2565b9150600101610fc1565b5060005b82811015611165576006546001600160a01b031663d5714091888686858181106110c1576110c1611d6d565b6040517fffffffff0000000000000000000000000000000000000000000000000000000060e087901b1681526001600160a01b03909416600485015260200291909101356024830152506044016020604051808303816000875af115801561112d573d6000803e3d6000fd5b505050506040513d601f19601f820116820180604052508101906111519190611d83565b61115b9083611db2565b9150600101611095565b506008546040517ff7b6d74f0000000000000000000000000000000000000000000000000000000081526001600160a01b0388811660048301529091169063f7b6d74f906024016020604051808303816000875af11580156111cb573d6000803e3d6000fd5b505050506040513d601f19601f820116820180604052508101906111ef9190611d83565b6111f99082611db2565b905080600003611235576040517fd0d04f6000000000000000000000000000000000000000000000000000000000815260040160405180910390fd5b60095461124c906001600160a01b0316878361172a565b7f969b29af630290bc397caf79e9ccc1dc011eba52c697419736a7131a886a9dff86868686868660405161128596959493929190611e9b565b60405180910390a1505050505050565b61129d611645565b600680546001600160a01b0319166001600160a01b0392909216919091179055565b6112c7611645565b600780546001600160a01b0319166001600160a01b0392909216919091179055565b6112f1611645565b6001600160a01b038116611334576040517f1e4fbdf70000000000000000000000000000000000000000000000000000000081526000600482015260240161045b565b61133d816116b9565b50565b7ff0c57e16840df040f15088dc2f81fe391c3923bec73e23a9662efc9c229c6a00805468010000000000000000810460ff16159067ffffffffffffffff1660008115801561138b5750825b905060008267ffffffffffffffff1660011480156113a85750303b155b9050811580156113b6575080155b156113ed576040517ff92ee8a900000000000000000000000000000000000000000000000000000000815260040160405180910390fd5b845467ffffffffffffffff19166001178555831561142157845468ff00000000000000001916680100000000000000001785555b61142a336117af565b600a80546001600160a01b03808c166001600160a01b031992831617909255600980548b8416908316179055600b80548a8416908316179055600080549289169290911691909117905583156114bf57845468ff000000000000000019168555604051600181527fc7f505b2f371ae2175ee4913f4499e1f2633a7b5936321eed1cdaeb6115181d29060200160405180910390a15b505050505050505050565b60646005826114d98587611ee5565b6114e39190611ee5565b6114ed9190611ee5565b60ff161115611528576040517f6edcc52300000000000000000000000000000000000000000000000000000000815260040160405180910390fd5b600085815260026020908152604080832080546001600160a01b0389166001600160a01b0319909116811790915560018352818420805460ff88811660ff1992831681179093556003865284872080548b831690841681179091556004875296859020805491891691909216811790915583518b81529485019290925291830193909352606082015260808101919091527f13586fd4fc41a55042bb5598cae4e4ca021684e2b1a1134f48d0fb7dbba31ca09060a00160405180910390a15050505050565b6000818152600560205260408120546001600160a01b03168061163f576040517f6128427d0000000000000000000000000000000000000000000000000000000081526004810184905260240161045b565b92915050565b336116777f9016d09d72d40fdae2fd8ceac6b6234c7706214fd39c1cd1e609a0528c199300546001600160a01b031690565b6001600160a01b031614610928576040517f118cdaa700000000000000000000000000000000000000000000000000000000815233600482015260240161045b565b7f9016d09d72d40fdae2fd8ceac6b6234c7706214fd39c1cd1e609a0528c19930080546001600160a01b031981166001600160a01b03848116918217845560405192169182907f8be0079c531659141344cd1fd0a4f28419497f9722a3daafe3b4186f6b6457e090600090a3505050565b604080516001600160a01b038416602482015260448082018490528251808303909101815260649091019091526020810180517bffffffffffffffffffffffffffffffffffffffffffffffffffffffff167fa9059cbb000000000000000000000000000000000000000000000000000000001790526117aa9084906117c0565b505050565b6117b761183c565b61133d816118a3565b60006117d56001600160a01b038416836118ab565b905080516000141580156117fa5750808060200190518101906117f89190611dc5565b155b156117aa576040517f5274afe70000000000000000000000000000000000000000000000000000000081526001600160a01b038416600482015260240161045b565b7ff0c57e16840df040f15088dc2f81fe391c3923bec73e23a9662efc9c229c6a005468010000000000000000900460ff16610928576040517fd7e6bcf800000000000000000000000000000000000000000000000000000000815260040160405180910390fd5b6112f161183c565b60606118b9838360006118c0565b9392505050565b6060814710156118fe576040517fcd78605900000000000000000000000000000000000000000000000000000000815230600482015260240161045b565b600080856001600160a01b0316848660405161191a9190611efe565b60006040518083038185875af1925050503d8060008114611957576040519150601f19603f3d011682016040523d82523d6000602084013e61195c565b606091505b509150915061196c868383611976565b9695505050505050565b60608261198b57611986826119eb565b6118b9565b81511580156119a257506001600160a01b0384163b155b156119e4576040517f9996b3150000000000000000000000000000000000000000000000000000000081526001600160a01b038516600482015260240161045b565b50806118b9565b8051156119fb5780518082602001fd5b6040517f1425ea4200000000000000000000000000000000000000000000000000000000815260040160405180910390fd5b6001600160a01b038116811461133d57600080fd5b803560ff81168114611a5357600080fd5b919050565b600080600080600060a08688031215611a7057600080fd5b8535611a7b81611a2d565b94506020860135611a8b81611a2d565b9350611a9960408701611a42565b9250611aa760608701611a42565b9150611ab560808701611a42565b90509295509295909350565b600060208284031215611ad357600080fd5b5035919050565b60008083601f840112611aec57600080fd5b50813567ffffffffffffffff811115611b0457600080fd5b6020830191508360208260051b8501011115611b1f57600080fd5b9250929050565b600080600080600060608688031215611b3e57600080fd5b8535611b4981611a2d565b9450602086013567ffffffffffffffff80821115611b6657600080fd5b611b7289838a01611ada565b90965094506040880135915080821115611b8b57600080fd5b50611b9888828901611ada565b969995985093965092949392505050565b600080600080600060a08688031215611bc157600080fd5b853594506020860135611a8b81611a2d565b600060208284031215611be557600080fd5b81356118b981611a2d565b60008060408385031215611c0357600080fd5b823591506020830135611c1581611a2d565b809150509250929050565b60008060008060808587031215611c3657600080fd5b8435611c4181611a2d565b93506020850135611c5181611a2d565b92506040850135611c6181611a2d565b91506060850135611c7181611a2d565b939692955090935050565b634e487b7160e01b600052604160045260246000fd5b60005b83811015611cad578181015183820152602001611c95565b50506000910152565b60008060408385031215611cc957600080fd5b825167ffffffffffffffff80821115611ce157600080fd5b818501915085601f830112611cf557600080fd5b815181811115611d0757611d07611c7c565b604051601f8201601f19908116603f01168101908382118183101715611d2f57611d2f611c7c565b81604052828152886020848701011115611d4857600080fd5b611d59836020830160208801611c92565b602097909701519698969750505050505050565b634e487b7160e01b600052603260045260246000fd5b600060208284031215611d9557600080fd5b5051919050565b634e487b7160e01b600052601160045260246000fd5b8082018082111561163f5761163f611d9c565b600060208284031215611dd757600080fd5b815180151581146118b957600080fd5b600060208284031215611df957600080fd5b81516118b981611a2d565b808202811582820484141761163f5761163f611d9c565b600082611e3857634e487b7160e01b600052601260045260246000fd5b500490565b8181038181111561163f5761163f611d9c565b81835260007f07ffffffffffffffffffffffffffffffffffffffffffffffffffffffffffffff831115611e8257600080fd5b8260051b80836020870137939093016020019392505050565b6001600160a01b0387168152608060208201526000611ebe608083018789611e50565b8281036040840152611ed1818688611e50565b915050826060830152979650505050505050565b60ff818116838216019081111561163f5761163f611d9c565b60008251611f10818460208701611c92565b919091019291505056fea2646970667358221220ff580a664153b28c379b1ea9edfc0b1633636e5708cb3d4c5cc403da9258de1564736f6c63430008180033",
          "opcodes": "PUSH1 0x80 PUSH1 0x40 MSTORE CALLVALUE DUP1 ISZERO PUSH2 0x10 JUMPI PUSH1 0x0 DUP1 REVERT JUMPDEST POP PUSH2 0x1F50 DUP1 PUSH2 0x20 PUSH1 0x0 CODECOPY PUSH1 0x0 RETURN INVALID PUSH1 0x80 PUSH1 0x40 MSTORE PUSH1 0x4 CALLDATASIZE LT PUSH2 0x129 JUMPI PUSH1 0x0 CALLDATALOAD PUSH1 0xE0 SHR DUP1 PUSH4 0x87AD6D00 GT PUSH2 0xA5 JUMPI DUP1 PUSH4 0x9339B0A0 GT PUSH2 0x74 JUMPI DUP1 PUSH4 0xE514A140 GT PUSH2 0x59 JUMPI DUP1 PUSH4 0xE514A140 EQ PUSH2 0x3A4 JUMPI DUP1 PUSH4 0xF2FDE38B EQ PUSH2 0x3C4 JUMPI DUP1 PUSH4 0xF8C8765E EQ PUSH2 0x3E4 JUMPI PUSH1 0x0 DUP1 REVERT JUMPDEST DUP1 PUSH4 0x9339B0A0 EQ PUSH2 0x364 JUMPI DUP1 PUSH4 0x9AA9AAC1 EQ PUSH2 0x384 JUMPI PUSH1 0x0 DUP1 REVERT JUMPDEST DUP1 PUSH4 0x87AD6D00 EQ PUSH2 0x2D4 JUMPI DUP1 PUSH4 0x8D3C100A EQ PUSH2 0x2F4 JUMPI DUP1 PUSH4 0x8DA5CB5B EQ PUSH2 0x307 JUMPI DUP1 PUSH4 0x92EEFE9B EQ PUSH2 0x344 JUMPI PUSH1 0x0 DUP1 REVERT JUMPDEST DUP1 PUSH4 0x3561CEE0 GT PUSH2 0xFC JUMPI DUP1 PUSH4 0x55EA4259 GT PUSH2 0xE1 JUMPI DUP1 PUSH4 0x55EA4259 EQ PUSH2 0x281 JUMPI DUP1 PUSH4 0x6FE13B49 EQ PUSH2 0x29F JUMPI DUP1 PUSH4 0x715018A6 EQ PUSH2 0x2BF JUMPI PUSH1 0x0 DUP1 REVERT JUMPDEST DUP1 PUSH4 0x3561CEE0 EQ PUSH2 0x22C JUMPI DUP1 PUSH4 0x51ADC761 EQ PUSH2 0x25A JUMPI PUSH1 0x0 DUP1 REVERT JUMPDEST DUP1 PUSH4 0xD804D40 EQ PUSH2 0x12E JUMPI DUP1 PUSH4 0x22DE3B91 EQ PUSH2 0x150 JUMPI DUP1 PUSH4 0x2B28E2E2 EQ PUSH2 0x187 JUMPI DUP1 PUSH4 0x2B545421 EQ PUSH2 0x1A5 JUMPI JUMPDEST PUSH1 0x0 DUP1 REVERT JUMPDEST CALLVALUE DUP1 ISZERO PUSH2 0x13A JUMPI PUSH1 0x0 DUP1 REVERT JUMPDEST POP PUSH2 0x14E PUSH2 0x149 CALLDATASIZE PUSH1 0x4 PUSH2 0x1A58 JUMP JUMPDEST PUSH2 0x404 JUMP JUMPDEST STOP JUMPDEST CALLVALUE DUP1 ISZERO PUSH2 0x15C JUMPI PUSH1 0x0 DUP1 REVERT JUMPDEST POP PUSH1 0x7 SLOAD PUSH1 0x1 PUSH1 0x1 PUSH1 0xA0 SHL SUB AND JUMPDEST PUSH1 0x40 MLOAD PUSH1 0x1 PUSH1 0x1 PUSH1 0xA0 SHL SUB SWAP1 SWAP2 AND DUP2 MSTORE PUSH1 0x20 ADD JUMPDEST PUSH1 0x40 MLOAD DUP1 SWAP2 SUB SWAP1 RETURN JUMPDEST CALLVALUE DUP1 ISZERO PUSH2 0x193 JUMPI PUSH1 0x0 DUP1 REVERT JUMPDEST POP PUSH1 0x6 SLOAD PUSH1 0x1 PUSH1 0x1 PUSH1 0xA0 SHL SUB AND PUSH2 0x16A JUMP JUMPDEST CALLVALUE DUP1 ISZERO PUSH2 0x1B1 JUMPI PUSH1 0x0 DUP1 REVERT JUMPDEST POP PUSH2 0x1C5 PUSH2 0x1C0 CALLDATASIZE PUSH1 0x4 PUSH2 0x1AC1 JUMP JUMPDEST PUSH2 0x593 JUMP JUMPDEST PUSH1 0x40 MLOAD PUSH2 0x17E SWAP2 SWAP1 PUSH1 0x0 PUSH1 0xC0 DUP3 ADD SWAP1 POP PUSH1 0xFF DUP4 MLOAD AND DUP3 MSTORE PUSH1 0xFF PUSH1 0x20 DUP5 ADD MLOAD AND PUSH1 0x20 DUP4 ADD MSTORE PUSH1 0xFF PUSH1 0x40 DUP5 ADD MLOAD AND PUSH1 0x40 DUP4 ADD MSTORE PUSH1 0xFF PUSH1 0x60 DUP5 ADD MLOAD AND PUSH1 0x60 DUP4 ADD MSTORE PUSH1 0x80 DUP4 ADD MLOAD PUSH1 0x1 PUSH1 0x1 PUSH1 0xA0 SHL SUB DUP1 DUP3 AND PUSH1 0x80 DUP6 ADD MSTORE DUP1 PUSH1 0xA0 DUP7 ADD MLOAD AND PUSH1 0xA0 DUP6 ADD MSTORE POP POP SWAP3 SWAP2 POP POP JUMP JUMPDEST CALLVALUE DUP1 ISZERO PUSH2 0x238 JUMPI PUSH1 0x0 DUP1 REVERT JUMPDEST POP PUSH2 0x24C PUSH2 0x247 CALLDATASIZE PUSH1 0x4 PUSH2 0x1B26 JUMP JUMPDEST PUSH2 0x656 JUMP JUMPDEST PUSH1 0x40 MLOAD SWAP1 DUP2 MSTORE PUSH1 0x20 ADD PUSH2 0x17E JUMP JUMPDEST CALLVALUE DUP1 ISZERO PUSH2 0x266 JUMPI PUSH1 0x0 DUP1 REVERT JUMPDEST POP PUSH2 0x26F PUSH1 0x5 DUP2 JUMP JUMPDEST PUSH1 0x40 MLOAD PUSH1 0xFF SWAP1 SWAP2 AND DUP2 MSTORE PUSH1 0x20 ADD PUSH2 0x17E JUMP JUMPDEST CALLVALUE DUP1 ISZERO PUSH2 0x28D JUMPI PUSH1 0x0 DUP1 REVERT JUMPDEST POP PUSH1 0x8 SLOAD PUSH1 0x1 PUSH1 0x1 PUSH1 0xA0 SHL SUB AND PUSH2 0x16A JUMP JUMPDEST CALLVALUE DUP1 ISZERO PUSH2 0x2AB JUMPI PUSH1 0x0 DUP1 REVERT JUMPDEST POP PUSH2 0x14E PUSH2 0x2BA CALLDATASIZE PUSH1 0x4 PUSH2 0x1BA9 JUMP JUMPDEST PUSH2 0x82D JUMP JUMPDEST CALLVALUE DUP1 ISZERO PUSH2 0x2CB JUMPI PUSH1 0x0 DUP1 REVERT JUMPDEST POP PUSH2 0x14E PUSH2 0x916 JUMP JUMPDEST CALLVALUE DUP1 ISZERO PUSH2 0x2E0 JUMPI PUSH1 0x0 DUP1 REVERT JUMPDEST POP PUSH2 0x14E PUSH2 0x2EF CALLDATASIZE PUSH1 0x4 PUSH2 0x1BD3 JUMP JUMPDEST PUSH2 0x92A JUMP JUMPDEST PUSH2 0x14E PUSH2 0x302 CALLDATASIZE PUSH1 0x4 PUSH2 0x1BF0 JUMP JUMPDEST PUSH2 0x954 JUMP JUMPDEST CALLVALUE DUP1 ISZERO PUSH2 0x313 JUMPI PUSH1 0x0 DUP1 REVERT JUMPDEST POP PUSH32 0x9016D09D72D40FDAE2FD8CEAC6B6234C7706214FD39C1CD1E609A0528C199300 SLOAD PUSH1 0x1 PUSH1 0x1 PUSH1 0xA0 SHL SUB AND PUSH2 0x16A JUMP JUMPDEST CALLVALUE DUP1 ISZERO PUSH2 0x350 JUMPI PUSH1 0x0 DUP1 REVERT JUMPDEST POP PUSH2 0x14E PUSH2 0x35F CALLDATASIZE PUSH1 0x4 PUSH2 0x1BD3 JUMP JUMPDEST PUSH2 0xF93 JUMP JUMPDEST CALLVALUE DUP1 ISZERO PUSH2 0x370 JUMPI PUSH1 0x0 DUP1 REVERT JUMPDEST POP PUSH2 0x14E PUSH2 0x37F CALLDATASIZE PUSH1 0x4 PUSH2 0x1B26 JUMP JUMPDEST PUSH2 0xFBD JUMP JUMPDEST CALLVALUE DUP1 ISZERO PUSH2 0x390 JUMPI PUSH1 0x0 DUP1 REVERT JUMPDEST POP PUSH2 0x14E PUSH2 0x39F CALLDATASIZE PUSH1 0x4 PUSH2 0x1BD3 JUMP JUMPDEST PUSH2 0x1295 JUMP JUMPDEST CALLVALUE DUP1 ISZERO PUSH2 0x3B0 JUMPI PUSH1 0x0 DUP1 REVERT JUMPDEST POP PUSH2 0x14E PUSH2 0x3BF CALLDATASIZE PUSH1 0x4 PUSH2 0x1BD3 JUMP JUMPDEST PUSH2 0x12BF JUMP JUMPDEST CALLVALUE DUP1 ISZERO PUSH2 0x3D0 JUMPI PUSH1 0x0 DUP1 REVERT JUMPDEST POP PUSH2 0x14E PUSH2 0x3DF CALLDATASIZE PUSH1 0x4 PUSH2 0x1BD3 JUMP JUMPDEST PUSH2 0x12E9 JUMP JUMPDEST CALLVALUE DUP1 ISZERO PUSH2 0x3F0 JUMPI PUSH1 0x0 DUP1 REVERT JUMPDEST POP PUSH2 0x14E PUSH2 0x3FF CALLDATASIZE PUSH1 0x4 PUSH2 0x1C20 JUMP JUMPDEST PUSH2 0x1340 JUMP JUMPDEST PUSH1 0xC SLOAD PUSH1 0x1 PUSH1 0x1 PUSH1 0xA0 SHL SUB AND CALLER PUSH1 0x1 PUSH1 0x1 PUSH1 0xA0 SHL SUB AND EQ PUSH2 0x464 JUMPI CALLER JUMPDEST PUSH1 0x40 MLOAD PUSH32 0x69867D6400000000000000000000000000000000000000000000000000000000 DUP2 MSTORE PUSH1 0x1 PUSH1 0x1 PUSH1 0xA0 SHL SUB SWAP1 SWAP2 AND PUSH1 0x4 DUP3 ADD MSTORE PUSH1 0x24 ADD JUMPDEST PUSH1 0x40 MLOAD DUP1 SWAP2 SUB SWAP1 REVERT JUMPDEST PUSH1 0x0 DUP6 PUSH1 0x1 PUSH1 0x1 PUSH1 0xA0 SHL SUB AND PUSH4 0x83D48E04 PUSH1 0x40 MLOAD DUP2 PUSH4 0xFFFFFFFF AND PUSH1 0xE0 SHL DUP2 MSTORE PUSH1 0x4 ADD PUSH1 0x0 PUSH1 0x40 MLOAD DUP1 DUP4 SUB DUP2 DUP7 GAS STATICCALL ISZERO DUP1 ISZERO PUSH2 0x4A4 JUMPI RETURNDATASIZE PUSH1 0x0 DUP1 RETURNDATACOPY RETURNDATASIZE PUSH1 0x0 REVERT JUMPDEST POP POP POP POP PUSH1 0x40 MLOAD RETURNDATASIZE PUSH1 0x0 DUP3 RETURNDATACOPY PUSH1 0x1F RETURNDATASIZE SWAP1 DUP2 ADD PUSH1 0x1F NOT AND DUP3 ADD PUSH1 0x40 MSTORE PUSH2 0x4CC SWAP2 SWAP1 DUP2 ADD SWAP1 PUSH2 0x1CB6 JUMP JUMPDEST PUSH1 0x0 DUP2 DUP2 MSTORE PUSH1 0x5 PUSH1 0x20 MSTORE PUSH1 0x40 SWAP1 KECCAK256 SLOAD SWAP1 SWAP3 POP PUSH1 0x1 PUSH1 0x1 PUSH1 0xA0 SHL SUB AND ISZERO SWAP1 POP PUSH2 0x523 JUMPI PUSH1 0x40 MLOAD PUSH32 0x8099D06600000000000000000000000000000000000000000000000000000000 DUP2 MSTORE PUSH1 0x4 DUP2 ADD DUP3 SWAP1 MSTORE PUSH1 0x24 ADD PUSH2 0x45B JUMP JUMPDEST PUSH1 0x0 DUP2 DUP2 MSTORE PUSH1 0x5 PUSH1 0x20 SWAP1 DUP2 MSTORE PUSH1 0x40 SWAP2 DUP3 SWAP1 KECCAK256 DUP1 SLOAD PUSH1 0x1 PUSH1 0x1 PUSH1 0xA0 SHL SUB NOT AND PUSH1 0x1 PUSH1 0x1 PUSH1 0xA0 SHL SUB DUP11 AND OR SWAP1 SSTORE SWAP1 MLOAD DUP3 DUP2 MSTORE PUSH32 0x8BD9CFA8C73842407F588399C731AE715C419EA74253764312148AA3F604CC8E SWAP2 ADD PUSH1 0x40 MLOAD DUP1 SWAP2 SUB SWAP1 LOG1 PUSH2 0x58B DUP2 DUP7 DUP7 DUP7 DUP7 PUSH2 0x14CA JUMP JUMPDEST POP POP POP POP POP POP JUMP JUMPDEST PUSH1 0x40 DUP1 MLOAD PUSH1 0xC0 DUP2 ADD DUP3 MSTORE PUSH1 0x0 DUP1 DUP3 MSTORE PUSH1 0x20 DUP3 ADD DUP2 SWAP1 MSTORE SWAP2 DUP2 ADD DUP3 SWAP1 MSTORE PUSH1 0x60 DUP2 ADD DUP3 SWAP1 MSTORE PUSH1 0x80 DUP2 ADD DUP3 SWAP1 MSTORE PUSH1 0xA0 DUP2 ADD SWAP2 SWAP1 SWAP2 MSTORE PUSH1 0x0 DUP3 DUP2 MSTORE PUSH1 0x5 PUSH1 0x20 MSTORE PUSH1 0x40 SWAP1 KECCAK256 SLOAD PUSH1 0x1 PUSH1 0x1 PUSH1 0xA0 SHL SUB AND DUP1 PUSH2 0x5E8 JUMPI POP SWAP2 SWAP1 POP JUMP JUMPDEST PUSH1 0x40 DUP1 MLOAD PUSH1 0xC0 DUP2 ADD DUP3 MSTORE PUSH1 0x0 DUP6 DUP2 MSTORE PUSH1 0x3 PUSH1 0x20 SWAP1 DUP2 MSTORE DUP4 DUP3 KECCAK256 SLOAD PUSH1 0xFF SWAP1 DUP2 AND DUP5 MSTORE DUP8 DUP4 MSTORE PUSH1 0x1 DUP3 MSTORE DUP5 DUP4 KECCAK256 SLOAD DUP2 AND DUP3 DUP6 ADD MSTORE DUP8 DUP4 MSTORE PUSH1 0x4 DUP3 MSTORE DUP5 DUP4 KECCAK256 SLOAD AND DUP4 DUP6 ADD MSTORE PUSH1 0x5 PUSH1 0x60 DUP5 ADD MSTORE SWAP6 DUP2 MSTORE PUSH1 0x2 SWAP1 SWAP6 MSTORE SWAP4 KECCAK256 SLOAD PUSH1 0x1 PUSH1 0x1 PUSH1 0xA0 SHL SUB SWAP1 DUP2 AND PUSH1 0x80 DUP6 ADD MSTORE AND PUSH1 0xA0 DUP4 ADD MSTORE POP SWAP1 JUMP JUMPDEST PUSH1 0x0 DUP1 DUP1 JUMPDEST DUP6 DUP2 LT ISZERO PUSH2 0x700 JUMPI PUSH1 0x7 SLOAD PUSH1 0x1 PUSH1 0x1 PUSH1 0xA0 SHL SUB AND PUSH4 0x9CC7F708 DUP9 DUP9 DUP5 DUP2 DUP2 LT PUSH2 0x686 JUMPI PUSH2 0x686 PUSH2 0x1D6D JUMP JUMPDEST SWAP1 POP PUSH1 0x20 MUL ADD CALLDATALOAD PUSH1 0x40 MLOAD DUP3 PUSH4 0xFFFFFFFF AND PUSH1 0xE0 SHL DUP2 MSTORE PUSH1 0x4 ADD PUSH2 0x6AB SWAP2 DUP2 MSTORE PUSH1 0x20 ADD SWAP1 JUMP JUMPDEST PUSH1 0x20 PUSH1 0x40 MLOAD DUP1 DUP4 SUB DUP2 DUP7 GAS STATICCALL ISZERO DUP1 ISZERO PUSH2 0x6C8 JUMPI RETURNDATASIZE PUSH1 0x0 DUP1 RETURNDATACOPY RETURNDATASIZE PUSH1 0x0 REVERT JUMPDEST POP POP POP POP PUSH1 0x40 MLOAD RETURNDATASIZE PUSH1 0x1F NOT PUSH1 0x1F DUP3 ADD AND DUP3 ADD DUP1 PUSH1 0x40 MSTORE POP DUP2 ADD SWAP1 PUSH2 0x6EC SWAP2 SWAP1 PUSH2 0x1D83 JUMP JUMPDEST PUSH2 0x6F6 SWAP1 DUP4 PUSH2 0x1DB2 JUMP JUMPDEST SWAP2 POP PUSH1 0x1 ADD PUSH2 0x65B JUMP JUMPDEST POP PUSH1 0x0 JUMPDEST DUP4 DUP2 LT ISZERO PUSH2 0x7A9 JUMPI PUSH1 0x6 SLOAD PUSH1 0x1 PUSH1 0x1 PUSH1 0xA0 SHL SUB AND PUSH4 0x9CC7F708 DUP7 DUP7 DUP5 DUP2 DUP2 LT PUSH2 0x72F JUMPI PUSH2 0x72F PUSH2 0x1D6D JUMP JUMPDEST SWAP1 POP PUSH1 0x20 MUL ADD CALLDATALOAD PUSH1 0x40 MLOAD DUP3 PUSH4 0xFFFFFFFF AND PUSH1 0xE0 SHL DUP2 MSTORE PUSH1 0x4 ADD PUSH2 0x754 SWAP2 DUP2 MSTORE PUSH1 0x20 ADD SWAP1 JUMP JUMPDEST PUSH1 0x20 PUSH1 0x40 MLOAD DUP1 DUP4 SUB DUP2 DUP7 GAS STATICCALL ISZERO DUP1 ISZERO PUSH2 0x771 JUMPI RETURNDATASIZE PUSH1 0x0 DUP1 RETURNDATACOPY RETURNDATASIZE PUSH1 0x0 REVERT JUMPDEST POP POP POP POP PUSH1 0x40 MLOAD RETURNDATASIZE PUSH1 0x1F NOT PUSH1 0x1F DUP3 ADD AND DUP3 ADD DUP1 PUSH1 0x40 MSTORE POP DUP2 ADD SWAP1 PUSH2 0x795 SWAP2 SWAP1 PUSH2 0x1D83 JUMP JUMPDEST PUSH2 0x79F SWAP1 DUP4 PUSH2 0x1DB2 JUMP JUMPDEST SWAP2 POP PUSH1 0x1 ADD PUSH2 0x704 JUMP JUMPDEST POP PUSH1 0x8 SLOAD PUSH1 0x40 MLOAD PUSH4 0x70A08231 PUSH1 0xE0 SHL DUP2 MSTORE PUSH1 0x1 PUSH1 0x1 PUSH1 0xA0 SHL SUB DUP10 DUP2 AND PUSH1 0x4 DUP4 ADD MSTORE SWAP1 SWAP2 AND SWAP1 PUSH4 0x70A08231 SWAP1 PUSH1 0x24 ADD PUSH1 0x20 PUSH1 0x40 MLOAD DUP1 DUP4 SUB DUP2 DUP7 GAS STATICCALL ISZERO DUP1 ISZERO PUSH2 0x7F4 JUMPI RETURNDATASIZE PUSH1 0x0 DUP1 RETURNDATACOPY RETURNDATASIZE PUSH1 0x0 REVERT JUMPDEST POP POP POP POP PUSH1 0x40 MLOAD RETURNDATASIZE PUSH1 0x1F NOT PUSH1 0x1F DUP3 ADD AND DUP3 ADD DUP1 PUSH1 0x40 MSTORE POP DUP2 ADD SWAP1 PUSH2 0x818 SWAP2 SWAP1 PUSH2 0x1D83 JUMP JUMPDEST PUSH2 0x822 SWAP1 DUP3 PUSH2 0x1DB2 JUMP JUMPDEST SWAP8 SWAP7 POP POP POP POP POP POP POP JUMP JUMPDEST PUSH1 0x0 PUSH2 0x838 DUP7 PUSH2 0x15ED JUMP JUMPDEST SWAP1 POP PUSH1 0x1 PUSH1 0x1 PUSH1 0xA0 SHL SUB DUP2 AND PUSH4 0x41EF73B9 CALLER PUSH1 0x40 MLOAD PUSH32 0xFFFFFFFF00000000000000000000000000000000000000000000000000000000 PUSH1 0xE0 DUP5 SWAP1 SHL AND DUP2 MSTORE PUSH1 0x1 PUSH1 0x1 PUSH1 0xA0 SHL SUB SWAP1 SWAP2 AND PUSH1 0x4 DUP3 ADD MSTORE PUSH1 0x24 ADD PUSH1 0x20 PUSH1 0x40 MLOAD DUP1 DUP4 SUB DUP2 DUP7 GAS STATICCALL ISZERO DUP1 ISZERO PUSH2 0x8A6 JUMPI RETURNDATASIZE PUSH1 0x0 DUP1 RETURNDATACOPY RETURNDATASIZE PUSH1 0x0 REVERT JUMPDEST POP POP POP POP PUSH1 0x40 MLOAD RETURNDATASIZE PUSH1 0x1F NOT PUSH1 0x1F DUP3 ADD AND DUP3 ADD DUP1 PUSH1 0x40 MSTORE POP DUP2 ADD SWAP1 PUSH2 0x8CA SWAP2 SWAP1 PUSH2 0x1DC5 JUMP JUMPDEST PUSH2 0x909 JUMPI PUSH1 0x40 MLOAD PUSH32 0xEF5E457900000000000000000000000000000000000000000000000000000000 DUP2 MSTORE PUSH1 0x4 DUP2 ADD DUP8 SWAP1 MSTORE CALLER PUSH1 0x24 DUP3 ADD MSTORE PUSH1 0x44 ADD PUSH2 0x45B JUMP JUMPDEST PUSH2 0x58B DUP7 DUP7 DUP7 DUP7 DUP7 PUSH2 0x14CA JUMP JUMPDEST PUSH2 0x91E PUSH2 0x1645 JUMP JUMPDEST PUSH2 0x928 PUSH1 0x0 PUSH2 0x16B9 JUMP JUMPDEST JUMP JUMPDEST PUSH2 0x932 PUSH2 0x1645 JUMP JUMPDEST PUSH1 0x8 DUP1 SLOAD PUSH1 0x1 PUSH1 0x1 PUSH1 0xA0 SHL SUB NOT AND PUSH1 0x1 PUSH1 0x1 PUSH1 0xA0 SHL SUB SWAP3 SWAP1 SWAP3 AND SWAP2 SWAP1 SWAP2 OR SWAP1 SSTORE JUMP JUMPDEST PUSH1 0xC SLOAD PUSH1 0x1 PUSH1 0x1 PUSH1 0xA0 SHL SUB AND CALLER PUSH1 0x1 PUSH1 0x1 PUSH1 0xA0 SHL SUB AND EQ PUSH2 0x975 JUMPI CALLER PUSH2 0x421 JUMP JUMPDEST PUSH2 0x97E DUP3 PUSH2 0x15ED JUMP JUMPDEST POP CALLVALUE PUSH1 0x0 SUB PUSH2 0x9DA JUMPI PUSH1 0x40 DUP1 MLOAD DUP4 DUP2 MSTORE PUSH1 0x1 PUSH1 0x1 PUSH1 0xA0 SHL SUB DUP4 AND PUSH1 0x20 DUP3 ADD MSTORE PUSH1 0x0 DUP2 DUP4 ADD DUP2 SWAP1 MSTORE PUSH1 0x60 DUP3 ADD MSTORE SWAP1 MLOAD PUSH32 0xE985BB809569E1AB693B8D0A44015CB780FA698A4B16DF55472D8EEFFA185B39 SWAP2 DUP2 SWAP1 SUB PUSH1 0x80 ADD SWAP1 LOG1 POP POP JUMP JUMPDEST PUSH1 0x40 DUP1 MLOAD PUSH1 0xE0 DUP2 ADD DUP3 MSTORE PUSH1 0xB SLOAD PUSH1 0x1 PUSH1 0x1 PUSH1 0xA0 SHL SUB SWAP1 DUP2 AND DUP3 MSTORE PUSH1 0x9 SLOAD DUP2 AND PUSH1 0x20 DUP4 ADD SWAP1 DUP2 MSTORE PUSH2 0xBB8 DUP4 DUP6 ADD SWAP1 DUP2 MSTORE ADDRESS PUSH1 0x60 DUP6 ADD SWAP1 DUP2 MSTORE SELFBALANCE PUSH1 0x80 DUP7 ADD SWAP1 DUP2 MSTORE PUSH1 0x0 PUSH1 0xA0 DUP8 ADD DUP2 DUP2 MSTORE PUSH1 0xC0 DUP9 ADD DUP3 DUP2 MSTORE PUSH1 0xA SLOAD SWAP10 MLOAD PUSH32 0x4E45AAF00000000000000000000000000000000000000000000000000000000 DUP2 MSTORE DUP10 MLOAD DUP10 AND PUSH1 0x4 DUP3 ADD MSTORE SWAP7 MLOAD DUP9 AND PUSH1 0x24 DUP9 ADD MSTORE SWAP5 MLOAD PUSH3 0xFFFFFF AND PUSH1 0x44 DUP8 ADD MSTORE SWAP3 MLOAD DUP7 AND PUSH1 0x64 DUP7 ADD MSTORE SWAP1 MLOAD PUSH1 0x84 DUP6 ADD MSTORE SWAP1 MLOAD PUSH1 0xA4 DUP5 ADD MSTORE SWAP1 MLOAD DUP4 AND PUSH1 0xC4 DUP4 ADD MSTORE SWAP3 SWAP4 SWAP1 SWAP2 AND SWAP1 PUSH4 0x4E45AAF SWAP1 SELFBALANCE SWAP1 PUSH1 0xE4 ADD PUSH1 0x20 PUSH1 0x40 MLOAD DUP1 DUP4 SUB DUP2 DUP6 DUP9 GAS CALL ISZERO DUP1 ISZERO PUSH2 0xABE JUMPI RETURNDATASIZE PUSH1 0x0 DUP1 RETURNDATACOPY RETURNDATASIZE PUSH1 0x0 REVERT JUMPDEST POP POP POP POP POP PUSH1 0x40 MLOAD RETURNDATASIZE PUSH1 0x1F NOT PUSH1 0x1F DUP3 ADD AND DUP3 ADD DUP1 PUSH1 0x40 MSTORE POP DUP2 ADD SWAP1 PUSH2 0xAE3 SWAP2 SWAP1 PUSH2 0x1D83 JUMP JUMPDEST SWAP1 POP DUP3 PUSH1 0x1 PUSH1 0x1 PUSH1 0xA0 SHL SUB DUP2 AND ISZERO DUP1 PUSH2 0xBEF JUMPI POP PUSH1 0x1 PUSH1 0x1 PUSH1 0xA0 SHL SUB DUP5 AND ISZERO DUP1 ISZERO SWAP1 PUSH2 0xBEF JUMPI POP PUSH1 0x7 PUSH1 0x0 SWAP1 SLOAD SWAP1 PUSH2 0x100 EXP SWAP1 DIV PUSH1 0x1 PUSH1 0x1 PUSH1 0xA0 SHL SUB AND PUSH1 0x1 PUSH1 0x1 PUSH1 0xA0 SHL SUB AND PUSH4 0xBCA6CE64 PUSH1 0x40 MLOAD DUP2 PUSH4 0xFFFFFFFF AND PUSH1 0xE0 SHL DUP2 MSTORE PUSH1 0x4 ADD PUSH1 0x20 PUSH1 0x40 MLOAD DUP1 DUP4 SUB DUP2 DUP7 GAS STATICCALL ISZERO DUP1 ISZERO PUSH2 0xB5D JUMPI RETURNDATASIZE PUSH1 0x0 DUP1 RETURNDATACOPY RETURNDATASIZE PUSH1 0x0 REVERT JUMPDEST POP POP POP POP PUSH1 0x40 MLOAD RETURNDATASIZE PUSH1 0x1F NOT PUSH1 0x1F DUP3 ADD AND DUP3 ADD DUP1 PUSH1 0x40 MSTORE POP DUP2 ADD SWAP1 PUSH2 0xB81 SWAP2 SWAP1 PUSH2 0x1DE7 JUMP JUMPDEST PUSH1 0x40 MLOAD PUSH4 0x70A08231 PUSH1 0xE0 SHL DUP2 MSTORE PUSH1 0x1 PUSH1 0x1 PUSH1 0xA0 SHL SUB DUP7 DUP2 AND PUSH1 0x4 DUP4 ADD MSTORE SWAP2 SWAP1 SWAP2 AND SWAP1 PUSH4 0x70A08231 SWAP1 PUSH1 0x24 ADD PUSH1 0x20 PUSH1 0x40 MLOAD DUP1 DUP4 SUB DUP2 DUP7 GAS STATICCALL ISZERO DUP1 ISZERO PUSH2 0xBC9 JUMPI RETURNDATASIZE PUSH1 0x0 DUP1 RETURNDATACOPY RETURNDATASIZE PUSH1 0x0 REVERT JUMPDEST POP POP POP POP PUSH1 0x40 MLOAD RETURNDATASIZE PUSH1 0x1F NOT PUSH1 0x1F DUP3 ADD AND DUP3 ADD DUP1 PUSH1 0x40 MSTORE POP DUP2 ADD SWAP1 PUSH2 0xBED SWAP2 SWAP1 PUSH2 0x1D83 JUMP JUMPDEST ISZERO JUMPDEST ISZERO PUSH2 0xC0F JUMPI PUSH1 0x0 DUP6 DUP2 MSTORE PUSH1 0x2 PUSH1 0x20 MSTORE PUSH1 0x40 SWAP1 KECCAK256 SLOAD PUSH1 0x1 PUSH1 0x1 PUSH1 0xA0 SHL SUB AND SWAP4 POP JUMPDEST PUSH1 0x0 DUP6 DUP2 MSTORE PUSH1 0x3 PUSH1 0x20 MSTORE PUSH1 0x40 DUP2 KECCAK256 SLOAD PUSH1 0x64 SWAP1 PUSH2 0xC2E SWAP1 PUSH1 0xFF AND DUP6 PUSH2 0x1E04 JUMP JUMPDEST PUSH2 0xC38 SWAP2 SWAP1 PUSH2 0x1E1B JUMP JUMPDEST PUSH1 0x8 SLOAD PUSH1 0x40 MLOAD PUSH4 0x4B4A1CD5 PUSH1 0xE0 SHL DUP2 MSTORE PUSH1 0x1 PUSH1 0x1 PUSH1 0xA0 SHL SUB DUP9 DUP2 AND PUSH1 0x4 DUP4 ADD MSTORE PUSH1 0x24 DUP3 ADD DUP5 SWAP1 MSTORE SWAP3 SWAP4 POP SWAP2 AND SWAP1 PUSH4 0x4B4A1CD5 SWAP1 PUSH1 0x44 ADD PUSH1 0x20 PUSH1 0x40 MLOAD DUP1 DUP4 SUB DUP2 PUSH1 0x0 DUP8 GAS CALL ISZERO DUP1 ISZERO PUSH2 0xC8D JUMPI RETURNDATASIZE PUSH1 0x0 DUP1 RETURNDATACOPY RETURNDATASIZE PUSH1 0x0 REVERT JUMPDEST POP POP POP POP PUSH1 0x40 MLOAD RETURNDATASIZE PUSH1 0x1F NOT PUSH1 0x1F DUP3 ADD AND DUP3 ADD DUP1 PUSH1 0x40 MSTORE POP DUP2 ADD SWAP1 PUSH2 0xCB1 SWAP2 SWAP1 PUSH2 0x1D83 JUMP JUMPDEST POP PUSH1 0x0 DUP7 DUP2 MSTORE PUSH1 0x1 PUSH1 0x20 MSTORE PUSH1 0x40 DUP2 KECCAK256 SLOAD PUSH1 0x64 SWAP1 PUSH2 0xCD1 SWAP1 PUSH1 0xFF AND DUP7 PUSH2 0x1E04 JUMP JUMPDEST PUSH2 0xCDB SWAP2 SWAP1 PUSH2 0x1E1B JUMP JUMPDEST PUSH1 0x8 SLOAD PUSH1 0x0 DUP10 DUP2 MSTORE PUSH1 0x2 PUSH1 0x20 MSTORE PUSH1 0x40 SWAP1 DUP2 SWAP1 KECCAK256 SLOAD SWAP1 MLOAD PUSH4 0x4B4A1CD5 PUSH1 0xE0 SHL DUP2 MSTORE PUSH1 0x1 PUSH1 0x1 PUSH1 0xA0 SHL SUB SWAP2 DUP3 AND PUSH1 0x4 DUP3 ADD MSTORE PUSH1 0x24 DUP2 ADD DUP5 SWAP1 MSTORE SWAP3 SWAP4 POP AND SWAP1 PUSH4 0x4B4A1CD5 SWAP1 PUSH1 0x44 ADD PUSH1 0x20 PUSH1 0x40 MLOAD DUP1 DUP4 SUB DUP2 PUSH1 0x0 DUP8 GAS CALL ISZERO DUP1 ISZERO PUSH2 0xD3F JUMPI RETURNDATASIZE PUSH1 0x0 DUP1 RETURNDATACOPY RETURNDATASIZE PUSH1 0x0 REVERT JUMPDEST POP POP POP POP PUSH1 0x40 MLOAD RETURNDATASIZE PUSH1 0x1F NOT PUSH1 0x1F DUP3 ADD AND DUP3 ADD DUP1 PUSH1 0x40 MSTORE POP DUP2 ADD SWAP1 PUSH2 0xD63 SWAP2 SWAP1 PUSH2 0x1D83 JUMP JUMPDEST POP PUSH1 0x0 PUSH1 0x64 PUSH2 0xD73 PUSH1 0x5 DUP8 PUSH2 0x1E04 JUMP JUMPDEST PUSH2 0xD7D SWAP2 SWAP1 PUSH2 0x1E1B JUMP JUMPDEST PUSH1 0x8 SLOAD PUSH1 0x0 SLOAD PUSH1 0x40 MLOAD PUSH4 0x4B4A1CD5 PUSH1 0xE0 SHL DUP2 MSTORE PUSH1 0x1 PUSH1 0x1 PUSH1 0xA0 SHL SUB SWAP2 DUP3 AND PUSH1 0x4 DUP3 ADD MSTORE PUSH1 0x24 DUP2 ADD DUP5 SWAP1 MSTORE SWAP3 SWAP4 POP AND SWAP1 PUSH4 0x4B4A1CD5 SWAP1 PUSH1 0x44 ADD PUSH1 0x20 PUSH1 0x40 MLOAD DUP1 DUP4 SUB DUP2 PUSH1 0x0 DUP8 GAS CALL ISZERO DUP1 ISZERO PUSH2 0xDD4 JUMPI RETURNDATASIZE PUSH1 0x0 DUP1 RETURNDATACOPY RETURNDATASIZE PUSH1 0x0 REVERT JUMPDEST POP POP POP POP PUSH1 0x40 MLOAD RETURNDATASIZE PUSH1 0x1F NOT PUSH1 0x1F DUP3 ADD AND DUP3 ADD DUP1 PUSH1 0x40 MSTORE POP DUP2 ADD SWAP1 PUSH2 0xDF8 SWAP2 SWAP1 PUSH2 0x1D83 JUMP JUMPDEST POP PUSH1 0x0 DUP9 DUP2 MSTORE PUSH1 0x4 PUSH1 0x20 MSTORE PUSH1 0x40 DUP2 KECCAK256 SLOAD PUSH1 0x64 SWAP1 PUSH2 0xE18 SWAP1 PUSH1 0xFF AND DUP9 PUSH2 0x1E04 JUMP JUMPDEST PUSH2 0xE22 SWAP2 SWAP1 PUSH2 0x1E1B JUMP JUMPDEST PUSH1 0x6 SLOAD PUSH1 0x40 MLOAD PUSH4 0xB32FE94F PUSH1 0xE0 SHL DUP2 MSTORE PUSH1 0x4 DUP2 ADD DUP4 SWAP1 MSTORE SWAP2 SWAP3 POP PUSH1 0x1 PUSH1 0x1 PUSH1 0xA0 SHL SUB AND SWAP1 PUSH4 0xB32FE94F SWAP1 PUSH1 0x24 ADD PUSH1 0x20 PUSH1 0x40 MLOAD DUP1 DUP4 SUB DUP2 PUSH1 0x0 DUP8 GAS CALL ISZERO DUP1 ISZERO PUSH2 0xE6E JUMPI RETURNDATASIZE PUSH1 0x0 DUP1 RETURNDATACOPY RETURNDATASIZE PUSH1 0x0 REVERT JUMPDEST POP POP POP POP PUSH1 0x40 MLOAD RETURNDATASIZE PUSH1 0x1F NOT PUSH1 0x1F DUP3 ADD AND DUP3 ADD DUP1 PUSH1 0x40 MSTORE POP DUP2 ADD SWAP1 PUSH2 0xE92 SWAP2 SWAP1 PUSH2 0x1D83 JUMP JUMPDEST POP PUSH1 0x0 DUP3 DUP3 DUP6 PUSH2 0xEA2 DUP9 DUP12 PUSH2 0x1E3D JUMP JUMPDEST PUSH2 0xEAC SWAP2 SWAP1 PUSH2 0x1E3D JUMP JUMPDEST PUSH2 0xEB6 SWAP2 SWAP1 PUSH2 0x1E3D JUMP JUMPDEST PUSH2 0xEC0 SWAP2 SWAP1 PUSH2 0x1E3D JUMP JUMPDEST SWAP1 POP DUP1 ISZERO PUSH2 0xF39 JUMPI PUSH1 0x7 SLOAD PUSH1 0x40 MLOAD PUSH4 0xB32FE94F PUSH1 0xE0 SHL DUP2 MSTORE PUSH1 0x4 DUP2 ADD DUP4 SWAP1 MSTORE PUSH1 0x1 PUSH1 0x1 PUSH1 0xA0 SHL SUB SWAP1 SWAP2 AND SWAP1 PUSH4 0xB32FE94F SWAP1 PUSH1 0x24 ADD PUSH1 0x20 PUSH1 0x40 MLOAD DUP1 DUP4 SUB DUP2 PUSH1 0x0 DUP8 GAS CALL ISZERO DUP1 ISZERO PUSH2 0xF13 JUMPI RETURNDATASIZE PUSH1 0x0 DUP1 RETURNDATACOPY RETURNDATASIZE PUSH1 0x0 REVERT JUMPDEST POP POP POP POP PUSH1 0x40 MLOAD RETURNDATASIZE PUSH1 0x1F NOT PUSH1 0x1F DUP3 ADD AND DUP3 ADD DUP1 PUSH1 0x40 MSTORE POP DUP2 ADD SWAP1 PUSH2 0xF37 SWAP2 SWAP1 PUSH2 0x1D83 JUMP JUMPDEST POP JUMPDEST PUSH1 0x40 DUP1 MLOAD DUP12 DUP2 MSTORE PUSH1 0x1 PUSH1 0x1 PUSH1 0xA0 SHL SUB DUP9 AND PUSH1 0x20 DUP3 ADD MSTORE CALLVALUE DUP2 DUP4 ADD MSTORE PUSH1 0x60 DUP2 ADD DUP10 SWAP1 MSTORE SWAP1 MLOAD PUSH32 0xE985BB809569E1AB693B8D0A44015CB780FA698A4B16DF55472D8EEFFA185B39 SWAP2 DUP2 SWAP1 SUB PUSH1 0x80 ADD SWAP1 LOG1 POP POP POP POP POP POP POP POP POP POP JUMP JUMPDEST PUSH2 0xF9B PUSH2 0x1645 JUMP JUMPDEST PUSH1 0xC DUP1 SLOAD PUSH1 0x1 PUSH1 0x1 PUSH1 0xA0 SHL SUB NOT AND PUSH1 0x1 PUSH1 0x1 PUSH1 0xA0 SHL SUB SWAP3 SWAP1 SWAP3 AND SWAP2 SWAP1 SWAP2 OR SWAP1 SSTORE JUMP JUMPDEST PUSH1 0x0 DUP1 JUMPDEST DUP5 DUP2 LT ISZERO PUSH2 0x1091 JUMPI PUSH1 0x7 SLOAD PUSH1 0x1 PUSH1 0x1 PUSH1 0xA0 SHL SUB AND PUSH4 0xD5714091 DUP9 DUP9 DUP9 DUP6 DUP2 DUP2 LT PUSH2 0xFED JUMPI PUSH2 0xFED PUSH2 0x1D6D JUMP JUMPDEST PUSH1 0x40 MLOAD PUSH32 0xFFFFFFFF00000000000000000000000000000000000000000000000000000000 PUSH1 0xE0 DUP8 SWAP1 SHL AND DUP2 MSTORE PUSH1 0x1 PUSH1 0x1 PUSH1 0xA0 SHL SUB SWAP1 SWAP5 AND PUSH1 0x4 DUP6 ADD MSTORE PUSH1 0x20 MUL SWAP2 SWAP1 SWAP2 ADD CALLDATALOAD PUSH1 0x24 DUP4 ADD MSTORE POP PUSH1 0x44 ADD PUSH1 0x20 PUSH1 0x40 MLOAD DUP1 DUP4 SUB DUP2 PUSH1 0x0 DUP8 GAS CALL ISZERO DUP1 ISZERO PUSH2 0x1059 JUMPI RETURNDATASIZE PUSH1 0x0 DUP1 RETURNDATACOPY RETURNDATASIZE PUSH1 0x0 REVERT JUMPDEST POP POP POP POP PUSH1 0x40 MLOAD RETURNDATASIZE PUSH1 0x1F NOT PUSH1 0x1F DUP3 ADD AND DUP3 ADD DUP1 PUSH1 0x40 MSTORE POP DUP2 ADD SWAP1 PUSH2 0x107D SWAP2 SWAP1 PUSH2 0x1D83 JUMP JUMPDEST PUSH2 0x1087 SWAP1 DUP4 PUSH2 0x1DB2 JUMP JUMPDEST SWAP2 POP PUSH1 0x1 ADD PUSH2 0xFC1 JUMP JUMPDEST POP PUSH1 0x0 JUMPDEST DUP3 DUP2 LT ISZERO PUSH2 0x1165 JUMPI PUSH1 0x6 SLOAD PUSH1 0x1 PUSH1 0x1 PUSH1 0xA0 SHL SUB AND PUSH4 0xD5714091 DUP9 DUP7 DUP7 DUP6 DUP2 DUP2 LT PUSH2 0x10C1 JUMPI PUSH2 0x10C1 PUSH2 0x1D6D JUMP JUMPDEST PUSH1 0x40 MLOAD PUSH32 0xFFFFFFFF00000000000000000000000000000000000000000000000000000000 PUSH1 0xE0 DUP8 SWAP1 SHL AND DUP2 MSTORE PUSH1 0x1 PUSH1 0x1 PUSH1 0xA0 SHL SUB SWAP1 SWAP5 AND PUSH1 0x4 DUP6 ADD MSTORE PUSH1 0x20 MUL SWAP2 SWAP1 SWAP2 ADD CALLDATALOAD PUSH1 0x24 DUP4 ADD MSTORE POP PUSH1 0x44 ADD PUSH1 0x20 PUSH1 0x40 MLOAD DUP1 DUP4 SUB DUP2 PUSH1 0x0 DUP8 GAS CALL ISZERO DUP1 ISZERO PUSH2 0x112D JUMPI RETURNDATASIZE PUSH1 0x0 DUP1 RETURNDATACOPY RETURNDATASIZE PUSH1 0x0 REVERT JUMPDEST POP POP POP POP PUSH1 0x40 MLOAD RETURNDATASIZE PUSH1 0x1F NOT PUSH1 0x1F DUP3 ADD AND DUP3 ADD DUP1 PUSH1 0x40 MSTORE POP DUP2 ADD SWAP1 PUSH2 0x1151 SWAP2 SWAP1 PUSH2 0x1D83 JUMP JUMPDEST PUSH2 0x115B SWAP1 DUP4 PUSH2 0x1DB2 JUMP JUMPDEST SWAP2 POP PUSH1 0x1 ADD PUSH2 0x1095 JUMP JUMPDEST POP PUSH1 0x8 SLOAD PUSH1 0x40 MLOAD PUSH32 0xF7B6D74F00000000000000000000000000000000000000000000000000000000 DUP2 MSTORE PUSH1 0x1 PUSH1 0x1 PUSH1 0xA0 SHL SUB DUP9 DUP2 AND PUSH1 0x4 DUP4 ADD MSTORE SWAP1 SWAP2 AND SWAP1 PUSH4 0xF7B6D74F SWAP1 PUSH1 0x24 ADD PUSH1 0x20 PUSH1 0x40 MLOAD DUP1 DUP4 SUB DUP2 PUSH1 0x0 DUP8 GAS CALL ISZERO DUP1 ISZERO PUSH2 0x11CB JUMPI RETURNDATASIZE PUSH1 0x0 DUP1 RETURNDATACOPY RETURNDATASIZE PUSH1 0x0 REVERT JUMPDEST POP POP POP POP PUSH1 0x40 MLOAD RETURNDATASIZE PUSH1 0x1F NOT PUSH1 0x1F DUP3 ADD AND DUP3 ADD DUP1 PUSH1 0x40 MSTORE POP DUP2 ADD SWAP1 PUSH2 0x11EF SWAP2 SWAP1 PUSH2 0x1D83 JUMP JUMPDEST PUSH2 0x11F9 SWAP1 DUP3 PUSH2 0x1DB2 JUMP JUMPDEST SWAP1 POP DUP1 PUSH1 0x0 SUB PUSH2 0x1235 JUMPI PUSH1 0x40 MLOAD PUSH32 0xD0D04F6000000000000000000000000000000000000000000000000000000000 DUP2 MSTORE PUSH1 0x4 ADD PUSH1 0x40 MLOAD DUP1 SWAP2 SUB SWAP1 REVERT JUMPDEST PUSH1 0x9 SLOAD PUSH2 0x124C SWAP1 PUSH1 0x1 PUSH1 0x1 PUSH1 0xA0 SHL SUB AND DUP8 DUP4 PUSH2 0x172A JUMP JUMPDEST PUSH32 0x969B29AF630290BC397CAF79E9CCC1DC011EBA52C697419736A7131A886A9DFF DUP7 DUP7 DUP7 DUP7 DUP7 DUP7 PUSH1 0x40 MLOAD PUSH2 0x1285 SWAP7 SWAP6 SWAP5 SWAP4 SWAP3 SWAP2 SWAP1 PUSH2 0x1E9B JUMP JUMPDEST PUSH1 0x40 MLOAD DUP1 SWAP2 SUB SWAP1 LOG1 POP POP POP POP POP POP JUMP JUMPDEST PUSH2 0x129D PUSH2 0x1645 JUMP JUMPDEST PUSH1 0x6 DUP1 SLOAD PUSH1 0x1 PUSH1 0x1 PUSH1 0xA0 SHL SUB NOT AND PUSH1 0x1 PUSH1 0x1 PUSH1 0xA0 SHL SUB SWAP3 SWAP1 SWAP3 AND SWAP2 SWAP1 SWAP2 OR SWAP1 SSTORE JUMP JUMPDEST PUSH2 0x12C7 PUSH2 0x1645 JUMP JUMPDEST PUSH1 0x7 DUP1 SLOAD PUSH1 0x1 PUSH1 0x1 PUSH1 0xA0 SHL SUB NOT AND PUSH1 0x1 PUSH1 0x1 PUSH1 0xA0 SHL SUB SWAP3 SWAP1 SWAP3 AND SWAP2 SWAP1 SWAP2 OR SWAP1 SSTORE JUMP JUMPDEST PUSH2 0x12F1 PUSH2 0x1645 JUMP JUMPDEST PUSH1 0x1 PUSH1 0x1 PUSH1 0xA0 SHL SUB DUP2 AND PUSH2 0x1334 JUMPI PUSH1 0x40 MLOAD PUSH32 0x1E4FBDF700000000000000000000000000000000000000000000000000000000 DUP2 MSTORE PUSH1 0x0 PUSH1 0x4 DUP3 ADD MSTORE PUSH1 0x24 ADD PUSH2 0x45B JUMP JUMPDEST PUSH2 0x133D DUP2 PUSH2 0x16B9 JUMP JUMPDEST POP JUMP JUMPDEST PUSH32 0xF0C57E16840DF040F15088DC2F81FE391C3923BEC73E23A9662EFC9C229C6A00 DUP1 SLOAD PUSH9 0x10000000000000000 DUP2 DIV PUSH1 0xFF AND ISZERO SWAP1 PUSH8 0xFFFFFFFFFFFFFFFF AND PUSH1 0x0 DUP2 ISZERO DUP1 ISZERO PUSH2 0x138B JUMPI POP DUP3 JUMPDEST SWAP1 POP PUSH1 0x0 DUP3 PUSH8 0xFFFFFFFFFFFFFFFF AND PUSH1 0x1 EQ DUP1 ISZERO PUSH2 0x13A8 JUMPI POP ADDRESS EXTCODESIZE ISZERO JUMPDEST SWAP1 POP DUP2 ISZERO DUP1 ISZERO PUSH2 0x13B6 JUMPI POP DUP1 ISZERO JUMPDEST ISZERO PUSH2 0x13ED JUMPI PUSH1 0x40 MLOAD PUSH32 0xF92EE8A900000000000000000000000000000000000000000000000000000000 DUP2 MSTORE PUSH1 0x4 ADD PUSH1 0x40 MLOAD DUP1 SWAP2 SUB SWAP1 REVERT JUMPDEST DUP5 SLOAD PUSH8 0xFFFFFFFFFFFFFFFF NOT AND PUSH1 0x1 OR DUP6 SSTORE DUP4 ISZERO PUSH2 0x1421 JUMPI DUP5 SLOAD PUSH9 0xFF0000000000000000 NOT AND PUSH9 0x10000000000000000 OR DUP6 SSTORE JUMPDEST PUSH2 0x142A CALLER PUSH2 0x17AF JUMP JUMPDEST PUSH1 0xA DUP1 SLOAD PUSH1 0x1 PUSH1 0x1 PUSH1 0xA0 SHL SUB DUP1 DUP13 AND PUSH1 0x1 PUSH1 0x1 PUSH1 0xA0 SHL SUB NOT SWAP3 DUP4 AND OR SWAP1 SWAP3 SSTORE PUSH1 0x9 DUP1 SLOAD DUP12 DUP5 AND SWAP1 DUP4 AND OR SWAP1 SSTORE PUSH1 0xB DUP1 SLOAD DUP11 DUP5 AND SWAP1 DUP4 AND OR SWAP1 SSTORE PUSH1 0x0 DUP1 SLOAD SWAP3 DUP10 AND SWAP3 SWAP1 SWAP2 AND SWAP2 SWAP1 SWAP2 OR SWAP1 SSTORE DUP4 ISZERO PUSH2 0x14BF JUMPI DUP5 SLOAD PUSH9 0xFF0000000000000000 NOT AND DUP6 SSTORE PUSH1 0x40 MLOAD PUSH1 0x1 DUP2 MSTORE PUSH32 0xC7F505B2F371AE2175EE4913F4499E1F2633A7B5936321EED1CDAEB6115181D2 SWAP1 PUSH1 0x20 ADD PUSH1 0x40 MLOAD DUP1 SWAP2 SUB SWAP1 LOG1 JUMPDEST POP POP POP POP POP POP POP POP POP JUMP JUMPDEST PUSH1 0x64 PUSH1 0x5 DUP3 PUSH2 0x14D9 DUP6 DUP8 PUSH2 0x1EE5 JUMP JUMPDEST PUSH2 0x14E3 SWAP2 SWAP1 PUSH2 0x1EE5 JUMP JUMPDEST PUSH2 0x14ED SWAP2 SWAP1 PUSH2 0x1EE5 JUMP JUMPDEST PUSH1 0xFF AND GT ISZERO PUSH2 0x1528 JUMPI PUSH1 0x40 MLOAD PUSH32 0x6EDCC52300000000000000000000000000000000000000000000000000000000 DUP2 MSTORE PUSH1 0x4 ADD PUSH1 0x40 MLOAD DUP1 SWAP2 SUB SWAP1 REVERT JUMPDEST PUSH1 0x0 DUP6 DUP2 MSTORE PUSH1 0x2 PUSH1 0x20 SWAP1 DUP2 MSTORE PUSH1 0x40 DUP1 DUP4 KECCAK256 DUP1 SLOAD PUSH1 0x1 PUSH1 0x1 PUSH1 0xA0 SHL SUB DUP10 AND PUSH1 0x1 PUSH1 0x1 PUSH1 0xA0 SHL SUB NOT SWAP1 SWAP2 AND DUP2 OR SWAP1 SWAP2 SSTORE PUSH1 0x1 DUP4 MSTORE DUP2 DUP5 KECCAK256 DUP1 SLOAD PUSH1 0xFF DUP9 DUP2 AND PUSH1 0xFF NOT SWAP3 DUP4 AND DUP2 OR SWAP1 SWAP4 SSTORE PUSH1 0x3 DUP7 MSTORE DUP5 DUP8 KECCAK256 DUP1 SLOAD DUP12 DUP4 AND SWAP1 DUP5 AND DUP2 OR SWAP1 SWAP2 SSTORE PUSH1 0x4 DUP8 MSTORE SWAP7 DUP6 SWAP1 KECCAK256 DUP1 SLOAD SWAP2 DUP10 AND SWAP2 SWAP1 SWAP3 AND DUP2 OR SWAP1 SWAP2 SSTORE DUP4 MLOAD DUP12 DUP2 MSTORE SWAP5 DUP6 ADD SWAP3 SWAP1 SWAP3 MSTORE SWAP2 DUP4 ADD SWAP4 SWAP1 SWAP4 MSTORE PUSH1 0x60 DUP3 ADD MSTORE PUSH1 0x80 DUP2 ADD SWAP2 SWAP1 SWAP2 MSTORE PUSH32 0x13586FD4FC41A55042BB5598CAE4E4CA021684E2B1A1134F48D0FB7DBBA31CA0 SWAP1 PUSH1 0xA0 ADD PUSH1 0x40 MLOAD DUP1 SWAP2 SUB SWAP1 LOG1 POP POP POP POP POP JUMP JUMPDEST PUSH1 0x0 DUP2 DUP2 MSTORE PUSH1 0x5 PUSH1 0x20 MSTORE PUSH1 0x40 DUP2 KECCAK256 SLOAD PUSH1 0x1 PUSH1 0x1 PUSH1 0xA0 SHL SUB AND DUP1 PUSH2 0x163F JUMPI PUSH1 0x40 MLOAD PUSH32 0x6128427D00000000000000000000000000000000000000000000000000000000 DUP2 MSTORE PUSH1 0x4 DUP2 ADD DUP5 SWAP1 MSTORE PUSH1 0x24 ADD PUSH2 0x45B JUMP JUMPDEST SWAP3 SWAP2 POP POP JUMP JUMPDEST CALLER PUSH2 0x1677 PUSH32 0x9016D09D72D40FDAE2FD8CEAC6B6234C7706214FD39C1CD1E609A0528C199300 SLOAD PUSH1 0x1 PUSH1 0x1 PUSH1 0xA0 SHL SUB AND SWAP1 JUMP JUMPDEST PUSH1 0x1 PUSH1 0x1 PUSH1 0xA0 SHL SUB AND EQ PUSH2 0x928 JUMPI PUSH1 0x40 MLOAD PUSH32 0x118CDAA700000000000000000000000000000000000000000000000000000000 DUP2 MSTORE CALLER PUSH1 0x4 DUP3 ADD MSTORE PUSH1 0x24 ADD PUSH2 0x45B JUMP JUMPDEST PUSH32 0x9016D09D72D40FDAE2FD8CEAC6B6234C7706214FD39C1CD1E609A0528C199300 DUP1 SLOAD PUSH1 0x1 PUSH1 0x1 PUSH1 0xA0 SHL SUB NOT DUP2 AND PUSH1 0x1 PUSH1 0x1 PUSH1 0xA0 SHL SUB DUP5 DUP2 AND SWAP2 DUP3 OR DUP5 SSTORE PUSH1 0x40 MLOAD SWAP3 AND SWAP2 DUP3 SWAP1 PUSH32 0x8BE0079C531659141344CD1FD0A4F28419497F9722A3DAAFE3B4186F6B6457E0 SWAP1 PUSH1 0x0 SWAP1 LOG3 POP POP POP JUMP JUMPDEST PUSH1 0x40 DUP1 MLOAD PUSH1 0x1 PUSH1 0x1 PUSH1 0xA0 SHL SUB DUP5 AND PUSH1 0x24 DUP3 ADD MSTORE PUSH1 0x44 DUP1 DUP3 ADD DUP5 SWAP1 MSTORE DUP3 MLOAD DUP1 DUP4 SUB SWAP1 SWAP2 ADD DUP2 MSTORE PUSH1 0x64 SWAP1 SWAP2 ADD SWAP1 SWAP2 MSTORE PUSH1 0x20 DUP2 ADD DUP1 MLOAD PUSH28 0xFFFFFFFFFFFFFFFFFFFFFFFFFFFFFFFFFFFFFFFFFFFFFFFFFFFFFFFF AND PUSH32 0xA9059CBB00000000000000000000000000000000000000000000000000000000 OR SWAP1 MSTORE PUSH2 0x17AA SWAP1 DUP5 SWAP1 PUSH2 0x17C0 JUMP JUMPDEST POP POP POP JUMP JUMPDEST PUSH2 0x17B7 PUSH2 0x183C JUMP JUMPDEST PUSH2 0x133D DUP2 PUSH2 0x18A3 JUMP JUMPDEST PUSH1 0x0 PUSH2 0x17D5 PUSH1 0x1 PUSH1 0x1 PUSH1 0xA0 SHL SUB DUP5 AND DUP4 PUSH2 0x18AB JUMP JUMPDEST SWAP1 POP DUP1 MLOAD PUSH1 0x0 EQ ISZERO DUP1 ISZERO PUSH2 0x17FA JUMPI POP DUP1 DUP1 PUSH1 0x20 ADD SWAP1 MLOAD DUP2 ADD SWAP1 PUSH2 0x17F8 SWAP2 SWAP1 PUSH2 0x1DC5 JUMP JUMPDEST ISZERO JUMPDEST ISZERO PUSH2 0x17AA JUMPI PUSH1 0x40 MLOAD PUSH32 0x5274AFE700000000000000000000000000000000000000000000000000000000 DUP2 MSTORE PUSH1 0x1 PUSH1 0x1 PUSH1 0xA0 SHL SUB DUP5 AND PUSH1 0x4 DUP3 ADD MSTORE PUSH1 0x24 ADD PUSH2 0x45B JUMP JUMPDEST PUSH32 0xF0C57E16840DF040F15088DC2F81FE391C3923BEC73E23A9662EFC9C229C6A00 SLOAD PUSH9 0x10000000000000000 SWAP1 DIV PUSH1 0xFF AND PUSH2 0x928 JUMPI PUSH1 0x40 MLOAD PUSH32 0xD7E6BCF800000000000000000000000000000000000000000000000000000000 DUP2 MSTORE PUSH1 0x4 ADD PUSH1 0x40 MLOAD DUP1 SWAP2 SUB SWAP1 REVERT JUMPDEST PUSH2 0x12F1 PUSH2 0x183C JUMP JUMPDEST PUSH1 0x60 PUSH2 0x18B9 DUP4 DUP4 PUSH1 0x0 PUSH2 0x18C0 JUMP JUMPDEST SWAP4 SWAP3 POP POP POP JUMP JUMPDEST PUSH1 0x60 DUP2 SELFBALANCE LT ISZERO PUSH2 0x18FE JUMPI PUSH1 0x40 MLOAD PUSH32 0xCD78605900000000000000000000000000000000000000000000000000000000 DUP2 MSTORE ADDRESS PUSH1 0x4 DUP3 ADD MSTORE PUSH1 0x24 ADD PUSH2 0x45B JUMP JUMPDEST PUSH1 0x0 DUP1 DUP6 PUSH1 0x1 PUSH1 0x1 PUSH1 0xA0 SHL SUB AND DUP5 DUP7 PUSH1 0x40 MLOAD PUSH2 0x191A SWAP2 SWAP1 PUSH2 0x1EFE JUMP JUMPDEST PUSH1 0x0 PUSH1 0x40 MLOAD DUP1 DUP4 SUB DUP2 DUP6 DUP8 GAS CALL SWAP3 POP POP POP RETURNDATASIZE DUP1 PUSH1 0x0 DUP2 EQ PUSH2 0x1957 JUMPI PUSH1 0x40 MLOAD SWAP2 POP PUSH1 0x1F NOT PUSH1 0x3F RETURNDATASIZE ADD AND DUP3 ADD PUSH1 0x40 MSTORE RETURNDATASIZE DUP3 MSTORE RETURNDATASIZE PUSH1 0x0 PUSH1 0x20 DUP5 ADD RETURNDATACOPY PUSH2 0x195C JUMP JUMPDEST PUSH1 0x60 SWAP2 POP JUMPDEST POP SWAP2 POP SWAP2 POP PUSH2 0x196C DUP7 DUP4 DUP4 PUSH2 0x1976 JUMP JUMPDEST SWAP7 SWAP6 POP POP POP POP POP POP JUMP JUMPDEST PUSH1 0x60 DUP3 PUSH2 0x198B JUMPI PUSH2 0x1986 DUP3 PUSH2 0x19EB JUMP JUMPDEST PUSH2 0x18B9 JUMP JUMPDEST DUP2 MLOAD ISZERO DUP1 ISZERO PUSH2 0x19A2 JUMPI POP PUSH1 0x1 PUSH1 0x1 PUSH1 0xA0 SHL SUB DUP5 AND EXTCODESIZE ISZERO JUMPDEST ISZERO PUSH2 0x19E4 JUMPI PUSH1 0x40 MLOAD PUSH32 0x9996B31500000000000000000000000000000000000000000000000000000000 DUP2 MSTORE PUSH1 0x1 PUSH1 0x1 PUSH1 0xA0 SHL SUB DUP6 AND PUSH1 0x4 DUP3 ADD MSTORE PUSH1 0x24 ADD PUSH2 0x45B JUMP JUMPDEST POP DUP1 PUSH2 0x18B9 JUMP JUMPDEST DUP1 MLOAD ISZERO PUSH2 0x19FB JUMPI DUP1 MLOAD DUP1 DUP3 PUSH1 0x20 ADD REVERT JUMPDEST PUSH1 0x40 MLOAD PUSH32 0x1425EA4200000000000000000000000000000000000000000000000000000000 DUP2 MSTORE PUSH1 0x4 ADD PUSH1 0x40 MLOAD DUP1 SWAP2 SUB SWAP1 REVERT JUMPDEST PUSH1 0x1 PUSH1 0x1 PUSH1 0xA0 SHL SUB DUP2 AND DUP2 EQ PUSH2 0x133D JUMPI PUSH1 0x0 DUP1 REVERT JUMPDEST DUP1 CALLDATALOAD PUSH1 0xFF DUP2 AND DUP2 EQ PUSH2 0x1A53 JUMPI PUSH1 0x0 DUP1 REVERT JUMPDEST SWAP2 SWAP1 POP JUMP JUMPDEST PUSH1 0x0 DUP1 PUSH1 0x0 DUP1 PUSH1 0x0 PUSH1 0xA0 DUP7 DUP9 SUB SLT ISZERO PUSH2 0x1A70 JUMPI PUSH1 0x0 DUP1 REVERT JUMPDEST DUP6 CALLDATALOAD PUSH2 0x1A7B DUP2 PUSH2 0x1A2D JUMP JUMPDEST SWAP5 POP PUSH1 0x20 DUP7 ADD CALLDATALOAD PUSH2 0x1A8B DUP2 PUSH2 0x1A2D JUMP JUMPDEST SWAP4 POP PUSH2 0x1A99 PUSH1 0x40 DUP8 ADD PUSH2 0x1A42 JUMP JUMPDEST SWAP3 POP PUSH2 0x1AA7 PUSH1 0x60 DUP8 ADD PUSH2 0x1A42 JUMP JUMPDEST SWAP2 POP PUSH2 0x1AB5 PUSH1 0x80 DUP8 ADD PUSH2 0x1A42 JUMP JUMPDEST SWAP1 POP SWAP3 SWAP6 POP SWAP3 SWAP6 SWAP1 SWAP4 POP JUMP JUMPDEST PUSH1 0x0 PUSH1 0x20 DUP3 DUP5 SUB SLT ISZERO PUSH2 0x1AD3 JUMPI PUSH1 0x0 DUP1 REVERT JUMPDEST POP CALLDATALOAD SWAP2 SWAP1 POP JUMP JUMPDEST PUSH1 0x0 DUP1 DUP4 PUSH1 0x1F DUP5 ADD SLT PUSH2 0x1AEC JUMPI PUSH1 0x0 DUP1 REVERT JUMPDEST POP DUP2 CALLDATALOAD PUSH8 0xFFFFFFFFFFFFFFFF DUP2 GT ISZERO PUSH2 0x1B04 JUMPI PUSH1 0x0 DUP1 REVERT JUMPDEST PUSH1 0x20 DUP4 ADD SWAP2 POP DUP4 PUSH1 0x20 DUP3 PUSH1 0x5 SHL DUP6 ADD ADD GT ISZERO PUSH2 0x1B1F JUMPI PUSH1 0x0 DUP1 REVERT JUMPDEST SWAP3 POP SWAP3 SWAP1 POP JUMP JUMPDEST PUSH1 0x0 DUP1 PUSH1 0x0 DUP1 PUSH1 0x0 PUSH1 0x60 DUP7 DUP9 SUB SLT ISZERO PUSH2 0x1B3E JUMPI PUSH1 0x0 DUP1 REVERT JUMPDEST DUP6 CALLDATALOAD PUSH2 0x1B49 DUP2 PUSH2 0x1A2D JUMP JUMPDEST SWAP5 POP PUSH1 0x20 DUP7 ADD CALLDATALOAD PUSH8 0xFFFFFFFFFFFFFFFF DUP1 DUP3 GT ISZERO PUSH2 0x1B66 JUMPI PUSH1 0x0 DUP1 REVERT JUMPDEST PUSH2 0x1B72 DUP10 DUP4 DUP11 ADD PUSH2 0x1ADA JUMP JUMPDEST SWAP1 SWAP7 POP SWAP5 POP PUSH1 0x40 DUP9 ADD CALLDATALOAD SWAP2 POP DUP1 DUP3 GT ISZERO PUSH2 0x1B8B JUMPI PUSH1 0x0 DUP1 REVERT JUMPDEST POP PUSH2 0x1B98 DUP9 DUP3 DUP10 ADD PUSH2 0x1ADA JUMP JUMPDEST SWAP7 SWAP10 SWAP6 SWAP9 POP SWAP4 SWAP7 POP SWAP3 SWAP5 SWAP4 SWAP3 POP POP POP JUMP JUMPDEST PUSH1 0x0 DUP1 PUSH1 0x0 DUP1 PUSH1 0x0 PUSH1 0xA0 DUP7 DUP9 SUB SLT ISZERO PUSH2 0x1BC1 JUMPI PUSH1 0x0 DUP1 REVERT JUMPDEST DUP6 CALLDATALOAD SWAP5 POP PUSH1 0x20 DUP7 ADD CALLDATALOAD PUSH2 0x1A8B DUP2 PUSH2 0x1A2D JUMP JUMPDEST PUSH1 0x0 PUSH1 0x20 DUP3 DUP5 SUB SLT ISZERO PUSH2 0x1BE5 JUMPI PUSH1 0x0 DUP1 REVERT JUMPDEST DUP2 CALLDATALOAD PUSH2 0x18B9 DUP2 PUSH2 0x1A2D JUMP JUMPDEST PUSH1 0x0 DUP1 PUSH1 0x40 DUP4 DUP6 SUB SLT ISZERO PUSH2 0x1C03 JUMPI PUSH1 0x0 DUP1 REVERT JUMPDEST DUP3 CALLDATALOAD SWAP2 POP PUSH1 0x20 DUP4 ADD CALLDATALOAD PUSH2 0x1C15 DUP2 PUSH2 0x1A2D JUMP JUMPDEST DUP1 SWAP2 POP POP SWAP3 POP SWAP3 SWAP1 POP JUMP JUMPDEST PUSH1 0x0 DUP1 PUSH1 0x0 DUP1 PUSH1 0x80 DUP6 DUP8 SUB SLT ISZERO PUSH2 0x1C36 JUMPI PUSH1 0x0 DUP1 REVERT JUMPDEST DUP5 CALLDATALOAD PUSH2 0x1C41 DUP2 PUSH2 0x1A2D JUMP JUMPDEST SWAP4 POP PUSH1 0x20 DUP6 ADD CALLDATALOAD PUSH2 0x1C51 DUP2 PUSH2 0x1A2D JUMP JUMPDEST SWAP3 POP PUSH1 0x40 DUP6 ADD CALLDATALOAD PUSH2 0x1C61 DUP2 PUSH2 0x1A2D JUMP JUMPDEST SWAP2 POP PUSH1 0x60 DUP6 ADD CALLDATALOAD PUSH2 0x1C71 DUP2 PUSH2 0x1A2D JUMP JUMPDEST SWAP4 SWAP7 SWAP3 SWAP6 POP SWAP1 SWAP4 POP POP JUMP JUMPDEST PUSH4 0x4E487B71 PUSH1 0xE0 SHL PUSH1 0x0 MSTORE PUSH1 0x41 PUSH1 0x4 MSTORE PUSH1 0x24 PUSH1 0x0 REVERT JUMPDEST PUSH1 0x0 JUMPDEST DUP4 DUP2 LT ISZERO PUSH2 0x1CAD JUMPI DUP2 DUP2 ADD MLOAD DUP4 DUP3 ADD MSTORE PUSH1 0x20 ADD PUSH2 0x1C95 JUMP JUMPDEST POP POP PUSH1 0x0 SWAP2 ADD MSTORE JUMP JUMPDEST PUSH1 0x0 DUP1 PUSH1 0x40 DUP4 DUP6 SUB SLT ISZERO PUSH2 0x1CC9 JUMPI PUSH1 0x0 DUP1 REVERT JUMPDEST DUP3 MLOAD PUSH8 0xFFFFFFFFFFFFFFFF DUP1 DUP3 GT ISZERO PUSH2 0x1CE1 JUMPI PUSH1 0x0 DUP1 REVERT JUMPDEST DUP2 DUP6 ADD SWAP2 POP DUP6 PUSH1 0x1F DUP4 ADD SLT PUSH2 0x1CF5 JUMPI PUSH1 0x0 DUP1 REVERT JUMPDEST DUP2 MLOAD DUP2 DUP2 GT ISZERO PUSH2 0x1D07 JUMPI PUSH2 0x1D07 PUSH2 0x1C7C JUMP JUMPDEST PUSH1 0x40 MLOAD PUSH1 0x1F DUP3 ADD PUSH1 0x1F NOT SWAP1 DUP2 AND PUSH1 0x3F ADD AND DUP2 ADD SWAP1 DUP4 DUP3 GT DUP2 DUP4 LT OR ISZERO PUSH2 0x1D2F JUMPI PUSH2 0x1D2F PUSH2 0x1C7C JUMP JUMPDEST DUP2 PUSH1 0x40 MSTORE DUP3 DUP2 MSTORE DUP9 PUSH1 0x20 DUP5 DUP8 ADD ADD GT ISZERO PUSH2 0x1D48 JUMPI PUSH1 0x0 DUP1 REVERT JUMPDEST PUSH2 0x1D59 DUP4 PUSH1 0x20 DUP4 ADD PUSH1 0x20 DUP9 ADD PUSH2 0x1C92 JUMP JUMPDEST PUSH1 0x20 SWAP8 SWAP1 SWAP8 ADD MLOAD SWAP7 SWAP9 SWAP7 SWAP8 POP POP POP POP POP POP POP JUMP JUMPDEST PUSH4 0x4E487B71 PUSH1 0xE0 SHL PUSH1 0x0 MSTORE PUSH1 0x32 PUSH1 0x4 MSTORE PUSH1 0x24 PUSH1 0x0 REVERT JUMPDEST PUSH1 0x0 PUSH1 0x20 DUP3 DUP5 SUB SLT ISZERO PUSH2 0x1D95 JUMPI PUSH1 0x0 DUP1 REVERT JUMPDEST POP MLOAD SWAP2 SWAP1 POP JUMP JUMPDEST PUSH4 0x4E487B71 PUSH1 0xE0 SHL PUSH1 0x0 MSTORE PUSH1 0x11 PUSH1 0x4 MSTORE PUSH1 0x24 PUSH1 0x0 REVERT JUMPDEST DUP1 DUP3 ADD DUP1 DUP3 GT ISZERO PUSH2 0x163F JUMPI PUSH2 0x163F PUSH2 0x1D9C JUMP JUMPDEST PUSH1 0x0 PUSH1 0x20 DUP3 DUP5 SUB SLT ISZERO PUSH2 0x1DD7 JUMPI PUSH1 0x0 DUP1 REVERT JUMPDEST DUP2 MLOAD DUP1 ISZERO ISZERO DUP2 EQ PUSH2 0x18B9 JUMPI PUSH1 0x0 DUP1 REVERT JUMPDEST PUSH1 0x0 PUSH1 0x20 DUP3 DUP5 SUB SLT ISZERO PUSH2 0x1DF9 JUMPI PUSH1 0x0 DUP1 REVERT JUMPDEST DUP2 MLOAD PUSH2 0x18B9 DUP2 PUSH2 0x1A2D JUMP JUMPDEST DUP1 DUP3 MUL DUP2 ISZERO DUP3 DUP3 DIV DUP5 EQ OR PUSH2 0x163F JUMPI PUSH2 0x163F PUSH2 0x1D9C JUMP JUMPDEST PUSH1 0x0 DUP3 PUSH2 0x1E38 JUMPI PUSH4 0x4E487B71 PUSH1 0xE0 SHL PUSH1 0x0 MSTORE PUSH1 0x12 PUSH1 0x4 MSTORE PUSH1 0x24 PUSH1 0x0 REVERT JUMPDEST POP DIV SWAP1 JUMP JUMPDEST DUP2 DUP2 SUB DUP2 DUP2 GT ISZERO PUSH2 0x163F JUMPI PUSH2 0x163F PUSH2 0x1D9C JUMP JUMPDEST DUP2 DUP4 MSTORE PUSH1 0x0 PUSH32 0x7FFFFFFFFFFFFFFFFFFFFFFFFFFFFFFFFFFFFFFFFFFFFFFFFFFFFFFFFFFFFFF DUP4 GT ISZERO PUSH2 0x1E82 JUMPI PUSH1 0x0 DUP1 REVERT JUMPDEST DUP3 PUSH1 0x5 SHL DUP1 DUP4 PUSH1 0x20 DUP8 ADD CALLDATACOPY SWAP4 SWAP1 SWAP4 ADD PUSH1 0x20 ADD SWAP4 SWAP3 POP POP POP JUMP JUMPDEST PUSH1 0x1 PUSH1 0x1 PUSH1 0xA0 SHL SUB DUP8 AND DUP2 MSTORE PUSH1 0x80 PUSH1 0x20 DUP3 ADD MSTORE PUSH1 0x0 PUSH2 0x1EBE PUSH1 0x80 DUP4 ADD DUP8 DUP10 PUSH2 0x1E50 JUMP JUMPDEST DUP3 DUP2 SUB PUSH1 0x40 DUP5 ADD MSTORE PUSH2 0x1ED1 DUP2 DUP7 DUP9 PUSH2 0x1E50 JUMP JUMPDEST SWAP2 POP POP DUP3 PUSH1 0x60 DUP4 ADD MSTORE SWAP8 SWAP7 POP POP POP POP POP POP POP JUMP JUMPDEST PUSH1 0xFF DUP2 DUP2 AND DUP4 DUP3 AND ADD SWAP1 DUP2 GT ISZERO PUSH2 0x163F JUMPI PUSH2 0x163F PUSH2 0x1D9C JUMP JUMPDEST PUSH1 0x0 DUP3 MLOAD PUSH2 0x1F10 DUP2 DUP5 PUSH1 0x20 DUP8 ADD PUSH2 0x1C92 JUMP JUMPDEST SWAP2 SWAP1 SWAP2 ADD SWAP3 SWAP2 POP POP JUMP INVALID LOG2 PUSH5 0x6970667358 0x22 SLT KECCAK256 SELFDESTRUCT PC EXP PUSH7 0x4153B28C379B1E 0xA9 0xED 0xFC SIGNEXTEND AND CALLER PUSH4 0x6E5708CB RETURNDATASIZE 0x4C TLOAD 0xC4 SUB 0xDA SWAP3 PC 0xDE ISZERO PUSH5 0x736F6C6343 STOP ADDMOD XOR STOP CALLER "
        },
        "methodIdentifiers": {
          "PROTOCOL_SHARE()": "51adc761",
          "accountRewarder()": "55ea4259",
          "balanceOf(address,uint256[],uint256[])": "3561cee0",
          "collect(uint256,address)": "8d3c100a",
          "configurationOf(uint256)": "2b545421",
          "ecosystemRewarder()": "2b28e2e2",
          "holderRewarder()": "22de3b91",
          "initialize(address,address,address,address)": "f8c8765e",
          "owner()": "8da5cb5b",
          "registerCld(address,address,uint8,uint8,uint8)": "0d804d40",
          "renounceOwnership()": "715018a6",
          "setAccountRewarder(address)": "87ad6d00",
          "setCldConfiguration(uint256,address,uint8,uint8,uint8)": "6fe13b49",
          "setController(address)": "92eefe9b",
          "setEcosystemRewarder(address)": "9aa9aac1",
          "setHolderRewarder(address)": "e514a140",
          "transferOwnership(address)": "f2fde38b",
          "withdraw(address,uint256[],uint256[])": "9339b0a0"
        }
      },
      "storageLayout": {
        "storage": [
          {
            "astId": 1300,
            "contract": "contracts/NNSRewarderV1.sol:NNSRewarderV1",
            "label": "_protocol",
            "offset": 0,
            "slot": "0",
            "type": "t_address"
          },
          {
            "astId": 1304,
            "contract": "contracts/NNSRewarderV1.sol:NNSRewarderV1",
            "label": "_communityShare",
            "offset": 0,
            "slot": "1",
            "type": "t_mapping(t_uint256,t_uint8)"
          },
          {
            "astId": 1308,
            "contract": "contracts/NNSRewarderV1.sol:NNSRewarderV1",
            "label": "_communityPayables",
            "offset": 0,
            "slot": "2",
            "type": "t_mapping(t_uint256,t_address)"
          },
          {
            "astId": 1312,
            "contract": "contracts/NNSRewarderV1.sol:NNSRewarderV1",
            "label": "_referralShare",
            "offset": 0,
            "slot": "3",
            "type": "t_mapping(t_uint256,t_uint8)"
          },
          {
            "astId": 1316,
            "contract": "contracts/NNSRewarderV1.sol:NNSRewarderV1",
            "label": "_ecosystemShare",
            "offset": 0,
            "slot": "4",
            "type": "t_mapping(t_uint256,t_uint8)"
          },
          {
            "astId": 1321,
            "contract": "contracts/NNSRewarderV1.sol:NNSRewarderV1",
            "label": "_registries",
            "offset": 0,
            "slot": "5",
            "type": "t_mapping(t_uint256,t_contract(IRegistry)2557)"
          },
          {
            "astId": 1324,
            "contract": "contracts/NNSRewarderV1.sol:NNSRewarderV1",
            "label": "_ecosystemRewarder",
            "offset": 0,
            "slot": "6",
            "type": "t_contract(IERC721BasedRewarder)2246"
          },
          {
            "astId": 1327,
            "contract": "contracts/NNSRewarderV1.sol:NNSRewarderV1",
            "label": "_holderRewarder",
            "offset": 0,
            "slot": "7",
            "type": "t_contract(IERC721BasedRewarder)2246"
          },
          {
            "astId": 1330,
            "contract": "contracts/NNSRewarderV1.sol:NNSRewarderV1",
            "label": "_accountRewarder",
            "offset": 0,
            "slot": "8",
            "type": "t_contract(IAccountRewarder)2127"
          },
          {
            "astId": 1333,
            "contract": "contracts/NNSRewarderV1.sol:NNSRewarderV1",
            "label": "_rewardToken",
            "offset": 0,
            "slot": "9",
            "type": "t_contract(IERC20)572"
          },
          {
            "astId": 1336,
            "contract": "contracts/NNSRewarderV1.sol:NNSRewarderV1",
            "label": "_swapRouter",
            "offset": 0,
            "slot": "10",
            "type": "t_contract(IV3SwapRouter)2780"
          },
          {
            "astId": 1339,
            "contract": "contracts/NNSRewarderV1.sol:NNSRewarderV1",
            "label": "_weth9",
            "offset": 0,
            "slot": "11",
            "type": "t_contract(IERC20)572"
          },
          {
            "astId": 1341,
            "contract": "contracts/NNSRewarderV1.sol:NNSRewarderV1",
            "label": "_controller",
            "offset": 0,
            "slot": "12",
            "type": "t_address"
          },
          {
            "astId": 1345,
            "contract": "contracts/NNSRewarderV1.sol:NNSRewarderV1",
            "label": "__gap",
            "offset": 0,
            "slot": "13",
            "type": "t_array(t_uint256)50_storage"
          }
        ],
        "types": {
          "t_address": {
            "encoding": "inplace",
            "label": "address",
            "numberOfBytes": "20"
          },
          "t_array(t_uint256)50_storage": {
            "base": "t_uint256",
            "encoding": "inplace",
            "label": "uint256[50]",
            "numberOfBytes": "1600"
          },
          "t_contract(IAccountRewarder)2127": {
            "encoding": "inplace",
            "label": "contract IAccountRewarder",
            "numberOfBytes": "20"
          },
          "t_contract(IERC20)572": {
            "encoding": "inplace",
            "label": "contract IERC20",
            "numberOfBytes": "20"
          },
          "t_contract(IERC721BasedRewarder)2246": {
            "encoding": "inplace",
            "label": "contract IERC721BasedRewarder",
            "numberOfBytes": "20"
          },
          "t_contract(IRegistry)2557": {
            "encoding": "inplace",
            "label": "contract IRegistry",
            "numberOfBytes": "20"
          },
          "t_contract(IV3SwapRouter)2780": {
            "encoding": "inplace",
            "label": "contract IV3SwapRouter",
            "numberOfBytes": "20"
          },
          "t_mapping(t_uint256,t_address)": {
            "encoding": "mapping",
            "key": "t_uint256",
            "label": "mapping(uint256 => address)",
            "numberOfBytes": "32",
            "value": "t_address"
          },
          "t_mapping(t_uint256,t_contract(IRegistry)2557)": {
            "encoding": "mapping",
            "key": "t_uint256",
            "label": "mapping(uint256 => contract IRegistry)",
            "numberOfBytes": "32",
            "value": "t_contract(IRegistry)2557"
          },
          "t_mapping(t_uint256,t_uint8)": {
            "encoding": "mapping",
            "key": "t_uint256",
            "label": "mapping(uint256 => uint8)",
            "numberOfBytes": "32",
            "value": "t_uint8"
          },
          "t_uint256": {
            "encoding": "inplace",
            "label": "uint256",
            "numberOfBytes": "32"
          },
          "t_uint8": {
            "encoding": "inplace",
            "label": "uint8",
            "numberOfBytes": "1"
          }
        }
      }
    }
  }
}