{
  "address": "0x61F8D1b39AE18D7d3dEf195f064E507a6DAd4CF3",
  "abi": [
    {
      "inputs": [
        {
          "internalType": "contract BaseRegistrarImplementation",
          "name": "_base",
          "type": "address"
        },
        {
          "internalType": "contract IPriceOracle",
          "name": "_prices",
          "type": "address"
        },
        {
          "internalType": "uint256",
          "name": "_minCommitmentAge",
          "type": "uint256"
        },
        {
          "internalType": "uint256",
          "name": "_maxCommitmentAge",
          "type": "uint256"
        },
        {
          "internalType": "contract ENS",
          "name": "_ethENS",
          "type": "address"
        },
        {
          "internalType": "contract NamedReservations",
          "name": "_namedReservations",
          "type": "address"
        }
      ],
      "stateMutability": "nonpayable",
      "type": "constructor"
    },
    {
      "anonymous": false,
      "inputs": [
        {
          "indexed": false,
          "internalType": "string",
          "name": "name",
          "type": "string"
        },
        {
          "indexed": true,
          "internalType": "bytes32",
          "name": "label",
          "type": "bytes32"
        },
        {
          "indexed": true,
          "internalType": "address",
          "name": "owner",
          "type": "address"
        },
        {
          "indexed": false,
          "internalType": "uint256",
          "name": "cost",
          "type": "uint256"
        }
      ],
      "name": "NameRegistered",
      "type": "event"
    },
    {
      "anonymous": false,
      "inputs": [
        {
          "indexed": true,
          "internalType": "address",
          "name": "oracle",
          "type": "address"
        }
      ],
      "name": "NewPriceOracle",
      "type": "event"
    },
    {
      "anonymous": false,
      "inputs": [
        {
          "indexed": true,
          "internalType": "address",
          "name": "previousOwner",
          "type": "address"
        },
        {
          "indexed": true,
          "internalType": "address",
          "name": "newOwner",
          "type": "address"
        }
      ],
      "name": "OwnershipTransferred",
      "type": "event"
    },
    {
      "inputs": [
        {
          "internalType": "string",
          "name": "name",
          "type": "string"
        }
      ],
      "name": "available",
      "outputs": [
        {
          "internalType": "bool",
          "name": "",
          "type": "bool"
        }
      ],
      "stateMutability": "view",
      "type": "function"
    },
    {
      "inputs": [
        {
          "internalType": "bytes32",
          "name": "commitment",
          "type": "bytes32"
        }
      ],
      "name": "commit",
      "outputs": [],
      "stateMutability": "nonpayable",
      "type": "function"
    },
    {
      "inputs": [
        {
          "internalType": "bytes32",
          "name": "",
          "type": "bytes32"
        }
      ],
      "name": "commitments",
      "outputs": [
        {
          "internalType": "uint256",
          "name": "",
          "type": "uint256"
        }
      ],
      "stateMutability": "view",
      "type": "function"
    },
    {
      "inputs": [
        {
          "internalType": "string",
          "name": "name",
          "type": "string"
        },
        {
          "internalType": "address",
          "name": "owner",
          "type": "address"
        },
        {
          "internalType": "bytes32",
          "name": "secret",
          "type": "bytes32"
        }
      ],
      "name": "makeCommitment",
      "outputs": [
        {
          "internalType": "bytes32",
          "name": "",
          "type": "bytes32"
        }
      ],
      "stateMutability": "pure",
      "type": "function"
    },
    {
      "inputs": [
        {
          "internalType": "string",
          "name": "name",
          "type": "string"
        },
        {
          "internalType": "address",
          "name": "owner",
          "type": "address"
        },
        {
          "internalType": "bytes32",
          "name": "secret",
          "type": "bytes32"
        },
        {
          "internalType": "address",
          "name": "resolver",
          "type": "address"
        },
        {
          "internalType": "address",
          "name": "addr",
          "type": "address"
        }
      ],
      "name": "makeCommitmentWithConfig",
      "outputs": [
        {
          "internalType": "bytes32",
          "name": "",
          "type": "bytes32"
        }
      ],
      "stateMutability": "pure",
      "type": "function"
    },
    {
      "inputs": [],
      "name": "maxCommitmentAge",
      "outputs": [
        {
          "internalType": "uint256",
          "name": "",
          "type": "uint256"
        }
      ],
      "stateMutability": "view",
      "type": "function"
    },
    {
      "inputs": [],
      "name": "minCommitmentAge",
      "outputs": [
        {
          "internalType": "uint256",
          "name": "",
          "type": "uint256"
        }
      ],
      "stateMutability": "view",
      "type": "function"
    },
    {
      "inputs": [],
      "name": "owner",
      "outputs": [
        {
          "internalType": "address",
          "name": "",
          "type": "address"
        }
      ],
      "stateMutability": "view",
      "type": "function"
    },
    {
      "inputs": [
        {
          "internalType": "string",
          "name": "name",
          "type": "string"
        }
      ],
      "name": "price",
      "outputs": [
        {
          "internalType": "uint256",
          "name": "",
          "type": "uint256"
        }
      ],
      "stateMutability": "view",
      "type": "function"
    },
    {
      "inputs": [
        {
          "internalType": "string",
          "name": "name",
          "type": "string"
        },
        {
          "internalType": "address",
          "name": "owner",
          "type": "address"
        },
        {
          "internalType": "bytes32",
          "name": "secret",
          "type": "bytes32"
        }
      ],
      "name": "register",
      "outputs": [],
      "stateMutability": "payable",
      "type": "function"
    },
    {
      "inputs": [
        {
          "internalType": "string",
          "name": "name",
          "type": "string"
        },
        {
          "internalType": "address",
          "name": "owner",
          "type": "address"
        },
        {
          "internalType": "bytes32",
          "name": "secret",
          "type": "bytes32"
        },
        {
          "internalType": "address",
          "name": "resolver",
          "type": "address"
        },
        {
          "internalType": "address",
          "name": "addr",
          "type": "address"
        }
      ],
      "name": "registerWithConfig",
      "outputs": [],
      "stateMutability": "payable",
      "type": "function"
    },
    {
      "inputs": [],
      "name": "renounceOwnership",
      "outputs": [],
      "stateMutability": "nonpayable",
      "type": "function"
    },
    {
      "inputs": [
        {
          "internalType": "string",
          "name": "name",
          "type": "string"
        },
        {
          "internalType": "address",
          "name": "sender",
          "type": "address"
        }
      ],
      "name": "reserved",
      "outputs": [
        {
          "internalType": "bool",
          "name": "",
          "type": "bool"
        }
      ],
      "stateMutability": "view",
      "type": "function"
    },
    {
      "inputs": [
        {
          "internalType": "contract Resolver",
          "name": "resolver",
          "type": "address"
        }
      ],
      "name": "setAsInterface",
      "outputs": [],
      "stateMutability": "nonpayable",
      "type": "function"
    },
    {
      "inputs": [
        {
          "internalType": "uint256",
          "name": "_minCommitmentAge",
          "type": "uint256"
        },
        {
          "internalType": "uint256",
          "name": "_maxCommitmentAge",
          "type": "uint256"
        }
      ],
      "name": "setCommitmentAges",
      "outputs": [],
      "stateMutability": "nonpayable",
      "type": "function"
    },
    {
      "inputs": [
        {
          "internalType": "contract IPriceOracle",
          "name": "_prices",
          "type": "address"
        }
      ],
      "name": "setPriceOracle",
      "outputs": [],
      "stateMutability": "nonpayable",
      "type": "function"
    },
    {
      "inputs": [
        {
          "internalType": "bytes4",
          "name": "interfaceID",
          "type": "bytes4"
        }
      ],
      "name": "supportsInterface",
      "outputs": [
        {
          "internalType": "bool",
          "name": "",
          "type": "bool"
        }
      ],
      "stateMutability": "pure",
      "type": "function"
    },
    {
      "inputs": [
        {
          "internalType": "address",
          "name": "newOwner",
          "type": "address"
        }
      ],
      "name": "transferOwnership",
      "outputs": [],
      "stateMutability": "nonpayable",
      "type": "function"
    },
    {
      "inputs": [
        {
          "internalType": "string",
          "name": "name",
          "type": "string"
        }
      ],
      "name": "valid",
      "outputs": [
        {
          "internalType": "bool",
          "name": "",
          "type": "bool"
        }
      ],
      "stateMutability": "pure",
      "type": "function"
    },
    {
      "inputs": [],
      "name": "withdraw",
      "outputs": [],
      "stateMutability": "nonpayable",
      "type": "function"
    }
  ],
  "transactionHash": "0xb45e332274c4a88ac8ad849e4d9bb676e85716d7b61973057d25abb7f6de9cba",
  "args": [
    "0x2e12d051c3Be2aAA932EB09CE4Cba8F58fa1860e",
    "0xF4fA6B89B4C1677d07b530cec1D505D19167eC48",
    60,
    86400,
    "0x00000000000C2E074eC69A0dFb2997BA6C7d2e1e",
    "0x286c558D4e2e38bB44548e015D656A9081950Fa4"
  ],
  "numDeployments": 1,
  "solcInputHash": "d1e7b115564b0e977220c78df49e4073",
  "bytecode": "0x60806040523480156200001157600080fd5b5060405162001ec638038062001ec6833981016040819052620000349162000114565b6200003f33620000ab565b8383116200004c57600080fd5b600180546001600160a01b039788166001600160a01b0319918216179091556002805496881696821696909617909555600593909355600691909155600380549185169184169190911790556004805491909316911617905562000191565b600080546001600160a01b038381166001600160a01b0319831681178455604051919092169283917f8be0079c531659141344cd1fd0a4f28419497f9722a3daafe3b4186f6b6457e09190a35050565b6001600160a01b03811681146200011157600080fd5b50565b60008060008060008060c087890312156200012e57600080fd5b86516200013b81620000fb565b60208801519096506200014e81620000fb565b80955050604087015193506060870151925060808701516200017081620000fb565b60a08801519092506200018381620000fb565b809150509295509295509295565b611d2580620001a16000396000f3fe60806040526004361061015f5760003560e01c80638da5cb5b116100c0578063f14fcbc811610074578063f34b95b311610059578063f34b95b314610394578063f49826be146103a7578063fe2c6198146103c757600080fd5b8063f14fcbc814610354578063f2fde38b1461037457600080fd5b8063aeb8ce9b116100a5578063aeb8ce9b146102fe578063ce1e09c01461031e578063eb5c75661461033457600080fd5b80638da5cb5b146102a95780639791c097146102de57600080fd5b80636acb4f91116101175780637e324479116100fc5780637e32447914610246578063839df945146102665780638d839ffe1461029357600080fd5b80636acb4f911461021e578063715018a61461023157600080fd5b80633ccfd60b116101485780633ccfd60b146101b95780633d86c52f146101d0578063530e784f146101fe57600080fd5b806301ffc9a7146101645780633852be2f14610199575b600080fd5b34801561017057600080fd5b5061018461017f36600461178a565b6103e7565b60405190151581526020015b60405180910390f35b3480156101a557600080fd5b506101846101b43660046118c8565b6104cc565b3480156101c557600080fd5b506101ce6106a3565b005b3480156101dc57600080fd5b506101f06101eb36600461191a565b6106da565b604051908152602001610190565b34801561020a57600080fd5b506101ce61021936600461199b565b61081f565b6101ce61022c36600461191a565b610896565b34801561023d57600080fd5b506101ce610e6c565b34801561025257600080fd5b506101ce6102613660046119b8565b610e80565b34801561027257600080fd5b506101f06102813660046119da565b60076020526000908152604090205481565b34801561029f57600080fd5b506101f060055481565b3480156102b557600080fd5b5060005460405173ffffffffffffffffffffffffffffffffffffffff9091168152602001610190565b3480156102ea57600080fd5b506101846102f93660046119f3565b610e93565b34801561030a57600080fd5b506101846103193660046119f3565b610ea8565b34801561032a57600080fd5b506101f060065481565b34801561034057600080fd5b506101ce61034f36600461199b565b610f5c565b34801561036057600080fd5b506101ce61036f3660046119da565b611032565b34801561038057600080fd5b506101ce61038f36600461199b565b61106c565b6101ce6103a2366004611a28565b611125565b3480156103b357600080fd5b506101f06103c2366004611ab1565b61116e565b3480156103d357600080fd5b506101f06103e23660046119f3565b611186565b60007fffffffff0000000000000000000000000000000000000000000000000000000082167f01ffc9a700000000000000000000000000000000000000000000000000000000148061047a57507fffffffff0000000000000000000000000000000000000000000000000000000082167f9e5a69e900000000000000000000000000000000000000000000000000000000145b806104c657507fffffffff0000000000000000000000000000000000000000000000000000000082167f574d8abe00000000000000000000000000000000000000000000000000000000145b92915050565b60006104d78361121e565b156104e4575060016104c6565b600480546040517f1a42113600000000000000000000000000000000000000000000000000000000815273ffffffffffffffffffffffffffffffffffffffff90911691631a4211369161053991879101611b81565b602060405180830381865afa158015610556573d6000803e3d6000fd5b505050506040513d601f19601f8201168201806040525081019061057a9190611b94565b15610587575060016104c6565b60035473ffffffffffffffffffffffffffffffffffffffff166105ac575060006104c6565b60035460009073ffffffffffffffffffffffffffffffffffffffff166302571be36105d686611314565b6040518263ffffffff1660e01b81526004016105f491815260200190565b602060405180830381865afa158015610611573d6000803e3d6000fd5b505050506040513d601f19601f820116820180604052508101906106359190611bb6565b905073ffffffffffffffffffffffffffffffffffffffff811661065c5760009150506104c6565b8273ffffffffffffffffffffffffffffffffffffffff168173ffffffffffffffffffffffffffffffffffffffff16036106995760009150506104c6565b5060019392505050565b6106ab6113ec565b60405133904780156108fc02916000818181858888f193505050501580156106d7573d6000803e3d6000fd5b50565b8451602086012060009073ffffffffffffffffffffffffffffffffffffffff841615801561071c575073ffffffffffffffffffffffffffffffffffffffff8316155b156107825760408051602081018390527fffffffffffffffffffffffffffffffffffffffff000000000000000000000000606089901b16918101919091526054810186905260740160405160208183030381529060405280519060200120915050610816565b73ffffffffffffffffffffffffffffffffffffffff84166107a257600080fd5b60408051602081018390527fffffffffffffffffffffffffffffffffffffffff000000000000000000000000606089811b82169383019390935286831b811660548301529185901b9091166068820152607c8101869052609c01604051602081830303815290604052805190602001209150505b95945050505050565b6108276113ec565b600280547fffffffffffffffffffffffff00000000000000000000000000000000000000001673ffffffffffffffffffffffffffffffffffffffff83169081179091556040517ff261845a790fe29bbd6631e2ca4a5bdc83e6eed7c3271d9590d97287e00e912390600090a250565b60006108a586868686866106da565b905060006108b3878361146d565b875160208901209091508073ffffffffffffffffffffffffffffffffffffffff861615610d22576001546040517fdbbdf0830000000000000000000000000000000000000000000000000000000081526004810183905230602482015273ffffffffffffffffffffffffffffffffffffffff9091169063dbbdf08390604401600060405180830381600087803b15801561094c57600080fd5b505af1158015610960573d6000803e3d6000fd5b505050506000600160009054906101000a900473ffffffffffffffffffffffffffffffffffffffff1673ffffffffffffffffffffffffffffffffffffffff1663ddf7fcb06040518163ffffffff1660e01b8152600401602060405180830381865afa1580156109d3573d6000803e3d6000fd5b505050506040513d601f19601f820116820180604052508101906109f79190611bd3565b6040805160208101929092528101849052606001604080517fffffffffffffffffffffffffffffffffffffffffffffffffffffffffffffffe081840301815282825280516020918201206001547f3f15457f000000000000000000000000000000000000000000000000000000008552925190945073ffffffffffffffffffffffffffffffffffffffff90921692633f15457f92600480830193928290030181865afa158015610aab573d6000803e3d6000fd5b505050506040513d601f19601f82011682018060405250810190610acf9190611bb6565b6040517f1896f70a0000000000000000000000000000000000000000000000000000000081526004810183905273ffffffffffffffffffffffffffffffffffffffff89811660248301529190911690631896f70a90604401600060405180830381600087803b158015610b4157600080fd5b505af1158015610b55573d6000803e3d6000fd5b5050505073ffffffffffffffffffffffffffffffffffffffff861615610bfe576040517fd5fa2b000000000000000000000000000000000000000000000000000000000081526004810182905273ffffffffffffffffffffffffffffffffffffffff878116602483015288169063d5fa2b0090604401600060405180830381600087803b158015610be557600080fd5b505af1158015610bf9573d6000803e3d6000fd5b505050505b6001546040517f28ed4f6c0000000000000000000000000000000000000000000000000000000081526004810184905273ffffffffffffffffffffffffffffffffffffffff8b81166024830152909116906328ed4f6c90604401600060405180830381600087803b158015610c7257600080fd5b505af1158015610c86573d6000803e3d6000fd5b50506001546040517f23b872dd00000000000000000000000000000000000000000000000000000000815230600482015273ffffffffffffffffffffffffffffffffffffffff8d811660248301526044820187905290911692506323b872dd9150606401600060405180830381600087803b158015610d0457600080fd5b505af1158015610d18573d6000803e3d6000fd5b5050505050610dd0565b73ffffffffffffffffffffffffffffffffffffffff851615610d4357600080fd5b6001546040517fdbbdf0830000000000000000000000000000000000000000000000000000000081526004810183905273ffffffffffffffffffffffffffffffffffffffff8a811660248301529091169063dbbdf08390604401600060405180830381600087803b158015610db757600080fd5b505af1158015610dcb573d6000803e3d6000fd5b505050505b8773ffffffffffffffffffffffffffffffffffffffff16827f0667086d08417333ce63f40d5bc2ef6fd330e25aaaf317b7c489541f8fe600fa8b86604051610e19929190611bec565b60405180910390a382341115610e6157336108fc610e378534611c3d565b6040518115909202916000818181858888f19350505050158015610e5f573d6000803e3d6000fd5b505b505050505050505050565b610e746113ec565b610e7e600061150e565b565b610e886113ec565b600591909155600655565b60006001610ea083611583565b101592915050565b80516020820120600090610ebb83610e93565b8015610f5557506001546040517f96e494e80000000000000000000000000000000000000000000000000000000081526004810183905273ffffffffffffffffffffffffffffffffffffffff909116906396e494e890602401602060405180830381865afa158015610f31573d6000803e3d6000fd5b505050506040513d601f19601f82011682018060405250810190610f559190611b94565b9392505050565b610f646113ec565b6040517fe59d895d0000000000000000000000000000000000000000000000000000000081527f739305fdceb24221237c3dea9f36a6fcc8dc81b45730358192886e151053273960048201527f018fac0600000000000000000000000000000000000000000000000000000000602482015230604482015273ffffffffffffffffffffffffffffffffffffffff82169063e59d895d90606401600060405180830381600087803b15801561101757600080fd5b505af115801561102b573d6000803e3d6000fd5b5050505050565b600654600082815260076020526040902054429161104f91611c54565b1061105957600080fd5b6000908152600760205260409020429055565b6110746113ec565b73ffffffffffffffffffffffffffffffffffffffff811661111c576040517f08c379a000000000000000000000000000000000000000000000000000000000815260206004820152602660248201527f4f776e61626c653a206e6577206f776e657220697320746865207a65726f206160448201527f646472657373000000000000000000000000000000000000000000000000000060648201526084015b60405180910390fd5b6106d78161150e565b61116884848080601f0160208091040260200160405190810160405280939291908181526020018383808284376000920182905250879350869250905080610896565b50505050565b600061117e8484846000806106da565b949350505050565b6002546040517ffe2c619800000000000000000000000000000000000000000000000000000000815260009173ffffffffffffffffffffffffffffffffffffffff169063fe2c6198906111dd908590600401611b81565b602060405180830381865afa1580156111fa573d6000803e3d6000fd5b505050506040513d601f19601f820116820180604052508101906104c69190611bd3565b805160009081906004811115611238575060009392505050565b600091505b8082101561069957600084838151811061125957611259611c6c565b01602001517fff000000000000000000000000000000000000000000000000000000000000001690507f30000000000000000000000000000000000000000000000000000000000000008110806112f157507f39000000000000000000000000000000000000000000000000000000000000007fff000000000000000000000000000000000000000000000000000000000000008216115b1561130157506000949350505050565b508161130c81611c9b565b92505061123d565b6040517f65746800000000000000000000000000000000000000000000000000000000006020820152600090819060230160405160208183030381529060405280519060200120604051602001611375929190918252602082015260400190565b604051602081830303815290604052805190602001209050808260405160200161139f9190611cd3565b604051602081830303815290604052805190602001206040516020016113cf929190918252602082015260400190565b604051602081830303815290604052805190602001209050919050565b60005473ffffffffffffffffffffffffffffffffffffffff163314610e7e576040517f08c379a000000000000000000000000000000000000000000000000000000000815260206004820181905260248201527f4f776e61626c653a2063616c6c6572206973206e6f7420746865206f776e65726044820152606401611113565b6005546000828152600760205260408120549091429161148d9190611c54565b111561149857600080fd5b60065460008381526007602052604090205442916114b591611c54565b116114bf57600080fd5b6114c883610ea8565b6114d157600080fd5b6114db83336104cc565b156114e557600080fd5b60008281526007602052604081208190556114ff84611186565b905080341015610f5557600080fd5b6000805473ffffffffffffffffffffffffffffffffffffffff8381167fffffffffffffffffffffffff0000000000000000000000000000000000000000831681178455604051919092169283917f8be0079c531659141344cd1fd0a4f28419497f9722a3daafe3b4186f6b6457e09190a35050565b8051600090819081905b808210156117815760008583815181106115a9576115a9611c6c565b01602001517fff000000000000000000000000000000000000000000000000000000000000001690507f800000000000000000000000000000000000000000000000000000000000000081101561160c57611605600184611c54565b925061176e565b7fe0000000000000000000000000000000000000000000000000000000000000007fff000000000000000000000000000000000000000000000000000000000000008216101561166157611605600284611c54565b7ff0000000000000000000000000000000000000000000000000000000000000007fff00000000000000000000000000000000000000000000000000000000000000821610156116b657611605600384611c54565b7ff8000000000000000000000000000000000000000000000000000000000000007fff000000000000000000000000000000000000000000000000000000000000008216101561170b57611605600484611c54565b7ffc000000000000000000000000000000000000000000000000000000000000007fff000000000000000000000000000000000000000000000000000000000000008216101561176057611605600584611c54565b61176b600684611c54565b92505b508261177981611c9b565b93505061158d565b50909392505050565b60006020828403121561179c57600080fd5b81357fffffffff0000000000000000000000000000000000000000000000000000000081168114610f5557600080fd5b7f4e487b7100000000000000000000000000000000000000000000000000000000600052604160045260246000fd5b600082601f83011261180c57600080fd5b813567ffffffffffffffff80821115611827576118276117cc565b604051601f83017fffffffffffffffffffffffffffffffffffffffffffffffffffffffffffffffe0908116603f0116810190828211818310171561186d5761186d6117cc565b8160405283815286602085880101111561188657600080fd5b836020870160208301376000602085830101528094505050505092915050565b73ffffffffffffffffffffffffffffffffffffffff811681146106d757600080fd5b600080604083850312156118db57600080fd5b823567ffffffffffffffff8111156118f257600080fd5b6118fe858286016117fb565b925050602083013561190f816118a6565b809150509250929050565b600080600080600060a0868803121561193257600080fd5b853567ffffffffffffffff81111561194957600080fd5b611955888289016117fb565b9550506020860135611966816118a6565b935060408601359250606086013561197d816118a6565b9150608086013561198d816118a6565b809150509295509295909350565b6000602082840312156119ad57600080fd5b8135610f55816118a6565b600080604083850312156119cb57600080fd5b50508035926020909101359150565b6000602082840312156119ec57600080fd5b5035919050565b600060208284031215611a0557600080fd5b813567ffffffffffffffff811115611a1c57600080fd5b61117e848285016117fb565b60008060008060608587031215611a3e57600080fd5b843567ffffffffffffffff80821115611a5657600080fd5b818701915087601f830112611a6a57600080fd5b813581811115611a7957600080fd5b886020828501011115611a8b57600080fd5b60209283019650945050850135611aa1816118a6565b9396929550929360400135925050565b600080600060608486031215611ac657600080fd5b833567ffffffffffffffff811115611add57600080fd5b611ae9868287016117fb565b9350506020840135611afa816118a6565b929592945050506040919091013590565b60005b83811015611b26578181015183820152602001611b0e565b838111156111685750506000910152565b60008151808452611b4f816020860160208601611b0b565b601f017fffffffffffffffffffffffffffffffffffffffffffffffffffffffffffffffe0169290920160200192915050565b602081526000610f556020830184611b37565b600060208284031215611ba657600080fd5b81518015158114610f5557600080fd5b600060208284031215611bc857600080fd5b8151610f55816118a6565b600060208284031215611be557600080fd5b5051919050565b604081526000611bff6040830185611b37565b90508260208301529392505050565b7f4e487b7100000000000000000000000000000000000000000000000000000000600052601160045260246000fd5b600082821015611c4f57611c4f611c0e565b500390565b60008219821115611c6757611c67611c0e565b500190565b7f4e487b7100000000000000000000000000000000000000000000000000000000600052603260045260246000fd5b60007fffffffffffffffffffffffffffffffffffffffffffffffffffffffffffffffff8203611ccc57611ccc611c0e565b5060010190565b60008251611ce5818460208701611b0b565b919091019291505056fea264697066735822122021b86a06415e02d5c142094a289db7cf04388cb7db011c57eefb2b0f49eb6bbe64736f6c634300080d0033",
  "devdoc": {
    "details": "A registrar controller for registering names at fixed cost.",
    "kind": "dev",
    "methods": {
      "owner()": {
        "details": "Returns the address of the current owner."
      },
      "renounceOwnership()": {
        "details": "Leaves the contract without owner. It will not be possible to call `onlyOwner` functions anymore. Can only be called by the current owner. NOTE: Renouncing ownership will leave the contract without an owner, thereby removing any functionality that is only available to the owner."
      },
      "transferOwnership(address)": {
        "details": "Transfers ownership of the contract to a new account (`newOwner`). Can only be called by the current owner."
      }
    },
    "version": 1
  },
  "userdoc": {
    "kind": "user",
    "methods": {},
    "version": 1
  },
  "storageLayout": {
    "storage": [
      {
        "astId": 545,
        "contract": "contracts/ethregistrar/NNSRegistrarControllerWithReservation.sol:NNSRegistrarControllerWithReservation",
        "label": "_owner",
        "offset": 0,
        "slot": "0",
        "type": "t_address"
      },
      {
        "astId": 10177,
        "contract": "contracts/ethregistrar/NNSRegistrarControllerWithReservation.sol:NNSRegistrarControllerWithReservation",
        "label": "base",
        "offset": 0,
        "slot": "1",
        "type": "t_contract(BaseRegistrarImplementation)9925"
      },
      {
        "astId": 10180,
        "contract": "contracts/ethregistrar/NNSRegistrarControllerWithReservation.sol:NNSRegistrarControllerWithReservation",
        "label": "prices",
        "offset": 0,
        "slot": "2",
        "type": "t_contract(IPriceOracle)10107"
      },
      {
        "astId": 10183,
        "contract": "contracts/ethregistrar/NNSRegistrarControllerWithReservation.sol:NNSRegistrarControllerWithReservation",
        "label": "ethENS",
        "offset": 0,
        "slot": "3",
        "type": "t_contract(ENS)11792"
      },
      {
        "astId": 10186,
        "contract": "contracts/ethregistrar/NNSRegistrarControllerWithReservation.sol:NNSRegistrarControllerWithReservation",
        "label": "namedReservations",
        "offset": 0,
        "slot": "4",
        "type": "t_contract(NamedReservations)11037"
      },
      {
        "astId": 10188,
        "contract": "contracts/ethregistrar/NNSRegistrarControllerWithReservation.sol:NNSRegistrarControllerWithReservation",
        "label": "minCommitmentAge",
        "offset": 0,
        "slot": "5",
        "type": "t_uint256"
      },
      {
        "astId": 10190,
        "contract": "contracts/ethregistrar/NNSRegistrarControllerWithReservation.sol:NNSRegistrarControllerWithReservation",
        "label": "maxCommitmentAge",
        "offset": 0,
        "slot": "6",
        "type": "t_uint256"
      },
      {
        "astId": 10194,
        "contract": "contracts/ethregistrar/NNSRegistrarControllerWithReservation.sol:NNSRegistrarControllerWithReservation",
        "label": "commitments",
        "offset": 0,
        "slot": "7",
        "type": "t_mapping(t_bytes32,t_uint256)"
      }
    ],
    "types": {
      "t_address": {
        "encoding": "inplace",
        "label": "address",
        "numberOfBytes": "20"
      },
      "t_bytes32": {
        "encoding": "inplace",
        "label": "bytes32",
        "numberOfBytes": "32"
      },
      "t_contract(BaseRegistrarImplementation)9925": {
        "encoding": "inplace",
        "label": "contract BaseRegistrarImplementation",
        "numberOfBytes": "20"
      },
      "t_contract(ENS)11792": {
        "encoding": "inplace",
        "label": "contract ENS",
        "numberOfBytes": "20"
      },
      "t_contract(IPriceOracle)10107": {
        "encoding": "inplace",
        "label": "contract IPriceOracle",
        "numberOfBytes": "20"
      },
      "t_contract(NamedReservations)11037": {
        "encoding": "inplace",
        "label": "contract NamedReservations",
        "numberOfBytes": "20"
      },
      "t_mapping(t_bytes32,t_uint256)": {
        "encoding": "mapping",
        "key": "t_bytes32",
        "label": "mapping(bytes32 => uint256)",
        "numberOfBytes": "32",
        "value": "t_uint256"
      },
      "t_uint256": {
        "encoding": "inplace",
        "label": "uint256",
        "numberOfBytes": "32"
      }
    }
  }
}