{
  "address": "0xF4fA6B89B4C1677d07b530cec1D505D19167eC48",
  "abi": [
    {
      "inputs": [
        {
          "internalType": "contract AggregatorInterface",
          "name": "_usdOracle",
          "type": "address"
        },
        {
          "internalType": "uint256[]",
          "name": "_rentPrices",
          "type": "uint256[]"
        }
      ],
      "stateMutability": "nonpayable",
      "type": "constructor"
    },
    {
      "anonymous": false,
      "inputs": [
        {
          "indexed": false,
          "internalType": "uint256[]",
          "name": "prices",
          "type": "uint256[]"
        }
      ],
      "name": "RentPriceChanged",
      "type": "event"
    },
    {
      "inputs": [
        {
          "internalType": "string",
          "name": "name",
          "type": "string"
        }
      ],
      "name": "premium",
      "outputs": [
        {
          "internalType": "uint256",
          "name": "",
          "type": "uint256"
        }
      ],
      "stateMutability": "view",
      "type": "function"
    },
    {
      "inputs": [
        {
          "internalType": "string",
          "name": "name",
          "type": "string"
        }
      ],
      "name": "price",
      "outputs": [
        {
          "internalType": "uint256",
          "name": "",
          "type": "uint256"
        }
      ],
      "stateMutability": "view",
      "type": "function"
    },
    {
      "inputs": [],
      "name": "price1Letter",
      "outputs": [
        {
          "internalType": "uint256",
          "name": "",
          "type": "uint256"
        }
      ],
      "stateMutability": "view",
      "type": "function"
    },
    {
      "inputs": [],
      "name": "price2Letter",
      "outputs": [
        {
          "internalType": "uint256",
          "name": "",
          "type": "uint256"
        }
      ],
      "stateMutability": "view",
      "type": "function"
    },
    {
      "inputs": [],
      "name": "price3Letter",
      "outputs": [
        {
          "internalType": "uint256",
          "name": "",
          "type": "uint256"
        }
      ],
      "stateMutability": "view",
      "type": "function"
    },
    {
      "inputs": [],
      "name": "price4Letter",
      "outputs": [
        {
          "internalType": "uint256",
          "name": "",
          "type": "uint256"
        }
      ],
      "stateMutability": "view",
      "type": "function"
    },
    {
      "inputs": [],
      "name": "price5Letter",
      "outputs": [
        {
          "internalType": "uint256",
          "name": "",
          "type": "uint256"
        }
      ],
      "stateMutability": "view",
      "type": "function"
    },
    {
      "inputs": [
        {
          "internalType": "bytes4",
          "name": "interfaceID",
          "type": "bytes4"
        }
      ],
      "name": "supportsInterface",
      "outputs": [
        {
          "internalType": "bool",
          "name": "",
          "type": "bool"
        }
      ],
      "stateMutability": "view",
      "type": "function"
    },
    {
      "inputs": [],
      "name": "usdOracle",
      "outputs": [
        {
          "internalType": "contract AggregatorInterface",
          "name": "",
          "type": "address"
        }
      ],
      "stateMutability": "view",
      "type": "function"
    }
  ],
  "transactionHash": "0x57e47c9d1774a35f58684f43767c92286ecaaa7dc5372fcf7b65c9b2b3e7b565",
  "args": [
    "0x5f4ec3df9cbd43714fe2740f5e3616155c5b8419",
    [
      "1000000000000000000000",
      "500000000000000000000",
      "250000000000000000000",
      "100000000000000000000",
      "100000000000000000000"
    ]
  ],
  "numDeployments": 1,
  "solcInputHash": "d1e7b115564b0e977220c78df49e4073",
  "bytecode": "0x6101406040523480156200001257600080fd5b5060405162000bf938038062000bf983398101604081905262000035916200011b565b6001600160a01b038216610120528051819060009062000059576200005962000208565b602002602001015160808181525050806001815181106200007e576200007e62000208565b602002602001015160a0818152505080600281518110620000a357620000a362000208565b602002602001015160c0818152505080600381518110620000c857620000c862000208565b602002602001015160e0818152505080600481518110620000ed57620000ed62000208565b6020026020010151610100818152505050506200021e565b634e487b7160e01b600052604160045260246000fd5b600080604083850312156200012f57600080fd5b82516001600160a01b03811681146200014757600080fd5b602084810151919350906001600160401b03808211156200016757600080fd5b818601915086601f8301126200017c57600080fd5b81518181111562000191576200019162000105565b8060051b604051601f19603f83011681018181108582111715620001b957620001b962000105565b604052918252848201925083810185019189831115620001d857600080fd5b938501935b82851015620001f857845184529385019392850192620001dd565b8096505050505050509250929050565b634e487b7160e01b600052603260045260246000fd5b60805160a05160c05160e0516101005161012051610962620002976000396000818161016b015261048a01526000818161010a015261034d0152600081816101de015261037c01526000818161014401526103ab0152600081816101b701526103da01526000818160d5015261040101526109626000f3fe608060405234801561001057600080fd5b50600436106100a35760003560e01c8063a200e15311610076578063cd5d2c741161005b578063cd5d2c74146101b2578063d820ed42146101d9578063fe2c61981461020057600080fd5b8063a200e1531461013f578063c8a4271f1461016657600080fd5b806301ffc9a7146100a85780632c0fd74c146100d057806359b6b86c146101055780638fb006881461012c575b600080fd5b6100bb6100b6366004610739565b610213565b60405190151581526020015b60405180910390f35b6100f77f000000000000000000000000000000000000000000000000000000000000000081565b6040519081526020016100c7565b6100f77f000000000000000000000000000000000000000000000000000000000000000081565b6100f761013a36600461077b565b6102ac565b6100f77f000000000000000000000000000000000000000000000000000000000000000081565b61018d7f000000000000000000000000000000000000000000000000000000000000000081565b60405173ffffffffffffffffffffffffffffffffffffffff90911681526020016100c7565b6100f77f000000000000000000000000000000000000000000000000000000000000000081565b6100f77f000000000000000000000000000000000000000000000000000000000000000081565b6100f761020e36600461077b565b6102fc565b60007fffffffff0000000000000000000000000000000000000000000000000000000082167f01ffc9a70000000000000000000000000000000000000000000000000000000014806102a657507fffffffff0000000000000000000000000000000000000000000000000000000082167ffe2c619800000000000000000000000000000000000000000000000000000000145b92915050565b60006102f56102f084848080601f01602080910402602001604051908101604052809392919081815260200183838082843760009201919091525061047f92505050565b610485565b9392505050565b60008061033e84848080601f01602080910402602001604051908101604052809392919081815260200183838082843760009201919091525061053292505050565b905060006005821061037157507f0000000000000000000000000000000000000000000000000000000000000000610421565b816004036103a057507f0000000000000000000000000000000000000000000000000000000000000000610421565b816003036103cf57507f0000000000000000000000000000000000000000000000000000000000000000610421565b816002036103fe57507f0000000000000000000000000000000000000000000000000000000000000000610421565b507f00000000000000000000000000000000000000000000000000000000000000005b6104636102f086868080601f01602080910402602001604051908101604052809392919081815260200183838082843760009201919091525061047f92505050565b61046c82610485565b610476919061081c565b95945050505050565b50600090565b6000807f000000000000000000000000000000000000000000000000000000000000000073ffffffffffffffffffffffffffffffffffffffff166350d25bcd6040518163ffffffff1660e01b8152600401602060405180830381865afa1580156104f3573d6000803e3d6000fd5b505050506040513d601f19601f820116820180604052508101906105179190610834565b905080610528846305f5e10061084d565b6102f5919061088a565b8051600090819081905b80821015610730576000858381518110610558576105586108c5565b01602001517fff000000000000000000000000000000000000000000000000000000000000001690507f80000000000000000000000000000000000000000000000000000000000000008110156105bb576105b460018461081c565b925061071d565b7fe0000000000000000000000000000000000000000000000000000000000000007fff0000000000000000000000000000000000000000000000000000000000000082161015610610576105b460028461081c565b7ff0000000000000000000000000000000000000000000000000000000000000007fff0000000000000000000000000000000000000000000000000000000000000082161015610665576105b460038461081c565b7ff8000000000000000000000000000000000000000000000000000000000000007fff00000000000000000000000000000000000000000000000000000000000000821610156106ba576105b460048461081c565b7ffc000000000000000000000000000000000000000000000000000000000000007fff000000000000000000000000000000000000000000000000000000000000008216101561070f576105b460058461081c565b61071a60068461081c565b92505b5082610728816108f4565b93505061053c565b50909392505050565b60006020828403121561074b57600080fd5b81357fffffffff00000000000000000000000000000000000000000000000000000000811681146102f557600080fd5b6000806020838503121561078e57600080fd5b823567ffffffffffffffff808211156107a657600080fd5b818501915085601f8301126107ba57600080fd5b8135818111156107c957600080fd5b8660208285010111156107db57600080fd5b60209290920196919550909350505050565b7f4e487b7100000000000000000000000000000000000000000000000000000000600052601160045260246000fd5b6000821982111561082f5761082f6107ed565b500190565b60006020828403121561084657600080fd5b5051919050565b6000817fffffffffffffffffffffffffffffffffffffffffffffffffffffffffffffffff0483118215151615610885576108856107ed565b500290565b6000826108c0577f4e487b7100000000000000000000000000000000000000000000000000000000600052601260045260246000fd5b500490565b7f4e487b7100000000000000000000000000000000000000000000000000000000600052603260045260246000fd5b60007fffffffffffffffffffffffffffffffffffffffffffffffffffffffffffffffff8203610925576109256107ed565b506001019056fea2646970667358221220b47ed0d3ec28cb427b946672142faf8769d735dd12332ddcec62542f5600556a64736f6c634300080d0033",
  "devdoc": {
    "kind": "dev",
    "methods": {
      "premium(string)": {
        "details": "Returns the pricing premium in wei."
      },
      "price(string)": {
        "details": "Returns the price to register a name.",
        "params": {
          "name": "The name being registered."
        },
        "returns": {
          "_0": "The price of this registration, in wei."
        }
      }
    },
    "version": 1
  },
  "userdoc": {
    "kind": "user",
    "methods": {},
    "version": 1
  },
  "storageLayout": {
    "storage": [],
    "types": null
  }
}