{
  "address": "0x286c558D4e2e38bB44548e015D656A9081950Fa4",
  "abi": [
    {
      "anonymous": false,
      "inputs": [
        {
          "indexed": true,
          "internalType": "address",
          "name": "previousOwner",
          "type": "address"
        },
        {
          "indexed": true,
          "internalType": "address",
          "name": "newOwner",
          "type": "address"
        }
      ],
      "name": "OwnershipTransferred",
      "type": "event"
    },
    {
      "inputs": [],
      "name": "owner",
      "outputs": [
        {
          "internalType": "address",
          "name": "",
          "type": "address"
        }
      ],
      "stateMutability": "view",
      "type": "function"
    },
    {
      "inputs": [],
      "name": "renounceOwnership",
      "outputs": [],
      "stateMutability": "nonpayable",
      "type": "function"
    },
    {
      "inputs": [
        {
          "internalType": "string",
          "name": "name",
          "type": "string"
        }
      ],
      "name": "reserveName",
      "outputs": [],
      "stateMutability": "nonpayable",
      "type": "function"
    },
    {
      "inputs": [
        {
          "internalType": "string",
          "name": "name",
          "type": "string"
        }
      ],
      "name": "reserved",
      "outputs": [
        {
          "internalType": "bool",
          "name": "",
          "type": "bool"
        }
      ],
      "stateMutability": "view",
      "type": "function"
    },
    {
      "inputs": [
        {
          "internalType": "uint256",
          "name": "",
          "type": "uint256"
        }
      ],
      "name": "reservedTokens",
      "outputs": [
        {
          "internalType": "bool",
          "name": "",
          "type": "bool"
        }
      ],
      "stateMutability": "view",
      "type": "function"
    },
    {
      "inputs": [
        {
          "internalType": "address",
          "name": "newOwner",
          "type": "address"
        }
      ],
      "name": "transferOwnership",
      "outputs": [],
      "stateMutability": "nonpayable",
      "type": "function"
    },
    {
      "inputs": [
        {
          "internalType": "string",
          "name": "name",
          "type": "string"
        }
      ],
      "name": "unreserveName",
      "outputs": [],
      "stateMutability": "nonpayable",
      "type": "function"
    }
  ],
  "transactionHash": "0xf14bcfcdb67946148dbe0a3436d7798a1bf809cb070f21ee1b1eb8aa146f0d93",
  "args": [],
  "numDeployments": 1,
  "solcInputHash": "d1e7b115564b0e977220c78df49e4073",
  "bytecode": "0x608060405234801561001057600080fd5b5061001a3361001f565b61006f565b600080546001600160a01b038381166001600160a01b0319831681178455604051919092169283917f8be0079c531659141344cd1fd0a4f28419497f9722a3daafe3b4186f6b6457e09190a35050565b6105478061007e6000396000f3fe608060405234801561001057600080fd5b506004361061007d5760003560e01c80638da5cb5b1161005b5780638da5cb5b146100d7578063ca18b9e2146100ff578063e1aab70614610112578063f2fde38b1461012557600080fd5b806303a6118c146100825780631a421136146100ba578063715018a6146100cd575b600080fd5b6100a56100903660046103bd565b60016020526000908152604090205460ff1681565b60405190151581526020015b60405180910390f35b6100a56100c8366004610405565b610138565b6100d5610167565b005b60005460405173ffffffffffffffffffffffffffffffffffffffff90911681526020016100b1565b6100d561010d366004610405565b61017b565b6100d5610120366004610405565b6101c5565b6100d56101333660046104d4565b61020b565b60006001600061014d84805160209091012090565b815260208101919091526040016000205460ff1692915050565b61016f6102c7565b6101796000610348565b565b6101836102c7565b805160209182012060009081526001918290526040902080547fffffffffffffffffffffffffffffffffffffffffffffffffffffffffffffff00169091179055565b6101cd6102c7565b8051602091820120600090815260019091526040902080547fffffffffffffffffffffffffffffffffffffffffffffffffffffffffffffff00169055565b6102136102c7565b73ffffffffffffffffffffffffffffffffffffffff81166102bb576040517f08c379a000000000000000000000000000000000000000000000000000000000815260206004820152602660248201527f4f776e61626c653a206e6577206f776e657220697320746865207a65726f206160448201527f646472657373000000000000000000000000000000000000000000000000000060648201526084015b60405180910390fd5b6102c481610348565b50565b60005473ffffffffffffffffffffffffffffffffffffffff163314610179576040517f08c379a000000000000000000000000000000000000000000000000000000000815260206004820181905260248201527f4f776e61626c653a2063616c6c6572206973206e6f7420746865206f776e657260448201526064016102b2565b6000805473ffffffffffffffffffffffffffffffffffffffff8381167fffffffffffffffffffffffff0000000000000000000000000000000000000000831681178455604051919092169283917f8be0079c531659141344cd1fd0a4f28419497f9722a3daafe3b4186f6b6457e09190a35050565b6000602082840312156103cf57600080fd5b5035919050565b7f4e487b7100000000000000000000000000000000000000000000000000000000600052604160045260246000fd5b60006020828403121561041757600080fd5b813567ffffffffffffffff8082111561042f57600080fd5b818401915084601f83011261044357600080fd5b813581811115610455576104556103d6565b604051601f82017fffffffffffffffffffffffffffffffffffffffffffffffffffffffffffffffe0908116603f0116810190838211818310171561049b5761049b6103d6565b816040528281528760208487010111156104b457600080fd5b826020860160208301376000928101602001929092525095945050505050565b6000602082840312156104e657600080fd5b813573ffffffffffffffffffffffffffffffffffffffff8116811461050a57600080fd5b939250505056fea2646970667358221220223ef73f228ed8782c4fd6cb0b977dcffc851c6aff53684ec30da434a2c4eae664736f6c634300080d0033",
  "devdoc": {
    "kind": "dev",
    "methods": {
      "owner()": {
        "details": "Returns the address of the current owner."
      },
      "renounceOwnership()": {
        "details": "Leaves the contract without owner. It will not be possible to call `onlyOwner` functions anymore. Can only be called by the current owner. NOTE: Renouncing ownership will leave the contract without an owner, thereby removing any functionality that is only available to the owner."
      },
      "transferOwnership(address)": {
        "details": "Transfers ownership of the contract to a new account (`newOwner`). Can only be called by the current owner."
      }
    },
    "version": 1
  },
  "userdoc": {
    "kind": "user",
    "methods": {},
    "version": 1
  },
  "storageLayout": {
    "storage": [
      {
        "astId": 545,
        "contract": "contracts/ethregistrar/NamedReservations.sol:NamedReservations",
        "label": "_owner",
        "offset": 0,
        "slot": "0",
        "type": "t_address"
      },
      {
        "astId": 10960,
        "contract": "contracts/ethregistrar/NamedReservations.sol:NamedReservations",
        "label": "reservedTokens",
        "offset": 0,
        "slot": "1",
        "type": "t_mapping(t_uint256,t_bool)"
      }
    ],
    "types": {
      "t_address": {
        "encoding": "inplace",
        "label": "address",
        "numberOfBytes": "20"
      },
      "t_bool": {
        "encoding": "inplace",
        "label": "bool",
        "numberOfBytes": "1"
      },
      "t_mapping(t_uint256,t_bool)": {
        "encoding": "mapping",
        "key": "t_uint256",
        "label": "mapping(uint256 => bool)",
        "numberOfBytes": "32",
        "value": "t_bool"
      },
      "t_uint256": {
        "encoding": "inplace",
        "label": "uint256",
        "numberOfBytes": "32"
      }
    }
  }
}