{
  "contracts/pricing/USDPricingOracle.sol": {
    "USDPricingOracle": {
      "abi": [
        {
          "inputs": [
            {
              "internalType": "uint256[]",
              "name": "prices",
              "type": "uint256[]"
            },
            {
              "internalType": "contract IAggregator",
              "name": "aggregator",
              "type": "address"
            }
          ],
          "stateMutability": "nonpayable",
          "type": "constructor"
        },
        {
          "inputs": [
            {
              "internalType": "string",
              "name": "name",
              "type": "string"
            }
          ],
          "name": "price",
          "outputs": [
            {
              "internalType": "uint256",
              "name": "",
              "type": "uint256"
            }
          ],
          "stateMutability": "view",
          "type": "function"
        }
      ],
      "evm": {
        "bytecode": {
          "linkReferences": {},
          "object": "60806040523480156200001157600080fd5b5060405162000b8938038062000b89833981810160405281019062000037919062000347565b81600090805190602001906200004f92919062000099565b5080600160006101000a81548173ffffffffffffffffffffffffffffffffffffffff021916908373ffffffffffffffffffffffffffffffffffffffff1602179055505050620003ad565b828054828255906000526020600020908101928215620000d8579160200282015b82811115620000d7578251825591602001919060010190620000ba565b5b509050620000e79190620000eb565b5090565b5b8082111562000106576000816000905550600101620000ec565b5090565b6000604051905090565b600080fd5b600080fd5b600080fd5b6000601f19601f8301169050919050565b7f4e487b7100000000000000000000000000000000000000000000000000000000600052604160045260246000fd5b6200016e8262000123565b810181811067ffffffffffffffff8211171562000190576200018f62000134565b5b80604052505050565b6000620001a56200010a565b9050620001b3828262000163565b919050565b600067ffffffffffffffff821115620001d657620001d562000134565b5b602082029050602081019050919050565b600080fd5b6000819050919050565b6200020181620001ec565b81146200020d57600080fd5b50565b6000815190506200022181620001f6565b92915050565b60006200023e6200023884620001b8565b62000199565b90508083825260208201905060208402830185811115620002645762000263620001e7565b5b835b818110156200029157806200027c888262000210565b84526020840193505060208101905062000266565b5050509392505050565b600082601f830112620002b357620002b26200011e565b5b8151620002c584826020860162000227565b91505092915050565b600073ffffffffffffffffffffffffffffffffffffffff82169050919050565b6000620002fb82620002ce565b9050919050565b60006200030f82620002ee565b9050919050565b620003218162000302565b81146200032d57600080fd5b50565b600081519050620003418162000316565b92915050565b6000806040838503121562000361576200036062000114565b5b600083015167ffffffffffffffff81111562000382576200038162000119565b5b62000390858286016200029b565b9250506020620003a38582860162000330565b9150509250929050565b6107cc80620003bd6000396000f3fe608060405234801561001057600080fd5b506004361061002b5760003560e01c8063fe2c619814610030575b600080fd5b61004a600480360381019061004591906102a9565b610060565b604051610057919061030f565b60405180910390f35b6000806001848490506100739190610359565b905060008054905081106100965760016000805490506100939190610359565b90505b6000600160009054906101000a900473ffffffffffffffffffffffffffffffffffffffff1673ffffffffffffffffffffffffffffffffffffffff1663313ce5676040518163ffffffff1660e01b8152600401602060405180830381865afa158015610105573d6000803e3d6000fd5b505050506040513d601f19601f8201168201806040525081019061012991906103c6565b90506000600160009054906101000a900473ffffffffffffffffffffffffffffffffffffffff1673ffffffffffffffffffffffffffffffffffffffff1663feaf968c6040518163ffffffff1660e01b815260040160a060405180830381865afa15801561019a573d6000803e3d6000fd5b505050506040513d601f19601f820116820180604052508101906101be9190610497565b50505091505060008260126101d39190610512565b600a6101df919061067a565b826101ea91906106c5565b9050600080858154811061020157610200610707565b5b9060005260206000200154905081670de0b6b3a76400008261022391906106c5565b61022d9190610765565b9550505050505092915050565b600080fd5b600080fd5b600080fd5b600080fd5b600080fd5b60008083601f84011261026957610268610244565b5b8235905067ffffffffffffffff81111561028657610285610249565b5b6020830191508360018202830111156102a2576102a161024e565b5b9250929050565b600080602083850312156102c0576102bf61023a565b5b600083013567ffffffffffffffff8111156102de576102dd61023f565b5b6102ea85828601610253565b92509250509250929050565b6000819050919050565b610309816102f6565b82525050565b60006020820190506103246000830184610300565b92915050565b7f4e487b7100000000000000000000000000000000000000000000000000000000600052601160045260246000fd5b6000610364826102f6565b915061036f836102f6565b92508282039050818111156103875761038661032a565b5b92915050565b600060ff82169050919050565b6103a38161038d565b81146103ae57600080fd5b50565b6000815190506103c08161039a565b92915050565b6000602082840312156103dc576103db61023a565b5b60006103ea848285016103b1565b91505092915050565b600069ffffffffffffffffffff82169050919050565b610412816103f3565b811461041d57600080fd5b50565b60008151905061042f81610409565b92915050565b6000819050919050565b61044881610435565b811461045357600080fd5b50565b6000815190506104658161043f565b92915050565b610474816102f6565b811461047f57600080fd5b50565b6000815190506104918161046b565b92915050565b600080600080600060a086880312156104b3576104b261023a565b5b60006104c188828901610420565b95505060206104d288828901610456565b94505060406104e388828901610482565b93505060606104f488828901610482565b925050608061050588828901610420565b9150509295509295909350565b600061051d8261038d565b91506105288361038d565b9250828203905060ff8111156105415761054061032a565b5b92915050565b60008160011c9050919050565b6000808291508390505b600185111561059e5780860481111561057a5761057961032a565b5b60018516156105895780820291505b808102905061059785610547565b945061055e565b94509492505050565b6000826105b75760019050610673565b816105c55760009050610673565b81600181146105db57600281146105e557610614565b6001915050610673565b60ff8411156105f7576105f661032a565b5b8360020a91508482111561060e5761060d61032a565b5b50610673565b5060208310610133831016604e8410600b84101617156106495782820a9050838111156106445761064361032a565b5b610673565b6106568484846001610554565b9250905081840481111561066d5761066c61032a565b5b81810290505b9392505050565b6000610685826102f6565b91506106908361038d565b92506106bd7fffffffffffffffffffffffffffffffffffffffffffffffffffffffffffffffff84846105a7565b905092915050565b60006106d0826102f6565b91506106db836102f6565b92508282026106e9816102f6565b91508282048414831517610700576106ff61032a565b5b5092915050565b7f4e487b7100000000000000000000000000000000000000000000000000000000600052603260045260246000fd5b7f4e487b7100000000000000000000000000000000000000000000000000000000600052601260045260246000fd5b6000610770826102f6565b915061077b836102f6565b92508261078b5761078a610736565b5b82820490509291505056fea2646970667358221220f0f11a27b4f701e0a7d6ede9efeba4177f8dd1f23ed3b11f9c944c0e72ba5bcf64736f6c63430008180033",
          "opcodes": "PUSH1 0x80 PUSH1 0x40 MSTORE CALLVALUE DUP1 ISZERO PUSH3 0x11 JUMPI PUSH1 0x0 DUP1 REVERT JUMPDEST POP PUSH1 0x40 MLOAD PUSH3 0xB89 CODESIZE SUB DUP1 PUSH3 0xB89 DUP4 CODECOPY DUP2 DUP2 ADD PUSH1 0x40 MSTORE DUP2 ADD SWAP1 PUSH3 0x37 SWAP2 SWAP1 PUSH3 0x347 JUMP JUMPDEST DUP2 PUSH1 0x0 SWAP1 DUP1 MLOAD SWAP1 PUSH1 0x20 ADD SWAP1 PUSH3 0x4F SWAP3 SWAP2 SWAP1 PUSH3 0x99 JUMP JUMPDEST POP DUP1 PUSH1 0x1 PUSH1 0x0 PUSH2 0x100 EXP DUP2 SLOAD DUP2 PUSH20 0xFFFFFFFFFFFFFFFFFFFFFFFFFFFFFFFFFFFFFFFF MUL NOT AND SWAP1 DUP4 PUSH20 0xFFFFFFFFFFFFFFFFFFFFFFFFFFFFFFFFFFFFFFFF AND MUL OR SWAP1 SSTORE POP POP POP PUSH3 0x3AD JUMP JUMPDEST DUP3 DUP1 SLOAD DUP3 DUP3 SSTORE SWAP1 PUSH1 0x0 MSTORE PUSH1 0x20 PUSH1 0x0 KECCAK256 SWAP1 DUP2 ADD SWAP3 DUP3 ISZERO PUSH3 0xD8 JUMPI SWAP2 PUSH1 0x20 MUL DUP3 ADD JUMPDEST DUP3 DUP2 GT ISZERO PUSH3 0xD7 JUMPI DUP3 MLOAD DUP3 SSTORE SWAP2 PUSH1 0x20 ADD SWAP2 SWAP1 PUSH1 0x1 ADD SWAP1 PUSH3 0xBA JUMP JUMPDEST JUMPDEST POP SWAP1 POP PUSH3 0xE7 SWAP2 SWAP1 PUSH3 0xEB JUMP JUMPDEST POP SWAP1 JUMP JUMPDEST JUMPDEST DUP1 DUP3 GT ISZERO PUSH3 0x106 JUMPI PUSH1 0x0 DUP2 PUSH1 0x0 SWAP1 SSTORE POP PUSH1 0x1 ADD PUSH3 0xEC JUMP JUMPDEST POP SWAP1 JUMP JUMPDEST PUSH1 0x0 PUSH1 0x40 MLOAD SWAP1 POP SWAP1 JUMP JUMPDEST PUSH1 0x0 DUP1 REVERT JUMPDEST PUSH1 0x0 DUP1 REVERT JUMPDEST PUSH1 0x0 DUP1 REVERT JUMPDEST PUSH1 0x0 PUSH1 0x1F NOT PUSH1 0x1F DUP4 ADD AND SWAP1 POP SWAP2 SWAP1 POP JUMP JUMPDEST PUSH32 0x4E487B7100000000000000000000000000000000000000000000000000000000 PUSH1 0x0 MSTORE PUSH1 0x41 PUSH1 0x4 MSTORE PUSH1 0x24 PUSH1 0x0 REVERT JUMPDEST PUSH3 0x16E DUP3 PUSH3 0x123 JUMP JUMPDEST DUP2 ADD DUP2 DUP2 LT PUSH8 0xFFFFFFFFFFFFFFFF DUP3 GT OR ISZERO PUSH3 0x190 JUMPI PUSH3 0x18F PUSH3 0x134 JUMP JUMPDEST JUMPDEST DUP1 PUSH1 0x40 MSTORE POP POP POP JUMP JUMPDEST PUSH1 0x0 PUSH3 0x1A5 PUSH3 0x10A JUMP JUMPDEST SWAP1 POP PUSH3 0x1B3 DUP3 DUP3 PUSH3 0x163 JUMP JUMPDEST SWAP2 SWAP1 POP JUMP JUMPDEST PUSH1 0x0 PUSH8 0xFFFFFFFFFFFFFFFF DUP3 GT ISZERO PUSH3 0x1D6 JUMPI PUSH3 0x1D5 PUSH3 0x134 JUMP JUMPDEST JUMPDEST PUSH1 0x20 DUP3 MUL SWAP1 POP PUSH1 0x20 DUP2 ADD SWAP1 POP SWAP2 SWAP1 POP JUMP JUMPDEST PUSH1 0x0 DUP1 REVERT JUMPDEST PUSH1 0x0 DUP2 SWAP1 POP SWAP2 SWAP1 POP JUMP JUMPDEST PUSH3 0x201 DUP2 PUSH3 0x1EC JUMP JUMPDEST DUP2 EQ PUSH3 0x20D JUMPI PUSH1 0x0 DUP1 REVERT JUMPDEST POP JUMP JUMPDEST PUSH1 0x0 DUP2 MLOAD SWAP1 POP PUSH3 0x221 DUP2 PUSH3 0x1F6 JUMP JUMPDEST SWAP3 SWAP2 POP POP JUMP JUMPDEST PUSH1 0x0 PUSH3 0x23E PUSH3 0x238 DUP5 PUSH3 0x1B8 JUMP JUMPDEST PUSH3 0x199 JUMP JUMPDEST SWAP1 POP DUP1 DUP4 DUP3 MSTORE PUSH1 0x20 DUP3 ADD SWAP1 POP PUSH1 0x20 DUP5 MUL DUP4 ADD DUP6 DUP2 GT ISZERO PUSH3 0x264 JUMPI PUSH3 0x263 PUSH3 0x1E7 JUMP JUMPDEST JUMPDEST DUP4 JUMPDEST DUP2 DUP2 LT ISZERO PUSH3 0x291 JUMPI DUP1 PUSH3 0x27C DUP9 DUP3 PUSH3 0x210 JUMP JUMPDEST DUP5 MSTORE PUSH1 0x20 DUP5 ADD SWAP4 POP POP PUSH1 0x20 DUP2 ADD SWAP1 POP PUSH3 0x266 JUMP JUMPDEST POP POP POP SWAP4 SWAP3 POP POP POP JUMP JUMPDEST PUSH1 0x0 DUP3 PUSH1 0x1F DUP4 ADD SLT PUSH3 0x2B3 JUMPI PUSH3 0x2B2 PUSH3 0x11E JUMP JUMPDEST JUMPDEST DUP2 MLOAD PUSH3 0x2C5 DUP5 DUP3 PUSH1 0x20 DUP7 ADD PUSH3 0x227 JUMP JUMPDEST SWAP2 POP POP SWAP3 SWAP2 POP POP JUMP JUMPDEST PUSH1 0x0 PUSH20 0xFFFFFFFFFFFFFFFFFFFFFFFFFFFFFFFFFFFFFFFF DUP3 AND SWAP1 POP SWAP2 SWAP1 POP JUMP JUMPDEST PUSH1 0x0 PUSH3 0x2FB DUP3 PUSH3 0x2CE JUMP JUMPDEST SWAP1 POP SWAP2 SWAP1 POP JUMP JUMPDEST PUSH1 0x0 PUSH3 0x30F DUP3 PUSH3 0x2EE JUMP JUMPDEST SWAP1 POP SWAP2 SWAP1 POP JUMP JUMPDEST PUSH3 0x321 DUP2 PUSH3 0x302 JUMP JUMPDEST DUP2 EQ PUSH3 0x32D JUMPI PUSH1 0x0 DUP1 REVERT JUMPDEST POP JUMP JUMPDEST PUSH1 0x0 DUP2 MLOAD SWAP1 POP PUSH3 0x341 DUP2 PUSH3 0x316 JUMP JUMPDEST SWAP3 SWAP2 POP POP JUMP JUMPDEST PUSH1 0x0 DUP1 PUSH1 0x40 DUP4 DUP6 SUB SLT ISZERO PUSH3 0x361 JUMPI PUSH3 0x360 PUSH3 0x114 JUMP JUMPDEST JUMPDEST PUSH1 0x0 DUP4 ADD MLOAD PUSH8 0xFFFFFFFFFFFFFFFF DUP2 GT ISZERO PUSH3 0x382 JUMPI PUSH3 0x381 PUSH3 0x119 JUMP JUMPDEST JUMPDEST PUSH3 0x390 DUP6 DUP3 DUP7 ADD PUSH3 0x29B JUMP JUMPDEST SWAP3 POP POP PUSH1 0x20 PUSH3 0x3A3 DUP6 DUP3 DUP7 ADD PUSH3 0x330 JUMP JUMPDEST SWAP2 POP POP SWAP3 POP SWAP3 SWAP1 POP JUMP JUMPDEST PUSH2 0x7CC DUP1 PUSH3 0x3BD PUSH1 0x0 CODECOPY PUSH1 0x0 RETURN INVALID PUSH1 0x80 PUSH1 0x40 MSTORE CALLVALUE DUP1 ISZERO PUSH2 0x10 JUMPI PUSH1 0x0 DUP1 REVERT JUMPDEST POP PUSH1 0x4 CALLDATASIZE LT PUSH2 0x2B JUMPI PUSH1 0x0 CALLDATALOAD PUSH1 0xE0 SHR DUP1 PUSH4 0xFE2C6198 EQ PUSH2 0x30 JUMPI JUMPDEST PUSH1 0x0 DUP1 REVERT JUMPDEST PUSH2 0x4A PUSH1 0x4 DUP1 CALLDATASIZE SUB DUP2 ADD SWAP1 PUSH2 0x45 SWAP2 SWAP1 PUSH2 0x2A9 JUMP JUMPDEST PUSH2 0x60 JUMP JUMPDEST PUSH1 0x40 MLOAD PUSH2 0x57 SWAP2 SWAP1 PUSH2 0x30F JUMP JUMPDEST PUSH1 0x40 MLOAD DUP1 SWAP2 SUB SWAP1 RETURN JUMPDEST PUSH1 0x0 DUP1 PUSH1 0x1 DUP5 DUP5 SWAP1 POP PUSH2 0x73 SWAP2 SWAP1 PUSH2 0x359 JUMP JUMPDEST SWAP1 POP PUSH1 0x0 DUP1 SLOAD SWAP1 POP DUP2 LT PUSH2 0x96 JUMPI PUSH1 0x1 PUSH1 0x0 DUP1 SLOAD SWAP1 POP PUSH2 0x93 SWAP2 SWAP1 PUSH2 0x359 JUMP JUMPDEST SWAP1 POP JUMPDEST PUSH1 0x0 PUSH1 0x1 PUSH1 0x0 SWAP1 SLOAD SWAP1 PUSH2 0x100 EXP SWAP1 DIV PUSH20 0xFFFFFFFFFFFFFFFFFFFFFFFFFFFFFFFFFFFFFFFF AND PUSH20 0xFFFFFFFFFFFFFFFFFFFFFFFFFFFFFFFFFFFFFFFF AND PUSH4 0x313CE567 PUSH1 0x40 MLOAD DUP2 PUSH4 0xFFFFFFFF AND PUSH1 0xE0 SHL DUP2 MSTORE PUSH1 0x4 ADD PUSH1 0x20 PUSH1 0x40 MLOAD DUP1 DUP4 SUB DUP2 DUP7 GAS STATICCALL ISZERO DUP1 ISZERO PUSH2 0x105 JUMPI RETURNDATASIZE PUSH1 0x0 DUP1 RETURNDATACOPY RETURNDATASIZE PUSH1 0x0 REVERT JUMPDEST POP POP POP POP PUSH1 0x40 MLOAD RETURNDATASIZE PUSH1 0x1F NOT PUSH1 0x1F DUP3 ADD AND DUP3 ADD DUP1 PUSH1 0x40 MSTORE POP DUP2 ADD SWAP1 PUSH2 0x129 SWAP2 SWAP1 PUSH2 0x3C6 JUMP JUMPDEST SWAP1 POP PUSH1 0x0 PUSH1 0x1 PUSH1 0x0 SWAP1 SLOAD SWAP1 PUSH2 0x100 EXP SWAP1 DIV PUSH20 0xFFFFFFFFFFFFFFFFFFFFFFFFFFFFFFFFFFFFFFFF AND PUSH20 0xFFFFFFFFFFFFFFFFFFFFFFFFFFFFFFFFFFFFFFFF AND PUSH4 0xFEAF968C PUSH1 0x40 MLOAD DUP2 PUSH4 0xFFFFFFFF AND PUSH1 0xE0 SHL DUP2 MSTORE PUSH1 0x4 ADD PUSH1 0xA0 PUSH1 0x40 MLOAD DUP1 DUP4 SUB DUP2 DUP7 GAS STATICCALL ISZERO DUP1 ISZERO PUSH2 0x19A JUMPI RETURNDATASIZE PUSH1 0x0 DUP1 RETURNDATACOPY RETURNDATASIZE PUSH1 0x0 REVERT JUMPDEST POP POP POP POP PUSH1 0x40 MLOAD RETURNDATASIZE PUSH1 0x1F NOT PUSH1 0x1F DUP3 ADD AND DUP3 ADD DUP1 PUSH1 0x40 MSTORE POP DUP2 ADD SWAP1 PUSH2 0x1BE SWAP2 SWAP1 PUSH2 0x497 JUMP JUMPDEST POP POP POP SWAP2 POP POP PUSH1 0x0 DUP3 PUSH1 0x12 PUSH2 0x1D3 SWAP2 SWAP1 PUSH2 0x512 JUMP JUMPDEST PUSH1 0xA PUSH2 0x1DF SWAP2 SWAP1 PUSH2 0x67A JUMP JUMPDEST DUP3 PUSH2 0x1EA SWAP2 SWAP1 PUSH2 0x6C5 JUMP JUMPDEST SWAP1 POP PUSH1 0x0 DUP1 DUP6 DUP2 SLOAD DUP2 LT PUSH2 0x201 JUMPI PUSH2 0x200 PUSH2 0x707 JUMP JUMPDEST JUMPDEST SWAP1 PUSH1 0x0 MSTORE PUSH1 0x20 PUSH1 0x0 KECCAK256 ADD SLOAD SWAP1 POP DUP2 PUSH8 0xDE0B6B3A7640000 DUP3 PUSH2 0x223 SWAP2 SWAP1 PUSH2 0x6C5 JUMP JUMPDEST PUSH2 0x22D SWAP2 SWAP1 PUSH2 0x765 JUMP JUMPDEST SWAP6 POP POP POP POP POP POP SWAP3 SWAP2 POP POP JUMP JUMPDEST PUSH1 0x0 DUP1 REVERT JUMPDEST PUSH1 0x0 DUP1 REVERT JUMPDEST PUSH1 0x0 DUP1 REVERT JUMPDEST PUSH1 0x0 DUP1 REVERT JUMPDEST PUSH1 0x0 DUP1 REVERT JUMPDEST PUSH1 0x0 DUP1 DUP4 PUSH1 0x1F DUP5 ADD SLT PUSH2 0x269 JUMPI PUSH2 0x268 PUSH2 0x244 JUMP JUMPDEST JUMPDEST DUP3 CALLDATALOAD SWAP1 POP PUSH8 0xFFFFFFFFFFFFFFFF DUP2 GT ISZERO PUSH2 0x286 JUMPI PUSH2 0x285 PUSH2 0x249 JUMP JUMPDEST JUMPDEST PUSH1 0x20 DUP4 ADD SWAP2 POP DUP4 PUSH1 0x1 DUP3 MUL DUP4 ADD GT ISZERO PUSH2 0x2A2 JUMPI PUSH2 0x2A1 PUSH2 0x24E JUMP JUMPDEST JUMPDEST SWAP3 POP SWAP3 SWAP1 POP JUMP JUMPDEST PUSH1 0x0 DUP1 PUSH1 0x20 DUP4 DUP6 SUB SLT ISZERO PUSH2 0x2C0 JUMPI PUSH2 0x2BF PUSH2 0x23A JUMP JUMPDEST JUMPDEST PUSH1 0x0 DUP4 ADD CALLDATALOAD PUSH8 0xFFFFFFFFFFFFFFFF DUP2 GT ISZERO PUSH2 0x2DE JUMPI PUSH2 0x2DD PUSH2 0x23F JUMP JUMPDEST JUMPDEST PUSH2 0x2EA DUP6 DUP3 DUP7 ADD PUSH2 0x253 JUMP JUMPDEST SWAP3 POP SWAP3 POP POP SWAP3 POP SWAP3 SWAP1 POP JUMP JUMPDEST PUSH1 0x0 DUP2 SWAP1 POP SWAP2 SWAP1 POP JUMP JUMPDEST PUSH2 0x309 DUP2 PUSH2 0x2F6 JUMP JUMPDEST DUP3 MSTORE POP POP JUMP JUMPDEST PUSH1 0x0 PUSH1 0x20 DUP3 ADD SWAP1 POP PUSH2 0x324 PUSH1 0x0 DUP4 ADD DUP5 PUSH2 0x300 JUMP JUMPDEST SWAP3 SWAP2 POP POP JUMP JUMPDEST PUSH32 0x4E487B7100000000000000000000000000000000000000000000000000000000 PUSH1 0x0 MSTORE PUSH1 0x11 PUSH1 0x4 MSTORE PUSH1 0x24 PUSH1 0x0 REVERT JUMPDEST PUSH1 0x0 PUSH2 0x364 DUP3 PUSH2 0x2F6 JUMP JUMPDEST SWAP2 POP PUSH2 0x36F DUP4 PUSH2 0x2F6 JUMP JUMPDEST SWAP3 POP DUP3 DUP3 SUB SWAP1 POP DUP2 DUP2 GT ISZERO PUSH2 0x387 JUMPI PUSH2 0x386 PUSH2 0x32A JUMP JUMPDEST JUMPDEST SWAP3 SWAP2 POP POP JUMP JUMPDEST PUSH1 0x0 PUSH1 0xFF DUP3 AND SWAP1 POP SWAP2 SWAP1 POP JUMP JUMPDEST PUSH2 0x3A3 DUP2 PUSH2 0x38D JUMP JUMPDEST DUP2 EQ PUSH2 0x3AE JUMPI PUSH1 0x0 DUP1 REVERT JUMPDEST POP JUMP JUMPDEST PUSH1 0x0 DUP2 MLOAD SWAP1 POP PUSH2 0x3C0 DUP2 PUSH2 0x39A JUMP JUMPDEST SWAP3 SWAP2 POP POP JUMP JUMPDEST PUSH1 0x0 PUSH1 0x20 DUP3 DUP5 SUB SLT ISZERO PUSH2 0x3DC JUMPI PUSH2 0x3DB PUSH2 0x23A JUMP JUMPDEST JUMPDEST PUSH1 0x0 PUSH2 0x3EA DUP5 DUP3 DUP6 ADD PUSH2 0x3B1 JUMP JUMPDEST SWAP2 POP POP SWAP3 SWAP2 POP POP JUMP JUMPDEST PUSH1 0x0 PUSH10 0xFFFFFFFFFFFFFFFFFFFF DUP3 AND SWAP1 POP SWAP2 SWAP1 POP JUMP JUMPDEST PUSH2 0x412 DUP2 PUSH2 0x3F3 JUMP JUMPDEST DUP2 EQ PUSH2 0x41D JUMPI PUSH1 0x0 DUP1 REVERT JUMPDEST POP JUMP JUMPDEST PUSH1 0x0 DUP2 MLOAD SWAP1 POP PUSH2 0x42F DUP2 PUSH2 0x409 JUMP JUMPDEST SWAP3 SWAP2 POP POP JUMP JUMPDEST PUSH1 0x0 DUP2 SWAP1 POP SWAP2 SWAP1 POP JUMP JUMPDEST PUSH2 0x448 DUP2 PUSH2 0x435 JUMP JUMPDEST DUP2 EQ PUSH2 0x453 JUMPI PUSH1 0x0 DUP1 REVERT JUMPDEST POP JUMP JUMPDEST PUSH1 0x0 DUP2 MLOAD SWAP1 POP PUSH2 0x465 DUP2 PUSH2 0x43F JUMP JUMPDEST SWAP3 SWAP2 POP POP JUMP JUMPDEST PUSH2 0x474 DUP2 PUSH2 0x2F6 JUMP JUMPDEST DUP2 EQ PUSH2 0x47F JUMPI PUSH1 0x0 DUP1 REVERT JUMPDEST POP JUMP JUMPDEST PUSH1 0x0 DUP2 MLOAD SWAP1 POP PUSH2 0x491 DUP2 PUSH2 0x46B JUMP JUMPDEST SWAP3 SWAP2 POP POP JUMP JUMPDEST PUSH1 0x0 DUP1 PUSH1 0x0 DUP1 PUSH1 0x0 PUSH1 0xA0 DUP7 DUP9 SUB SLT ISZERO PUSH2 0x4B3 JUMPI PUSH2 0x4B2 PUSH2 0x23A JUMP JUMPDEST JUMPDEST PUSH1 0x0 PUSH2 0x4C1 DUP9 DUP3 DUP10 ADD PUSH2 0x420 JUMP JUMPDEST SWAP6 POP POP PUSH1 0x20 PUSH2 0x4D2 DUP9 DUP3 DUP10 ADD PUSH2 0x456 JUMP JUMPDEST SWAP5 POP POP PUSH1 0x40 PUSH2 0x4E3 DUP9 DUP3 DUP10 ADD PUSH2 0x482 JUMP JUMPDEST SWAP4 POP POP PUSH1 0x60 PUSH2 0x4F4 DUP9 DUP3 DUP10 ADD PUSH2 0x482 JUMP JUMPDEST SWAP3 POP POP PUSH1 0x80 PUSH2 0x505 DUP9 DUP3 DUP10 ADD PUSH2 0x420 JUMP JUMPDEST SWAP2 POP POP SWAP3 SWAP6 POP SWAP3 SWAP6 SWAP1 SWAP4 POP JUMP JUMPDEST PUSH1 0x0 PUSH2 0x51D DUP3 PUSH2 0x38D JUMP JUMPDEST SWAP2 POP PUSH2 0x528 DUP4 PUSH2 0x38D JUMP JUMPDEST SWAP3 POP DUP3 DUP3 SUB SWAP1 POP PUSH1 0xFF DUP2 GT ISZERO PUSH2 0x541 JUMPI PUSH2 0x540 PUSH2 0x32A JUMP JUMPDEST JUMPDEST SWAP3 SWAP2 POP POP JUMP JUMPDEST PUSH1 0x0 DUP2 PUSH1 0x1 SHR SWAP1 POP SWAP2 SWAP1 POP JUMP JUMPDEST PUSH1 0x0 DUP1 DUP3 SWAP2 POP DUP4 SWAP1 POP JUMPDEST PUSH1 0x1 DUP6 GT ISZERO PUSH2 0x59E JUMPI DUP1 DUP7 DIV DUP2 GT ISZERO PUSH2 0x57A JUMPI PUSH2 0x579 PUSH2 0x32A JUMP JUMPDEST JUMPDEST PUSH1 0x1 DUP6 AND ISZERO PUSH2 0x589 JUMPI DUP1 DUP3 MUL SWAP2 POP JUMPDEST DUP1 DUP2 MUL SWAP1 POP PUSH2 0x597 DUP6 PUSH2 0x547 JUMP JUMPDEST SWAP5 POP PUSH2 0x55E JUMP JUMPDEST SWAP5 POP SWAP5 SWAP3 POP POP POP JUMP JUMPDEST PUSH1 0x0 DUP3 PUSH2 0x5B7 JUMPI PUSH1 0x1 SWAP1 POP PUSH2 0x673 JUMP JUMPDEST DUP2 PUSH2 0x5C5 JUMPI PUSH1 0x0 SWAP1 POP PUSH2 0x673 JUMP JUMPDEST DUP2 PUSH1 0x1 DUP2 EQ PUSH2 0x5DB JUMPI PUSH1 0x2 DUP2 EQ PUSH2 0x5E5 JUMPI PUSH2 0x614 JUMP JUMPDEST PUSH1 0x1 SWAP2 POP POP PUSH2 0x673 JUMP JUMPDEST PUSH1 0xFF DUP5 GT ISZERO PUSH2 0x5F7 JUMPI PUSH2 0x5F6 PUSH2 0x32A JUMP JUMPDEST JUMPDEST DUP4 PUSH1 0x2 EXP SWAP2 POP DUP5 DUP3 GT ISZERO PUSH2 0x60E JUMPI PUSH2 0x60D PUSH2 0x32A JUMP JUMPDEST JUMPDEST POP PUSH2 0x673 JUMP JUMPDEST POP PUSH1 0x20 DUP4 LT PUSH2 0x133 DUP4 LT AND PUSH1 0x4E DUP5 LT PUSH1 0xB DUP5 LT AND OR ISZERO PUSH2 0x649 JUMPI DUP3 DUP3 EXP SWAP1 POP DUP4 DUP2 GT ISZERO PUSH2 0x644 JUMPI PUSH2 0x643 PUSH2 0x32A JUMP JUMPDEST JUMPDEST PUSH2 0x673 JUMP JUMPDEST PUSH2 0x656 DUP5 DUP5 DUP5 PUSH1 0x1 PUSH2 0x554 JUMP JUMPDEST SWAP3 POP SWAP1 POP DUP2 DUP5 DIV DUP2 GT ISZERO PUSH2 0x66D JUMPI PUSH2 0x66C PUSH2 0x32A JUMP JUMPDEST JUMPDEST DUP2 DUP2 MUL SWAP1 POP JUMPDEST SWAP4 SWAP3 POP POP POP JUMP JUMPDEST PUSH1 0x0 PUSH2 0x685 DUP3 PUSH2 0x2F6 JUMP JUMPDEST SWAP2 POP PUSH2 0x690 DUP4 PUSH2 0x38D JUMP JUMPDEST SWAP3 POP PUSH2 0x6BD PUSH32 0xFFFFFFFFFFFFFFFFFFFFFFFFFFFFFFFFFFFFFFFFFFFFFFFFFFFFFFFFFFFFFFFF DUP5 DUP5 PUSH2 0x5A7 JUMP JUMPDEST SWAP1 POP SWAP3 SWAP2 POP POP JUMP JUMPDEST PUSH1 0x0 PUSH2 0x6D0 DUP3 PUSH2 0x2F6 JUMP JUMPDEST SWAP2 POP PUSH2 0x6DB DUP4 PUSH2 0x2F6 JUMP JUMPDEST SWAP3 POP DUP3 DUP3 MUL PUSH2 0x6E9 DUP2 PUSH2 0x2F6 JUMP JUMPDEST SWAP2 POP DUP3 DUP3 DIV DUP5 EQ DUP4 ISZERO OR PUSH2 0x700 JUMPI PUSH2 0x6FF PUSH2 0x32A JUMP JUMPDEST JUMPDEST POP SWAP3 SWAP2 POP POP JUMP JUMPDEST PUSH32 0x4E487B7100000000000000000000000000000000000000000000000000000000 PUSH1 0x0 MSTORE PUSH1 0x32 PUSH1 0x4 MSTORE PUSH1 0x24 PUSH1 0x0 REVERT JUMPDEST PUSH32 0x4E487B7100000000000000000000000000000000000000000000000000000000 PUSH1 0x0 MSTORE PUSH1 0x12 PUSH1 0x4 MSTORE PUSH1 0x24 PUSH1 0x0 REVERT JUMPDEST PUSH1 0x0 PUSH2 0x770 DUP3 PUSH2 0x2F6 JUMP JUMPDEST SWAP2 POP PUSH2 0x77B DUP4 PUSH2 0x2F6 JUMP JUMPDEST SWAP3 POP DUP3 PUSH2 0x78B JUMPI PUSH2 0x78A PUSH2 0x736 JUMP JUMPDEST JUMPDEST DUP3 DUP3 DIV SWAP1 POP SWAP3 SWAP2 POP POP JUMP INVALID LOG2 PUSH5 0x6970667358 0x22 SLT KECCAK256 CREATE CALL BYTE 0x27 0xB4 0xF7 ADD 0xE0 0xA7 0xD6 0xED 0xE9 0xEF 0xEB LOG4 OR PUSH32 0x8DD1F23ED3B11F9C944C0E72BA5BCF64736F6C63430008180033000000000000 "
        },
        "methodIdentifiers": {
          "price(string)": "fe2c6198"
        }
      }
    }
  }
}