{
  "contracts/test/USDETHAggregatorMock.sol": {
    "USDETHAggregatorMock": {
      "abi": [
        {
          "inputs": [
            {
              "internalType": "uint256",
              "name": "multiplier",
              "type": "uint256"
            }
          ],
          "stateMutability": "nonpayable",
          "type": "constructor"
        },
        {
          "inputs": [],
          "name": "decimals",
          "outputs": [
            {
              "internalType": "uint8",
              "name": "",
              "type": "uint8"
            }
          ],
          "stateMutability": "pure",
          "type": "function"
        },
        {
          "inputs": [],
          "name": "latestRoundData",
          "outputs": [
            {
              "internalType": "uint80",
              "name": "roundId",
              "type": "uint80"
            },
            {
              "internalType": "int256",
              "name": "answer",
              "type": "int256"
            },
            {
              "internalType": "uint256",
              "name": "startedAt",
              "type": "uint256"
            },
            {
              "internalType": "uint256",
              "name": "updatedAt",
              "type": "uint256"
            },
            {
              "internalType": "uint80",
              "name": "answeredInRound",
              "type": "uint80"
            }
          ],
          "stateMutability": "view",
          "type": "function"
        }
      ],
      "evm": {
        "bytecode": {
          "linkReferences": {},
          "object": "608060405234801561001057600080fd5b506040516104813803806104818339818101604052810190610032919061007a565b80600081905550506100a7565b600080fd5b6000819050919050565b61005781610044565b811461006257600080fd5b50565b6000815190506100748161004e565b92915050565b6000602082840312156100905761008f61003f565b5b600061009e84828501610065565b91505092915050565b6103cb806100b66000396000f3fe608060405234801561001057600080fd5b50600436106100365760003560e01c8063313ce5671461003b578063feaf968c14610059575b600080fd5b61004361007b565b60405161005091906100e1565b60405180910390f35b610061610084565b604051610072959493929190610153565b60405180910390f35b60006008905090565b6000806000806000600161009661007b565b600a6100a29190610308565b6000546100af9190610353565b6000806001945094509450945094509091929394565b600060ff82169050919050565b6100db816100c5565b82525050565b60006020820190506100f660008301846100d2565b92915050565b600069ffffffffffffffffffff82169050919050565b61011b816100fc565b82525050565b6000819050919050565b61013481610121565b82525050565b6000819050919050565b61014d8161013a565b82525050565b600060a0820190506101686000830188610112565b610175602083018761012b565b6101826040830186610144565b61018f6060830185610144565b61019c6080830184610112565b9695505050505050565b7f4e487b7100000000000000000000000000000000000000000000000000000000600052601160045260246000fd5b60008160011c9050919050565b6000808291508390505b600185111561022c57808604811115610208576102076101a6565b5b60018516156102175780820291505b8081029050610225856101d5565b94506101ec565b94509492505050565b6000826102455760019050610301565b816102535760009050610301565b81600181146102695760028114610273576102a2565b6001915050610301565b60ff841115610285576102846101a6565b5b8360020a91508482111561029c5761029b6101a6565b5b50610301565b5060208310610133831016604e8410600b84101617156102d75782820a9050838111156102d2576102d16101a6565b5b610301565b6102e484848460016101e2565b925090508184048111156102fb576102fa6101a6565b5b81810290505b9392505050565b60006103138261013a565b915061031e836100c5565b925061034b7fffffffffffffffffffffffffffffffffffffffffffffffffffffffffffffffff8484610235565b905092915050565b600061035e8261013a565b91506103698361013a565b92508282026103778161013a565b9150828204841483151761038e5761038d6101a6565b5b509291505056fea26469706673582212200adb64de200fe23decdf8fd42dcce1b1ae0c230a624d3f401f3e1ad21476ed5864736f6c63430008180033",
          "opcodes": "PUSH1 0x80 PUSH1 0x40 MSTORE CALLVALUE DUP1 ISZERO PUSH2 0x10 JUMPI PUSH1 0x0 DUP1 REVERT JUMPDEST POP PUSH1 0x40 MLOAD PUSH2 0x481 CODESIZE SUB DUP1 PUSH2 0x481 DUP4 CODECOPY DUP2 DUP2 ADD PUSH1 0x40 MSTORE DUP2 ADD SWAP1 PUSH2 0x32 SWAP2 SWAP1 PUSH2 0x7A JUMP JUMPDEST DUP1 PUSH1 0x0 DUP2 SWAP1 SSTORE POP POP PUSH2 0xA7 JUMP JUMPDEST PUSH1 0x0 DUP1 REVERT JUMPDEST PUSH1 0x0 DUP2 SWAP1 POP SWAP2 SWAP1 POP JUMP JUMPDEST PUSH2 0x57 DUP2 PUSH2 0x44 JUMP JUMPDEST DUP2 EQ PUSH2 0x62 JUMPI PUSH1 0x0 DUP1 REVERT JUMPDEST POP JUMP JUMPDEST PUSH1 0x0 DUP2 MLOAD SWAP1 POP PUSH2 0x74 DUP2 PUSH2 0x4E JUMP JUMPDEST SWAP3 SWAP2 POP POP JUMP JUMPDEST PUSH1 0x0 PUSH1 0x20 DUP3 DUP5 SUB SLT ISZERO PUSH2 0x90 JUMPI PUSH2 0x8F PUSH2 0x3F JUMP JUMPDEST JUMPDEST PUSH1 0x0 PUSH2 0x9E DUP5 DUP3 DUP6 ADD PUSH2 0x65 JUMP JUMPDEST SWAP2 POP POP SWAP3 SWAP2 POP POP JUMP JUMPDEST PUSH2 0x3CB DUP1 PUSH2 0xB6 PUSH1 0x0 CODECOPY PUSH1 0x0 RETURN INVALID PUSH1 0x80 PUSH1 0x40 MSTORE CALLVALUE DUP1 ISZERO PUSH2 0x10 JUMPI PUSH1 0x0 DUP1 REVERT JUMPDEST POP PUSH1 0x4 CALLDATASIZE LT PUSH2 0x36 JUMPI PUSH1 0x0 CALLDATALOAD PUSH1 0xE0 SHR DUP1 PUSH4 0x313CE567 EQ PUSH2 0x3B JUMPI DUP1 PUSH4 0xFEAF968C EQ PUSH2 0x59 JUMPI JUMPDEST PUSH1 0x0 DUP1 REVERT JUMPDEST PUSH2 0x43 PUSH2 0x7B JUMP JUMPDEST PUSH1 0x40 MLOAD PUSH2 0x50 SWAP2 SWAP1 PUSH2 0xE1 JUMP JUMPDEST PUSH1 0x40 MLOAD DUP1 SWAP2 SUB SWAP1 RETURN JUMPDEST PUSH2 0x61 PUSH2 0x84 JUMP JUMPDEST PUSH1 0x40 MLOAD PUSH2 0x72 SWAP6 SWAP5 SWAP4 SWAP3 SWAP2 SWAP1 PUSH2 0x153 JUMP JUMPDEST PUSH1 0x40 MLOAD DUP1 SWAP2 SUB SWAP1 RETURN JUMPDEST PUSH1 0x0 PUSH1 0x8 SWAP1 POP SWAP1 JUMP JUMPDEST PUSH1 0x0 DUP1 PUSH1 0x0 DUP1 PUSH1 0x0 PUSH1 0x1 PUSH2 0x96 PUSH2 0x7B JUMP JUMPDEST PUSH1 0xA PUSH2 0xA2 SWAP2 SWAP1 PUSH2 0x308 JUMP JUMPDEST PUSH1 0x0 SLOAD PUSH2 0xAF SWAP2 SWAP1 PUSH2 0x353 JUMP JUMPDEST PUSH1 0x0 DUP1 PUSH1 0x1 SWAP5 POP SWAP5 POP SWAP5 POP SWAP5 POP SWAP5 POP SWAP1 SWAP2 SWAP3 SWAP4 SWAP5 JUMP JUMPDEST PUSH1 0x0 PUSH1 0xFF DUP3 AND SWAP1 POP SWAP2 SWAP1 POP JUMP JUMPDEST PUSH2 0xDB DUP2 PUSH2 0xC5 JUMP JUMPDEST DUP3 MSTORE POP POP JUMP JUMPDEST PUSH1 0x0 PUSH1 0x20 DUP3 ADD SWAP1 POP PUSH2 0xF6 PUSH1 0x0 DUP4 ADD DUP5 PUSH2 0xD2 JUMP JUMPDEST SWAP3 SWAP2 POP POP JUMP JUMPDEST PUSH1 0x0 PUSH10 0xFFFFFFFFFFFFFFFFFFFF DUP3 AND SWAP1 POP SWAP2 SWAP1 POP JUMP JUMPDEST PUSH2 0x11B DUP2 PUSH2 0xFC JUMP JUMPDEST DUP3 MSTORE POP POP JUMP JUMPDEST PUSH1 0x0 DUP2 SWAP1 POP SWAP2 SWAP1 POP JUMP JUMPDEST PUSH2 0x134 DUP2 PUSH2 0x121 JUMP JUMPDEST DUP3 MSTORE POP POP JUMP JUMPDEST PUSH1 0x0 DUP2 SWAP1 POP SWAP2 SWAP1 POP JUMP JUMPDEST PUSH2 0x14D DUP2 PUSH2 0x13A JUMP JUMPDEST DUP3 MSTORE POP POP JUMP JUMPDEST PUSH1 0x0 PUSH1 0xA0 DUP3 ADD SWAP1 POP PUSH2 0x168 PUSH1 0x0 DUP4 ADD DUP9 PUSH2 0x112 JUMP JUMPDEST PUSH2 0x175 PUSH1 0x20 DUP4 ADD DUP8 PUSH2 0x12B JUMP JUMPDEST PUSH2 0x182 PUSH1 0x40 DUP4 ADD DUP7 PUSH2 0x144 JUMP JUMPDEST PUSH2 0x18F PUSH1 0x60 DUP4 ADD DUP6 PUSH2 0x144 JUMP JUMPDEST PUSH2 0x19C PUSH1 0x80 DUP4 ADD DUP5 PUSH2 0x112 JUMP JUMPDEST SWAP7 SWAP6 POP POP POP POP POP POP JUMP JUMPDEST PUSH32 0x4E487B7100000000000000000000000000000000000000000000000000000000 PUSH1 0x0 MSTORE PUSH1 0x11 PUSH1 0x4 MSTORE PUSH1 0x24 PUSH1 0x0 REVERT JUMPDEST PUSH1 0x0 DUP2 PUSH1 0x1 SHR SWAP1 POP SWAP2 SWAP1 POP JUMP JUMPDEST PUSH1 0x0 DUP1 DUP3 SWAP2 POP DUP4 SWAP1 POP JUMPDEST PUSH1 0x1 DUP6 GT ISZERO PUSH2 0x22C JUMPI DUP1 DUP7 DIV DUP2 GT ISZERO PUSH2 0x208 JUMPI PUSH2 0x207 PUSH2 0x1A6 JUMP JUMPDEST JUMPDEST PUSH1 0x1 DUP6 AND ISZERO PUSH2 0x217 JUMPI DUP1 DUP3 MUL SWAP2 POP JUMPDEST DUP1 DUP2 MUL SWAP1 POP PUSH2 0x225 DUP6 PUSH2 0x1D5 JUMP JUMPDEST SWAP5 POP PUSH2 0x1EC JUMP JUMPDEST SWAP5 POP SWAP5 SWAP3 POP POP POP JUMP JUMPDEST PUSH1 0x0 DUP3 PUSH2 0x245 JUMPI PUSH1 0x1 SWAP1 POP PUSH2 0x301 JUMP JUMPDEST DUP2 PUSH2 0x253 JUMPI PUSH1 0x0 SWAP1 POP PUSH2 0x301 JUMP JUMPDEST DUP2 PUSH1 0x1 DUP2 EQ PUSH2 0x269 JUMPI PUSH1 0x2 DUP2 EQ PUSH2 0x273 JUMPI PUSH2 0x2A2 JUMP JUMPDEST PUSH1 0x1 SWAP2 POP POP PUSH2 0x301 JUMP JUMPDEST PUSH1 0xFF DUP5 GT ISZERO PUSH2 0x285 JUMPI PUSH2 0x284 PUSH2 0x1A6 JUMP JUMPDEST JUMPDEST DUP4 PUSH1 0x2 EXP SWAP2 POP DUP5 DUP3 GT ISZERO PUSH2 0x29C JUMPI PUSH2 0x29B PUSH2 0x1A6 JUMP JUMPDEST JUMPDEST POP PUSH2 0x301 JUMP JUMPDEST POP PUSH1 0x20 DUP4 LT PUSH2 0x133 DUP4 LT AND PUSH1 0x4E DUP5 LT PUSH1 0xB DUP5 LT AND OR ISZERO PUSH2 0x2D7 JUMPI DUP3 DUP3 EXP SWAP1 POP DUP4 DUP2 GT ISZERO PUSH2 0x2D2 JUMPI PUSH2 0x2D1 PUSH2 0x1A6 JUMP JUMPDEST JUMPDEST PUSH2 0x301 JUMP JUMPDEST PUSH2 0x2E4 DUP5 DUP5 DUP5 PUSH1 0x1 PUSH2 0x1E2 JUMP JUMPDEST SWAP3 POP SWAP1 POP DUP2 DUP5 DIV DUP2 GT ISZERO PUSH2 0x2FB JUMPI PUSH2 0x2FA PUSH2 0x1A6 JUMP JUMPDEST JUMPDEST DUP2 DUP2 MUL SWAP1 POP JUMPDEST SWAP4 SWAP3 POP POP POP JUMP JUMPDEST PUSH1 0x0 PUSH2 0x313 DUP3 PUSH2 0x13A JUMP JUMPDEST SWAP2 POP PUSH2 0x31E DUP4 PUSH2 0xC5 JUMP JUMPDEST SWAP3 POP PUSH2 0x34B PUSH32 0xFFFFFFFFFFFFFFFFFFFFFFFFFFFFFFFFFFFFFFFFFFFFFFFFFFFFFFFFFFFFFFFF DUP5 DUP5 PUSH2 0x235 JUMP JUMPDEST SWAP1 POP SWAP3 SWAP2 POP POP JUMP JUMPDEST PUSH1 0x0 PUSH2 0x35E DUP3 PUSH2 0x13A JUMP JUMPDEST SWAP2 POP PUSH2 0x369 DUP4 PUSH2 0x13A JUMP JUMPDEST SWAP3 POP DUP3 DUP3 MUL PUSH2 0x377 DUP2 PUSH2 0x13A JUMP JUMPDEST SWAP2 POP DUP3 DUP3 DIV DUP5 EQ DUP4 ISZERO OR PUSH2 0x38E JUMPI PUSH2 0x38D PUSH2 0x1A6 JUMP JUMPDEST JUMPDEST POP SWAP3 SWAP2 POP POP JUMP INVALID LOG2 PUSH5 0x6970667358 0x22 SLT KECCAK256 EXP 0xDB PUSH5 0xDE200FE23D 0xEC 0xDF DUP16 0xD4 0x2D 0xCC 0xE1 0xB1 0xAE 0xC 0x23 EXP PUSH3 0x4D3F40 0x1F RETURNDATACOPY BYTE 0xD2 EQ PUSH23 0xED5864736F6C6343000818003300000000000000000000 "
        },
        "methodIdentifiers": {
          "decimals()": "313ce567",
          "latestRoundData()": "feaf968c"
        }
      }
    }
  }
}