{
  "address": "0x5686Cc548e8407c9f00e1441C13758e470158Fdb",
  "abi": [
    {
      "inputs": [
        {
          "internalType": "contract ENS",
          "name": "_ens",
          "type": "address"
        },
        {
          "internalType": "bytes32",
          "name": "_baseNode",
          "type": "bytes32"
        }
      ],
      "stateMutability": "nonpayable",
      "type": "constructor"
    },
    {
      "anonymous": false,
      "inputs": [
        {
          "indexed": true,
          "internalType": "address",
          "name": "owner",
          "type": "address"
        },
        {
          "indexed": true,
          "internalType": "address",
          "name": "approved",
          "type": "address"
        },
        {
          "indexed": true,
          "internalType": "uint256",
          "name": "tokenId",
          "type": "uint256"
        }
      ],
      "name": "Approval",
      "type": "event"
    },
    {
      "anonymous": false,
      "inputs": [
        {
          "indexed": true,
          "internalType": "address",
          "name": "owner",
          "type": "address"
        },
        {
          "indexed": true,
          "internalType": "address",
          "name": "operator",
          "type": "address"
        },
        {
          "indexed": false,
          "internalType": "bool",
          "name": "approved",
          "type": "bool"
        }
      ],
      "name": "ApprovalForAll",
      "type": "event"
    },
    {
      "anonymous": false,
      "inputs": [
        {
          "indexed": true,
          "internalType": "address",
          "name": "controller",
          "type": "address"
        }
      ],
      "name": "ControllerAdded",
      "type": "event"
    },
    {
      "anonymous": false,
      "inputs": [
        {
          "indexed": true,
          "internalType": "address",
          "name": "controller",
          "type": "address"
        }
      ],
      "name": "ControllerRemoved",
      "type": "event"
    },
    {
      "anonymous": false,
      "inputs": [
        {
          "indexed": true,
          "internalType": "uint256",
          "name": "id",
          "type": "uint256"
        },
        {
          "indexed": true,
          "internalType": "address",
          "name": "owner",
          "type": "address"
        },
        {
          "indexed": false,
          "internalType": "uint256",
          "name": "expires",
          "type": "uint256"
        }
      ],
      "name": "NameMigrated",
      "type": "event"
    },
    {
      "anonymous": false,
      "inputs": [
        {
          "indexed": true,
          "internalType": "uint256",
          "name": "id",
          "type": "uint256"
        },
        {
          "indexed": true,
          "internalType": "address",
          "name": "owner",
          "type": "address"
        }
      ],
      "name": "NameRegistered",
      "type": "event"
    },
    {
      "anonymous": false,
      "inputs": [
        {
          "indexed": true,
          "internalType": "uint256",
          "name": "id",
          "type": "uint256"
        },
        {
          "indexed": false,
          "internalType": "uint256",
          "name": "expires",
          "type": "uint256"
        }
      ],
      "name": "NameRenewed",
      "type": "event"
    },
    {
      "anonymous": false,
      "inputs": [
        {
          "indexed": true,
          "internalType": "address",
          "name": "previousOwner",
          "type": "address"
        },
        {
          "indexed": true,
          "internalType": "address",
          "name": "newOwner",
          "type": "address"
        }
      ],
      "name": "OwnershipTransferred",
      "type": "event"
    },
    {
      "anonymous": false,
      "inputs": [
        {
          "indexed": true,
          "internalType": "address",
          "name": "from",
          "type": "address"
        },
        {
          "indexed": true,
          "internalType": "address",
          "name": "to",
          "type": "address"
        },
        {
          "indexed": true,
          "internalType": "uint256",
          "name": "tokenId",
          "type": "uint256"
        }
      ],
      "name": "Transfer",
      "type": "event"
    },
    {
      "inputs": [
        {
          "internalType": "address",
          "name": "controller",
          "type": "address"
        }
      ],
      "name": "addController",
      "outputs": [],
      "stateMutability": "nonpayable",
      "type": "function"
    },
    {
      "inputs": [
        {
          "internalType": "address",
          "name": "to",
          "type": "address"
        },
        {
          "internalType": "uint256",
          "name": "tokenId",
          "type": "uint256"
        }
      ],
      "name": "approve",
      "outputs": [],
      "stateMutability": "nonpayable",
      "type": "function"
    },
    {
      "inputs": [
        {
          "internalType": "uint256",
          "name": "id",
          "type": "uint256"
        }
      ],
      "name": "available",
      "outputs": [
        {
          "internalType": "bool",
          "name": "",
          "type": "bool"
        }
      ],
      "stateMutability": "view",
      "type": "function"
    },
    {
      "inputs": [
        {
          "internalType": "address",
          "name": "owner",
          "type": "address"
        }
      ],
      "name": "balanceOf",
      "outputs": [
        {
          "internalType": "uint256",
          "name": "",
          "type": "uint256"
        }
      ],
      "stateMutability": "view",
      "type": "function"
    },
    {
      "inputs": [],
      "name": "baseNode",
      "outputs": [
        {
          "internalType": "bytes32",
          "name": "",
          "type": "bytes32"
        }
      ],
      "stateMutability": "view",
      "type": "function"
    },
    {
      "inputs": [
        {
          "internalType": "address",
          "name": "",
          "type": "address"
        }
      ],
      "name": "controllers",
      "outputs": [
        {
          "internalType": "bool",
          "name": "",
          "type": "bool"
        }
      ],
      "stateMutability": "view",
      "type": "function"
    },
    {
      "inputs": [],
      "name": "ens",
      "outputs": [
        {
          "internalType": "contract ENS",
          "name": "",
          "type": "address"
        }
      ],
      "stateMutability": "view",
      "type": "function"
    },
    {
      "inputs": [
        {
          "internalType": "uint256",
          "name": "tokenId",
          "type": "uint256"
        }
      ],
      "name": "getApproved",
      "outputs": [
        {
          "internalType": "address",
          "name": "",
          "type": "address"
        }
      ],
      "stateMutability": "view",
      "type": "function"
    },
    {
      "inputs": [
        {
          "internalType": "address",
          "name": "owner",
          "type": "address"
        },
        {
          "internalType": "address",
          "name": "operator",
          "type": "address"
        }
      ],
      "name": "isApprovedForAll",
      "outputs": [
        {
          "internalType": "bool",
          "name": "",
          "type": "bool"
        }
      ],
      "stateMutability": "view",
      "type": "function"
    },
    {
      "inputs": [],
      "name": "name",
      "outputs": [
        {
          "internalType": "string",
          "name": "",
          "type": "string"
        }
      ],
      "stateMutability": "view",
      "type": "function"
    },
    {
      "inputs": [],
      "name": "owner",
      "outputs": [
        {
          "internalType": "address",
          "name": "",
          "type": "address"
        }
      ],
      "stateMutability": "view",
      "type": "function"
    },
    {
      "inputs": [
        {
          "internalType": "uint256",
          "name": "tokenId",
          "type": "uint256"
        }
      ],
      "name": "ownerOf",
      "outputs": [
        {
          "internalType": "address",
          "name": "",
          "type": "address"
        }
      ],
      "stateMutability": "view",
      "type": "function"
    },
    {
      "inputs": [
        {
          "internalType": "uint256",
          "name": "id",
          "type": "uint256"
        },
        {
          "internalType": "address",
          "name": "owner",
          "type": "address"
        }
      ],
      "name": "reclaim",
      "outputs": [],
      "stateMutability": "nonpayable",
      "type": "function"
    },
    {
      "inputs": [
        {
          "internalType": "uint256",
          "name": "id",
          "type": "uint256"
        },
        {
          "internalType": "address",
          "name": "owner",
          "type": "address"
        }
      ],
      "name": "register",
      "outputs": [],
      "stateMutability": "nonpayable",
      "type": "function"
    },
    {
      "inputs": [
        {
          "internalType": "uint256",
          "name": "id",
          "type": "uint256"
        },
        {
          "internalType": "address",
          "name": "owner",
          "type": "address"
        }
      ],
      "name": "registerOnly",
      "outputs": [],
      "stateMutability": "nonpayable",
      "type": "function"
    },
    {
      "inputs": [
        {
          "internalType": "address",
          "name": "controller",
          "type": "address"
        }
      ],
      "name": "removeController",
      "outputs": [],
      "stateMutability": "nonpayable",
      "type": "function"
    },
    {
      "inputs": [],
      "name": "renounceOwnership",
      "outputs": [],
      "stateMutability": "nonpayable",
      "type": "function"
    },
    {
      "inputs": [
        {
          "internalType": "address",
          "name": "from",
          "type": "address"
        },
        {
          "internalType": "address",
          "name": "to",
          "type": "address"
        },
        {
          "internalType": "uint256",
          "name": "tokenId",
          "type": "uint256"
        }
      ],
      "name": "safeTransferFrom",
      "outputs": [],
      "stateMutability": "nonpayable",
      "type": "function"
    },
    {
      "inputs": [
        {
          "internalType": "address",
          "name": "from",
          "type": "address"
        },
        {
          "internalType": "address",
          "name": "to",
          "type": "address"
        },
        {
          "internalType": "uint256",
          "name": "tokenId",
          "type": "uint256"
        },
        {
          "internalType": "bytes",
          "name": "data",
          "type": "bytes"
        }
      ],
      "name": "safeTransferFrom",
      "outputs": [],
      "stateMutability": "nonpayable",
      "type": "function"
    },
    {
      "inputs": [
        {
          "internalType": "address",
          "name": "operator",
          "type": "address"
        },
        {
          "internalType": "bool",
          "name": "approved",
          "type": "bool"
        }
      ],
      "name": "setApprovalForAll",
      "outputs": [],
      "stateMutability": "nonpayable",
      "type": "function"
    },
    {
      "inputs": [
        {
          "internalType": "address",
          "name": "resolver",
          "type": "address"
        }
      ],
      "name": "setResolver",
      "outputs": [],
      "stateMutability": "nonpayable",
      "type": "function"
    },
    {
      "inputs": [
        {
          "internalType": "bytes4",
          "name": "interfaceID",
          "type": "bytes4"
        }
      ],
      "name": "supportsInterface",
      "outputs": [
        {
          "internalType": "bool",
          "name": "",
          "type": "bool"
        }
      ],
      "stateMutability": "view",
      "type": "function"
    },
    {
      "inputs": [],
      "name": "symbol",
      "outputs": [
        {
          "internalType": "string",
          "name": "",
          "type": "string"
        }
      ],
      "stateMutability": "view",
      "type": "function"
    },
    {
      "inputs": [
        {
          "internalType": "uint256",
          "name": "tokenId",
          "type": "uint256"
        }
      ],
      "name": "tokenURI",
      "outputs": [
        {
          "internalType": "string",
          "name": "",
          "type": "string"
        }
      ],
      "stateMutability": "view",
      "type": "function"
    },
    {
      "inputs": [
        {
          "internalType": "address",
          "name": "from",
          "type": "address"
        },
        {
          "internalType": "address",
          "name": "to",
          "type": "address"
        },
        {
          "internalType": "uint256",
          "name": "tokenId",
          "type": "uint256"
        }
      ],
      "name": "transferFrom",
      "outputs": [],
      "stateMutability": "nonpayable",
      "type": "function"
    },
    {
      "inputs": [
        {
          "internalType": "address",
          "name": "newOwner",
          "type": "address"
        }
      ],
      "name": "transferOwnership",
      "outputs": [],
      "stateMutability": "nonpayable",
      "type": "function"
    }
  ],
  "transactionHash": "0x835283c27b2624c57432efe9fc46c0c0db45387d8457d57154ee22a9f7ca697e",
  "args": [
    "0xE8E0fFE372608122c10544c2445272eD8E79dbAB",
    "0x739305fdceb24221237c3dea9f36a6fcc8dc81b45730358192886e1510532739"
  ],
  "numDeployments": 1,
  "solcInputHash": "d1e7b115564b0e977220c78df49e4073",
  "bytecode": "0x60806040523480156200001157600080fd5b50604051620020a1380380620020a18339810160408190526200003491620001bc565b604080516020808201808452600080845284519283019094528382528251929391926200006392919062000116565b5080516200007990600190602084019062000116565b5050506200009662000090620000c060201b60201c565b620000c4565b600780546001600160a01b0319166001600160a01b03939093169290921790915560085562000234565b3390565b600680546001600160a01b038381166001600160a01b0319831681179093556040519116919082907f8be0079c531659141344cd1fd0a4f28419497f9722a3daafe3b4186f6b6457e090600090a35050565b8280546200012490620001f8565b90600052602060002090601f01602090048101928262000148576000855562000193565b82601f106200016357805160ff191683800117855562000193565b8280016001018555821562000193579182015b828111156200019357825182559160200191906001019062000176565b50620001a1929150620001a5565b5090565b5b80821115620001a15760008155600101620001a6565b60008060408385031215620001d057600080fd5b82516001600160a01b0381168114620001e857600080fd5b6020939093015192949293505050565b600181811c908216806200020d57607f821691505b6020821081036200022e57634e487b7160e01b600052602260045260246000fd5b50919050565b611e5d80620002446000396000f3fe608060405234801561001057600080fd5b50600436106101ae5760003560e01c80638da5cb5b116100ee578063c87b56dd11610097578063ddf7fcb011610071578063ddf7fcb0146103a3578063e985e9c5146103ac578063f2fde38b146103e8578063f6a74ed7146103fb57600080fd5b8063c87b56dd1461035a578063da8c229e1461036d578063dbbdf0831461039057600080fd5b8063a22cb465116100c8578063a22cb46514610321578063a7fc7a0714610334578063b88d4fde1461034757600080fd5b80638da5cb5b146102de57806395d89b41146102ef57806396e494e8146102f757600080fd5b80633f15457f1161015b57806352dc67161161013557806352dc67161461028f5780636352211e146102a257806370a08231146102b5578063715018a6146102d657600080fd5b80633f15457f1461025657806342842e0e146102695780634e543b261461027c57600080fd5b8063095ea7b31161018c578063095ea7b31461021b57806323b872dd1461023057806328ed4f6c1461024357600080fd5b806301ffc9a7146101b357806306fdde03146101db578063081812fc146101f0575b600080fd5b6101c66101c13660046118de565b61040e565b60405190151581526020015b60405180910390f35b6101e36104f3565b6040516101d29190611971565b6102036101fe366004611984565b610585565b6040516001600160a01b0390911681526020016101d2565b61022e6102293660046119b2565b6105ac565b005b61022e61023e3660046119de565b6106e2565b61022e610251366004611a1f565b610769565b600754610203906001600160a01b031681565b61022e6102773660046119de565b6108b4565b61022e61028a366004611a4f565b6108cf565b61022e61029d366004611a1f565b61095d565b6102036102b0366004611984565b61096d565b6102c86102c3366004611a4f565b6109d2565b6040519081526020016101d2565b61022e610a6c565b6006546001600160a01b0316610203565b6101e3610a80565b6101c6610305366004611984565b6000908152600260205260409020546001600160a01b03161590565b61022e61032f366004611a6c565b610a8f565b61022e610342366004611a4f565b610a9a565b61022e610355366004611ace565b610b0c565b6101e3610368366004611984565b610b9a565b6101c661037b366004611a4f565b60096020526000908152604090205460ff1681565b61022e61039e366004611a1f565b610c0e565b6102c860085481565b6101c66103ba366004611bcc565b6001600160a01b03918216600090815260056020908152604080832093909416825291909152205460ff1690565b61022e6103f6366004611a4f565b610c1a565b61022e610409366004611a4f565b610caa565b60007fffffffff0000000000000000000000000000000000000000000000000000000082167f01ffc9a70000000000000000000000000000000000000000000000000000000014806104a157507fffffffff0000000000000000000000000000000000000000000000000000000082167f80ac58cd00000000000000000000000000000000000000000000000000000000145b806104ed57507fffffffff0000000000000000000000000000000000000000000000000000000082167f28ed4f6c00000000000000000000000000000000000000000000000000000000145b92915050565b60606000805461050290611bfa565b80601f016020809104026020016040519081016040528092919081815260200182805461052e90611bfa565b801561057b5780601f106105505761010080835404028352916020019161057b565b820191906000526020600020905b81548152906001019060200180831161055e57829003601f168201915b5050505050905090565b600061059082610d19565b506000908152600460205260409020546001600160a01b031690565b60006105b78261096d565b9050806001600160a01b0316836001600160a01b0316036106455760405162461bcd60e51b815260206004820152602160248201527f4552433732313a20617070726f76616c20746f2063757272656e74206f776e6560448201527f720000000000000000000000000000000000000000000000000000000000000060648201526084015b60405180910390fd5b336001600160a01b0382161480610661575061066181336103ba565b6106d35760405162461bcd60e51b815260206004820152603e60248201527f4552433732313a20617070726f76652063616c6c6572206973206e6f7420746f60448201527f6b656e206f776e6572206e6f7220617070726f76656420666f7220616c6c0000606482015260840161063c565b6106dd8383610d7d565b505050565b6106ec3382610e03565b61075e5760405162461bcd60e51b815260206004820152602e60248201527f4552433732313a2063616c6c6572206973206e6f7420746f6b656e206f776e6560448201527f72206e6f7220617070726f766564000000000000000000000000000000000000606482015260840161063c565b6106dd838383610e82565b6007546008546040517f02571be3000000000000000000000000000000000000000000000000000000008152600481019190915230916001600160a01b0316906302571be390602401602060405180830381865afa1580156107cf573d6000803e3d6000fd5b505050506040513d601f19601f820116820180604052508101906107f39190611c4d565b6001600160a01b03161461080657600080fd5b6108103383610e03565b61081957600080fd5b6007546008546040517f06ab59230000000000000000000000000000000000000000000000000000000081526004810191909152602481018490526001600160a01b038381166044830152909116906306ab5923906064016020604051808303816000875af1158015610890573d6000803e3d6000fd5b505050506040513d601f19601f820116820180604052508101906106dd9190611c6a565b6106dd83838360405180602001604052806000815250610b0c565b6108d7611067565b6007546008546040517f1896f70a00000000000000000000000000000000000000000000000000000000815260048101919091526001600160a01b03838116602483015290911690631896f70a90604401600060405180830381600087803b15801561094257600080fd5b505af1158015610956573d6000803e3d6000fd5b5050505050565b610969828260006110c1565b5050565b6000818152600260205260408120546001600160a01b0316806104ed5760405162461bcd60e51b815260206004820152601860248201527f4552433732313a20696e76616c696420746f6b656e2049440000000000000000604482015260640161063c565b60006001600160a01b038216610a505760405162461bcd60e51b815260206004820152602960248201527f4552433732313a2061646472657373207a65726f206973206e6f74206120766160448201527f6c6964206f776e65720000000000000000000000000000000000000000000000606482015260840161063c565b506001600160a01b031660009081526003602052604090205490565b610a74611067565b610a7e6000611283565b565b60606001805461050290611bfa565b6109693383836112ed565b610aa2611067565b6001600160a01b03811660008181526009602052604080822080547fffffffffffffffffffffffffffffffffffffffffffffffffffffffffffffff00166001179055517f0a8bb31534c0ed46f380cb867bd5c803a189ced9a764e30b3a4991a9901d74749190a250565b610b163383610e03565b610b885760405162461bcd60e51b815260206004820152602e60248201527f4552433732313a2063616c6c6572206973206e6f7420746f6b656e206f776e6560448201527f72206e6f7220617070726f766564000000000000000000000000000000000000606482015260840161063c565b610b94848484846113d9565b50505050565b6060610ba582610d19565b6000610bbc60408051602081019091526000815290565b90506000815111610bdc5760405180602001604052806000815250610c07565b80610be684611462565b604051602001610bf7929190611c83565b6040516020818303038152906040525b9392505050565b610969828260016110c1565b610c22611067565b6001600160a01b038116610c9e5760405162461bcd60e51b815260206004820152602660248201527f4f776e61626c653a206e6577206f776e657220697320746865207a65726f206160448201527f6464726573730000000000000000000000000000000000000000000000000000606482015260840161063c565b610ca781611283565b50565b610cb2611067565b6001600160a01b03811660008181526009602052604080822080547fffffffffffffffffffffffffffffffffffffffffffffffffffffffffffffff00169055517f33d83959be2573f5453b12eb9d43b3499bc57d96bd2f067ba44803c859e811139190a250565b6000818152600260205260409020546001600160a01b0316610ca75760405162461bcd60e51b815260206004820152601860248201527f4552433732313a20696e76616c696420746f6b656e2049440000000000000000604482015260640161063c565b600081815260046020526040902080547fffffffffffffffffffffffff0000000000000000000000000000000000000000166001600160a01b0384169081179091558190610dca8261096d565b6001600160a01b03167f8c5be1e5ebec7d5bd14f71427d1e84f3dd0314c0f7b2291e5b200ac8c7c3b92560405160405180910390a45050565b600080610e0f8361096d565b9050806001600160a01b0316846001600160a01b03161480610e5657506001600160a01b0380821660009081526005602090815260408083209388168352929052205460ff165b80610e7a5750836001600160a01b0316610e6f84610585565b6001600160a01b0316145b949350505050565b826001600160a01b0316610e958261096d565b6001600160a01b031614610f115760405162461bcd60e51b815260206004820152602560248201527f4552433732313a207472616e736665722066726f6d20696e636f72726563742060448201527f6f776e6572000000000000000000000000000000000000000000000000000000606482015260840161063c565b6001600160a01b038216610f8c5760405162461bcd60e51b8152602060048201526024808201527f4552433732313a207472616e7366657220746f20746865207a65726f2061646460448201527f7265737300000000000000000000000000000000000000000000000000000000606482015260840161063c565b610f97600082610d7d565b6001600160a01b0383166000908152600360205260408120805460019290610fc0908490611ce1565b90915550506001600160a01b0382166000908152600360205260408120805460019290610fee908490611cf8565b909155505060008181526002602052604080822080547fffffffffffffffffffffffff0000000000000000000000000000000000000000166001600160a01b0386811691821790925591518493918716917fddf252ad1be2c89b69c2b068fc378daa952ba7f163c4a11628f55a4df523b3ef91a4505050565b6006546001600160a01b03163314610a7e5760405162461bcd60e51b815260206004820181905260248201527f4f776e61626c653a2063616c6c6572206973206e6f7420746865206f776e6572604482015260640161063c565b6007546008546040517f02571be3000000000000000000000000000000000000000000000000000000008152600481019190915230916001600160a01b0316906302571be390602401602060405180830381865afa158015611127573d6000803e3d6000fd5b505050506040513d601f19601f8201168201806040525081019061114b9190611c4d565b6001600160a01b03161461115e57600080fd5b3360009081526009602052604090205460ff1661117a57600080fd5b6000838152600260205260409020546001600160a01b03161561119c57600080fd5b6111a68284611597565b8015611249576007546008546040517f06ab59230000000000000000000000000000000000000000000000000000000081526004810191909152602481018590526001600160a01b038481166044830152909116906306ab5923906064016020604051808303816000875af1158015611223573d6000803e3d6000fd5b505050506040513d601f19601f820116820180604052508101906112479190611c6a565b505b6040516001600160a01b0383169084907e834ad8d7a1d8421d149549c7292d11385f5a042a008771d26ffd2d76db6e7490600090a3505050565b600680546001600160a01b038381167fffffffffffffffffffffffff0000000000000000000000000000000000000000831681179093556040519116919082907f8be0079c531659141344cd1fd0a4f28419497f9722a3daafe3b4186f6b6457e090600090a35050565b816001600160a01b0316836001600160a01b03160361134e5760405162461bcd60e51b815260206004820152601960248201527f4552433732313a20617070726f766520746f2063616c6c657200000000000000604482015260640161063c565b6001600160a01b0383811660008181526005602090815260408083209487168084529482529182902080547fffffffffffffffffffffffffffffffffffffffffffffffffffffffffffffff001686151590811790915591519182527f17307eab39ab6107e8899845ad3d59bd9653f200f220920489ca2b5937696c31910160405180910390a3505050565b6113e4848484610e82565b6113f0848484846116f1565b610b945760405162461bcd60e51b815260206004820152603260248201527f4552433732313a207472616e7366657220746f206e6f6e20455243373231526560448201527f63656976657220696d706c656d656e7465720000000000000000000000000000606482015260840161063c565b6060816000036114a557505060408051808201909152600181527f3000000000000000000000000000000000000000000000000000000000000000602082015290565b8160005b81156114cf57806114b981611d10565b91506114c89050600a83611d77565b91506114a9565b60008167ffffffffffffffff8111156114ea576114ea611a9f565b6040519080825280601f01601f191660200182016040528015611514576020820181803683370190505b5090505b8415610e7a57611529600183611ce1565b9150611536600a86611d8b565b611541906030611cf8565b60f81b81838151811061155657611556611d9f565b60200101907effffffffffffffffffffffffffffffffffffffffffffffffffffffffffffff1916908160001a905350611590600a86611d77565b9450611518565b6001600160a01b0382166115ed5760405162461bcd60e51b815260206004820181905260248201527f4552433732313a206d696e7420746f20746865207a65726f2061646472657373604482015260640161063c565b6000818152600260205260409020546001600160a01b0316156116525760405162461bcd60e51b815260206004820152601c60248201527f4552433732313a20746f6b656e20616c7265616479206d696e74656400000000604482015260640161063c565b6001600160a01b038216600090815260036020526040812080546001929061167b908490611cf8565b909155505060008181526002602052604080822080547fffffffffffffffffffffffff0000000000000000000000000000000000000000166001600160a01b03861690811790915590518392907fddf252ad1be2c89b69c2b068fc378daa952ba7f163c4a11628f55a4df523b3ef908290a45050565b60006001600160a01b0384163b156118a5576040517f150b7a020000000000000000000000000000000000000000000000000000000081526001600160a01b0385169063150b7a029061174e903390899088908890600401611dce565b6020604051808303816000875af19250505080156117a7575060408051601f3d9081017fffffffffffffffffffffffffffffffffffffffffffffffffffffffffffffffe01682019092526117a491810190611e0a565b60015b61185a573d8080156117d5576040519150601f19603f3d011682016040523d82523d6000602084013e6117da565b606091505b5080516000036118525760405162461bcd60e51b815260206004820152603260248201527f4552433732313a207472616e7366657220746f206e6f6e20455243373231526560448201527f63656976657220696d706c656d656e7465720000000000000000000000000000606482015260840161063c565b805181602001fd5b7fffffffff00000000000000000000000000000000000000000000000000000000167f150b7a0200000000000000000000000000000000000000000000000000000000149050610e7a565b506001949350505050565b7fffffffff0000000000000000000000000000000000000000000000000000000081168114610ca757600080fd5b6000602082840312156118f057600080fd5b8135610c07816118b0565b60005b838110156119165781810151838201526020016118fe565b83811115610b945750506000910152565b6000815180845261193f8160208601602086016118fb565b601f017fffffffffffffffffffffffffffffffffffffffffffffffffffffffffffffffe0169290920160200192915050565b602081526000610c076020830184611927565b60006020828403121561199657600080fd5b5035919050565b6001600160a01b0381168114610ca757600080fd5b600080604083850312156119c557600080fd5b82356119d08161199d565b946020939093013593505050565b6000806000606084860312156119f357600080fd5b83356119fe8161199d565b92506020840135611a0e8161199d565b929592945050506040919091013590565b60008060408385031215611a3257600080fd5b823591506020830135611a448161199d565b809150509250929050565b600060208284031215611a6157600080fd5b8135610c078161199d565b60008060408385031215611a7f57600080fd5b8235611a8a8161199d565b915060208301358015158114611a4457600080fd5b7f4e487b7100000000000000000000000000000000000000000000000000000000600052604160045260246000fd5b60008060008060808587031215611ae457600080fd5b8435611aef8161199d565b93506020850135611aff8161199d565b925060408501359150606085013567ffffffffffffffff80821115611b2357600080fd5b818701915087601f830112611b3757600080fd5b813581811115611b4957611b49611a9f565b604051601f82017fffffffffffffffffffffffffffffffffffffffffffffffffffffffffffffffe0908116603f01168101908382118183101715611b8f57611b8f611a9f565b816040528281528a6020848701011115611ba857600080fd5b82602086016020830137600060208483010152809550505050505092959194509250565b60008060408385031215611bdf57600080fd5b8235611bea8161199d565b91506020830135611a448161199d565b600181811c90821680611c0e57607f821691505b602082108103611c47577f4e487b7100000000000000000000000000000000000000000000000000000000600052602260045260246000fd5b50919050565b600060208284031215611c5f57600080fd5b8151610c078161199d565b600060208284031215611c7c57600080fd5b5051919050565b60008351611c958184602088016118fb565b835190830190611ca98183602088016118fb565b01949350505050565b7f4e487b7100000000000000000000000000000000000000000000000000000000600052601160045260246000fd5b600082821015611cf357611cf3611cb2565b500390565b60008219821115611d0b57611d0b611cb2565b500190565b60007fffffffffffffffffffffffffffffffffffffffffffffffffffffffffffffffff8203611d4157611d41611cb2565b5060010190565b7f4e487b7100000000000000000000000000000000000000000000000000000000600052601260045260246000fd5b600082611d8657611d86611d48565b500490565b600082611d9a57611d9a611d48565b500690565b7f4e487b7100000000000000000000000000000000000000000000000000000000600052603260045260246000fd5b60006001600160a01b03808716835280861660208401525083604083015260806060830152611e006080830184611927565b9695505050505050565b600060208284031215611e1c57600080fd5b8151610c07816118b056fea2646970667358221220afa9d60044895d2953d77b94f427cb1d7e14107f071edddebf95f9224435d97964736f6c634300080d0033",
  "devdoc": {
    "kind": "dev",
    "methods": {
      "approve(address,uint256)": {
        "details": "See {IERC721-approve}."
      },
      "balanceOf(address)": {
        "details": "See {IERC721-balanceOf}."
      },
      "getApproved(uint256)": {
        "details": "See {IERC721-getApproved}."
      },
      "isApprovedForAll(address,address)": {
        "details": "See {IERC721-isApprovedForAll}."
      },
      "name()": {
        "details": "See {IERC721Metadata-name}."
      },
      "owner()": {
        "details": "Returns the address of the current owner."
      },
      "ownerOf(uint256)": {
        "details": "See {IERC721-ownerOf}."
      },
      "reclaim(uint256,address)": {
        "details": "Reclaim ownership of a name in ENS, if you own it in the registrar."
      },
      "register(uint256,address)": {
        "details": "Register a name.",
        "params": {
          "id": "The token ID (keccak256 of the label).",
          "owner": "The address that should own the registration."
        }
      },
      "registerOnly(uint256,address)": {
        "details": "Register a name, without modifying the registry.",
        "params": {
          "id": "The token ID (keccak256 of the label).",
          "owner": "The address that should own the registration."
        }
      },
      "renounceOwnership()": {
        "details": "Leaves the contract without owner. It will not be possible to call `onlyOwner` functions anymore. Can only be called by the current owner. NOTE: Renouncing ownership will leave the contract without an owner, thereby removing any functionality that is only available to the owner."
      },
      "safeTransferFrom(address,address,uint256)": {
        "details": "See {IERC721-safeTransferFrom}."
      },
      "safeTransferFrom(address,address,uint256,bytes)": {
        "details": "See {IERC721-safeTransferFrom}."
      },
      "setApprovalForAll(address,bool)": {
        "details": "See {IERC721-setApprovalForAll}."
      },
      "symbol()": {
        "details": "See {IERC721Metadata-symbol}."
      },
      "tokenURI(uint256)": {
        "details": "See {IERC721Metadata-tokenURI}."
      },
      "transferFrom(address,address,uint256)": {
        "details": "See {IERC721-transferFrom}."
      },
      "transferOwnership(address)": {
        "details": "Transfers ownership of the contract to a new account (`newOwner`). Can only be called by the current owner."
      }
    },
    "version": 1
  },
  "userdoc": {
    "kind": "user",
    "methods": {},
    "version": 1
  },
  "storageLayout": {
    "storage": [
      {
        "astId": 854,
        "contract": "contracts/ethregistrar/BaseRegistrarImplementation.sol:BaseRegistrarImplementation",
        "label": "_name",
        "offset": 0,
        "slot": "0",
        "type": "t_string_storage"
      },
      {
        "astId": 856,
        "contract": "contracts/ethregistrar/BaseRegistrarImplementation.sol:BaseRegistrarImplementation",
        "label": "_symbol",
        "offset": 0,
        "slot": "1",
        "type": "t_string_storage"
      },
      {
        "astId": 860,
        "contract": "contracts/ethregistrar/BaseRegistrarImplementation.sol:BaseRegistrarImplementation",
        "label": "_owners",
        "offset": 0,
        "slot": "2",
        "type": "t_mapping(t_uint256,t_address)"
      },
      {
        "astId": 864,
        "contract": "contracts/ethregistrar/BaseRegistrarImplementation.sol:BaseRegistrarImplementation",
        "label": "_balances",
        "offset": 0,
        "slot": "3",
        "type": "t_mapping(t_address,t_uint256)"
      },
      {
        "astId": 868,
        "contract": "contracts/ethregistrar/BaseRegistrarImplementation.sol:BaseRegistrarImplementation",
        "label": "_tokenApprovals",
        "offset": 0,
        "slot": "4",
        "type": "t_mapping(t_uint256,t_address)"
      },
      {
        "astId": 874,
        "contract": "contracts/ethregistrar/BaseRegistrarImplementation.sol:BaseRegistrarImplementation",
        "label": "_operatorApprovals",
        "offset": 0,
        "slot": "5",
        "type": "t_mapping(t_address,t_mapping(t_address,t_bool))"
      },
      {
        "astId": 545,
        "contract": "contracts/ethregistrar/BaseRegistrarImplementation.sol:BaseRegistrarImplementation",
        "label": "_owner",
        "offset": 0,
        "slot": "6",
        "type": "t_address"
      },
      {
        "astId": 9678,
        "contract": "contracts/ethregistrar/BaseRegistrarImplementation.sol:BaseRegistrarImplementation",
        "label": "ens",
        "offset": 0,
        "slot": "7",
        "type": "t_contract(ENS)11792"
      },
      {
        "astId": 9680,
        "contract": "contracts/ethregistrar/BaseRegistrarImplementation.sol:BaseRegistrarImplementation",
        "label": "baseNode",
        "offset": 0,
        "slot": "8",
        "type": "t_bytes32"
      },
      {
        "astId": 9684,
        "contract": "contracts/ethregistrar/BaseRegistrarImplementation.sol:BaseRegistrarImplementation",
        "label": "controllers",
        "offset": 0,
        "slot": "9",
        "type": "t_mapping(t_address,t_bool)"
      }
    ],
    "types": {
      "t_address": {
        "encoding": "inplace",
        "label": "address",
        "numberOfBytes": "20"
      },
      "t_bool": {
        "encoding": "inplace",
        "label": "bool",
        "numberOfBytes": "1"
      },
      "t_bytes32": {
        "encoding": "inplace",
        "label": "bytes32",
        "numberOfBytes": "32"
      },
      "t_contract(ENS)11792": {
        "encoding": "inplace",
        "label": "contract ENS",
        "numberOfBytes": "20"
      },
      "t_mapping(t_address,t_bool)": {
        "encoding": "mapping",
        "key": "t_address",
        "label": "mapping(address => bool)",
        "numberOfBytes": "32",
        "value": "t_bool"
      },
      "t_mapping(t_address,t_mapping(t_address,t_bool))": {
        "encoding": "mapping",
        "key": "t_address",
        "label": "mapping(address => mapping(address => bool))",
        "numberOfBytes": "32",
        "value": "t_mapping(t_address,t_bool)"
      },
      "t_mapping(t_address,t_uint256)": {
        "encoding": "mapping",
        "key": "t_address",
        "label": "mapping(address => uint256)",
        "numberOfBytes": "32",
        "value": "t_uint256"
      },
      "t_mapping(t_uint256,t_address)": {
        "encoding": "mapping",
        "key": "t_uint256",
        "label": "mapping(uint256 => address)",
        "numberOfBytes": "32",
        "value": "t_address"
      },
      "t_string_storage": {
        "encoding": "bytes",
        "label": "string",
        "numberOfBytes": "32"
      },
      "t_uint256": {
        "encoding": "inplace",
        "label": "uint256",
        "numberOfBytes": "32"
      }
    }
  }
}