{
  "address": "0x59B00C2b371eAbd7A2Bb61126AF4E84B5A2c2280",
  "abi": [
    {
      "inputs": [
        {
          "internalType": "int256",
          "name": "_value",
          "type": "int256"
        }
      ],
      "stateMutability": "nonpayable",
      "type": "constructor"
    },
    {
      "inputs": [],
      "name": "latestAnswer",
      "outputs": [
        {
          "internalType": "int256",
          "name": "",
          "type": "int256"
        }
      ],
      "stateMutability": "view",
      "type": "function"
    },
    {
      "inputs": [
        {
          "internalType": "int256",
          "name": "_value",
          "type": "int256"
        }
      ],
      "name": "set",
      "outputs": [],
      "stateMutability": "nonpayable",
      "type": "function"
    }
  ],
  "transactionHash": "0x414ea3800d754f9fc6f615d9889015e299248c4d7683489b2c59997d5cb2c5d5",
  "args": [
    "200000000000"
  ],
  "numDeployments": 1,
  "solcInputHash": "a55582fc5bde5ca1923831dca49e4f3d",
  "bytecode": "0x608060405234801561001057600080fd5b5060405161011138038061011183398101604081905261002f9161003e565b61003881600055565b50610057565b60006020828403121561005057600080fd5b5051919050565b60ac806100656000396000f3fe6080604052348015600f57600080fd5b506004361060325760003560e01c806350d25bcd146037578063e5c19b2d14604c575b600080fd5b60005460405190815260200160405180910390f35b605c6057366004605e565b600055565b005b600060208284031215606f57600080fd5b503591905056fea264697066735822122078f2d1cfb1fc2169d24094e004755acd3db0f40c4e2106bbec49d0b31f6fb2a464736f6c634300080d0033",
  "devdoc": {
    "kind": "dev",
    "methods": {},
    "version": 1
  },
  "userdoc": {
    "kind": "user",
    "methods": {},
    "version": 1
  },
  "storageLayout": {
    "storage": [
      {
        "astId": 3,
        "contract": "contracts/ethregistrar/DummyOracle.sol:DummyOracle",
        "label": "value",
        "offset": 0,
        "slot": "0",
        "type": "t_int256"
      }
    ],
    "types": {
      "t_int256": {
        "encoding": "inplace",
        "label": "int256",
        "numberOfBytes": "32"
      }
    }
  }
}