{
  "address": "0xDa7FCFd2fC368db435BfcF92679Bb8Eae9Ca19D1",
  "abi": [
    {
      "inputs": [
        {
          "internalType": "contract ENS",
          "name": "_registry",
          "type": "address"
        },
        {
          "internalType": "bytes32",
          "name": "_baseNode",
          "type": "bytes32"
        },
        {
          "internalType": "uint256",
          "name": "_proxyDomainDNSLength",
          "type": "uint256"
        }
      ],
      "stateMutability": "nonpayable",
      "type": "constructor"
    },
    {
      "inputs": [
        {
          "internalType": "uint256",
          "name": "len",
          "type": "uint256"
        }
      ],
      "name": "_setProxyDomainDNSLength",
      "outputs": [],
      "stateMutability": "nonpayable",
      "type": "function"
    },
    {
      "inputs": [
        {
          "internalType": "bytes",
          "name": "name",
          "type": "bytes"
        },
        {
          "internalType": "bytes",
          "name": "data",
          "type": "bytes"
        }
      ],
      "name": "resolve",
      "outputs": [
        {
          "internalType": "bytes",
          "name": "",
          "type": "bytes"
        }
      ],
      "stateMutability": "view",
      "type": "function"
    },
    {
      "inputs": [
        {
          "internalType": "bytes4",
          "name": "interfaceID",
          "type": "bytes4"
        }
      ],
      "name": "supportsInterface",
      "outputs": [
        {
          "internalType": "bool",
          "name": "",
          "type": "bool"
        }
      ],
      "stateMutability": "view",
      "type": "function"
    }
  ],
  "transactionHash": "0x2102898184f4098a8fd1155c317ca0c1d7d51b0eeadec1ec4cc36a41ad519860",
  "args": [
    "0xE8E0fFE372608122c10544c2445272eD8E79dbAB",
    "0x739305fdceb24221237c3dea9f36a6fcc8dc81b45730358192886e1510532739",
    15
  ],
  "numDeployments": 1,
  "solcInputHash": "1160dec010022c7d83e4f325ac2bcd3d",
  "bytecode": "0x60c060405234801561001057600080fd5b50604051610be5380380610be583398101604081905261002f91610048565b6001600160a01b0390921660805260a05260005561008b565b60008060006060848603121561005d57600080fd5b83516001600160a01b038116811461007457600080fd5b602085015160409095015190969495509392505050565b60805160a051610b356100b0600039600061021b015260006102890152610b356000f3fe608060405234801561001057600080fd5b50600436106100415760003560e01c806301ffc9a7146100465780639061b9231461006e578063cf558ecb1461008e575b600080fd5b6100596100543660046107b6565b6100a3565b60405190151581526020015b60405180910390f35b61008161007c366004610841565b61013c565b60405161006591906108dd565b6100a161009c36600461092e565b600055565b005b60007fffffffff0000000000000000000000000000000000000000000000000000000082167f9061b92300000000000000000000000000000000000000000000000000000000148061013657507f01ffc9a7000000000000000000000000000000000000000000000000000000007fffffffff000000000000000000000000000000000000000000000000000000008316145b92915050565b60607f3b3b57de0000000000000000000000000000000000000000000000000000000061016d600460008587610947565b61017691610971565b7fffffffff000000000000000000000000000000000000000000000000000000001614610204576040517f08c379a000000000000000000000000000000000000000000000000000000000815260206004820152601e60248201527f6f6e6c792061646472286279746533322920697320737570706f72746564000060448201526064015b60405180910390fd5b60006102108686610439565b9050600061023f82827f00000000000000000000000000000000000000000000000000000000000000006105e7565b6040517f0178b8bf0000000000000000000000000000000000000000000000000000000081526004810182905290915060009073ffffffffffffffffffffffffffffffffffffffff7f00000000000000000000000000000000000000000000000000000000000000001690630178b8bf90602401602060405180830381865afa1580156102d0573d6000803e3d6000fd5b505050506040513d601f19601f820116820180604052508101906102f491906109b9565b905073ffffffffffffffffffffffffffffffffffffffff811661032b57505060408051600081526020810190915291506104319050565b60008173ffffffffffffffffffffffffffffffffffffffff16633b3b57de60e01b8460405160240161035f91815260200190565b604080517fffffffffffffffffffffffffffffffffffffffffffffffffffffffffffffffe08184030181529181526020820180517bffffffffffffffffffffffffffffffffffffffffffffffffffffffff167fffffffff000000000000000000000000000000000000000000000000000000009094169390931790925290516103e89190610a1e565b600060405180830381855afa9150503d8060008114610423576040519150601f19603f3d011682016040523d82523d6000602084013e610428565b606091505b50955050505050505b949350505050565b60005460609082116104a7576040517f08c379a000000000000000000000000000000000000000000000000000000000815260206004820152601a60248201527f6e616d6520646f65736e277420636f6e7461696e2070726f787900000000000060448201526064016101fb565b600080546104b59084610a69565b6104c0906001610a80565b67ffffffffffffffff8111156104d8576104d86109ef565b6040519080825280601f01601f191660200182016040528015610502576020820181803683370190505b50905060005b6000546105159085610a69565b81101561058b5784848281811061052e5761052e610a98565b9050013560f81c60f81b82828151811061054a5761054a610a98565b60200101907effffffffffffffffffffffffffffffffffffffffffffffffffffffffffffff1916908160001a9053508061058381610ac7565b915050610508565b600060f81b826001845161059f9190610a69565b815181106105af576105af610a98565b60200101907effffffffffffffffffffffffffffffffffffffffffffffffffffffffffffff1916908160001a90535090949350505050565b60008060006105f686866106c1565b909250905081610680576001865161060e9190610a69565b8514610676576040517f08c379a000000000000000000000000000000000000000000000000000000000815260206004820152601d60248201527f6e616d65686173683a204a756e6b20617420656e64206f66206e616d6500000060448201526064016101fb565b83925050506106ba565b61068b8682866105e7565b604080516020810192909252810183905260600160405160208183030381529060405280519060200120925050505b9392505050565b6000808351831061072e576040517f08c379a000000000000000000000000000000000000000000000000000000000815260206004820152601e60248201527f726561644c6162656c3a20496e646578206f7574206f6620626f756e6473000060448201526064016101fb565b600084848151811061074257610742610a98565b016020015160f81c9050801561076e5761076785610761866001610a80565b83610792565b9250610773565b600092505b61077d8185610a80565b610788906001610a80565b9150509250929050565b82516000906107a18385610a80565b11156107ac57600080fd5b5091016020012090565b6000602082840312156107c857600080fd5b81357fffffffff00000000000000000000000000000000000000000000000000000000811681146106ba57600080fd5b60008083601f84011261080a57600080fd5b50813567ffffffffffffffff81111561082257600080fd5b60208301915083602082850101111561083a57600080fd5b9250929050565b6000806000806040858703121561085757600080fd5b843567ffffffffffffffff8082111561086f57600080fd5b61087b888389016107f8565b9096509450602087013591508082111561089457600080fd5b506108a1878288016107f8565b95989497509550505050565b60005b838110156108c85781810151838201526020016108b0565b838111156108d7576000848401525b50505050565b60208152600082518060208401526108fc8160408501602087016108ad565b601f017fffffffffffffffffffffffffffffffffffffffffffffffffffffffffffffffe0169190910160400192915050565b60006020828403121561094057600080fd5b5035919050565b6000808585111561095757600080fd5b8386111561096457600080fd5b5050820193919092039150565b7fffffffff0000000000000000000000000000000000000000000000000000000081358181169160048510156109b15780818660040360031b1b83161692505b505092915050565b6000602082840312156109cb57600080fd5b815173ffffffffffffffffffffffffffffffffffffffff811681146106ba57600080fd5b7f4e487b7100000000000000000000000000000000000000000000000000000000600052604160045260246000fd5b60008251610a308184602087016108ad565b9190910192915050565b7f4e487b7100000000000000000000000000000000000000000000000000000000600052601160045260246000fd5b600082821015610a7b57610a7b610a3a565b500390565b60008219821115610a9357610a93610a3a565b500190565b7f4e487b7100000000000000000000000000000000000000000000000000000000600052603260045260246000fd5b60007fffffffffffffffffffffffffffffffffffffffffffffffffffffffffffffffff8203610af857610af8610a3a565b506001019056fea26469706673582212206f2fe893f812fae747089154a3d4c3a8466ea6759ac71a866a0fd68edf52a84564736f6c634300080d0033",
  "devdoc": {
    "kind": "dev",
    "methods": {},
    "version": 1
  },
  "userdoc": {
    "kind": "user",
    "methods": {},
    "version": 1
  },
  "storageLayout": {
    "storage": [
      {
        "astId": 14143,
        "contract": "contracts/resolvers/ENSProxyResolver.sol:ENSProxyResolver",
        "label": "proxyDomainDNSLength",
        "offset": 0,
        "slot": "0",
        "type": "t_uint256"
      }
    ],
    "types": {
      "t_uint256": {
        "encoding": "inplace",
        "label": "uint256",
        "numberOfBytes": "32"
      }
    }
  }
}