{
  "address": "0x9D2EEDCCd1E6Ad0F0C4e1dA729b3cc43816Ec676",
  "abi": [
    {
      "inputs": [
        {
          "internalType": "contract ENS",
          "name": "_registry",
          "type": "address"
        },
        {
          "internalType": "bytes32",
          "name": "_baseNode",
          "type": "bytes32"
        },
        {
          "internalType": "uint256",
          "name": "_proxyDomainDNSLength",
          "type": "uint256"
        }
      ],
      "stateMutability": "nonpayable",
      "type": "constructor"
    },
    {
      "inputs": [
        {
          "internalType": "bytes",
          "name": "name",
          "type": "bytes"
        },
        {
          "internalType": "bytes",
          "name": "data",
          "type": "bytes"
        }
      ],
      "name": "resolve",
      "outputs": [
        {
          "internalType": "bytes",
          "name": "",
          "type": "bytes"
        }
      ],
      "stateMutability": "view",
      "type": "function"
    },
    {
      "inputs": [
        {
          "internalType": "bytes4",
          "name": "interfaceID",
          "type": "bytes4"
        }
      ],
      "name": "supportsInterface",
      "outputs": [
        {
          "internalType": "bool",
          "name": "",
          "type": "bool"
        }
      ],
      "stateMutability": "view",
      "type": "function"
    }
  ],
  "transactionHash": "0x7a3206893957c600ecbf3684909aa93e08cc305a378a4a9b729100bbe3a3560a",
  "args": [
    "0xE8E0fFE372608122c10544c2445272eD8E79dbAB",
    "0x739305fdceb24221237c3dea9f36a6fcc8dc81b45730358192886e1510532739",
    15
  ],
  "numDeployments": 2,
  "solcInputHash": "5f5146659eb70f1e1b98acb3a923d3ea",
  "bytecode": "0x60c060405234801561001057600080fd5b50604051610bac380380610bac83398101604081905261002f91610048565b6001600160a01b0390921660805260a05260005561008b565b60008060006060848603121561005d57600080fd5b83516001600160a01b038116811461007457600080fd5b602085015160409095015190969495509392505050565b60805160a051610afc6100b060003960006101fb015260006102690152610afc6000f3fe608060405234801561001057600080fd5b50600436106100365760003560e01c806301ffc9a71461003b5780639061b92314610063575b600080fd5b61004e610049366004610796565b610083565b60405190151581526020015b60405180910390f35b610076610071366004610821565b61011c565b60405161005a91906108bd565b60007fffffffff0000000000000000000000000000000000000000000000000000000082167f9061b92300000000000000000000000000000000000000000000000000000000148061011657507f01ffc9a7000000000000000000000000000000000000000000000000000000007fffffffff000000000000000000000000000000000000000000000000000000008316145b92915050565b60607f3b3b57de0000000000000000000000000000000000000000000000000000000061014d60046000858761090e565b61015691610938565b7fffffffff0000000000000000000000000000000000000000000000000000000016146101e4576040517f08c379a000000000000000000000000000000000000000000000000000000000815260206004820152601e60248201527f6f6e6c792061646472286279746533322920697320737570706f72746564000060448201526064015b60405180910390fd5b60006101f08686610419565b9050600061021f82827f00000000000000000000000000000000000000000000000000000000000000006105c7565b6040517f0178b8bf0000000000000000000000000000000000000000000000000000000081526004810182905290915060009073ffffffffffffffffffffffffffffffffffffffff7f00000000000000000000000000000000000000000000000000000000000000001690630178b8bf90602401602060405180830381865afa1580156102b0573d6000803e3d6000fd5b505050506040513d601f19601f820116820180604052508101906102d49190610980565b905073ffffffffffffffffffffffffffffffffffffffff811661030b57505060408051600081526020810190915291506104119050565b60008173ffffffffffffffffffffffffffffffffffffffff16633b3b57de60e01b8460405160240161033f91815260200190565b604080517fffffffffffffffffffffffffffffffffffffffffffffffffffffffffffffffe08184030181529181526020820180517bffffffffffffffffffffffffffffffffffffffffffffffffffffffff167fffffffff000000000000000000000000000000000000000000000000000000009094169390931790925290516103c891906109e5565b600060405180830381855afa9150503d8060008114610403576040519150601f19603f3d011682016040523d82523d6000602084013e610408565b606091505b50955050505050505b949350505050565b6000546060908211610487576040517f08c379a000000000000000000000000000000000000000000000000000000000815260206004820152601a60248201527f6e616d6520646f65736e277420636f6e7461696e2070726f787900000000000060448201526064016101db565b600080546104959084610a30565b6104a0906001610a47565b67ffffffffffffffff8111156104b8576104b86109b6565b6040519080825280601f01601f1916602001820160405280156104e2576020820181803683370190505b50905060005b6000546104f59085610a30565b81101561056b5784848281811061050e5761050e610a5f565b9050013560f81c60f81b82828151811061052a5761052a610a5f565b60200101907effffffffffffffffffffffffffffffffffffffffffffffffffffffffffffff1916908160001a9053508061056381610a8e565b9150506104e8565b600060f81b826001845161057f9190610a30565b8151811061058f5761058f610a5f565b60200101907effffffffffffffffffffffffffffffffffffffffffffffffffffffffffffff1916908160001a90535090949350505050565b60008060006105d686866106a1565b90925090508161066057600186516105ee9190610a30565b8514610656576040517f08c379a000000000000000000000000000000000000000000000000000000000815260206004820152601d60248201527f6e616d65686173683a204a756e6b20617420656e64206f66206e616d6500000060448201526064016101db565b839250505061069a565b61066b8682866105c7565b604080516020810192909252810183905260600160405160208183030381529060405280519060200120925050505b9392505050565b6000808351831061070e576040517f08c379a000000000000000000000000000000000000000000000000000000000815260206004820152601e60248201527f726561644c6162656c3a20496e646578206f7574206f6620626f756e6473000060448201526064016101db565b600084848151811061072257610722610a5f565b016020015160f81c9050801561074e5761074785610741866001610a47565b83610772565b9250610753565b600092505b61075d8185610a47565b610768906001610a47565b9150509250929050565b82516000906107818385610a47565b111561078c57600080fd5b5091016020012090565b6000602082840312156107a857600080fd5b81357fffffffff000000000000000000000000000000000000000000000000000000008116811461069a57600080fd5b60008083601f8401126107ea57600080fd5b50813567ffffffffffffffff81111561080257600080fd5b60208301915083602082850101111561081a57600080fd5b9250929050565b6000806000806040858703121561083757600080fd5b843567ffffffffffffffff8082111561084f57600080fd5b61085b888389016107d8565b9096509450602087013591508082111561087457600080fd5b50610881878288016107d8565b95989497509550505050565b60005b838110156108a8578181015183820152602001610890565b838111156108b7576000848401525b50505050565b60208152600082518060208401526108dc81604085016020870161088d565b601f017fffffffffffffffffffffffffffffffffffffffffffffffffffffffffffffffe0169190910160400192915050565b6000808585111561091e57600080fd5b8386111561092b57600080fd5b5050820193919092039150565b7fffffffff0000000000000000000000000000000000000000000000000000000081358181169160048510156109785780818660040360031b1b83161692505b505092915050565b60006020828403121561099257600080fd5b815173ffffffffffffffffffffffffffffffffffffffff8116811461069a57600080fd5b7f4e487b7100000000000000000000000000000000000000000000000000000000600052604160045260246000fd5b600082516109f781846020870161088d565b9190910192915050565b7f4e487b7100000000000000000000000000000000000000000000000000000000600052601160045260246000fd5b600082821015610a4257610a42610a01565b500390565b60008219821115610a5a57610a5a610a01565b500190565b7f4e487b7100000000000000000000000000000000000000000000000000000000600052603260045260246000fd5b60007fffffffffffffffffffffffffffffffffffffffffffffffffffffffffffffffff8203610abf57610abf610a01565b506001019056fea264697066735822122006c4791517df20fbc12645346c6a2633515532546c67a2943864c66e2648e6a064736f6c634300080d0033",
  "devdoc": {
    "kind": "dev",
    "methods": {},
    "version": 1
  },
  "userdoc": {
    "kind": "user",
    "methods": {},
    "version": 1
  },
  "storageLayout": {
    "storage": [
      {
        "astId": 14229,
        "contract": "contracts/resolvers/ENSProxyResolver.sol:ENSProxyResolver",
        "label": "proxyDomainDNSLength",
        "offset": 0,
        "slot": "0",
        "type": "t_uint256"
      }
    ],
    "types": {
      "t_uint256": {
        "encoding": "inplace",
        "label": "uint256",
        "numberOfBytes": "32"
      }
    }
  }
}