{
  "address": "0x7690388d4872D984890E50513069048b828A3474",
  "abi": [
    {
      "inputs": [
        {
          "internalType": "contract BaseRegistrarImplementation",
          "name": "_base",
          "type": "address"
        },
        {
          "internalType": "address",
          "name": "_signer",
          "type": "address"
        }
      ],
      "stateMutability": "nonpayable",
      "type": "constructor"
    },
    {
      "anonymous": false,
      "inputs": [
        {
          "indexed": false,
          "internalType": "string",
          "name": "name",
          "type": "string"
        },
        {
          "indexed": true,
          "internalType": "bytes32",
          "name": "label",
          "type": "bytes32"
        },
        {
          "indexed": true,
          "internalType": "address",
          "name": "owner",
          "type": "address"
        }
      ],
      "name": "NameRegistered",
      "type": "event"
    },
    {
      "anonymous": false,
      "inputs": [
        {
          "indexed": true,
          "internalType": "address",
          "name": "previousOwner",
          "type": "address"
        },
        {
          "indexed": true,
          "internalType": "address",
          "name": "newOwner",
          "type": "address"
        }
      ],
      "name": "OwnershipTransferred",
      "type": "event"
    },
    {
      "inputs": [],
      "name": "owner",
      "outputs": [
        {
          "internalType": "address",
          "name": "",
          "type": "address"
        }
      ],
      "stateMutability": "view",
      "type": "function"
    },
    {
      "inputs": [
        {
          "internalType": "uint16",
          "name": "number",
          "type": "uint16"
        },
        {
          "internalType": "uint256",
          "name": "nonce",
          "type": "uint256"
        },
        {
          "internalType": "uint256",
          "name": "expiry",
          "type": "uint256"
        },
        {
          "internalType": "address",
          "name": "resolver",
          "type": "address"
        },
        {
          "internalType": "address",
          "name": "addr",
          "type": "address"
        },
        {
          "internalType": "bytes",
          "name": "signature",
          "type": "bytes"
        }
      ],
      "name": "register",
      "outputs": [],
      "stateMutability": "nonpayable",
      "type": "function"
    },
    {
      "inputs": [],
      "name": "renounceOwnership",
      "outputs": [],
      "stateMutability": "nonpayable",
      "type": "function"
    },
    {
      "inputs": [
        {
          "internalType": "address",
          "name": "newOwner",
          "type": "address"
        }
      ],
      "name": "transferOwnership",
      "outputs": [],
      "stateMutability": "nonpayable",
      "type": "function"
    }
  ],
  "transactionHash": "0x7cfef495c6e23e0fc4d815ebe2d0cd48af1d42495785ff6e61b5d0c156a9ebfa",
  "args": [
    "0x8f701658C32FC0Eb2B9e3ec536910739169b06bc",
    "0x9283DE2Ef7939c297Ec6aFA608e5a6b4eE4025cc"
  ],
  "numDeployments": 2,
  "solcInputHash": "5f5146659eb70f1e1b98acb3a923d3ea",
  "bytecode": "0x60806040523480156200001157600080fd5b506040516200164f3803806200164f8339810160408190526200003491620000da565b6200003f3362000071565b600180546001600160a01b039384166001600160a01b0319918216179091556002805492909316911617905562000119565b600080546001600160a01b038381166001600160a01b0319831681178455604051919092169283917f8be0079c531659141344cd1fd0a4f28419497f9722a3daafe3b4186f6b6457e09190a35050565b6001600160a01b0381168114620000d757600080fd5b50565b60008060408385031215620000ee57600080fd5b8251620000fb81620000c1565b60208401519092506200010e81620000c1565b809150509250929050565b61152680620001296000396000f3fe608060405234801561001057600080fd5b506004361061004c5760003560e01c8063715018a6146100515780638da5cb5b1461005b578063c509770c14610087578063f2fde38b1461009a575b600080fd5b6100596100ad565b005b6000546040805173ffffffffffffffffffffffffffffffffffffffff9092168252519081900360200190f35b610059610095366004611196565b6100c1565b6100596100a83660046112b6565b610392565b6100b5610449565b6100bf60006104ca565b565b33600090815260036020908152604080832088845290915290205460ff161561014b576040517f08c379a000000000000000000000000000000000000000000000000000000000815260206004820152601260248201527f6e6f6e636520616c72656164792075736564000000000000000000000000000060448201526064015b60405180910390fd5b6040805133606090811b7fffffffffffffffffffffffffffffffffffffffff00000000000000000000000090811660208085019190915260f08b901b7fffff000000000000000000000000000000000000000000000000000000000000166034850152603684018a90526056840189905287831b821660768501529186901b16608a8301528251607e818403018152609e830184528051908201207f19457468657265756d205369676e6564204d6573736167653a0a33320000000060be84015260da8084018290528451808503909101815260fa9093019093528151910120600090610238908461053f565b60025490915073ffffffffffffffffffffffffffffffffffffffff8083169116146102bf576040517f08c379a000000000000000000000000000000000000000000000000000000000815260206004820152601160248201527f696e76616c6964207369676e61747572650000000000000000000000000000006044820152606401610142565b428611610328576040517f08c379a000000000000000000000000000000000000000000000000000000000815260206004820152600760248201527f65787069726564000000000000000000000000000000000000000000000000006044820152606401610142565b60006103378961ffff16610563565b3360009081526003602090815260408083208c8452909152902080547fffffffffffffffffffffffffffffffffffffffffffffffffffffffffffffff0016600117905590506103878187876106a0565b505050505050505050565b61039a610449565b73ffffffffffffffffffffffffffffffffffffffff811661043d576040517f08c379a000000000000000000000000000000000000000000000000000000000815260206004820152602660248201527f4f776e61626c653a206e6577206f776e657220697320746865207a65726f206160448201527f64647265737300000000000000000000000000000000000000000000000000006064820152608401610142565b610446816104ca565b50565b60005473ffffffffffffffffffffffffffffffffffffffff1633146100bf576040517f08c379a000000000000000000000000000000000000000000000000000000000815260206004820181905260248201527f4f776e61626c653a2063616c6c6572206973206e6f7420746865206f776e65726044820152606401610142565b6000805473ffffffffffffffffffffffffffffffffffffffff8381167fffffffffffffffffffffffff0000000000000000000000000000000000000000831681178455604051919092169283917f8be0079c531659141344cd1fd0a4f28419497f9722a3daafe3b4186f6b6457e09190a35050565b600080600061054e8585610c79565b9150915061055b81610ce7565b509392505050565b6060816000036105a657505060408051808201909152600181527f3000000000000000000000000000000000000000000000000000000000000000602082015290565b8160005b81156105d057806105ba81611309565b91506105c99050600a83611370565b91506105aa565b60008167ffffffffffffffff8111156105eb576105eb611167565b6040519080825280601f01601f191660200182016040528015610615576020820181803683370190505b5090505b84156106985761062a600183611384565b9150610637600a8661139b565b6106429060306113af565b60f81b818381518110610657576106576113c7565b60200101907effffffffffffffffffffffffffffffffffffffffffffffffffffffffffffff1916908160001a905350610691600a86611370565b9450610619565b949350505050565b6106a983610f3b565b61070f576040517f08c379a000000000000000000000000000000000000000000000000000000000815260206004820152601260248201527f6e616d65206e6f7420617661696c61626c6500000000000000000000000000006044820152606401610142565b825160208401208073ffffffffffffffffffffffffffffffffffffffff841615610b77576001546040517fdbbdf0830000000000000000000000000000000000000000000000000000000081526004810183905230602482015273ffffffffffffffffffffffffffffffffffffffff9091169063dbbdf08390604401600060405180830381600087803b1580156107a557600080fd5b505af11580156107b9573d6000803e3d6000fd5b505050506000600160009054906101000a900473ffffffffffffffffffffffffffffffffffffffff1673ffffffffffffffffffffffffffffffffffffffff1663ddf7fcb06040518163ffffffff1660e01b8152600401602060405180830381865afa15801561082c573d6000803e3d6000fd5b505050506040513d601f19601f8201168201806040525081019061085091906113f6565b6040805160208101929092528101849052606001604080517fffffffffffffffffffffffffffffffffffffffffffffffffffffffffffffffe081840301815282825280516020918201206001547f3f15457f000000000000000000000000000000000000000000000000000000008552925190945073ffffffffffffffffffffffffffffffffffffffff90921692633f15457f92600480830193928290030181865afa158015610904573d6000803e3d6000fd5b505050506040513d601f19601f82011682018060405250810190610928919061140f565b6040517f1896f70a0000000000000000000000000000000000000000000000000000000081526004810183905273ffffffffffffffffffffffffffffffffffffffff87811660248301529190911690631896f70a90604401600060405180830381600087803b15801561099a57600080fd5b505af11580156109ae573d6000803e3d6000fd5b5050505073ffffffffffffffffffffffffffffffffffffffff841615610a57576040517fd5fa2b000000000000000000000000000000000000000000000000000000000081526004810182905273ffffffffffffffffffffffffffffffffffffffff858116602483015286169063d5fa2b0090604401600060405180830381600087803b158015610a3e57600080fd5b505af1158015610a52573d6000803e3d6000fd5b505050505b6001546040517f28ed4f6c0000000000000000000000000000000000000000000000000000000081526004810184905233602482015273ffffffffffffffffffffffffffffffffffffffff909116906328ed4f6c90604401600060405180830381600087803b158015610ac957600080fd5b505af1158015610add573d6000803e3d6000fd5b50506001546040517f23b872dd0000000000000000000000000000000000000000000000000000000081523060048201523360248201526044810186905273ffffffffffffffffffffffffffffffffffffffff90911692506323b872dd9150606401600060405180830381600087803b158015610b5957600080fd5b505af1158015610b6d573d6000803e3d6000fd5b5050505050610c23565b73ffffffffffffffffffffffffffffffffffffffff831615610b9857600080fd5b6001546040517fdbbdf0830000000000000000000000000000000000000000000000000000000081526004810183905233602482015273ffffffffffffffffffffffffffffffffffffffff9091169063dbbdf08390604401600060405180830381600087803b158015610c0a57600080fd5b505af1158015610c1e573d6000803e3d6000fd5b505050505b3373ffffffffffffffffffffffffffffffffffffffff16827f949d23b49bd03f2681389f579003c80eeb63fea84d0c36204dab1be09378521687604051610c6a919061142c565b60405180910390a35050505050565b6000808251604103610caf5760208301516040840151606085015160001a610ca387828585610fdb565b94509450505050610ce0565b8251604003610cd85760208301516040840151610ccd8683836110f3565b935093505050610ce0565b506000905060025b9250929050565b6000816004811115610cfb57610cfb61149f565b03610d035750565b6001816004811115610d1757610d1761149f565b03610d7e576040517f08c379a000000000000000000000000000000000000000000000000000000000815260206004820152601860248201527f45434453413a20696e76616c6964207369676e617475726500000000000000006044820152606401610142565b6002816004811115610d9257610d9261149f565b03610df9576040517f08c379a000000000000000000000000000000000000000000000000000000000815260206004820152601f60248201527f45434453413a20696e76616c6964207369676e6174757265206c656e677468006044820152606401610142565b6003816004811115610e0d57610e0d61149f565b03610e9a576040517f08c379a000000000000000000000000000000000000000000000000000000000815260206004820152602260248201527f45434453413a20696e76616c6964207369676e6174757265202773272076616c60448201527f75650000000000000000000000000000000000000000000000000000000000006064820152608401610142565b6004816004811115610eae57610eae61149f565b03610446576040517f08c379a000000000000000000000000000000000000000000000000000000000815260206004820152602260248201527f45434453413a20696e76616c6964207369676e6174757265202776272076616c60448201527f75650000000000000000000000000000000000000000000000000000000000006064820152608401610142565b805160208201206001546040517f96e494e80000000000000000000000000000000000000000000000000000000081526004810183905260009291829173ffffffffffffffffffffffffffffffffffffffff909116906396e494e890602401602060405180830381865afa158015610fb7573d6000803e3d6000fd5b505050506040513d601f19601f8201168201806040525081019061069891906114ce565b6000807f7fffffffffffffffffffffffffffffff5d576e7357a4501ddfe92f46681b20a083111561101257506000905060036110ea565b8460ff16601b1415801561102a57508460ff16601c14155b1561103b57506000905060046110ea565b6040805160008082526020820180845289905260ff881692820192909252606081018690526080810185905260019060a0016020604051602081039080840390855afa15801561108f573d6000803e3d6000fd5b50506040517fffffffffffffffffffffffffffffffffffffffffffffffffffffffffffffffe0015191505073ffffffffffffffffffffffffffffffffffffffff81166110e3576000600192509250506110ea565b9150600090505b94509492505050565b6000807f7fffffffffffffffffffffffffffffffffffffffffffffffffffffffffffffff83168161112960ff86901c601b6113af565b905061113787828885610fdb565b935093505050935093915050565b73ffffffffffffffffffffffffffffffffffffffff8116811461044657600080fd5b7f4e487b7100000000000000000000000000000000000000000000000000000000600052604160045260246000fd5b60008060008060008060c087890312156111af57600080fd5b863561ffff811681146111c157600080fd5b9550602087013594506040870135935060608701356111df81611145565b925060808701356111ef81611145565b915060a087013567ffffffffffffffff8082111561120c57600080fd5b818901915089601f83011261122057600080fd5b81358181111561123257611232611167565b604051601f82017fffffffffffffffffffffffffffffffffffffffffffffffffffffffffffffffe0908116603f0116810190838211818310171561127857611278611167565b816040528281528c602084870101111561129157600080fd5b8260208601602083013760006020848301015280955050505050509295509295509295565b6000602082840312156112c857600080fd5b81356112d381611145565b9392505050565b7f4e487b7100000000000000000000000000000000000000000000000000000000600052601160045260246000fd5b60007fffffffffffffffffffffffffffffffffffffffffffffffffffffffffffffffff820361133a5761133a6112da565b5060010190565b7f4e487b7100000000000000000000000000000000000000000000000000000000600052601260045260246000fd5b60008261137f5761137f611341565b500490565b600082821015611396576113966112da565b500390565b6000826113aa576113aa611341565b500690565b600082198211156113c2576113c26112da565b500190565b7f4e487b7100000000000000000000000000000000000000000000000000000000600052603260045260246000fd5b60006020828403121561140857600080fd5b5051919050565b60006020828403121561142157600080fd5b81516112d381611145565b600060208083528351808285015260005b818110156114595785810183015185820160400152820161143d565b8181111561146b576000604083870101525b50601f017fffffffffffffffffffffffffffffffffffffffffffffffffffffffffffffffe016929092016040019392505050565b7f4e487b7100000000000000000000000000000000000000000000000000000000600052602160045260246000fd5b6000602082840312156114e057600080fd5b815180151581146112d357600080fdfea26469706673582212206c48c7326a667842bfaec5681c1b615ca5b4510b0e1490695c8876ab1f3cca1964736f6c634300080d0033",
  "devdoc": {
    "kind": "dev",
    "methods": {
      "owner()": {
        "details": "Returns the address of the current owner."
      },
      "renounceOwnership()": {
        "details": "Leaves the contract without owner. It will not be possible to call `onlyOwner` functions anymore. Can only be called by the current owner. NOTE: Renouncing ownership will leave the contract without an owner, thereby removing any functionality that is only available to the owner."
      },
      "transferOwnership(address)": {
        "details": "Transfers ownership of the contract to a new account (`newOwner`). Can only be called by the current owner."
      }
    },
    "version": 1
  },
  "userdoc": {
    "kind": "user",
    "methods": {},
    "version": 1
  },
  "storageLayout": {
    "storage": [
      {
        "astId": 545,
        "contract": "contracts/ethregistrar/NounishClubController.sol:NounishClubController",
        "label": "_owner",
        "offset": 0,
        "slot": "0",
        "type": "t_address"
      },
      {
        "astId": 12059,
        "contract": "contracts/ethregistrar/NounishClubController.sol:NounishClubController",
        "label": "base",
        "offset": 0,
        "slot": "1",
        "type": "t_contract(BaseRegistrarImplementation)10534"
      },
      {
        "astId": 12061,
        "contract": "contracts/ethregistrar/NounishClubController.sol:NounishClubController",
        "label": "signer",
        "offset": 0,
        "slot": "2",
        "type": "t_address"
      },
      {
        "astId": 12067,
        "contract": "contracts/ethregistrar/NounishClubController.sol:NounishClubController",
        "label": "usedNonces",
        "offset": 0,
        "slot": "3",
        "type": "t_mapping(t_address,t_mapping(t_uint256,t_bool))"
      }
    ],
    "types": {
      "t_address": {
        "encoding": "inplace",
        "label": "address",
        "numberOfBytes": "20"
      },
      "t_bool": {
        "encoding": "inplace",
        "label": "bool",
        "numberOfBytes": "1"
      },
      "t_contract(BaseRegistrarImplementation)10534": {
        "encoding": "inplace",
        "label": "contract BaseRegistrarImplementation",
        "numberOfBytes": "20"
      },
      "t_mapping(t_address,t_mapping(t_uint256,t_bool))": {
        "encoding": "mapping",
        "key": "t_address",
        "label": "mapping(address => mapping(uint256 => bool))",
        "numberOfBytes": "32",
        "value": "t_mapping(t_uint256,t_bool)"
      },
      "t_mapping(t_uint256,t_bool)": {
        "encoding": "mapping",
        "key": "t_uint256",
        "label": "mapping(uint256 => bool)",
        "numberOfBytes": "32",
        "value": "t_bool"
      },
      "t_uint256": {
        "encoding": "inplace",
        "label": "uint256",
        "numberOfBytes": "32"
      }
    }
  }
}