{
  "address": "0x3c802c0000e936a7a39784a120C0Fb8A524A9901",
  "abi": [
    {
      "inputs": [
        {
          "internalType": "contract BaseRegistrarImplementation",
          "name": "_base",
          "type": "address"
        },
        {
          "internalType": "uint256",
          "name": "_maxDigits",
          "type": "uint256"
        }
      ],
      "stateMutability": "nonpayable",
      "type": "constructor"
    },
    {
      "anonymous": false,
      "inputs": [
        {
          "indexed": false,
          "internalType": "string",
          "name": "name",
          "type": "string"
        },
        {
          "indexed": true,
          "internalType": "bytes32",
          "name": "label",
          "type": "bytes32"
        },
        {
          "indexed": true,
          "internalType": "address",
          "name": "owner",
          "type": "address"
        }
      ],
      "name": "NameRegistered",
      "type": "event"
    },
    {
      "anonymous": false,
      "inputs": [
        {
          "indexed": true,
          "internalType": "address",
          "name": "previousOwner",
          "type": "address"
        },
        {
          "indexed": true,
          "internalType": "address",
          "name": "newOwner",
          "type": "address"
        }
      ],
      "name": "OwnershipTransferred",
      "type": "event"
    },
    {
      "inputs": [
        {
          "internalType": "uint256[]",
          "name": "tokenIds",
          "type": "uint256[]"
        }
      ],
      "name": "addToDenyList",
      "outputs": [],
      "stateMutability": "nonpayable",
      "type": "function"
    },
    {
      "inputs": [
        {
          "internalType": "address",
          "name": "owner",
          "type": "address"
        },
        {
          "internalType": "uint256",
          "name": "currentTimestamp",
          "type": "uint256"
        }
      ],
      "name": "claimsCount",
      "outputs": [
        {
          "internalType": "uint64",
          "name": "",
          "type": "uint64"
        }
      ],
      "stateMutability": "view",
      "type": "function"
    },
    {
      "inputs": [
        {
          "internalType": "address[]",
          "name": "owners",
          "type": "address[]"
        },
        {
          "internalType": "uint64",
          "name": "expiry",
          "type": "uint64"
        }
      ],
      "name": "createClaims",
      "outputs": [],
      "stateMutability": "nonpayable",
      "type": "function"
    },
    {
      "inputs": [
        {
          "internalType": "uint256",
          "name": "",
          "type": "uint256"
        }
      ],
      "name": "denyList",
      "outputs": [
        {
          "internalType": "bool",
          "name": "",
          "type": "bool"
        }
      ],
      "stateMutability": "view",
      "type": "function"
    },
    {
      "inputs": [],
      "name": "owner",
      "outputs": [
        {
          "internalType": "address",
          "name": "",
          "type": "address"
        }
      ],
      "stateMutability": "view",
      "type": "function"
    },
    {
      "inputs": [
        {
          "internalType": "address",
          "name": "resolver",
          "type": "address"
        },
        {
          "internalType": "address",
          "name": "addr",
          "type": "address"
        }
      ],
      "name": "register",
      "outputs": [],
      "stateMutability": "nonpayable",
      "type": "function"
    },
    {
      "inputs": [
        {
          "internalType": "uint256[]",
          "name": "tokenIds",
          "type": "uint256[]"
        }
      ],
      "name": "removeFromDenyList",
      "outputs": [],
      "stateMutability": "nonpayable",
      "type": "function"
    },
    {
      "inputs": [],
      "name": "renounceOwnership",
      "outputs": [],
      "stateMutability": "nonpayable",
      "type": "function"
    },
    {
      "inputs": [
        {
          "internalType": "address",
          "name": "newOwner",
          "type": "address"
        }
      ],
      "name": "transferOwnership",
      "outputs": [],
      "stateMutability": "nonpayable",
      "type": "function"
    }
  ],
  "transactionHash": "0xfbf6c012b83def50bbda802fd8643a27e7e83b23adb4c7a37919025fd23a1c3f",
  "args": [
    "0x8f701658C32FC0Eb2B9e3ec536910739169b06bc",
    4
  ],
  "numDeployments": 1,
  "solcInputHash": "32a8a29ab53b0d8b6cda7c3097b5b07d",
  "bytecode": "0x60806040523480156200001157600080fd5b5060405162001712380380620017128339810160408190526200003491620000c8565b6200003f3362000078565b600380546001600160a01b0319166001600160a01b03841617905560048190556200006c81600a62000219565b600555506200022e9050565b600080546001600160a01b038381166001600160a01b0319831681178455604051919092169283917f8be0079c531659141344cd1fd0a4f28419497f9722a3daafe3b4186f6b6457e09190a35050565b60008060408385031215620000dc57600080fd5b82516001600160a01b0381168114620000f457600080fd5b6020939093015192949293505050565b634e487b7160e01b600052601160045260246000fd5b600181815b808511156200015b5781600019048211156200013f576200013f62000104565b808516156200014d57918102915b93841c93908002906200011f565b509250929050565b600082620001745750600162000213565b81620001835750600062000213565b81600181146200019c5760028114620001a757620001c7565b600191505062000213565b60ff841115620001bb57620001bb62000104565b50506001821b62000213565b5060208310610133831016604e8410600b8410161715620001ec575081810a62000213565b620001f883836200011a565b80600019048211156200020f576200020f62000104565b0290505b92915050565b600062000227838362000163565b9392505050565b6114d4806200023e6000396000f3fe608060405234801561001057600080fd5b50600436106100a35760003560e01c80638da5cb5b11610076578063cf22dbae1161005b578063cf22dbae14610144578063efbc5b1514610157578063f2fde38b1461018a57600080fd5b80638da5cb5b14610109578063aa6773541461013157600080fd5b80630edeee51146100a857806341e7df60146100bd5780636fb9c536146100d0578063715018a614610101575b600080fd5b6100bb6100b6366004611114565b61019d565b005b6100bb6100cb366004611114565b61021c565b6100e36100de366004611178565b610285565b60405167ffffffffffffffff90911681526020015b60405180910390f35b6100bb610372565b60005460405173ffffffffffffffffffffffffffffffffffffffff90911681526020016100f8565b6100bb61013f3660046111a4565b610386565b6100bb6101523660046111dd565b6103a5565b61017a61016536600461123c565b60016020526000908152604090205460ff1681565b60405190151581526020016100f8565b6100bb610198366004611255565b610440565b6101a56104fc565b60005b8181101561021757600160008484848181106101c6576101c6611279565b6020908102929092013583525081019190915260400160002080547fffffffffffffffffffffffffffffffffffffffffffffffffffffffffffffff001690558061020f816112d7565b9150506101a8565b505050565b6102246104fc565b60005b8181101561021757600180600085858581811061024657610246611279565b90506020020135815260200190815260200160002060006101000a81548160ff021916908315150217905550808061027d906112d7565b915050610227565b73ffffffffffffffffffffffffffffffffffffffff821660009081526002602090815260408083208054825181850281018501909352808352849384939291908301828280156102f457602002820191906000526020600020905b8154815260200190600101908083116102e0575b5050505050905060005b81518167ffffffffffffffff161015610368576000828267ffffffffffffffff168151811061032f5761032f611279565b6020026020010151905061034281871090565b1561035557836103518161130f565b9450505b50806103608161130f565b9150506102fe565b5090949350505050565b61037a6104fc565b610384600061057d565b565b60006103986103936105f2565b61075b565b9050610217818484610874565b6103ad6104fc565b60005b8281101561043a57600260008585848181106103ce576103ce611279565b90506020020160208101906103e39190611255565b73ffffffffffffffffffffffffffffffffffffffff1681526020808201929092526040016000908120805460018101825590825291902067ffffffffffffffff841691015580610432816112d7565b9150506103b0565b50505050565b6104486104fc565b73ffffffffffffffffffffffffffffffffffffffff81166104f0576040517f08c379a000000000000000000000000000000000000000000000000000000000815260206004820152602660248201527f4f776e61626c653a206e6577206f776e657220697320746865207a65726f206160448201527f646472657373000000000000000000000000000000000000000000000000000060648201526084015b60405180910390fd5b6104f98161057d565b50565b60005473ffffffffffffffffffffffffffffffffffffffff163314610384576040517f08c379a000000000000000000000000000000000000000000000000000000000815260206004820181905260248201527f4f776e61626c653a2063616c6c6572206973206e6f7420746865206f776e657260448201526064016104e7565b6000805473ffffffffffffffffffffffffffffffffffffffff8381167fffffffffffffffffffffffff0000000000000000000000000000000000000000831681178455604051919092169283917f8be0079c531659141344cd1fd0a4f28419497f9722a3daafe3b4186f6b6457e09190a35050565b6000806005541161065f576040517f08c379a000000000000000000000000000000000000000000000000000000000815260206004820152600d60248201527f4e6f206e616d6573206c6566740000000000000000000000000000000000000060448201526064016104e7565b600061066c600143611336565b60408051914060208301527fffffffffffffffffffffffffffffffffffffffff0000000000000000000000003360601b16908201526054016040516020818303038152906040528051906020012060001c90506000600554826106cf919061137c565b905060006106e08261ffff16610e55565b90506106f960016005546106f49190611336565b610e55565b600660008461ffff1681526020019081526020016000208190555060006006600060016005546107299190611336565b81526020019081526020016000208190555060016005600082825461074e9190611336565b9091555090949350505050565b6060600060045467ffffffffffffffff81111561077a5761077a611390565b6040519080825280601f01601f1916602001820160405280156107a4576020820181803683370190505b50905060005b60045481101561086d577f30313233343536373839000000000000000000000000000000000000000000006107e0600a8661137c565b601081106107f0576107f0611279565b1a60f81b826001836004546108059190611336565b61080f9190611336565b8151811061081f5761081f611279565b60200101907effffffffffffffffffffffffffffffffffffffffffffffffffffffffffffff1916908160001a905350610859600a856113bf565b935080610865816112d7565b9150506107aa565b5092915050565b61087d83610e80565b6108e3576040517f08c379a000000000000000000000000000000000000000000000000000000000815260206004820152601260248201527f6e616d65206e6f7420617661696c61626c65000000000000000000000000000060448201526064016104e7565b6108eb610f42565b825160208401208073ffffffffffffffffffffffffffffffffffffffff841615610d53576003546040517fdbbdf0830000000000000000000000000000000000000000000000000000000081526004810183905230602482015273ffffffffffffffffffffffffffffffffffffffff9091169063dbbdf08390604401600060405180830381600087803b15801561098157600080fd5b505af1158015610995573d6000803e3d6000fd5b505050506000600360009054906101000a900473ffffffffffffffffffffffffffffffffffffffff1673ffffffffffffffffffffffffffffffffffffffff1663ddf7fcb06040518163ffffffff1660e01b8152600401602060405180830381865afa158015610a08573d6000803e3d6000fd5b505050506040513d601f19601f82011682018060405250810190610a2c91906113d3565b6040805160208101929092528101849052606001604080517fffffffffffffffffffffffffffffffffffffffffffffffffffffffffffffffe081840301815282825280516020918201206003547f3f15457f000000000000000000000000000000000000000000000000000000008552925190945073ffffffffffffffffffffffffffffffffffffffff90921692633f15457f92600480830193928290030181865afa158015610ae0573d6000803e3d6000fd5b505050506040513d601f19601f82011682018060405250810190610b0491906113ec565b6040517f1896f70a0000000000000000000000000000000000000000000000000000000081526004810183905273ffffffffffffffffffffffffffffffffffffffff87811660248301529190911690631896f70a90604401600060405180830381600087803b158015610b7657600080fd5b505af1158015610b8a573d6000803e3d6000fd5b5050505073ffffffffffffffffffffffffffffffffffffffff841615610c33576040517fd5fa2b000000000000000000000000000000000000000000000000000000000081526004810182905273ffffffffffffffffffffffffffffffffffffffff858116602483015286169063d5fa2b0090604401600060405180830381600087803b158015610c1a57600080fd5b505af1158015610c2e573d6000803e3d6000fd5b505050505b6003546040517f28ed4f6c0000000000000000000000000000000000000000000000000000000081526004810184905233602482015273ffffffffffffffffffffffffffffffffffffffff909116906328ed4f6c90604401600060405180830381600087803b158015610ca557600080fd5b505af1158015610cb9573d6000803e3d6000fd5b50506003546040517f23b872dd0000000000000000000000000000000000000000000000000000000081523060048201523360248201526044810186905273ffffffffffffffffffffffffffffffffffffffff90911692506323b872dd9150606401600060405180830381600087803b158015610d3557600080fd5b505af1158015610d49573d6000803e3d6000fd5b5050505050610dff565b73ffffffffffffffffffffffffffffffffffffffff831615610d7457600080fd5b6003546040517fdbbdf0830000000000000000000000000000000000000000000000000000000081526004810183905233602482015273ffffffffffffffffffffffffffffffffffffffff9091169063dbbdf08390604401600060405180830381600087803b158015610de657600080fd5b505af1158015610dfa573d6000803e3d6000fd5b505050505b3373ffffffffffffffffffffffffffffffffffffffff16827f949d23b49bd03f2681389f579003c80eeb63fea84d0c36204dab1be09378521687604051610e469190611409565b60405180910390a35050505050565b60008181526006602052604081205415610e7c575060009081526006602052604090205490565b5090565b8051602080830191909120600081815260019092526040822054819060ff16158015610f3a57506003546040517f96e494e80000000000000000000000000000000000000000000000000000000081526004810183905273ffffffffffffffffffffffffffffffffffffffff909116906396e494e890602401602060405180830381865afa158015610f16573d6000803e3d6000fd5b505050506040513d601f19601f82011682018060405250810190610f3a919061147c565b949350505050565b600080610f4d610ff2565b9150915080610fb8576040517f08c379a000000000000000000000000000000000000000000000000000000000815260206004820152601360248201527f6e6f20636c61696d7320617661696c61626c650000000000000000000000000060448201526064016104e7565b336000908152600260205260409020805467ffffffffffffffff8416908110610fe357610fe3611279565b60009182526020822001555050565b33600090815260026020908152604080832080548251818502810185019093528083528493849392919083018282801561104b57602002820191906000526020600020905b815481526020019060010190808311611037575b5050505050905060005b81518167ffffffffffffffff1610156110bc576000828267ffffffffffffffff168151811061108657611086611279565b6020026020010151905061109981421090565b156110a957509360019350915050565b50806110b48161130f565b915050611055565b50600093849350915050565b60008083601f8401126110da57600080fd5b50813567ffffffffffffffff8111156110f257600080fd5b6020830191508360208260051b850101111561110d57600080fd5b9250929050565b6000806020838503121561112757600080fd5b823567ffffffffffffffff81111561113e57600080fd5b61114a858286016110c8565b90969095509350505050565b73ffffffffffffffffffffffffffffffffffffffff811681146104f957600080fd5b6000806040838503121561118b57600080fd5b823561119681611156565b946020939093013593505050565b600080604083850312156111b757600080fd5b82356111c281611156565b915060208301356111d281611156565b809150509250929050565b6000806000604084860312156111f257600080fd5b833567ffffffffffffffff8082111561120a57600080fd5b611216878388016110c8565b909550935060208601359150808216821461123057600080fd5b50809150509250925092565b60006020828403121561124e57600080fd5b5035919050565b60006020828403121561126757600080fd5b813561127281611156565b9392505050565b7f4e487b7100000000000000000000000000000000000000000000000000000000600052603260045260246000fd5b7f4e487b7100000000000000000000000000000000000000000000000000000000600052601160045260246000fd5b60007fffffffffffffffffffffffffffffffffffffffffffffffffffffffffffffffff8203611308576113086112a8565b5060010190565b600067ffffffffffffffff80831681810361132c5761132c6112a8565b6001019392505050565b600082821015611348576113486112a8565b500390565b7f4e487b7100000000000000000000000000000000000000000000000000000000600052601260045260246000fd5b60008261138b5761138b61134d565b500690565b7f4e487b7100000000000000000000000000000000000000000000000000000000600052604160045260246000fd5b6000826113ce576113ce61134d565b500490565b6000602082840312156113e557600080fd5b5051919050565b6000602082840312156113fe57600080fd5b815161127281611156565b600060208083528351808285015260005b818110156114365785810183015185820160400152820161141a565b81811115611448576000604083870101525b50601f017fffffffffffffffffffffffffffffffffffffffffffffffffffffffffffffffe016929092016040019392505050565b60006020828403121561148e57600080fd5b8151801515811461127257600080fdfea26469706673582212206bca835f108e77365c9145da4c9bf60669df66e29ae9e784e493c5e8e7e3af9464736f6c634300080d0033",
  "devdoc": {
    "kind": "dev",
    "methods": {
      "owner()": {
        "details": "Returns the address of the current owner."
      },
      "renounceOwnership()": {
        "details": "Leaves the contract without owner. It will not be possible to call `onlyOwner` functions anymore. Can only be called by the current owner. NOTE: Renouncing ownership will leave the contract without an owner, thereby removing any functionality that is only available to the owner."
      },
      "transferOwnership(address)": {
        "details": "Transfers ownership of the contract to a new account (`newOwner`). Can only be called by the current owner."
      }
    },
    "version": 1
  },
  "userdoc": {
    "kind": "user",
    "methods": {
      "addToDenyList(uint256[])": {
        "notice": "ADMIN "
      },
      "register(address,address)": {
        "notice": "Registration"
      }
    },
    "version": 1
  },
  "storageLayout": {
    "storage": [
      {
        "astId": 545,
        "contract": "contracts/ethregistrar/TenKClubController.sol:TenKClubController",
        "label": "_owner",
        "offset": 0,
        "slot": "0",
        "type": "t_address"
      },
      {
        "astId": 11928,
        "contract": "contracts/ethregistrar/TenKClubController.sol:TenKClubController",
        "label": "denyList",
        "offset": 0,
        "slot": "1",
        "type": "t_mapping(t_uint256,t_bool)"
      },
      {
        "astId": 11933,
        "contract": "contracts/ethregistrar/TenKClubController.sol:TenKClubController",
        "label": "claims",
        "offset": 0,
        "slot": "2",
        "type": "t_mapping(t_address,t_array(t_uint256)dyn_storage)"
      },
      {
        "astId": 11936,
        "contract": "contracts/ethregistrar/TenKClubController.sol:TenKClubController",
        "label": "base",
        "offset": 0,
        "slot": "3",
        "type": "t_contract(BaseRegistrarImplementation)9925"
      },
      {
        "astId": 11938,
        "contract": "contracts/ethregistrar/TenKClubController.sol:TenKClubController",
        "label": "maxDigits",
        "offset": 0,
        "slot": "4",
        "type": "t_uint256"
      },
      {
        "astId": 11940,
        "contract": "contracts/ethregistrar/TenKClubController.sol:TenKClubController",
        "label": "namesRemaining",
        "offset": 0,
        "slot": "5",
        "type": "t_uint256"
      },
      {
        "astId": 11944,
        "contract": "contracts/ethregistrar/TenKClubController.sol:TenKClubController",
        "label": "movedNames",
        "offset": 0,
        "slot": "6",
        "type": "t_mapping(t_uint256,t_uint256)"
      }
    ],
    "types": {
      "t_address": {
        "encoding": "inplace",
        "label": "address",
        "numberOfBytes": "20"
      },
      "t_array(t_uint256)dyn_storage": {
        "base": "t_uint256",
        "encoding": "dynamic_array",
        "label": "uint256[]",
        "numberOfBytes": "32"
      },
      "t_bool": {
        "encoding": "inplace",
        "label": "bool",
        "numberOfBytes": "1"
      },
      "t_contract(BaseRegistrarImplementation)9925": {
        "encoding": "inplace",
        "label": "contract BaseRegistrarImplementation",
        "numberOfBytes": "20"
      },
      "t_mapping(t_address,t_array(t_uint256)dyn_storage)": {
        "encoding": "mapping",
        "key": "t_address",
        "label": "mapping(address => uint256[])",
        "numberOfBytes": "32",
        "value": "t_array(t_uint256)dyn_storage"
      },
      "t_mapping(t_uint256,t_bool)": {
        "encoding": "mapping",
        "key": "t_uint256",
        "label": "mapping(uint256 => bool)",
        "numberOfBytes": "32",
        "value": "t_bool"
      },
      "t_mapping(t_uint256,t_uint256)": {
        "encoding": "mapping",
        "key": "t_uint256",
        "label": "mapping(uint256 => uint256)",
        "numberOfBytes": "32",
        "value": "t_uint256"
      },
      "t_uint256": {
        "encoding": "inplace",
        "label": "uint256",
        "numberOfBytes": "32"
      }
    }
  }
}