{
  "_format": "hh-sol-artifact-1",
  "contractName": "CldFactory",
  "sourceName": "contracts/CldFactory.sol",
  "abi": [
    {
      "inputs": [
        {
          "internalType": "string",
          "name": "name",
          "type": "string"
        },
        {
          "internalType": "address",
          "name": "minter",
          "type": "address"
        },
        {
          "internalType": "address",
          "name": "communityManager",
          "type": "address"
        }
      ],
      "name": "createCld",
      "outputs": [
        {
          "internalType": "contract IRegistry",
          "name": "",
          "type": "address"
        }
      ],
      "stateMutability": "nonpayable",
      "type": "function"
    }
  ],
  "bytecode": "0x608060405234801561001057600080fd5b50615a6c806100206000396000f3fe60806040523480156200001157600080fd5b50600436106200002e5760003560e01c8063e5854f481462000033575b600080fd5b6200005160048036038101906200004b9190620001a3565b62000069565b6040516200006091906200028e565b60405180910390f35b60008484868686866040516200007f90620000b8565b620000909695949392919062000320565b604051809103906000f080158015620000ad573d6000803e3d6000fd5b509050949350505050565b6156b7806200038083390190565b600080fd5b600080fd5b600080fd5b600080fd5b600080fd5b60008083601f840112620000f857620000f7620000d0565b5b8235905067ffffffffffffffff811115620001185762000117620000d5565b5b602083019150836001820283011115620001375762000136620000da565b5b9250929050565b600073ffffffffffffffffffffffffffffffffffffffff82169050919050565b60006200016b826200013e565b9050919050565b6200017d816200015e565b81146200018957600080fd5b50565b6000813590506200019d8162000172565b92915050565b60008060008060608587031215620001c057620001bf620000c6565b5b600085013567ffffffffffffffff811115620001e157620001e0620000cb565b5b620001ef87828801620000df565b9450945050602062000204878288016200018c565b925050604062000217878288016200018c565b91505092959194509250565b6000819050919050565b60006200024e6200024862000242846200013e565b62000223565b6200013e565b9050919050565b600062000262826200022d565b9050919050565b6000620002768262000255565b9050919050565b620002888162000269565b82525050565b6000602082019050620002a560008301846200027d565b92915050565b600082825260208201905092915050565b82818337600083830152505050565b6000601f19601f8301169050919050565b6000620002ea8385620002ab565b9350620002f9838584620002bc565b6200030483620002cb565b840190509392505050565b6200031a816200015e565b82525050565b600060808201905081810360008301526200033d81888a620002dc565b9050818103602083015262000354818688620002dc565b90506200036560408301856200030f565b6200037460608301846200030f565b97965050505050505056fe60806040523480156200001157600080fd5b50604051620056b7380380620056b7833981810160405281019062000037919062000511565b838381600090816200004a91906200080c565b5080600190816200005c91906200080c565b50505062000072600085620000fa60201b60201c565b600e8190555083600f90816200008991906200080c565b50620000bc7f9f2df0fed2c77648de5860a4cc508cd0818c85b8b8a1ab4ceeef8d981c8956a683620001a260201b60201c565b50620000ef7f78afd8eb771d7501d125738bdabc2c1f8b945a7e4fcba88e940ac2d88fb2566682620001a260201b60201c565b505050505062000a48565b6000808251036200014457816040517f7f19f48d0000000000000000000000000000000000000000000000000000000081526004016200013b919062000945565b60405180910390fd5b8282604051602001620001589190620009ab565b604051602081830303815290604052805190602001206040516020016200018192919062000a18565b6040516020818303038152906040528051906020012060001c905092915050565b6000620001b68383620002a660201b60201c565b6200029b5760016006600085815260200190815260200160002060000160008473ffffffffffffffffffffffffffffffffffffffff1673ffffffffffffffffffffffffffffffffffffffff16815260200190815260200160002060006101000a81548160ff021916908315150217905550620002376200031160201b60201c565b73ffffffffffffffffffffffffffffffffffffffff168273ffffffffffffffffffffffffffffffffffffffff16847f2f8788117e7eff1d82e926ec794901d17c78024a50270940304540a733656f0d60405160405180910390a460019050620002a0565b600090505b92915050565b60006006600084815260200190815260200160002060000160008373ffffffffffffffffffffffffffffffffffffffff1673ffffffffffffffffffffffffffffffffffffffff16815260200190815260200160002060009054906101000a900460ff16905092915050565b600033905090565b6000604051905090565b600080fd5b600080fd5b600080fd5b600080fd5b6000601f19601f8301169050919050565b7f4e487b7100000000000000000000000000000000000000000000000000000000600052604160045260246000fd5b620003828262000337565b810181811067ffffffffffffffff82111715620003a457620003a362000348565b5b80604052505050565b6000620003b962000319565b9050620003c7828262000377565b919050565b600067ffffffffffffffff821115620003ea57620003e962000348565b5b620003f58262000337565b9050602081019050919050565b60005b838110156200042257808201518184015260208101905062000405565b60008484015250505050565b6000620004456200043f84620003cc565b620003ad565b90508281526020810184848401111562000464576200046362000332565b5b6200047184828562000402565b509392505050565b600082601f8301126200049157620004906200032d565b5b8151620004a38482602086016200042e565b91505092915050565b600073ffffffffffffffffffffffffffffffffffffffff82169050919050565b6000620004d982620004ac565b9050919050565b620004eb81620004cc565b8114620004f757600080fd5b50565b6000815190506200050b81620004e0565b92915050565b600080600080608085870312156200052e576200052d62000323565b5b600085015167ffffffffffffffff8111156200054f576200054e62000328565b5b6200055d8782880162000479565b945050602085015167ffffffffffffffff81111562000581576200058062000328565b5b6200058f8782880162000479565b9350506040620005a287828801620004fa565b9250506060620005b587828801620004fa565b91505092959194509250565b600081519050919050565b7f4e487b7100000000000000000000000000000000000000000000000000000000600052602260045260246000fd5b600060028204905060018216806200061457607f821691505b6020821081036200062a5762000629620005cc565b5b50919050565b60008190508160005260206000209050919050565b60006020601f8301049050919050565b600082821b905092915050565b600060088302620006947fffffffffffffffffffffffffffffffffffffffffffffffffffffffffffffffff8262000655565b620006a0868362000655565b95508019841693508086168417925050509392505050565b6000819050919050565b6000819050919050565b6000620006ed620006e7620006e184620006b8565b620006c2565b620006b8565b9050919050565b6000819050919050565b6200070983620006cc565b620007216200071882620006f4565b84845462000662565b825550505050565b600090565b6200073862000729565b62000745818484620006fe565b505050565b5b818110156200076d57620007616000826200072e565b6001810190506200074b565b5050565b601f821115620007bc57620007868162000630565b620007918462000645565b81016020851015620007a1578190505b620007b9620007b08562000645565b8301826200074a565b50505b505050565b600082821c905092915050565b6000620007e160001984600802620007c1565b1980831691505092915050565b6000620007fc8383620007ce565b9150826002028217905092915050565b6200081782620005c1565b67ffffffffffffffff81111562000833576200083262000348565b5b6200083f8254620005fb565b6200084c82828562000771565b600060209050601f8311600181146200088457600084156200086f578287015190505b6200087b8582620007ee565b865550620008eb565b601f198416620008948662000630565b60005b82811015620008be5784890151825560018201915060208501945060208101905062000897565b86831015620008de5784890151620008da601f891682620007ce565b8355505b6001600288020188555050505b505050505050565b600082825260208201905092915050565b60006200091182620005c1565b6200091d8185620008f3565b93506200092f81856020860162000402565b6200093a8162000337565b840191505092915050565b6000602082019050818103600083015262000961818462000904565b905092915050565b600081905092915050565b60006200098182620005c1565b6200098d818562000969565b93506200099f81856020860162000402565b80840191505092915050565b6000620009b9828462000974565b915081905092915050565b6000819050919050565b620009e3620009dd82620006b8565b620009c4565b82525050565b6000819050919050565b6000819050919050565b62000a1262000a0c82620009e9565b620009f3565b82525050565b600062000a268285620009ce565b60208201915062000a388284620009fd565b6020820191508190509392505050565b614c5f8062000a586000396000f3fe608060405234801561001057600080fd5b50600436106102695760003560e01c806370a0823111610151578063baef73e9116100c3578063d539139311610087578063d5391393146107dd578063d547741f146107fb578063d9548e5314610817578063e985e9c514610847578063fe39089214610877578063ffa1ad741461089357610269565b8063baef73e914610715578063bebec6b414610745578063c4602fdf14610775578063c475abff14610791578063c87b56dd146107ad57610269565b806395d89b411161011557806395d89b41146106655780639aa7773114610683578063a217fddf146106a1578063a22cb465146106bf578063a3f4df7e146106db578063b88d4fde146106f957610269565b806370a082311461059a5780637e37479e146105ca57806383d48e04146105fa5780638915711b1461061957806391d148541461063557610269565b8063248a9ca3116101ea57806342842e0e116101ae57806342842e0e146104a2578063430c2081146104be578063500b89c4146104ee57806350cf25ef1461050a57806358f3d6531461053a5780636352211e1461056a57610269565b8063248a9ca3146103ee5780632f2ff15d1461041e57806336568abe1461043a578063384e9a551461045657806341ef73b91461047257610269565b8063081812fc11610231578063081812fc14610338578063095ea7b31461036857806318160ddd14610384578063215adba2146103a257806323b872dd146103d257610269565b806301ffc9a71461026e578063051a26641461029e578063064816cf146102ce5780630660e0a8146102fe57806306fdde031461031a575b600080fd5b61028860048036038101906102839190613565565b6108b1565b60405161029591906135ad565b60405180910390f35b6102b860048036038101906102b391906135fe565b6108d3565b6040516102c591906136bb565b60405180910390f35b6102e860048036038101906102e391906136dd565b610924565b6040516102f591906136bb565b60405180910390f35b6103186004803603810190610313919061377b565b610a09565b005b610322610a8d565b60405161032f91906136bb565b60405180910390f35b610352600480360381019061034d91906135fe565b610b1f565b60405161035f91906137b7565b60405180910390f35b610382600480360381019061037d91906137d2565b610b3a565b005b61038c610b51565b6040516103999190613821565b60405180910390f35b6103bc60048036038101906103b791906138a1565b610b5b565b6040516103c99190613a0d565b60405180910390f35b6103ec60048036038101906103e79190613a2f565b610c14565b005b61040860048036038101906104039190613ab8565b610d16565b6040516104159190613af4565b60405180910390f35b61043860048036038101906104339190613b0f565b610d36565b005b610454600480360381019061044f9190613b0f565b610d58565b005b610470600480360381019061046b91906135fe565b610dd3565b005b61048c6004803603810190610487919061377b565b610e44565b60405161049991906135ad565b60405180910390f35b6104bc60048036038101906104b79190613a2f565b610e77565b005b6104d860048036038101906104d391906137d2565b610e97565b6040516104e591906135ad565b60405180910390f35b61050860048036038101906105039190613ba5565b610f4c565b005b610524600480360381019061051f9190613c9b565b610fbb565b6040516105319190613821565b60405180910390f35b610554600480360381019061054f91906135fe565b6110c3565b6040516105619190613821565b60405180910390f35b610584600480360381019061057f91906135fe565b6110f3565b60405161059191906137b7565b60405180910390f35b6105b460048036038101906105af919061377b565b61110e565b6040516105c19190613821565b60405180910390f35b6105e460048036038101906105df919061377b565b6111c8565b6040516105f19190613821565b60405180910390f35b610602611229565b604051610610929190613d8a565b60405180910390f35b610633600480360381019061062e91906135fe565b6112c6565b005b61064f600480360381019061064a9190613b0f565b61132f565b60405161065c91906135ad565b60405180910390f35b61066d61139a565b60405161067a91906136bb565b60405180910390f35b61068b61142c565b6040516106989190613af4565b60405180910390f35b6106a9611450565b6040516106b69190613af4565b60405180910390f35b6106d960048036038101906106d49190613dba565b611457565b005b6106e361146d565b6040516106f091906136bb565b60405180910390f35b610713600480360381019061070e9190613f2a565b6114a6565b005b61072f600480360381019061072a91906135fe565b6114c3565b60405161073c9190613821565b60405180910390f35b61075f600480360381019061075a919061377b565b6114e0565b60405161076c91906136bb565b60405180910390f35b61078f600480360381019061078a9190613fad565b611529565b005b6107ab60048036038101906107a691906136dd565b61159a565b005b6107c760048036038101906107c291906135fe565b611690565b6040516107d491906136bb565b60405180910390f35b6107e56116ab565b6040516107f29190613af4565b60405180910390f35b61081560048036038101906108109190613b0f565b6116cf565b005b610831600480360381019061082c91906135fe565b6116f1565b60405161083e91906135ad565b60405180910390f35b610861600480360381019061085c9190614042565b61172f565b60405161086e91906135ad565b60405180910390f35b610891600480360381019061088c919061377b565b6117c3565b005b61089b6118a4565b6040516108a891906136bb565b60405180910390f35b60006108bc826118dd565b806108cc57506108cb826119bf565b5b9050919050565b60606108de82611a39565b6108e782611a87565b5060076000838152602001908152602001600020600f60405160200161090e9291906141ab565b6040516020818303038152906040529050919050565b606061092f836116f1565b1561094b57604051806020016040528060008152509050610a03565b600c600061095885611b0f565b815260200190815260200160002060008381526020019081526020016000208054610982906140b1565b80601f01602080910402602001604051908101604052809291908181526020018280546109ae906140b1565b80156109fb5780601f106109d0576101008083540402835291602001916109fb565b820191906000526020600020905b8154815290600101906020018083116109de57829003601f168201915b505050505090505b92915050565b7f78afd8eb771d7501d125738bdabc2c1f8b945a7e4fcba88e940ac2d88fb25666610a3381611b4d565b610a5d7f78afd8eb771d7501d125738bdabc2c1f8b945a7e4fcba88e940ac2d88fb2566683611b61565b50610a887f78afd8eb771d7501d125738bdabc2c1f8b945a7e4fcba88e940ac2d88fb2566633611c53565b505050565b606060008054610a9c906140b1565b80601f0160208091040260200160405190810160405280929190818152602001828054610ac8906140b1565b8015610b155780601f10610aea57610100808354040283529160200191610b15565b820191906000526020600020905b815481529060010190602001808311610af857829003601f168201915b5050505050905090565b6000610b2a82611a39565b610b3382611d46565b9050919050565b610b4381611a39565b610b4d8282611d62565b5050565b6000600d54905090565b60608282905067ffffffffffffffff811115610b7a57610b79613dff565b5b604051908082528060200260200182016040528015610bad57816020015b6060815260200190600190039081610b985790505b50905060005b83839050811015610c0c57610be185858584818110610bd557610bd46141de565b5b90506020020135610924565b828281518110610bf457610bf36141de565b5b60200260200101819052508080600101915050610bb3565b509392505050565b600073ffffffffffffffffffffffffffffffffffffffff168273ffffffffffffffffffffffffffffffffffffffff1603610c865760006040517f64a0ae92000000000000000000000000000000000000000000000000000000008152600401610c7d91906137b7565b60405180910390fd5b6000610c9a8383610c95611d78565b611d80565b90508373ffffffffffffffffffffffffffffffffffffffff168173ffffffffffffffffffffffffffffffffffffffff1614610d10578382826040517f64283d7b000000000000000000000000000000000000000000000000000000008152600401610d079392919061420d565b60405180910390fd5b50505050565b600060066000838152602001908152602001600020600101549050919050565b610d3f82610d16565b610d4881611b4d565b610d528383611b61565b50505050565b610d60611d78565b73ffffffffffffffffffffffffffffffffffffffff168173ffffffffffffffffffffffffffffffffffffffff1614610dc4576040517f6697b23200000000000000000000000000000000000000000000000000000000815260040160405180910390fd5b610dce8282611c53565b505050565b80610de5610ddf611d78565b82610e97565b610e2f57610df1611d78565b816040517f177e802f000000000000000000000000000000000000000000000000000000008152600401610e26929190614244565b60405180910390fd5b610e40610e3a611d78565b83611f11565b5050565b6000610e707f78afd8eb771d7501d125738bdabc2c1f8b945a7e4fcba88e940ac2d88fb256668361132f565b9050919050565b610e92838383604051806020016040528060008152506114a6565b505050565b600080610ea3836110f3565b90508073ffffffffffffffffffffffffffffffffffffffff168473ffffffffffffffffffffffffffffffffffffffff1603610ee2576001915050610f46565b610eec818561172f565b15610efb576001915050610f46565b8373ffffffffffffffffffffffffffffffffffffffff16610f1b84610b1f565b73ffffffffffffffffffffffffffffffffffffffff1603610f40576001915050610f46565b60009150505b92915050565b83610f5e610f58611d78565b82610e97565b610fa857610f6a611d78565b816040517f177e802f000000000000000000000000000000000000000000000000000000008152600401610f9f929190614244565b60405180910390fd5b610fb485858585611fe7565b5050505050565b60007f9f2df0fed2c77648de5860a4cc508cd0818c85b8b8a1ab4ceeef8d981c8956a6610fe781611b4d565b6000611039600e548c8c8080601f016020809104026020016040519081016040528093929190818152602001838380828437600081840152601f19601f8201169050808301925050505050505061207d565b9050611044816116f1565b15611053576110528161211e565b5b6110a48c828d8d8080601f016020809104026020016040519081016040528093929190818152602001838380828437600081840152601f19601f8201169050808301925050505050505088886121a4565b6110b1818a8a8a8a61224c565b80925050509998505050505050505050565b60006110ce82611a87565b506110d882611a39565b600a6000838152602001908152602001600020549050919050565b60006110fe82611a39565b611107826122c9565b9050919050565b60008073ffffffffffffffffffffffffffffffffffffffff168273ffffffffffffffffffffffffffffffffffffffff16036111815760006040517f89c62b6400000000000000000000000000000000000000000000000000000000815260040161117891906137b7565b60405180910390fd5b600360008373ffffffffffffffffffffffffffffffffffffffff1673ffffffffffffffffffffffffffffffffffffffff168152602001908152602001600020549050919050565b6000600860008373ffffffffffffffffffffffffffffffffffffffff1673ffffffffffffffffffffffffffffffffffffffff168152602001908152602001600020549050611215816116f1565b156112235760009050611224565b5b919050565b60606000600f600e5481805461123e906140b1565b80601f016020809104026020016040519081016040528092919081815260200182805461126a906140b1565b80156112b75780601f1061128c576101008083540402835291602001916112b7565b820191906000526020600020905b81548152906001019060200180831161129a57829003601f168201915b50505050509150915091509091565b806112d86112d2611d78565b82610e97565b611322576112e4611d78565b816040517f177e802f000000000000000000000000000000000000000000000000000000008152600401611319929190614244565b60405180910390fd5b61132b826122db565b5050565b60006006600084815260200190815260200160002060000160008373ffffffffffffffffffffffffffffffffffffffff1673ffffffffffffffffffffffffffffffffffffffff16815260200190815260200160002060009054906101000a900460ff16905092915050565b6060600180546113a9906140b1565b80601f01602080910402602001604051908101604052809291908181526020018280546113d5906140b1565b80156114225780601f106113f757610100808354040283529160200191611422565b820191906000526020600020905b81548152906001019060200180831161140557829003601f168201915b5050505050905090565b7f78afd8eb771d7501d125738bdabc2c1f8b945a7e4fcba88e940ac2d88fb2566681565b6000801b81565b611469611462611d78565b8383612362565b5050565b6040518060400160405280601081526020017f4e4e533a20434c4452656769737472790000000000000000000000000000000081525081565b6114b1848484610c14565b6114bd848484846124d1565b50505050565b600060096000838152602001908152602001600020549050919050565b606060006114ed836111c8565b90506000810361150f5760405180602001604052806000815250915050611524565b61152061151b846111c8565b6108d3565b9150505b919050565b8461153b611535611d78565b82610e97565b61158557611547611d78565b816040517f177e802f00000000000000000000000000000000000000000000000000000000815260040161157c929190614244565b60405180910390fd5b611592868686868661224c565b505050505050565b7f9f2df0fed2c77648de5860a4cc508cd0818c85b8b8a1ab4ceeef8d981c8956a66115c481611b4d565b6115cd83611a87565b5060006115d9846114c3565b90506000810361162057836040517f31878ca10000000000000000000000000000000000000000000000000000000081526004016116179190613821565b60405180910390fd5b600042905080821115611631578190505b6000848261163f919061429c565b905061164b8682612688565b7fd4b61d6768ffa07c4e38f85dca93cda5b258136f967cbe4efcfe2a4ed9047c20600e548783604051611680939291906142d0565b60405180910390a1505050505050565b606061169b82611a39565b6116a4826126a4565b9050919050565b7f9f2df0fed2c77648de5860a4cc508cd0818c85b8b8a1ab4ceeef8d981c8956a681565b6116d882610d16565b6116e181611b4d565b6116eb8383611c53565b50505050565b6000806009600084815260200190815260200160002054141580156117285750426009600084815260200190815260200160002054105b9050919050565b6000600560008473ffffffffffffffffffffffffffffffffffffffff1673ffffffffffffffffffffffffffffffffffffffff16815260200190815260200160002060008373ffffffffffffffffffffffffffffffffffffffff1673ffffffffffffffffffffffffffffffffffffffff16815260200190815260200160002060009054906101000a900460ff16905092915050565b8073ffffffffffffffffffffffffffffffffffffffff163373ffffffffffffffffffffffffffffffffffffffff16141580156118065750611804813361172f565b155b1561184b578060006040517f177e802f00000000000000000000000000000000000000000000000000000000815260040161184292919061434c565b60405180910390fd5b6000611856826111c8565b0361189857806040517f5d0f405700000000000000000000000000000000000000000000000000000000815260040161188f91906137b7565b60405180910390fd5b6118a18161270d565b50565b6040518060400160405280600581526020017f302e302e3100000000000000000000000000000000000000000000000000000081525081565b60007f80ac58cd000000000000000000000000000000000000000000000000000000007bffffffffffffffffffffffffffffffffffffffffffffffffffffffff1916827bffffffffffffffffffffffffffffffffffffffffffffffffffffffff191614806119a857507f5b5e139f000000000000000000000000000000000000000000000000000000007bffffffffffffffffffffffffffffffffffffffffffffffffffffffff1916827bffffffffffffffffffffffffffffffffffffffffffffffffffffffff1916145b806119b857506119b7826127d8565b5b9050919050565b60007f7965db0b000000000000000000000000000000000000000000000000000000007bffffffffffffffffffffffffffffffffffffffffffffffffffffffff1916827bffffffffffffffffffffffffffffffffffffffffffffffffffffffff19161480611a325750611a31826118dd565b5b9050919050565b611a42816116f1565b15611a8457806040517f7e273289000000000000000000000000000000000000000000000000000000008152600401611a7b9190613821565b60405180910390fd5b50565b600080611a9383612842565b9050600073ffffffffffffffffffffffffffffffffffffffff168173ffffffffffffffffffffffffffffffffffffffff1603611b0657826040517f7e273289000000000000000000000000000000000000000000000000000000008152600401611afd9190613821565b60405180910390fd5b80915050919050565b600080600b60008481526020019081526020016000205414611b4457600b600083815260200190815260200160002054611b46565b815b9050919050565b611b5e81611b59611d78565b61287f565b50565b6000611b6d838361132f565b611c485760016006600085815260200190815260200160002060000160008473ffffffffffffffffffffffffffffffffffffffff1673ffffffffffffffffffffffffffffffffffffffff16815260200190815260200160002060006101000a81548160ff021916908315150217905550611be5611d78565b73ffffffffffffffffffffffffffffffffffffffff168273ffffffffffffffffffffffffffffffffffffffff16847f2f8788117e7eff1d82e926ec794901d17c78024a50270940304540a733656f0d60405160405180910390a460019050611c4d565b600090505b92915050565b6000611c5f838361132f565b15611d3b5760006006600085815260200190815260200160002060000160008473ffffffffffffffffffffffffffffffffffffffff1673ffffffffffffffffffffffffffffffffffffffff16815260200190815260200160002060006101000a81548160ff021916908315150217905550611cd8611d78565b73ffffffffffffffffffffffffffffffffffffffff168273ffffffffffffffffffffffffffffffffffffffff16847ff6391f5c32d9c69d2a47ea670b442974b53935d1edc7fd64eb21e047a839171b60405160405180910390a460019050611d40565b600090505b92915050565b6000611d5182611a87565b50611d5b826128d0565b9050919050565b611d748282611d6f611d78565b61290d565b5050565b600033905090565b600080611d8e85858561291f565b9050600073ffffffffffffffffffffffffffffffffffffffff168173ffffffffffffffffffffffffffffffffffffffff1603611df557600d6000815480929190611dd790614375565b919050555043600a6000868152602001908152602001600020819055505b600073ffffffffffffffffffffffffffffffffffffffff168573ffffffffffffffffffffffffffffffffffffffff1603611e7857600d6000815480929190611e3c906143bd565b9190505550600760008581526020019081526020016000206000611e60919061349c565b600a6000858152602001908152602001600020600090555b600073ffffffffffffffffffffffffffffffffffffffff168173ffffffffffffffffffffffffffffffffffffffff1614611f0657611eb5846122db565b83600860008373ffffffffffffffffffffffffffffffffffffffff1673ffffffffffffffffffffffffffffffffffffffff1681526020019081526020016000205403611f0557611f048161270d565b5b5b809150509392505050565b611f1a81611a87565b506000600860008473ffffffffffffffffffffffffffffffffffffffff1673ffffffffffffffffffffffffffffffffffffffff16815260200190815260200160002054905081600860008573ffffffffffffffffffffffffffffffffffffffff1673ffffffffffffffffffffffffffffffffffffffff168152602001908152602001600020819055507f49f32a9c20b981f0460e046b4fb8101f3052e0bf4208db3a8c84f7eacee49b70600e54848385604051611fda94939291906143e6565b60405180910390a1505050565b611ff084611a87565b50611ffa84611a39565b8181600c600061200988611b0f565b8152602001908152602001600020600086815260200190815260200160002091826120359291906145c3565b507f089ac4170fcfe837b5eb37f52e222522361a5965d32b22f7e3e12b888ac07ba0600e548585858560405161206f9594939291906146c0565b60405180910390a150505050565b6000808251036120c457816040517f7f19f48d0000000000000000000000000000000000000000000000000000000081526004016120bb91906136bb565b60405180910390fd5b82826040516020016120d6919061473f565b604051602081830303815290604052805190602001206040516020016120fd929190614798565b6040516020818303038152906040528051906020012060001c905092915050565b600061212d6000836000611d80565b9050600073ffffffffffffffffffffffffffffffffffffffff168173ffffffffffffffffffffffffffffffffffffffff16036121a057816040517f7e2732890000000000000000000000000000000000000000000000000000000081526004016121979190613821565b60405180910390fd5b5050565b6121ae8585612b39565b826007600086815260200190815260200160002090816121ce91906147c4565b506000808311156121f25782426121e5919061429c565b90506121f18582612688565b5b7f4dfb3596a915af838777e485eab4835210cc44d0e62ff328a32765e3973fd8ea600e548686898560405161222b959493929190614896565b60405180910390a18115612244576122438686611f11565b5b505050505050565b81819050848490501461225e57600080fd5b60005b848490508110156122c1576122b486868684818110612283576122826141de565b5b9050602002013585858581811061229d5761229c6141de565b5b90506020028101906122af91906148ff565b611fe7565b8080600101915050612261565b505050505050565b60006122d482611a87565b9050919050565b6122e481611b0f565b6040516020016122f49190614962565b6040516020818303038152906040528051906020012060001c600b6000838152602001908152602001600020819055507f239e1b4e4e15e2fc4d3c8bf6adfcfa0bfc7df2aab8a47c8317c5134a41ba03d1600e548260405161235792919061497d565b60405180910390a150565b600073ffffffffffffffffffffffffffffffffffffffff168273ffffffffffffffffffffffffffffffffffffffff16036123d357816040517f5b08ba180000000000000000000000000000000000000000000000000000000081526004016123ca91906137b7565b60405180910390fd5b80600560008573ffffffffffffffffffffffffffffffffffffffff1673ffffffffffffffffffffffffffffffffffffffff16815260200190815260200160002060008473ffffffffffffffffffffffffffffffffffffffff1673ffffffffffffffffffffffffffffffffffffffff16815260200190815260200160002060006101000a81548160ff0219169083151502179055508173ffffffffffffffffffffffffffffffffffffffff168373ffffffffffffffffffffffffffffffffffffffff167f17307eab39ab6107e8899845ad3d59bd9653f200f220920489ca2b5937696c31836040516124c491906135ad565b60405180910390a3505050565b60008373ffffffffffffffffffffffffffffffffffffffff163b1115612682578273ffffffffffffffffffffffffffffffffffffffff1663150b7a02612515611d78565b8685856040518563ffffffff1660e01b815260040161253794939291906149fb565b6020604051808303816000875af192505050801561257357506040513d601f19601f820116820180604052508101906125709190614a5c565b60015b6125f7573d80600081146125a3576040519150601f19603f3d011682016040523d82523d6000602084013e6125a8565b606091505b5060008151036125ef57836040517f64a0ae920000000000000000000000000000000000000000000000000000000081526004016125e691906137b7565b60405180910390fd5b805181602001fd5b63150b7a0260e01b7bffffffffffffffffffffffffffffffffffffffffffffffffffffffff1916817bffffffffffffffffffffffffffffffffffffffffffffffffffffffff19161461268057836040517f64a0ae9200000000000000000000000000000000000000000000000000000000815260040161267791906137b7565b60405180910390fd5b505b50505050565b8060096000848152602001908152602001600020819055505050565b60606126af82611a87565b5060006126ba612b57565b905060008151116126da5760405180602001604052806000815250612705565b806126e484612b90565b6040516020016126f5929190614a89565b6040516020818303038152906040525b915050919050565b6000600860008373ffffffffffffffffffffffffffffffffffffffff1673ffffffffffffffffffffffffffffffffffffffff168152602001908152602001600020549050600860008373ffffffffffffffffffffffffffffffffffffffff1673ffffffffffffffffffffffffffffffffffffffff168152602001908152602001600020600090557f49f32a9c20b981f0460e046b4fb8101f3052e0bf4208db3a8c84f7eacee49b70600e54838360006040516127cc9493929190614aad565b60405180910390a15050565b60007f01ffc9a7000000000000000000000000000000000000000000000000000000007bffffffffffffffffffffffffffffffffffffffffffffffffffffffff1916827bffffffffffffffffffffffffffffffffffffffffffffffffffffffff1916149050919050565b60006002600083815260200190815260200160002060009054906101000a900473ffffffffffffffffffffffffffffffffffffffff169050919050565b612889828261132f565b6128cc5780826040517fe2517d3f0000000000000000000000000000000000000000000000000000000081526004016128c3929190614af2565b60405180910390fd5b5050565b60006004600083815260200190815260200160002060009054906101000a900473ffffffffffffffffffffffffffffffffffffffff169050919050565b61291a8383836001612c5e565b505050565b60008061292b84612842565b9050600073ffffffffffffffffffffffffffffffffffffffff168373ffffffffffffffffffffffffffffffffffffffff161461296d5761296c818486612e23565b5b600073ffffffffffffffffffffffffffffffffffffffff168173ffffffffffffffffffffffffffffffffffffffff16146129fe576129af600085600080612c5e565b6001600360008373ffffffffffffffffffffffffffffffffffffffff1673ffffffffffffffffffffffffffffffffffffffff168152602001908152602001600020600082825403925050819055505b600073ffffffffffffffffffffffffffffffffffffffff168573ffffffffffffffffffffffffffffffffffffffff1614612a81576001600360008773ffffffffffffffffffffffffffffffffffffffff1673ffffffffffffffffffffffffffffffffffffffff168152602001908152602001600020600082825401925050819055505b846002600086815260200190815260200160002060006101000a81548173ffffffffffffffffffffffffffffffffffffffff021916908373ffffffffffffffffffffffffffffffffffffffff160217905550838573ffffffffffffffffffffffffffffffffffffffff168273ffffffffffffffffffffffffffffffffffffffff167fddf252ad1be2c89b69c2b068fc378daa952ba7f163c4a11628f55a4df523b3ef60405160405180910390a4809150509392505050565b612b53828260405180602001604052806000815250612e3c565b5050565b6060612b6246612b90565b612b6b30612e58565b604051602001612b7c929190614b67565b604051602081830303815290604052905090565b606060006001612b9f84612e85565b01905060008167ffffffffffffffff811115612bbe57612bbd613dff565b5b6040519080825280601f01601f191660200182016040528015612bf05781602001600182028036833780820191505090505b509050600082602001820190505b600115612c53578080600190039150507f3031323334353637383961626364656600000000000000000000000000000000600a86061a8153600a8581612c4757612c46614bb8565b5b04945060008503612bfe575b819350505050919050565b8080612c975750600073ffffffffffffffffffffffffffffffffffffffff168273ffffffffffffffffffffffffffffffffffffffff1614155b15612dcb576000612ca784611a87565b9050600073ffffffffffffffffffffffffffffffffffffffff168373ffffffffffffffffffffffffffffffffffffffff1614158015612d1257508273ffffffffffffffffffffffffffffffffffffffff168173ffffffffffffffffffffffffffffffffffffffff1614155b8015612d255750612d23818461172f565b155b15612d6757826040517fa9fbf51f000000000000000000000000000000000000000000000000000000008152600401612d5e91906137b7565b60405180910390fd5b8115612dc957838573ffffffffffffffffffffffffffffffffffffffff168273ffffffffffffffffffffffffffffffffffffffff167f8c5be1e5ebec7d5bd14f71427d1e84f3dd0314c0f7b2291e5b200ac8c7c3b92560405160405180910390a45b505b836004600085815260200190815260200160002060006101000a81548173ffffffffffffffffffffffffffffffffffffffff021916908373ffffffffffffffffffffffffffffffffffffffff16021790555050505050565b612e2c81611a39565b612e37838383612fd8565b505050565b612e46838361309c565b612e5360008484846124d1565b505050565b6060612e7e8273ffffffffffffffffffffffffffffffffffffffff16601460ff16613195565b9050919050565b600080600090507a184f03e93ff9f4daa797ed6e38ed64bf6a1f0100000000000000008310612ee3577a184f03e93ff9f4daa797ed6e38ed64bf6a1f0100000000000000008381612ed957612ed8614bb8565b5b0492506040810190505b6d04ee2d6d415b85acef81000000008310612f20576d04ee2d6d415b85acef81000000008381612f1657612f15614bb8565b5b0492506020810190505b662386f26fc100008310612f4f57662386f26fc100008381612f4557612f44614bb8565b5b0492506010810190505b6305f5e1008310612f78576305f5e1008381612f6e57612f6d614bb8565b5b0492506008810190505b6127108310612f9d576127108381612f9357612f92614bb8565b5b0492506004810190505b60648310612fc05760648381612fb657612fb5614bb8565b5b0492506002810190505b600a8310612fcf576001810190505b80915050919050565b612fe38383836133db565b61309757600073ffffffffffffffffffffffffffffffffffffffff168373ffffffffffffffffffffffffffffffffffffffff160361305857806040517f7e27328900000000000000000000000000000000000000000000000000000000815260040161304f9190613821565b60405180910390fd5b81816040517f177e802f00000000000000000000000000000000000000000000000000000000815260040161308e929190614244565b60405180910390fd5b505050565b600073ffffffffffffffffffffffffffffffffffffffff168273ffffffffffffffffffffffffffffffffffffffff160361310e5760006040517f64a0ae9200000000000000000000000000000000000000000000000000000000815260040161310591906137b7565b60405180910390fd5b600061311c83836000611d80565b9050600073ffffffffffffffffffffffffffffffffffffffff168173ffffffffffffffffffffffffffffffffffffffff16146131905760006040517f73c6ac6e00000000000000000000000000000000000000000000000000000000815260040161318791906137b7565b60405180910390fd5b505050565b60606000839050600060028460026131ad9190614be7565b6131b7919061429c565b67ffffffffffffffff8111156131d0576131cf613dff565b5b6040519080825280601f01601f1916602001820160405280156132025781602001600182028036833780820191505090505b5090507f30000000000000000000000000000000000000000000000000000000000000008160008151811061323a576132396141de565b5b60200101907effffffffffffffffffffffffffffffffffffffffffffffffffffffffffffff1916908160001a9053507f78000000000000000000000000000000000000000000000000000000000000008160018151811061329e5761329d6141de565b5b60200101907effffffffffffffffffffffffffffffffffffffffffffffffffffffffffffff1916908160001a905350600060018560026132de9190614be7565b6132e8919061429c565b90505b6001811115613388577f3031323334353637383961626364656600000000000000000000000000000000600f84166010811061332a576133296141de565b5b1a60f81b828281518110613341576133406141de565b5b60200101907effffffffffffffffffffffffffffffffffffffffffffffffffffffffffffff1916908160001a905350600483901c925080613381906143bd565b90506132eb565b50600082146133d05784846040517fe22e27eb0000000000000000000000000000000000000000000000000000000081526004016133c792919061497d565b60405180910390fd5b809250505092915050565b60008073ffffffffffffffffffffffffffffffffffffffff168373ffffffffffffffffffffffffffffffffffffffff161415801561349357508273ffffffffffffffffffffffffffffffffffffffff168473ffffffffffffffffffffffffffffffffffffffff1614806134545750613453848461172f565b5b8061349257508273ffffffffffffffffffffffffffffffffffffffff1661347a836128d0565b73ffffffffffffffffffffffffffffffffffffffff16145b5b90509392505050565b5080546134a8906140b1565b6000825580601f106134ba57506134d9565b601f0160209004906000526020600020908101906134d891906134dc565b5b50565b5b808211156134f55760008160009055506001016134dd565b5090565b6000604051905090565b600080fd5b600080fd5b60007fffffffff0000000000000000000000000000000000000000000000000000000082169050919050565b6135428161350d565b811461354d57600080fd5b50565b60008135905061355f81613539565b92915050565b60006020828403121561357b5761357a613503565b5b600061358984828501613550565b91505092915050565b60008115159050919050565b6135a781613592565b82525050565b60006020820190506135c2600083018461359e565b92915050565b6000819050919050565b6135db816135c8565b81146135e657600080fd5b50565b6000813590506135f8816135d2565b92915050565b60006020828403121561361457613613613503565b5b6000613622848285016135e9565b91505092915050565b600081519050919050565b600082825260208201905092915050565b60005b8381101561366557808201518184015260208101905061364a565b60008484015250505050565b6000601f19601f8301169050919050565b600061368d8261362b565b6136978185613636565b93506136a7818560208601613647565b6136b081613671565b840191505092915050565b600060208201905081810360008301526136d58184613682565b905092915050565b600080604083850312156136f4576136f3613503565b5b6000613702858286016135e9565b9250506020613713858286016135e9565b9150509250929050565b600073ffffffffffffffffffffffffffffffffffffffff82169050919050565b60006137488261371d565b9050919050565b6137588161373d565b811461376357600080fd5b50565b6000813590506137758161374f565b92915050565b60006020828403121561379157613790613503565b5b600061379f84828501613766565b91505092915050565b6137b18161373d565b82525050565b60006020820190506137cc60008301846137a8565b92915050565b600080604083850312156137e9576137e8613503565b5b60006137f785828601613766565b9250506020613808858286016135e9565b9150509250929050565b61381b816135c8565b82525050565b60006020820190506138366000830184613812565b92915050565b600080fd5b600080fd5b600080fd5b60008083601f8401126138615761386061383c565b5b8235905067ffffffffffffffff81111561387e5761387d613841565b5b60208301915083602082028301111561389a57613899613846565b5b9250929050565b6000806000604084860312156138ba576138b9613503565b5b60006138c8868287016135e9565b935050602084013567ffffffffffffffff8111156138e9576138e8613508565b5b6138f58682870161384b565b92509250509250925092565b600081519050919050565b600082825260208201905092915050565b6000819050602082019050919050565b600082825260208201905092915050565b60006139498261362b565b613953818561392d565b9350613963818560208601613647565b61396c81613671565b840191505092915050565b6000613983838361393e565b905092915050565b6000602082019050919050565b60006139a382613901565b6139ad818561390c565b9350836020820285016139bf8561391d565b8060005b858110156139fb57848403895281516139dc8582613977565b94506139e78361398b565b925060208a019950506001810190506139c3565b50829750879550505050505092915050565b60006020820190508181036000830152613a278184613998565b905092915050565b600080600060608486031215613a4857613a47613503565b5b6000613a5686828701613766565b9350506020613a6786828701613766565b9250506040613a78868287016135e9565b9150509250925092565b6000819050919050565b613a9581613a82565b8114613aa057600080fd5b50565b600081359050613ab281613a8c565b92915050565b600060208284031215613ace57613acd613503565b5b6000613adc84828501613aa3565b91505092915050565b613aee81613a82565b82525050565b6000602082019050613b096000830184613ae5565b92915050565b60008060408385031215613b2657613b25613503565b5b6000613b3485828601613aa3565b9250506020613b4585828601613766565b9150509250929050565b60008083601f840112613b6557613b6461383c565b5b8235905067ffffffffffffffff811115613b8257613b81613841565b5b602083019150836001820283011115613b9e57613b9d613846565b5b9250929050565b60008060008060608587031215613bbf57613bbe613503565b5b6000613bcd878288016135e9565b9450506020613bde878288016135e9565b935050604085013567ffffffffffffffff811115613bff57613bfe613508565b5b613c0b87828801613b4f565b925092505092959194509250565b60008083601f840112613c2f57613c2e61383c565b5b8235905067ffffffffffffffff811115613c4c57613c4b613841565b5b602083019150836020820283011115613c6857613c67613846565b5b9250929050565b613c7881613592565b8114613c8357600080fd5b50565b600081359050613c9581613c6f565b92915050565b600080600080600080600080600060c08a8c031215613cbd57613cbc613503565b5b6000613ccb8c828d01613766565b99505060208a013567ffffffffffffffff811115613cec57613ceb613508565b5b613cf88c828d01613b4f565b985098505060408a013567ffffffffffffffff811115613d1b57613d1a613508565b5b613d278c828d0161384b565b965096505060608a013567ffffffffffffffff811115613d4a57613d49613508565b5b613d568c828d01613c19565b94509450506080613d698c828d016135e9565b92505060a0613d7a8c828d01613c86565b9150509295985092959850929598565b60006040820190508181036000830152613da48185613682565b9050613db36020830184613812565b9392505050565b60008060408385031215613dd157613dd0613503565b5b6000613ddf85828601613766565b9250506020613df085828601613c86565b9150509250929050565b600080fd5b7f4e487b7100000000000000000000000000000000000000000000000000000000600052604160045260246000fd5b613e3782613671565b810181811067ffffffffffffffff82111715613e5657613e55613dff565b5b80604052505050565b6000613e696134f9565b9050613e758282613e2e565b919050565b600067ffffffffffffffff821115613e9557613e94613dff565b5b613e9e82613671565b9050602081019050919050565b82818337600083830152505050565b6000613ecd613ec884613e7a565b613e5f565b905082815260208101848484011115613ee957613ee8613dfa565b5b613ef4848285613eab565b509392505050565b600082601f830112613f1157613f1061383c565b5b8135613f21848260208601613eba565b91505092915050565b60008060008060808587031215613f4457613f43613503565b5b6000613f5287828801613766565b9450506020613f6387828801613766565b9350506040613f74878288016135e9565b925050606085013567ffffffffffffffff811115613f9557613f94613508565b5b613fa187828801613efc565b91505092959194509250565b600080600080600060608688031215613fc957613fc8613503565b5b6000613fd7888289016135e9565b955050602086013567ffffffffffffffff811115613ff857613ff7613508565b5b6140048882890161384b565b9450945050604086013567ffffffffffffffff81111561402757614026613508565b5b61403388828901613c19565b92509250509295509295909350565b6000806040838503121561405957614058613503565b5b600061406785828601613766565b925050602061407885828601613766565b9150509250929050565b7f4e487b7100000000000000000000000000000000000000000000000000000000600052602260045260246000fd5b600060028204905060018216806140c957607f821691505b6020821081036140dc576140db614082565b5b50919050565b600081905092915050565b60008190508160005260206000209050919050565b6000815461410f816140b1565b61411981866140e2565b9450600182166000811461413457600181146141495761417c565b60ff198316865281151582028601935061417c565b614152856140ed565b60005b8381101561417457815481890152600182019150602081019050614155565b838801955050505b50505092915050565b7f2e00000000000000000000000000000000000000000000000000000000000000815250565b60006141b78285614102565b91506141c282614185565b6001820191506141d28284614102565b91508190509392505050565b7f4e487b7100000000000000000000000000000000000000000000000000000000600052603260045260246000fd5b600060608201905061422260008301866137a8565b61422f6020830185613812565b61423c60408301846137a8565b949350505050565b600060408201905061425960008301856137a8565b6142666020830184613812565b9392505050565b7f4e487b7100000000000000000000000000000000000000000000000000000000600052601160045260246000fd5b60006142a7826135c8565b91506142b2836135c8565b92508282019050808211156142ca576142c961426d565b5b92915050565b60006060820190506142e56000830186613812565b6142f26020830185613812565b6142ff6040830184613812565b949350505050565b6000819050919050565b6000819050919050565b600061433661433161432c84614307565b614311565b6135c8565b9050919050565b6143468161431b565b82525050565b600060408201905061436160008301856137a8565b61436e602083018461433d565b9392505050565b6000614380826135c8565b91507fffffffffffffffffffffffffffffffffffffffffffffffffffffffffffffffff82036143b2576143b161426d565b5b600182019050919050565b60006143c8826135c8565b9150600082036143db576143da61426d565b5b600182039050919050565b60006080820190506143fb6000830187613812565b61440860208301866137a8565b6144156040830185613812565b6144226060830184613812565b95945050505050565b600082905092915050565b60006020601f8301049050919050565b600082821b905092915050565b6000600883026144837fffffffffffffffffffffffffffffffffffffffffffffffffffffffffffffffff82614446565b61448d8683614446565b95508019841693508086168417925050509392505050565b60006144c06144bb6144b6846135c8565b614311565b6135c8565b9050919050565b6000819050919050565b6144da836144a5565b6144ee6144e6826144c7565b848454614453565b825550505050565b600090565b6145036144f6565b61450e8184846144d1565b505050565b5b81811015614532576145276000826144fb565b600181019050614514565b5050565b601f82111561457757614548816140ed565b61455184614436565b81016020851015614560578190505b61457461456c85614436565b830182614513565b50505b505050565b600082821c905092915050565b600061459a6000198460080261457c565b1980831691505092915050565b60006145b38383614589565b9150826002028217905092915050565b6145cd838361442b565b67ffffffffffffffff8111156145e6576145e5613dff565b5b6145f082546140b1565b6145fb828285614536565b6000601f83116001811461462a5760008415614618578287013590505b61462285826145a7565b86555061468a565b601f198416614638866140ed565b60005b828110156146605784890135825560018201915060208501945060208101905061463b565b8683101561467d5784890135614679601f891682614589565b8355505b6001600288020188555050505b50505050505050565b600061469f8385613636565b93506146ac838584613eab565b6146b583613671565b840190509392505050565b60006080820190506146d56000830188613812565b6146e26020830187613812565b6146ef6040830186613812565b8181036060830152614702818486614693565b90509695505050505050565b60006147198261362b565b61472381856140e2565b9350614733818560208601613647565b80840191505092915050565b600061474b828461470e565b915081905092915050565b6000819050919050565b61477161476c826135c8565b614756565b82525050565b6000819050919050565b61479261478d82613a82565b614777565b82525050565b60006147a48285614760565b6020820191506147b48284614781565b6020820191508190509392505050565b6147cd8261362b565b67ffffffffffffffff8111156147e6576147e5613dff565b5b6147f082546140b1565b6147fb828285614536565b600060209050601f83116001811461482e576000841561481c578287015190505b61482685826145a7565b86555061488e565b601f19841661483c866140ed565b60005b828110156148645784890151825560018201915060208501945060208101905061483f565b86831015614881578489015161487d601f891682614589565b8355505b6001600288020188555050505b505050505050565b600060a0820190506148ab6000830188613812565b6148b86020830187613812565b81810360408301526148ca8186613682565b90506148d960608301856137a8565b6148e66080830184613812565b9695505050505050565b600080fd5b600080fd5b600080fd5b6000808335600160200384360303811261491c5761491b6148f0565b5b80840192508235915067ffffffffffffffff82111561493e5761493d6148f5565b5b60208301925060018202360383131561495a576149596148fa565b5b509250929050565b600061496e8284614760565b60208201915081905092915050565b60006040820190506149926000830185613812565b61499f6020830184613812565b9392505050565b600081519050919050565b600082825260208201905092915050565b60006149cd826149a6565b6149d781856149b1565b93506149e7818560208601613647565b6149f081613671565b840191505092915050565b6000608082019050614a1060008301876137a8565b614a1d60208301866137a8565b614a2a6040830185613812565b8181036060830152614a3c81846149c2565b905095945050505050565b600081519050614a5681613539565b92915050565b600060208284031215614a7257614a71613503565b5b6000614a8084828501614a47565b91505092915050565b6000614a95828561470e565b9150614aa1828461470e565b91508190509392505050565b6000608082019050614ac26000830187613812565b614acf60208301866137a8565b614adc6040830185613812565b614ae9606083018461433d565b95945050505050565b6000604082019050614b0760008301856137a8565b614b146020830184613ae5565b9392505050565b7f68747470733a2f2f6d657461646174612e6e6e732e78797a2f00000000000000815250565b7f2f00000000000000000000000000000000000000000000000000000000000000815250565b6000614b7282614b1b565b601982019150614b82828561470e565b9150614b8d82614b41565b600182019150614b9d828461470e565b9150614ba882614b41565b6001820191508190509392505050565b7f4e487b7100000000000000000000000000000000000000000000000000000000600052601260045260246000fd5b6000614bf2826135c8565b9150614bfd836135c8565b9250828202614c0b816135c8565b91508282048414831517614c2257614c2161426d565b5b509291505056fea26469706673582212203b05e7744c68423073fd1d22aa8dc97723ad34608d1b9dc60b83477c2b99f68264736f6c63430008180033a2646970667358221220a5675210a65c02dfd91e512a1ee5fe4abaa38cc17f149809d19513c126d10ccc64736f6c63430008180033",
  "linkReferences": {},
  "deployedLinkReferences": {}
}