{
  "_format": "hh-sol-artifact-1",
  "contractName": "NNSRewarder",
  "sourceName": "contracts/NNSRewarder.sol",
  "abi": [
    {
      "inputs": [
        {
          "internalType": "contract ISwapRouter",
          "name": "swapRouter",
          "type": "address"
        },
        {
          "internalType": "contract IERC20",
          "name": "rewardToken",
          "type": "address"
        },
        {
          "internalType": "contract IERC20",
          "name": "weth9",
          "type": "address"
        },
        {
          "internalType": "address",
          "name": "protocol",
          "type": "address"
        },
        {
          "internalType": "uint256",
          "name": "minSnapshotInterval",
          "type": "uint256"
        }
      ],
      "stateMutability": "nonpayable",
      "type": "constructor"
    },
    {
      "inputs": [
        {
          "internalType": "address",
          "name": "target",
          "type": "address"
        }
      ],
      "name": "AddressEmptyCode",
      "type": "error"
    },
    {
      "inputs": [
        {
          "internalType": "address",
          "name": "account",
          "type": "address"
        }
      ],
      "name": "AddressInsufficientBalance",
      "type": "error"
    },
    {
      "inputs": [
        {
          "internalType": "uint256",
          "name": "cldId",
          "type": "uint256"
        }
      ],
      "name": "CldAlreadyRegistered",
      "type": "error"
    },
    {
      "inputs": [],
      "name": "FailedInnerCall",
      "type": "error"
    },
    {
      "inputs": [],
      "name": "HoldersSnapshotTooEarly",
      "type": "error"
    },
    {
      "inputs": [
        {
          "internalType": "address",
          "name": "account",
          "type": "address"
        }
      ],
      "name": "InvalidAccount",
      "type": "error"
    },
    {
      "inputs": [
        {
          "internalType": "uint256",
          "name": "cldId",
          "type": "uint256"
        }
      ],
      "name": "InvalidCld",
      "type": "error"
    },
    {
      "inputs": [],
      "name": "InvalidShares",
      "type": "error"
    },
    {
      "inputs": [],
      "name": "NothingToWithdraw",
      "type": "error"
    },
    {
      "inputs": [
        {
          "internalType": "address",
          "name": "owner",
          "type": "address"
        }
      ],
      "name": "OwnableInvalidOwner",
      "type": "error"
    },
    {
      "inputs": [
        {
          "internalType": "address",
          "name": "account",
          "type": "address"
        }
      ],
      "name": "OwnableUnauthorizedAccount",
      "type": "error"
    },
    {
      "inputs": [
        {
          "internalType": "address",
          "name": "token",
          "type": "address"
        }
      ],
      "name": "SafeERC20FailedOperation",
      "type": "error"
    },
    {
      "inputs": [
        {
          "internalType": "uint256",
          "name": "tokenId",
          "type": "uint256"
        },
        {
          "internalType": "uint256",
          "name": "mintBlock",
          "type": "uint256"
        },
        {
          "internalType": "uint256",
          "name": "snapshotBlock",
          "type": "uint256"
        }
      ],
      "name": "TokenNotInSnapshot",
      "type": "error"
    },
    {
      "inputs": [
        {
          "internalType": "address",
          "name": "account",
          "type": "address"
        },
        {
          "internalType": "uint256",
          "name": "cldId",
          "type": "uint256"
        },
        {
          "internalType": "address",
          "name": "registry",
          "type": "address"
        },
        {
          "internalType": "uint256",
          "name": "tokenId",
          "type": "uint256"
        }
      ],
      "name": "TokenNotOwned",
      "type": "error"
    },
    {
      "anonymous": false,
      "inputs": [
        {
          "indexed": false,
          "internalType": "address",
          "name": "accont",
          "type": "address"
        },
        {
          "indexed": false,
          "internalType": "uint256",
          "name": "delta",
          "type": "uint256"
        },
        {
          "indexed": false,
          "internalType": "uint256",
          "name": "amount",
          "type": "uint256"
        }
      ],
      "name": "BalanceChanged",
      "type": "event"
    },
    {
      "anonymous": false,
      "inputs": [
        {
          "indexed": false,
          "internalType": "uint256",
          "name": "cldId",
          "type": "uint256"
        },
        {
          "indexed": false,
          "internalType": "address",
          "name": "target",
          "type": "address"
        },
        {
          "indexed": false,
          "internalType": "uint8",
          "name": "referralShare",
          "type": "uint8"
        },
        {
          "indexed": false,
          "internalType": "uint8",
          "name": "communityShare",
          "type": "uint8"
        },
        {
          "indexed": false,
          "internalType": "uint8",
          "name": "ecosystemShare",
          "type": "uint8"
        }
      ],
      "name": "CldRegistered",
      "type": "event"
    },
    {
      "anonymous": false,
      "inputs": [
        {
          "indexed": false,
          "internalType": "uint256",
          "name": "cldId",
          "type": "uint256"
        },
        {
          "indexed": false,
          "internalType": "address",
          "name": "referer",
          "type": "address"
        },
        {
          "indexed": false,
          "internalType": "uint256",
          "name": "amountEth",
          "type": "uint256"
        },
        {
          "indexed": false,
          "internalType": "uint256",
          "name": "amountERC20",
          "type": "uint256"
        }
      ],
      "name": "Collected",
      "type": "event"
    },
    {
      "anonymous": false,
      "inputs": [
        {
          "components": [
            {
              "internalType": "uint256",
              "name": "reward",
              "type": "uint256"
            },
            {
              "internalType": "uint256",
              "name": "supply",
              "type": "uint256"
            },
            {
              "internalType": "uint256",
              "name": "unclaimed",
              "type": "uint256"
            },
            {
              "internalType": "uint256",
              "name": "blockNumber",
              "type": "uint256"
            },
            {
              "internalType": "uint256",
              "name": "blockTimestamp",
              "type": "uint256"
            }
          ],
          "indexed": false,
          "internalType": "struct IRewarder.HolderRewardsSnapshot",
          "name": "",
          "type": "tuple"
        }
      ],
      "name": "HolderRewardsSnapshotCreated",
      "type": "event"
    },
    {
      "anonymous": false,
      "inputs": [
        {
          "indexed": false,
          "internalType": "uint256",
          "name": "delta",
          "type": "uint256"
        },
        {
          "indexed": false,
          "internalType": "uint256",
          "name": "amount",
          "type": "uint256"
        }
      ],
      "name": "HoldersBalanceChanged",
      "type": "event"
    },
    {
      "anonymous": false,
      "inputs": [
        {
          "indexed": true,
          "internalType": "address",
          "name": "previousOwner",
          "type": "address"
        },
        {
          "indexed": true,
          "internalType": "address",
          "name": "newOwner",
          "type": "address"
        }
      ],
      "name": "OwnershipTransferred",
      "type": "event"
    },
    {
      "anonymous": false,
      "inputs": [
        {
          "indexed": false,
          "internalType": "address",
          "name": "account",
          "type": "address"
        },
        {
          "indexed": false,
          "internalType": "uint256[]",
          "name": "tokenIds",
          "type": "uint256[]"
        },
        {
          "indexed": false,
          "internalType": "uint256",
          "name": "amount",
          "type": "uint256"
        }
      ],
      "name": "Withdrawn",
      "type": "event"
    },
    {
      "inputs": [],
      "name": "PROTOCOL_SHARE",
      "outputs": [
        {
          "internalType": "uint8",
          "name": "",
          "type": "uint8"
        }
      ],
      "stateMutability": "view",
      "type": "function"
    },
    {
      "inputs": [
        {
          "internalType": "address",
          "name": "account",
          "type": "address"
        }
      ],
      "name": "balanceOf",
      "outputs": [
        {
          "internalType": "uint256",
          "name": "",
          "type": "uint256"
        }
      ],
      "stateMutability": "view",
      "type": "function"
    },
    {
      "inputs": [
        {
          "internalType": "uint256",
          "name": "tokenId",
          "type": "uint256"
        }
      ],
      "name": "balanceOf",
      "outputs": [
        {
          "internalType": "uint256",
          "name": "",
          "type": "uint256"
        }
      ],
      "stateMutability": "view",
      "type": "function"
    },
    {
      "inputs": [],
      "name": "balanceOfHolders",
      "outputs": [
        {
          "internalType": "uint256",
          "name": "",
          "type": "uint256"
        }
      ],
      "stateMutability": "view",
      "type": "function"
    },
    {
      "inputs": [
        {
          "internalType": "uint256",
          "name": "cldId",
          "type": "uint256"
        },
        {
          "internalType": "address",
          "name": "referer",
          "type": "address"
        }
      ],
      "name": "collect",
      "outputs": [],
      "stateMutability": "payable",
      "type": "function"
    },
    {
      "inputs": [
        {
          "internalType": "uint256",
          "name": "cldId",
          "type": "uint256"
        }
      ],
      "name": "configurationOf",
      "outputs": [
        {
          "components": [
            {
              "internalType": "uint8",
              "name": "referralShare",
              "type": "uint8"
            },
            {
              "internalType": "uint8",
              "name": "communityShare",
              "type": "uint8"
            },
            {
              "internalType": "uint8",
              "name": "ecosystemShare",
              "type": "uint8"
            },
            {
              "internalType": "uint8",
              "name": "protocolShare",
              "type": "uint8"
            },
            {
              "internalType": "bool",
              "name": "isCldSplitRewards",
              "type": "bool"
            },
            {
              "internalType": "address",
              "name": "payoutTarget",
              "type": "address"
            },
            {
              "internalType": "contract IRegistry",
              "name": "registry",
              "type": "address"
            }
          ],
          "internalType": "struct IRewarder.CldConfiguration",
          "name": "c",
          "type": "tuple"
        }
      ],
      "stateMutability": "view",
      "type": "function"
    },
    {
      "inputs": [],
      "name": "holderRewardsSnapshot",
      "outputs": [
        {
          "components": [
            {
              "internalType": "uint256",
              "name": "reward",
              "type": "uint256"
            },
            {
              "internalType": "uint256",
              "name": "supply",
              "type": "uint256"
            },
            {
              "internalType": "uint256",
              "name": "unclaimed",
              "type": "uint256"
            },
            {
              "internalType": "uint256",
              "name": "blockNumber",
              "type": "uint256"
            },
            {
              "internalType": "uint256",
              "name": "blockTimestamp",
              "type": "uint256"
            }
          ],
          "internalType": "struct IRewarder.HolderRewardsSnapshot",
          "name": "",
          "type": "tuple"
        }
      ],
      "stateMutability": "view",
      "type": "function"
    },
    {
      "inputs": [],
      "name": "owner",
      "outputs": [
        {
          "internalType": "address",
          "name": "",
          "type": "address"
        }
      ],
      "stateMutability": "view",
      "type": "function"
    },
    {
      "inputs": [],
      "name": "previewHolderRewardsSnapshot",
      "outputs": [
        {
          "components": [
            {
              "internalType": "uint256",
              "name": "reward",
              "type": "uint256"
            },
            {
              "internalType": "uint256",
              "name": "supply",
              "type": "uint256"
            },
            {
              "internalType": "uint256",
              "name": "unclaimed",
              "type": "uint256"
            },
            {
              "internalType": "uint256",
              "name": "blockNumber",
              "type": "uint256"
            },
            {
              "internalType": "uint256",
              "name": "blockTimestamp",
              "type": "uint256"
            }
          ],
          "internalType": "struct IRewarder.HolderRewardsSnapshot",
          "name": "",
          "type": "tuple"
        }
      ],
      "stateMutability": "view",
      "type": "function"
    },
    {
      "inputs": [
        {
          "internalType": "contract IRegistry",
          "name": "registry",
          "type": "address"
        },
        {
          "internalType": "address",
          "name": "payout",
          "type": "address"
        },
        {
          "internalType": "uint8",
          "name": "referralShare",
          "type": "uint8"
        },
        {
          "internalType": "uint8",
          "name": "communityShare",
          "type": "uint8"
        },
        {
          "internalType": "bool",
          "name": "isCldSplitRewards",
          "type": "bool"
        }
      ],
      "name": "registerCld",
      "outputs": [],
      "stateMutability": "nonpayable",
      "type": "function"
    },
    {
      "inputs": [],
      "name": "renounceOwnership",
      "outputs": [],
      "stateMutability": "nonpayable",
      "type": "function"
    },
    {
      "inputs": [],
      "name": "takeHolderRewardsSnapshot",
      "outputs": [],
      "stateMutability": "nonpayable",
      "type": "function"
    },
    {
      "inputs": [
        {
          "internalType": "address",
          "name": "newOwner",
          "type": "address"
        }
      ],
      "name": "transferOwnership",
      "outputs": [],
      "stateMutability": "nonpayable",
      "type": "function"
    },
    {
      "inputs": [
        {
          "internalType": "address",
          "name": "account",
          "type": "address"
        },
        {
          "internalType": "uint256[]",
          "name": "tokenIds",
          "type": "uint256[]"
        }
      ],
      "name": "withdraw",
      "outputs": [],
      "stateMutability": "nonpayable",
      "type": "function"
    },
    {
      "inputs": [
        {
          "internalType": "uint256",
          "name": "cldId",
          "type": "uint256"
        },
        {
          "internalType": "uint256[]",
          "name": "tokenIds",
          "type": "uint256[]"
        }
      ],
      "name": "withdrawForCommunity",
      "outputs": [],
      "stateMutability": "nonpayable",
      "type": "function"
    }
  ],
  "bytecode": "0x60806040523480156200001157600080fd5b5060405162003305380380620033058339818101604052810190620000379190620003c8565b33600073ffffffffffffffffffffffffffffffffffffffff168173ffffffffffffffffffffffffffffffffffffffff1603620000ad5760006040517f1e4fbdf7000000000000000000000000000000000000000000000000000000008152600401620000a4919062000461565b60405180910390fd5b620000be81620001d560201b60201c565b5084600960006101000a81548173ffffffffffffffffffffffffffffffffffffffff021916908373ffffffffffffffffffffffffffffffffffffffff16021790555083600860006101000a81548173ffffffffffffffffffffffffffffffffffffffff021916908373ffffffffffffffffffffffffffffffffffffffff16021790555082600a60006101000a81548173ffffffffffffffffffffffffffffffffffffffff021916908373ffffffffffffffffffffffffffffffffffffffff16021790555081600160006101000a81548173ffffffffffffffffffffffffffffffffffffffff021916908373ffffffffffffffffffffffffffffffffffffffff1602179055508060128190555050505050506200047e565b60008060009054906101000a900473ffffffffffffffffffffffffffffffffffffffff169050816000806101000a81548173ffffffffffffffffffffffffffffffffffffffff021916908373ffffffffffffffffffffffffffffffffffffffff1602179055508173ffffffffffffffffffffffffffffffffffffffff168173ffffffffffffffffffffffffffffffffffffffff167f8be0079c531659141344cd1fd0a4f28419497f9722a3daafe3b4186f6b6457e060405160405180910390a35050565b600080fd5b600073ffffffffffffffffffffffffffffffffffffffff82169050919050565b6000620002cb826200029e565b9050919050565b6000620002df82620002be565b9050919050565b620002f181620002d2565b8114620002fd57600080fd5b50565b6000815190506200031181620002e6565b92915050565b60006200032482620002be565b9050919050565b620003368162000317565b81146200034257600080fd5b50565b60008151905062000356816200032b565b92915050565b6200036781620002be565b81146200037357600080fd5b50565b60008151905062000387816200035c565b92915050565b6000819050919050565b620003a2816200038d565b8114620003ae57600080fd5b50565b600081519050620003c28162000397565b92915050565b600080600080600060a08688031215620003e757620003e662000299565b5b6000620003f78882890162000300565b95505060206200040a8882890162000345565b94505060406200041d8882890162000345565b9350506060620004308882890162000376565b92505060806200044388828901620003b1565b9150509295509295909350565b6200045b81620002be565b82525050565b600060208201905062000478600083018462000450565b92915050565b612e77806200048e6000396000f3fe6080604052600436106100e85760003560e01c80638d3c100a1161008a578063e629e43c11610059578063e629e43c146102c1578063f2fde38b146102ec578063f7fed11714610315578063fca5aa4314610340576100e8565b80638d3c100a146102145780638da5cb5b146102305780639cc7f7081461025b578063ada7f1e614610298576100e8565b806351adc761116100c657806351adc7611461016c57806370a0823114610197578063715018a6146101d45780638293744b146101eb576100e8565b80632b545421146100ed578063424fa36a1461012a5780634be45b0714610155575b600080fd5b3480156100f957600080fd5b50610114600480360381019061010f9190611f75565b610369565b6040516101219190612107565b60405180910390f35b34801561013657600080fd5b5061013f610525565b60405161014c9190612199565b60405180910390f35b34801561016157600080fd5b5061016a610541565b005b34801561017857600080fd5b50610181610616565b60405161018e91906121c3565b60405180910390f35b3480156101a357600080fd5b506101be60048036038101906101b9919061220a565b61061b565b6040516101cb9190612246565b60405180910390f35b3480156101e057600080fd5b506101e9610664565b005b3480156101f757600080fd5b50610212600480360381019061020d91906122c6565b610678565b005b61022e60048036038101906102299190612326565b610688565b005b34801561023c57600080fd5b50610245610da2565b6040516102529190612375565b60405180910390f35b34801561026757600080fd5b50610282600480360381019061027d9190611f75565b610dcb565b60405161028f9190612246565b60405180910390f35b3480156102a457600080fd5b506102bf60048036038101906102ba9190612426565b610ed8565b005b3480156102cd57600080fd5b506102d66111e5565b6040516102e39190612246565b60405180910390f35b3480156102f857600080fd5b50610313600480360381019061030e919061220a565b6111ef565b005b34801561032157600080fd5b5061032a611275565b6040516103379190612199565b60405180910390f35b34801561034c57600080fd5b50610367600480360381019061036291906124a1565b6112c1565b005b610371611e85565b60006006600084815260200190815260200160002060009054906101000a900473ffffffffffffffffffffffffffffffffffffffff169050600073ffffffffffffffffffffffffffffffffffffffff168173ffffffffffffffffffffffffffffffffffffffff16036103e35750610520565b6040518060e001604052806005600086815260200190815260200160002060009054906101000a900460ff1660ff1681526020016003600086815260200190815260200160002060009054906101000a900460ff1660ff16815260200161044985611304565b60ff168152602001600560ff168152602001600760009054906101000a900473ffffffffffffffffffffffffffffffffffffffff1673ffffffffffffffffffffffffffffffffffffffff168373ffffffffffffffffffffffffffffffffffffffff1614151581526020016004600086815260200190815260200160002060009054906101000a900473ffffffffffffffffffffffffffffffffffffffff1673ffffffffffffffffffffffffffffffffffffffff1681526020018273ffffffffffffffffffffffffffffffffffffffff168152509150505b919050565b61052d611efc565b600061053761137c565b5090508091505090565b42601254600c600401546105559190612530565b111561058d576040517fbe39dd8d00000000000000000000000000000000000000000000000000000000815260040160405180910390fd5b61059561137c565b600c6000600b60008491905055839190506000820151816000015560208201518160010155604082015181600201556060820151816003015560808201518160040155505050507f64c3c0243233b5ec6c4cf9bcb3e55d27a6bbc9f9b72bcd3eac2ebf774c42c432600c60405161060c9190612636565b60405180910390a1565b600581565b6000600260008373ffffffffffffffffffffffffffffffffffffffff1673ffffffffffffffffffffffffffffffffffffffff168152602001908152602001600020549050919050565b61066c61147f565b6106766000611506565b565b6106838383836115ca565b505050565b61069061147f565b61069982611783565b506000604051806101000160405280600a60009054906101000a900473ffffffffffffffffffffffffffffffffffffffff1673ffffffffffffffffffffffffffffffffffffffff168152602001600860009054906101000a900473ffffffffffffffffffffffffffffffffffffffff1673ffffffffffffffffffffffffffffffffffffffff168152602001610bb862ffffff1681526020013073ffffffffffffffffffffffffffffffffffffffff168152602001600f4261075a9190612530565b815260200147815260200160008152602001600073ffffffffffffffffffffffffffffffffffffffff1681525090506000600960009054906101000a900473ffffffffffffffffffffffffffffffffffffffff1673ffffffffffffffffffffffffffffffffffffffff1663414bf38947846040518363ffffffff1660e01b81526004016107e79190612720565b60206040518083038185885af1158015610805573d6000803e3d6000fd5b50505050506040513d601f19601f8201168201806040525081019061082a9190612751565b9050600073ffffffffffffffffffffffffffffffffffffffff168373ffffffffffffffffffffffffffffffffffffffff1603610897576004600085815260200190815260200160002060009054906101000a900473ffffffffffffffffffffffffffffffffffffffff1692505b600060646005600087815260200190815260200160002060009054906101000a900460ff1660ff16836108ca919061277e565b6108d491906127ef565b905080600260008673ffffffffffffffffffffffffffffffffffffffff1673ffffffffffffffffffffffffffffffffffffffff16815260200190815260200160002060008282546109259190612530565b925050819055507faeeb0cb16f299136e7e5467ea84217150fe83008833064528f360cde7b7b54c38482600260008873ffffffffffffffffffffffffffffffffffffffff1673ffffffffffffffffffffffffffffffffffffffff1681526020019081526020016000205460405161099e93929190612820565b60405180910390a1600060646003600088815260200190815260200160002060009054906101000a900460ff1660ff16846109d9919061277e565b6109e391906127ef565b90508060026000600460008a815260200190815260200160002060009054906101000a900473ffffffffffffffffffffffffffffffffffffffff1673ffffffffffffffffffffffffffffffffffffffff1673ffffffffffffffffffffffffffffffffffffffff1681526020019081526020016000206000828254610a679190612530565b925050819055507faeeb0cb16f299136e7e5467ea84217150fe83008833064528f360cde7b7b54c36004600088815260200190815260200160002060009054906101000a900473ffffffffffffffffffffffffffffffffffffffff168260026000600460008c815260200190815260200160002060009054906101000a900473ffffffffffffffffffffffffffffffffffffffff1673ffffffffffffffffffffffffffffffffffffffff1673ffffffffffffffffffffffffffffffffffffffff16815260200190815260200160002054604051610b4693929190612820565b60405180910390a160006064600560ff1685610b62919061277e565b610b6c91906127ef565b90508060026000600160009054906101000a900473ffffffffffffffffffffffffffffffffffffffff1673ffffffffffffffffffffffffffffffffffffffff1673ffffffffffffffffffffffffffffffffffffffff1681526020019081526020016000206000828254610bdf9190612530565b925050819055507faeeb0cb16f299136e7e5467ea84217150fe83008833064528f360cde7b7b54c3600160009054906101000a900473ffffffffffffffffffffffffffffffffffffffff168260026000600160009054906101000a900473ffffffffffffffffffffffffffffffffffffffff1673ffffffffffffffffffffffffffffffffffffffff1673ffffffffffffffffffffffffffffffffffffffff16815260200190815260200160002054604051610c9c93929190612820565b60405180910390a160006064610cb189611304565b60ff1686610cbf919061277e565b610cc991906127ef565b905060008282858789610cdc9190612857565b610ce69190612857565b610cf09190612857565b610cfa9190612857565b90506000811115610d5a5780600b6000828254610d179190612530565b925050819055507f7c6356899761859b88c3a7039f9bd3ca75f9cae78d3af918b7942a0f26225ba581600b54604051610d5192919061288b565b60405180910390a15b7fe985bb809569e1ab693b8d0a44015cb780fa698a4b16df55472d8eeffa185b3989893489604051610d8f94939291906128b4565b60405180910390a1505050505050505050565b60008060009054906101000a900473ffffffffffffffffffffffffffffffffffffffff16905090565b600080600760009054906101000a900473ffffffffffffffffffffffffffffffffffffffff1673ffffffffffffffffffffffffffffffffffffffff166358f3d653846040518263ffffffff1660e01b8152600401610e299190612246565b602060405180830381865afa158015610e46573d6000803e3d6000fd5b505050506040513d601f19601f82011682018060405250810190610e6a9190612751565b9050600c60030154811115610e83576000915050610ed3565b60116000600c600301548152602001908152602001600020600084815260200190815260200160002060009054906101000a900460ff1615610ec9576000915050610ed3565b600c600001549150505b919050565b610ee061147f565b606460058385610ef091906128f9565b610efa91906128f9565b60ff161115610f35576040517f6edcc52300000000000000000000000000000000000000000000000000000000815260040160405180910390fd5b60008573ffffffffffffffffffffffffffffffffffffffff166383d48e046040518163ffffffff1660e01b8152600401600060405180830381865afa158015610f82573d6000803e3d6000fd5b505050506040513d6000823e3d601f19601f82011682018060405250810190610fab9190612a8a565b915050600073ffffffffffffffffffffffffffffffffffffffff166006600083815260200190815260200160002060009054906101000a900473ffffffffffffffffffffffffffffffffffffffff1673ffffffffffffffffffffffffffffffffffffffff161461105257806040517f8099d0660000000000000000000000000000000000000000000000000000000081526004016110499190612246565b60405180910390fd5b846004600083815260200190815260200160002060006101000a81548173ffffffffffffffffffffffffffffffffffffffff021916908373ffffffffffffffffffffffffffffffffffffffff160217905550826003600083815260200190815260200160002060006101000a81548160ff021916908360ff160217905550836005600083815260200190815260200160002060006101000a81548160ff021916908360ff160217905550856006600083815260200190815260200160002060006101000a81548173ffffffffffffffffffffffffffffffffffffffff021916908373ffffffffffffffffffffffffffffffffffffffff16021790555081156111965785600760006101000a81548173ffffffffffffffffffffffffffffffffffffffff021916908373ffffffffffffffffffffffffffffffffffffffff1602179055505b7f28b5f014d229bc5b7dee089d4c00f7d362386b3f404a8cd7a682569ed2b3b423818686866111c486611304565b6040516111d5959493929190612ae6565b60405180910390a1505050505050565b6000600b54905090565b6111f761147f565b600073ffffffffffffffffffffffffffffffffffffffff168173ffffffffffffffffffffffffffffffffffffffff16036112695760006040517f1e4fbdf70000000000000000000000000000000000000000000000000000000081526004016112609190612375565b60405180910390fd5b61127281611506565b50565b61127d611efc565b600c6040518060a001604052908160008201548152602001600182015481526020016002820154815260200160038201548152602001600482015481525050905090565b6112ff6004600085815260200190815260200160002060009054906101000a900473ffffffffffffffffffffffffffffffffffffffff1683836115ca565b505050565b60006002600580600085815260200190815260200160002060009054906101000a900460ff166003600086815260200190815260200160002060009054906101000a900460ff1660646113579190612b39565b6113619190612b39565b61136b9190612b39565b6113759190612b6e565b9050919050565b611384611efc565b600080600c60020154600b5461139a9190612530565b90506000600760009054906101000a900473ffffffffffffffffffffffffffffffffffffffff1673ffffffffffffffffffffffffffffffffffffffff166318160ddd6040518163ffffffff1660e01b8152600401602060405180830381865afa15801561140b573d6000803e3d6000fd5b505050506040513d601f19601f8201168201806040525081019061142f9190612751565b90506000818361143f91906127ef565b90506040518060a0016040528082815260200183815260200184815260200143815260200142815250945081836114769190612b9f565b93505050509091565b611487611836565b73ffffffffffffffffffffffffffffffffffffffff166114a5610da2565b73ffffffffffffffffffffffffffffffffffffffff1614611504576114c8611836565b6040517f118cdaa70000000000000000000000000000000000000000000000000000000081526004016114fb9190612375565b60405180910390fd5b565b60008060009054906101000a900473ffffffffffffffffffffffffffffffffffffffff169050816000806101000a81548173ffffffffffffffffffffffffffffffffffffffff021916908373ffffffffffffffffffffffffffffffffffffffff1602179055508173ffffffffffffffffffffffffffffffffffffffff168173ffffffffffffffffffffffffffffffffffffffff167f8be0079c531659141344cd1fd0a4f28419497f9722a3daafe3b4186f6b6457e060405160405180910390a35050565b600073ffffffffffffffffffffffffffffffffffffffff168373ffffffffffffffffffffffffffffffffffffffff160361163b57826040517f4b579b220000000000000000000000000000000000000000000000000000000081526004016116329190612375565b60405180910390fd5b60006116468461061b565b905060005b83839050811015611693576116798585858481811061166d5761166c612bd0565b5b9050602002013561183e565b826116849190612530565b9150808060010191505061164b565b50600081036116ce576040517fd0d04f6000000000000000000000000000000000000000000000000000000000815260040160405180910390fd5b6000600260008673ffffffffffffffffffffffffffffffffffffffff1673ffffffffffffffffffffffffffffffffffffffff16815260200190815260200160002081905550611740600860009054906101000a900473ffffffffffffffffffffffffffffffffffffffff168583611bb8565b7fe66b0ed849ff888f010dc005178a261d92bdc7dcf7c5b5eedd3a5aad3c9a2eb9848484846040516117759493929190612c7a565b60405180910390a150505050565b6000806006600084815260200190815260200160002060009054906101000a900473ffffffffffffffffffffffffffffffffffffffff169050600073ffffffffffffffffffffffffffffffffffffffff168173ffffffffffffffffffffffffffffffffffffffff160361182d57826040517f6128427d0000000000000000000000000000000000000000000000000000000081526004016118249190612246565b60405180910390fd5b80915050919050565b600033905090565b600060116000600c600301548152602001908152602001600020600083815260200190815260200160002060009054906101000a900460ff16156118855760009050611bb2565b8273ffffffffffffffffffffffffffffffffffffffff16600760009054906101000a900473ffffffffffffffffffffffffffffffffffffffff1673ffffffffffffffffffffffffffffffffffffffff16636352211e846040518263ffffffff1660e01b81526004016118f79190612246565b602060405180830381865afa158015611914573d6000803e3d6000fd5b505050506040513d601f19601f820116820180604052508101906119389190612ccf565b73ffffffffffffffffffffffffffffffffffffffff1614611a53576000600760009054906101000a900473ffffffffffffffffffffffffffffffffffffffff1673ffffffffffffffffffffffffffffffffffffffff166383d48e046040518163ffffffff1660e01b8152600401600060405180830381865afa1580156119c2573d6000803e3d6000fd5b505050506040513d6000823e3d601f19601f820116820180604052508101906119eb9190612a8a565b9150508381600760009054906101000a900473ffffffffffffffffffffffffffffffffffffffff16856040517ffe785521000000000000000000000000000000000000000000000000000000008152600401611a4a9493929190612cfc565b60405180910390fd5b6000600760009054906101000a900473ffffffffffffffffffffffffffffffffffffffff1673ffffffffffffffffffffffffffffffffffffffff166358f3d653846040518263ffffffff1660e01b8152600401611ab09190612246565b602060405180830381865afa158015611acd573d6000803e3d6000fd5b505050506040513d601f19601f82011682018060405250810190611af19190612751565b9050600c600301548110611b45578281600c600301546040517fb4ea4e18000000000000000000000000000000000000000000000000000000008152600401611b3c93929190612d41565b60405180910390fd5b600c60000154600c6002016000828254611b5f9190612857565b92505081905550600160116000600c600301548152602001908152602001600020600085815260200190815260200160002060006101000a81548160ff021916908315150217905550600c600001549150505b92915050565b611c32838473ffffffffffffffffffffffffffffffffffffffff1663a9059cbb8585604051602401611beb929190612d78565b604051602081830303815290604052915060e01b6020820180517bffffffffffffffffffffffffffffffffffffffffffffffffffffffff8381831617835250505050611c37565b505050565b6000611c62828473ffffffffffffffffffffffffffffffffffffffff16611cce90919063ffffffff16565b90506000815114158015611c87575080806020019051810190611c859190612db6565b155b15611cc957826040517f5274afe7000000000000000000000000000000000000000000000000000000008152600401611cc09190612375565b60405180910390fd5b505050565b6060611cdc83836000611ce4565b905092915050565b606081471015611d2b57306040517fcd786059000000000000000000000000000000000000000000000000000000008152600401611d229190612375565b60405180910390fd5b6000808573ffffffffffffffffffffffffffffffffffffffff168486604051611d549190612e2a565b60006040518083038185875af1925050503d8060008114611d91576040519150601f19603f3d011682016040523d82523d6000602084013e611d96565b606091505b5091509150611da6868383611db1565b925050509392505050565b606082611dc657611dc182611e40565b611e38565b60008251148015611dee575060008473ffffffffffffffffffffffffffffffffffffffff163b145b15611e3057836040517f9996b315000000000000000000000000000000000000000000000000000000008152600401611e279190612375565b60405180910390fd5b819050611e39565b5b9392505050565b600081511115611e535780518082602001fd5b6040517f1425ea4200000000000000000000000000000000000000000000000000000000815260040160405180910390fd5b6040518060e00160405280600060ff168152602001600060ff168152602001600060ff168152602001600060ff168152602001600015158152602001600073ffffffffffffffffffffffffffffffffffffffff168152602001600073ffffffffffffffffffffffffffffffffffffffff1681525090565b6040518060a0016040528060008152602001600081526020016000815260200160008152602001600081525090565b6000604051905090565b600080fd5b600080fd5b6000819050919050565b611f5281611f3f565b8114611f5d57600080fd5b50565b600081359050611f6f81611f49565b92915050565b600060208284031215611f8b57611f8a611f35565b5b6000611f9984828501611f60565b91505092915050565b600060ff82169050919050565b611fb881611fa2565b82525050565b60008115159050919050565b611fd381611fbe565b82525050565b600073ffffffffffffffffffffffffffffffffffffffff82169050919050565b600061200482611fd9565b9050919050565b61201481611ff9565b82525050565b6000819050919050565b600061203f61203a61203584611fd9565b61201a565b611fd9565b9050919050565b600061205182612024565b9050919050565b600061206382612046565b9050919050565b61207381612058565b82525050565b60e08201600082015161208f6000850182611faf565b5060208201516120a26020850182611faf565b5060408201516120b56040850182611faf565b5060608201516120c86060850182611faf565b5060808201516120db6080850182611fca565b5060a08201516120ee60a085018261200b565b5060c082015161210160c085018261206a565b50505050565b600060e08201905061211c6000830184612079565b92915050565b61212b81611f3f565b82525050565b60a0820160008201516121476000850182612122565b50602082015161215a6020850182612122565b50604082015161216d6040850182612122565b5060608201516121806060850182612122565b5060808201516121936080850182612122565b50505050565b600060a0820190506121ae6000830184612131565b92915050565b6121bd81611fa2565b82525050565b60006020820190506121d860008301846121b4565b92915050565b6121e781611ff9565b81146121f257600080fd5b50565b600081359050612204816121de565b92915050565b6000602082840312156122205761221f611f35565b5b600061222e848285016121f5565b91505092915050565b61224081611f3f565b82525050565b600060208201905061225b6000830184612237565b92915050565b600080fd5b600080fd5b600080fd5b60008083601f84011261228657612285612261565b5b8235905067ffffffffffffffff8111156122a3576122a2612266565b5b6020830191508360208202830111156122bf576122be61226b565b5b9250929050565b6000806000604084860312156122df576122de611f35565b5b60006122ed868287016121f5565b935050602084013567ffffffffffffffff81111561230e5761230d611f3a565b5b61231a86828701612270565b92509250509250925092565b6000806040838503121561233d5761233c611f35565b5b600061234b85828601611f60565b925050602061235c858286016121f5565b9150509250929050565b61236f81611ff9565b82525050565b600060208201905061238a6000830184612366565b92915050565b600061239b82611ff9565b9050919050565b6123ab81612390565b81146123b657600080fd5b50565b6000813590506123c8816123a2565b92915050565b6123d781611fa2565b81146123e257600080fd5b50565b6000813590506123f4816123ce565b92915050565b61240381611fbe565b811461240e57600080fd5b50565b600081359050612420816123fa565b92915050565b600080600080600060a0868803121561244257612441611f35565b5b6000612450888289016123b9565b9550506020612461888289016121f5565b9450506040612472888289016123e5565b9350506060612483888289016123e5565b925050608061249488828901612411565b9150509295509295909350565b6000806000604084860312156124ba576124b9611f35565b5b60006124c886828701611f60565b935050602084013567ffffffffffffffff8111156124e9576124e8611f3a565b5b6124f586828701612270565b92509250509250925092565b7f4e487b7100000000000000000000000000000000000000000000000000000000600052601160045260246000fd5b600061253b82611f3f565b915061254683611f3f565b925082820190508082111561255e5761255d612501565b5b92915050565b60008160001c9050919050565b6000819050919050565b600061258e61258983612564565b612571565b9050919050565b60a0820160008083015490506125aa8161257b565b6125b76000860182612122565b50600183015490506125c88161257b565b6125d56020860182612122565b50600283015490506125e68161257b565b6125f36040860182612122565b50600383015490506126048161257b565b6126116060860182612122565b50600483015490506126228161257b565b61262f6080860182612122565b5050505050565b600060a08201905061264b6000830184612595565b92915050565b600062ffffff82169050919050565b61266981612651565b82525050565b61267881611fd9565b82525050565b61010082016000820151612695600085018261200b565b5060208201516126a8602085018261200b565b5060408201516126bb6040850182612660565b5060608201516126ce606085018261200b565b5060808201516126e16080850182612122565b5060a08201516126f460a0850182612122565b5060c082015161270760c0850182612122565b5060e082015161271a60e085018261266f565b50505050565b600061010082019050612736600083018461267e565b92915050565b60008151905061274b81611f49565b92915050565b60006020828403121561276757612766611f35565b5b60006127758482850161273c565b91505092915050565b600061278982611f3f565b915061279483611f3f565b92508282026127a281611f3f565b915082820484148315176127b9576127b8612501565b5b5092915050565b7f4e487b7100000000000000000000000000000000000000000000000000000000600052601260045260246000fd5b60006127fa82611f3f565b915061280583611f3f565b925082612815576128146127c0565b5b828204905092915050565b60006060820190506128356000830186612366565b6128426020830185612237565b61284f6040830184612237565b949350505050565b600061286282611f3f565b915061286d83611f3f565b925082820390508181111561288557612884612501565b5b92915050565b60006040820190506128a06000830185612237565b6128ad6020830184612237565b9392505050565b60006080820190506128c96000830187612237565b6128d66020830186612366565b6128e36040830185612237565b6128f06060830184612237565b95945050505050565b600061290482611fa2565b915061290f83611fa2565b9250828201905060ff81111561292857612927612501565b5b92915050565b600080fd5b6000601f19601f8301169050919050565b7f4e487b7100000000000000000000000000000000000000000000000000000000600052604160045260246000fd5b61297c82612933565b810181811067ffffffffffffffff8211171561299b5761299a612944565b5b80604052505050565b60006129ae611f2b565b90506129ba8282612973565b919050565b600067ffffffffffffffff8211156129da576129d9612944565b5b6129e382612933565b9050602081019050919050565b60005b83811015612a0e5780820151818401526020810190506129f3565b60008484015250505050565b6000612a2d612a28846129bf565b6129a4565b905082815260208101848484011115612a4957612a4861292e565b5b612a548482856129f0565b509392505050565b600082601f830112612a7157612a70612261565b5b8151612a81848260208601612a1a565b91505092915050565b60008060408385031215612aa157612aa0611f35565b5b600083015167ffffffffffffffff811115612abf57612abe611f3a565b5b612acb85828601612a5c565b9250506020612adc8582860161273c565b9150509250929050565b600060a082019050612afb6000830188612237565b612b086020830187612366565b612b1560408301866121b4565b612b2260608301856121b4565b612b2f60808301846121b4565b9695505050505050565b6000612b4482611fa2565b9150612b4f83611fa2565b9250828203905060ff811115612b6857612b67612501565b5b92915050565b6000612b7982611fa2565b9150612b8483611fa2565b925082612b9457612b936127c0565b5b828204905092915050565b6000612baa82611f3f565b9150612bb583611f3f565b925082612bc557612bc46127c0565b5b828206905092915050565b7f4e487b7100000000000000000000000000000000000000000000000000000000600052603260045260246000fd5b600082825260208201905092915050565b600080fd5b82818337505050565b6000612c2a8385612bff565b93507f07ffffffffffffffffffffffffffffffffffffffffffffffffffffffffffffff831115612c5d57612c5c612c10565b5b602083029250612c6e838584612c15565b82840190509392505050565b6000606082019050612c8f6000830187612366565b8181036020830152612ca2818587612c1e565b9050612cb16040830184612237565b95945050505050565b600081519050612cc9816121de565b92915050565b600060208284031215612ce557612ce4611f35565b5b6000612cf384828501612cba565b91505092915050565b6000608082019050612d116000830187612366565b612d1e6020830186612237565b612d2b6040830185612366565b612d386060830184612237565b95945050505050565b6000606082019050612d566000830186612237565b612d636020830185612237565b612d706040830184612237565b949350505050565b6000604082019050612d8d6000830185612366565b612d9a6020830184612237565b9392505050565b600081519050612db0816123fa565b92915050565b600060208284031215612dcc57612dcb611f35565b5b6000612dda84828501612da1565b91505092915050565b600081519050919050565b600081905092915050565b6000612e0482612de3565b612e0e8185612dee565b9350612e1e8185602086016129f0565b80840191505092915050565b6000612e368284612df9565b91508190509291505056fea2646970667358221220a23067c6cff4beb00a9320439346eb633017a86fc101dc05500457dfbd6f1ee364736f6c63430008180033",
  "linkReferences": {},
  "deployedLinkReferences": {}
}