{
  "_format": "hh-sol-artifact-1",
  "contractName": "NNSRewarder",
  "sourceName": "contracts/NNSRewarder.sol",
  "abi": [
    {
      "inputs": [
        {
          "internalType": "contract ISwapRouter",
          "name": "swapRouter",
          "type": "address"
        },
        {
          "internalType": "contract IERC20",
          "name": "rewardToken",
          "type": "address"
        },
        {
          "internalType": "contract IERC20",
          "name": "weth9",
          "type": "address"
        },
        {
          "internalType": "address",
          "name": "protocol",
          "type": "address"
        }
      ],
      "stateMutability": "nonpayable",
      "type": "constructor"
    },
    {
      "inputs": [
        {
          "internalType": "address",
          "name": "target",
          "type": "address"
        }
      ],
      "name": "AddressEmptyCode",
      "type": "error"
    },
    {
      "inputs": [
        {
          "internalType": "address",
          "name": "account",
          "type": "address"
        }
      ],
      "name": "AddressInsufficientBalance",
      "type": "error"
    },
    {
      "inputs": [
        {
          "internalType": "address",
          "name": "addr",
          "type": "address"
        }
      ],
      "name": "CallerNotController",
      "type": "error"
    },
    {
      "inputs": [
        {
          "internalType": "uint256",
          "name": "cldId",
          "type": "uint256"
        }
      ],
      "name": "CldAlreadyRegistered",
      "type": "error"
    },
    {
      "inputs": [],
      "name": "FailedInnerCall",
      "type": "error"
    },
    {
      "inputs": [
        {
          "internalType": "address",
          "name": "account",
          "type": "address"
        }
      ],
      "name": "InvalidAccount",
      "type": "error"
    },
    {
      "inputs": [
        {
          "internalType": "uint256",
          "name": "cldId",
          "type": "uint256"
        }
      ],
      "name": "InvalidCld",
      "type": "error"
    },
    {
      "inputs": [],
      "name": "InvalidShares",
      "type": "error"
    },
    {
      "inputs": [],
      "name": "NothingToWithdraw",
      "type": "error"
    },
    {
      "inputs": [
        {
          "internalType": "address",
          "name": "owner",
          "type": "address"
        }
      ],
      "name": "OwnableInvalidOwner",
      "type": "error"
    },
    {
      "inputs": [
        {
          "internalType": "address",
          "name": "account",
          "type": "address"
        }
      ],
      "name": "OwnableUnauthorizedAccount",
      "type": "error"
    },
    {
      "inputs": [
        {
          "internalType": "address",
          "name": "token",
          "type": "address"
        }
      ],
      "name": "SafeERC20FailedOperation",
      "type": "error"
    },
    {
      "anonymous": false,
      "inputs": [
        {
          "indexed": false,
          "internalType": "uint256",
          "name": "cldId",
          "type": "uint256"
        },
        {
          "indexed": false,
          "internalType": "address",
          "name": "target",
          "type": "address"
        },
        {
          "indexed": false,
          "internalType": "uint8",
          "name": "referralShare",
          "type": "uint8"
        },
        {
          "indexed": false,
          "internalType": "uint8",
          "name": "communityShare",
          "type": "uint8"
        },
        {
          "indexed": false,
          "internalType": "uint8",
          "name": "ecosystemShare",
          "type": "uint8"
        }
      ],
      "name": "CldRegistered",
      "type": "event"
    },
    {
      "anonymous": false,
      "inputs": [
        {
          "indexed": false,
          "internalType": "uint256",
          "name": "cldId",
          "type": "uint256"
        },
        {
          "indexed": false,
          "internalType": "address",
          "name": "referer",
          "type": "address"
        },
        {
          "indexed": false,
          "internalType": "uint256",
          "name": "amountEth",
          "type": "uint256"
        },
        {
          "indexed": false,
          "internalType": "uint256",
          "name": "amountERC20",
          "type": "uint256"
        }
      ],
      "name": "Collected",
      "type": "event"
    },
    {
      "anonymous": false,
      "inputs": [
        {
          "indexed": true,
          "internalType": "address",
          "name": "previousOwner",
          "type": "address"
        },
        {
          "indexed": true,
          "internalType": "address",
          "name": "newOwner",
          "type": "address"
        }
      ],
      "name": "OwnershipTransferred",
      "type": "event"
    },
    {
      "anonymous": false,
      "inputs": [
        {
          "indexed": false,
          "internalType": "address",
          "name": "account",
          "type": "address"
        },
        {
          "indexed": false,
          "internalType": "uint256[]",
          "name": "holderTokenIds",
          "type": "uint256[]"
        },
        {
          "indexed": false,
          "internalType": "uint256[]",
          "name": "ecosystemTokenIds",
          "type": "uint256[]"
        },
        {
          "indexed": false,
          "internalType": "uint256",
          "name": "amount",
          "type": "uint256"
        }
      ],
      "name": "Withdrawn",
      "type": "event"
    },
    {
      "inputs": [],
      "name": "PROTOCOL_SHARE",
      "outputs": [
        {
          "internalType": "uint8",
          "name": "",
          "type": "uint8"
        }
      ],
      "stateMutability": "view",
      "type": "function"
    },
    {
      "inputs": [],
      "name": "accountRewarder",
      "outputs": [
        {
          "internalType": "contract IAccountRewarder",
          "name": "",
          "type": "address"
        }
      ],
      "stateMutability": "view",
      "type": "function"
    },
    {
      "inputs": [
        {
          "internalType": "address",
          "name": "account",
          "type": "address"
        },
        {
          "internalType": "uint256[]",
          "name": "holderTokenIds",
          "type": "uint256[]"
        },
        {
          "internalType": "uint256[]",
          "name": "ecosystemTokenIds",
          "type": "uint256[]"
        }
      ],
      "name": "balanceOf",
      "outputs": [
        {
          "internalType": "uint256",
          "name": "",
          "type": "uint256"
        }
      ],
      "stateMutability": "view",
      "type": "function"
    },
    {
      "inputs": [
        {
          "internalType": "uint256",
          "name": "cldId",
          "type": "uint256"
        },
        {
          "internalType": "address",
          "name": "referer",
          "type": "address"
        }
      ],
      "name": "collect",
      "outputs": [],
      "stateMutability": "payable",
      "type": "function"
    },
    {
      "inputs": [
        {
          "internalType": "uint256",
          "name": "cldId",
          "type": "uint256"
        }
      ],
      "name": "configurationOf",
      "outputs": [
        {
          "components": [
            {
              "internalType": "uint8",
              "name": "referralShare",
              "type": "uint8"
            },
            {
              "internalType": "uint8",
              "name": "communityShare",
              "type": "uint8"
            },
            {
              "internalType": "uint8",
              "name": "ecosystemShare",
              "type": "uint8"
            },
            {
              "internalType": "uint8",
              "name": "protocolShare",
              "type": "uint8"
            },
            {
              "internalType": "address",
              "name": "payoutTarget",
              "type": "address"
            },
            {
              "internalType": "contract IRegistry",
              "name": "registry",
              "type": "address"
            }
          ],
          "internalType": "struct IRewarder.CldConfiguration",
          "name": "c",
          "type": "tuple"
        }
      ],
      "stateMutability": "view",
      "type": "function"
    },
    {
      "inputs": [],
      "name": "ecosystemRewarder",
      "outputs": [
        {
          "internalType": "contract IERC721BasedRewarder",
          "name": "",
          "type": "address"
        }
      ],
      "stateMutability": "view",
      "type": "function"
    },
    {
      "inputs": [],
      "name": "holderRewarder",
      "outputs": [
        {
          "internalType": "contract IERC721BasedRewarder",
          "name": "",
          "type": "address"
        }
      ],
      "stateMutability": "view",
      "type": "function"
    },
    {
      "inputs": [],
      "name": "owner",
      "outputs": [
        {
          "internalType": "address",
          "name": "",
          "type": "address"
        }
      ],
      "stateMutability": "view",
      "type": "function"
    },
    {
      "inputs": [
        {
          "internalType": "contract IRegistry",
          "name": "registry",
          "type": "address"
        },
        {
          "internalType": "address",
          "name": "payout",
          "type": "address"
        },
        {
          "internalType": "uint8",
          "name": "referralShare",
          "type": "uint8"
        },
        {
          "internalType": "uint8",
          "name": "communityShare",
          "type": "uint8"
        }
      ],
      "name": "registerCld",
      "outputs": [],
      "stateMutability": "nonpayable",
      "type": "function"
    },
    {
      "inputs": [],
      "name": "renounceOwnership",
      "outputs": [],
      "stateMutability": "nonpayable",
      "type": "function"
    },
    {
      "inputs": [
        {
          "internalType": "contract IAccountRewarder",
          "name": "rewarder",
          "type": "address"
        }
      ],
      "name": "setAccountRewarder",
      "outputs": [],
      "stateMutability": "nonpayable",
      "type": "function"
    },
    {
      "inputs": [
        {
          "internalType": "address",
          "name": "controller",
          "type": "address"
        }
      ],
      "name": "setController",
      "outputs": [],
      "stateMutability": "nonpayable",
      "type": "function"
    },
    {
      "inputs": [
        {
          "internalType": "contract IERC721BasedRewarder",
          "name": "rewarder",
          "type": "address"
        }
      ],
      "name": "setEcosystemRewarder",
      "outputs": [],
      "stateMutability": "nonpayable",
      "type": "function"
    },
    {
      "inputs": [
        {
          "internalType": "contract IERC721BasedRewarder",
          "name": "rewarder",
          "type": "address"
        }
      ],
      "name": "setHolderRewarder",
      "outputs": [],
      "stateMutability": "nonpayable",
      "type": "function"
    },
    {
      "inputs": [
        {
          "internalType": "address",
          "name": "newOwner",
          "type": "address"
        }
      ],
      "name": "transferOwnership",
      "outputs": [],
      "stateMutability": "nonpayable",
      "type": "function"
    },
    {
      "inputs": [
        {
          "internalType": "address",
          "name": "account",
          "type": "address"
        },
        {
          "internalType": "uint256[]",
          "name": "holderTokenIds",
          "type": "uint256[]"
        },
        {
          "internalType": "uint256[]",
          "name": "ecosystemTokenIds",
          "type": "uint256[]"
        }
      ],
      "name": "withdraw",
      "outputs": [],
      "stateMutability": "nonpayable",
      "type": "function"
    }
  ],
  "bytecode": "0x60806040523480156200001157600080fd5b5060405162001b9738038062001b97833981016040819052620000349162000124565b33806200005b57604051631e4fbdf760e01b81526000600482015260240160405180910390fd5b6200006681620000bb565b50600a80546001600160a01b039586166001600160a01b0319918216179091556009805494861694821694909417909355600b805492851692841692909217909155600180549190931691161790556200018c565b600080546001600160a01b038381166001600160a01b0319831681178455604051919092169283917f8be0079c531659141344cd1fd0a4f28419497f9722a3daafe3b4186f6b6457e09190a35050565b6001600160a01b03811681146200012157600080fd5b50565b600080600080608085870312156200013b57600080fd5b845162000148816200010b565b60208601519094506200015b816200010b565b60408601519093506200016e816200010b565b606086015190925062000181816200010b565b939692955090935050565b6119fb806200019c6000396000f3fe6080604052600436106100f35760003560e01c806387ad6d001161008a5780639339b0a0116100595780639339b0a0146102ef5780639aa9aac11461030f578063e514a1401461032f578063f2fde38b1461034f57600080fd5b806387ad6d001461027e5780638d3c100a1461029e5780638da5cb5b146102b157806392eefe9b146102cf57600080fd5b8063436e5d66116100c6578063436e5d661461020257806351adc7611461022457806355ea42591461024b578063715018a61461026957600080fd5b806322de3b91146100f85780632b28e2e21461012f5780632b5454211461014d5780633561cee0146101d4575b600080fd5b34801561010457600080fd5b506007546001600160a01b03165b6040516001600160a01b0390911681526020015b60405180910390f35b34801561013b57600080fd5b506006546001600160a01b0316610112565b34801561015957600080fd5b5061016d610168366004611549565b61036f565b6040516101269190600060c08201905060ff835116825260ff602084015116602083015260ff604084015116604083015260ff606084015116606083015260808301516001600160a01b0380821660808501528060a08601511660a0850152505092915050565b3480156101e057600080fd5b506101f46101ef3660046115c3565b610444565b604051908152602001610126565b34801561020e57600080fd5b5061022261021d36600461165c565b610634565b005b34801561023057600080fd5b50610239600581565b60405160ff9091168152602001610126565b34801561025757600080fd5b506008546001600160a01b0316610112565b34801561027557600080fd5b50610222610886565b34801561028a57600080fd5b506102226102993660046116b4565b61089a565b6102226102ac3660046116d1565b6108c4565b3480156102bd57600080fd5b506000546001600160a01b0316610112565b3480156102db57600080fd5b506102226102ea3660046116b4565b610ddc565b3480156102fb57600080fd5b5061022261030a3660046115c3565b610e06565b34801561031b57600080fd5b5061022261032a3660046116b4565b6110de565b34801561033b57600080fd5b5061022261034a3660046116b4565b611108565b34801561035b57600080fd5b5061022261036a3660046116b4565b611132565b6040805160c081018252600080825260208201819052918101829052606081018290526080810182905260a08101919091526000828152600560205260409020546001600160a01b0316806103c45750919050565b6040805160c0810182526000858152600460209081528382205460ff90811684528783526002825291849020549091169082015290810161040485611189565b60ff1681526005602080830191909152600095865260039052604094859020546001600160a01b0390811695820195909552919093166060909101525090565b600080805b858110156104ee576007546001600160a01b0316639cc7f70888888481811061047457610474611701565b905060200201356040518263ffffffff1660e01b815260040161049991815260200190565b602060405180830381865afa1580156104b6573d6000803e3d6000fd5b505050506040513d601f19601f820116820180604052508101906104da9190611717565b6104e49083611746565b9150600101610449565b5060005b83811015610597576006546001600160a01b0316639cc7f70886868481811061051d5761051d611701565b905060200201356040518263ffffffff1660e01b815260040161054291815260200190565b602060405180830381865afa15801561055f573d6000803e3d6000fd5b505050506040513d601f19601f820116820180604052508101906105839190611717565b61058d9083611746565b91506001016104f2565b506008546040517f70a082310000000000000000000000000000000000000000000000000000000081526001600160a01b038981166004830152909116906370a0823190602401602060405180830381865afa1580156105fb573d6000803e3d6000fd5b505050506040513d601f19601f8201168201806040525081019061061f9190611717565b6106299082611746565b979650505050505050565b600c546001600160a01b0316336001600160a01b03161461069457335b6040517f69867d640000000000000000000000000000000000000000000000000000000081526001600160a01b0390911660048201526024015b60405180910390fd5b606460056106a28385611759565b6106ac9190611759565b60ff1611156106e7576040517f6edcc52300000000000000000000000000000000000000000000000000000000815260040160405180910390fd5b6000846001600160a01b03166383d48e046040518163ffffffff1660e01b8152600401600060405180830381865afa158015610727573d6000803e3d6000fd5b505050506040513d6000823e601f3d908101601f1916820160405261074f91908101906117ac565b6000818152600560205260409020549092506001600160a01b03161590506107a6576040517f8099d0660000000000000000000000000000000000000000000000000000000081526004810182905260240161068b565b600081815260036020908152604080832080546001600160a01b03808a166001600160a01b03199283161790925560028452828520805460ff808a1660ff1992831617909255600486528487208054928b1692909116919091179055600590935292208054928816929091169190911790557f28b5f014d229bc5b7dee089d4c00f7d362386b3f404a8cd7a682569ed2b3b4238185858561084684611189565b604080519586526001600160a01b0394909416602086015260ff928316858501529082166060850152166080830152519081900360a00190a15050505050565b61088e6111de565b6108986000611224565b565b6108a26111de565b600880546001600160a01b0319166001600160a01b0392909216919091179055565b600c546001600160a01b0316336001600160a01b0316146108e55733610651565b6108ee82611274565b506040805161010081018252600b546001600160a01b039081168252600954166020820152610bb8918101919091523060608201526000906080810161093542600f611746565b815247602080830191909152600060408084018290526060938401829052600a5481517f414bf38900000000000000000000000000000000000000000000000000000000815286516001600160a01b03908116600483015294870151851660248201529186015162ffffff16604483015293850151831660648201526080850151608482015260a085015160a482015260c085015160c482015260e0850151831660e48201529394509291169063414bf3899047906101040160206040518083038185885af1158015610a0c573d6000803e3d6000fd5b50505050506040513d601f19601f82011682018060405250810190610a319190611717565b9050826001600160a01b038116610a5d576000858152600360205260409020546001600160a01b031693505b600085815260046020526040812054606490610a7c9060ff1685611863565b610a869190611890565b600854604051634b4a1cd560e01b81526001600160a01b03888116600483015260248201849052929350911690634b4a1cd5906044016020604051808303816000875af1158015610adb573d6000803e3d6000fd5b505050506040513d601f19601f82011682018060405250810190610aff9190611717565b50600086815260026020526040812054606490610b1f9060ff1686611863565b610b299190611890565b60085460008981526003602052604090819020549051634b4a1cd560e01b81526001600160a01b039182166004820152602481018490529293501690634b4a1cd5906044016020604051808303816000875af1158015610b8d573d6000803e3d6000fd5b505050506040513d601f19601f82011682018060405250810190610bb19190611717565b5060006064610bc1600587611863565b610bcb9190611890565b600854600154604051634b4a1cd560e01b81526001600160a01b039182166004820152602481018490529293501690634b4a1cd5906044016020604051808303816000875af1158015610c22573d6000803e3d6000fd5b505050506040513d601f19601f82011682018060405250810190610c469190611717565b5060006064610c548a611189565b610c619060ff1688611863565b610c6b9190611890565b60065460405163b32fe94f60e01b8152600481018390529192506001600160a01b03169063b32fe94f906024016020604051808303816000875af1158015610cb7573d6000803e3d6000fd5b505050506040513d601f19601f82011682018060405250810190610cdb9190611717565b506000828285610ceb888b6118a4565b610cf591906118a4565b610cff91906118a4565b610d0991906118a4565b90508015610d825760075460405163b32fe94f60e01b8152600481018390526001600160a01b039091169063b32fe94f906024016020604051808303816000875af1158015610d5c573d6000803e3d6000fd5b505050506040513d601f19601f82011682018060405250810190610d809190611717565b505b604080518b81526001600160a01b038816602082015234818301526060810189905290517fe985bb809569e1ab693b8d0a44015cb780fa698a4b16df55472d8eeffa185b399181900360800190a150505050505050505050565b610de46111de565b600c80546001600160a01b0319166001600160a01b0392909216919091179055565b6000805b84811015610eda576007546001600160a01b031663d571409188888885818110610e3657610e36611701565b6040517fffffffff0000000000000000000000000000000000000000000000000000000060e087901b1681526001600160a01b03909416600485015260200291909101356024830152506044016020604051808303816000875af1158015610ea2573d6000803e3d6000fd5b505050506040513d601f19601f82011682018060405250810190610ec69190611717565b610ed09083611746565b9150600101610e0a565b5060005b82811015610fae576006546001600160a01b031663d571409188868685818110610f0a57610f0a611701565b6040517fffffffff0000000000000000000000000000000000000000000000000000000060e087901b1681526001600160a01b03909416600485015260200291909101356024830152506044016020604051808303816000875af1158015610f76573d6000803e3d6000fd5b505050506040513d601f19601f82011682018060405250810190610f9a9190611717565b610fa49083611746565b9150600101610ede565b506008546040517ff7b6d74f0000000000000000000000000000000000000000000000000000000081526001600160a01b0388811660048301529091169063f7b6d74f906024016020604051808303816000875af1158015611014573d6000803e3d6000fd5b505050506040513d601f19601f820116820180604052508101906110389190611717565b6110429082611746565b90508060000361107e576040517fd0d04f6000000000000000000000000000000000000000000000000000000000815260040160405180910390fd5b600954611095906001600160a01b031687836112c6565b7f969b29af630290bc397caf79e9ccc1dc011eba52c697419736a7131a886a9dff8686868686866040516110ce96959493929190611902565b60405180910390a1505050505050565b6110e66111de565b600680546001600160a01b0319166001600160a01b0392909216919091179055565b6111106111de565b600780546001600160a01b0319166001600160a01b0392909216919091179055565b61113a6111de565b6001600160a01b03811661117d576040517f1e4fbdf70000000000000000000000000000000000000000000000000000000081526000600482015260240161068b565b61118681611224565b50565b6000818152600460209081526040808320546002928390529083205460059160ff908116916111ba9116606461194c565b6111c4919061194c565b6111ce919061194c565b6111d89190611965565b92915050565b6000546001600160a01b03163314610898576040517f118cdaa700000000000000000000000000000000000000000000000000000000815233600482015260240161068b565b600080546001600160a01b038381166001600160a01b0319831681178455604051919092169283917f8be0079c531659141344cd1fd0a4f28419497f9722a3daafe3b4186f6b6457e09190a35050565b6000818152600560205260408120546001600160a01b0316806111d8576040517f6128427d0000000000000000000000000000000000000000000000000000000081526004810184905260240161068b565b604080516001600160a01b038416602482015260448082018490528251808303909101815260649091019091526020810180517bffffffffffffffffffffffffffffffffffffffffffffffffffffffff167fa9059cbb0000000000000000000000000000000000000000000000000000000017905261134690849061134b565b505050565b60006113606001600160a01b038416836113c7565b905080516000141580156113855750808060200190518101906113839190611987565b155b15611346576040517f5274afe70000000000000000000000000000000000000000000000000000000081526001600160a01b038416600482015260240161068b565b60606113d5838360006113dc565b9392505050565b60608147101561141a576040517fcd78605900000000000000000000000000000000000000000000000000000000815230600482015260240161068b565b600080856001600160a01b0316848660405161143691906119a9565b60006040518083038185875af1925050503d8060008114611473576040519150601f19603f3d011682016040523d82523d6000602084013e611478565b606091505b5091509150611488868383611492565b9695505050505050565b6060826114a7576114a282611507565b6113d5565b81511580156114be57506001600160a01b0384163b155b15611500576040517f9996b3150000000000000000000000000000000000000000000000000000000081526001600160a01b038516600482015260240161068b565b50806113d5565b8051156115175780518082602001fd5b6040517f1425ea4200000000000000000000000000000000000000000000000000000000815260040160405180910390fd5b60006020828403121561155b57600080fd5b5035919050565b6001600160a01b038116811461118657600080fd5b60008083601f84011261158957600080fd5b50813567ffffffffffffffff8111156115a157600080fd5b6020830191508360208260051b85010111156115bc57600080fd5b9250929050565b6000806000806000606086880312156115db57600080fd5b85356115e681611562565b9450602086013567ffffffffffffffff8082111561160357600080fd5b61160f89838a01611577565b9096509450604088013591508082111561162857600080fd5b5061163588828901611577565b969995985093965092949392505050565b803560ff8116811461165757600080fd5b919050565b6000806000806080858703121561167257600080fd5b843561167d81611562565b9350602085013561168d81611562565b925061169b60408601611646565b91506116a960608601611646565b905092959194509250565b6000602082840312156116c657600080fd5b81356113d581611562565b600080604083850312156116e457600080fd5b8235915060208301356116f681611562565b809150509250929050565b634e487b7160e01b600052603260045260246000fd5b60006020828403121561172957600080fd5b5051919050565b634e487b7160e01b600052601160045260246000fd5b808201808211156111d8576111d8611730565b60ff81811683821601908111156111d8576111d8611730565b634e487b7160e01b600052604160045260246000fd5b60005b838110156117a357818101518382015260200161178b565b50506000910152565b600080604083850312156117bf57600080fd5b825167ffffffffffffffff808211156117d757600080fd5b818501915085601f8301126117eb57600080fd5b8151818111156117fd576117fd611772565b604051601f8201601f19908116603f0116810190838211818310171561182557611825611772565b8160405282815288602084870101111561183e57600080fd5b61184f836020830160208801611788565b602097909701519698969750505050505050565b80820281158282048414176111d8576111d8611730565b634e487b7160e01b600052601260045260246000fd5b60008261189f5761189f61187a565b500490565b818103818111156111d8576111d8611730565b81835260007f07ffffffffffffffffffffffffffffffffffffffffffffffffffffffffffffff8311156118e957600080fd5b8260051b80836020870137939093016020019392505050565b6001600160a01b03871681526080602082015260006119256080830187896118b7565b82810360408401526119388186886118b7565b915050826060830152979650505050505050565b60ff82811682821603908111156111d8576111d8611730565b600060ff8316806119785761197861187a565b8060ff84160491505092915050565b60006020828403121561199957600080fd5b815180151581146113d557600080fd5b600082516119bb818460208701611788565b919091019291505056fea2646970667358221220963e0f6f6537994d23680db3acca753ecf69a9a479f064a931fd2f3ec9594a1664736f6c63430008180033",
  "linkReferences": {},
  "deployedLinkReferences": {}
}