{
  "_format": "hh-sol-artifact-1",
  "contractName": "SwapRouterMock",
  "sourceName": "contracts/test/SwapRouterMock.sol",
  "abi": [
    {
      "inputs": [
        {
          "internalType": "contract ERC20Mock",
          "name": "erc20",
          "type": "address"
        }
      ],
      "stateMutability": "nonpayable",
      "type": "constructor"
    },
    {
      "inputs": [
        {
          "components": [
            {
              "internalType": "bytes",
              "name": "path",
              "type": "bytes"
            },
            {
              "internalType": "address",
              "name": "recipient",
              "type": "address"
            },
            {
              "internalType": "uint256",
              "name": "deadline",
              "type": "uint256"
            },
            {
              "internalType": "uint256",
              "name": "amountIn",
              "type": "uint256"
            },
            {
              "internalType": "uint256",
              "name": "amountOutMinimum",
              "type": "uint256"
            }
          ],
          "internalType": "struct ISwapRouter.ExactInputParams",
          "name": "",
          "type": "tuple"
        }
      ],
      "name": "exactInput",
      "outputs": [
        {
          "internalType": "uint256",
          "name": "",
          "type": "uint256"
        }
      ],
      "stateMutability": "payable",
      "type": "function"
    },
    {
      "inputs": [
        {
          "components": [
            {
              "internalType": "address",
              "name": "tokenIn",
              "type": "address"
            },
            {
              "internalType": "address",
              "name": "tokenOut",
              "type": "address"
            },
            {
              "internalType": "uint24",
              "name": "fee",
              "type": "uint24"
            },
            {
              "internalType": "address",
              "name": "recipient",
              "type": "address"
            },
            {
              "internalType": "uint256",
              "name": "deadline",
              "type": "uint256"
            },
            {
              "internalType": "uint256",
              "name": "amountIn",
              "type": "uint256"
            },
            {
              "internalType": "uint256",
              "name": "amountOutMinimum",
              "type": "uint256"
            },
            {
              "internalType": "uint160",
              "name": "sqrtPriceLimitX96",
              "type": "uint160"
            }
          ],
          "internalType": "struct ISwapRouter.ExactInputSingleParams",
          "name": "params",
          "type": "tuple"
        }
      ],
      "name": "exactInputSingle",
      "outputs": [
        {
          "internalType": "uint256",
          "name": "amountOut",
          "type": "uint256"
        }
      ],
      "stateMutability": "payable",
      "type": "function"
    },
    {
      "inputs": [
        {
          "components": [
            {
              "internalType": "bytes",
              "name": "path",
              "type": "bytes"
            },
            {
              "internalType": "address",
              "name": "recipient",
              "type": "address"
            },
            {
              "internalType": "uint256",
              "name": "deadline",
              "type": "uint256"
            },
            {
              "internalType": "uint256",
              "name": "amountOut",
              "type": "uint256"
            },
            {
              "internalType": "uint256",
              "name": "amountInMaximum",
              "type": "uint256"
            }
          ],
          "internalType": "struct ISwapRouter.ExactOutputParams",
          "name": "",
          "type": "tuple"
        }
      ],
      "name": "exactOutput",
      "outputs": [
        {
          "internalType": "uint256",
          "name": "",
          "type": "uint256"
        }
      ],
      "stateMutability": "payable",
      "type": "function"
    },
    {
      "inputs": [
        {
          "components": [
            {
              "internalType": "address",
              "name": "tokenIn",
              "type": "address"
            },
            {
              "internalType": "address",
              "name": "tokenOut",
              "type": "address"
            },
            {
              "internalType": "uint24",
              "name": "fee",
              "type": "uint24"
            },
            {
              "internalType": "address",
              "name": "recipient",
              "type": "address"
            },
            {
              "internalType": "uint256",
              "name": "deadline",
              "type": "uint256"
            },
            {
              "internalType": "uint256",
              "name": "amountOut",
              "type": "uint256"
            },
            {
              "internalType": "uint256",
              "name": "amountInMaximum",
              "type": "uint256"
            },
            {
              "internalType": "uint160",
              "name": "sqrtPriceLimitX96",
              "type": "uint160"
            }
          ],
          "internalType": "struct ISwapRouter.ExactOutputSingleParams",
          "name": "",
          "type": "tuple"
        }
      ],
      "name": "exactOutputSingle",
      "outputs": [
        {
          "internalType": "uint256",
          "name": "",
          "type": "uint256"
        }
      ],
      "stateMutability": "payable",
      "type": "function"
    },
    {
      "inputs": [
        {
          "internalType": "uint256",
          "name": "exchange",
          "type": "uint256"
        }
      ],
      "name": "setExchange",
      "outputs": [],
      "stateMutability": "nonpayable",
      "type": "function"
    },
    {
      "inputs": [
        {
          "internalType": "int256",
          "name": "amount0Delta",
          "type": "int256"
        },
        {
          "internalType": "int256",
          "name": "amount1Delta",
          "type": "int256"
        },
        {
          "internalType": "bytes",
          "name": "data",
          "type": "bytes"
        }
      ],
      "name": "uniswapV3SwapCallback",
      "outputs": [],
      "stateMutability": "nonpayable",
      "type": "function"
    }
  ],
  "bytecode": "0x6080604052600260015534801561001557600080fd5b50604051610a14380380610a14833981810160405281019061003791906100f2565b806000806101000a81548173ffffffffffffffffffffffffffffffffffffffff021916908373ffffffffffffffffffffffffffffffffffffffff1602179055505061011f565b600080fd5b600073ffffffffffffffffffffffffffffffffffffffff82169050919050565b60006100ad82610082565b9050919050565b60006100bf826100a2565b9050919050565b6100cf816100b4565b81146100da57600080fd5b50565b6000815190506100ec816100c6565b92915050565b6000602082840312156101085761010761007d565b5b6000610116848285016100dd565b91505092915050565b6108e68061012e6000396000f3fe6080604052600436106100555760003560e01c8063414bf3891461005a57806369433e121461008a578063c04b8d59146100b3578063db3e2198146100e3578063f28c049814610113578063fa461e3314610143575b600080fd5b610074600480360381019061006f91906103ab565b61016c565b60405161008191906103f2565b60405180910390f35b34801561009657600080fd5b506100b160048036038101906100ac9190610439565b6102b5565b005b6100cd60048036038101906100c89190610485565b6102bf565b6040516100da91906103f2565b60405180910390f35b6100fd60048036038101906100f891906104ee565b6102fc565b60405161010a91906103f2565b60405180910390f35b61012d6004803603810190610128919061053b565b610339565b60405161013a91906103f2565b60405180910390f35b34801561014f57600080fd5b5061016a6004803603810190610165919061061f565b610376565b005b60008060009054906101000a900473ffffffffffffffffffffffffffffffffffffffff1673ffffffffffffffffffffffffffffffffffffffff168260200160208101906101b991906106f1565b73ffffffffffffffffffffffffffffffffffffffff161461020f576040517f08c379a00000000000000000000000000000000000000000000000000000000081526004016102069061077b565b60405180910390fd5b8160a0013560015461022191906107ca565b905060008054906101000a900473ffffffffffffffffffffffffffffffffffffffff1673ffffffffffffffffffffffffffffffffffffffff166340c10f1933836040518363ffffffff1660e01b815260040161027e92919061081b565b600060405180830381600087803b15801561029857600080fd5b505af11580156102ac573d6000803e3d6000fd5b50505050919050565b8060018190555050565b60006040517f08c379a00000000000000000000000000000000000000000000000000000000081526004016102f390610890565b60405180910390fd5b60006040517f08c379a000000000000000000000000000000000000000000000000000000000815260040161033090610890565b60405180910390fd5b60006040517f08c379a000000000000000000000000000000000000000000000000000000000815260040161036d90610890565b60405180910390fd5b50505050565b600080fd5b600080fd5b600080fd5b600061010082840312156103a2576103a1610386565b5b81905092915050565b600061010082840312156103c2576103c161037c565b5b60006103d08482850161038b565b91505092915050565b6000819050919050565b6103ec816103d9565b82525050565b600060208201905061040760008301846103e3565b92915050565b610416816103d9565b811461042157600080fd5b50565b6000813590506104338161040d565b92915050565b60006020828403121561044f5761044e61037c565b5b600061045d84828501610424565b91505092915050565b600060a0828403121561047c5761047b610386565b5b81905092915050565b60006020828403121561049b5761049a61037c565b5b600082013567ffffffffffffffff8111156104b9576104b8610381565b5b6104c584828501610466565b91505092915050565b600061010082840312156104e5576104e4610386565b5b81905092915050565b600061010082840312156105055761050461037c565b5b6000610513848285016104ce565b91505092915050565b600060a0828403121561053257610531610386565b5b81905092915050565b6000602082840312156105515761055061037c565b5b600082013567ffffffffffffffff81111561056f5761056e610381565b5b61057b8482850161051c565b91505092915050565b6000819050919050565b61059781610584565b81146105a257600080fd5b50565b6000813590506105b48161058e565b92915050565b600080fd5b600080fd5b600080fd5b60008083601f8401126105df576105de6105ba565b5b8235905067ffffffffffffffff8111156105fc576105fb6105bf565b5b602083019150836001820283011115610618576106176105c4565b5b9250929050565b600080600080606085870312156106395761063861037c565b5b6000610647878288016105a5565b9450506020610658878288016105a5565b935050604085013567ffffffffffffffff81111561067957610678610381565b5b610685878288016105c9565b925092505092959194509250565b600073ffffffffffffffffffffffffffffffffffffffff82169050919050565b60006106be82610693565b9050919050565b6106ce816106b3565b81146106d957600080fd5b50565b6000813590506106eb816106c5565b92915050565b6000602082840312156107075761070661037c565b5b6000610715848285016106dc565b91505092915050565b600082825260208201905092915050565b7f696e76616c696420657263323000000000000000000000000000000000000000600082015250565b6000610765600d8361071e565b91506107708261072f565b602082019050919050565b6000602082019050818103600083015261079481610758565b9050919050565b7f4e487b7100000000000000000000000000000000000000000000000000000000600052601160045260246000fd5b60006107d5826103d9565b91506107e0836103d9565b92508282026107ee816103d9565b915082820484148315176108055761080461079b565b5b5092915050565b610815816106b3565b82525050565b6000604082019050610830600083018561080c565b61083d60208301846103e3565b9392505050565b7f6e6f7420696d706c656d656e7465640000000000000000000000000000000000600082015250565b600061087a600f8361071e565b915061088582610844565b602082019050919050565b600060208201905081810360008301526108a98161086d565b905091905056fea26469706673582212205f36f0a60299a1a2de1e0aacd0ca29511a10850dee22eacf20eca819616e1ac564736f6c63430008180033",
  "linkReferences": {},
  "deployedLinkReferences": {}
}