{
  "_format": "hh-sol-artifact-1",
  "contractName": "NNSController",
  "sourceName": "contracts/NNSController.sol",
  "abi": [
    {
      "inputs": [
        {
          "internalType": "contract IRewarder",
          "name": "rewarder",
          "type": "address"
        },
        {
          "internalType": "contract IResolver",
          "name": "resolver",
          "type": "address"
        },
        {
          "internalType": "contract ICldFactory",
          "name": "cldFactory",
          "type": "address"
        },
        {
          "internalType": "address",
          "name": "signer_",
          "type": "address"
        }
      ],
      "stateMutability": "nonpayable",
      "type": "constructor"
    },
    {
      "inputs": [],
      "name": "CldAlreadyExists",
      "type": "error"
    },
    {
      "inputs": [],
      "name": "ECDSAInvalidSignature",
      "type": "error"
    },
    {
      "inputs": [
        {
          "internalType": "uint256",
          "name": "length",
          "type": "uint256"
        }
      ],
      "name": "ECDSAInvalidSignatureLength",
      "type": "error"
    },
    {
      "inputs": [
        {
          "internalType": "bytes32",
          "name": "s",
          "type": "bytes32"
        }
      ],
      "name": "ECDSAInvalidSignatureS",
      "type": "error"
    },
    {
      "inputs": [
        {
          "internalType": "uint256",
          "name": "required",
          "type": "uint256"
        },
        {
          "internalType": "uint256",
          "name": "provided",
          "type": "uint256"
        }
      ],
      "name": "InsufficientTransferAmount",
      "type": "error"
    },
    {
      "inputs": [],
      "name": "InvalidCld",
      "type": "error"
    },
    {
      "inputs": [],
      "name": "InvalidLabel",
      "type": "error"
    },
    {
      "inputs": [],
      "name": "InvalidPricingOracle",
      "type": "error"
    },
    {
      "inputs": [],
      "name": "InvalidRegistrationMethod",
      "type": "error"
    },
    {
      "inputs": [],
      "name": "InvalidRegistrationPeriod",
      "type": "error"
    },
    {
      "inputs": [
        {
          "internalType": "uint256",
          "name": "cldId",
          "type": "uint256"
        }
      ],
      "name": "NonExpiringCld",
      "type": "error"
    },
    {
      "inputs": [
        {
          "internalType": "address",
          "name": "owner",
          "type": "address"
        }
      ],
      "name": "OwnableInvalidOwner",
      "type": "error"
    },
    {
      "inputs": [
        {
          "internalType": "address",
          "name": "account",
          "type": "address"
        }
      ],
      "name": "OwnableUnauthorizedAccount",
      "type": "error"
    },
    {
      "inputs": [
        {
          "internalType": "uint256",
          "name": "value",
          "type": "uint256"
        },
        {
          "internalType": "uint256",
          "name": "length",
          "type": "uint256"
        }
      ],
      "name": "StringsInsufficientHexLength",
      "type": "error"
    },
    {
      "inputs": [],
      "name": "UnauthorizedAccount",
      "type": "error"
    },
    {
      "anonymous": false,
      "inputs": [
        {
          "indexed": false,
          "internalType": "uint256",
          "name": "cldId",
          "type": "uint256"
        },
        {
          "indexed": false,
          "internalType": "string",
          "name": "name",
          "type": "string"
        },
        {
          "indexed": false,
          "internalType": "address",
          "name": "registry",
          "type": "address"
        },
        {
          "indexed": false,
          "internalType": "bool",
          "name": "hasExpiringNames",
          "type": "bool"
        }
      ],
      "name": "CldRegistered",
      "type": "event"
    },
    {
      "anonymous": false,
      "inputs": [
        {
          "indexed": false,
          "internalType": "uint256",
          "name": "cldId",
          "type": "uint256"
        },
        {
          "indexed": false,
          "internalType": "bool",
          "name": "required",
          "type": "bool"
        }
      ],
      "name": "CldSignatureRequiredChanged",
      "type": "event"
    },
    {
      "anonymous": false,
      "inputs": [
        {
          "indexed": true,
          "internalType": "address",
          "name": "previousOwner",
          "type": "address"
        },
        {
          "indexed": true,
          "internalType": "address",
          "name": "newOwner",
          "type": "address"
        }
      ],
      "name": "OwnershipTransferred",
      "type": "event"
    },
    {
      "anonymous": false,
      "inputs": [
        {
          "indexed": false,
          "internalType": "uint256",
          "name": "cldId",
          "type": "uint256"
        },
        {
          "indexed": false,
          "internalType": "address",
          "name": "oracle",
          "type": "address"
        }
      ],
      "name": "PricingOracleChanged",
      "type": "event"
    },
    {
      "inputs": [],
      "name": "RECORD_CRYPTO_ETH_ADDRESS",
      "outputs": [
        {
          "internalType": "uint256",
          "name": "",
          "type": "uint256"
        }
      ],
      "stateMutability": "view",
      "type": "function"
    },
    {
      "inputs": [
        {
          "internalType": "uint256",
          "name": "cldId",
          "type": "uint256"
        }
      ],
      "name": "isExpiringCLD",
      "outputs": [
        {
          "internalType": "bool",
          "name": "",
          "type": "bool"
        }
      ],
      "stateMutability": "view",
      "type": "function"
    },
    {
      "inputs": [
        {
          "internalType": "uint256",
          "name": "cldId",
          "type": "uint256"
        }
      ],
      "name": "isSignatureRequired",
      "outputs": [
        {
          "internalType": "bool",
          "name": "",
          "type": "bool"
        }
      ],
      "stateMutability": "view",
      "type": "function"
    },
    {
      "inputs": [],
      "name": "owner",
      "outputs": [
        {
          "internalType": "address",
          "name": "",
          "type": "address"
        }
      ],
      "stateMutability": "view",
      "type": "function"
    },
    {
      "inputs": [
        {
          "internalType": "uint256",
          "name": "cldId",
          "type": "uint256"
        }
      ],
      "name": "pricingOracleOf",
      "outputs": [
        {
          "internalType": "contract IPricingOracle",
          "name": "",
          "type": "address"
        }
      ],
      "stateMutability": "view",
      "type": "function"
    },
    {
      "inputs": [
        {
          "internalType": "address",
          "name": "to",
          "type": "address"
        },
        {
          "internalType": "string[]",
          "name": "labels",
          "type": "string[]"
        },
        {
          "internalType": "bool",
          "name": "withReverse",
          "type": "bool"
        },
        {
          "internalType": "address",
          "name": "referer",
          "type": "address"
        },
        {
          "internalType": "uint8",
          "name": "periods",
          "type": "uint8"
        }
      ],
      "name": "register",
      "outputs": [],
      "stateMutability": "payable",
      "type": "function"
    },
    {
      "inputs": [
        {
          "internalType": "string",
          "name": "name",
          "type": "string"
        },
        {
          "internalType": "uint8",
          "name": "communityShare",
          "type": "uint8"
        },
        {
          "internalType": "uint8",
          "name": "referralShare",
          "type": "uint8"
        },
        {
          "internalType": "uint8",
          "name": "ecosystemShare",
          "type": "uint8"
        },
        {
          "internalType": "contract IPricingOracle",
          "name": "pricingOracle",
          "type": "address"
        },
        {
          "internalType": "address",
          "name": "communityPayable",
          "type": "address"
        },
        {
          "internalType": "address",
          "name": "communityManager",
          "type": "address"
        },
        {
          "internalType": "bool",
          "name": "hasExpiringNames",
          "type": "bool"
        },
        {
          "internalType": "bool",
          "name": "isDefaultCldResolver",
          "type": "bool"
        }
      ],
      "name": "registerCld",
      "outputs": [],
      "stateMutability": "nonpayable",
      "type": "function"
    },
    {
      "inputs": [
        {
          "internalType": "address",
          "name": "to",
          "type": "address"
        },
        {
          "internalType": "string[]",
          "name": "labels",
          "type": "string[]"
        },
        {
          "internalType": "bool",
          "name": "withReverse",
          "type": "bool"
        },
        {
          "internalType": "address",
          "name": "referer",
          "type": "address"
        },
        {
          "internalType": "uint8",
          "name": "periods",
          "type": "uint8"
        },
        {
          "internalType": "uint256",
          "name": "nonce",
          "type": "uint256"
        },
        {
          "internalType": "uint256",
          "name": "expiry",
          "type": "uint256"
        },
        {
          "internalType": "bytes",
          "name": "signature",
          "type": "bytes"
        }
      ],
      "name": "registerWithSignature",
      "outputs": [],
      "stateMutability": "payable",
      "type": "function"
    },
    {
      "inputs": [
        {
          "internalType": "uint256",
          "name": "cldId",
          "type": "uint256"
        }
      ],
      "name": "registryOf",
      "outputs": [
        {
          "internalType": "contract IRegistry",
          "name": "",
          "type": "address"
        }
      ],
      "stateMutability": "view",
      "type": "function"
    },
    {
      "inputs": [
        {
          "internalType": "string[]",
          "name": "labels",
          "type": "string[]"
        },
        {
          "internalType": "uint8",
          "name": "periods",
          "type": "uint8"
        }
      ],
      "name": "renew",
      "outputs": [],
      "stateMutability": "payable",
      "type": "function"
    },
    {
      "inputs": [],
      "name": "renounceOwnership",
      "outputs": [],
      "stateMutability": "nonpayable",
      "type": "function"
    },
    {
      "inputs": [
        {
          "internalType": "uint256",
          "name": "cldId",
          "type": "uint256"
        },
        {
          "internalType": "bool",
          "name": "requiresSignature",
          "type": "bool"
        }
      ],
      "name": "setCldSignatureRequired",
      "outputs": [],
      "stateMutability": "nonpayable",
      "type": "function"
    },
    {
      "inputs": [
        {
          "internalType": "uint256",
          "name": "cldId",
          "type": "uint256"
        },
        {
          "internalType": "contract IPricingOracle",
          "name": "oracle",
          "type": "address"
        }
      ],
      "name": "setPricingOracle",
      "outputs": [],
      "stateMutability": "nonpayable",
      "type": "function"
    },
    {
      "inputs": [],
      "name": "signer",
      "outputs": [
        {
          "internalType": "address",
          "name": "",
          "type": "address"
        }
      ],
      "stateMutability": "view",
      "type": "function"
    },
    {
      "inputs": [
        {
          "internalType": "address",
          "name": "newOwner",
          "type": "address"
        }
      ],
      "name": "transferOwnership",
      "outputs": [],
      "stateMutability": "nonpayable",
      "type": "function"
    },
    {
      "inputs": [
        {
          "internalType": "address",
          "name": "sign",
          "type": "address"
        }
      ],
      "name": "updateSigner",
      "outputs": [],
      "stateMutability": "nonpayable",
      "type": "function"
    }
  ],
  "bytecode": "0x60806040523480156200001157600080fd5b506040516200222c3803806200222c833981016040819052620000349162000124565b33806200005b57604051631e4fbdf760e01b81526000600482015260240160405180910390fd5b6200006681620000bb565b50600280546001600160a01b039586166001600160a01b03199182161790915560018054948616948216949094179093556003805492851692841692909217909155600480549190931691161790556200018c565b600080546001600160a01b038381166001600160a01b0319831681178455604051919092169283917f8be0079c531659141344cd1fd0a4f28419497f9722a3daafe3b4186f6b6457e09190a35050565b6001600160a01b03811681146200012157600080fd5b50565b600080600080608085870312156200013b57600080fd5b845162000148816200010b565b60208601519094506200015b816200010b565b60408601519093506200016e816200010b565b606086015190925062000181816200010b565b939692955090935050565b612090806200019c6000396000f3fe6080604052600436106100f35760003560e01c80638da5cb5b1161008a578063c681d79d11610059578063c681d79d146102b6578063e033d9bb146102d6578063f2fde38b146102f6578063fe7dbff61461031657600080fd5b80638da5cb5b14610200578063a7ecd37e1461021e578063a81ce6f91461023e578063a8c86bd81461027457600080fd5b80633c128f6c116100c65780633c128f6c146101885780636aacc08f146101a8578063715018a6146101d8578063882f3554146101ed57600080fd5b80631a0cab9e146100f8578063238ac933146101355780632fb9fb6314610153578063381bd40114610168575b600080fd5b34801561010457600080fd5b50610118610113366004611796565b610329565b6040516001600160a01b0390911681526020015b60405180910390f35b34801561014157600080fd5b506004546001600160a01b0316610118565b61016661016136600461180a565b610351565b005b34801561017457600080fd5b50610166610183366004611877565b610588565b34801561019457600080fd5b506101666101a33660046118c7565b6105f4565b3480156101b457600080fd5b506101c86101c3366004611796565b6106d6565b604051901515815260200161012c565b3480156101e457600080fd5b506101666106f8565b6101666101fb366004611999565b61070c565b34801561020c57600080fd5b506000546001600160a01b0316610118565b34801561022a57600080fd5b50610166610239366004611a77565b61087e565b34801561024a57600080fd5b50610118610259366004611796565b6000908152600560205260409020546001600160a01b031690565b34801561028057600080fd5b506102a87f391a42857851a55da4050881bd0d2e6c9978bfa7483b787e07a760028ed71a2b81565b60405190815260200161012c565b3480156102c257600080fd5b506101666102d1366004611a94565b6108b5565b3480156102e257600080fd5b506101c86102f1366004611796565b610bc0565b34801561030257600080fd5b50610166610311366004611a77565b610be2565b610166610324366004611b6b565b610c39565b600061033482610c93565b50506000908152600660205260409020546001600160a01b031690565b61035b8383610ce7565b505060006103c360008585600181811061037757610377611bf5565b90506020028101906103899190611c0b565b8080601f016020809104026020016040519081016040528093929190818152602001838380828437600092019190915250610dd692505050565b60008181526007602052604090205490915060ff16610416576040517f42cad659000000000000000000000000000000000000000000000000000000008152600481018290526024015b60405180910390fd5b600061042182610c93565b9050600061048983858888600081811061043d5761043d611bf5565b905060200281019061044f9190611c0b565b8080601f016020809104026020016040519081016040528093929190818152602001838380828437600092019190915250610e0b92505050565b9050816001600160a01b031663acf1a841878760008181106104ad576104ad611bf5565b90506020028101906104bf9190611c0b565b6104c98789610f92565b6040518463ffffffff1660e01b81526004016104e793929190611c52565b600060405180830381600087803b15801561050157600080fd5b505af1158015610515573d6000803e3d6000fd5b505060025460405163469e080560e11b815260048101879052600060248201526001600160a01b039091169250638d3c100a915083906044016000604051808303818588803b15801561056757600080fd5b505af115801561057b573d6000803e3d6000fd5b5050505050505050505050565b610590610fd0565b61059982610c93565b50600082815260086020908152604091829020805460ff19168415159081179091558251858152918201527ff180720f83337c340880c56f6a9fbb46eb8a31b714b00128c676a25d847fafaa91015b60405180910390a15050565b60006105ff83610c93565b90506001600160a01b0381166341ef73b9336040517fffffffff0000000000000000000000000000000000000000000000000000000060e084901b1681526001600160a01b039091166004820152602401602060405180830381865afa15801561066d573d6000803e3d6000fd5b505050506040513d601f19601f820116820180604052508101906106919190611c8b565b6106c7576040517fa97ff08a00000000000000000000000000000000000000000000000000000000815260040160405180910390fd5b6106d18383611016565b505050565b60006106e182610c93565b505060009081526007602052604090205460ff1690565b610700610fd0565b61070a60006110e8565b565b6000806107198a8a610ce7565b600082815260086020526040902054919350915060ff1661074d57604051631c9a177360e31b815260040160405180910390fd5b60008b83838b8b8b8a8c60405160200161076e989796959493929190611ccc565b60405160208183030381529060405280519060200120905060006107c86107c2837f19457468657265756d205369676e6564204d6573736167653a0a3332000000006000908152601c91909152603c902090565b86611145565b6004549091506001600160a01b038083169116146107f95760405163f645eedf60e01b815260040160405180910390fd5b8542106108195760405163f645eedf60e01b815260040160405180910390fd5b60008781526009602052604090205460ff16156108495760405163f645eedf60e01b815260040160405180910390fd5b6108578d85858d8d8d61116f565b5050506000938452505060096020525060409020805460ff19166001179055505050505050565b610886610fd0565b6004805473ffffffffffffffffffffffffffffffffffffffff19166001600160a01b0392909216919091179055565b6108bd610fd0565b6003546040517fe5854f480000000000000000000000000000000000000000000000000000000081526000916001600160a01b03169063e5854f489061090b908d9030908990600401611d90565b6020604051808303816000875af115801561092a573d6000803e3d6000fd5b505050506040513d601f19601f8201168201806040525081019061094e9190611dc3565b90506000816001600160a01b03166383d48e046040518163ffffffff1660e01b8152600401600060405180830381865afa158015610990573d6000803e3d6000fd5b505050506040513d6000823e601f3d908101601f191682016040526109b89190810190611de0565b6000818152600560205260409020549092506001600160a01b0316159050610a0c576040517f6e12e57b00000000000000000000000000000000000000000000000000000000815260040160405180910390fd5b6002546040517f0d804d400000000000000000000000000000000000000000000000000000000081526001600160a01b038481166004830152888116602483015260ff808d166044840152808e1660648401528b16608483015290911690630d804d409060a401600060405180830381600087803b158015610a8d57600080fd5b505af1158015610aa1573d6000803e3d6000fd5b50506001546040517fa04d51650000000000000000000000000000000000000000000000000000000081526001600160a01b0386811660048301528715156024830152909116925063a04d51659150604401600060405180830381600087803b158015610b0d57600080fd5b505af1158015610b21573d6000803e3d6000fd5b5050506000828152600560205260409020805473ffffffffffffffffffffffffffffffffffffffff19166001600160a01b038516179055508315610b79576000818152600760205260409020805460ff191660011790555b7f5a567326466bd36d057db73b18139b6b27662a2d8f225c0c2617be54a8f8e060818c8487604051610bae9493929190611e61565b60405180910390a161057b8188611016565b6000610bcb82610c93565b505060009081526008602052604090205460ff1690565b610bea610fd0565b6001600160a01b038116610c2d576040517f1e4fbdf70000000000000000000000000000000000000000000000000000000081526000600482015260240161040d565b610c36816110e8565b50565b600080610c468787610ce7565b600082815260086020526040902054919350915060ff1615610c7b57604051631c9a177360e31b815260040160405180910390fd5b610c8988838388888861116f565b5050505050505050565b6000818152600560205260408120546001600160a01b031680610ce1576040517eea4de600000000000000000000000000000000000000000000000000000000815260040160405180910390fd5b92915050565b6000606060028314610d0c57604051633d36cb8d60e01b815260040160405180910390fd5b83836000818110610d1f57610d1f611bf5565b9050602002810190610d319190611c0b565b9050600003610d5357604051633d36cb8d60e01b815260040160405180910390fd5b610d6b60008585600181811061037757610377611bf5565b84846000818110610d7e57610d7e611bf5565b9050602002810190610d909190611c0b565b81818080601f01602080910402602001604051908101604052809392919081815260200183838082843760009201919091525095975091955050505050505b9250929050565b60008151600003610dfa57604051633d36cb8d60e01b815260040160405180910390fd5b610e04828461133c565b9392505050565b6000838152600660205260408082205490517ffe2c619800000000000000000000000000000000000000000000000000000000815282916001600160a01b03169063fe2c619890610e60908690600401611e9b565b602060405180830381865afa158015610e7d573d6000803e3d6000fd5b505050506040513d601f19601f82011682018060405250810190610ea19190611eae565b60008681526007602052604090205490915060ff1615610f085760008460ff1611610ef8576040517fddceada600000000000000000000000000000000000000000000000000000000815260040160405180910390fd5b610f0560ff851682611edd565b90505b80341015610f4b576040517f5338e5060000000000000000000000000000000000000000000000000000000081526004810182905234602482015260440161040d565b803410610f8a57336108fc610f608334611ef4565b6040518115909202916000818181858888f19350505050158015610f88573d6000803e3d6000fd5b505b949350505050565b60008281526007602052604081205460ff1615610fc757610fba60ff83166301e13380611f07565b63ffffffff169050610ce1565b50600092915050565b6000546001600160a01b0316331461070a576040517f118cdaa700000000000000000000000000000000000000000000000000000000815233600482015260240161040d565b6001600160a01b038116611056576040517f2715c31600000000000000000000000000000000000000000000000000000000815260040160405180910390fd5b6000828152600660205260409020546001600160a01b039081169082160361107c575050565b600082815260066020908152604091829020805473ffffffffffffffffffffffffffffffffffffffff19166001600160a01b0385169081179091558251858152918201527f9c672d5bb2cafcb190c384545530db3acea27bf7a8a9184d2afc7b7b1339afd791016105e8565b600080546001600160a01b0383811673ffffffffffffffffffffffffffffffffffffffff19831681178455604051919092169283917f8be0079c531659141344cd1fd0a4f28419497f9722a3daafe3b4186f6b6457e09190a35050565b600080600080611155868661139f565b92509250925061116582826113ec565b5090949350505050565b600061117a86610c93565b90506000611189878488610e0b565b604080516001808252818301909252919250600091906020808301908036833750506040805160018082528183019092529293506000929150602082015b60608152602001906001900390816111c75790505090507f391a42857851a55da4050881bd0d2e6c9978bfa7483b787e07a760028ed71a2b8260008151811061121257611212611bf5565b6020026020010181815250506112278a6114db565b8160008151811061123a5761123a611bf5565b6020026020010181905250836001600160a01b03166350cf25ef8b8a85856112628f8c610f92565b8d6040518763ffffffff1660e01b815260040161128496959493929190611f2f565b6020604051808303816000875af11580156112a3573d6000803e3d6000fd5b505050506040513d601f19601f820116820180604052508101906112c79190611eae565b5060025460405163469e080560e11b8152600481018b90526001600160a01b03888116602483015290911690638d3c100a9085906044016000604051808303818588803b15801561131757600080fd5b505af115801561132b573d6000803e3d6000fd5b505050505050505050505050505050565b600081836040516020016113509190611ffe565b60405160208183030381529060405280519060200120604051602001611380929190918252602082015260400190565b60408051601f1981840301815291905280516020909101209392505050565b600080600083516041036113d95760208401516040850151606086015160001a6113cb888285856114f1565b9550955095505050506113e5565b50508151600091506002905b9250925092565b60008260038111156114005761140061201a565b03611409575050565b600182600381111561141d5761141d61201a565b0361143b5760405163f645eedf60e01b815260040160405180910390fd5b600282600381111561144f5761144f61201a565b03611489576040517ffce698f70000000000000000000000000000000000000000000000000000000081526004810182905260240161040d565b600382600381111561149d5761149d61201a565b036114d7576040517fd78bce0c0000000000000000000000000000000000000000000000000000000081526004810182905260240161040d565b5050565b6060610ce16001600160a01b03831660146115c0565b600080807f7fffffffffffffffffffffffffffffff5d576e7357a4501ddfe92f46681b20a084111561152c57506000915060039050826115b6565b604080516000808252602082018084528a905260ff891692820192909252606081018790526080810186905260019060a0016020604051602081039080840390855afa158015611580573d6000803e3d6000fd5b5050604051601f1901519150506001600160a01b0381166115ac575060009250600191508290506115b6565b9250600091508190505b9450945094915050565b60608260006115d0846002611edd565b6115db906002612030565b67ffffffffffffffff8111156115f3576115f36118ec565b6040519080825280601f01601f19166020018201604052801561161d576020820181803683370190505b5090507f30000000000000000000000000000000000000000000000000000000000000008160008151811061165457611654611bf5565b60200101906001600160f81b031916908160001a9053507f78000000000000000000000000000000000000000000000000000000000000008160018151811061169f5761169f611bf5565b60200101906001600160f81b031916908160001a90535060006116c3856002611edd565b6116ce906001612030565b90505b6001811115611753577f303132333435363738396162636465660000000000000000000000000000000083600f166010811061170f5761170f611bf5565b1a60f81b82828151811061172557611725611bf5565b60200101906001600160f81b031916908160001a90535060049290921c9161174c81612043565b90506116d1565b508115610f8a576040517fe22e27eb000000000000000000000000000000000000000000000000000000008152600481018690526024810185905260440161040d565b6000602082840312156117a857600080fd5b5035919050565b60008083601f8401126117c157600080fd5b50813567ffffffffffffffff8111156117d957600080fd5b6020830191508360208260051b8501011115610dcf57600080fd5b803560ff8116811461180557600080fd5b919050565b60008060006040848603121561181f57600080fd5b833567ffffffffffffffff81111561183657600080fd5b611842868287016117af565b90945092506118559050602085016117f4565b90509250925092565b8015158114610c3657600080fd5b80356118058161185e565b6000806040838503121561188a57600080fd5b82359150602083013561189c8161185e565b809150509250929050565b6001600160a01b0381168114610c3657600080fd5b8035611805816118a7565b600080604083850312156118da57600080fd5b82359150602083013561189c816118a7565b634e487b7160e01b600052604160045260246000fd5b604051601f8201601f1916810167ffffffffffffffff8111828210171561192b5761192b6118ec565b604052919050565b600067ffffffffffffffff82111561194d5761194d6118ec565b50601f01601f191660200190565b600061196e61196984611933565b611902565b905082815283838301111561198257600080fd5b828260208301376000602084830101529392505050565b60008060008060008060008060006101008a8c0312156119b857600080fd5b89356119c3816118a7565b985060208a013567ffffffffffffffff808211156119e057600080fd5b6119ec8d838e016117af565b909a50985060408c01359150611a018261185e565b90965060608b013590611a13826118a7565b819650611a2260808d016117f4565b955060a08c0135945060c08c0135935060e08c0135915080821115611a4657600080fd5b508a01601f81018c13611a5857600080fd5b611a678c82356020840161195b565b9150509295985092959850929598565b600060208284031215611a8957600080fd5b8135610e04816118a7565b60008060008060008060008060006101208a8c031215611ab357600080fd5b893567ffffffffffffffff811115611aca57600080fd5b8a01601f81018c13611adb57600080fd5b611aea8c82356020840161195b565b995050611af960208b016117f4565b9750611b0760408b016117f4565b9650611b1560608b016117f4565b9550611b2360808b016118bc565b9450611b3160a08b016118bc565b9350611b3f60c08b016118bc565b9250611b4d60e08b0161186c565b9150611b5c6101008b0161186c565b90509295985092959850929598565b60008060008060008060a08789031215611b8457600080fd5b8635611b8f816118a7565b9550602087013567ffffffffffffffff811115611bab57600080fd5b611bb789828a016117af565b9096509450506040870135611bcb8161185e565b92506060870135611bdb816118a7565b9150611be9608088016117f4565b90509295509295509295565b634e487b7160e01b600052603260045260246000fd5b6000808335601e19843603018112611c2257600080fd5b83018035915067ffffffffffffffff821115611c3d57600080fd5b602001915036819003821315610dcf57600080fd5b604081528260408201528284606083013760006060848301015260006060601f19601f8601168301019050826020830152949350505050565b600060208284031215611c9d57600080fd5b8151610e048161185e565b60005b83811015611cc3578181015183820152602001611cab565b50506000910152565b60006bffffffffffffffffffffffff19808b60601b1683528960148401528851611cfd816034860160208d01611ca8565b808401905088151560f81b6034820152818860601b1660358201527fff000000000000000000000000000000000000000000000000000000000000008760f81b16604982015285604a82015284606a820152608a8101925050509998505050505050505050565b60008151808452611d7c816020860160208601611ca8565b601f01601f19169290920160200192915050565b606081526000611da36060830186611d64565b6001600160a01b0394851660208401529290931660409091015292915050565b600060208284031215611dd557600080fd5b8151610e04816118a7565b60008060408385031215611df357600080fd5b825167ffffffffffffffff811115611e0a57600080fd5b8301601f81018513611e1b57600080fd5b8051611e2961196982611933565b818152866020838501011115611e3e57600080fd5b611e4f826020830160208601611ca8565b60209590950151949694955050505050565b848152608060208201526000611e7a6080830186611d64565b6001600160a01b039490941660408301525090151560609091015292915050565b602081526000610e046020830184611d64565b600060208284031215611ec057600080fd5b5051919050565b634e487b7160e01b600052601160045260246000fd5b8082028115828204841417610ce157610ce1611ec7565b81810381811115610ce157610ce1611ec7565b63ffffffff818116838216028082169190828114611f2757611f27611ec7565b505092915050565b6001600160a01b03871681526000602060c081840152611f5260c0840189611d64565b838103604085015287518082528289019183019060005b81811015611f8557835183529284019291840191600101611f69565b5050848103606086015287518082528382019250600581901b82018401848a0160005b83811015611fd657601f19858403018652611fc4838351611d64565b95870195925090860190600101611fa8565b50506080870189905287151560a08801529450611ff39350505050565b979650505050505050565b60008251612010818460208701611ca8565b9190910192915050565b634e487b7160e01b600052602160045260246000fd5b80820180821115610ce157610ce1611ec7565b60008161205257612052611ec7565b50600019019056fea264697066735822122001d8db6176e3b6256b631b42a6888751ea6079668aad143f6dce2550f54215f764736f6c63430008180033",
  "linkReferences": {},
  "deployedLinkReferences": {}
}