{
  "_format": "hh-sol-artifact-1",
  "contractName": "CldFactory",
  "sourceName": "contracts/CldFactory.sol",
  "abi": [
    {
      "inputs": [
        {
          "internalType": "string",
          "name": "name",
          "type": "string"
        },
        {
          "internalType": "address",
          "name": "minter",
          "type": "address"
        },
        {
          "internalType": "address",
          "name": "communityManager",
          "type": "address"
        }
      ],
      "name": "createCld",
      "outputs": [
        {
          "internalType": "contract IRegistry",
          "name": "",
          "type": "address"
        }
      ],
      "stateMutability": "nonpayable",
      "type": "function"
    }
  ],
  "bytecode": "0x608060405234801561001057600080fd5b506159e0806100206000396000f3fe60806040523480156200001157600080fd5b50600436106200002e5760003560e01c8063e5854f481462000033575b600080fd5b6200005160048036038101906200004b9190620001a3565b62000069565b6040516200006091906200028e565b60405180910390f35b60008484868686866040516200007f90620000b8565b620000909695949392919062000320565b604051809103906000f080158015620000ad573d6000803e3d6000fd5b509050949350505050565b61562b806200038083390190565b600080fd5b600080fd5b600080fd5b600080fd5b600080fd5b60008083601f840112620000f857620000f7620000d0565b5b8235905067ffffffffffffffff811115620001185762000117620000d5565b5b602083019150836001820283011115620001375762000136620000da565b5b9250929050565b600073ffffffffffffffffffffffffffffffffffffffff82169050919050565b60006200016b826200013e565b9050919050565b6200017d816200015e565b81146200018957600080fd5b50565b6000813590506200019d8162000172565b92915050565b60008060008060608587031215620001c057620001bf620000c6565b5b600085013567ffffffffffffffff811115620001e157620001e0620000cb565b5b620001ef87828801620000df565b9450945050602062000204878288016200018c565b925050604062000217878288016200018c565b91505092959194509250565b6000819050919050565b60006200024e6200024862000242846200013e565b62000223565b6200013e565b9050919050565b600062000262826200022d565b9050919050565b6000620002768262000255565b9050919050565b620002888162000269565b82525050565b6000602082019050620002a560008301846200027d565b92915050565b600082825260208201905092915050565b82818337600083830152505050565b6000601f19601f8301169050919050565b6000620002ea8385620002ab565b9350620002f9838584620002bc565b6200030483620002cb565b840190509392505050565b6200031a816200015e565b82525050565b600060808201905081810360008301526200033d81888a620002dc565b9050818103602083015262000354818688620002dc565b90506200036560408301856200030f565b6200037460608301846200030f565b97965050505050505056fe60806040523480156200001157600080fd5b506040516200562b3803806200562b833981810160405281019062000037919062000511565b838381600090816200004a91906200080c565b5080600190816200005c91906200080c565b50505062000072600085620000fa60201b60201c565b600e8190555083600f90816200008991906200080c565b50620000bc7f9f2df0fed2c77648de5860a4cc508cd0818c85b8b8a1ab4ceeef8d981c8956a683620001a260201b60201c565b50620000ef7f78afd8eb771d7501d125738bdabc2c1f8b945a7e4fcba88e940ac2d88fb2566682620001a260201b60201c565b505050505062000a48565b6000808251036200014457816040517f7f19f48d0000000000000000000000000000000000000000000000000000000081526004016200013b919062000945565b60405180910390fd5b8282604051602001620001589190620009ab565b604051602081830303815290604052805190602001206040516020016200018192919062000a18565b6040516020818303038152906040528051906020012060001c905092915050565b6000620001b68383620002a660201b60201c565b6200029b5760016006600085815260200190815260200160002060000160008473ffffffffffffffffffffffffffffffffffffffff1673ffffffffffffffffffffffffffffffffffffffff16815260200190815260200160002060006101000a81548160ff021916908315150217905550620002376200031160201b60201c565b73ffffffffffffffffffffffffffffffffffffffff168273ffffffffffffffffffffffffffffffffffffffff16847f2f8788117e7eff1d82e926ec794901d17c78024a50270940304540a733656f0d60405160405180910390a460019050620002a0565b600090505b92915050565b60006006600084815260200190815260200160002060000160008373ffffffffffffffffffffffffffffffffffffffff1673ffffffffffffffffffffffffffffffffffffffff16815260200190815260200160002060009054906101000a900460ff16905092915050565b600033905090565b6000604051905090565b600080fd5b600080fd5b600080fd5b600080fd5b6000601f19601f8301169050919050565b7f4e487b7100000000000000000000000000000000000000000000000000000000600052604160045260246000fd5b620003828262000337565b810181811067ffffffffffffffff82111715620003a457620003a362000348565b5b80604052505050565b6000620003b962000319565b9050620003c7828262000377565b919050565b600067ffffffffffffffff821115620003ea57620003e962000348565b5b620003f58262000337565b9050602081019050919050565b60005b838110156200042257808201518184015260208101905062000405565b60008484015250505050565b6000620004456200043f84620003cc565b620003ad565b90508281526020810184848401111562000464576200046362000332565b5b6200047184828562000402565b509392505050565b600082601f8301126200049157620004906200032d565b5b8151620004a38482602086016200042e565b91505092915050565b600073ffffffffffffffffffffffffffffffffffffffff82169050919050565b6000620004d982620004ac565b9050919050565b620004eb81620004cc565b8114620004f757600080fd5b50565b6000815190506200050b81620004e0565b92915050565b600080600080608085870312156200052e576200052d62000323565b5b600085015167ffffffffffffffff8111156200054f576200054e62000328565b5b6200055d8782880162000479565b945050602085015167ffffffffffffffff81111562000581576200058062000328565b5b6200058f8782880162000479565b9350506040620005a287828801620004fa565b9250506060620005b587828801620004fa565b91505092959194509250565b600081519050919050565b7f4e487b7100000000000000000000000000000000000000000000000000000000600052602260045260246000fd5b600060028204905060018216806200061457607f821691505b6020821081036200062a5762000629620005cc565b5b50919050565b60008190508160005260206000209050919050565b60006020601f8301049050919050565b600082821b905092915050565b600060088302620006947fffffffffffffffffffffffffffffffffffffffffffffffffffffffffffffffff8262000655565b620006a0868362000655565b95508019841693508086168417925050509392505050565b6000819050919050565b6000819050919050565b6000620006ed620006e7620006e184620006b8565b620006c2565b620006b8565b9050919050565b6000819050919050565b6200070983620006cc565b620007216200071882620006f4565b84845462000662565b825550505050565b600090565b6200073862000729565b62000745818484620006fe565b505050565b5b818110156200076d57620007616000826200072e565b6001810190506200074b565b5050565b601f821115620007bc57620007868162000630565b620007918462000645565b81016020851015620007a1578190505b620007b9620007b08562000645565b8301826200074a565b50505b505050565b600082821c905092915050565b6000620007e160001984600802620007c1565b1980831691505092915050565b6000620007fc8383620007ce565b9150826002028217905092915050565b6200081782620005c1565b67ffffffffffffffff81111562000833576200083262000348565b5b6200083f8254620005fb565b6200084c82828562000771565b600060209050601f8311600181146200088457600084156200086f578287015190505b6200087b8582620007ee565b865550620008eb565b601f198416620008948662000630565b60005b82811015620008be5784890151825560018201915060208501945060208101905062000897565b86831015620008de5784890151620008da601f891682620007ce565b8355505b6001600288020188555050505b505050505050565b600082825260208201905092915050565b60006200091182620005c1565b6200091d8185620008f3565b93506200092f81856020860162000402565b6200093a8162000337565b840191505092915050565b6000602082019050818103600083015262000961818462000904565b905092915050565b600081905092915050565b60006200098182620005c1565b6200098d818562000969565b93506200099f81856020860162000402565b80840191505092915050565b6000620009b9828462000974565b915081905092915050565b6000819050919050565b620009e3620009dd82620006b8565b620009c4565b82525050565b6000819050919050565b6000819050919050565b62000a1262000a0c82620009e9565b620009f3565b82525050565b600062000a268285620009ce565b60208201915062000a388284620009fd565b6020820191508190509392505050565b614bd38062000a586000396000f3fe608060405234801561001057600080fd5b50600436106102695760003560e01c806370a0823111610151578063baef73e9116100c3578063d539139311610087578063d5391393146107dd578063d547741f146107fb578063d9548e5314610817578063e985e9c514610847578063fe39089214610877578063ffa1ad741461089357610269565b8063baef73e914610715578063bebec6b414610745578063c4602fdf14610775578063c475abff14610791578063c87b56dd146107ad57610269565b806395d89b411161011557806395d89b41146106655780639aa7773114610683578063a217fddf146106a1578063a22cb465146106bf578063a3f4df7e146106db578063b88d4fde146106f957610269565b806370a082311461059a5780637e37479e146105ca57806383d48e04146105fa5780638915711b1461061957806391d148541461063557610269565b806323b872dd116101ea57806341ef73b9116101ae57806341ef73b9146104a257806342842e0e146104d2578063430c2081146104ee578063500b89c41461051e57806358f3d6531461053a5780636352211e1461056a57610269565b806323b872dd14610402578063248a9ca31461041e5780632f2ff15d1461044e57806336568abe1461046a578063384e9a551461048657610269565b8063081812fc11610231578063081812fc14610338578063095ea7b314610368578063097134bb1461038457806318160ddd146103b4578063215adba2146103d257610269565b806301ffc9a71461026e578063051a26641461029e578063064816cf146102ce5780630660e0a8146102fe57806306fdde031461031a575b600080fd5b61028860048036038101906102839190613540565b6108b1565b6040516102959190613588565b60405180910390f35b6102b860048036038101906102b391906135d9565b6108d3565b6040516102c59190613696565b60405180910390f35b6102e860048036038101906102e391906136b8565b610924565b6040516102f59190613696565b60405180910390f35b61031860048036038101906103139190613756565b610a09565b005b610322610a8d565b60405161032f9190613696565b60405180910390f35b610352600480360381019061034d91906135d9565b610b1f565b60405161035f9190613792565b60405180910390f35b610382600480360381019061037d91906137ad565b610b3a565b005b61039e6004803603810190610399919061387e565b610b51565b6040516103ab9190613915565b60405180910390f35b6103bc610c48565b6040516103c99190613915565b60405180910390f35b6103ec60048036038101906103e79190613986565b610c52565b6040516103f99190613af2565b60405180910390f35b61041c60048036038101906104179190613b14565b610d0b565b005b61043860048036038101906104339190613b9d565b610e0d565b6040516104459190613bd9565b60405180910390f35b61046860048036038101906104639190613bf4565b610e2d565b005b610484600480360381019061047f9190613bf4565b610e4f565b005b6104a0600480360381019061049b91906135d9565b610eca565b005b6104bc60048036038101906104b79190613756565b610f3b565b6040516104c99190613588565b60405180910390f35b6104ec60048036038101906104e79190613b14565b610f6e565b005b610508600480360381019061050391906137ad565b610f8e565b6040516105159190613588565b60405180910390f35b61053860048036038101906105339190613c34565b611043565b005b610554600480360381019061054f91906135d9565b6110b2565b6040516105619190613915565b60405180910390f35b610584600480360381019061057f91906135d9565b6110e2565b6040516105919190613792565b60405180910390f35b6105b460048036038101906105af9190613756565b6110fd565b6040516105c19190613915565b60405180910390f35b6105e460048036038101906105df9190613756565b6111b7565b6040516105f19190613915565b60405180910390f35b610602611218565b604051610610929190613ca8565b60405180910390f35b610633600480360381019061062e91906135d9565b6112b5565b005b61064f600480360381019061064a9190613bf4565b61131e565b60405161065c9190613588565b60405180910390f35b61066d611389565b60405161067a9190613696565b60405180910390f35b61068b61141b565b6040516106989190613bd9565b60405180910390f35b6106a961143f565b6040516106b69190613bd9565b60405180910390f35b6106d960048036038101906106d49190613cd8565b611446565b005b6106e361145c565b6040516106f09190613696565b60405180910390f35b610713600480360381019061070e9190613e48565b611495565b005b61072f600480360381019061072a91906135d9565b6114b2565b60405161073c9190613915565b60405180910390f35b61075f600480360381019061075a9190613756565b6114cf565b60405161076c9190613696565b60405180910390f35b61078f600480360381019061078a9190613f21565b611518565b005b6107ab60048036038101906107a691906136b8565b6115f2565b005b6107c760048036038101906107c291906135d9565b6116e8565b6040516107d49190613696565b60405180910390f35b6107e5611703565b6040516107f29190613bd9565b60405180910390f35b61081560048036038101906108109190613bf4565b611727565b005b610831600480360381019061082c91906135d9565b611749565b60405161083e9190613588565b60405180910390f35b610861600480360381019061085c9190613fb6565b611787565b60405161086e9190613588565b60405180910390f35b610891600480360381019061088c9190613756565b61181b565b005b61089b6118fc565b6040516108a89190613696565b60405180910390f35b60006108bc82611935565b806108cc57506108cb82611a17565b5b9050919050565b60606108de82611a91565b6108e782611adf565b5060076000838152602001908152602001600020600f60405160200161090e92919061411f565b6040516020818303038152906040529050919050565b606061092f83611749565b1561094b57604051806020016040528060008152509050610a03565b600c600061095885611b67565b81526020019081526020016000206000838152602001908152602001600020805461098290614025565b80601f01602080910402602001604051908101604052809291908181526020018280546109ae90614025565b80156109fb5780601f106109d0576101008083540402835291602001916109fb565b820191906000526020600020905b8154815290600101906020018083116109de57829003601f168201915b505050505090505b92915050565b7f78afd8eb771d7501d125738bdabc2c1f8b945a7e4fcba88e940ac2d88fb25666610a3381611ba5565b610a5d7f78afd8eb771d7501d125738bdabc2c1f8b945a7e4fcba88e940ac2d88fb2566683611bb9565b50610a887f78afd8eb771d7501d125738bdabc2c1f8b945a7e4fcba88e940ac2d88fb2566633611cab565b505050565b606060008054610a9c90614025565b80601f0160208091040260200160405190810160405280929190818152602001828054610ac890614025565b8015610b155780601f10610aea57610100808354040283529160200191610b15565b820191906000526020600020905b815481529060010190602001808311610af857829003601f168201915b5050505050905090565b6000610b2a82611a91565b610b3382611d9e565b9050919050565b610b4381611a91565b610b4d8282611dba565b5050565b60007f9f2df0fed2c77648de5860a4cc508cd0818c85b8b8a1ab4ceeef8d981c8956a6610b7d81611ba5565b6000610bcf600e5488888080601f016020809104026020016040519081016040528093929190818152602001838380828437600081840152601f19601f82011690508083019250505050505050611dd0565b9050610bda81611749565b15610be957610be881611e71565b5b610c3a888289898080601f016020809104026020016040519081016040528093929190818152602001838380828437600081840152601f19601f820116905080830192505050505050508888611ef7565b809250505095945050505050565b6000600d54905090565b60608282905067ffffffffffffffff811115610c7157610c70613d1d565b5b604051908082528060200260200182016040528015610ca457816020015b6060815260200190600190039081610c8f5790505b50905060005b83839050811015610d0357610cd885858584818110610ccc57610ccb614152565b5b90506020020135610924565b828281518110610ceb57610cea614152565b5b60200260200101819052508080600101915050610caa565b509392505050565b600073ffffffffffffffffffffffffffffffffffffffff168273ffffffffffffffffffffffffffffffffffffffff1603610d7d5760006040517f64a0ae92000000000000000000000000000000000000000000000000000000008152600401610d749190613792565b60405180910390fd5b6000610d918383610d8c611f9f565b611fa7565b90508373ffffffffffffffffffffffffffffffffffffffff168173ffffffffffffffffffffffffffffffffffffffff1614610e07578382826040517f64283d7b000000000000000000000000000000000000000000000000000000008152600401610dfe93929190614181565b60405180910390fd5b50505050565b600060066000838152602001908152602001600020600101549050919050565b610e3682610e0d565b610e3f81611ba5565b610e498383611bb9565b50505050565b610e57611f9f565b73ffffffffffffffffffffffffffffffffffffffff168173ffffffffffffffffffffffffffffffffffffffff1614610ebb576040517f6697b23200000000000000000000000000000000000000000000000000000000815260040160405180910390fd5b610ec58282611cab565b505050565b80610edc610ed6611f9f565b82610f8e565b610f2657610ee8611f9f565b816040517f177e802f000000000000000000000000000000000000000000000000000000008152600401610f1d9291906141b8565b60405180910390fd5b610f37610f31611f9f565b83612138565b5050565b6000610f677f78afd8eb771d7501d125738bdabc2c1f8b945a7e4fcba88e940ac2d88fb256668361131e565b9050919050565b610f8983838360405180602001604052806000815250611495565b505050565b600080610f9a836110e2565b90508073ffffffffffffffffffffffffffffffffffffffff168473ffffffffffffffffffffffffffffffffffffffff1603610fd957600191505061103d565b610fe38185611787565b15610ff257600191505061103d565b8373ffffffffffffffffffffffffffffffffffffffff1661101284610b1f565b73ffffffffffffffffffffffffffffffffffffffff160361103757600191505061103d565b60009150505b92915050565b8361105561104f611f9f565b82610f8e565b61109f57611061611f9f565b816040517f177e802f0000000000000000000000000000000000000000000000000000000081526004016110969291906141b8565b60405180910390fd5b6110ab8585858561220e565b5050505050565b60006110bd82611adf565b506110c782611a91565b600a6000838152602001908152602001600020549050919050565b60006110ed82611a91565b6110f6826122a4565b9050919050565b60008073ffffffffffffffffffffffffffffffffffffffff168273ffffffffffffffffffffffffffffffffffffffff16036111705760006040517f89c62b640000000000000000000000000000000000000000000000000000000081526004016111679190613792565b60405180910390fd5b600360008373ffffffffffffffffffffffffffffffffffffffff1673ffffffffffffffffffffffffffffffffffffffff168152602001908152602001600020549050919050565b6000600860008373ffffffffffffffffffffffffffffffffffffffff1673ffffffffffffffffffffffffffffffffffffffff16815260200190815260200160002054905061120481611749565b156112125760009050611213565b5b919050565b60606000600f600e5481805461122d90614025565b80601f016020809104026020016040519081016040528092919081815260200182805461125990614025565b80156112a65780601f1061127b576101008083540402835291602001916112a6565b820191906000526020600020905b81548152906001019060200180831161128957829003601f168201915b50505050509150915091509091565b806112c76112c1611f9f565b82610f8e565b611311576112d3611f9f565b816040517f177e802f0000000000000000000000000000000000000000000000000000000081526004016113089291906141b8565b60405180910390fd5b61131a826122b6565b5050565b60006006600084815260200190815260200160002060000160008373ffffffffffffffffffffffffffffffffffffffff1673ffffffffffffffffffffffffffffffffffffffff16815260200190815260200160002060009054906101000a900460ff16905092915050565b60606001805461139890614025565b80601f01602080910402602001604051908101604052809291908181526020018280546113c490614025565b80156114115780601f106113e657610100808354040283529160200191611411565b820191906000526020600020905b8154815290600101906020018083116113f457829003601f168201915b5050505050905090565b7f78afd8eb771d7501d125738bdabc2c1f8b945a7e4fcba88e940ac2d88fb2566681565b6000801b81565b611458611451611f9f565b838361233d565b5050565b6040518060400160405280601081526020017f4e4e533a20434c4452656769737472790000000000000000000000000000000081525081565b6114a0848484610d0b565b6114ac848484846124ac565b50505050565b600060096000838152602001908152602001600020549050919050565b606060006114dc836111b7565b9050600081036114fe5760405180602001604052806000815250915050611513565b61150f61150a846111b7565b6108d3565b9150505b919050565b8461152a611524611f9f565b82610f8e565b61157457611536611f9f565b816040517f177e802f00000000000000000000000000000000000000000000000000000000815260040161156b9291906141b8565b60405180910390fd5b82829050858590501461158657600080fd5b60005b858590508110156115e9576115dc878787848181106115ab576115aa614152565b5b905060200201358686858181106115c5576115c4614152565b5b90506020028101906115d791906141f0565b61220e565b8080600101915050611589565b50505050505050565b7f9f2df0fed2c77648de5860a4cc508cd0818c85b8b8a1ab4ceeef8d981c8956a661161c81611ba5565b61162583611adf565b506000611631846114b2565b90506000810361167857836040517f31878ca100000000000000000000000000000000000000000000000000000000815260040161166f9190613915565b60405180910390fd5b600042905080821115611689578190505b600084826116979190614282565b90506116a38682612663565b7fd4b61d6768ffa07c4e38f85dca93cda5b258136f967cbe4efcfe2a4ed9047c20600e5487836040516116d8939291906142b6565b60405180910390a1505050505050565b60606116f382611a91565b6116fc8261267f565b9050919050565b7f9f2df0fed2c77648de5860a4cc508cd0818c85b8b8a1ab4ceeef8d981c8956a681565b61173082610e0d565b61173981611ba5565b6117438383611cab565b50505050565b6000806009600084815260200190815260200160002054141580156117805750426009600084815260200190815260200160002054105b9050919050565b6000600560008473ffffffffffffffffffffffffffffffffffffffff1673ffffffffffffffffffffffffffffffffffffffff16815260200190815260200160002060008373ffffffffffffffffffffffffffffffffffffffff1673ffffffffffffffffffffffffffffffffffffffff16815260200190815260200160002060009054906101000a900460ff16905092915050565b8073ffffffffffffffffffffffffffffffffffffffff163373ffffffffffffffffffffffffffffffffffffffff161415801561185e575061185c8133611787565b155b156118a3578060006040517f177e802f00000000000000000000000000000000000000000000000000000000815260040161189a929190614332565b60405180910390fd5b60006118ae826111b7565b036118f057806040517f5d0f40570000000000000000000000000000000000000000000000000000000081526004016118e79190613792565b60405180910390fd5b6118f9816126e8565b50565b6040518060400160405280600581526020017f302e302e3100000000000000000000000000000000000000000000000000000081525081565b60007f80ac58cd000000000000000000000000000000000000000000000000000000007bffffffffffffffffffffffffffffffffffffffffffffffffffffffff1916827bffffffffffffffffffffffffffffffffffffffffffffffffffffffff19161480611a0057507f5b5e139f000000000000000000000000000000000000000000000000000000007bffffffffffffffffffffffffffffffffffffffffffffffffffffffff1916827bffffffffffffffffffffffffffffffffffffffffffffffffffffffff1916145b80611a105750611a0f826127b3565b5b9050919050565b60007f7965db0b000000000000000000000000000000000000000000000000000000007bffffffffffffffffffffffffffffffffffffffffffffffffffffffff1916827bffffffffffffffffffffffffffffffffffffffffffffffffffffffff19161480611a8a5750611a8982611935565b5b9050919050565b611a9a81611749565b15611adc57806040517f7e273289000000000000000000000000000000000000000000000000000000008152600401611ad39190613915565b60405180910390fd5b50565b600080611aeb8361281d565b9050600073ffffffffffffffffffffffffffffffffffffffff168173ffffffffffffffffffffffffffffffffffffffff1603611b5e57826040517f7e273289000000000000000000000000000000000000000000000000000000008152600401611b559190613915565b60405180910390fd5b80915050919050565b600080600b60008481526020019081526020016000205414611b9c57600b600083815260200190815260200160002054611b9e565b815b9050919050565b611bb681611bb1611f9f565b61285a565b50565b6000611bc5838361131e565b611ca05760016006600085815260200190815260200160002060000160008473ffffffffffffffffffffffffffffffffffffffff1673ffffffffffffffffffffffffffffffffffffffff16815260200190815260200160002060006101000a81548160ff021916908315150217905550611c3d611f9f565b73ffffffffffffffffffffffffffffffffffffffff168273ffffffffffffffffffffffffffffffffffffffff16847f2f8788117e7eff1d82e926ec794901d17c78024a50270940304540a733656f0d60405160405180910390a460019050611ca5565b600090505b92915050565b6000611cb7838361131e565b15611d935760006006600085815260200190815260200160002060000160008473ffffffffffffffffffffffffffffffffffffffff1673ffffffffffffffffffffffffffffffffffffffff16815260200190815260200160002060006101000a81548160ff021916908315150217905550611d30611f9f565b73ffffffffffffffffffffffffffffffffffffffff168273ffffffffffffffffffffffffffffffffffffffff16847ff6391f5c32d9c69d2a47ea670b442974b53935d1edc7fd64eb21e047a839171b60405160405180910390a460019050611d98565b600090505b92915050565b6000611da982611adf565b50611db3826128ab565b9050919050565b611dcc8282611dc7611f9f565b6128e8565b5050565b600080825103611e1757816040517f7f19f48d000000000000000000000000000000000000000000000000000000008152600401611e0e9190613696565b60405180910390fd5b8282604051602001611e29919061438c565b60405160208183030381529060405280519060200120604051602001611e509291906143e5565b6040516020818303038152906040528051906020012060001c905092915050565b6000611e806000836000611fa7565b9050600073ffffffffffffffffffffffffffffffffffffffff168173ffffffffffffffffffffffffffffffffffffffff1603611ef357816040517f7e273289000000000000000000000000000000000000000000000000000000008152600401611eea9190613915565b60405180910390fd5b5050565b611f0185856128fa565b82600760008681526020019081526020016000209081611f21919061459e565b50600080831115611f45578242611f389190614282565b9050611f448582612663565b5b7f4dfb3596a915af838777e485eab4835210cc44d0e62ff328a32765e3973fd8ea600e5486868985604051611f7e959493929190614670565b60405180910390a18115611f9757611f968686612138565b5b505050505050565b600033905090565b600080611fb5858585612918565b9050600073ffffffffffffffffffffffffffffffffffffffff168173ffffffffffffffffffffffffffffffffffffffff160361201c57600d6000815480929190611ffe906146ca565b919050555043600a6000868152602001908152602001600020819055505b600073ffffffffffffffffffffffffffffffffffffffff168573ffffffffffffffffffffffffffffffffffffffff160361209f57600d600081548092919061206390614712565b91905055506007600085815260200190815260200160002060006120879190613477565b600a6000858152602001908152602001600020600090555b600073ffffffffffffffffffffffffffffffffffffffff168173ffffffffffffffffffffffffffffffffffffffff161461212d576120dc846122b6565b83600860008373ffffffffffffffffffffffffffffffffffffffff1673ffffffffffffffffffffffffffffffffffffffff168152602001908152602001600020540361212c5761212b816126e8565b5b5b809150509392505050565b61214181611adf565b506000600860008473ffffffffffffffffffffffffffffffffffffffff1673ffffffffffffffffffffffffffffffffffffffff16815260200190815260200160002054905081600860008573ffffffffffffffffffffffffffffffffffffffff1673ffffffffffffffffffffffffffffffffffffffff168152602001908152602001600020819055507f49f32a9c20b981f0460e046b4fb8101f3052e0bf4208db3a8c84f7eacee49b70600e54848385604051612201949392919061473b565b60405180910390a1505050565b61221784611adf565b5061222184611a91565b8181600c600061223088611b67565b81526020019081526020016000206000868152602001908152602001600020918261225c92919061478b565b507f089ac4170fcfe837b5eb37f52e222522361a5965d32b22f7e3e12b888ac07ba0600e5485858585604051612296959493929190614888565b60405180910390a150505050565b60006122af82611adf565b9050919050565b6122bf81611b67565b6040516020016122cf91906148d6565b6040516020818303038152906040528051906020012060001c600b6000838152602001908152602001600020819055507f239e1b4e4e15e2fc4d3c8bf6adfcfa0bfc7df2aab8a47c8317c5134a41ba03d1600e54826040516123329291906148f1565b60405180910390a150565b600073ffffffffffffffffffffffffffffffffffffffff168273ffffffffffffffffffffffffffffffffffffffff16036123ae57816040517f5b08ba180000000000000000000000000000000000000000000000000000000081526004016123a59190613792565b60405180910390fd5b80600560008573ffffffffffffffffffffffffffffffffffffffff1673ffffffffffffffffffffffffffffffffffffffff16815260200190815260200160002060008473ffffffffffffffffffffffffffffffffffffffff1673ffffffffffffffffffffffffffffffffffffffff16815260200190815260200160002060006101000a81548160ff0219169083151502179055508173ffffffffffffffffffffffffffffffffffffffff168373ffffffffffffffffffffffffffffffffffffffff167f17307eab39ab6107e8899845ad3d59bd9653f200f220920489ca2b5937696c318360405161249f9190613588565b60405180910390a3505050565b60008373ffffffffffffffffffffffffffffffffffffffff163b111561265d578273ffffffffffffffffffffffffffffffffffffffff1663150b7a026124f0611f9f565b8685856040518563ffffffff1660e01b8152600401612512949392919061496f565b6020604051808303816000875af192505050801561254e57506040513d601f19601f8201168201806040525081019061254b91906149d0565b60015b6125d2573d806000811461257e576040519150601f19603f3d011682016040523d82523d6000602084013e612583565b606091505b5060008151036125ca57836040517f64a0ae920000000000000000000000000000000000000000000000000000000081526004016125c19190613792565b60405180910390fd5b805181602001fd5b63150b7a0260e01b7bffffffffffffffffffffffffffffffffffffffffffffffffffffffff1916817bffffffffffffffffffffffffffffffffffffffffffffffffffffffff19161461265b57836040517f64a0ae920000000000000000000000000000000000000000000000000000000081526004016126529190613792565b60405180910390fd5b505b50505050565b8060096000848152602001908152602001600020819055505050565b606061268a82611adf565b506000612695612b32565b905060008151116126b557604051806020016040528060008152506126e0565b806126bf84612b6b565b6040516020016126d09291906149fd565b6040516020818303038152906040525b915050919050565b6000600860008373ffffffffffffffffffffffffffffffffffffffff1673ffffffffffffffffffffffffffffffffffffffff168152602001908152602001600020549050600860008373ffffffffffffffffffffffffffffffffffffffff1673ffffffffffffffffffffffffffffffffffffffff168152602001908152602001600020600090557f49f32a9c20b981f0460e046b4fb8101f3052e0bf4208db3a8c84f7eacee49b70600e54838360006040516127a79493929190614a21565b60405180910390a15050565b60007f01ffc9a7000000000000000000000000000000000000000000000000000000007bffffffffffffffffffffffffffffffffffffffffffffffffffffffff1916827bffffffffffffffffffffffffffffffffffffffffffffffffffffffff1916149050919050565b60006002600083815260200190815260200160002060009054906101000a900473ffffffffffffffffffffffffffffffffffffffff169050919050565b612864828261131e565b6128a75780826040517fe2517d3f00000000000000000000000000000000000000000000000000000000815260040161289e929190614a66565b60405180910390fd5b5050565b60006004600083815260200190815260200160002060009054906101000a900473ffffffffffffffffffffffffffffffffffffffff169050919050565b6128f58383836001612c39565b505050565b612914828260405180602001604052806000815250612dfe565b5050565b6000806129248461281d565b9050600073ffffffffffffffffffffffffffffffffffffffff168373ffffffffffffffffffffffffffffffffffffffff161461296657612965818486612e1a565b5b600073ffffffffffffffffffffffffffffffffffffffff168173ffffffffffffffffffffffffffffffffffffffff16146129f7576129a8600085600080612c39565b6001600360008373ffffffffffffffffffffffffffffffffffffffff1673ffffffffffffffffffffffffffffffffffffffff168152602001908152602001600020600082825403925050819055505b600073ffffffffffffffffffffffffffffffffffffffff168573ffffffffffffffffffffffffffffffffffffffff1614612a7a576001600360008773ffffffffffffffffffffffffffffffffffffffff1673ffffffffffffffffffffffffffffffffffffffff168152602001908152602001600020600082825401925050819055505b846002600086815260200190815260200160002060006101000a81548173ffffffffffffffffffffffffffffffffffffffff021916908373ffffffffffffffffffffffffffffffffffffffff160217905550838573ffffffffffffffffffffffffffffffffffffffff168273ffffffffffffffffffffffffffffffffffffffff167fddf252ad1be2c89b69c2b068fc378daa952ba7f163c4a11628f55a4df523b3ef60405160405180910390a4809150509392505050565b6060612b3d46612b6b565b612b4630612e33565b604051602001612b57929190614adb565b604051602081830303815290604052905090565b606060006001612b7a84612e60565b01905060008167ffffffffffffffff811115612b9957612b98613d1d565b5b6040519080825280601f01601f191660200182016040528015612bcb5781602001600182028036833780820191505090505b509050600082602001820190505b600115612c2e578080600190039150507f3031323334353637383961626364656600000000000000000000000000000000600a86061a8153600a8581612c2257612c21614b2c565b5b04945060008503612bd9575b819350505050919050565b8080612c725750600073ffffffffffffffffffffffffffffffffffffffff168273ffffffffffffffffffffffffffffffffffffffff1614155b15612da6576000612c8284611adf565b9050600073ffffffffffffffffffffffffffffffffffffffff168373ffffffffffffffffffffffffffffffffffffffff1614158015612ced57508273ffffffffffffffffffffffffffffffffffffffff168173ffffffffffffffffffffffffffffffffffffffff1614155b8015612d005750612cfe8184611787565b155b15612d4257826040517fa9fbf51f000000000000000000000000000000000000000000000000000000008152600401612d399190613792565b60405180910390fd5b8115612da457838573ffffffffffffffffffffffffffffffffffffffff168273ffffffffffffffffffffffffffffffffffffffff167f8c5be1e5ebec7d5bd14f71427d1e84f3dd0314c0f7b2291e5b200ac8c7c3b92560405160405180910390a45b505b836004600085815260200190815260200160002060006101000a81548173ffffffffffffffffffffffffffffffffffffffff021916908373ffffffffffffffffffffffffffffffffffffffff16021790555050505050565b612e088383612fb3565b612e1560008484846124ac565b505050565b612e2381611a91565b612e2e8383836130ac565b505050565b6060612e598273ffffffffffffffffffffffffffffffffffffffff16601460ff16613170565b9050919050565b600080600090507a184f03e93ff9f4daa797ed6e38ed64bf6a1f0100000000000000008310612ebe577a184f03e93ff9f4daa797ed6e38ed64bf6a1f0100000000000000008381612eb457612eb3614b2c565b5b0492506040810190505b6d04ee2d6d415b85acef81000000008310612efb576d04ee2d6d415b85acef81000000008381612ef157612ef0614b2c565b5b0492506020810190505b662386f26fc100008310612f2a57662386f26fc100008381612f2057612f1f614b2c565b5b0492506010810190505b6305f5e1008310612f53576305f5e1008381612f4957612f48614b2c565b5b0492506008810190505b6127108310612f78576127108381612f6e57612f6d614b2c565b5b0492506004810190505b60648310612f9b5760648381612f9157612f90614b2c565b5b0492506002810190505b600a8310612faa576001810190505b80915050919050565b600073ffffffffffffffffffffffffffffffffffffffff168273ffffffffffffffffffffffffffffffffffffffff16036130255760006040517f64a0ae9200000000000000000000000000000000000000000000000000000000815260040161301c9190613792565b60405180910390fd5b600061303383836000611fa7565b9050600073ffffffffffffffffffffffffffffffffffffffff168173ffffffffffffffffffffffffffffffffffffffff16146130a75760006040517f73c6ac6e00000000000000000000000000000000000000000000000000000000815260040161309e9190613792565b60405180910390fd5b505050565b6130b78383836133b6565b61316b57600073ffffffffffffffffffffffffffffffffffffffff168373ffffffffffffffffffffffffffffffffffffffff160361312c57806040517f7e2732890000000000000000000000000000000000000000000000000000000081526004016131239190613915565b60405180910390fd5b81816040517f177e802f0000000000000000000000000000000000000000000000000000000081526004016131629291906141b8565b60405180910390fd5b505050565b60606000839050600060028460026131889190614b5b565b6131929190614282565b67ffffffffffffffff8111156131ab576131aa613d1d565b5b6040519080825280601f01601f1916602001820160405280156131dd5781602001600182028036833780820191505090505b5090507f30000000000000000000000000000000000000000000000000000000000000008160008151811061321557613214614152565b5b60200101907effffffffffffffffffffffffffffffffffffffffffffffffffffffffffffff1916908160001a9053507f78000000000000000000000000000000000000000000000000000000000000008160018151811061327957613278614152565b5b60200101907effffffffffffffffffffffffffffffffffffffffffffffffffffffffffffff1916908160001a905350600060018560026132b99190614b5b565b6132c39190614282565b90505b6001811115613363577f3031323334353637383961626364656600000000000000000000000000000000600f84166010811061330557613304614152565b5b1a60f81b82828151811061331c5761331b614152565b5b60200101907effffffffffffffffffffffffffffffffffffffffffffffffffffffffffffff1916908160001a905350600483901c92508061335c90614712565b90506132c6565b50600082146133ab5784846040517fe22e27eb0000000000000000000000000000000000000000000000000000000081526004016133a29291906148f1565b60405180910390fd5b809250505092915050565b60008073ffffffffffffffffffffffffffffffffffffffff168373ffffffffffffffffffffffffffffffffffffffff161415801561346e57508273ffffffffffffffffffffffffffffffffffffffff168473ffffffffffffffffffffffffffffffffffffffff16148061342f575061342e8484611787565b5b8061346d57508273ffffffffffffffffffffffffffffffffffffffff16613455836128ab565b73ffffffffffffffffffffffffffffffffffffffff16145b5b90509392505050565b50805461348390614025565b6000825580601f1061349557506134b4565b601f0160209004906000526020600020908101906134b391906134b7565b5b50565b5b808211156134d05760008160009055506001016134b8565b5090565b6000604051905090565b600080fd5b600080fd5b60007fffffffff0000000000000000000000000000000000000000000000000000000082169050919050565b61351d816134e8565b811461352857600080fd5b50565b60008135905061353a81613514565b92915050565b600060208284031215613556576135556134de565b5b60006135648482850161352b565b91505092915050565b60008115159050919050565b6135828161356d565b82525050565b600060208201905061359d6000830184613579565b92915050565b6000819050919050565b6135b6816135a3565b81146135c157600080fd5b50565b6000813590506135d3816135ad565b92915050565b6000602082840312156135ef576135ee6134de565b5b60006135fd848285016135c4565b91505092915050565b600081519050919050565b600082825260208201905092915050565b60005b83811015613640578082015181840152602081019050613625565b60008484015250505050565b6000601f19601f8301169050919050565b600061366882613606565b6136728185613611565b9350613682818560208601613622565b61368b8161364c565b840191505092915050565b600060208201905081810360008301526136b0818461365d565b905092915050565b600080604083850312156136cf576136ce6134de565b5b60006136dd858286016135c4565b92505060206136ee858286016135c4565b9150509250929050565b600073ffffffffffffffffffffffffffffffffffffffff82169050919050565b6000613723826136f8565b9050919050565b61373381613718565b811461373e57600080fd5b50565b6000813590506137508161372a565b92915050565b60006020828403121561376c5761376b6134de565b5b600061377a84828501613741565b91505092915050565b61378c81613718565b82525050565b60006020820190506137a76000830184613783565b92915050565b600080604083850312156137c4576137c36134de565b5b60006137d285828601613741565b92505060206137e3858286016135c4565b9150509250929050565b600080fd5b600080fd5b600080fd5b60008083601f840112613812576138116137ed565b5b8235905067ffffffffffffffff81111561382f5761382e6137f2565b5b60208301915083600182028301111561384b5761384a6137f7565b5b9250929050565b61385b8161356d565b811461386657600080fd5b50565b60008135905061387881613852565b92915050565b60008060008060006080868803121561389a576138996134de565b5b60006138a888828901613741565b955050602086013567ffffffffffffffff8111156138c9576138c86134e3565b5b6138d5888289016137fc565b945094505060406138e8888289016135c4565b92505060606138f988828901613869565b9150509295509295909350565b61390f816135a3565b82525050565b600060208201905061392a6000830184613906565b92915050565b60008083601f840112613946576139456137ed565b5b8235905067ffffffffffffffff811115613963576139626137f2565b5b60208301915083602082028301111561397f5761397e6137f7565b5b9250929050565b60008060006040848603121561399f5761399e6134de565b5b60006139ad868287016135c4565b935050602084013567ffffffffffffffff8111156139ce576139cd6134e3565b5b6139da86828701613930565b92509250509250925092565b600081519050919050565b600082825260208201905092915050565b6000819050602082019050919050565b600082825260208201905092915050565b6000613a2e82613606565b613a388185613a12565b9350613a48818560208601613622565b613a518161364c565b840191505092915050565b6000613a688383613a23565b905092915050565b6000602082019050919050565b6000613a88826139e6565b613a9281856139f1565b935083602082028501613aa485613a02565b8060005b85811015613ae05784840389528151613ac18582613a5c565b9450613acc83613a70565b925060208a01995050600181019050613aa8565b50829750879550505050505092915050565b60006020820190508181036000830152613b0c8184613a7d565b905092915050565b600080600060608486031215613b2d57613b2c6134de565b5b6000613b3b86828701613741565b9350506020613b4c86828701613741565b9250506040613b5d868287016135c4565b9150509250925092565b6000819050919050565b613b7a81613b67565b8114613b8557600080fd5b50565b600081359050613b9781613b71565b92915050565b600060208284031215613bb357613bb26134de565b5b6000613bc184828501613b88565b91505092915050565b613bd381613b67565b82525050565b6000602082019050613bee6000830184613bca565b92915050565b60008060408385031215613c0b57613c0a6134de565b5b6000613c1985828601613b88565b9250506020613c2a85828601613741565b9150509250929050565b60008060008060608587031215613c4e57613c4d6134de565b5b6000613c5c878288016135c4565b9450506020613c6d878288016135c4565b935050604085013567ffffffffffffffff811115613c8e57613c8d6134e3565b5b613c9a878288016137fc565b925092505092959194509250565b60006040820190508181036000830152613cc2818561365d565b9050613cd16020830184613906565b9392505050565b60008060408385031215613cef57613cee6134de565b5b6000613cfd85828601613741565b9250506020613d0e85828601613869565b9150509250929050565b600080fd5b7f4e487b7100000000000000000000000000000000000000000000000000000000600052604160045260246000fd5b613d558261364c565b810181811067ffffffffffffffff82111715613d7457613d73613d1d565b5b80604052505050565b6000613d876134d4565b9050613d938282613d4c565b919050565b600067ffffffffffffffff821115613db357613db2613d1d565b5b613dbc8261364c565b9050602081019050919050565b82818337600083830152505050565b6000613deb613de684613d98565b613d7d565b905082815260208101848484011115613e0757613e06613d18565b5b613e12848285613dc9565b509392505050565b600082601f830112613e2f57613e2e6137ed565b5b8135613e3f848260208601613dd8565b91505092915050565b60008060008060808587031215613e6257613e616134de565b5b6000613e7087828801613741565b9450506020613e8187828801613741565b9350506040613e92878288016135c4565b925050606085013567ffffffffffffffff811115613eb357613eb26134e3565b5b613ebf87828801613e1a565b91505092959194509250565b60008083601f840112613ee157613ee06137ed565b5b8235905067ffffffffffffffff811115613efe57613efd6137f2565b5b602083019150836020820283011115613f1a57613f196137f7565b5b9250929050565b600080600080600060608688031215613f3d57613f3c6134de565b5b6000613f4b888289016135c4565b955050602086013567ffffffffffffffff811115613f6c57613f6b6134e3565b5b613f7888828901613930565b9450945050604086013567ffffffffffffffff811115613f9b57613f9a6134e3565b5b613fa788828901613ecb565b92509250509295509295909350565b60008060408385031215613fcd57613fcc6134de565b5b6000613fdb85828601613741565b9250506020613fec85828601613741565b9150509250929050565b7f4e487b7100000000000000000000000000000000000000000000000000000000600052602260045260246000fd5b6000600282049050600182168061403d57607f821691505b6020821081036140505761404f613ff6565b5b50919050565b600081905092915050565b60008190508160005260206000209050919050565b6000815461408381614025565b61408d8186614056565b945060018216600081146140a857600181146140bd576140f0565b60ff19831686528115158202860193506140f0565b6140c685614061565b60005b838110156140e8578154818901526001820191506020810190506140c9565b838801955050505b50505092915050565b7f2e00000000000000000000000000000000000000000000000000000000000000815250565b600061412b8285614076565b9150614136826140f9565b6001820191506141468284614076565b91508190509392505050565b7f4e487b7100000000000000000000000000000000000000000000000000000000600052603260045260246000fd5b60006060820190506141966000830186613783565b6141a36020830185613906565b6141b06040830184613783565b949350505050565b60006040820190506141cd6000830185613783565b6141da6020830184613906565b9392505050565b600080fd5b600080fd5b600080fd5b6000808335600160200384360303811261420d5761420c6141e1565b5b80840192508235915067ffffffffffffffff82111561422f5761422e6141e6565b5b60208301925060018202360383131561424b5761424a6141eb565b5b509250929050565b7f4e487b7100000000000000000000000000000000000000000000000000000000600052601160045260246000fd5b600061428d826135a3565b9150614298836135a3565b92508282019050808211156142b0576142af614253565b5b92915050565b60006060820190506142cb6000830186613906565b6142d86020830185613906565b6142e56040830184613906565b949350505050565b6000819050919050565b6000819050919050565b600061431c614317614312846142ed565b6142f7565b6135a3565b9050919050565b61432c81614301565b82525050565b60006040820190506143476000830185613783565b6143546020830184614323565b9392505050565b600061436682613606565b6143708185614056565b9350614380818560208601613622565b80840191505092915050565b6000614398828461435b565b915081905092915050565b6000819050919050565b6143be6143b9826135a3565b6143a3565b82525050565b6000819050919050565b6143df6143da82613b67565b6143c4565b82525050565b60006143f182856143ad565b60208201915061440182846143ce565b6020820191508190509392505050565b60006020601f8301049050919050565b600082821b905092915050565b60006008830261445e7fffffffffffffffffffffffffffffffffffffffffffffffffffffffffffffffff82614421565b6144688683614421565b95508019841693508086168417925050509392505050565b600061449b614496614491846135a3565b6142f7565b6135a3565b9050919050565b6000819050919050565b6144b583614480565b6144c96144c1826144a2565b84845461442e565b825550505050565b600090565b6144de6144d1565b6144e98184846144ac565b505050565b5b8181101561450d576145026000826144d6565b6001810190506144ef565b5050565b601f8211156145525761452381614061565b61452c84614411565b8101602085101561453b578190505b61454f61454785614411565b8301826144ee565b50505b505050565b600082821c905092915050565b600061457560001984600802614557565b1980831691505092915050565b600061458e8383614564565b9150826002028217905092915050565b6145a782613606565b67ffffffffffffffff8111156145c0576145bf613d1d565b5b6145ca8254614025565b6145d5828285614511565b600060209050601f83116001811461460857600084156145f6578287015190505b6146008582614582565b865550614668565b601f19841661461686614061565b60005b8281101561463e57848901518255600182019150602085019450602081019050614619565b8683101561465b5784890151614657601f891682614564565b8355505b6001600288020188555050505b505050505050565b600060a0820190506146856000830188613906565b6146926020830187613906565b81810360408301526146a4818661365d565b90506146b36060830185613783565b6146c06080830184613906565b9695505050505050565b60006146d5826135a3565b91507fffffffffffffffffffffffffffffffffffffffffffffffffffffffffffffffff820361470757614706614253565b5b600182019050919050565b600061471d826135a3565b9150600082036147305761472f614253565b5b600182039050919050565b60006080820190506147506000830187613906565b61475d6020830186613783565b61476a6040830185613906565b6147776060830184613906565b95945050505050565b600082905092915050565b6147958383614780565b67ffffffffffffffff8111156147ae576147ad613d1d565b5b6147b88254614025565b6147c3828285614511565b6000601f8311600181146147f257600084156147e0578287013590505b6147ea8582614582565b865550614852565b601f19841661480086614061565b60005b8281101561482857848901358255600182019150602085019450602081019050614803565b868310156148455784890135614841601f891682614564565b8355505b6001600288020188555050505b50505050505050565b60006148678385613611565b9350614874838584613dc9565b61487d8361364c565b840190509392505050565b600060808201905061489d6000830188613906565b6148aa6020830187613906565b6148b76040830186613906565b81810360608301526148ca81848661485b565b90509695505050505050565b60006148e282846143ad565b60208201915081905092915050565b60006040820190506149066000830185613906565b6149136020830184613906565b9392505050565b600081519050919050565b600082825260208201905092915050565b60006149418261491a565b61494b8185614925565b935061495b818560208601613622565b6149648161364c565b840191505092915050565b60006080820190506149846000830187613783565b6149916020830186613783565b61499e6040830185613906565b81810360608301526149b08184614936565b905095945050505050565b6000815190506149ca81613514565b92915050565b6000602082840312156149e6576149e56134de565b5b60006149f4848285016149bb565b91505092915050565b6000614a09828561435b565b9150614a15828461435b565b91508190509392505050565b6000608082019050614a366000830187613906565b614a436020830186613783565b614a506040830185613906565b614a5d6060830184614323565b95945050505050565b6000604082019050614a7b6000830185613783565b614a886020830184613bca565b9392505050565b7f68747470733a2f2f6d657461646174612e6e6e732e78797a2f00000000000000815250565b7f2f00000000000000000000000000000000000000000000000000000000000000815250565b6000614ae682614a8f565b601982019150614af6828561435b565b9150614b0182614ab5565b600182019150614b11828461435b565b9150614b1c82614ab5565b6001820191508190509392505050565b7f4e487b7100000000000000000000000000000000000000000000000000000000600052601260045260246000fd5b6000614b66826135a3565b9150614b71836135a3565b9250828202614b7f816135a3565b91508282048414831517614b9657614b95614253565b5b509291505056fea2646970667358221220e8d73b4557052409f7c7007912f1070bf608732b10f27469ebf8597d1dd5656e64736f6c63430008180033a26469706673582212201c5bd0ab70226dcf14b2e8328c3cd4f81d71c1e2c64e5631e123804a6a7874d164736f6c63430008180033",
  "linkReferences": {},
  "deployedLinkReferences": {}
}