{
  "_format": "hh-sol-artifact-1",
  "contractName": "NNSController",
  "sourceName": "contracts/NNSController.sol",
  "abi": [
    {
      "inputs": [
        {
          "internalType": "contract IRewarder",
          "name": "rewarder",
          "type": "address"
        },
        {
          "internalType": "contract IResolver",
          "name": "resolver",
          "type": "address"
        },
        {
          "internalType": "contract ICldFactory",
          "name": "cldFactory",
          "type": "address"
        }
      ],
      "stateMutability": "nonpayable",
      "type": "constructor"
    },
    {
      "inputs": [],
      "name": "CldAlreadyExists",
      "type": "error"
    },
    {
      "inputs": [
        {
          "internalType": "uint256",
          "name": "required",
          "type": "uint256"
        },
        {
          "internalType": "uint256",
          "name": "provided",
          "type": "uint256"
        }
      ],
      "name": "InsufficientTransferAmount",
      "type": "error"
    },
    {
      "inputs": [],
      "name": "InvalidCld",
      "type": "error"
    },
    {
      "inputs": [],
      "name": "InvalidLabel",
      "type": "error"
    },
    {
      "inputs": [],
      "name": "InvalidPricingOracle",
      "type": "error"
    },
    {
      "inputs": [],
      "name": "InvalidRegistrationPeriod",
      "type": "error"
    },
    {
      "inputs": [
        {
          "internalType": "address",
          "name": "owner",
          "type": "address"
        }
      ],
      "name": "OwnableInvalidOwner",
      "type": "error"
    },
    {
      "inputs": [
        {
          "internalType": "address",
          "name": "account",
          "type": "address"
        }
      ],
      "name": "OwnableUnauthorizedAccount",
      "type": "error"
    },
    {
      "inputs": [],
      "name": "UnauthorizedAccount",
      "type": "error"
    },
    {
      "anonymous": false,
      "inputs": [
        {
          "indexed": false,
          "internalType": "uint256",
          "name": "cldId",
          "type": "uint256"
        },
        {
          "indexed": false,
          "internalType": "string",
          "name": "name",
          "type": "string"
        },
        {
          "indexed": false,
          "internalType": "address",
          "name": "registry",
          "type": "address"
        },
        {
          "indexed": false,
          "internalType": "bool",
          "name": "hasExpiringNames",
          "type": "bool"
        }
      ],
      "name": "CldRegistered",
      "type": "event"
    },
    {
      "anonymous": false,
      "inputs": [
        {
          "indexed": true,
          "internalType": "address",
          "name": "previousOwner",
          "type": "address"
        },
        {
          "indexed": true,
          "internalType": "address",
          "name": "newOwner",
          "type": "address"
        }
      ],
      "name": "OwnershipTransferred",
      "type": "event"
    },
    {
      "anonymous": false,
      "inputs": [
        {
          "indexed": false,
          "internalType": "uint256",
          "name": "cldId",
          "type": "uint256"
        },
        {
          "indexed": false,
          "internalType": "address",
          "name": "oracle",
          "type": "address"
        }
      ],
      "name": "PricingOracleChanged",
      "type": "event"
    },
    {
      "inputs": [
        {
          "internalType": "uint256",
          "name": "cldId",
          "type": "uint256"
        }
      ],
      "name": "isExpiringCLD",
      "outputs": [
        {
          "internalType": "bool",
          "name": "",
          "type": "bool"
        }
      ],
      "stateMutability": "view",
      "type": "function"
    },
    {
      "inputs": [],
      "name": "owner",
      "outputs": [
        {
          "internalType": "address",
          "name": "",
          "type": "address"
        }
      ],
      "stateMutability": "view",
      "type": "function"
    },
    {
      "inputs": [
        {
          "internalType": "uint256",
          "name": "cldId",
          "type": "uint256"
        }
      ],
      "name": "pricingOracleOf",
      "outputs": [
        {
          "internalType": "contract IPricingOracle",
          "name": "",
          "type": "address"
        }
      ],
      "stateMutability": "view",
      "type": "function"
    },
    {
      "inputs": [
        {
          "internalType": "address",
          "name": "to",
          "type": "address"
        },
        {
          "internalType": "string[]",
          "name": "labels",
          "type": "string[]"
        },
        {
          "internalType": "bool",
          "name": "withReverse",
          "type": "bool"
        },
        {
          "internalType": "address",
          "name": "referer",
          "type": "address"
        },
        {
          "internalType": "uint8",
          "name": "periods",
          "type": "uint8"
        }
      ],
      "name": "register",
      "outputs": [],
      "stateMutability": "payable",
      "type": "function"
    },
    {
      "inputs": [
        {
          "internalType": "string",
          "name": "name",
          "type": "string"
        },
        {
          "internalType": "uint8",
          "name": "communityReward",
          "type": "uint8"
        },
        {
          "internalType": "uint8",
          "name": "referralReward",
          "type": "uint8"
        },
        {
          "internalType": "contract IPricingOracle",
          "name": "pricingOracle",
          "type": "address"
        },
        {
          "internalType": "address",
          "name": "communityPayable",
          "type": "address"
        },
        {
          "internalType": "address",
          "name": "communityManager",
          "type": "address"
        },
        {
          "internalType": "bool",
          "name": "hasExpiringNames",
          "type": "bool"
        },
        {
          "internalType": "bool",
          "name": "isDefaultCldResolver",
          "type": "bool"
        },
        {
          "internalType": "bool",
          "name": "isSplitShareCld",
          "type": "bool"
        }
      ],
      "name": "registerCld",
      "outputs": [],
      "stateMutability": "nonpayable",
      "type": "function"
    },
    {
      "inputs": [
        {
          "internalType": "uint256",
          "name": "cldId",
          "type": "uint256"
        }
      ],
      "name": "registryOf",
      "outputs": [
        {
          "internalType": "contract IRegistry",
          "name": "",
          "type": "address"
        }
      ],
      "stateMutability": "view",
      "type": "function"
    },
    {
      "inputs": [],
      "name": "renounceOwnership",
      "outputs": [],
      "stateMutability": "nonpayable",
      "type": "function"
    },
    {
      "inputs": [
        {
          "internalType": "uint256",
          "name": "cldId",
          "type": "uint256"
        },
        {
          "internalType": "contract IPricingOracle",
          "name": "oracle",
          "type": "address"
        }
      ],
      "name": "setPricingOracle",
      "outputs": [],
      "stateMutability": "nonpayable",
      "type": "function"
    },
    {
      "inputs": [
        {
          "internalType": "address",
          "name": "newOwner",
          "type": "address"
        }
      ],
      "name": "transferOwnership",
      "outputs": [],
      "stateMutability": "nonpayable",
      "type": "function"
    }
  ],
  "bytecode": "0x60806040523480156200001157600080fd5b506040516200221a3803806200221a833981810160405281019062000037919062000357565b33600073ffffffffffffffffffffffffffffffffffffffff168173ffffffffffffffffffffffffffffffffffffffff1603620000ad5760006040517f1e4fbdf7000000000000000000000000000000000000000000000000000000008152600401620000a49190620003c4565b60405180910390fd5b620000be816200018b60201b60201c565b5082600260006101000a81548173ffffffffffffffffffffffffffffffffffffffff021916908373ffffffffffffffffffffffffffffffffffffffff16021790555081600160006101000a81548173ffffffffffffffffffffffffffffffffffffffff021916908373ffffffffffffffffffffffffffffffffffffffff16021790555080600360006101000a81548173ffffffffffffffffffffffffffffffffffffffff021916908373ffffffffffffffffffffffffffffffffffffffff160217905550505050620003e1565b60008060009054906101000a900473ffffffffffffffffffffffffffffffffffffffff169050816000806101000a81548173ffffffffffffffffffffffffffffffffffffffff021916908373ffffffffffffffffffffffffffffffffffffffff1602179055508173ffffffffffffffffffffffffffffffffffffffff168173ffffffffffffffffffffffffffffffffffffffff167f8be0079c531659141344cd1fd0a4f28419497f9722a3daafe3b4186f6b6457e060405160405180910390a35050565b600080fd5b600073ffffffffffffffffffffffffffffffffffffffff82169050919050565b6000620002818262000254565b9050919050565b6000620002958262000274565b9050919050565b620002a78162000288565b8114620002b357600080fd5b50565b600081519050620002c7816200029c565b92915050565b6000620002da8262000274565b9050919050565b620002ec81620002cd565b8114620002f857600080fd5b50565b6000815190506200030c81620002e1565b92915050565b60006200031f8262000274565b9050919050565b620003318162000312565b81146200033d57600080fd5b50565b600081519050620003518162000326565b92915050565b6000806000606084860312156200037357620003726200024f565b5b60006200038386828701620002b6565b93505060206200039686828701620002fb565b9250506040620003a98682870162000340565b9150509250925092565b620003be8162000274565b82525050565b6000602082019050620003db6000830184620003b3565b92915050565b611e2980620003f16000396000f3fe6080604052600436106100865760003560e01c80638da5cb5b116100595780638da5cb5b14610145578063a81ce6f914610170578063e22dfa5e146101ad578063f2fde38b146101d6578063fe7dbff6146101ff57610086565b80631a0cab9e1461008b5780633c128f6c146100c85780636aacc08f146100f1578063715018a61461012e575b600080fd5b34801561009757600080fd5b506100b260048036038101906100ad9190611105565b61021b565b6040516100bf91906111b1565b60405180910390f35b3480156100d457600080fd5b506100ef60048036038101906100ea919061121c565b610262565b005b3480156100fd57600080fd5b5061011860048036038101906101139190611105565b61032e565b6040516101259190611277565b60405180910390f35b34801561013a57600080fd5b50610143610362565b005b34801561015157600080fd5b5061015a610376565b60405161016791906112a1565b60405180910390f35b34801561017c57600080fd5b5061019760048036038101906101929190611105565b61039f565b6040516101a491906112dd565b60405180910390f35b3480156101b957600080fd5b506101d460048036038101906101cf91906114cf565b6103dc565b005b3480156101e257600080fd5b506101fd60048036038101906101f891906115b5565b610799565b005b61021960048036038101906102149190611642565b61081f565b005b600061022682610cc5565b506005600083815260200190815260200160002060009054906101000a900473ffffffffffffffffffffffffffffffffffffffff169050919050565b600061026d83610cc5565b90508073ffffffffffffffffffffffffffffffffffffffff166341ef73b9336040518263ffffffff1660e01b81526004016102a891906112a1565b602060405180830381865afa1580156102c5573d6000803e3d6000fd5b505050506040513d601f19601f820116820180604052508101906102e991906116f1565b61031f576040517fa97ff08a00000000000000000000000000000000000000000000000000000000815260040160405180910390fd5b6103298383610d6c565b505050565b600061033982610cc5565b506006600083815260200190815260200160002060009054906101000a900460ff169050919050565b61036a610ec9565b6103746000610f50565b565b60008060009054906101000a900473ffffffffffffffffffffffffffffffffffffffff16905090565b60006004600083815260200190815260200160002060009054906101000a900473ffffffffffffffffffffffffffffffffffffffff169050919050565b6103e4610ec9565b6000600360009054906101000a900473ffffffffffffffffffffffffffffffffffffffff1673ffffffffffffffffffffffffffffffffffffffff1663e5854f488b30886040518463ffffffff1660e01b81526004016104459392919061179d565b6020604051808303816000875af1158015610464573d6000803e3d6000fd5b505050506040513d601f19601f820116820180604052508101906104889190611819565b905060008173ffffffffffffffffffffffffffffffffffffffff166383d48e046040518163ffffffff1660e01b8152600401600060405180830381865afa1580156104d7573d6000803e3d6000fd5b505050506040513d6000823e3d601f19601f8201168201806040525081019061050091906118cb565b915050600073ffffffffffffffffffffffffffffffffffffffff166004600083815260200190815260200160002060009054906101000a900473ffffffffffffffffffffffffffffffffffffffff1673ffffffffffffffffffffffffffffffffffffffff161461059c576040517f6e12e57b00000000000000000000000000000000000000000000000000000000815260040160405180910390fd5b600260009054906101000a900473ffffffffffffffffffffffffffffffffffffffff1673ffffffffffffffffffffffffffffffffffffffff1663ada7f1e683898c8e886040518663ffffffff1660e01b81526004016105ff959493929190611936565b600060405180830381600087803b15801561061957600080fd5b505af115801561062d573d6000803e3d6000fd5b50505050600160009054906101000a900473ffffffffffffffffffffffffffffffffffffffff1673ffffffffffffffffffffffffffffffffffffffff1663a04d516583866040518363ffffffff1660e01b815260040161068e929190611989565b600060405180830381600087803b1580156106a857600080fd5b505af11580156106bc573d6000803e3d6000fd5b50505050816004600083815260200190815260200160002060006101000a81548173ffffffffffffffffffffffffffffffffffffffff021916908373ffffffffffffffffffffffffffffffffffffffff16021790555084156107455760016006600083815260200190815260200160002060006101000a81548160ff0219169083151502179055505b7f5a567326466bd36d057db73b18139b6b27662a2d8f225c0c2617be54a8f8e060818c848860405161077a94939291906119c1565b60405180910390a161078c8189610d6c565b5050505050505050505050565b6107a1610ec9565b600073ffffffffffffffffffffffffffffffffffffffff168173ffffffffffffffffffffffffffffffffffffffff16036108135760006040517f1e4fbdf700000000000000000000000000000000000000000000000000000000815260040161080a91906112a1565b60405180910390fd5b61081c81610f50565b50565b6002858590501461085c576040517f3d36cb8d00000000000000000000000000000000000000000000000000000000815260040160405180910390fd5b60008585600081811061087257610871611a0d565b5b90506020028101906108849190611a4b565b8080601f016020809104026020016040519081016040528093929190818152602001838380828437600081840152601f19601f8201169050808301925050505050505090506000868660018181106108df576108de611a0d565b5b90506020028101906108f19190611a4b565b8080601f016020809104026020016040519081016040528093929190818152602001838380828437600081840152601f19601f8201169050808301925050505050505090506000825103610971576040517f3d36cb8d00000000000000000000000000000000000000000000000000000000815260040160405180910390fd5b600061097e600083611014565b9050600061098b82610cc5565b905060006006600084815260200190815260200160002060009054906101000a900460ff16905060006005600085815260200190815260200160002060009054906101000a900473ffffffffffffffffffffffffffffffffffffffff1673ffffffffffffffffffffffffffffffffffffffff1663fe2c61988c8c6000818110610a1757610a16611a0d565b5b9050602002810190610a299190611a4b565b6040518363ffffffff1660e01b8152600401610a46929190611adb565b602060405180830381865afa158015610a63573d6000803e3d6000fd5b505050506040513d601f19601f82011682018060405250810190610a879190611aff565b90508115610ade5760008760ff1611610acc576040517fddceada600000000000000000000000000000000000000000000000000000000815260040160405180910390fd5b8660ff1681610adb9190611b5b565b90505b80341015610b255780346040517f5338e506000000000000000000000000000000000000000000000000000000008152600401610b1c929190611b9d565b60405180910390fd5b60008215610b49578760ff166301e13380610b409190611bd6565b63ffffffff1690505b8373ffffffffffffffffffffffffffffffffffffffff1663097134bb8e89848e6040518563ffffffff1660e01b8152600401610b889493929190611c13565b6020604051808303816000875af1158015610ba7573d6000803e3d6000fd5b505050506040513d601f19601f82011682018060405250810190610bcb9190611aff565b50600260009054906101000a900473ffffffffffffffffffffffffffffffffffffffff1673ffffffffffffffffffffffffffffffffffffffff16638d3c100a83878c6040518463ffffffff1660e01b8152600401610c2a929190611c5f565b6000604051808303818588803b158015610c4357600080fd5b505af1158015610c57573d6000803e3d6000fd5b5050505050813410610cb6573373ffffffffffffffffffffffffffffffffffffffff166108fc8334610c899190611c88565b9081150290604051600060405180830381858888f19350505050158015610cb4573d6000803e3d6000fd5b505b50505050505050505050505050565b6000806004600084815260200190815260200160002060009054906101000a900473ffffffffffffffffffffffffffffffffffffffff169050600073ffffffffffffffffffffffffffffffffffffffff168173ffffffffffffffffffffffffffffffffffffffff1603610d63576040517eea4de600000000000000000000000000000000000000000000000000000000815260040160405180910390fd5b80915050919050565b600073ffffffffffffffffffffffffffffffffffffffff168173ffffffffffffffffffffffffffffffffffffffff1603610dd2576040517f2715c31600000000000000000000000000000000000000000000000000000000815260040160405180910390fd5b6005600083815260200190815260200160002060009054906101000a900473ffffffffffffffffffffffffffffffffffffffff1673ffffffffffffffffffffffffffffffffffffffff168173ffffffffffffffffffffffffffffffffffffffff160315610ec557806005600084815260200190815260200160002060006101000a81548173ffffffffffffffffffffffffffffffffffffffff021916908373ffffffffffffffffffffffffffffffffffffffff1602179055507f9c672d5bb2cafcb190c384545530db3acea27bf7a8a9184d2afc7b7b1339afd78282604051610ebc929190611c5f565b60405180910390a15b5050565b610ed16110b3565b73ffffffffffffffffffffffffffffffffffffffff16610eef610376565b73ffffffffffffffffffffffffffffffffffffffff1614610f4e57610f126110b3565b6040517f118cdaa7000000000000000000000000000000000000000000000000000000008152600401610f4591906112a1565b60405180910390fd5b565b60008060009054906101000a900473ffffffffffffffffffffffffffffffffffffffff169050816000806101000a81548173ffffffffffffffffffffffffffffffffffffffff021916908373ffffffffffffffffffffffffffffffffffffffff1602179055508173ffffffffffffffffffffffffffffffffffffffff168173ffffffffffffffffffffffffffffffffffffffff167f8be0079c531659141344cd1fd0a4f28419497f9722a3daafe3b4186f6b6457e060405160405180910390a35050565b600080825103611059576040517f08c379a000000000000000000000000000000000000000000000000000000000815260040161105090611d08565b60405180910390fd5b828260405160200161106b9190611d64565b60405160208183030381529060405280519060200120604051602001611092929190611dc7565b6040516020818303038152906040528051906020012060001c905092915050565b600033905090565b6000604051905090565b600080fd5b600080fd5b6000819050919050565b6110e2816110cf565b81146110ed57600080fd5b50565b6000813590506110ff816110d9565b92915050565b60006020828403121561111b5761111a6110c5565b5b6000611129848285016110f0565b91505092915050565b600073ffffffffffffffffffffffffffffffffffffffff82169050919050565b6000819050919050565b600061117761117261116d84611132565b611152565b611132565b9050919050565b60006111898261115c565b9050919050565b600061119b8261117e565b9050919050565b6111ab81611190565b82525050565b60006020820190506111c660008301846111a2565b92915050565b60006111d782611132565b9050919050565b60006111e9826111cc565b9050919050565b6111f9816111de565b811461120457600080fd5b50565b600081359050611216816111f0565b92915050565b60008060408385031215611233576112326110c5565b5b6000611241858286016110f0565b925050602061125285828601611207565b9150509250929050565b60008115159050919050565b6112718161125c565b82525050565b600060208201905061128c6000830184611268565b92915050565b61129b816111cc565b82525050565b60006020820190506112b66000830184611292565b92915050565b60006112c78261117e565b9050919050565b6112d7816112bc565b82525050565b60006020820190506112f260008301846112ce565b92915050565b600080fd5b600080fd5b6000601f19601f8301169050919050565b7f4e487b7100000000000000000000000000000000000000000000000000000000600052604160045260246000fd5b61134b82611302565b810181811067ffffffffffffffff8211171561136a57611369611313565b5b80604052505050565b600061137d6110bb565b90506113898282611342565b919050565b600067ffffffffffffffff8211156113a9576113a8611313565b5b6113b282611302565b9050602081019050919050565b82818337600083830152505050565b60006113e16113dc8461138e565b611373565b9050828152602081018484840111156113fd576113fc6112fd565b5b6114088482856113bf565b509392505050565b600082601f830112611425576114246112f8565b5b81356114358482602086016113ce565b91505092915050565b600060ff82169050919050565b6114548161143e565b811461145f57600080fd5b50565b6000813590506114718161144b565b92915050565b611480816111cc565b811461148b57600080fd5b50565b60008135905061149d81611477565b92915050565b6114ac8161125c565b81146114b757600080fd5b50565b6000813590506114c9816114a3565b92915050565b60008060008060008060008060006101208a8c0312156114f2576114f16110c5565b5b60008a013567ffffffffffffffff8111156115105761150f6110ca565b5b61151c8c828d01611410565b995050602061152d8c828d01611462565b985050604061153e8c828d01611462565b975050606061154f8c828d01611207565b96505060806115608c828d0161148e565b95505060a06115718c828d0161148e565b94505060c06115828c828d016114ba565b93505060e06115938c828d016114ba565b9250506101006115a58c828d016114ba565b9150509295985092959850929598565b6000602082840312156115cb576115ca6110c5565b5b60006115d98482850161148e565b91505092915050565b600080fd5b600080fd5b60008083601f840112611602576116016112f8565b5b8235905067ffffffffffffffff81111561161f5761161e6115e2565b5b60208301915083602082028301111561163b5761163a6115e7565b5b9250929050565b60008060008060008060a0878903121561165f5761165e6110c5565b5b600061166d89828a0161148e565b965050602087013567ffffffffffffffff81111561168e5761168d6110ca565b5b61169a89828a016115ec565b955095505060406116ad89828a016114ba565b93505060606116be89828a0161148e565b92505060806116cf89828a01611462565b9150509295509295509295565b6000815190506116eb816114a3565b92915050565b600060208284031215611707576117066110c5565b5b6000611715848285016116dc565b91505092915050565b600081519050919050565b600082825260208201905092915050565b60005b8381101561175857808201518184015260208101905061173d565b60008484015250505050565b600061176f8261171e565b6117798185611729565b935061178981856020860161173a565b61179281611302565b840191505092915050565b600060608201905081810360008301526117b78186611764565b90506117c66020830185611292565b6117d36040830184611292565b949350505050565b60006117e6826111cc565b9050919050565b6117f6816117db565b811461180157600080fd5b50565b600081519050611813816117ed565b92915050565b60006020828403121561182f5761182e6110c5565b5b600061183d84828501611804565b91505092915050565b60006118596118548461138e565b611373565b905082815260208101848484011115611875576118746112fd565b5b61188084828561173a565b509392505050565b600082601f83011261189d5761189c6112f8565b5b81516118ad848260208601611846565b91505092915050565b6000815190506118c5816110d9565b92915050565b600080604083850312156118e2576118e16110c5565b5b600083015167ffffffffffffffff811115611900576118ff6110ca565b5b61190c85828601611888565b925050602061191d858286016118b6565b9150509250929050565b6119308161143e565b82525050565b600060a08201905061194b60008301886112ce565b6119586020830187611292565b6119656040830186611927565b6119726060830185611927565b61197f6080830184611268565b9695505050505050565b600060408201905061199e60008301856112ce565b6119ab6020830184611268565b9392505050565b6119bb816110cf565b82525050565b60006080820190506119d660008301876119b2565b81810360208301526119e88186611764565b90506119f76040830185611292565b611a046060830184611268565b95945050505050565b7f4e487b7100000000000000000000000000000000000000000000000000000000600052603260045260246000fd5b600080fd5b600080fd5b600080fd5b60008083356001602003843603038112611a6857611a67611a3c565b5b80840192508235915067ffffffffffffffff821115611a8a57611a89611a41565b5b602083019250600182023603831315611aa657611aa5611a46565b5b509250929050565b6000611aba8385611729565b9350611ac78385846113bf565b611ad083611302565b840190509392505050565b60006020820190508181036000830152611af6818486611aae565b90509392505050565b600060208284031215611b1557611b146110c5565b5b6000611b23848285016118b6565b91505092915050565b7f4e487b7100000000000000000000000000000000000000000000000000000000600052601160045260246000fd5b6000611b66826110cf565b9150611b71836110cf565b9250828202611b7f816110cf565b91508282048414831517611b9657611b95611b2c565b5b5092915050565b6000604082019050611bb260008301856119b2565b611bbf60208301846119b2565b9392505050565b600063ffffffff82169050919050565b6000611be182611bc6565b9150611bec83611bc6565b9250828202611bfa81611bc6565b9150808214611c0c57611c0b611b2c565b5b5092915050565b6000608082019050611c286000830187611292565b8181036020830152611c3a8186611764565b9050611c4960408301856119b2565b611c566060830184611268565b95945050505050565b6000604082019050611c7460008301856119b2565b611c816020830184611292565b9392505050565b6000611c93826110cf565b9150611c9e836110cf565b9250828203905081811115611cb657611cb5611b2c565b5b92915050565b7f4d696e74696e674d616e616765723a204c4142454c5f454d5054590000000000600082015250565b6000611cf2601b83611729565b9150611cfd82611cbc565b602082019050919050565b60006020820190508181036000830152611d2181611ce5565b9050919050565b600081905092915050565b6000611d3e8261171e565b611d488185611d28565b9350611d5881856020860161173a565b80840191505092915050565b6000611d708284611d33565b915081905092915050565b6000819050919050565b611d96611d91826110cf565b611d7b565b82525050565b6000819050919050565b6000819050919050565b611dc1611dbc82611d9c565b611da6565b82525050565b6000611dd38285611d85565b602082019150611de38284611db0565b602082019150819050939250505056fea2646970667358221220fd26f814801df81eb97b379a7ef3d7f587610c589815c86a5cd0002d34ffa33b64736f6c63430008180033",
  "linkReferences": {},
  "deployedLinkReferences": {}
}