{
  "_format": "hh-sol-artifact-1",
  "contractName": "NNSRewarder",
  "sourceName": "contracts/NNSRewarder.sol",
  "abi": [
    {
      "inputs": [
        {
          "internalType": "contract ISwapRouter",
          "name": "swapRouter",
          "type": "address"
        },
        {
          "internalType": "contract IERC20",
          "name": "rewardToken",
          "type": "address"
        },
        {
          "internalType": "contract IERC20",
          "name": "weth9",
          "type": "address"
        },
        {
          "internalType": "address",
          "name": "protocol",
          "type": "address"
        },
        {
          "internalType": "uint256",
          "name": "minSnapshotInterval",
          "type": "uint256"
        }
      ],
      "stateMutability": "nonpayable",
      "type": "constructor"
    },
    {
      "inputs": [
        {
          "internalType": "address",
          "name": "target",
          "type": "address"
        }
      ],
      "name": "AddressEmptyCode",
      "type": "error"
    },
    {
      "inputs": [
        {
          "internalType": "address",
          "name": "account",
          "type": "address"
        }
      ],
      "name": "AddressInsufficientBalance",
      "type": "error"
    },
    {
      "inputs": [
        {
          "internalType": "uint256",
          "name": "cldId",
          "type": "uint256"
        }
      ],
      "name": "CldAlreadyRegistered",
      "type": "error"
    },
    {
      "inputs": [],
      "name": "FailedInnerCall",
      "type": "error"
    },
    {
      "inputs": [],
      "name": "HoldersSnapshotTooEarly",
      "type": "error"
    },
    {
      "inputs": [
        {
          "internalType": "address",
          "name": "account",
          "type": "address"
        }
      ],
      "name": "InvalidAccount",
      "type": "error"
    },
    {
      "inputs": [
        {
          "internalType": "uint256",
          "name": "cldId",
          "type": "uint256"
        }
      ],
      "name": "InvalidCld",
      "type": "error"
    },
    {
      "inputs": [],
      "name": "InvalidShares",
      "type": "error"
    },
    {
      "inputs": [],
      "name": "NothingToWithdraw",
      "type": "error"
    },
    {
      "inputs": [
        {
          "internalType": "address",
          "name": "owner",
          "type": "address"
        }
      ],
      "name": "OwnableInvalidOwner",
      "type": "error"
    },
    {
      "inputs": [
        {
          "internalType": "address",
          "name": "account",
          "type": "address"
        }
      ],
      "name": "OwnableUnauthorizedAccount",
      "type": "error"
    },
    {
      "inputs": [
        {
          "internalType": "address",
          "name": "token",
          "type": "address"
        }
      ],
      "name": "SafeERC20FailedOperation",
      "type": "error"
    },
    {
      "inputs": [
        {
          "internalType": "uint256",
          "name": "tokenId",
          "type": "uint256"
        },
        {
          "internalType": "uint256",
          "name": "mintBlock",
          "type": "uint256"
        },
        {
          "internalType": "uint256",
          "name": "snapshotBlock",
          "type": "uint256"
        }
      ],
      "name": "TokenNotInSnapshot",
      "type": "error"
    },
    {
      "inputs": [
        {
          "internalType": "address",
          "name": "account",
          "type": "address"
        },
        {
          "internalType": "uint256",
          "name": "cldId",
          "type": "uint256"
        },
        {
          "internalType": "address",
          "name": "registry",
          "type": "address"
        },
        {
          "internalType": "uint256",
          "name": "tokenId",
          "type": "uint256"
        }
      ],
      "name": "TokenNotOwned",
      "type": "error"
    },
    {
      "anonymous": false,
      "inputs": [
        {
          "indexed": false,
          "internalType": "address",
          "name": "accont",
          "type": "address"
        },
        {
          "indexed": false,
          "internalType": "uint256",
          "name": "delta",
          "type": "uint256"
        },
        {
          "indexed": false,
          "internalType": "uint256",
          "name": "amount",
          "type": "uint256"
        }
      ],
      "name": "BalanceChanged",
      "type": "event"
    },
    {
      "anonymous": false,
      "inputs": [
        {
          "indexed": false,
          "internalType": "uint256",
          "name": "cldId",
          "type": "uint256"
        },
        {
          "indexed": false,
          "internalType": "address",
          "name": "target",
          "type": "address"
        },
        {
          "indexed": false,
          "internalType": "uint8",
          "name": "referralShare",
          "type": "uint8"
        },
        {
          "indexed": false,
          "internalType": "uint8",
          "name": "communityShare",
          "type": "uint8"
        },
        {
          "indexed": false,
          "internalType": "uint8",
          "name": "ecosystemShare",
          "type": "uint8"
        }
      ],
      "name": "CldRegistered",
      "type": "event"
    },
    {
      "anonymous": false,
      "inputs": [
        {
          "indexed": false,
          "internalType": "uint256",
          "name": "cldId",
          "type": "uint256"
        },
        {
          "indexed": false,
          "internalType": "address",
          "name": "referer",
          "type": "address"
        },
        {
          "indexed": false,
          "internalType": "uint256",
          "name": "amountEth",
          "type": "uint256"
        },
        {
          "indexed": false,
          "internalType": "uint256",
          "name": "amountERC20",
          "type": "uint256"
        }
      ],
      "name": "Collected",
      "type": "event"
    },
    {
      "anonymous": false,
      "inputs": [
        {
          "components": [
            {
              "internalType": "uint256",
              "name": "reward",
              "type": "uint256"
            },
            {
              "internalType": "uint256",
              "name": "supply",
              "type": "uint256"
            },
            {
              "internalType": "uint256",
              "name": "unclaimed",
              "type": "uint256"
            },
            {
              "internalType": "uint256",
              "name": "blockNumber",
              "type": "uint256"
            },
            {
              "internalType": "uint256",
              "name": "blockTimestamp",
              "type": "uint256"
            }
          ],
          "indexed": false,
          "internalType": "struct IRewarder.HolderRewardsSnapshot",
          "name": "",
          "type": "tuple"
        }
      ],
      "name": "HolderRewardsSnapshotCreated",
      "type": "event"
    },
    {
      "anonymous": false,
      "inputs": [
        {
          "indexed": false,
          "internalType": "uint256",
          "name": "delta",
          "type": "uint256"
        },
        {
          "indexed": false,
          "internalType": "uint256",
          "name": "amount",
          "type": "uint256"
        }
      ],
      "name": "HoldersBalanceChanged",
      "type": "event"
    },
    {
      "anonymous": false,
      "inputs": [
        {
          "indexed": true,
          "internalType": "address",
          "name": "previousOwner",
          "type": "address"
        },
        {
          "indexed": true,
          "internalType": "address",
          "name": "newOwner",
          "type": "address"
        }
      ],
      "name": "OwnershipTransferred",
      "type": "event"
    },
    {
      "anonymous": false,
      "inputs": [
        {
          "indexed": false,
          "internalType": "address",
          "name": "account",
          "type": "address"
        },
        {
          "indexed": false,
          "internalType": "uint256[]",
          "name": "tokenIds",
          "type": "uint256[]"
        },
        {
          "indexed": false,
          "internalType": "uint256",
          "name": "amount",
          "type": "uint256"
        }
      ],
      "name": "Withdrawn",
      "type": "event"
    },
    {
      "inputs": [],
      "name": "PROTOCOL_SHARE",
      "outputs": [
        {
          "internalType": "uint8",
          "name": "",
          "type": "uint8"
        }
      ],
      "stateMutability": "view",
      "type": "function"
    },
    {
      "inputs": [
        {
          "internalType": "address",
          "name": "account",
          "type": "address"
        }
      ],
      "name": "balanceOf",
      "outputs": [
        {
          "internalType": "uint256",
          "name": "",
          "type": "uint256"
        }
      ],
      "stateMutability": "view",
      "type": "function"
    },
    {
      "inputs": [
        {
          "internalType": "uint256",
          "name": "tokenId",
          "type": "uint256"
        }
      ],
      "name": "balanceOf",
      "outputs": [
        {
          "internalType": "uint256",
          "name": "",
          "type": "uint256"
        }
      ],
      "stateMutability": "view",
      "type": "function"
    },
    {
      "inputs": [],
      "name": "balanceOfHolders",
      "outputs": [
        {
          "internalType": "uint256",
          "name": "",
          "type": "uint256"
        }
      ],
      "stateMutability": "view",
      "type": "function"
    },
    {
      "inputs": [
        {
          "internalType": "uint256",
          "name": "cldId",
          "type": "uint256"
        },
        {
          "internalType": "address",
          "name": "referer",
          "type": "address"
        }
      ],
      "name": "collect",
      "outputs": [],
      "stateMutability": "payable",
      "type": "function"
    },
    {
      "inputs": [
        {
          "internalType": "uint256",
          "name": "cldId",
          "type": "uint256"
        }
      ],
      "name": "configurationOf",
      "outputs": [
        {
          "components": [
            {
              "internalType": "uint8",
              "name": "referralShare",
              "type": "uint8"
            },
            {
              "internalType": "uint8",
              "name": "communityShare",
              "type": "uint8"
            },
            {
              "internalType": "uint8",
              "name": "ecosystemShare",
              "type": "uint8"
            },
            {
              "internalType": "uint8",
              "name": "protocolShare",
              "type": "uint8"
            },
            {
              "internalType": "bool",
              "name": "isCldSplitRewards",
              "type": "bool"
            },
            {
              "internalType": "address",
              "name": "payoutTarget",
              "type": "address"
            },
            {
              "internalType": "contract IRegistry",
              "name": "registry",
              "type": "address"
            }
          ],
          "internalType": "struct IRewarder.CldConfiguration",
          "name": "c",
          "type": "tuple"
        }
      ],
      "stateMutability": "view",
      "type": "function"
    },
    {
      "inputs": [],
      "name": "holderRewardsSnapshot",
      "outputs": [
        {
          "components": [
            {
              "internalType": "uint256",
              "name": "reward",
              "type": "uint256"
            },
            {
              "internalType": "uint256",
              "name": "supply",
              "type": "uint256"
            },
            {
              "internalType": "uint256",
              "name": "unclaimed",
              "type": "uint256"
            },
            {
              "internalType": "uint256",
              "name": "blockNumber",
              "type": "uint256"
            },
            {
              "internalType": "uint256",
              "name": "blockTimestamp",
              "type": "uint256"
            }
          ],
          "internalType": "struct IRewarder.HolderRewardsSnapshot",
          "name": "",
          "type": "tuple"
        }
      ],
      "stateMutability": "view",
      "type": "function"
    },
    {
      "inputs": [],
      "name": "owner",
      "outputs": [
        {
          "internalType": "address",
          "name": "",
          "type": "address"
        }
      ],
      "stateMutability": "view",
      "type": "function"
    },
    {
      "inputs": [],
      "name": "previewHolderRewardsSnapshot",
      "outputs": [
        {
          "components": [
            {
              "internalType": "uint256",
              "name": "reward",
              "type": "uint256"
            },
            {
              "internalType": "uint256",
              "name": "supply",
              "type": "uint256"
            },
            {
              "internalType": "uint256",
              "name": "unclaimed",
              "type": "uint256"
            },
            {
              "internalType": "uint256",
              "name": "blockNumber",
              "type": "uint256"
            },
            {
              "internalType": "uint256",
              "name": "blockTimestamp",
              "type": "uint256"
            }
          ],
          "internalType": "struct IRewarder.HolderRewardsSnapshot",
          "name": "",
          "type": "tuple"
        }
      ],
      "stateMutability": "view",
      "type": "function"
    },
    {
      "inputs": [
        {
          "internalType": "contract IRegistry",
          "name": "registry",
          "type": "address"
        },
        {
          "internalType": "address",
          "name": "payout",
          "type": "address"
        },
        {
          "internalType": "uint8",
          "name": "referralShare",
          "type": "uint8"
        },
        {
          "internalType": "uint8",
          "name": "communityShare",
          "type": "uint8"
        },
        {
          "internalType": "bool",
          "name": "isCldSplitRewards",
          "type": "bool"
        }
      ],
      "name": "registerCld",
      "outputs": [],
      "stateMutability": "nonpayable",
      "type": "function"
    },
    {
      "inputs": [],
      "name": "renounceOwnership",
      "outputs": [],
      "stateMutability": "nonpayable",
      "type": "function"
    },
    {
      "inputs": [],
      "name": "takeHolderRewardsSnapshot",
      "outputs": [],
      "stateMutability": "nonpayable",
      "type": "function"
    },
    {
      "inputs": [
        {
          "internalType": "address",
          "name": "newOwner",
          "type": "address"
        }
      ],
      "name": "transferOwnership",
      "outputs": [],
      "stateMutability": "nonpayable",
      "type": "function"
    },
    {
      "inputs": [
        {
          "internalType": "address",
          "name": "account",
          "type": "address"
        },
        {
          "internalType": "uint256[]",
          "name": "tokenIds",
          "type": "uint256[]"
        }
      ],
      "name": "withdraw",
      "outputs": [],
      "stateMutability": "nonpayable",
      "type": "function"
    },
    {
      "inputs": [
        {
          "internalType": "uint256",
          "name": "cldId",
          "type": "uint256"
        },
        {
          "internalType": "uint256[]",
          "name": "tokenIds",
          "type": "uint256[]"
        }
      ],
      "name": "withdrawForCommunity",
      "outputs": [],
      "stateMutability": "nonpayable",
      "type": "function"
    }
  ],
  "bytecode": "0x60806040523480156200001157600080fd5b5060405162001d7138038062001d71833981016040819052620000349162000127565b33806200005b57604051631e4fbdf760e01b81526000600482015260240160405180910390fd5b6200006681620000be565b50600980546001600160a01b03199081166001600160a01b039788161790915560088054821695871695909517909455600a80548516938616939093179092556001805490931693169290921790556012556200019b565b600080546001600160a01b038381166001600160a01b0319831681178455604051919092169283917f8be0079c531659141344cd1fd0a4f28419497f9722a3daafe3b4186f6b6457e09190a35050565b6001600160a01b03811681146200012457600080fd5b50565b600080600080600060a086880312156200014057600080fd5b85516200014d816200010e565b602087015190955062000160816200010e565b604087015190945062000173816200010e565b606087015190935062000186816200010e565b80925050608086015190509295509295909350565b611bc680620001ab6000396000f3fe6080604052600436106100e85760003560e01c80638d3c100a1161008a578063e629e43c11610059578063e629e43c14610312578063f2fde38b14610327578063f7fed11714610347578063fca5aa431461035c57600080fd5b80638d3c100a146102975780638da5cb5b146102aa5780639cc7f708146102d2578063ada7f1e6146102f257600080fd5b806351adc761116100c657806351adc761146101f757806370a082311461021e578063715018a6146102625780638293744b1461027757600080fd5b80632b545421146100ed578063424fa36a146101895780634be45b07146101e0575b600080fd5b3480156100f957600080fd5b5061010d6101083660046116ee565b61037c565b6040516101809190600060e08201905060ff835116825260ff602084015116602083015260ff604084015116604083015260ff606084015116606083015260808301511515608083015260a08301516001600160a01b0380821660a08501528060c08601511660c0850152505092915050565b60405180910390f35b34801561019557600080fd5b5061019e610464565b6040516101809190600060a082019050825182526020830151602083015260408301516040830152606083015160608301526080830151608083015292915050565b3480156101ec57600080fd5b506101f56104a7565b005b34801561020357600080fd5b5061020c600581565b60405160ff9091168152602001610180565b34801561022a57600080fd5b5061025461023936600461171c565b6001600160a01b031660009081526002602052604090205490565b604051908152602001610180565b34801561026e57600080fd5b506101f5610577565b34801561028357600080fd5b506101f5610292366004611785565b61058b565b6101f56102a53660046117da565b61059b565b3480156102b657600080fd5b506000546040516001600160a01b039091168152602001610180565b3480156102de57600080fd5b506102546102ed3660046116ee565b610a44565b3480156102fe57600080fd5b506101f561030d36600461182e565b610b04565b34801561031e57600080fd5b50600b54610254565b34801561033357600080fd5b506101f561034236600461171c565b610d40565b34801561035357600080fd5b5061019e610d97565b34801561036857600080fd5b506101f561037736600461189b565b610dfe565b6040805160e081018252600080825260208201819052918101829052606081018290526080810182905260a0810182905260c08101919091526000828152600660205260409020546001600160a01b0316806103d85750919050565b6040805160e0810182526000858152600560209081528382205460ff90811684528783526003825291849020549091169082015290810161041885610e21565b60ff16815260056020808301919091526007546001600160a01b039081169481169485146040808501919091526000978852600490925295205490941660608501526080909301525090565b6104966040518060a0016040528060008152602001600081526020016000815260200160008152602001600081525090565b60006104a0610e75565b5092915050565b60125460105442916104b8916118e4565b11156104f0576040517fbe39dd8d00000000000000000000000000000000000000000000000000000000815260040160405180910390fd5b6104f8610e75565b600b558051600c819055602080830151600d819055604080850151600e819055606080870151600f819055608097880151601081905584519788529587019490945291850152830152918101919091527f64c3c0243233b5ec6c4cf9bcb3e55d27a6bbc9f9b72bcd3eac2ebf774c42c4329060a00160405180910390a1565b61057f610f83565b6105896000610fc9565b565b610596838383611026565b505050565b6105a3610f83565b6105ac82611171565b506040805161010081018252600a546001600160a01b039081168252600854166020820152610bb891810191909152306060820152600090608081016105f342600f6118e4565b81524760208083019190915260006040808401829052606093840182905260095481517f414bf38900000000000000000000000000000000000000000000000000000000815286516001600160a01b03908116600483015294870151851660248201529186015162ffffff16604483015293850151831660648201526080850151608482015260a085015160a482015260c085015160c482015260e0850151831660e48201529394509291169063414bf3899047906101040160206040518083038185885af11580156106ca573d6000803e3d6000fd5b50505050506040513d601f19601f820116820180604052508101906106ef91906118f7565b90506001600160a01b03831661071a576000848152600460205260409020546001600160a01b031692505b6000848152600560205260408120546064906107399060ff1684611910565b610743919061193d565b6001600160a01b0385166000908152600260205260408120805492935083929091906107709084906118e4565b90915550506001600160a01b03841660008181526002602090815260409182902054825193845290830184905282820152517faeeb0cb16f299136e7e5467ea84217150fe83008833064528f360cde7b7b54c39181900360600190a16000858152600360205260408120546064906107eb9060ff1685611910565b6107f5919061193d565b6000878152600460209081526040808320546001600160a01b03168352600290915281208054929350839290919061082e9084906118e4565b90915550506000868152600460209081526040808320546001600160a01b031680845260028352928190205481519384529183018490528201527faeeb0cb16f299136e7e5467ea84217150fe83008833064528f360cde7b7b54c39060600160405180910390a1600060646108a4600586611910565b6108ae919061193d565b6001546001600160a01b03166000908152600260205260408120805492935083929091906108dd9084906118e4565b90915550506001546001600160a01b031660008181526002602090815260409182902054825193845290830184905282820152517faeeb0cb16f299136e7e5467ea84217150fe83008833064528f360cde7b7b54c39181900360600190a16000606461094889610e21565b6109559060ff1687611910565b61095f919061193d565b90506000828285610970888a611951565b61097a9190611951565b6109849190611951565b61098e9190611951565b905080156109eb5780600b60008282546109a891906118e4565b9091555050600b546040805183815260208101929092527f7c6356899761859b88c3a7039f9bd3ca75f9cae78d3af918b7942a0f26225ba5910160405180910390a15b604080518a81526001600160a01b038a16602082015234818301526060810188905290517fe985bb809569e1ab693b8d0a44015cb780fa698a4b16df55472d8eeffa185b399181900360800190a1505050505050505050565b6007546040516358f3d65360e01b81526004810183905260009182916001600160a01b03909116906358f3d65390602401602060405180830381865afa158015610a92573d6000803e3d6000fd5b505050506040513d601f19601f82011682018060405250810190610ab691906118f7565b600f54909150811115610acc5750600092915050565b600f54600090815260116020908152604080832086845290915290205460ff1615610afa5750600092915050565b5050600c54919050565b610b0c610f83565b60646005610b1a8486611964565b610b249190611964565b60ff161115610b5f576040517f6edcc52300000000000000000000000000000000000000000000000000000000815260040160405180910390fd5b6000856001600160a01b03166383d48e046040518163ffffffff1660e01b8152600401600060405180830381865afa158015610b9f573d6000803e3d6000fd5b505050506040513d6000823e601f3d908101601f19168201604052610bc791908101906119b7565b6000818152600660205260409020549092506001600160a01b0316159050610c23576040517f8099d066000000000000000000000000000000000000000000000000000000008152600481018290526024015b60405180910390fd5b600081815260046020908152604080832080546001600160a01b03808b1673ffffffffffffffffffffffffffffffffffffffff199283161790925560038452828520805460ff808b1660ff1992831617909255600586528487208054928c1692909116919091179055600690935292208054928916929091169190911790558115610cd1576007805473ffffffffffffffffffffffffffffffffffffffff19166001600160a01b0388161790555b7f28b5f014d229bc5b7dee089d4c00f7d362386b3f404a8cd7a682569ed2b3b42381868686610cff86610e21565b604080519586526001600160a01b0394909416602086015260ff928316858501529082166060850152166080830152519081900360a00190a1505050505050565b610d48610f83565b6001600160a01b038116610d8b576040517f1e4fbdf700000000000000000000000000000000000000000000000000000000815260006004820152602401610c1a565b610d9481610fc9565b50565b610dc96040518060a0016040528060008152602001600081526020016000815260200160008152602001600081525090565b506040805160a081018252600c548152600d546020820152600e5491810191909152600f546060820152601054608082015290565b600083815260046020526040902054610596906001600160a01b03168383611026565b60008181526005602081815260408084205460039092528320546002929160ff90811691610e5191166064611a6e565b610e5b9190611a6e565b610e659190611a6e565b610e6f9190611a87565b92915050565b610ea76040518060a0016040528060008152602001600081526020016000815260200160008152602001600081525090565b600080600c60020154600b54610ebd91906118e4565b90506000600760009054906101000a90046001600160a01b03166001600160a01b03166318160ddd6040518163ffffffff1660e01b8152600401602060405180830381865afa158015610f14573d6000803e3d6000fd5b505050506040513d601f19601f82011682018060405250810190610f3891906118f7565b90506000610f46828461193d565b6040805160a0810182528281526020810185905290810185905243606082015242608082015295509050610f7a8284611aa9565b93505050509091565b6000546001600160a01b03163314610589576040517f118cdaa7000000000000000000000000000000000000000000000000000000008152336004820152602401610c1a565b600080546001600160a01b0383811673ffffffffffffffffffffffffffffffffffffffff19831681178455604051919092169283917f8be0079c531659141344cd1fd0a4f28419497f9722a3daafe3b4186f6b6457e09190a35050565b6001600160a01b038316611071576040517f4b579b220000000000000000000000000000000000000000000000000000000081526001600160a01b0384166004820152602401610c1a565b6001600160a01b038316600090815260026020526040812054905b828110156110ca576110b6858585848181106110aa576110aa611abd565b905060200201356111c3565b6110c090836118e4565b915060010161108c565b5080600003611105576040517fd0d04f6000000000000000000000000000000000000000000000000000000000815260040160405180910390fd5b6001600160a01b0380851660009081526002602052604081205560085461112e91168583611479565b7fe66b0ed849ff888f010dc005178a261d92bdc7dcf7c5b5eedd3a5aad3c9a2eb9848484846040516111639493929190611ad3565b60405180910390a150505050565b6000818152600660205260408120546001600160a01b031680610e6f576040517f6128427d00000000000000000000000000000000000000000000000000000000815260048101849052602401610c1a565b600f54600090815260116020908152604080832084845290915281205460ff16156111f057506000610e6f565b6007546040517f6352211e000000000000000000000000000000000000000000000000000000008152600481018490526001600160a01b03858116921690636352211e90602401602060405180830381865afa158015611254573d6000803e3d6000fd5b505050506040513d601f19601f820116820180604052508101906112789190611b3a565b6001600160a01b03161461136c57600754604080517f83d48e0400000000000000000000000000000000000000000000000000000000815290516000926001600160a01b0316916383d48e0491600480830192869291908290030181865afa1580156112e8573d6000803e3d6000fd5b505050506040513d6000823e601f3d908101601f1916820160405261131091908101906119b7565b6007546040517ffe7855210000000000000000000000000000000000000000000000000000000081526001600160a01b038089166004830152602482018490529091166044820152606481018690529092506084019050610c1a565b6007546040516358f3d65360e01b8152600481018490526000916001600160a01b0316906358f3d65390602401602060405180830381865afa1580156113b6573d6000803e3d6000fd5b505050506040513d601f19601f820116820180604052508101906113da91906118f7565b600f54909150811061142d57600f546040517fb4ea4e1800000000000000000000000000000000000000000000000000000000815260048101859052602481018390526044810191909152606401610c1a565b600c54600e8054600090611442908490611951565b9091555050600f5460009081526011602090815260408083208684529091529020805460ff191660011790555050600c5492915050565b604080516001600160a01b03848116602483015260448083018590528351808403909101815260649092019092526020810180517bffffffffffffffffffffffffffffffffffffffffffffffffffffffff167fa9059cbb00000000000000000000000000000000000000000000000000000000179052610596918591906000906115059084168361156c565b9050805160001415801561152a5750808060200190518101906115289190611b57565b155b15610596576040517f5274afe70000000000000000000000000000000000000000000000000000000081526001600160a01b0384166004820152602401610c1a565b606061157a83836000611581565b9392505050565b6060814710156115bf576040517fcd786059000000000000000000000000000000000000000000000000000000008152306004820152602401610c1a565b600080856001600160a01b031684866040516115db9190611b74565b60006040518083038185875af1925050503d8060008114611618576040519150601f19603f3d011682016040523d82523d6000602084013e61161d565b606091505b509150915061162d868383611637565b9695505050505050565b60608261164c57611647826116ac565b61157a565b815115801561166357506001600160a01b0384163b155b156116a5576040517f9996b3150000000000000000000000000000000000000000000000000000000081526001600160a01b0385166004820152602401610c1a565b508061157a565b8051156116bc5780518082602001fd5b6040517f1425ea4200000000000000000000000000000000000000000000000000000000815260040160405180910390fd5b60006020828403121561170057600080fd5b5035919050565b6001600160a01b0381168114610d9457600080fd5b60006020828403121561172e57600080fd5b813561157a81611707565b60008083601f84011261174b57600080fd5b50813567ffffffffffffffff81111561176357600080fd5b6020830191508360208260051b850101111561177e57600080fd5b9250929050565b60008060006040848603121561179a57600080fd5b83356117a581611707565b9250602084013567ffffffffffffffff8111156117c157600080fd5b6117cd86828701611739565b9497909650939450505050565b600080604083850312156117ed57600080fd5b8235915060208301356117ff81611707565b809150509250929050565b803560ff8116811461181b57600080fd5b919050565b8015158114610d9457600080fd5b600080600080600060a0868803121561184657600080fd5b853561185181611707565b9450602086013561186181611707565b935061186f6040870161180a565b925061187d6060870161180a565b9150608086013561188d81611820565b809150509295509295909350565b6000806000604084860312156118b057600080fd5b83359250602084013567ffffffffffffffff8111156117c157600080fd5b634e487b7160e01b600052601160045260246000fd5b80820180821115610e6f57610e6f6118ce565b60006020828403121561190957600080fd5b5051919050565b8082028115828204841417610e6f57610e6f6118ce565b634e487b7160e01b600052601260045260246000fd5b60008261194c5761194c611927565b500490565b81810381811115610e6f57610e6f6118ce565b60ff8181168382160190811115610e6f57610e6f6118ce565b634e487b7160e01b600052604160045260246000fd5b60005b838110156119ae578181015183820152602001611996565b50506000910152565b600080604083850312156119ca57600080fd5b825167ffffffffffffffff808211156119e257600080fd5b818501915085601f8301126119f657600080fd5b815181811115611a0857611a0861197d565b604051601f8201601f19908116603f01168101908382118183101715611a3057611a3061197d565b81604052828152886020848701011115611a4957600080fd5b611a5a836020830160208801611993565b602097909701519698969750505050505050565b60ff8281168282160390811115610e6f57610e6f6118ce565b600060ff831680611a9a57611a9a611927565b8060ff84160491505092915050565b600082611ab857611ab8611927565b500690565b634e487b7160e01b600052603260045260246000fd5b6001600160a01b03851681526060602082015282606082015260007f07ffffffffffffffffffffffffffffffffffffffffffffffffffffffffffffff841115611b1b57600080fd5b8360051b80866080850137604083019390935250016080019392505050565b600060208284031215611b4c57600080fd5b815161157a81611707565b600060208284031215611b6957600080fd5b815161157a81611820565b60008251611b86818460208701611993565b919091019291505056fea264697066735822122095f8409098acff12cd17a8b77056a4edd2f296d3c8d58adc412665fef03f29b164736f6c63430008180033",
  "linkReferences": {},
  "deployedLinkReferences": {}
}