{
  "_format": "hh-sol-artifact-1",
  "contractName": "NNSResolver",
  "sourceName": "contracts/NNSResolver.sol",
  "abi": [
    {
      "inputs": [],
      "stateMutability": "nonpayable",
      "type": "constructor"
    },
    {
      "inputs": [],
      "name": "CldAlreadyRegistered",
      "type": "error"
    },
    {
      "inputs": [],
      "name": "InvalidCld",
      "type": "error"
    },
    {
      "inputs": [
        {
          "internalType": "address",
          "name": "owner",
          "type": "address"
        }
      ],
      "name": "OwnableInvalidOwner",
      "type": "error"
    },
    {
      "inputs": [
        {
          "internalType": "address",
          "name": "account",
          "type": "address"
        }
      ],
      "name": "OwnableUnauthorizedAccount",
      "type": "error"
    },
    {
      "inputs": [],
      "name": "UnauthorizedAccount",
      "type": "error"
    },
    {
      "anonymous": false,
      "inputs": [
        {
          "indexed": false,
          "internalType": "uint256",
          "name": "cldId",
          "type": "uint256"
        },
        {
          "indexed": false,
          "internalType": "address",
          "name": "registry",
          "type": "address"
        }
      ],
      "name": "CldRegistered",
      "type": "event"
    },
    {
      "anonymous": false,
      "inputs": [
        {
          "indexed": false,
          "internalType": "address",
          "name": "account",
          "type": "address"
        },
        {
          "indexed": false,
          "internalType": "uint256",
          "name": "cldId",
          "type": "uint256"
        }
      ],
      "name": "DefaultCldChanged",
      "type": "event"
    },
    {
      "anonymous": false,
      "inputs": [
        {
          "indexed": false,
          "internalType": "uint256",
          "name": "cldId",
          "type": "uint256"
        }
      ],
      "name": "FallbackCldChanged",
      "type": "event"
    },
    {
      "anonymous": false,
      "inputs": [
        {
          "indexed": true,
          "internalType": "address",
          "name": "previousOwner",
          "type": "address"
        },
        {
          "indexed": true,
          "internalType": "address",
          "name": "newOwner",
          "type": "address"
        }
      ],
      "name": "OwnershipTransferred",
      "type": "event"
    },
    {
      "inputs": [
        {
          "internalType": "address",
          "name": "addr",
          "type": "address"
        }
      ],
      "name": "defaultCldOf",
      "outputs": [
        {
          "internalType": "uint256",
          "name": "",
          "type": "uint256"
        }
      ],
      "stateMutability": "view",
      "type": "function"
    },
    {
      "inputs": [],
      "name": "fallbackCld",
      "outputs": [
        {
          "internalType": "uint256",
          "name": "",
          "type": "uint256"
        }
      ],
      "stateMutability": "view",
      "type": "function"
    },
    {
      "inputs": [],
      "name": "owner",
      "outputs": [
        {
          "internalType": "address",
          "name": "",
          "type": "address"
        }
      ],
      "stateMutability": "view",
      "type": "function"
    },
    {
      "inputs": [
        {
          "internalType": "uint256",
          "name": "cldId",
          "type": "uint256"
        },
        {
          "internalType": "uint256",
          "name": "tokenId",
          "type": "uint256"
        },
        {
          "internalType": "uint256",
          "name": "key",
          "type": "uint256"
        }
      ],
      "name": "recordOf",
      "outputs": [
        {
          "internalType": "string",
          "name": "",
          "type": "string"
        }
      ],
      "stateMutability": "view",
      "type": "function"
    },
    {
      "inputs": [
        {
          "internalType": "uint256",
          "name": "cldId",
          "type": "uint256"
        },
        {
          "internalType": "uint256",
          "name": "tokenId",
          "type": "uint256"
        },
        {
          "internalType": "uint256[]",
          "name": "keys",
          "type": "uint256[]"
        }
      ],
      "name": "recordsOf",
      "outputs": [
        {
          "internalType": "string[]",
          "name": "values",
          "type": "string[]"
        }
      ],
      "stateMutability": "view",
      "type": "function"
    },
    {
      "inputs": [
        {
          "internalType": "contract IRegistry",
          "name": "registry",
          "type": "address"
        },
        {
          "internalType": "bool",
          "name": "isFallback",
          "type": "bool"
        }
      ],
      "name": "registerCld",
      "outputs": [],
      "stateMutability": "nonpayable",
      "type": "function"
    },
    {
      "inputs": [],
      "name": "renounceOwnership",
      "outputs": [],
      "stateMutability": "nonpayable",
      "type": "function"
    },
    {
      "inputs": [
        {
          "internalType": "address",
          "name": "addr",
          "type": "address"
        }
      ],
      "name": "reverseNameOf",
      "outputs": [
        {
          "internalType": "string",
          "name": "",
          "type": "string"
        }
      ],
      "stateMutability": "view",
      "type": "function"
    },
    {
      "inputs": [
        {
          "internalType": "address",
          "name": "addr",
          "type": "address"
        },
        {
          "internalType": "uint256[]",
          "name": "cldIds",
          "type": "uint256[]"
        },
        {
          "internalType": "bool",
          "name": "fallbackToDefault",
          "type": "bool"
        }
      ],
      "name": "reverseNameOf",
      "outputs": [
        {
          "internalType": "string",
          "name": "",
          "type": "string"
        }
      ],
      "stateMutability": "view",
      "type": "function"
    },
    {
      "inputs": [
        {
          "internalType": "address",
          "name": "addr",
          "type": "address"
        },
        {
          "internalType": "uint256[]",
          "name": "cldIds",
          "type": "uint256[]"
        },
        {
          "internalType": "bool",
          "name": "fallbackToDefault",
          "type": "bool"
        }
      ],
      "name": "reverseOf",
      "outputs": [
        {
          "internalType": "uint256",
          "name": "cldId",
          "type": "uint256"
        },
        {
          "internalType": "uint256",
          "name": "tokenId",
          "type": "uint256"
        }
      ],
      "stateMutability": "view",
      "type": "function"
    },
    {
      "inputs": [
        {
          "internalType": "address",
          "name": "addr",
          "type": "address"
        }
      ],
      "name": "reverseOf",
      "outputs": [
        {
          "internalType": "uint256",
          "name": "cldId",
          "type": "uint256"
        },
        {
          "internalType": "uint256",
          "name": "tokenId",
          "type": "uint256"
        }
      ],
      "stateMutability": "view",
      "type": "function"
    },
    {
      "inputs": [
        {
          "internalType": "address",
          "name": "account",
          "type": "address"
        },
        {
          "internalType": "uint256",
          "name": "cldId",
          "type": "uint256"
        }
      ],
      "name": "setDefaultCld",
      "outputs": [],
      "stateMutability": "nonpayable",
      "type": "function"
    },
    {
      "inputs": [
        {
          "internalType": "uint256",
          "name": "cldId",
          "type": "uint256"
        }
      ],
      "name": "setFallbackCld",
      "outputs": [],
      "stateMutability": "nonpayable",
      "type": "function"
    },
    {
      "inputs": [
        {
          "internalType": "address",
          "name": "newOwner",
          "type": "address"
        }
      ],
      "name": "transferOwnership",
      "outputs": [],
      "stateMutability": "nonpayable",
      "type": "function"
    }
  ],
  "bytecode": "0x608060405234801561001057600080fd5b50338061003757604051631e4fbdf760e01b81526000600482015260240160405180910390fd5b61004081610046565b50610096565b600080546001600160a01b038381166001600160a01b0319831681178455604051919092169283917f8be0079c531659141344cd1fd0a4f28419497f9722a3daafe3b4186f6b6457e09190a35050565b61103c806100a56000396000f3fe608060405234801561001057600080fd5b50600436106100ea5760003560e01c80639336fc7f1161008c578063a102786f11610066578063a102786f146101d2578063bebec6b4146101f2578063d966728914610205578063f2fde38b1461021857600080fd5b80639336fc7f1461018c5780639bd901861461019f578063a04d5165146101bf57600080fd5b80636e3e7f48116100c85780636e3e7f4814610143578063715018a6146101565780637e37479e1461015e5780638da5cb5b1461017157600080fd5b806302ba102a146100ef5780630c68c74d146101045780632a003a051461011b575b600080fd5b6101026100fd366004610ab8565b61022b565b005b6002545b6040519081526020015b60405180910390f35b61012e610129366004610b40565b610282565b60408051928352602083019190915201610112565b610102610151366004610ba8565b61037d565b6101026104c8565b61012e61016c366004610bd4565b6104dc565b6000546040516001600160a01b039091168152602001610112565b61010861019a366004610bd4565b610569565b6101b26101ad366004610bf8565b610594565b6040516101129190610c74565b6101026101cd366004610c87565b610636565b6101e56101e0366004610cc0565b61077d565b6040516101129190610d13565b6101b2610200366004610bd4565b610805565b6101b2610213366004610b40565b610888565b610102610226366004610bd4565b61096e565b6102336109c7565b61023c81610a0d565b50600254811461027f5760028190556040518181527f547f914863c509525a67bfd1b905c2c6c614e0198d5242aa652ad7a6b7d5dd119060200160405180910390a15b50565b60008060005b848110156103545760006102b38787848181106102a7576102a7610d77565b90506020020135610a0d565b604051633f1ba3cf60e11b81526001600160a01b038a8116600483015291925090821690637e37479e90602401602060405180830381865afa1580156102fd573d6000803e3d6000fd5b505050506040513d601f19601f820116820180604052508101906103219190610d8d565b9250821561034b5786868381811061033b5761033b610d77565b9050602002013593505050610374565b50600101610288565b50821561036d57610364866104dc565b91509150610374565b5060009050805b94509492505050565b600061038882610a0d565b9050336001600160a01b0384161480159061043857506001600160a01b03811663e985e9c584336040517fffffffff0000000000000000000000000000000000000000000000000000000060e085901b1681526001600160a01b03928316600482015291166024820152604401602060405180830381865afa158015610412573d6000803e3d6000fd5b505050506040513d601f19601f820116820180604052508101906104369190610da6565b155b1561046f576040517fa97ff08a00000000000000000000000000000000000000000000000000000000815260040160405180910390fd5b6001600160a01b038316600081815260036020908152604091829020859055815192835282018490527fe4b54c6dd0e330a48975d7325ee994c79c566e6c78b3e375b2ade3bca34aeb8d910160405180910390a1505050565b6104d06109c7565b6104da6000610a5b565b565b6000806104e883610569565b9150816104f483610a0d565b604051633f1ba3cf60e11b81526001600160a01b0386811660048301529190911690637e37479e90602401602060405180830381865afa15801561053c573d6000803e3d6000fd5b505050506040513d601f19601f820116820180604052508101906105609190610d8d565b91509150915091565b6001600160a01b03811660009081526003602052604081205480820361058e57506002545b92915050565b606061059f84610a0d565b6040517f064816cf00000000000000000000000000000000000000000000000000000000815260048101859052602481018490526001600160a01b03919091169063064816cf90604401600060405180830381865afa158015610606573d6000803e3d6000fd5b505050506040513d6000823e601f3d908101601f1916820160405261062e9190810190610e6e565b949350505050565b61063e6109c7565b6000826001600160a01b03166383d48e046040518163ffffffff1660e01b8152600401600060405180830381865afa15801561067e573d6000803e3d6000fd5b505050506040513d6000823e601f3d908101601f191682016040526106a69190810190610ea3565b6000818152600160205260409020549092506001600160a01b03161590506106fa576040517fd36fe93200000000000000000000000000000000000000000000000000000000815260040160405180910390fd5b600081815260016020908152604091829020805473ffffffffffffffffffffffffffffffffffffffff19166001600160a01b0387169081179091558251848152918201527f08c9b698b97f599b9e6bd9d77a2fc735231819e8fe5b06f44439eb688da1be3d910160405180910390a18115610778576107788161022b565b505050565b606061078885610a0d565b6001600160a01b031663215adba28585856040518463ffffffff1660e01b81526004016107b793929190610eea565b600060405180830381865afa1580156107d4573d6000803e3d6000fd5b505050506040513d6000823e601f3d908101601f191682016040526107fc9190810190610f43565b95945050505050565b606061081861081383610569565b610a0d565b604051632fafb1ad60e21b81526001600160a01b038481166004830152919091169063bebec6b490602401600060405180830381865afa158015610860573d6000803e3d6000fd5b505050506040513d6000823e601f3d908101601f1916820160405261058e9190810190610e6e565b606060005b8381101561093f5760006108ac8686848181106102a7576102a7610d77565b604051632fafb1ad60e21b81526001600160a01b03898116600483015291925060009183169063bebec6b490602401600060405180830381865afa1580156108f8573d6000803e3d6000fd5b505050506040513d6000823e601f3d908101601f191682016040526109209190810190610e6e565b9050805160001461093557925061062e915050565b505060010161088d565b5081156109565761094f85610805565b905061062e565b50604080516020810190915260008152949350505050565b6109766109c7565b6001600160a01b0381166109be576040517f1e4fbdf7000000000000000000000000000000000000000000000000000000008152600060048201526024015b60405180910390fd5b61027f81610a5b565b6000546001600160a01b031633146104da576040517f118cdaa70000000000000000000000000000000000000000000000000000000081523360048201526024016109b5565b6000818152600160205260408120546001600160a01b03168061058e576040517eea4de600000000000000000000000000000000000000000000000000000000815260040160405180910390fd5b600080546001600160a01b0383811673ffffffffffffffffffffffffffffffffffffffff19831681178455604051919092169283917f8be0079c531659141344cd1fd0a4f28419497f9722a3daafe3b4186f6b6457e09190a35050565b600060208284031215610aca57600080fd5b5035919050565b6001600160a01b038116811461027f57600080fd5b60008083601f840112610af857600080fd5b50813567ffffffffffffffff811115610b1057600080fd5b6020830191508360208260051b8501011115610b2b57600080fd5b9250929050565b801515811461027f57600080fd5b60008060008060608587031215610b5657600080fd5b8435610b6181610ad1565b9350602085013567ffffffffffffffff811115610b7d57600080fd5b610b8987828801610ae6565b9094509250506040850135610b9d81610b32565b939692955090935050565b60008060408385031215610bbb57600080fd5b8235610bc681610ad1565b946020939093013593505050565b600060208284031215610be657600080fd5b8135610bf181610ad1565b9392505050565b600080600060608486031215610c0d57600080fd5b505081359360208301359350604090920135919050565b60005b83811015610c3f578181015183820152602001610c27565b50506000910152565b60008151808452610c60816020860160208601610c24565b601f01601f19169290920160200192915050565b602081526000610bf16020830184610c48565b60008060408385031215610c9a57600080fd5b8235610ca581610ad1565b91506020830135610cb581610b32565b809150509250929050565b60008060008060608587031215610cd657600080fd5b8435935060208501359250604085013567ffffffffffffffff811115610cfb57600080fd5b610d0787828801610ae6565b95989497509550505050565b600060208083016020845280855180835260408601915060408160051b87010192506020870160005b82811015610d6a57603f19888603018452610d58858351610c48565b94509285019290850190600101610d3c565b5092979650505050505050565b634e487b7160e01b600052603260045260246000fd5b600060208284031215610d9f57600080fd5b5051919050565b600060208284031215610db857600080fd5b8151610bf181610b32565b634e487b7160e01b600052604160045260246000fd5b604051601f8201601f1916810167ffffffffffffffff81118282101715610e0257610e02610dc3565b604052919050565b600082601f830112610e1b57600080fd5b815167ffffffffffffffff811115610e3557610e35610dc3565b610e48601f8201601f1916602001610dd9565b818152846020838601011115610e5d57600080fd5b61062e826020830160208701610c24565b600060208284031215610e8057600080fd5b815167ffffffffffffffff811115610e9757600080fd5b61062e84828501610e0a565b60008060408385031215610eb657600080fd5b825167ffffffffffffffff811115610ecd57600080fd5b610ed985828601610e0a565b925050602083015190509250929050565b8381526040602082015281604082015260007f07ffffffffffffffffffffffffffffffffffffffffffffffffffffffffffffff831115610f2957600080fd5b8260051b8085606085013791909101606001949350505050565b60006020808385031215610f5657600080fd5b825167ffffffffffffffff80821115610f6e57600080fd5b818501915085601f830112610f8257600080fd5b815181811115610f9457610f94610dc3565b8060051b610fa3858201610dd9565b9182528381018501918581019089841115610fbd57600080fd5b86860192505b83831015610ff957825185811115610fdb5760008081fd5b610fe98b89838a0101610e0a565b8352509186019190860190610fc3565b999850505050505050505056fea2646970667358221220d3fb250713a477f0c62eaba4e71e7cb24ca24ab613925bc86bea467b22a93cfa64736f6c63430008180033",
  "linkReferences": {},
  "deployedLinkReferences": {}
}