{
  "_format": "hh-sol-artifact-1",
  "contractName": "NNSController",
  "sourceName": "contracts/NNSController.sol",
  "abi": [
    {
      "inputs": [],
      "name": "CldAlreadyExists",
      "type": "error"
    },
    {
      "inputs": [],
      "name": "ECDSAInvalidSignature",
      "type": "error"
    },
    {
      "inputs": [
        {
          "internalType": "uint256",
          "name": "length",
          "type": "uint256"
        }
      ],
      "name": "ECDSAInvalidSignatureLength",
      "type": "error"
    },
    {
      "inputs": [
        {
          "internalType": "bytes32",
          "name": "s",
          "type": "bytes32"
        }
      ],
      "name": "ECDSAInvalidSignatureS",
      "type": "error"
    },
    {
      "inputs": [
        {
          "internalType": "uint256",
          "name": "required",
          "type": "uint256"
        },
        {
          "internalType": "uint256",
          "name": "provided",
          "type": "uint256"
        }
      ],
      "name": "InsufficientTransferAmount",
      "type": "error"
    },
    {
      "inputs": [],
      "name": "InvalidCld",
      "type": "error"
    },
    {
      "inputs": [],
      "name": "InvalidInitialization",
      "type": "error"
    },
    {
      "inputs": [],
      "name": "InvalidLabel",
      "type": "error"
    },
    {
      "inputs": [],
      "name": "InvalidPricingOracle",
      "type": "error"
    },
    {
      "inputs": [],
      "name": "InvalidRegistrationMethod",
      "type": "error"
    },
    {
      "inputs": [],
      "name": "InvalidRegistrationPeriod",
      "type": "error"
    },
    {
      "inputs": [
        {
          "internalType": "uint256",
          "name": "cldId",
          "type": "uint256"
        }
      ],
      "name": "NonExpiringCld",
      "type": "error"
    },
    {
      "inputs": [],
      "name": "NotInitializing",
      "type": "error"
    },
    {
      "inputs": [
        {
          "internalType": "address",
          "name": "owner",
          "type": "address"
        }
      ],
      "name": "OwnableInvalidOwner",
      "type": "error"
    },
    {
      "inputs": [
        {
          "internalType": "address",
          "name": "account",
          "type": "address"
        }
      ],
      "name": "OwnableUnauthorizedAccount",
      "type": "error"
    },
    {
      "inputs": [
        {
          "internalType": "uint256",
          "name": "value",
          "type": "uint256"
        },
        {
          "internalType": "uint256",
          "name": "length",
          "type": "uint256"
        }
      ],
      "name": "StringsInsufficientHexLength",
      "type": "error"
    },
    {
      "inputs": [],
      "name": "UnauthorizedAccount",
      "type": "error"
    },
    {
      "anonymous": false,
      "inputs": [
        {
          "indexed": false,
          "internalType": "uint256",
          "name": "cldId",
          "type": "uint256"
        },
        {
          "indexed": false,
          "internalType": "string",
          "name": "name",
          "type": "string"
        },
        {
          "indexed": false,
          "internalType": "address",
          "name": "registry",
          "type": "address"
        },
        {
          "indexed": false,
          "internalType": "bool",
          "name": "hasExpiringNames",
          "type": "bool"
        }
      ],
      "name": "CldRegistered",
      "type": "event"
    },
    {
      "anonymous": false,
      "inputs": [
        {
          "indexed": false,
          "internalType": "uint256",
          "name": "cldId",
          "type": "uint256"
        },
        {
          "indexed": false,
          "internalType": "bool",
          "name": "required",
          "type": "bool"
        }
      ],
      "name": "CldSignatureRequiredChanged",
      "type": "event"
    },
    {
      "anonymous": false,
      "inputs": [
        {
          "indexed": false,
          "internalType": "uint64",
          "name": "version",
          "type": "uint64"
        }
      ],
      "name": "Initialized",
      "type": "event"
    },
    {
      "anonymous": false,
      "inputs": [
        {
          "indexed": true,
          "internalType": "address",
          "name": "previousOwner",
          "type": "address"
        },
        {
          "indexed": true,
          "internalType": "address",
          "name": "newOwner",
          "type": "address"
        }
      ],
      "name": "OwnershipTransferred",
      "type": "event"
    },
    {
      "anonymous": false,
      "inputs": [
        {
          "indexed": false,
          "internalType": "uint256",
          "name": "cldId",
          "type": "uint256"
        },
        {
          "indexed": false,
          "internalType": "address",
          "name": "oracle",
          "type": "address"
        }
      ],
      "name": "PricingOracleChanged",
      "type": "event"
    },
    {
      "inputs": [],
      "name": "RECORD_CRYPTO_ETH_ADDRESS",
      "outputs": [
        {
          "internalType": "uint256",
          "name": "",
          "type": "uint256"
        }
      ],
      "stateMutability": "view",
      "type": "function"
    },
    {
      "inputs": [
        {
          "internalType": "contract IRewarder",
          "name": "rewarder",
          "type": "address"
        },
        {
          "internalType": "contract IResolver",
          "name": "resolver",
          "type": "address"
        },
        {
          "internalType": "contract ICldFactory",
          "name": "cldFactory",
          "type": "address"
        },
        {
          "internalType": "address",
          "name": "signer_",
          "type": "address"
        }
      ],
      "name": "initialize",
      "outputs": [],
      "stateMutability": "nonpayable",
      "type": "function"
    },
    {
      "inputs": [
        {
          "internalType": "uint256",
          "name": "cldId",
          "type": "uint256"
        }
      ],
      "name": "isExpiringCLD",
      "outputs": [
        {
          "internalType": "bool",
          "name": "",
          "type": "bool"
        }
      ],
      "stateMutability": "view",
      "type": "function"
    },
    {
      "inputs": [
        {
          "internalType": "uint256",
          "name": "cldId",
          "type": "uint256"
        }
      ],
      "name": "isSignatureRequired",
      "outputs": [
        {
          "internalType": "bool",
          "name": "",
          "type": "bool"
        }
      ],
      "stateMutability": "view",
      "type": "function"
    },
    {
      "inputs": [],
      "name": "owner",
      "outputs": [
        {
          "internalType": "address",
          "name": "",
          "type": "address"
        }
      ],
      "stateMutability": "view",
      "type": "function"
    },
    {
      "inputs": [
        {
          "internalType": "uint256",
          "name": "cldId",
          "type": "uint256"
        }
      ],
      "name": "pricingOracleOf",
      "outputs": [
        {
          "internalType": "contract IPricingOracle",
          "name": "",
          "type": "address"
        }
      ],
      "stateMutability": "view",
      "type": "function"
    },
    {
      "inputs": [
        {
          "internalType": "address",
          "name": "to",
          "type": "address"
        },
        {
          "internalType": "string[]",
          "name": "labels",
          "type": "string[]"
        },
        {
          "internalType": "bool",
          "name": "withReverse",
          "type": "bool"
        },
        {
          "internalType": "address",
          "name": "referer",
          "type": "address"
        },
        {
          "internalType": "uint8",
          "name": "periods",
          "type": "uint8"
        }
      ],
      "name": "register",
      "outputs": [],
      "stateMutability": "payable",
      "type": "function"
    },
    {
      "inputs": [
        {
          "internalType": "string",
          "name": "name",
          "type": "string"
        },
        {
          "internalType": "uint8",
          "name": "communityShare",
          "type": "uint8"
        },
        {
          "internalType": "uint8",
          "name": "referralShare",
          "type": "uint8"
        },
        {
          "internalType": "uint8",
          "name": "ecosystemShare",
          "type": "uint8"
        },
        {
          "internalType": "contract IPricingOracle",
          "name": "pricingOracle",
          "type": "address"
        },
        {
          "internalType": "address",
          "name": "communityPayable",
          "type": "address"
        },
        {
          "internalType": "address",
          "name": "communityManager",
          "type": "address"
        },
        {
          "internalType": "bool",
          "name": "hasExpiringNames",
          "type": "bool"
        },
        {
          "internalType": "bool",
          "name": "isDefaultCldResolver",
          "type": "bool"
        }
      ],
      "name": "registerCld",
      "outputs": [],
      "stateMutability": "nonpayable",
      "type": "function"
    },
    {
      "inputs": [
        {
          "internalType": "address",
          "name": "to",
          "type": "address"
        },
        {
          "internalType": "string[]",
          "name": "labels",
          "type": "string[]"
        },
        {
          "internalType": "bool",
          "name": "withReverse",
          "type": "bool"
        },
        {
          "internalType": "address",
          "name": "referer",
          "type": "address"
        },
        {
          "internalType": "uint8",
          "name": "periods",
          "type": "uint8"
        },
        {
          "internalType": "uint256",
          "name": "price",
          "type": "uint256"
        },
        {
          "internalType": "uint256",
          "name": "nonce",
          "type": "uint256"
        },
        {
          "internalType": "uint256",
          "name": "expiry",
          "type": "uint256"
        },
        {
          "internalType": "bytes",
          "name": "signature",
          "type": "bytes"
        }
      ],
      "name": "registerWithSignature",
      "outputs": [],
      "stateMutability": "payable",
      "type": "function"
    },
    {
      "inputs": [
        {
          "internalType": "uint256",
          "name": "cldId",
          "type": "uint256"
        }
      ],
      "name": "registryOf",
      "outputs": [
        {
          "internalType": "contract IRegistry",
          "name": "",
          "type": "address"
        }
      ],
      "stateMutability": "view",
      "type": "function"
    },
    {
      "inputs": [
        {
          "internalType": "string[]",
          "name": "labels",
          "type": "string[]"
        },
        {
          "internalType": "uint8",
          "name": "periods",
          "type": "uint8"
        }
      ],
      "name": "renew",
      "outputs": [],
      "stateMutability": "payable",
      "type": "function"
    },
    {
      "inputs": [],
      "name": "renounceOwnership",
      "outputs": [],
      "stateMutability": "nonpayable",
      "type": "function"
    },
    {
      "inputs": [
        {
          "internalType": "uint256",
          "name": "cldId",
          "type": "uint256"
        },
        {
          "internalType": "bool",
          "name": "requiresSignature",
          "type": "bool"
        }
      ],
      "name": "setCldSignatureRequired",
      "outputs": [],
      "stateMutability": "nonpayable",
      "type": "function"
    },
    {
      "inputs": [
        {
          "internalType": "uint256",
          "name": "cldId",
          "type": "uint256"
        },
        {
          "internalType": "contract IPricingOracle",
          "name": "oracle",
          "type": "address"
        }
      ],
      "name": "setPricingOracle",
      "outputs": [],
      "stateMutability": "nonpayable",
      "type": "function"
    },
    {
      "inputs": [],
      "name": "signer",
      "outputs": [
        {
          "internalType": "address",
          "name": "",
          "type": "address"
        }
      ],
      "stateMutability": "view",
      "type": "function"
    },
    {
      "inputs": [
        {
          "internalType": "address",
          "name": "newOwner",
          "type": "address"
        }
      ],
      "name": "transferOwnership",
      "outputs": [],
      "stateMutability": "nonpayable",
      "type": "function"
    },
    {
      "inputs": [
        {
          "internalType": "address",
          "name": "sign",
          "type": "address"
        }
      ],
      "name": "updateSigner",
      "outputs": [],
      "stateMutability": "nonpayable",
      "type": "function"
    }
  ],
  "bytecode": "0x608060405234801561001057600080fd5b5061238a806100206000396000f3fe60806040526004361061010e5760003560e01c8063a149deac116100a5578063c681d79d11610074578063f2fde38b11610059578063f2fde38b14610330578063f8c8765e14610350578063fe7dbff61461037057600080fd5b8063c681d79d146102f0578063e033d9bb1461031057600080fd5b8063a149deac14610245578063a7ecd37e14610258578063a81ce6f914610278578063a8c86bd8146102ae57600080fd5b80633c128f6c116100e15780633c128f6c146101a35780636aacc08f146101c3578063715018a6146101f35780638da5cb5b1461020857600080fd5b80631a0cab9e14610113578063238ac933146101505780632fb9fb631461016e578063381bd40114610183575b600080fd5b34801561011f57600080fd5b5061013361012e366004611a1a565b610383565b6040516001600160a01b0390911681526020015b60405180910390f35b34801561015c57600080fd5b506003546001600160a01b0316610133565b61018161017c366004611a8e565b6103ab565b005b34801561018f57600080fd5b5061018161019e366004611afb565b6105e2565b3480156101af57600080fd5b506101816101be366004611b4b565b61064e565b3480156101cf57600080fd5b506101e36101de366004611a1a565b610730565b6040519015158152602001610147565b3480156101ff57600080fd5b50610181610752565b34801561021457600080fd5b507f9016d09d72d40fdae2fd8ceac6b6234c7706214fd39c1cd1e609a0528c199300546001600160a01b0316610133565b610181610253366004611c3d565b610766565b34801561026457600080fd5b50610181610273366004611d0e565b6108dc565b34801561028457600080fd5b50610133610293366004611a1a565b6000908152600460205260409020546001600160a01b031690565b3480156102ba57600080fd5b506102e27f391a42857851a55da4050881bd0d2e6c9978bfa7483b787e07a760028ed71a2b81565b604051908152602001610147565b3480156102fc57600080fd5b5061018161030b366004611d2b565b610906565b34801561031c57600080fd5b506101e361032b366004611a1a565b610c04565b34801561033c57600080fd5b5061018161034b366004611d0e565b610c26565b34801561035c57600080fd5b5061018161036b366004611e02565b610c7d565b61018161037e366004611e5e565b610e07565b600061038e82610e71565b50506000908152600560205260409020546001600160a01b031690565b6103b58383610ec5565b5050600061041d6000858560018181106103d1576103d1611ee8565b90506020028101906103e39190611efe565b8080601f016020809104026020016040519081016040528093929190818152602001838380828437600092019190915250610fb492505050565b60008181526006602052604090205490915060ff16610470576040517f42cad659000000000000000000000000000000000000000000000000000000008152600481018290526024015b60405180910390fd5b600061047b82610e71565b905060006104e383858888600081811061049757610497611ee8565b90506020028101906104a99190611efe565b8080601f016020809104026020016040519081016040528093929190818152602001838380828437600092019190915250610fe992505050565b9050816001600160a01b031663acf1a8418787600081811061050757610507611ee8565b90506020028101906105199190611efe565b6105238789611170565b6040518463ffffffff1660e01b815260040161054193929190611f45565b600060405180830381600087803b15801561055b57600080fd5b505af115801561056f573d6000803e3d6000fd5b505060015460405163469e080560e11b815260048101879052600060248201526001600160a01b039091169250638d3c100a915083906044016000604051808303818588803b1580156105c157600080fd5b505af11580156105d5573d6000803e3d6000fd5b5050505050505050505050565b6105ea6111ae565b6105f382610e71565b50600082815260076020908152604091829020805460ff19168415159081179091558251858152918201527ff180720f83337c340880c56f6a9fbb46eb8a31b714b00128c676a25d847fafaa91015b60405180910390a15050565b600061065983610e71565b90506001600160a01b0381166341ef73b9336040517fffffffff0000000000000000000000000000000000000000000000000000000060e084901b1681526001600160a01b039091166004820152602401602060405180830381865afa1580156106c7573d6000803e3d6000fd5b505050506040513d601f19601f820116820180604052508101906106eb9190611f7e565b610721576040517fa97ff08a00000000000000000000000000000000000000000000000000000000815260040160405180910390fd5b61072b8383611222565b505050565b600061073b82610e71565b505060009081526006602052604090205460ff1690565b61075a6111ae565b61076460006112e7565b565b6000806107738b8b610ec5565b600082815260076020526040902054919350915060ff166107a757604051631c9a177360e31b815260040160405180910390fd5b60008c83838c8c8c8c8b8d6040516020016107ca99989796959493929190611fbf565b604051602081830303815290604052805190602001209050600061082461081e837f19457468657265756d205369676e6564204d6573736167653a0a3332000000006000908152601c91909152603c902090565b86611358565b6003549091506001600160a01b038083169116146108555760405163f645eedf60e01b815260040160405180910390fd5b8542106108755760405163f645eedf60e01b815260040160405180910390fd5b60008781526008602052604090205460ff16156108a55760405163f645eedf60e01b815260040160405180910390fd5b6108b48e85858e8e8e8e611382565b5050506000938452505060086020525060409020805460ff1916600117905550505050505050565b6108e46111ae565b600380546001600160a01b0319166001600160a01b0392909216919091179055565b61090e6111ae565b6002546040517fe5854f480000000000000000000000000000000000000000000000000000000081526000916001600160a01b03169063e5854f489061095c908d903090899060040161208a565b6020604051808303816000875af115801561097b573d6000803e3d6000fd5b505050506040513d601f19601f8201168201806040525081019061099f91906120bd565b90506000816001600160a01b03166383d48e046040518163ffffffff1660e01b8152600401600060405180830381865afa1580156109e1573d6000803e3d6000fd5b505050506040513d6000823e601f3d908101601f19168201604052610a0991908101906120da565b6000818152600460205260409020549092506001600160a01b0316159050610a5d576040517f6e12e57b00000000000000000000000000000000000000000000000000000000815260040160405180910390fd5b6001546040517f0d804d400000000000000000000000000000000000000000000000000000000081526001600160a01b038481166004830152888116602483015260ff808d166044840152808e1660648401528b16608483015290911690630d804d409060a401600060405180830381600087803b158015610ade57600080fd5b505af1158015610af2573d6000803e3d6000fd5b50506000546040517fa04d51650000000000000000000000000000000000000000000000000000000081526001600160a01b0386811660048301528715156024830152909116925063a04d51659150604401600060405180830381600087803b158015610b5e57600080fd5b505af1158015610b72573d6000803e3d6000fd5b505050600082815260046020526040902080546001600160a01b0319166001600160a01b038516179055508315610bbd576000818152600660205260409020805460ff191660011790555b7f5a567326466bd36d057db73b18139b6b27662a2d8f225c0c2617be54a8f8e060818c8487604051610bf2949392919061215b565b60405180910390a16105d58188611222565b6000610c0f82610e71565b505060009081526007602052604090205460ff1690565b610c2e6111ae565b6001600160a01b038116610c71576040517f1e4fbdf700000000000000000000000000000000000000000000000000000000815260006004820152602401610467565b610c7a816112e7565b50565b7ff0c57e16840df040f15088dc2f81fe391c3923bec73e23a9662efc9c229c6a00805468010000000000000000810460ff16159067ffffffffffffffff16600081158015610cc85750825b905060008267ffffffffffffffff166001148015610ce55750303b155b905081158015610cf3575080155b15610d2a576040517ff92ee8a900000000000000000000000000000000000000000000000000000000815260040160405180910390fd5b845467ffffffffffffffff191660011785558315610d5e57845468ff00000000000000001916680100000000000000001785555b610d6733611540565b600180546001600160a01b03808c166001600160a01b031992831617909255600080548b8416908316179055600280548a841690831617905560038054928916929091169190911790558315610dfc57845468ff000000000000000019168555604051600181527fc7f505b2f371ae2175ee4913f4499e1f2633a7b5936321eed1cdaeb6115181d29060200160405180910390a15b505050505050505050565b600080610e148787610ec5565b600082815260076020526040902054919350915060ff1615610e4957604051631c9a177360e31b815260040160405180910390fd5b610e5282610e71565b506000610e60838584610fe9565b9050610dfc89848489898987611382565b6000818152600460205260408120546001600160a01b031680610ebf576040517eea4de600000000000000000000000000000000000000000000000000000000815260040160405180910390fd5b92915050565b6000606060028314610eea57604051633d36cb8d60e01b815260040160405180910390fd5b83836000818110610efd57610efd611ee8565b9050602002810190610f0f9190611efe565b9050600003610f3157604051633d36cb8d60e01b815260040160405180910390fd5b610f496000858560018181106103d1576103d1611ee8565b84846000818110610f5c57610f5c611ee8565b9050602002810190610f6e9190611efe565b81818080601f01602080910402602001604051908101604052809392919081815260200183838082843760009201919091525095975091955050505050505b9250929050565b60008151600003610fd857604051633d36cb8d60e01b815260040160405180910390fd5b610fe28284611551565b9392505050565b6000838152600560205260408082205490517ffe2c619800000000000000000000000000000000000000000000000000000000815282916001600160a01b03169063fe2c61989061103e908690600401612195565b602060405180830381865afa15801561105b573d6000803e3d6000fd5b505050506040513d601f19601f8201168201806040525081019061107f91906121a8565b60008681526006602052604090205490915060ff16156110e65760008460ff16116110d6576040517fddceada600000000000000000000000000000000000000000000000000000000815260040160405180910390fd5b6110e360ff8516826121d7565b90505b80341015611129576040517f5338e50600000000000000000000000000000000000000000000000000000000815260048101829052346024820152604401610467565b80341061116857336108fc61113e83346121ee565b6040518115909202916000818181858888f19350505050158015611166573d6000803e3d6000fd5b505b949350505050565b60008281526006602052604081205460ff16156111a55761119860ff83166301e13380612201565b63ffffffff169050610ebf565b50600092915050565b336111e07f9016d09d72d40fdae2fd8ceac6b6234c7706214fd39c1cd1e609a0528c199300546001600160a01b031690565b6001600160a01b031614610764576040517f118cdaa7000000000000000000000000000000000000000000000000000000008152336004820152602401610467565b6001600160a01b038116611262576040517f2715c31600000000000000000000000000000000000000000000000000000000815260040160405180910390fd5b6000828152600560205260409020546001600160a01b0390811690821603611288575050565b60008281526005602090815260409182902080546001600160a01b0319166001600160a01b0385169081179091558251858152918201527f9c672d5bb2cafcb190c384545530db3acea27bf7a8a9184d2afc7b7b1339afd79101610642565b7f9016d09d72d40fdae2fd8ceac6b6234c7706214fd39c1cd1e609a0528c19930080546001600160a01b031981166001600160a01b03848116918217845560405192169182907f8be0079c531659141344cd1fd0a4f28419497f9722a3daafe3b4186f6b6457e090600090a3505050565b60008060008061136886866115b4565b9250925092506113788282611601565b5090949350505050565b600061138d87610e71565b604080516001808252818301909252919250600091906020808301908036833750506040805160018082528183019092529293506000929150602082015b60608152602001906001900390816113cb5790505090507f391a42857851a55da4050881bd0d2e6c9978bfa7483b787e07a760028ed71a2b8260008151811061141657611416611ee8565b60200260200101818152505061142b8a6116f0565b8160008151811061143e5761143e611ee8565b6020026020010181905250826001600160a01b03166350cf25ef8b8a85856114668f8c611170565b8d6040518763ffffffff1660e01b815260040161148896959493929190612229565b6020604051808303816000875af11580156114a7573d6000803e3d6000fd5b505050506040513d601f19601f820116820180604052508101906114cb91906121a8565b5060015460405163469e080560e11b8152600481018b90526001600160a01b03888116602483015290911690638d3c100a9086906044016000604051808303818588803b15801561151b57600080fd5b505af115801561152f573d6000803e3d6000fd5b505050505050505050505050505050565b611548611706565b610c7a8161176d565b6000818360405160200161156591906122f8565b60405160208183030381529060405280519060200120604051602001611595929190918252602082015260400190565b60408051601f1981840301815291905280516020909101209392505050565b600080600083516041036115ee5760208401516040850151606086015160001a6115e088828585611775565b9550955095505050506115fa565b50508151600091506002905b9250925092565b600082600381111561161557611615612314565b0361161e575050565b600182600381111561163257611632612314565b036116505760405163f645eedf60e01b815260040160405180910390fd5b600282600381111561166457611664612314565b0361169e576040517ffce698f700000000000000000000000000000000000000000000000000000000815260048101829052602401610467565b60038260038111156116b2576116b2612314565b036116ec576040517fd78bce0c00000000000000000000000000000000000000000000000000000000815260048101829052602401610467565b5050565b6060610ebf6001600160a01b0383166014611844565b7ff0c57e16840df040f15088dc2f81fe391c3923bec73e23a9662efc9c229c6a005468010000000000000000900460ff16610764576040517fd7e6bcf800000000000000000000000000000000000000000000000000000000815260040160405180910390fd5b610c2e611706565b600080807f7fffffffffffffffffffffffffffffff5d576e7357a4501ddfe92f46681b20a08411156117b0575060009150600390508261183a565b604080516000808252602082018084528a905260ff891692820192909252606081018790526080810186905260019060a0016020604051602081039080840390855afa158015611804573d6000803e3d6000fd5b5050604051601f1901519150506001600160a01b0381166118305750600092506001915082905061183a565b9250600091508190505b9450945094915050565b60608260006118548460026121d7565b61185f90600261232a565b67ffffffffffffffff81111561187757611877611b70565b6040519080825280601f01601f1916602001820160405280156118a1576020820181803683370190505b5090507f3000000000000000000000000000000000000000000000000000000000000000816000815181106118d8576118d8611ee8565b60200101906001600160f81b031916908160001a9053507f78000000000000000000000000000000000000000000000000000000000000008160018151811061192357611923611ee8565b60200101906001600160f81b031916908160001a90535060006119478560026121d7565b61195290600161232a565b90505b60018111156119d7577f303132333435363738396162636465660000000000000000000000000000000083600f166010811061199357611993611ee8565b1a60f81b8282815181106119a9576119a9611ee8565b60200101906001600160f81b031916908160001a90535060049290921c916119d08161233d565b9050611955565b508115611168576040517fe22e27eb0000000000000000000000000000000000000000000000000000000081526004810186905260248101859052604401610467565b600060208284031215611a2c57600080fd5b5035919050565b60008083601f840112611a4557600080fd5b50813567ffffffffffffffff811115611a5d57600080fd5b6020830191508360208260051b8501011115610fad57600080fd5b803560ff81168114611a8957600080fd5b919050565b600080600060408486031215611aa357600080fd5b833567ffffffffffffffff811115611aba57600080fd5b611ac686828701611a33565b9094509250611ad9905060208501611a78565b90509250925092565b8015158114610c7a57600080fd5b8035611a8981611ae2565b60008060408385031215611b0e57600080fd5b823591506020830135611b2081611ae2565b809150509250929050565b6001600160a01b0381168114610c7a57600080fd5b8035611a8981611b2b565b60008060408385031215611b5e57600080fd5b823591506020830135611b2081611b2b565b634e487b7160e01b600052604160045260246000fd5b604051601f8201601f1916810167ffffffffffffffff81118282101715611baf57611baf611b70565b604052919050565b600067ffffffffffffffff821115611bd157611bd1611b70565b50601f01601f191660200190565b6000611bf2611bed84611bb7565b611b86565b9050828152838383011115611c0657600080fd5b828260208301376000602084830101529392505050565b600082601f830112611c2e57600080fd5b610fe283833560208501611bdf565b6000806000806000806000806000806101208b8d031215611c5d57600080fd5b8a35611c6881611b2b565b995060208b013567ffffffffffffffff80821115611c8557600080fd5b611c918e838f01611a33565b909b50995060408d01359150611ca682611ae2565b819850611cb560608e01611b40565b9750611cc360808e01611a78565b965060a08d0135955060c08d0135945060e08d013593506101008d0135915080821115611cef57600080fd5b50611cfc8d828e01611c1d565b9150509295989b9194979a5092959850565b600060208284031215611d2057600080fd5b8135610fe281611b2b565b60008060008060008060008060006101208a8c031215611d4a57600080fd5b893567ffffffffffffffff811115611d6157600080fd5b8a01601f81018c13611d7257600080fd5b611d818c823560208401611bdf565b995050611d9060208b01611a78565b9750611d9e60408b01611a78565b9650611dac60608b01611a78565b9550611dba60808b01611b40565b9450611dc860a08b01611b40565b9350611dd660c08b01611b40565b9250611de460e08b01611af0565b9150611df36101008b01611af0565b90509295985092959850929598565b60008060008060808587031215611e1857600080fd5b8435611e2381611b2b565b93506020850135611e3381611b2b565b92506040850135611e4381611b2b565b91506060850135611e5381611b2b565b939692955090935050565b60008060008060008060a08789031215611e7757600080fd5b8635611e8281611b2b565b9550602087013567ffffffffffffffff811115611e9e57600080fd5b611eaa89828a01611a33565b9096509450506040870135611ebe81611ae2565b92506060870135611ece81611b2b565b9150611edc60808801611a78565b90509295509295509295565b634e487b7160e01b600052603260045260246000fd5b6000808335601e19843603018112611f1557600080fd5b83018035915067ffffffffffffffff821115611f3057600080fd5b602001915036819003821315610fad57600080fd5b604081528260408201528284606083013760006060848301015260006060601f19601f8601168301019050826020830152949350505050565b600060208284031215611f9057600080fd5b8151610fe281611ae2565b60005b83811015611fb6578181015183820152602001611f9e565b50506000910152565b60006bffffffffffffffffffffffff19808c60601b1683528a60148401528951611ff0816034860160208e01611f9b565b808401905089151560f81b6034820152818960601b1660358201527fff000000000000000000000000000000000000000000000000000000000000008860f81b16604982015286604a82015285606a82015284608a82015260aa8101925050509a9950505050505050505050565b60008151808452612076816020860160208601611f9b565b601f01601f19169290920160200192915050565b60608152600061209d606083018661205e565b6001600160a01b0394851660208401529290931660409091015292915050565b6000602082840312156120cf57600080fd5b8151610fe281611b2b565b600080604083850312156120ed57600080fd5b825167ffffffffffffffff81111561210457600080fd5b8301601f8101851361211557600080fd5b8051612123611bed82611bb7565b81815286602083850101111561213857600080fd5b612149826020830160208601611f9b565b60209590950151949694955050505050565b848152608060208201526000612174608083018661205e565b6001600160a01b039490941660408301525090151560609091015292915050565b602081526000610fe2602083018461205e565b6000602082840312156121ba57600080fd5b5051919050565b634e487b7160e01b600052601160045260246000fd5b8082028115828204841417610ebf57610ebf6121c1565b81810381811115610ebf57610ebf6121c1565b63ffffffff818116838216028082169190828114612221576122216121c1565b505092915050565b6001600160a01b03871681526000602060c08184015261224c60c084018961205e565b838103604085015287518082528289019183019060005b8181101561227f57835183529284019291840191600101612263565b5050848103606086015287518082528382019250600581901b82018401848a0160005b838110156122d057601f198584030186526122be83835161205e565b958701959250908601906001016122a2565b50506080870189905287151560a088015294506122ed9350505050565b979650505050505050565b6000825161230a818460208701611f9b565b9190910192915050565b634e487b7160e01b600052602160045260246000fd5b80820180821115610ebf57610ebf6121c1565b60008161234c5761234c6121c1565b50600019019056fea2646970667358221220aa63f34b664c1734fd6f27b18ea0c34a277b27addb2946148521262cccc25f2464736f6c63430008180033",
  "linkReferences": {},
  "deployedLinkReferences": {}
}