{
  "_format": "hh-sol-artifact-1",
  "contractName": "NNSController",
  "sourceName": "contracts/NNSController.sol",
  "abi": [
    {
      "inputs": [
        {
          "internalType": "contract IRewarder",
          "name": "rewarder",
          "type": "address"
        },
        {
          "internalType": "contract IResolver",
          "name": "resolver",
          "type": "address"
        },
        {
          "internalType": "contract ICldFactory",
          "name": "cldFactory",
          "type": "address"
        }
      ],
      "stateMutability": "nonpayable",
      "type": "constructor"
    },
    {
      "inputs": [],
      "name": "CldAlreadyExists",
      "type": "error"
    },
    {
      "inputs": [
        {
          "internalType": "uint256",
          "name": "required",
          "type": "uint256"
        },
        {
          "internalType": "uint256",
          "name": "provided",
          "type": "uint256"
        }
      ],
      "name": "InsufficientTransferAmount",
      "type": "error"
    },
    {
      "inputs": [],
      "name": "InvalidCld",
      "type": "error"
    },
    {
      "inputs": [],
      "name": "InvalidLabel",
      "type": "error"
    },
    {
      "inputs": [],
      "name": "InvalidPricingOracle",
      "type": "error"
    },
    {
      "inputs": [],
      "name": "InvalidRegistrationPeriod",
      "type": "error"
    },
    {
      "inputs": [
        {
          "internalType": "address",
          "name": "owner",
          "type": "address"
        }
      ],
      "name": "OwnableInvalidOwner",
      "type": "error"
    },
    {
      "inputs": [
        {
          "internalType": "address",
          "name": "account",
          "type": "address"
        }
      ],
      "name": "OwnableUnauthorizedAccount",
      "type": "error"
    },
    {
      "inputs": [
        {
          "internalType": "uint256",
          "name": "value",
          "type": "uint256"
        },
        {
          "internalType": "uint256",
          "name": "length",
          "type": "uint256"
        }
      ],
      "name": "StringsInsufficientHexLength",
      "type": "error"
    },
    {
      "inputs": [],
      "name": "UnauthorizedAccount",
      "type": "error"
    },
    {
      "anonymous": false,
      "inputs": [
        {
          "indexed": false,
          "internalType": "uint256",
          "name": "cldId",
          "type": "uint256"
        },
        {
          "indexed": false,
          "internalType": "string",
          "name": "name",
          "type": "string"
        },
        {
          "indexed": false,
          "internalType": "address",
          "name": "registry",
          "type": "address"
        },
        {
          "indexed": false,
          "internalType": "bool",
          "name": "hasExpiringNames",
          "type": "bool"
        }
      ],
      "name": "CldRegistered",
      "type": "event"
    },
    {
      "anonymous": false,
      "inputs": [
        {
          "indexed": true,
          "internalType": "address",
          "name": "previousOwner",
          "type": "address"
        },
        {
          "indexed": true,
          "internalType": "address",
          "name": "newOwner",
          "type": "address"
        }
      ],
      "name": "OwnershipTransferred",
      "type": "event"
    },
    {
      "anonymous": false,
      "inputs": [
        {
          "indexed": false,
          "internalType": "uint256",
          "name": "cldId",
          "type": "uint256"
        },
        {
          "indexed": false,
          "internalType": "address",
          "name": "oracle",
          "type": "address"
        }
      ],
      "name": "PricingOracleChanged",
      "type": "event"
    },
    {
      "inputs": [],
      "name": "RECORD_CRYPTO_ETH_ADDRESS",
      "outputs": [
        {
          "internalType": "uint256",
          "name": "",
          "type": "uint256"
        }
      ],
      "stateMutability": "view",
      "type": "function"
    },
    {
      "inputs": [
        {
          "internalType": "uint256",
          "name": "cldId",
          "type": "uint256"
        }
      ],
      "name": "isExpiringCLD",
      "outputs": [
        {
          "internalType": "bool",
          "name": "",
          "type": "bool"
        }
      ],
      "stateMutability": "view",
      "type": "function"
    },
    {
      "inputs": [],
      "name": "owner",
      "outputs": [
        {
          "internalType": "address",
          "name": "",
          "type": "address"
        }
      ],
      "stateMutability": "view",
      "type": "function"
    },
    {
      "inputs": [
        {
          "internalType": "uint256",
          "name": "cldId",
          "type": "uint256"
        }
      ],
      "name": "pricingOracleOf",
      "outputs": [
        {
          "internalType": "contract IPricingOracle",
          "name": "",
          "type": "address"
        }
      ],
      "stateMutability": "view",
      "type": "function"
    },
    {
      "inputs": [
        {
          "internalType": "address",
          "name": "to",
          "type": "address"
        },
        {
          "internalType": "string[]",
          "name": "labels",
          "type": "string[]"
        },
        {
          "internalType": "bool",
          "name": "withReverse",
          "type": "bool"
        },
        {
          "internalType": "address",
          "name": "referer",
          "type": "address"
        },
        {
          "internalType": "uint8",
          "name": "periods",
          "type": "uint8"
        }
      ],
      "name": "register",
      "outputs": [],
      "stateMutability": "payable",
      "type": "function"
    },
    {
      "inputs": [
        {
          "internalType": "string",
          "name": "name",
          "type": "string"
        },
        {
          "internalType": "uint8",
          "name": "communityReward",
          "type": "uint8"
        },
        {
          "internalType": "uint8",
          "name": "referralReward",
          "type": "uint8"
        },
        {
          "internalType": "contract IPricingOracle",
          "name": "pricingOracle",
          "type": "address"
        },
        {
          "internalType": "address",
          "name": "communityPayable",
          "type": "address"
        },
        {
          "internalType": "address",
          "name": "communityManager",
          "type": "address"
        },
        {
          "internalType": "bool",
          "name": "hasExpiringNames",
          "type": "bool"
        },
        {
          "internalType": "bool",
          "name": "isDefaultCldResolver",
          "type": "bool"
        },
        {
          "internalType": "bool",
          "name": "isSplitShareCld",
          "type": "bool"
        }
      ],
      "name": "registerCld",
      "outputs": [],
      "stateMutability": "nonpayable",
      "type": "function"
    },
    {
      "inputs": [
        {
          "internalType": "uint256",
          "name": "cldId",
          "type": "uint256"
        }
      ],
      "name": "registryOf",
      "outputs": [
        {
          "internalType": "contract IRegistry",
          "name": "",
          "type": "address"
        }
      ],
      "stateMutability": "view",
      "type": "function"
    },
    {
      "inputs": [],
      "name": "renounceOwnership",
      "outputs": [],
      "stateMutability": "nonpayable",
      "type": "function"
    },
    {
      "inputs": [
        {
          "internalType": "uint256",
          "name": "cldId",
          "type": "uint256"
        },
        {
          "internalType": "contract IPricingOracle",
          "name": "oracle",
          "type": "address"
        }
      ],
      "name": "setPricingOracle",
      "outputs": [],
      "stateMutability": "nonpayable",
      "type": "function"
    },
    {
      "inputs": [
        {
          "internalType": "address",
          "name": "newOwner",
          "type": "address"
        }
      ],
      "name": "transferOwnership",
      "outputs": [],
      "stateMutability": "nonpayable",
      "type": "function"
    }
  ],
  "bytecode": "0x60806040523480156200001157600080fd5b506040516200282438038062002824833981810160405281019062000037919062000357565b33600073ffffffffffffffffffffffffffffffffffffffff168173ffffffffffffffffffffffffffffffffffffffff1603620000ad5760006040517f1e4fbdf7000000000000000000000000000000000000000000000000000000008152600401620000a49190620003c4565b60405180910390fd5b620000be816200018b60201b60201c565b5082600260006101000a81548173ffffffffffffffffffffffffffffffffffffffff021916908373ffffffffffffffffffffffffffffffffffffffff16021790555081600160006101000a81548173ffffffffffffffffffffffffffffffffffffffff021916908373ffffffffffffffffffffffffffffffffffffffff16021790555080600360006101000a81548173ffffffffffffffffffffffffffffffffffffffff021916908373ffffffffffffffffffffffffffffffffffffffff160217905550505050620003e1565b60008060009054906101000a900473ffffffffffffffffffffffffffffffffffffffff169050816000806101000a81548173ffffffffffffffffffffffffffffffffffffffff021916908373ffffffffffffffffffffffffffffffffffffffff1602179055508173ffffffffffffffffffffffffffffffffffffffff168173ffffffffffffffffffffffffffffffffffffffff167f8be0079c531659141344cd1fd0a4f28419497f9722a3daafe3b4186f6b6457e060405160405180910390a35050565b600080fd5b600073ffffffffffffffffffffffffffffffffffffffff82169050919050565b6000620002818262000254565b9050919050565b6000620002958262000274565b9050919050565b620002a78162000288565b8114620002b357600080fd5b50565b600081519050620002c7816200029c565b92915050565b6000620002da8262000274565b9050919050565b620002ec81620002cd565b8114620002f857600080fd5b50565b6000815190506200030c81620002e1565b92915050565b60006200031f8262000274565b9050919050565b620003318162000312565b81146200033d57600080fd5b50565b600081519050620003518162000326565b92915050565b6000806000606084860312156200037357620003726200024f565b5b60006200038386828701620002b6565b93505060206200039686828701620002fb565b9250506040620003a98682870162000340565b9150509250925092565b620003be8162000274565b82525050565b6000602082019050620003db6000830184620003b3565b92915050565b61243380620003f16000396000f3fe6080604052600436106100915760003560e01c8063a81ce6f911610059578063a81ce6f91461017b578063a8c86bd8146101b8578063e22dfa5e146101e3578063f2fde38b1461020c578063fe7dbff61461023557610091565b80631a0cab9e146100965780633c128f6c146100d35780636aacc08f146100fc578063715018a6146101395780638da5cb5b14610150575b600080fd5b3480156100a257600080fd5b506100bd60048036038101906100b8919061150d565b610251565b6040516100ca91906115b9565b60405180910390f35b3480156100df57600080fd5b506100fa60048036038101906100f59190611624565b610298565b005b34801561010857600080fd5b50610123600480360381019061011e919061150d565b610364565b604051610130919061167f565b60405180910390f35b34801561014557600080fd5b5061014e610398565b005b34801561015c57600080fd5b506101656103ac565b60405161017291906116a9565b60405180910390f35b34801561018757600080fd5b506101a2600480360381019061019d919061150d565b6103d5565b6040516101af91906116e5565b60405180910390f35b3480156101c457600080fd5b506101cd610412565b6040516101da919061170f565b60405180910390f35b3480156101ef57600080fd5b5061020a60048036038101906102059190611901565b610436565b005b34801561021857600080fd5b50610233600480360381019061022e91906119e7565b6107f3565b005b61024f600480360381019061024a9190611a74565b610879565b005b600061025c82610b98565b506005600083815260200190815260200160002060009054906101000a900473ffffffffffffffffffffffffffffffffffffffff169050919050565b60006102a383610b98565b90508073ffffffffffffffffffffffffffffffffffffffff166341ef73b9336040518263ffffffff1660e01b81526004016102de91906116a9565b602060405180830381865afa1580156102fb573d6000803e3d6000fd5b505050506040513d601f19601f8201168201806040525081019061031f9190611b23565b610355576040517fa97ff08a00000000000000000000000000000000000000000000000000000000815260040160405180910390fd5b61035f8383610c3f565b505050565b600061036f82610b98565b506006600083815260200190815260200160002060009054906101000a900460ff169050919050565b6103a0610d9c565b6103aa6000610e23565b565b60008060009054906101000a900473ffffffffffffffffffffffffffffffffffffffff16905090565b60006004600083815260200190815260200160002060009054906101000a900473ffffffffffffffffffffffffffffffffffffffff169050919050565b7f391a42857851a55da4050881bd0d2e6c9978bfa7483b787e07a760028ed71a2b81565b61043e610d9c565b6000600360009054906101000a900473ffffffffffffffffffffffffffffffffffffffff1673ffffffffffffffffffffffffffffffffffffffff1663e5854f488b30886040518463ffffffff1660e01b815260040161049f93929190611bcf565b6020604051808303816000875af11580156104be573d6000803e3d6000fd5b505050506040513d601f19601f820116820180604052508101906104e29190611c4b565b905060008173ffffffffffffffffffffffffffffffffffffffff166383d48e046040518163ffffffff1660e01b8152600401600060405180830381865afa158015610531573d6000803e3d6000fd5b505050506040513d6000823e3d601f19601f8201168201806040525081019061055a9190611cfd565b915050600073ffffffffffffffffffffffffffffffffffffffff166004600083815260200190815260200160002060009054906101000a900473ffffffffffffffffffffffffffffffffffffffff1673ffffffffffffffffffffffffffffffffffffffff16146105f6576040517f6e12e57b00000000000000000000000000000000000000000000000000000000815260040160405180910390fd5b600260009054906101000a900473ffffffffffffffffffffffffffffffffffffffff1673ffffffffffffffffffffffffffffffffffffffff1663ada7f1e683898c8e886040518663ffffffff1660e01b8152600401610659959493929190611d68565b600060405180830381600087803b15801561067357600080fd5b505af1158015610687573d6000803e3d6000fd5b50505050600160009054906101000a900473ffffffffffffffffffffffffffffffffffffffff1673ffffffffffffffffffffffffffffffffffffffff1663a04d516583866040518363ffffffff1660e01b81526004016106e8929190611dbb565b600060405180830381600087803b15801561070257600080fd5b505af1158015610716573d6000803e3d6000fd5b50505050816004600083815260200190815260200160002060006101000a81548173ffffffffffffffffffffffffffffffffffffffff021916908373ffffffffffffffffffffffffffffffffffffffff160217905550841561079f5760016006600083815260200190815260200160002060006101000a81548160ff0219169083151502179055505b7f5a567326466bd36d057db73b18139b6b27662a2d8f225c0c2617be54a8f8e060818c84886040516107d49493929190611de4565b60405180910390a16107e68189610c3f565b5050505050505050505050565b6107fb610d9c565b600073ffffffffffffffffffffffffffffffffffffffff168173ffffffffffffffffffffffffffffffffffffffff160361086d5760006040517f1e4fbdf700000000000000000000000000000000000000000000000000000000815260040161086491906116a9565b60405180910390fd5b61087681610e23565b50565b6108838585610ee7565b60006108f860008787600181811061089e5761089d611e30565b5b90506020028101906108b09190611e6e565b8080601f016020809104026020016040519081016040528093929190818152602001838380828437600081840152601f19601f82011690508083019250505050505050610f89565b9050600061090582610b98565b9050600061093983858a8a600081811061092257610921611e30565b5b90506020028101906109349190611e6e565b61101f565b90506000600167ffffffffffffffff81111561095857610957611745565b5b6040519080825280602002602001820160405280156109865781602001602082028036833780820191505090505b5090506000600167ffffffffffffffff8111156109a6576109a5611745565b5b6040519080825280602002602001820160405280156109d957816020015b60608152602001906001900390816109c45790505b5090507f391a42857851a55da4050881bd0d2e6c9978bfa7483b787e07a760028ed71a2b82600081518110610a1157610a10611e30565b5b602002602001018181525050610a268b6111f5565b81600081518110610a3a57610a39611e30565b5b60200260200101819052508373ffffffffffffffffffffffffffffffffffffffff166350cf25ef8c8c8c6000818110610a7657610a75611e30565b5b9050602002810190610a889190611e6e565b8686610a948c8e611222565b8f6040518863ffffffff1660e01b8152600401610ab797969594939291906120c8565b6020604051808303816000875af1158015610ad6573d6000803e3d6000fd5b505050506040513d601f19601f82011682018060405250810190610afa9190612140565b50600260009054906101000a900473ffffffffffffffffffffffffffffffffffffffff1673ffffffffffffffffffffffffffffffffffffffff16638d3c100a84878a6040518463ffffffff1660e01b8152600401610b5992919061216d565b6000604051808303818588803b158015610b7257600080fd5b505af1158015610b86573d6000803e3d6000fd5b50505050505050505050505050505050565b6000806004600084815260200190815260200160002060009054906101000a900473ffffffffffffffffffffffffffffffffffffffff169050600073ffffffffffffffffffffffffffffffffffffffff168173ffffffffffffffffffffffffffffffffffffffff1603610c36576040517eea4de600000000000000000000000000000000000000000000000000000000815260040160405180910390fd5b80915050919050565b600073ffffffffffffffffffffffffffffffffffffffff168173ffffffffffffffffffffffffffffffffffffffff1603610ca5576040517f2715c31600000000000000000000000000000000000000000000000000000000815260040160405180910390fd5b6005600083815260200190815260200160002060009054906101000a900473ffffffffffffffffffffffffffffffffffffffff1673ffffffffffffffffffffffffffffffffffffffff168173ffffffffffffffffffffffffffffffffffffffff160315610d9857806005600084815260200190815260200160002060006101000a81548173ffffffffffffffffffffffffffffffffffffffff021916908373ffffffffffffffffffffffffffffffffffffffff1602179055507f9c672d5bb2cafcb190c384545530db3acea27bf7a8a9184d2afc7b7b1339afd78282604051610d8f92919061216d565b60405180910390a15b5050565b610da4611275565b73ffffffffffffffffffffffffffffffffffffffff16610dc26103ac565b73ffffffffffffffffffffffffffffffffffffffff1614610e2157610de5611275565b6040517f118cdaa7000000000000000000000000000000000000000000000000000000008152600401610e1891906116a9565b60405180910390fd5b565b60008060009054906101000a900473ffffffffffffffffffffffffffffffffffffffff169050816000806101000a81548173ffffffffffffffffffffffffffffffffffffffff021916908373ffffffffffffffffffffffffffffffffffffffff1602179055508173ffffffffffffffffffffffffffffffffffffffff168173ffffffffffffffffffffffffffffffffffffffff167f8be0079c531659141344cd1fd0a4f28419497f9722a3daafe3b4186f6b6457e060405160405180910390a35050565b60028282905014610f24576040517f3d36cb8d00000000000000000000000000000000000000000000000000000000815260040160405180910390fd5b600082826000818110610f3a57610f39611e30565b5b9050602002810190610f4c9190611e6e565b905003610f85576040517f3d36cb8d00000000000000000000000000000000000000000000000000000000815260040160405180910390fd5b5050565b600080825103610fc5576040517f3d36cb8d00000000000000000000000000000000000000000000000000000000815260040160405180910390fd5b8282604051602001610fd791906121d2565b60405160208183030381529060405280519060200120604051602001610ffe929190612235565b6040516020818303038152906040528051906020012060001c905092915050565b6000806005600087815260200190815260200160002060009054906101000a900473ffffffffffffffffffffffffffffffffffffffff1673ffffffffffffffffffffffffffffffffffffffff1663fe2c619885856040518363ffffffff1660e01b8152600401611090929190612261565b602060405180830381865afa1580156110ad573d6000803e3d6000fd5b505050506040513d601f19601f820116820180604052508101906110d19190612140565b90506006600087815260200190815260200160002060009054906101000a900460ff16156111485760008560ff1611611136576040517fddceada600000000000000000000000000000000000000000000000000000000815260040160405180910390fd5b8460ff168161114591906122b4565b90505b8034101561118f5780346040517f5338e5060000000000000000000000000000000000000000000000000000000081526004016111869291906122f6565b60405180910390fd5b8034106111e9573373ffffffffffffffffffffffffffffffffffffffff166108fc82346111bc919061231f565b9081150290604051600060405180830381858888f193505050501580156111e7573d6000803e3d6000fd5b505b80915050949350505050565b606061121b8273ffffffffffffffffffffffffffffffffffffffff16601460ff1661127d565b9050919050565b60006006600084815260200190815260200160002060009054906101000a900460ff161561126a578160ff166301e1338061125d9190612363565b63ffffffff16905061126f565b600090505b92915050565b600033905090565b606060008390506000600284600261129591906122b4565b61129f91906123a0565b67ffffffffffffffff8111156112b8576112b7611745565b5b6040519080825280601f01601f1916602001820160405280156112ea5781602001600182028036833780820191505090505b5090507f30000000000000000000000000000000000000000000000000000000000000008160008151811061132257611321611e30565b5b60200101907effffffffffffffffffffffffffffffffffffffffffffffffffffffffffffff1916908160001a9053507f78000000000000000000000000000000000000000000000000000000000000008160018151811061138657611385611e30565b5b60200101907effffffffffffffffffffffffffffffffffffffffffffffffffffffffffffff1916908160001a905350600060018560026113c691906122b4565b6113d091906123a0565b90505b6001811115611470577f3031323334353637383961626364656600000000000000000000000000000000600f84166010811061141257611411611e30565b5b1a60f81b82828151811061142957611428611e30565b5b60200101907effffffffffffffffffffffffffffffffffffffffffffffffffffffffffffff1916908160001a905350600483901c925080611469906123d4565b90506113d3565b50600082146114b85784846040517fe22e27eb0000000000000000000000000000000000000000000000000000000081526004016114af9291906122f6565b60405180910390fd5b809250505092915050565b6000604051905090565b600080fd5b600080fd5b6000819050919050565b6114ea816114d7565b81146114f557600080fd5b50565b600081359050611507816114e1565b92915050565b600060208284031215611523576115226114cd565b5b6000611531848285016114f8565b91505092915050565b600073ffffffffffffffffffffffffffffffffffffffff82169050919050565b6000819050919050565b600061157f61157a6115758461153a565b61155a565b61153a565b9050919050565b600061159182611564565b9050919050565b60006115a382611586565b9050919050565b6115b381611598565b82525050565b60006020820190506115ce60008301846115aa565b92915050565b60006115df8261153a565b9050919050565b60006115f1826115d4565b9050919050565b611601816115e6565b811461160c57600080fd5b50565b60008135905061161e816115f8565b92915050565b6000806040838503121561163b5761163a6114cd565b5b6000611649858286016114f8565b925050602061165a8582860161160f565b9150509250929050565b60008115159050919050565b61167981611664565b82525050565b60006020820190506116946000830184611670565b92915050565b6116a3816115d4565b82525050565b60006020820190506116be600083018461169a565b92915050565b60006116cf82611586565b9050919050565b6116df816116c4565b82525050565b60006020820190506116fa60008301846116d6565b92915050565b611709816114d7565b82525050565b60006020820190506117246000830184611700565b92915050565b600080fd5b600080fd5b6000601f19601f8301169050919050565b7f4e487b7100000000000000000000000000000000000000000000000000000000600052604160045260246000fd5b61177d82611734565b810181811067ffffffffffffffff8211171561179c5761179b611745565b5b80604052505050565b60006117af6114c3565b90506117bb8282611774565b919050565b600067ffffffffffffffff8211156117db576117da611745565b5b6117e482611734565b9050602081019050919050565b82818337600083830152505050565b600061181361180e846117c0565b6117a5565b90508281526020810184848401111561182f5761182e61172f565b5b61183a8482856117f1565b509392505050565b600082601f8301126118575761185661172a565b5b8135611867848260208601611800565b91505092915050565b600060ff82169050919050565b61188681611870565b811461189157600080fd5b50565b6000813590506118a38161187d565b92915050565b6118b2816115d4565b81146118bd57600080fd5b50565b6000813590506118cf816118a9565b92915050565b6118de81611664565b81146118e957600080fd5b50565b6000813590506118fb816118d5565b92915050565b60008060008060008060008060006101208a8c031215611924576119236114cd565b5b60008a013567ffffffffffffffff811115611942576119416114d2565b5b61194e8c828d01611842565b995050602061195f8c828d01611894565b98505060406119708c828d01611894565b97505060606119818c828d0161160f565b96505060806119928c828d016118c0565b95505060a06119a38c828d016118c0565b94505060c06119b48c828d016118ec565b93505060e06119c58c828d016118ec565b9250506101006119d78c828d016118ec565b9150509295985092959850929598565b6000602082840312156119fd576119fc6114cd565b5b6000611a0b848285016118c0565b91505092915050565b600080fd5b600080fd5b60008083601f840112611a3457611a3361172a565b5b8235905067ffffffffffffffff811115611a5157611a50611a14565b5b602083019150836020820283011115611a6d57611a6c611a19565b5b9250929050565b60008060008060008060a08789031215611a9157611a906114cd565b5b6000611a9f89828a016118c0565b965050602087013567ffffffffffffffff811115611ac057611abf6114d2565b5b611acc89828a01611a1e565b95509550506040611adf89828a016118ec565b9350506060611af089828a016118c0565b9250506080611b0189828a01611894565b9150509295509295509295565b600081519050611b1d816118d5565b92915050565b600060208284031215611b3957611b386114cd565b5b6000611b4784828501611b0e565b91505092915050565b600081519050919050565b600082825260208201905092915050565b60005b83811015611b8a578082015181840152602081019050611b6f565b60008484015250505050565b6000611ba182611b50565b611bab8185611b5b565b9350611bbb818560208601611b6c565b611bc481611734565b840191505092915050565b60006060820190508181036000830152611be98186611b96565b9050611bf8602083018561169a565b611c05604083018461169a565b949350505050565b6000611c18826115d4565b9050919050565b611c2881611c0d565b8114611c3357600080fd5b50565b600081519050611c4581611c1f565b92915050565b600060208284031215611c6157611c606114cd565b5b6000611c6f84828501611c36565b91505092915050565b6000611c8b611c86846117c0565b6117a5565b905082815260208101848484011115611ca757611ca661172f565b5b611cb2848285611b6c565b509392505050565b600082601f830112611ccf57611cce61172a565b5b8151611cdf848260208601611c78565b91505092915050565b600081519050611cf7816114e1565b92915050565b60008060408385031215611d1457611d136114cd565b5b600083015167ffffffffffffffff811115611d3257611d316114d2565b5b611d3e85828601611cba565b9250506020611d4f85828601611ce8565b9150509250929050565b611d6281611870565b82525050565b600060a082019050611d7d60008301886116d6565b611d8a602083018761169a565b611d976040830186611d59565b611da46060830185611d59565b611db16080830184611670565b9695505050505050565b6000604082019050611dd060008301856116d6565b611ddd6020830184611670565b9392505050565b6000608082019050611df96000830187611700565b8181036020830152611e0b8186611b96565b9050611e1a604083018561169a565b611e276060830184611670565b95945050505050565b7f4e487b7100000000000000000000000000000000000000000000000000000000600052603260045260246000fd5b600080fd5b600080fd5b600080fd5b60008083356001602003843603038112611e8b57611e8a611e5f565b5b80840192508235915067ffffffffffffffff821115611ead57611eac611e64565b5b602083019250600182023603831315611ec957611ec8611e69565b5b509250929050565b6000611edd8385611b5b565b9350611eea8385846117f1565b611ef383611734565b840190509392505050565b600081519050919050565b600082825260208201905092915050565b6000819050602082019050919050565b611f33816114d7565b82525050565b6000611f458383611f2a565b60208301905092915050565b6000602082019050919050565b6000611f6982611efe565b611f738185611f09565b9350611f7e83611f1a565b8060005b83811015611faf578151611f968882611f39565b9750611fa183611f51565b925050600181019050611f82565b5085935050505092915050565b600081519050919050565b600082825260208201905092915050565b6000819050602082019050919050565b600082825260208201905092915050565b600061200482611b50565b61200e8185611fe8565b935061201e818560208601611b6c565b61202781611734565b840191505092915050565b600061203e8383611ff9565b905092915050565b6000602082019050919050565b600061205e82611fbc565b6120688185611fc7565b93508360208202850161207a85611fd8565b8060005b858110156120b657848403895281516120978582612032565b94506120a283612046565b925060208a0199505060018101905061207e565b50829750879550505050505092915050565b600060c0820190506120dd600083018a61169a565b81810360208301526120f081888a611ed1565b905081810360408301526121048187611f5e565b905081810360608301526121188186612053565b90506121276080830185611700565b61213460a0830184611670565b98975050505050505050565b600060208284031215612156576121556114cd565b5b600061216484828501611ce8565b91505092915050565b60006040820190506121826000830185611700565b61218f602083018461169a565b9392505050565b600081905092915050565b60006121ac82611b50565b6121b68185612196565b93506121c6818560208601611b6c565b80840191505092915050565b60006121de82846121a1565b915081905092915050565b6000819050919050565b6122046121ff826114d7565b6121e9565b82525050565b6000819050919050565b6000819050919050565b61222f61222a8261220a565b612214565b82525050565b600061224182856121f3565b602082019150612251828461221e565b6020820191508190509392505050565b6000602082019050818103600083015261227c818486611ed1565b90509392505050565b7f4e487b7100000000000000000000000000000000000000000000000000000000600052601160045260246000fd5b60006122bf826114d7565b91506122ca836114d7565b92508282026122d8816114d7565b915082820484148315176122ef576122ee612285565b5b5092915050565b600060408201905061230b6000830185611700565b6123186020830184611700565b9392505050565b600061232a826114d7565b9150612335836114d7565b925082820390508181111561234d5761234c612285565b5b92915050565b600063ffffffff82169050919050565b600061236e82612353565b915061237983612353565b925082820261238781612353565b915080821461239957612398612285565b5b5092915050565b60006123ab826114d7565b91506123b6836114d7565b92508282019050808211156123ce576123cd612285565b5b92915050565b60006123df826114d7565b9150600082036123f2576123f1612285565b5b60018203905091905056fea2646970667358221220fed36c71ecc3ecafe1c050434d9aec24f0370a47d4fad8277cab909b1e8f901164736f6c63430008180033",
  "linkReferences": {},
  "deployedLinkReferences": {}
}