{
  "_format": "hh-sol-artifact-1",
  "contractName": "NNSRewarder",
  "sourceName": "contracts/NNSRewarder.sol",
  "abi": [
    {
      "inputs": [
        {
          "internalType": "contract IV3SwapRouter",
          "name": "swapRouter",
          "type": "address"
        },
        {
          "internalType": "contract IERC20",
          "name": "rewardToken",
          "type": "address"
        },
        {
          "internalType": "contract IERC20",
          "name": "weth9",
          "type": "address"
        },
        {
          "internalType": "address",
          "name": "protocol",
          "type": "address"
        }
      ],
      "stateMutability": "nonpayable",
      "type": "constructor"
    },
    {
      "inputs": [
        {
          "internalType": "address",
          "name": "target",
          "type": "address"
        }
      ],
      "name": "AddressEmptyCode",
      "type": "error"
    },
    {
      "inputs": [
        {
          "internalType": "address",
          "name": "account",
          "type": "address"
        }
      ],
      "name": "AddressInsufficientBalance",
      "type": "error"
    },
    {
      "inputs": [
        {
          "internalType": "uint256",
          "name": "cldId",
          "type": "uint256"
        },
        {
          "internalType": "address",
          "name": "addr",
          "type": "address"
        }
      ],
      "name": "CallerNotCommunityManager",
      "type": "error"
    },
    {
      "inputs": [
        {
          "internalType": "address",
          "name": "addr",
          "type": "address"
        }
      ],
      "name": "CallerNotController",
      "type": "error"
    },
    {
      "inputs": [
        {
          "internalType": "uint256",
          "name": "cldId",
          "type": "uint256"
        }
      ],
      "name": "CldAlreadyRegistered",
      "type": "error"
    },
    {
      "inputs": [],
      "name": "FailedInnerCall",
      "type": "error"
    },
    {
      "inputs": [
        {
          "internalType": "address",
          "name": "account",
          "type": "address"
        }
      ],
      "name": "InvalidAccount",
      "type": "error"
    },
    {
      "inputs": [
        {
          "internalType": "uint256",
          "name": "cldId",
          "type": "uint256"
        }
      ],
      "name": "InvalidCld",
      "type": "error"
    },
    {
      "inputs": [],
      "name": "InvalidShares",
      "type": "error"
    },
    {
      "inputs": [],
      "name": "NothingToWithdraw",
      "type": "error"
    },
    {
      "inputs": [
        {
          "internalType": "address",
          "name": "owner",
          "type": "address"
        }
      ],
      "name": "OwnableInvalidOwner",
      "type": "error"
    },
    {
      "inputs": [
        {
          "internalType": "address",
          "name": "account",
          "type": "address"
        }
      ],
      "name": "OwnableUnauthorizedAccount",
      "type": "error"
    },
    {
      "inputs": [
        {
          "internalType": "address",
          "name": "token",
          "type": "address"
        }
      ],
      "name": "SafeERC20FailedOperation",
      "type": "error"
    },
    {
      "anonymous": false,
      "inputs": [
        {
          "indexed": false,
          "internalType": "uint256",
          "name": "cldId",
          "type": "uint256"
        },
        {
          "indexed": false,
          "internalType": "address",
          "name": "target",
          "type": "address"
        },
        {
          "indexed": false,
          "internalType": "uint8",
          "name": "referralShare",
          "type": "uint8"
        },
        {
          "indexed": false,
          "internalType": "uint8",
          "name": "communityShare",
          "type": "uint8"
        },
        {
          "indexed": false,
          "internalType": "uint8",
          "name": "ecosystemShare",
          "type": "uint8"
        }
      ],
      "name": "CldConfigurationChanged",
      "type": "event"
    },
    {
      "anonymous": false,
      "inputs": [
        {
          "indexed": false,
          "internalType": "uint256",
          "name": "cldId",
          "type": "uint256"
        }
      ],
      "name": "CldRegistered",
      "type": "event"
    },
    {
      "anonymous": false,
      "inputs": [
        {
          "indexed": false,
          "internalType": "uint256",
          "name": "cldId",
          "type": "uint256"
        },
        {
          "indexed": false,
          "internalType": "address",
          "name": "referer",
          "type": "address"
        },
        {
          "indexed": false,
          "internalType": "uint256",
          "name": "amountEth",
          "type": "uint256"
        },
        {
          "indexed": false,
          "internalType": "uint256",
          "name": "amountERC20",
          "type": "uint256"
        }
      ],
      "name": "Collected",
      "type": "event"
    },
    {
      "anonymous": false,
      "inputs": [
        {
          "indexed": true,
          "internalType": "address",
          "name": "previousOwner",
          "type": "address"
        },
        {
          "indexed": true,
          "internalType": "address",
          "name": "newOwner",
          "type": "address"
        }
      ],
      "name": "OwnershipTransferred",
      "type": "event"
    },
    {
      "anonymous": false,
      "inputs": [
        {
          "indexed": false,
          "internalType": "address",
          "name": "account",
          "type": "address"
        },
        {
          "indexed": false,
          "internalType": "uint256[]",
          "name": "holderTokenIds",
          "type": "uint256[]"
        },
        {
          "indexed": false,
          "internalType": "uint256[]",
          "name": "ecosystemTokenIds",
          "type": "uint256[]"
        },
        {
          "indexed": false,
          "internalType": "uint256",
          "name": "amount",
          "type": "uint256"
        }
      ],
      "name": "Withdrawn",
      "type": "event"
    },
    {
      "inputs": [],
      "name": "PROTOCOL_SHARE",
      "outputs": [
        {
          "internalType": "uint8",
          "name": "",
          "type": "uint8"
        }
      ],
      "stateMutability": "view",
      "type": "function"
    },
    {
      "inputs": [],
      "name": "accountRewarder",
      "outputs": [
        {
          "internalType": "contract IAccountRewarder",
          "name": "",
          "type": "address"
        }
      ],
      "stateMutability": "view",
      "type": "function"
    },
    {
      "inputs": [
        {
          "internalType": "address",
          "name": "account",
          "type": "address"
        },
        {
          "internalType": "uint256[]",
          "name": "holderTokenIds",
          "type": "uint256[]"
        },
        {
          "internalType": "uint256[]",
          "name": "ecosystemTokenIds",
          "type": "uint256[]"
        }
      ],
      "name": "balanceOf",
      "outputs": [
        {
          "internalType": "uint256",
          "name": "",
          "type": "uint256"
        }
      ],
      "stateMutability": "view",
      "type": "function"
    },
    {
      "inputs": [
        {
          "internalType": "uint256",
          "name": "cldId",
          "type": "uint256"
        },
        {
          "internalType": "address",
          "name": "referer",
          "type": "address"
        }
      ],
      "name": "collect",
      "outputs": [],
      "stateMutability": "payable",
      "type": "function"
    },
    {
      "inputs": [
        {
          "internalType": "uint256",
          "name": "cldId",
          "type": "uint256"
        }
      ],
      "name": "configurationOf",
      "outputs": [
        {
          "components": [
            {
              "internalType": "uint8",
              "name": "referralShare",
              "type": "uint8"
            },
            {
              "internalType": "uint8",
              "name": "communityShare",
              "type": "uint8"
            },
            {
              "internalType": "uint8",
              "name": "ecosystemShare",
              "type": "uint8"
            },
            {
              "internalType": "uint8",
              "name": "protocolShare",
              "type": "uint8"
            },
            {
              "internalType": "address",
              "name": "payoutTarget",
              "type": "address"
            },
            {
              "internalType": "contract IRegistry",
              "name": "registry",
              "type": "address"
            }
          ],
          "internalType": "struct IRewarder.CldConfiguration",
          "name": "c",
          "type": "tuple"
        }
      ],
      "stateMutability": "view",
      "type": "function"
    },
    {
      "inputs": [],
      "name": "ecosystemRewarder",
      "outputs": [
        {
          "internalType": "contract IERC721BasedRewarder",
          "name": "",
          "type": "address"
        }
      ],
      "stateMutability": "view",
      "type": "function"
    },
    {
      "inputs": [],
      "name": "holderRewarder",
      "outputs": [
        {
          "internalType": "contract IERC721BasedRewarder",
          "name": "",
          "type": "address"
        }
      ],
      "stateMutability": "view",
      "type": "function"
    },
    {
      "inputs": [],
      "name": "owner",
      "outputs": [
        {
          "internalType": "address",
          "name": "",
          "type": "address"
        }
      ],
      "stateMutability": "view",
      "type": "function"
    },
    {
      "inputs": [
        {
          "internalType": "contract IRegistry",
          "name": "registry",
          "type": "address"
        },
        {
          "internalType": "address",
          "name": "payout",
          "type": "address"
        },
        {
          "internalType": "uint8",
          "name": "referralShare",
          "type": "uint8"
        },
        {
          "internalType": "uint8",
          "name": "communityShare",
          "type": "uint8"
        },
        {
          "internalType": "uint8",
          "name": "ecosystemShare",
          "type": "uint8"
        }
      ],
      "name": "registerCld",
      "outputs": [],
      "stateMutability": "nonpayable",
      "type": "function"
    },
    {
      "inputs": [],
      "name": "renounceOwnership",
      "outputs": [],
      "stateMutability": "nonpayable",
      "type": "function"
    },
    {
      "inputs": [
        {
          "internalType": "contract IAccountRewarder",
          "name": "rewarder",
          "type": "address"
        }
      ],
      "name": "setAccountRewarder",
      "outputs": [],
      "stateMutability": "nonpayable",
      "type": "function"
    },
    {
      "inputs": [
        {
          "internalType": "uint256",
          "name": "cldId",
          "type": "uint256"
        },
        {
          "internalType": "address",
          "name": "target",
          "type": "address"
        },
        {
          "internalType": "uint8",
          "name": "referralShare",
          "type": "uint8"
        },
        {
          "internalType": "uint8",
          "name": "communityShare",
          "type": "uint8"
        },
        {
          "internalType": "uint8",
          "name": "ecosystemShare",
          "type": "uint8"
        }
      ],
      "name": "setCldConfiguration",
      "outputs": [],
      "stateMutability": "nonpayable",
      "type": "function"
    },
    {
      "inputs": [
        {
          "internalType": "address",
          "name": "controller",
          "type": "address"
        }
      ],
      "name": "setController",
      "outputs": [],
      "stateMutability": "nonpayable",
      "type": "function"
    },
    {
      "inputs": [
        {
          "internalType": "contract IERC721BasedRewarder",
          "name": "rewarder",
          "type": "address"
        }
      ],
      "name": "setEcosystemRewarder",
      "outputs": [],
      "stateMutability": "nonpayable",
      "type": "function"
    },
    {
      "inputs": [
        {
          "internalType": "contract IERC721BasedRewarder",
          "name": "rewarder",
          "type": "address"
        }
      ],
      "name": "setHolderRewarder",
      "outputs": [],
      "stateMutability": "nonpayable",
      "type": "function"
    },
    {
      "inputs": [
        {
          "internalType": "address",
          "name": "newOwner",
          "type": "address"
        }
      ],
      "name": "transferOwnership",
      "outputs": [],
      "stateMutability": "nonpayable",
      "type": "function"
    },
    {
      "inputs": [
        {
          "internalType": "address",
          "name": "account",
          "type": "address"
        },
        {
          "internalType": "uint256[]",
          "name": "holderTokenIds",
          "type": "uint256[]"
        },
        {
          "internalType": "uint256[]",
          "name": "ecosystemTokenIds",
          "type": "uint256[]"
        }
      ],
      "name": "withdraw",
      "outputs": [],
      "stateMutability": "nonpayable",
      "type": "function"
    }
  ],
  "bytecode": "0x60806040523480156200001157600080fd5b5060405162001d8338038062001d83833981016040819052620000349162000124565b33806200005b57604051631e4fbdf760e01b81526000600482015260240160405180910390fd5b6200006681620000bb565b50600b80546001600160a01b039586166001600160a01b031991821617909155600a805494861694821694909417909355600c805492851692841692909217909155600180549190931691161790556200018c565b600080546001600160a01b038381166001600160a01b0319831681178455604051919092169283917f8be0079c531659141344cd1fd0a4f28419497f9722a3daafe3b4186f6b6457e09190a35050565b6001600160a01b03811681146200012157600080fd5b50565b600080600080608085870312156200013b57600080fd5b845162000148816200010b565b60208601519094506200015b816200010b565b60408601519093506200016e816200010b565b606086015190925062000181816200010b565b939692955090935050565b611be7806200019c6000396000f3fe60806040526004361061010e5760003560e01c8063715018a6116100a557806392eefe9b116100745780639aa9aac1116100595780639aa9aac11461034a578063e514a1401461036a578063f2fde38b1461038a57600080fd5b806392eefe9b1461030a5780639339b0a01461032a57600080fd5b8063715018a6146102a457806387ad6d00146102b95780638d3c100a146102d95780638da5cb5b146102ec57600080fd5b80633561cee0116100e15780633561cee01461021157806351adc7611461023f57806355ea4259146102665780636fe13b491461028457600080fd5b80630d804d401461011357806322de3b91146101355780632b28e2e21461016c5780632b5454211461018a575b600080fd5b34801561011f57600080fd5b5061013361012e36600461174b565b6103aa565b005b34801561014157600080fd5b506008546001600160a01b03165b6040516001600160a01b0390911681526020015b60405180910390f35b34801561017857600080fd5b506007546001600160a01b031661014f565b34801561019657600080fd5b506101aa6101a53660046117b4565b610539565b6040516101639190600060c08201905060ff835116825260ff602084015116602083015260ff604084015116604083015260ff606084015116606083015260808301516001600160a01b0380821660808501528060a08601511660a0850152505092915050565b34801561021d57600080fd5b5061023161022c366004611819565b6105fd565b604051908152602001610163565b34801561024b57600080fd5b50610254600581565b60405160ff9091168152602001610163565b34801561027257600080fd5b506009546001600160a01b031661014f565b34801561029057600080fd5b5061013361029f36600461189c565b6107d4565b3480156102b057600080fd5b506101336108bd565b3480156102c557600080fd5b506101336102d43660046118c6565b6108d1565b6101336102e73660046118e3565b6108fb565b3480156102f857600080fd5b506000546001600160a01b031661014f565b34801561031657600080fd5b506101336103253660046118c6565b610edf565b34801561033657600080fd5b50610133610345366004611819565b610f09565b34801561035657600080fd5b506101336103653660046118c6565b6111e1565b34801561037657600080fd5b506101336103853660046118c6565b61120b565b34801561039657600080fd5b506101336103a53660046118c6565b611235565b600d546001600160a01b0316336001600160a01b03161461040a57335b6040517f69867d640000000000000000000000000000000000000000000000000000000081526001600160a01b0390911660048201526024015b60405180910390fd5b6000856001600160a01b03166383d48e046040518163ffffffff1660e01b8152600401600060405180830381865afa15801561044a573d6000803e3d6000fd5b505050506040513d6000823e601f3d908101601f19168201604052610472919081019061194d565b6000818152600660205260409020549092506001600160a01b03161590506104c9576040517f8099d06600000000000000000000000000000000000000000000000000000000815260048101829052602401610401565b60008181526006602090815260409182902080546001600160a01b0319166001600160a01b038a1617905590518281527f8bd9cfa8c73842407f588399c731ae715c419ea74253764312148aa3f604cc8e910160405180910390a1610531818686868661128c565b505050505050565b6040805160c081018252600080825260208201819052918101829052606081018290526080810182905260a08101919091526000828152600660205260409020546001600160a01b03168061058e5750919050565b6040805160c0810182526000858152600460209081528382205460ff9081168452878352600282528483205481168285015287835260058083528584205490911684860152606084015295815260039095529320546001600160a01b0390811660808501521660a08301525090565b600080805b858110156106a7576008546001600160a01b0316639cc7f70888888481811061062d5761062d611a04565b905060200201356040518263ffffffff1660e01b815260040161065291815260200190565b602060405180830381865afa15801561066f573d6000803e3d6000fd5b505050506040513d601f19601f820116820180604052508101906106939190611a1a565b61069d9083611a49565b9150600101610602565b5060005b83811015610750576007546001600160a01b0316639cc7f7088686848181106106d6576106d6611a04565b905060200201356040518263ffffffff1660e01b81526004016106fb91815260200190565b602060405180830381865afa158015610718573d6000803e3d6000fd5b505050506040513d601f19601f8201168201806040525081019061073c9190611a1a565b6107469083611a49565b91506001016106ab565b506009546040516370a0823160e01b81526001600160a01b038981166004830152909116906370a0823190602401602060405180830381865afa15801561079b573d6000803e3d6000fd5b505050506040513d601f19601f820116820180604052508101906107bf9190611a1a565b6107c99082611a49565b979650505050505050565b60006107df866113af565b90506001600160a01b0381166341ef73b9336040517fffffffff0000000000000000000000000000000000000000000000000000000060e084901b1681526001600160a01b039091166004820152602401602060405180830381865afa15801561084d573d6000803e3d6000fd5b505050506040513d601f19601f820116820180604052508101906108719190611a5c565b6108b0576040517fef5e457900000000000000000000000000000000000000000000000000000000815260048101879052336024820152604401610401565b610531868686868661128c565b6108c5611407565b6108cf600061144d565b565b6108d9611407565b600980546001600160a01b0319166001600160a01b0392909216919091179055565b600d546001600160a01b0316336001600160a01b03161461091c57336103c7565b610925826113af565b506040805160e081018252600c546001600160a01b039081168252600a54811660208301908152610bb883850190815230606085019081524760808601908152600060a0870181815260c08801828152600b5499517f04e45aaf000000000000000000000000000000000000000000000000000000008152895189166004820152965188166024880152945162ffffff16604487015292518616606486015290516084850152905160a48401529051831660c48301529293909116906304e45aaf90479060e40160206040518083038185885af1158015610a0a573d6000803e3d6000fd5b50505050506040513d601f19601f82011682018060405250810190610a2f9190611a1a565b9050826001600160a01b0381161580610b3b57506001600160a01b03841615801590610b3b5750600860009054906101000a90046001600160a01b03166001600160a01b031663bca6ce646040518163ffffffff1660e01b8152600401602060405180830381865afa158015610aa9573d6000803e3d6000fd5b505050506040513d601f19601f82011682018060405250810190610acd9190611a7e565b6040516370a0823160e01b81526001600160a01b03868116600483015291909116906370a0823190602401602060405180830381865afa158015610b15573d6000803e3d6000fd5b505050506040513d601f19601f82011682018060405250810190610b399190611a1a565b155b15610b5b576000858152600360205260409020546001600160a01b031693505b600085815260046020526040812054606490610b7a9060ff1685611a9b565b610b849190611ab2565b600954604051634b4a1cd560e01b81526001600160a01b03888116600483015260248201849052929350911690634b4a1cd5906044016020604051808303816000875af1158015610bd9573d6000803e3d6000fd5b505050506040513d601f19601f82011682018060405250810190610bfd9190611a1a565b50600086815260026020526040812054606490610c1d9060ff1686611a9b565b610c279190611ab2565b60095460008981526003602052604090819020549051634b4a1cd560e01b81526001600160a01b039182166004820152602481018490529293501690634b4a1cd5906044016020604051808303816000875af1158015610c8b573d6000803e3d6000fd5b505050506040513d601f19601f82011682018060405250810190610caf9190611a1a565b5060006064610cbf600587611a9b565b610cc99190611ab2565b600954600154604051634b4a1cd560e01b81526001600160a01b039182166004820152602481018490529293501690634b4a1cd5906044016020604051808303816000875af1158015610d20573d6000803e3d6000fd5b505050506040513d601f19601f82011682018060405250810190610d449190611a1a565b50600088815260056020526040812054606490610d649060ff1688611a9b565b610d6e9190611ab2565b60075460405163b32fe94f60e01b8152600481018390529192506001600160a01b03169063b32fe94f906024016020604051808303816000875af1158015610dba573d6000803e3d6000fd5b505050506040513d601f19601f82011682018060405250810190610dde9190611a1a565b506000828285610dee888b611ad4565b610df89190611ad4565b610e029190611ad4565b610e0c9190611ad4565b90508015610e855760085460405163b32fe94f60e01b8152600481018390526001600160a01b039091169063b32fe94f906024016020604051808303816000875af1158015610e5f573d6000803e3d6000fd5b505050506040513d601f19601f82011682018060405250810190610e839190611a1a565b505b604080518b81526001600160a01b038816602082015234818301526060810189905290517fe985bb809569e1ab693b8d0a44015cb780fa698a4b16df55472d8eeffa185b399181900360800190a150505050505050505050565b610ee7611407565b600d80546001600160a01b0319166001600160a01b0392909216919091179055565b6000805b84811015610fdd576008546001600160a01b031663d571409188888885818110610f3957610f39611a04565b6040517fffffffff0000000000000000000000000000000000000000000000000000000060e087901b1681526001600160a01b03909416600485015260200291909101356024830152506044016020604051808303816000875af1158015610fa5573d6000803e3d6000fd5b505050506040513d601f19601f82011682018060405250810190610fc99190611a1a565b610fd39083611a49565b9150600101610f0d565b5060005b828110156110b1576007546001600160a01b031663d57140918886868581811061100d5761100d611a04565b6040517fffffffff0000000000000000000000000000000000000000000000000000000060e087901b1681526001600160a01b03909416600485015260200291909101356024830152506044016020604051808303816000875af1158015611079573d6000803e3d6000fd5b505050506040513d601f19601f8201168201806040525081019061109d9190611a1a565b6110a79083611a49565b9150600101610fe1565b506009546040517ff7b6d74f0000000000000000000000000000000000000000000000000000000081526001600160a01b0388811660048301529091169063f7b6d74f906024016020604051808303816000875af1158015611117573d6000803e3d6000fd5b505050506040513d601f19601f8201168201806040525081019061113b9190611a1a565b6111459082611a49565b905080600003611181576040517fd0d04f6000000000000000000000000000000000000000000000000000000000815260040160405180910390fd5b600a54611198906001600160a01b0316878361149d565b7f969b29af630290bc397caf79e9ccc1dc011eba52c697419736a7131a886a9dff8686868686866040516111d196959493929190611b32565b60405180910390a1505050505050565b6111e9611407565b600780546001600160a01b0319166001600160a01b0392909216919091179055565b611213611407565b600880546001600160a01b0319166001600160a01b0392909216919091179055565b61123d611407565b6001600160a01b038116611280576040517f1e4fbdf700000000000000000000000000000000000000000000000000000000815260006004820152602401610401565b6112898161144d565b50565b606460058261129b8587611b7c565b6112a59190611b7c565b6112af9190611b7c565b60ff1611156112ea576040517f6edcc52300000000000000000000000000000000000000000000000000000000815260040160405180910390fd5b600085815260036020908152604080832080546001600160a01b0389166001600160a01b0319909116811790915560028352818420805460ff88811660ff1992831681179093556004865284872080548b831690841681179091556005875296859020805491891691909216811790915583518b81529485019290925291830193909352606082015260808101919091527f13586fd4fc41a55042bb5598cae4e4ca021684e2b1a1134f48d0fb7dbba31ca09060a00160405180910390a15050505050565b6000818152600660205260408120546001600160a01b031680611401576040517f6128427d00000000000000000000000000000000000000000000000000000000815260048101849052602401610401565b92915050565b6000546001600160a01b031633146108cf576040517f118cdaa7000000000000000000000000000000000000000000000000000000008152336004820152602401610401565b600080546001600160a01b038381166001600160a01b0319831681178455604051919092169283917f8be0079c531659141344cd1fd0a4f28419497f9722a3daafe3b4186f6b6457e09190a35050565b604080516001600160a01b038416602482015260448082018490528251808303909101815260649091019091526020810180517bffffffffffffffffffffffffffffffffffffffffffffffffffffffff167fa9059cbb0000000000000000000000000000000000000000000000000000000017905261151d908490611522565b505050565b60006115376001600160a01b0384168361159e565b9050805160001415801561155c57508080602001905181019061155a9190611a5c565b155b1561151d576040517f5274afe70000000000000000000000000000000000000000000000000000000081526001600160a01b0384166004820152602401610401565b60606115ac838360006115b3565b9392505050565b6060814710156115f1576040517fcd786059000000000000000000000000000000000000000000000000000000008152306004820152602401610401565b600080856001600160a01b0316848660405161160d9190611b95565b60006040518083038185875af1925050503d806000811461164a576040519150601f19603f3d011682016040523d82523d6000602084013e61164f565b606091505b509150915061165f868383611669565b9695505050505050565b60608261167e57611679826116de565b6115ac565b815115801561169557506001600160a01b0384163b155b156116d7576040517f9996b3150000000000000000000000000000000000000000000000000000000081526001600160a01b0385166004820152602401610401565b50806115ac565b8051156116ee5780518082602001fd5b6040517f1425ea4200000000000000000000000000000000000000000000000000000000815260040160405180910390fd5b6001600160a01b038116811461128957600080fd5b803560ff8116811461174657600080fd5b919050565b600080600080600060a0868803121561176357600080fd5b853561176e81611720565b9450602086013561177e81611720565b935061178c60408701611735565b925061179a60608701611735565b91506117a860808701611735565b90509295509295909350565b6000602082840312156117c657600080fd5b5035919050565b60008083601f8401126117df57600080fd5b50813567ffffffffffffffff8111156117f757600080fd5b6020830191508360208260051b850101111561181257600080fd5b9250929050565b60008060008060006060868803121561183157600080fd5b853561183c81611720565b9450602086013567ffffffffffffffff8082111561185957600080fd5b61186589838a016117cd565b9096509450604088013591508082111561187e57600080fd5b5061188b888289016117cd565b969995985093965092949392505050565b600080600080600060a086880312156118b457600080fd5b85359450602086013561177e81611720565b6000602082840312156118d857600080fd5b81356115ac81611720565b600080604083850312156118f657600080fd5b82359150602083013561190881611720565b809150509250929050565b634e487b7160e01b600052604160045260246000fd5b60005b8381101561194457818101518382015260200161192c565b50506000910152565b6000806040838503121561196057600080fd5b825167ffffffffffffffff8082111561197857600080fd5b818501915085601f83011261198c57600080fd5b81518181111561199e5761199e611913565b604051601f8201601f19908116603f011681019083821181831017156119c6576119c6611913565b816040528281528860208487010111156119df57600080fd5b6119f0836020830160208801611929565b602097909701519698969750505050505050565b634e487b7160e01b600052603260045260246000fd5b600060208284031215611a2c57600080fd5b5051919050565b634e487b7160e01b600052601160045260246000fd5b8082018082111561140157611401611a33565b600060208284031215611a6e57600080fd5b815180151581146115ac57600080fd5b600060208284031215611a9057600080fd5b81516115ac81611720565b808202811582820484141761140157611401611a33565b600082611acf57634e487b7160e01b600052601260045260246000fd5b500490565b8181038181111561140157611401611a33565b81835260007f07ffffffffffffffffffffffffffffffffffffffffffffffffffffffffffffff831115611b1957600080fd5b8260051b80836020870137939093016020019392505050565b6001600160a01b0387168152608060208201526000611b55608083018789611ae7565b8281036040840152611b68818688611ae7565b915050826060830152979650505050505050565b60ff818116838216019081111561140157611401611a33565b60008251611ba7818460208701611929565b919091019291505056fea26469706673582212203f5710b1b587254e4ab53a9d9f2522b690ac9cd4c6b9829303622b24a6562e3e64736f6c63430008180033",
  "linkReferences": {},
  "deployedLinkReferences": {}
}