{
  "_format": "hh-sol-artifact-1",
  "contractName": "USDPricingOracle",
  "sourceName": "contracts/pricing/USDPricingOracle.sol",
  "abi": [
    {
      "inputs": [
        {
          "internalType": "uint256[]",
          "name": "prices",
          "type": "uint256[]"
        },
        {
          "internalType": "contract IAggregator",
          "name": "aggregator",
          "type": "address"
        }
      ],
      "stateMutability": "nonpayable",
      "type": "constructor"
    },
    {
      "inputs": [
        {
          "internalType": "string",
          "name": "name",
          "type": "string"
        }
      ],
      "name": "price",
      "outputs": [
        {
          "internalType": "uint256",
          "name": "",
          "type": "uint256"
        }
      ],
      "stateMutability": "view",
      "type": "function"
    }
  ],
  "bytecode": "0x60806040523480156200001157600080fd5b5060405162000b8938038062000b89833981810160405281019062000037919062000347565b81600090805190602001906200004f92919062000099565b5080600160006101000a81548173ffffffffffffffffffffffffffffffffffffffff021916908373ffffffffffffffffffffffffffffffffffffffff1602179055505050620003ad565b828054828255906000526020600020908101928215620000d8579160200282015b82811115620000d7578251825591602001919060010190620000ba565b5b509050620000e79190620000eb565b5090565b5b8082111562000106576000816000905550600101620000ec565b5090565b6000604051905090565b600080fd5b600080fd5b600080fd5b6000601f19601f8301169050919050565b7f4e487b7100000000000000000000000000000000000000000000000000000000600052604160045260246000fd5b6200016e8262000123565b810181811067ffffffffffffffff8211171562000190576200018f62000134565b5b80604052505050565b6000620001a56200010a565b9050620001b3828262000163565b919050565b600067ffffffffffffffff821115620001d657620001d562000134565b5b602082029050602081019050919050565b600080fd5b6000819050919050565b6200020181620001ec565b81146200020d57600080fd5b50565b6000815190506200022181620001f6565b92915050565b60006200023e6200023884620001b8565b62000199565b90508083825260208201905060208402830185811115620002645762000263620001e7565b5b835b818110156200029157806200027c888262000210565b84526020840193505060208101905062000266565b5050509392505050565b600082601f830112620002b357620002b26200011e565b5b8151620002c584826020860162000227565b91505092915050565b600073ffffffffffffffffffffffffffffffffffffffff82169050919050565b6000620002fb82620002ce565b9050919050565b60006200030f82620002ee565b9050919050565b620003218162000302565b81146200032d57600080fd5b50565b600081519050620003418162000316565b92915050565b6000806040838503121562000361576200036062000114565b5b600083015167ffffffffffffffff81111562000382576200038162000119565b5b62000390858286016200029b565b9250506020620003a38582860162000330565b9150509250929050565b6107cc80620003bd6000396000f3fe608060405234801561001057600080fd5b506004361061002b5760003560e01c8063fe2c619814610030575b600080fd5b61004a600480360381019061004591906102a9565b610060565b604051610057919061030f565b60405180910390f35b6000806001848490506100739190610359565b905060008054905081106100965760016000805490506100939190610359565b90505b6000600160009054906101000a900473ffffffffffffffffffffffffffffffffffffffff1673ffffffffffffffffffffffffffffffffffffffff1663313ce5676040518163ffffffff1660e01b8152600401602060405180830381865afa158015610105573d6000803e3d6000fd5b505050506040513d601f19601f8201168201806040525081019061012991906103c6565b90506000600160009054906101000a900473ffffffffffffffffffffffffffffffffffffffff1673ffffffffffffffffffffffffffffffffffffffff1663feaf968c6040518163ffffffff1660e01b815260040160a060405180830381865afa15801561019a573d6000803e3d6000fd5b505050506040513d601f19601f820116820180604052508101906101be9190610497565b50505091505060008260126101d39190610512565b600a6101df919061067a565b826101ea91906106c5565b9050600080858154811061020157610200610707565b5b9060005260206000200154905081670de0b6b3a76400008261022391906106c5565b61022d9190610765565b9550505050505092915050565b600080fd5b600080fd5b600080fd5b600080fd5b600080fd5b60008083601f84011261026957610268610244565b5b8235905067ffffffffffffffff81111561028657610285610249565b5b6020830191508360018202830111156102a2576102a161024e565b5b9250929050565b600080602083850312156102c0576102bf61023a565b5b600083013567ffffffffffffffff8111156102de576102dd61023f565b5b6102ea85828601610253565b92509250509250929050565b6000819050919050565b610309816102f6565b82525050565b60006020820190506103246000830184610300565b92915050565b7f4e487b7100000000000000000000000000000000000000000000000000000000600052601160045260246000fd5b6000610364826102f6565b915061036f836102f6565b92508282039050818111156103875761038661032a565b5b92915050565b600060ff82169050919050565b6103a38161038d565b81146103ae57600080fd5b50565b6000815190506103c08161039a565b92915050565b6000602082840312156103dc576103db61023a565b5b60006103ea848285016103b1565b91505092915050565b600069ffffffffffffffffffff82169050919050565b610412816103f3565b811461041d57600080fd5b50565b60008151905061042f81610409565b92915050565b6000819050919050565b61044881610435565b811461045357600080fd5b50565b6000815190506104658161043f565b92915050565b610474816102f6565b811461047f57600080fd5b50565b6000815190506104918161046b565b92915050565b600080600080600060a086880312156104b3576104b261023a565b5b60006104c188828901610420565b95505060206104d288828901610456565b94505060406104e388828901610482565b93505060606104f488828901610482565b925050608061050588828901610420565b9150509295509295909350565b600061051d8261038d565b91506105288361038d565b9250828203905060ff8111156105415761054061032a565b5b92915050565b60008160011c9050919050565b6000808291508390505b600185111561059e5780860481111561057a5761057961032a565b5b60018516156105895780820291505b808102905061059785610547565b945061055e565b94509492505050565b6000826105b75760019050610673565b816105c55760009050610673565b81600181146105db57600281146105e557610614565b6001915050610673565b60ff8411156105f7576105f661032a565b5b8360020a91508482111561060e5761060d61032a565b5b50610673565b5060208310610133831016604e8410600b84101617156106495782820a9050838111156106445761064361032a565b5b610673565b6106568484846001610554565b9250905081840481111561066d5761066c61032a565b5b81810290505b9392505050565b6000610685826102f6565b91506106908361038d565b92506106bd7fffffffffffffffffffffffffffffffffffffffffffffffffffffffffffffffff84846105a7565b905092915050565b60006106d0826102f6565b91506106db836102f6565b92508282026106e9816102f6565b91508282048414831517610700576106ff61032a565b5b5092915050565b7f4e487b7100000000000000000000000000000000000000000000000000000000600052603260045260246000fd5b7f4e487b7100000000000000000000000000000000000000000000000000000000600052601260045260246000fd5b6000610770826102f6565b915061077b836102f6565b92508261078b5761078a610736565b5b82820490509291505056fea2646970667358221220f0f11a27b4f701e0a7d6ede9efeba4177f8dd1f23ed3b11f9c944c0e72ba5bcf64736f6c63430008180033",
  "linkReferences": {},
  "deployedLinkReferences": {}
}