{
  "_format": "hh-sol-artifact-1",
  "contractName": "NNSController",
  "sourceName": "contracts/NNSController.sol",
  "abi": [
    {
      "inputs": [
        {
          "internalType": "contract IRewarder",
          "name": "rewarder",
          "type": "address"
        },
        {
          "internalType": "contract IResolver",
          "name": "resolver",
          "type": "address"
        },
        {
          "internalType": "contract ICldFactory",
          "name": "cldFactory",
          "type": "address"
        },
        {
          "internalType": "address",
          "name": "signer_",
          "type": "address"
        }
      ],
      "stateMutability": "nonpayable",
      "type": "constructor"
    },
    {
      "inputs": [],
      "name": "CldAlreadyExists",
      "type": "error"
    },
    {
      "inputs": [],
      "name": "ECDSAInvalidSignature",
      "type": "error"
    },
    {
      "inputs": [
        {
          "internalType": "uint256",
          "name": "length",
          "type": "uint256"
        }
      ],
      "name": "ECDSAInvalidSignatureLength",
      "type": "error"
    },
    {
      "inputs": [
        {
          "internalType": "bytes32",
          "name": "s",
          "type": "bytes32"
        }
      ],
      "name": "ECDSAInvalidSignatureS",
      "type": "error"
    },
    {
      "inputs": [
        {
          "internalType": "uint256",
          "name": "required",
          "type": "uint256"
        },
        {
          "internalType": "uint256",
          "name": "provided",
          "type": "uint256"
        }
      ],
      "name": "InsufficientTransferAmount",
      "type": "error"
    },
    {
      "inputs": [],
      "name": "InvalidCld",
      "type": "error"
    },
    {
      "inputs": [],
      "name": "InvalidLabel",
      "type": "error"
    },
    {
      "inputs": [],
      "name": "InvalidPricingOracle",
      "type": "error"
    },
    {
      "inputs": [],
      "name": "InvalidRegistrationMethod",
      "type": "error"
    },
    {
      "inputs": [],
      "name": "InvalidRegistrationPeriod",
      "type": "error"
    },
    {
      "inputs": [
        {
          "internalType": "uint256",
          "name": "cldId",
          "type": "uint256"
        }
      ],
      "name": "NonExpiringCld",
      "type": "error"
    },
    {
      "inputs": [
        {
          "internalType": "address",
          "name": "owner",
          "type": "address"
        }
      ],
      "name": "OwnableInvalidOwner",
      "type": "error"
    },
    {
      "inputs": [
        {
          "internalType": "address",
          "name": "account",
          "type": "address"
        }
      ],
      "name": "OwnableUnauthorizedAccount",
      "type": "error"
    },
    {
      "inputs": [
        {
          "internalType": "uint256",
          "name": "value",
          "type": "uint256"
        },
        {
          "internalType": "uint256",
          "name": "length",
          "type": "uint256"
        }
      ],
      "name": "StringsInsufficientHexLength",
      "type": "error"
    },
    {
      "inputs": [],
      "name": "UnauthorizedAccount",
      "type": "error"
    },
    {
      "anonymous": false,
      "inputs": [
        {
          "indexed": false,
          "internalType": "uint256",
          "name": "cldId",
          "type": "uint256"
        },
        {
          "indexed": false,
          "internalType": "string",
          "name": "name",
          "type": "string"
        },
        {
          "indexed": false,
          "internalType": "address",
          "name": "registry",
          "type": "address"
        },
        {
          "indexed": false,
          "internalType": "bool",
          "name": "hasExpiringNames",
          "type": "bool"
        }
      ],
      "name": "CldRegistered",
      "type": "event"
    },
    {
      "anonymous": false,
      "inputs": [
        {
          "indexed": false,
          "internalType": "uint256",
          "name": "cldId",
          "type": "uint256"
        },
        {
          "indexed": false,
          "internalType": "bool",
          "name": "required",
          "type": "bool"
        }
      ],
      "name": "CldSignatureRequiredChanged",
      "type": "event"
    },
    {
      "anonymous": false,
      "inputs": [
        {
          "indexed": true,
          "internalType": "address",
          "name": "previousOwner",
          "type": "address"
        },
        {
          "indexed": true,
          "internalType": "address",
          "name": "newOwner",
          "type": "address"
        }
      ],
      "name": "OwnershipTransferred",
      "type": "event"
    },
    {
      "anonymous": false,
      "inputs": [
        {
          "indexed": false,
          "internalType": "uint256",
          "name": "cldId",
          "type": "uint256"
        },
        {
          "indexed": false,
          "internalType": "address",
          "name": "oracle",
          "type": "address"
        }
      ],
      "name": "PricingOracleChanged",
      "type": "event"
    },
    {
      "inputs": [],
      "name": "RECORD_CRYPTO_ETH_ADDRESS",
      "outputs": [
        {
          "internalType": "uint256",
          "name": "",
          "type": "uint256"
        }
      ],
      "stateMutability": "view",
      "type": "function"
    },
    {
      "inputs": [
        {
          "internalType": "uint256",
          "name": "cldId",
          "type": "uint256"
        }
      ],
      "name": "isExpiringCLD",
      "outputs": [
        {
          "internalType": "bool",
          "name": "",
          "type": "bool"
        }
      ],
      "stateMutability": "view",
      "type": "function"
    },
    {
      "inputs": [
        {
          "internalType": "uint256",
          "name": "cldId",
          "type": "uint256"
        }
      ],
      "name": "isSignatureRequired",
      "outputs": [
        {
          "internalType": "bool",
          "name": "",
          "type": "bool"
        }
      ],
      "stateMutability": "view",
      "type": "function"
    },
    {
      "inputs": [],
      "name": "owner",
      "outputs": [
        {
          "internalType": "address",
          "name": "",
          "type": "address"
        }
      ],
      "stateMutability": "view",
      "type": "function"
    },
    {
      "inputs": [
        {
          "internalType": "uint256",
          "name": "cldId",
          "type": "uint256"
        }
      ],
      "name": "pricingOracleOf",
      "outputs": [
        {
          "internalType": "contract IPricingOracle",
          "name": "",
          "type": "address"
        }
      ],
      "stateMutability": "view",
      "type": "function"
    },
    {
      "inputs": [
        {
          "internalType": "address",
          "name": "to",
          "type": "address"
        },
        {
          "internalType": "string[]",
          "name": "labels",
          "type": "string[]"
        },
        {
          "internalType": "bool",
          "name": "withReverse",
          "type": "bool"
        },
        {
          "internalType": "address",
          "name": "referer",
          "type": "address"
        },
        {
          "internalType": "uint8",
          "name": "periods",
          "type": "uint8"
        }
      ],
      "name": "register",
      "outputs": [],
      "stateMutability": "payable",
      "type": "function"
    },
    {
      "inputs": [
        {
          "internalType": "string",
          "name": "name",
          "type": "string"
        },
        {
          "internalType": "uint8",
          "name": "communityShare",
          "type": "uint8"
        },
        {
          "internalType": "uint8",
          "name": "referralShare",
          "type": "uint8"
        },
        {
          "internalType": "uint8",
          "name": "ecosystemShare",
          "type": "uint8"
        },
        {
          "internalType": "contract IPricingOracle",
          "name": "pricingOracle",
          "type": "address"
        },
        {
          "internalType": "address",
          "name": "communityPayable",
          "type": "address"
        },
        {
          "internalType": "address",
          "name": "communityManager",
          "type": "address"
        },
        {
          "internalType": "bool",
          "name": "hasExpiringNames",
          "type": "bool"
        },
        {
          "internalType": "bool",
          "name": "isDefaultCldResolver",
          "type": "bool"
        }
      ],
      "name": "registerCld",
      "outputs": [],
      "stateMutability": "nonpayable",
      "type": "function"
    },
    {
      "inputs": [
        {
          "internalType": "address",
          "name": "to",
          "type": "address"
        },
        {
          "internalType": "string[]",
          "name": "labels",
          "type": "string[]"
        },
        {
          "internalType": "bool",
          "name": "withReverse",
          "type": "bool"
        },
        {
          "internalType": "address",
          "name": "referer",
          "type": "address"
        },
        {
          "internalType": "uint8",
          "name": "periods",
          "type": "uint8"
        },
        {
          "internalType": "uint256",
          "name": "price",
          "type": "uint256"
        },
        {
          "internalType": "uint256",
          "name": "nonce",
          "type": "uint256"
        },
        {
          "internalType": "uint256",
          "name": "expiry",
          "type": "uint256"
        },
        {
          "internalType": "bytes",
          "name": "signature",
          "type": "bytes"
        }
      ],
      "name": "registerWithSignature",
      "outputs": [],
      "stateMutability": "payable",
      "type": "function"
    },
    {
      "inputs": [
        {
          "internalType": "uint256",
          "name": "cldId",
          "type": "uint256"
        }
      ],
      "name": "registryOf",
      "outputs": [
        {
          "internalType": "contract IRegistry",
          "name": "",
          "type": "address"
        }
      ],
      "stateMutability": "view",
      "type": "function"
    },
    {
      "inputs": [
        {
          "internalType": "string[]",
          "name": "labels",
          "type": "string[]"
        },
        {
          "internalType": "uint8",
          "name": "periods",
          "type": "uint8"
        }
      ],
      "name": "renew",
      "outputs": [],
      "stateMutability": "payable",
      "type": "function"
    },
    {
      "inputs": [],
      "name": "renounceOwnership",
      "outputs": [],
      "stateMutability": "nonpayable",
      "type": "function"
    },
    {
      "inputs": [
        {
          "internalType": "uint256",
          "name": "cldId",
          "type": "uint256"
        },
        {
          "internalType": "bool",
          "name": "requiresSignature",
          "type": "bool"
        }
      ],
      "name": "setCldSignatureRequired",
      "outputs": [],
      "stateMutability": "nonpayable",
      "type": "function"
    },
    {
      "inputs": [
        {
          "internalType": "uint256",
          "name": "cldId",
          "type": "uint256"
        },
        {
          "internalType": "contract IPricingOracle",
          "name": "oracle",
          "type": "address"
        }
      ],
      "name": "setPricingOracle",
      "outputs": [],
      "stateMutability": "nonpayable",
      "type": "function"
    },
    {
      "inputs": [],
      "name": "signer",
      "outputs": [
        {
          "internalType": "address",
          "name": "",
          "type": "address"
        }
      ],
      "stateMutability": "view",
      "type": "function"
    },
    {
      "inputs": [
        {
          "internalType": "address",
          "name": "newOwner",
          "type": "address"
        }
      ],
      "name": "transferOwnership",
      "outputs": [],
      "stateMutability": "nonpayable",
      "type": "function"
    },
    {
      "inputs": [
        {
          "internalType": "address",
          "name": "sign",
          "type": "address"
        }
      ],
      "name": "updateSigner",
      "outputs": [],
      "stateMutability": "nonpayable",
      "type": "function"
    }
  ],
  "bytecode": "0x60806040523480156200001157600080fd5b506040516200225638038062002256833981016040819052620000349162000124565b33806200005b57604051631e4fbdf760e01b81526000600482015260240160405180910390fd5b6200006681620000bb565b50600280546001600160a01b039586166001600160a01b03199182161790915560018054948616948216949094179093556003805492851692841692909217909155600480549190931691161790556200018c565b600080546001600160a01b038381166001600160a01b0319831681178455604051919092169283917f8be0079c531659141344cd1fd0a4f28419497f9722a3daafe3b4186f6b6457e09190a35050565b6001600160a01b03811681146200012157600080fd5b50565b600080600080608085870312156200013b57600080fd5b845162000148816200010b565b60208601519094506200015b816200010b565b60408601519093506200016e816200010b565b606086015190925062000181816200010b565b939692955090935050565b6120ba806200019c6000396000f3fe6080604052600436106100f35760003560e01c8063a149deac1161008a578063c681d79d11610059578063c681d79d146102b6578063e033d9bb146102d6578063f2fde38b146102f6578063fe7dbff61461031657600080fd5b8063a149deac1461020b578063a7ecd37e1461021e578063a81ce6f91461023e578063a8c86bd81461027457600080fd5b80633c128f6c116100c65780633c128f6c146101885780636aacc08f146101a8578063715018a6146101d85780638da5cb5b146101ed57600080fd5b80631a0cab9e146100f8578063238ac933146101355780632fb9fb6314610153578063381bd40114610168575b600080fd5b34801561010457600080fd5b506101186101133660046117a6565b610329565b6040516001600160a01b0390911681526020015b60405180910390f35b34801561014157600080fd5b506004546001600160a01b0316610118565b61016661016136600461181a565b610351565b005b34801561017457600080fd5b50610166610183366004611887565b610588565b34801561019457600080fd5b506101666101a33660046118d7565b6105f4565b3480156101b457600080fd5b506101c86101c33660046117a6565b6106d6565b604051901515815260200161012c565b3480156101e457600080fd5b506101666106f8565b3480156101f957600080fd5b506000546001600160a01b0316610118565b6101666102193660046119c9565b61070c565b34801561022a57600080fd5b50610166610239366004611a9a565b610882565b34801561024a57600080fd5b506101186102593660046117a6565b6000908152600560205260409020546001600160a01b031690565b34801561028057600080fd5b506102a87f391a42857851a55da4050881bd0d2e6c9978bfa7483b787e07a760028ed71a2b81565b60405190815260200161012c565b3480156102c257600080fd5b506101666102d1366004611ab7565b6108b9565b3480156102e257600080fd5b506101c86102f13660046117a6565b610bc4565b34801561030257600080fd5b50610166610311366004611a9a565b610be6565b610166610324366004611b8e565b610c3d565b600061033482610cb2565b50506000908152600660205260409020546001600160a01b031690565b61035b8383610d06565b505060006103c360008585600181811061037757610377611c18565b90506020028101906103899190611c2e565b8080601f016020809104026020016040519081016040528093929190818152602001838380828437600092019190915250610df592505050565b60008181526007602052604090205490915060ff16610416576040517f42cad659000000000000000000000000000000000000000000000000000000008152600481018290526024015b60405180910390fd5b600061042182610cb2565b9050600061048983858888600081811061043d5761043d611c18565b905060200281019061044f9190611c2e565b8080601f016020809104026020016040519081016040528093929190818152602001838380828437600092019190915250610e2a92505050565b9050816001600160a01b031663acf1a841878760008181106104ad576104ad611c18565b90506020028101906104bf9190611c2e565b6104c98789610fb1565b6040518463ffffffff1660e01b81526004016104e793929190611c75565b600060405180830381600087803b15801561050157600080fd5b505af1158015610515573d6000803e3d6000fd5b505060025460405163469e080560e11b815260048101879052600060248201526001600160a01b039091169250638d3c100a915083906044016000604051808303818588803b15801561056757600080fd5b505af115801561057b573d6000803e3d6000fd5b5050505050505050505050565b610590610fef565b61059982610cb2565b50600082815260086020908152604091829020805460ff19168415159081179091558251858152918201527ff180720f83337c340880c56f6a9fbb46eb8a31b714b00128c676a25d847fafaa91015b60405180910390a15050565b60006105ff83610cb2565b90506001600160a01b0381166341ef73b9336040517fffffffff0000000000000000000000000000000000000000000000000000000060e084901b1681526001600160a01b039091166004820152602401602060405180830381865afa15801561066d573d6000803e3d6000fd5b505050506040513d601f19601f820116820180604052508101906106919190611cae565b6106c7576040517fa97ff08a00000000000000000000000000000000000000000000000000000000815260040160405180910390fd5b6106d18383611035565b505050565b60006106e182610cb2565b505060009081526007602052604090205460ff1690565b610700610fef565b61070a6000611107565b565b6000806107198b8b610d06565b600082815260086020526040902054919350915060ff1661074d57604051631c9a177360e31b815260040160405180910390fd5b60008c83838c8c8c8c8b8d60405160200161077099989796959493929190611cef565b60405160208183030381529060405280519060200120905060006107ca6107c4837f19457468657265756d205369676e6564204d6573736167653a0a3332000000006000908152601c91909152603c902090565b86611164565b6004549091506001600160a01b038083169116146107fb5760405163f645eedf60e01b815260040160405180910390fd5b85421061081b5760405163f645eedf60e01b815260040160405180910390fd5b60008781526009602052604090205460ff161561084b5760405163f645eedf60e01b815260040160405180910390fd5b61085a8e85858e8e8e8e61118e565b5050506000938452505060096020525060409020805460ff1916600117905550505050505050565b61088a610fef565b6004805473ffffffffffffffffffffffffffffffffffffffff19166001600160a01b0392909216919091179055565b6108c1610fef565b6003546040517fe5854f480000000000000000000000000000000000000000000000000000000081526000916001600160a01b03169063e5854f489061090f908d9030908990600401611dba565b6020604051808303816000875af115801561092e573d6000803e3d6000fd5b505050506040513d601f19601f820116820180604052508101906109529190611ded565b90506000816001600160a01b03166383d48e046040518163ffffffff1660e01b8152600401600060405180830381865afa158015610994573d6000803e3d6000fd5b505050506040513d6000823e601f3d908101601f191682016040526109bc9190810190611e0a565b6000818152600560205260409020549092506001600160a01b0316159050610a10576040517f6e12e57b00000000000000000000000000000000000000000000000000000000815260040160405180910390fd5b6002546040517f0d804d400000000000000000000000000000000000000000000000000000000081526001600160a01b038481166004830152888116602483015260ff808d166044840152808e1660648401528b16608483015290911690630d804d409060a401600060405180830381600087803b158015610a9157600080fd5b505af1158015610aa5573d6000803e3d6000fd5b50506001546040517fa04d51650000000000000000000000000000000000000000000000000000000081526001600160a01b0386811660048301528715156024830152909116925063a04d51659150604401600060405180830381600087803b158015610b1157600080fd5b505af1158015610b25573d6000803e3d6000fd5b5050506000828152600560205260409020805473ffffffffffffffffffffffffffffffffffffffff19166001600160a01b038516179055508315610b7d576000818152600760205260409020805460ff191660011790555b7f5a567326466bd36d057db73b18139b6b27662a2d8f225c0c2617be54a8f8e060818c8487604051610bb29493929190611e8b565b60405180910390a161057b8188611035565b6000610bcf82610cb2565b505060009081526008602052604090205460ff1690565b610bee610fef565b6001600160a01b038116610c31576040517f1e4fbdf70000000000000000000000000000000000000000000000000000000081526000600482015260240161040d565b610c3a81611107565b50565b600080610c4a8787610d06565b600082815260086020526040902054919350915060ff1615610c7f57604051631c9a177360e31b815260040160405180910390fd5b610c8882610cb2565b506000610c96838584610e2a565b9050610ca78984848989898761118e565b505050505050505050565b6000818152600560205260408120546001600160a01b031680610d00576040517eea4de600000000000000000000000000000000000000000000000000000000815260040160405180910390fd5b92915050565b6000606060028314610d2b57604051633d36cb8d60e01b815260040160405180910390fd5b83836000818110610d3e57610d3e611c18565b9050602002810190610d509190611c2e565b9050600003610d7257604051633d36cb8d60e01b815260040160405180910390fd5b610d8a60008585600181811061037757610377611c18565b84846000818110610d9d57610d9d611c18565b9050602002810190610daf9190611c2e565b81818080601f01602080910402602001604051908101604052809392919081815260200183838082843760009201919091525095975091955050505050505b9250929050565b60008151600003610e1957604051633d36cb8d60e01b815260040160405180910390fd5b610e23828461134c565b9392505050565b6000838152600660205260408082205490517ffe2c619800000000000000000000000000000000000000000000000000000000815282916001600160a01b03169063fe2c619890610e7f908690600401611ec5565b602060405180830381865afa158015610e9c573d6000803e3d6000fd5b505050506040513d601f19601f82011682018060405250810190610ec09190611ed8565b60008681526007602052604090205490915060ff1615610f275760008460ff1611610f17576040517fddceada600000000000000000000000000000000000000000000000000000000815260040160405180910390fd5b610f2460ff851682611f07565b90505b80341015610f6a576040517f5338e5060000000000000000000000000000000000000000000000000000000081526004810182905234602482015260440161040d565b803410610fa957336108fc610f7f8334611f1e565b6040518115909202916000818181858888f19350505050158015610fa7573d6000803e3d6000fd5b505b949350505050565b60008281526007602052604081205460ff1615610fe657610fd960ff83166301e13380611f31565b63ffffffff169050610d00565b50600092915050565b6000546001600160a01b0316331461070a576040517f118cdaa700000000000000000000000000000000000000000000000000000000815233600482015260240161040d565b6001600160a01b038116611075576040517f2715c31600000000000000000000000000000000000000000000000000000000815260040160405180910390fd5b6000828152600660205260409020546001600160a01b039081169082160361109b575050565b600082815260066020908152604091829020805473ffffffffffffffffffffffffffffffffffffffff19166001600160a01b0385169081179091558251858152918201527f9c672d5bb2cafcb190c384545530db3acea27bf7a8a9184d2afc7b7b1339afd791016105e8565b600080546001600160a01b0383811673ffffffffffffffffffffffffffffffffffffffff19831681178455604051919092169283917f8be0079c531659141344cd1fd0a4f28419497f9722a3daafe3b4186f6b6457e09190a35050565b60008060008061117486866113af565b92509250925061118482826113fc565b5090949350505050565b600061119987610cb2565b604080516001808252818301909252919250600091906020808301908036833750506040805160018082528183019092529293506000929150602082015b60608152602001906001900390816111d75790505090507f391a42857851a55da4050881bd0d2e6c9978bfa7483b787e07a760028ed71a2b8260008151811061122257611222611c18565b6020026020010181815250506112378a6114eb565b8160008151811061124a5761124a611c18565b6020026020010181905250826001600160a01b03166350cf25ef8b8a85856112728f8c610fb1565b8d6040518763ffffffff1660e01b815260040161129496959493929190611f59565b6020604051808303816000875af11580156112b3573d6000803e3d6000fd5b505050506040513d601f19601f820116820180604052508101906112d79190611ed8565b5060025460405163469e080560e11b8152600481018b90526001600160a01b03888116602483015290911690638d3c100a9086906044016000604051808303818588803b15801561132757600080fd5b505af115801561133b573d6000803e3d6000fd5b505050505050505050505050505050565b600081836040516020016113609190612028565b60405160208183030381529060405280519060200120604051602001611390929190918252602082015260400190565b60408051601f1981840301815291905280516020909101209392505050565b600080600083516041036113e95760208401516040850151606086015160001a6113db88828585611501565b9550955095505050506113f5565b50508151600091506002905b9250925092565b600082600381111561141057611410612044565b03611419575050565b600182600381111561142d5761142d612044565b0361144b5760405163f645eedf60e01b815260040160405180910390fd5b600282600381111561145f5761145f612044565b03611499576040517ffce698f70000000000000000000000000000000000000000000000000000000081526004810182905260240161040d565b60038260038111156114ad576114ad612044565b036114e7576040517fd78bce0c0000000000000000000000000000000000000000000000000000000081526004810182905260240161040d565b5050565b6060610d006001600160a01b03831660146115d0565b600080807f7fffffffffffffffffffffffffffffff5d576e7357a4501ddfe92f46681b20a084111561153c57506000915060039050826115c6565b604080516000808252602082018084528a905260ff891692820192909252606081018790526080810186905260019060a0016020604051602081039080840390855afa158015611590573d6000803e3d6000fd5b5050604051601f1901519150506001600160a01b0381166115bc575060009250600191508290506115c6565b9250600091508190505b9450945094915050565b60608260006115e0846002611f07565b6115eb90600261205a565b67ffffffffffffffff811115611603576116036118fc565b6040519080825280601f01601f19166020018201604052801561162d576020820181803683370190505b5090507f30000000000000000000000000000000000000000000000000000000000000008160008151811061166457611664611c18565b60200101906001600160f81b031916908160001a9053507f7800000000000000000000000000000000000000000000000000000000000000816001815181106116af576116af611c18565b60200101906001600160f81b031916908160001a90535060006116d3856002611f07565b6116de90600161205a565b90505b6001811115611763577f303132333435363738396162636465660000000000000000000000000000000083600f166010811061171f5761171f611c18565b1a60f81b82828151811061173557611735611c18565b60200101906001600160f81b031916908160001a90535060049290921c9161175c8161206d565b90506116e1565b508115610fa9576040517fe22e27eb000000000000000000000000000000000000000000000000000000008152600481018690526024810185905260440161040d565b6000602082840312156117b857600080fd5b5035919050565b60008083601f8401126117d157600080fd5b50813567ffffffffffffffff8111156117e957600080fd5b6020830191508360208260051b8501011115610dee57600080fd5b803560ff8116811461181557600080fd5b919050565b60008060006040848603121561182f57600080fd5b833567ffffffffffffffff81111561184657600080fd5b611852868287016117bf565b9094509250611865905060208501611804565b90509250925092565b8015158114610c3a57600080fd5b80356118158161186e565b6000806040838503121561189a57600080fd5b8235915060208301356118ac8161186e565b809150509250929050565b6001600160a01b0381168114610c3a57600080fd5b8035611815816118b7565b600080604083850312156118ea57600080fd5b8235915060208301356118ac816118b7565b634e487b7160e01b600052604160045260246000fd5b604051601f8201601f1916810167ffffffffffffffff8111828210171561193b5761193b6118fc565b604052919050565b600067ffffffffffffffff82111561195d5761195d6118fc565b50601f01601f191660200190565b600061197e61197984611943565b611912565b905082815283838301111561199257600080fd5b828260208301376000602084830101529392505050565b600082601f8301126119ba57600080fd5b610e238383356020850161196b565b6000806000806000806000806000806101208b8d0312156119e957600080fd5b8a356119f4816118b7565b995060208b013567ffffffffffffffff80821115611a1157600080fd5b611a1d8e838f016117bf565b909b50995060408d01359150611a328261186e565b819850611a4160608e016118cc565b9750611a4f60808e01611804565b965060a08d0135955060c08d0135945060e08d013593506101008d0135915080821115611a7b57600080fd5b50611a888d828e016119a9565b9150509295989b9194979a5092959850565b600060208284031215611aac57600080fd5b8135610e23816118b7565b60008060008060008060008060006101208a8c031215611ad657600080fd5b893567ffffffffffffffff811115611aed57600080fd5b8a01601f81018c13611afe57600080fd5b611b0d8c82356020840161196b565b995050611b1c60208b01611804565b9750611b2a60408b01611804565b9650611b3860608b01611804565b9550611b4660808b016118cc565b9450611b5460a08b016118cc565b9350611b6260c08b016118cc565b9250611b7060e08b0161187c565b9150611b7f6101008b0161187c565b90509295985092959850929598565b60008060008060008060a08789031215611ba757600080fd5b8635611bb2816118b7565b9550602087013567ffffffffffffffff811115611bce57600080fd5b611bda89828a016117bf565b9096509450506040870135611bee8161186e565b92506060870135611bfe816118b7565b9150611c0c60808801611804565b90509295509295509295565b634e487b7160e01b600052603260045260246000fd5b6000808335601e19843603018112611c4557600080fd5b83018035915067ffffffffffffffff821115611c6057600080fd5b602001915036819003821315610dee57600080fd5b604081528260408201528284606083013760006060848301015260006060601f19601f8601168301019050826020830152949350505050565b600060208284031215611cc057600080fd5b8151610e238161186e565b60005b83811015611ce6578181015183820152602001611cce565b50506000910152565b60006bffffffffffffffffffffffff19808c60601b1683528a60148401528951611d20816034860160208e01611ccb565b808401905089151560f81b6034820152818960601b1660358201527fff000000000000000000000000000000000000000000000000000000000000008860f81b16604982015286604a82015285606a82015284608a82015260aa8101925050509a9950505050505050505050565b60008151808452611da6816020860160208601611ccb565b601f01601f19169290920160200192915050565b606081526000611dcd6060830186611d8e565b6001600160a01b0394851660208401529290931660409091015292915050565b600060208284031215611dff57600080fd5b8151610e23816118b7565b60008060408385031215611e1d57600080fd5b825167ffffffffffffffff811115611e3457600080fd5b8301601f81018513611e4557600080fd5b8051611e5361197982611943565b818152866020838501011115611e6857600080fd5b611e79826020830160208601611ccb565b60209590950151949694955050505050565b848152608060208201526000611ea46080830186611d8e565b6001600160a01b039490941660408301525090151560609091015292915050565b602081526000610e236020830184611d8e565b600060208284031215611eea57600080fd5b5051919050565b634e487b7160e01b600052601160045260246000fd5b8082028115828204841417610d0057610d00611ef1565b81810381811115610d0057610d00611ef1565b63ffffffff818116838216028082169190828114611f5157611f51611ef1565b505092915050565b6001600160a01b03871681526000602060c081840152611f7c60c0840189611d8e565b838103604085015287518082528289019183019060005b81811015611faf57835183529284019291840191600101611f93565b5050848103606086015287518082528382019250600581901b82018401848a0160005b8381101561200057601f19858403018652611fee838351611d8e565b95870195925090860190600101611fd2565b50506080870189905287151560a0880152945061201d9350505050565b979650505050505050565b6000825161203a818460208701611ccb565b9190910192915050565b634e487b7160e01b600052602160045260246000fd5b80820180821115610d0057610d00611ef1565b60008161207c5761207c611ef1565b50600019019056fea26469706673582212205f4343221cfc4ebf2ec2e6b2b386e8181a59daf6d90044f2a5cf0d594d09205964736f6c63430008180033",
  "linkReferences": {},
  "deployedLinkReferences": {}
}