{
  "_format": "hh-sol-artifact-1",
  "contractName": "NNSController",
  "sourceName": "contracts/NNSController.sol",
  "abi": [
    {
      "inputs": [
        {
          "internalType": "contract IRewarder",
          "name": "rewarder",
          "type": "address"
        },
        {
          "internalType": "contract IResolver",
          "name": "resolver",
          "type": "address"
        },
        {
          "internalType": "contract ICldFactory",
          "name": "cldFactory",
          "type": "address"
        },
        {
          "internalType": "address",
          "name": "signer_",
          "type": "address"
        }
      ],
      "stateMutability": "nonpayable",
      "type": "constructor"
    },
    {
      "inputs": [],
      "name": "CldAlreadyExists",
      "type": "error"
    },
    {
      "inputs": [],
      "name": "ECDSAInvalidSignature",
      "type": "error"
    },
    {
      "inputs": [
        {
          "internalType": "uint256",
          "name": "length",
          "type": "uint256"
        }
      ],
      "name": "ECDSAInvalidSignatureLength",
      "type": "error"
    },
    {
      "inputs": [
        {
          "internalType": "bytes32",
          "name": "s",
          "type": "bytes32"
        }
      ],
      "name": "ECDSAInvalidSignatureS",
      "type": "error"
    },
    {
      "inputs": [
        {
          "internalType": "uint256",
          "name": "required",
          "type": "uint256"
        },
        {
          "internalType": "uint256",
          "name": "provided",
          "type": "uint256"
        }
      ],
      "name": "InsufficientTransferAmount",
      "type": "error"
    },
    {
      "inputs": [],
      "name": "InvalidCld",
      "type": "error"
    },
    {
      "inputs": [],
      "name": "InvalidLabel",
      "type": "error"
    },
    {
      "inputs": [],
      "name": "InvalidPricingOracle",
      "type": "error"
    },
    {
      "inputs": [],
      "name": "InvalidRegistrationPeriod",
      "type": "error"
    },
    {
      "inputs": [
        {
          "internalType": "uint256",
          "name": "cldId",
          "type": "uint256"
        }
      ],
      "name": "NonExpiringCld",
      "type": "error"
    },
    {
      "inputs": [
        {
          "internalType": "address",
          "name": "owner",
          "type": "address"
        }
      ],
      "name": "OwnableInvalidOwner",
      "type": "error"
    },
    {
      "inputs": [
        {
          "internalType": "address",
          "name": "account",
          "type": "address"
        }
      ],
      "name": "OwnableUnauthorizedAccount",
      "type": "error"
    },
    {
      "inputs": [
        {
          "internalType": "uint256",
          "name": "value",
          "type": "uint256"
        },
        {
          "internalType": "uint256",
          "name": "length",
          "type": "uint256"
        }
      ],
      "name": "StringsInsufficientHexLength",
      "type": "error"
    },
    {
      "inputs": [],
      "name": "UnauthorizedAccount",
      "type": "error"
    },
    {
      "anonymous": false,
      "inputs": [
        {
          "indexed": false,
          "internalType": "uint256",
          "name": "cldId",
          "type": "uint256"
        },
        {
          "indexed": false,
          "internalType": "string",
          "name": "name",
          "type": "string"
        },
        {
          "indexed": false,
          "internalType": "address",
          "name": "registry",
          "type": "address"
        },
        {
          "indexed": false,
          "internalType": "bool",
          "name": "hasExpiringNames",
          "type": "bool"
        }
      ],
      "name": "CldRegistered",
      "type": "event"
    },
    {
      "anonymous": false,
      "inputs": [
        {
          "indexed": false,
          "internalType": "uint256",
          "name": "cldId",
          "type": "uint256"
        },
        {
          "indexed": false,
          "internalType": "bool",
          "name": "required",
          "type": "bool"
        }
      ],
      "name": "CldSignatureRequiredChanged",
      "type": "event"
    },
    {
      "anonymous": false,
      "inputs": [
        {
          "indexed": true,
          "internalType": "address",
          "name": "previousOwner",
          "type": "address"
        },
        {
          "indexed": true,
          "internalType": "address",
          "name": "newOwner",
          "type": "address"
        }
      ],
      "name": "OwnershipTransferred",
      "type": "event"
    },
    {
      "anonymous": false,
      "inputs": [
        {
          "indexed": false,
          "internalType": "uint256",
          "name": "cldId",
          "type": "uint256"
        },
        {
          "indexed": false,
          "internalType": "address",
          "name": "oracle",
          "type": "address"
        }
      ],
      "name": "PricingOracleChanged",
      "type": "event"
    },
    {
      "inputs": [],
      "name": "RECORD_CRYPTO_ETH_ADDRESS",
      "outputs": [
        {
          "internalType": "uint256",
          "name": "",
          "type": "uint256"
        }
      ],
      "stateMutability": "view",
      "type": "function"
    },
    {
      "inputs": [
        {
          "internalType": "uint256",
          "name": "cldId",
          "type": "uint256"
        }
      ],
      "name": "isExpiringCLD",
      "outputs": [
        {
          "internalType": "bool",
          "name": "",
          "type": "bool"
        }
      ],
      "stateMutability": "view",
      "type": "function"
    },
    {
      "inputs": [
        {
          "internalType": "uint256",
          "name": "cldId",
          "type": "uint256"
        }
      ],
      "name": "isSignatureRequired",
      "outputs": [
        {
          "internalType": "bool",
          "name": "",
          "type": "bool"
        }
      ],
      "stateMutability": "view",
      "type": "function"
    },
    {
      "inputs": [],
      "name": "owner",
      "outputs": [
        {
          "internalType": "address",
          "name": "",
          "type": "address"
        }
      ],
      "stateMutability": "view",
      "type": "function"
    },
    {
      "inputs": [
        {
          "internalType": "uint256",
          "name": "cldId",
          "type": "uint256"
        }
      ],
      "name": "pricingOracleOf",
      "outputs": [
        {
          "internalType": "contract IPricingOracle",
          "name": "",
          "type": "address"
        }
      ],
      "stateMutability": "view",
      "type": "function"
    },
    {
      "inputs": [
        {
          "internalType": "address",
          "name": "to",
          "type": "address"
        },
        {
          "internalType": "string[]",
          "name": "labels",
          "type": "string[]"
        },
        {
          "internalType": "bool",
          "name": "withReverse",
          "type": "bool"
        },
        {
          "internalType": "address",
          "name": "referer",
          "type": "address"
        },
        {
          "internalType": "uint8",
          "name": "periods",
          "type": "uint8"
        }
      ],
      "name": "register",
      "outputs": [],
      "stateMutability": "payable",
      "type": "function"
    },
    {
      "inputs": [
        {
          "internalType": "string",
          "name": "name",
          "type": "string"
        },
        {
          "internalType": "uint8",
          "name": "communityReward",
          "type": "uint8"
        },
        {
          "internalType": "uint8",
          "name": "referralReward",
          "type": "uint8"
        },
        {
          "internalType": "contract IPricingOracle",
          "name": "pricingOracle",
          "type": "address"
        },
        {
          "internalType": "address",
          "name": "communityPayable",
          "type": "address"
        },
        {
          "internalType": "address",
          "name": "communityManager",
          "type": "address"
        },
        {
          "internalType": "bool",
          "name": "hasExpiringNames",
          "type": "bool"
        },
        {
          "internalType": "bool",
          "name": "isDefaultCldResolver",
          "type": "bool"
        }
      ],
      "name": "registerCld",
      "outputs": [],
      "stateMutability": "nonpayable",
      "type": "function"
    },
    {
      "inputs": [
        {
          "internalType": "address",
          "name": "to",
          "type": "address"
        },
        {
          "internalType": "string[]",
          "name": "labels",
          "type": "string[]"
        },
        {
          "internalType": "bool",
          "name": "withReverse",
          "type": "bool"
        },
        {
          "internalType": "address",
          "name": "referer",
          "type": "address"
        },
        {
          "internalType": "uint8",
          "name": "periods",
          "type": "uint8"
        },
        {
          "internalType": "uint256",
          "name": "nonce",
          "type": "uint256"
        },
        {
          "internalType": "uint256",
          "name": "expiry",
          "type": "uint256"
        },
        {
          "internalType": "bytes",
          "name": "signature",
          "type": "bytes"
        }
      ],
      "name": "registerWithSignature",
      "outputs": [],
      "stateMutability": "payable",
      "type": "function"
    },
    {
      "inputs": [
        {
          "internalType": "uint256",
          "name": "cldId",
          "type": "uint256"
        }
      ],
      "name": "registryOf",
      "outputs": [
        {
          "internalType": "contract IRegistry",
          "name": "",
          "type": "address"
        }
      ],
      "stateMutability": "view",
      "type": "function"
    },
    {
      "inputs": [
        {
          "internalType": "string[]",
          "name": "labels",
          "type": "string[]"
        },
        {
          "internalType": "uint8",
          "name": "periods",
          "type": "uint8"
        }
      ],
      "name": "renew",
      "outputs": [],
      "stateMutability": "payable",
      "type": "function"
    },
    {
      "inputs": [],
      "name": "renounceOwnership",
      "outputs": [],
      "stateMutability": "nonpayable",
      "type": "function"
    },
    {
      "inputs": [
        {
          "internalType": "uint256",
          "name": "cldId",
          "type": "uint256"
        },
        {
          "internalType": "bool",
          "name": "requiresSignature",
          "type": "bool"
        }
      ],
      "name": "setCldSignatureRequired",
      "outputs": [],
      "stateMutability": "nonpayable",
      "type": "function"
    },
    {
      "inputs": [
        {
          "internalType": "uint256",
          "name": "cldId",
          "type": "uint256"
        },
        {
          "internalType": "contract IPricingOracle",
          "name": "oracle",
          "type": "address"
        }
      ],
      "name": "setPricingOracle",
      "outputs": [],
      "stateMutability": "nonpayable",
      "type": "function"
    },
    {
      "inputs": [],
      "name": "signer",
      "outputs": [
        {
          "internalType": "address",
          "name": "",
          "type": "address"
        }
      ],
      "stateMutability": "view",
      "type": "function"
    },
    {
      "inputs": [
        {
          "internalType": "address",
          "name": "newOwner",
          "type": "address"
        }
      ],
      "name": "transferOwnership",
      "outputs": [],
      "stateMutability": "nonpayable",
      "type": "function"
    },
    {
      "inputs": [
        {
          "internalType": "address",
          "name": "sign",
          "type": "address"
        }
      ],
      "name": "updateSigner",
      "outputs": [],
      "stateMutability": "nonpayable",
      "type": "function"
    }
  ],
  "bytecode": "0x60806040523480156200001157600080fd5b50604051620021c2380380620021c2833981016040819052620000349162000124565b33806200005b57604051631e4fbdf760e01b81526000600482015260240160405180910390fd5b6200006681620000bb565b50600280546001600160a01b039586166001600160a01b03199182161790915560018054948616948216949094179093556003805492851692841692909217909155600480549190931691161790556200018c565b600080546001600160a01b038381166001600160a01b0319831681178455604051919092169283917f8be0079c531659141344cd1fd0a4f28419497f9722a3daafe3b4186f6b6457e09190a35050565b6001600160a01b03811681146200012157600080fd5b50565b600080600080608085870312156200013b57600080fd5b845162000148816200010b565b60208601519094506200015b816200010b565b60408601519093506200016e816200010b565b606086015190925062000181816200010b565b939692955090935050565b612026806200019c6000396000f3fe6080604052600436106100f35760003560e01c8063882f35541161008a578063a8c86bd811610059578063a8c86bd814610294578063e033d9bb146102d6578063f2fde38b146102f6578063fe7dbff61461031657600080fd5b8063882f35541461020d5780638da5cb5b14610220578063a7ecd37e1461023e578063a81ce6f91461025e57600080fd5b8063381bd401116100c6578063381bd401146101885780633c128f6c146101a85780636aacc08f146101c8578063715018a6146101f857600080fd5b80631a0cab9e146100f8578063238ac933146101355780632759a310146101535780632fb9fb6314610175575b600080fd5b34801561010457600080fd5b50610118610113366004611739565b610329565b6040516001600160a01b0390911681526020015b60405180910390f35b34801561014157600080fd5b506004546001600160a01b0316610118565b34801561015f57600080fd5b5061017361016e36600461184e565b610351565b005b61017361018336600461195d565b610660565b34801561019457600080fd5b506101736101a33660046119b1565b610897565b3480156101b457600080fd5b506101736101c33660046119e1565b610903565b3480156101d457600080fd5b506101e86101e3366004611739565b6109e5565b604051901515815260200161012c565b34801561020457600080fd5b50610173610a07565b61017361021b366004611a06565b610a1b565b34801561022c57600080fd5b506000546001600160a01b0316610118565b34801561024a57600080fd5b50610173610259366004611ae4565b610b5d565b34801561026a57600080fd5b50610118610279366004611739565b6000908152600560205260409020546001600160a01b031690565b3480156102a057600080fd5b506102c87f391a42857851a55da4050881bd0d2e6c9978bfa7483b787e07a760028ed71a2b81565b60405190815260200161012c565b3480156102e257600080fd5b506101e86102f1366004611739565b610b94565b34801561030257600080fd5b50610173610311366004611ae4565b610bb6565b610173610324366004611b01565b610c0d565b600061033482610c36565b50506000908152600660205260409020546001600160a01b031690565b610359610c8a565b6003546040517fe5854f480000000000000000000000000000000000000000000000000000000081526000916001600160a01b03169063e5854f48906103a7908c9030908990600401611bdb565b6020604051808303816000875af11580156103c6573d6000803e3d6000fd5b505050506040513d601f19601f820116820180604052508101906103ea9190611c0e565b90506000816001600160a01b03166383d48e046040518163ffffffff1660e01b8152600401600060405180830381865afa15801561042c573d6000803e3d6000fd5b505050506040513d6000823e601f3d908101601f191682016040526104549190810190611c2b565b6000818152600560205260409020549092506001600160a01b03161590506104a8576040517f6e12e57b00000000000000000000000000000000000000000000000000000000815260040160405180910390fd5b6002546040517f436e5d660000000000000000000000000000000000000000000000000000000081526001600160a01b038481166004830152888116602483015260ff808c1660448401528c1660648301529091169063436e5d6690608401600060405180830381600087803b15801561052157600080fd5b505af1158015610535573d6000803e3d6000fd5b50506001546040517fa04d51650000000000000000000000000000000000000000000000000000000081526001600160a01b0386811660048301528715156024830152909116925063a04d51659150604401600060405180830381600087803b1580156105a157600080fd5b505af11580156105b5573d6000803e3d6000fd5b5050506000828152600560205260409020805473ffffffffffffffffffffffffffffffffffffffff19166001600160a01b03851617905550831561060d576000818152600760205260409020805460ff191660011790555b7f5a567326466bd36d057db73b18139b6b27662a2d8f225c0c2617be54a8f8e060818b84876040516106429493929190611cac565b60405180910390a16106548188610cd0565b50505050505050505050565b61066a8383610da2565b505060006106d260008585600181811061068657610686611ce6565b90506020028101906106989190611cfc565b8080601f016020809104026020016040519081016040528093929190818152602001838380828437600092019190915250610e9192505050565b60008181526007602052604090205490915060ff16610725576040517f42cad659000000000000000000000000000000000000000000000000000000008152600481018290526024015b60405180910390fd5b600061073082610c36565b9050600061079883858888600081811061074c5761074c611ce6565b905060200281019061075e9190611cfc565b8080601f016020809104026020016040519081016040528093929190818152602001838380828437600092019190915250610ec692505050565b9050816001600160a01b031663acf1a841878760008181106107bc576107bc611ce6565b90506020028101906107ce9190611cfc565b6107d8878961104d565b6040518463ffffffff1660e01b81526004016107f693929190611d43565b600060405180830381600087803b15801561081057600080fd5b505af1158015610824573d6000803e3d6000fd5b505060025460405163469e080560e11b815260048101879052600060248201526001600160a01b039091169250638d3c100a915083906044016000604051808303818588803b15801561087657600080fd5b505af115801561088a573d6000803e3d6000fd5b5050505050505050505050565b61089f610c8a565b6108a882610c36565b50600082815260086020908152604091829020805460ff19168415159081179091558251858152918201527ff180720f83337c340880c56f6a9fbb46eb8a31b714b00128c676a25d847fafaa91015b60405180910390a15050565b600061090e83610c36565b90506001600160a01b0381166341ef73b9336040517fffffffff0000000000000000000000000000000000000000000000000000000060e084901b1681526001600160a01b039091166004820152602401602060405180830381865afa15801561097c573d6000803e3d6000fd5b505050506040513d601f19601f820116820180604052508101906109a09190611d7c565b6109d6576040517fa97ff08a00000000000000000000000000000000000000000000000000000000815260040160405180910390fd5b6109e08383610cd0565b505050565b60006109f082610c36565b505060009081526007602052604090205460ff1690565b610a0f610c8a565b610a19600061108b565b565b600080610a288a8a610da2565b9150915060008b83838b8b8b8a8c604051602001610a4d989796959493929190611d99565b6040516020818303038152906040528051906020012090506000610aa7610aa1837f19457468657265756d205369676e6564204d6573736167653a0a3332000000006000908152601c91909152603c902090565b866110e8565b6004549091506001600160a01b03808316911614610ad85760405163f645eedf60e01b815260040160405180910390fd5b854210610af85760405163f645eedf60e01b815260040160405180910390fd5b60008781526009602052604090205460ff1615610b285760405163f645eedf60e01b815260040160405180910390fd5b610b368d85858d8d8d611112565b5050506000938452505060096020525060409020805460ff19166001179055505050505050565b610b65610c8a565b6004805473ffffffffffffffffffffffffffffffffffffffff19166001600160a01b0392909216919091179055565b6000610b9f82610c36565b505060009081526008602052604090205460ff1690565b610bbe610c8a565b6001600160a01b038116610c01576040517f1e4fbdf70000000000000000000000000000000000000000000000000000000081526000600482015260240161071c565b610c0a8161108b565b50565b600080610c1a8787610da2565b91509150610c2c888383888888611112565b5050505050505050565b6000818152600560205260408120546001600160a01b031680610c84576040517eea4de600000000000000000000000000000000000000000000000000000000815260040160405180910390fd5b92915050565b6000546001600160a01b03163314610a19576040517f118cdaa700000000000000000000000000000000000000000000000000000000815233600482015260240161071c565b6001600160a01b038116610d10576040517f2715c31600000000000000000000000000000000000000000000000000000000815260040160405180910390fd5b6000828152600660205260409020546001600160a01b0390811690821603610d36575050565b600082815260066020908152604091829020805473ffffffffffffffffffffffffffffffffffffffff19166001600160a01b0385169081179091558251858152918201527f9c672d5bb2cafcb190c384545530db3acea27bf7a8a9184d2afc7b7b1339afd791016108f7565b6000606060028314610dc757604051633d36cb8d60e01b815260040160405180910390fd5b83836000818110610dda57610dda611ce6565b9050602002810190610dec9190611cfc565b9050600003610e0e57604051633d36cb8d60e01b815260040160405180910390fd5b610e2660008585600181811061068657610686611ce6565b84846000818110610e3957610e39611ce6565b9050602002810190610e4b9190611cfc565b81818080601f01602080910402602001604051908101604052809392919081815260200183838082843760009201919091525095975091955050505050505b9250929050565b60008151600003610eb557604051633d36cb8d60e01b815260040160405180910390fd5b610ebf82846112df565b9392505050565b6000838152600660205260408082205490517ffe2c619800000000000000000000000000000000000000000000000000000000815282916001600160a01b03169063fe2c619890610f1b908690600401611e31565b602060405180830381865afa158015610f38573d6000803e3d6000fd5b505050506040513d601f19601f82011682018060405250810190610f5c9190611e44565b60008681526007602052604090205490915060ff1615610fc35760008460ff1611610fb3576040517fddceada600000000000000000000000000000000000000000000000000000000815260040160405180910390fd5b610fc060ff851682611e73565b90505b80341015611006576040517f5338e5060000000000000000000000000000000000000000000000000000000081526004810182905234602482015260440161071c565b80341061104557336108fc61101b8334611e8a565b6040518115909202916000818181858888f19350505050158015611043573d6000803e3d6000fd5b505b949350505050565b60008281526007602052604081205460ff16156110825761107560ff83166301e13380611e9d565b63ffffffff169050610c84565b50600092915050565b600080546001600160a01b0383811673ffffffffffffffffffffffffffffffffffffffff19831681178455604051919092169283917f8be0079c531659141344cd1fd0a4f28419497f9722a3daafe3b4186f6b6457e09190a35050565b6000806000806110f88686611342565b925092509250611108828261138f565b5090949350505050565b600061111d86610c36565b9050600061112c878488610ec6565b604080516001808252818301909252919250600091906020808301908036833750506040805160018082528183019092529293506000929150602082015b606081526020019060019003908161116a5790505090507f391a42857851a55da4050881bd0d2e6c9978bfa7483b787e07a760028ed71a2b826000815181106111b5576111b5611ce6565b6020026020010181815250506111ca8a61147e565b816000815181106111dd576111dd611ce6565b6020026020010181905250836001600160a01b03166350cf25ef8b8a85856112058f8c61104d565b8d6040518763ffffffff1660e01b815260040161122796959493929190611ec5565b6020604051808303816000875af1158015611246573d6000803e3d6000fd5b505050506040513d601f19601f8201168201806040525081019061126a9190611e44565b5060025460405163469e080560e11b8152600481018b90526001600160a01b03888116602483015290911690638d3c100a9085906044016000604051808303818588803b1580156112ba57600080fd5b505af11580156112ce573d6000803e3d6000fd5b505050505050505050505050505050565b600081836040516020016112f39190611f94565b60405160208183030381529060405280519060200120604051602001611323929190918252602082015260400190565b60408051601f1981840301815291905280516020909101209392505050565b6000806000835160410361137c5760208401516040850151606086015160001a61136e88828585611494565b955095509550505050611388565b50508151600091506002905b9250925092565b60008260038111156113a3576113a3611fb0565b036113ac575050565b60018260038111156113c0576113c0611fb0565b036113de5760405163f645eedf60e01b815260040160405180910390fd5b60028260038111156113f2576113f2611fb0565b0361142c576040517ffce698f70000000000000000000000000000000000000000000000000000000081526004810182905260240161071c565b600382600381111561144057611440611fb0565b0361147a576040517fd78bce0c0000000000000000000000000000000000000000000000000000000081526004810182905260240161071c565b5050565b6060610c846001600160a01b0383166014611563565b600080807f7fffffffffffffffffffffffffffffff5d576e7357a4501ddfe92f46681b20a08411156114cf5750600091506003905082611559565b604080516000808252602082018084528a905260ff891692820192909252606081018790526080810186905260019060a0016020604051602081039080840390855afa158015611523573d6000803e3d6000fd5b5050604051601f1901519150506001600160a01b03811661154f57506000925060019150829050611559565b9250600091508190505b9450945094915050565b6060826000611573846002611e73565b61157e906002611fc6565b67ffffffffffffffff81111561159657611596611752565b6040519080825280601f01601f1916602001820160405280156115c0576020820181803683370190505b5090507f3000000000000000000000000000000000000000000000000000000000000000816000815181106115f7576115f7611ce6565b60200101906001600160f81b031916908160001a9053507f78000000000000000000000000000000000000000000000000000000000000008160018151811061164257611642611ce6565b60200101906001600160f81b031916908160001a9053506000611666856002611e73565b611671906001611fc6565b90505b60018111156116f6577f303132333435363738396162636465660000000000000000000000000000000083600f16601081106116b2576116b2611ce6565b1a60f81b8282815181106116c8576116c8611ce6565b60200101906001600160f81b031916908160001a90535060049290921c916116ef81611fd9565b9050611674565b508115611045576040517fe22e27eb000000000000000000000000000000000000000000000000000000008152600481018690526024810185905260440161071c565b60006020828403121561174b57600080fd5b5035919050565b634e487b7160e01b600052604160045260246000fd5b604051601f8201601f1916810167ffffffffffffffff8111828210171561179157611791611752565b604052919050565b600067ffffffffffffffff8211156117b3576117b3611752565b50601f01601f191660200190565b60006117d46117cf84611799565b611768565b90508281528383830111156117e857600080fd5b828260208301376000602084830101529392505050565b803560ff8116811461181057600080fd5b919050565b6001600160a01b0381168114610c0a57600080fd5b803561181081611815565b8015158114610c0a57600080fd5b803561181081611835565b600080600080600080600080610100898b03121561186b57600080fd5b883567ffffffffffffffff81111561188257600080fd5b8901601f81018b1361189357600080fd5b6118a28b8235602084016117c1565b9850506118b160208a016117ff565b96506118bf60408a016117ff565b955060608901356118cf81611815565b945060808901356118df81611815565b93506118ed60a08a0161182a565b92506118fb60c08a01611843565b915061190960e08a01611843565b90509295985092959890939650565b60008083601f84011261192a57600080fd5b50813567ffffffffffffffff81111561194257600080fd5b6020830191508360208260051b8501011115610e8a57600080fd5b60008060006040848603121561197257600080fd5b833567ffffffffffffffff81111561198957600080fd5b61199586828701611918565b90945092506119a89050602085016117ff565b90509250925092565b600080604083850312156119c457600080fd5b8235915060208301356119d681611835565b809150509250929050565b600080604083850312156119f457600080fd5b8235915060208301356119d681611815565b60008060008060008060008060006101008a8c031215611a2557600080fd5b8935611a3081611815565b985060208a013567ffffffffffffffff80821115611a4d57600080fd5b611a598d838e01611918565b909a50985060408c01359150611a6e82611835565b90965060608b013590611a8082611815565b819650611a8f60808d016117ff565b955060a08c0135945060c08c0135935060e08c0135915080821115611ab357600080fd5b508a01601f81018c13611ac557600080fd5b611ad48c8235602084016117c1565b9150509295985092959850929598565b600060208284031215611af657600080fd5b8135610ebf81611815565b60008060008060008060a08789031215611b1a57600080fd5b8635611b2581611815565b9550602087013567ffffffffffffffff811115611b4157600080fd5b611b4d89828a01611918565b9096509450506040870135611b6181611835565b92506060870135611b7181611815565b9150611b7f608088016117ff565b90509295509295509295565b60005b83811015611ba6578181015183820152602001611b8e565b50506000910152565b60008151808452611bc7816020860160208601611b8b565b601f01601f19169290920160200192915050565b606081526000611bee6060830186611baf565b6001600160a01b0394851660208401529290931660409091015292915050565b600060208284031215611c2057600080fd5b8151610ebf81611815565b60008060408385031215611c3e57600080fd5b825167ffffffffffffffff811115611c5557600080fd5b8301601f81018513611c6657600080fd5b8051611c746117cf82611799565b818152866020838501011115611c8957600080fd5b611c9a826020830160208601611b8b565b60209590950151949694955050505050565b848152608060208201526000611cc56080830186611baf565b6001600160a01b039490941660408301525090151560609091015292915050565b634e487b7160e01b600052603260045260246000fd5b6000808335601e19843603018112611d1357600080fd5b83018035915067ffffffffffffffff821115611d2e57600080fd5b602001915036819003821315610e8a57600080fd5b604081528260408201528284606083013760006060848301015260006060601f19601f8601168301019050826020830152949350505050565b600060208284031215611d8e57600080fd5b8151610ebf81611835565b60006bffffffffffffffffffffffff19808b60601b1683528960148401528851611dca816034860160208d01611b8b565b808401905088151560f81b6034820152818860601b1660358201527fff000000000000000000000000000000000000000000000000000000000000008760f81b16604982015285604a82015284606a820152608a8101925050509998505050505050505050565b602081526000610ebf6020830184611baf565b600060208284031215611e5657600080fd5b5051919050565b634e487b7160e01b600052601160045260246000fd5b8082028115828204841417610c8457610c84611e5d565b81810381811115610c8457610c84611e5d565b63ffffffff818116838216028082169190828114611ebd57611ebd611e5d565b505092915050565b6001600160a01b03871681526000602060c081840152611ee860c0840189611baf565b838103604085015287518082528289019183019060005b81811015611f1b57835183529284019291840191600101611eff565b5050848103606086015287518082528382019250600581901b82018401848a0160005b83811015611f6c57601f19858403018652611f5a838351611baf565b95870195925090860190600101611f3e565b50506080870189905287151560a08801529450611f899350505050565b979650505050505050565b60008251611fa6818460208701611b8b565b9190910192915050565b634e487b7160e01b600052602160045260246000fd5b80820180821115610c8457610c84611e5d565b600081611fe857611fe8611e5d565b50600019019056fea26469706673582212203d6ae88c5851495b9415d182eec329683009d56895756af7983a9eb4fe97956e64736f6c63430008180033",
  "linkReferences": {},
  "deployedLinkReferences": {}
}