{
  "_format": "hh-sol-artifact-1",
  "contractName": "USDPricingOracle",
  "sourceName": "contracts/pricing/USDPricingOracle.sol",
  "abi": [
    {
      "inputs": [
        {
          "internalType": "uint256[]",
          "name": "prices",
          "type": "uint256[]"
        },
        {
          "internalType": "contract IAggregator",
          "name": "aggregator",
          "type": "address"
        }
      ],
      "stateMutability": "nonpayable",
      "type": "constructor"
    },
    {
      "inputs": [
        {
          "internalType": "address",
          "name": "owner",
          "type": "address"
        }
      ],
      "name": "OwnableInvalidOwner",
      "type": "error"
    },
    {
      "inputs": [
        {
          "internalType": "address",
          "name": "account",
          "type": "address"
        }
      ],
      "name": "OwnableUnauthorizedAccount",
      "type": "error"
    },
    {
      "anonymous": false,
      "inputs": [
        {
          "indexed": true,
          "internalType": "address",
          "name": "previousOwner",
          "type": "address"
        },
        {
          "indexed": true,
          "internalType": "address",
          "name": "newOwner",
          "type": "address"
        }
      ],
      "name": "OwnershipTransferred",
      "type": "event"
    },
    {
      "inputs": [],
      "name": "owner",
      "outputs": [
        {
          "internalType": "address",
          "name": "",
          "type": "address"
        }
      ],
      "stateMutability": "view",
      "type": "function"
    },
    {
      "inputs": [
        {
          "internalType": "string",
          "name": "name",
          "type": "string"
        }
      ],
      "name": "price",
      "outputs": [
        {
          "internalType": "uint256",
          "name": "",
          "type": "uint256"
        }
      ],
      "stateMutability": "view",
      "type": "function"
    },
    {
      "inputs": [],
      "name": "renounceOwnership",
      "outputs": [],
      "stateMutability": "nonpayable",
      "type": "function"
    },
    {
      "inputs": [
        {
          "internalType": "uint256[]",
          "name": "prices",
          "type": "uint256[]"
        }
      ],
      "name": "setPrices",
      "outputs": [],
      "stateMutability": "nonpayable",
      "type": "function"
    },
    {
      "inputs": [
        {
          "internalType": "address",
          "name": "newOwner",
          "type": "address"
        }
      ],
      "name": "transferOwnership",
      "outputs": [],
      "stateMutability": "nonpayable",
      "type": "function"
    }
  ],
  "bytecode": "0x60806040523480156200001157600080fd5b506040516200129d3803806200129d833981810160405281019062000037919062000493565b33600073ffffffffffffffffffffffffffffffffffffffff168173ffffffffffffffffffffffffffffffffffffffff1603620000ad5760006040517f1e4fbdf7000000000000000000000000000000000000000000000000000000008152600401620000a491906200050a565b60405180910390fd5b620000be816200012160201b60201c565b508160019080519060200190620000d7929190620001e5565b5080600260006101000a81548173ffffffffffffffffffffffffffffffffffffffff021916908373ffffffffffffffffffffffffffffffffffffffff160217905550505062000527565b60008060009054906101000a900473ffffffffffffffffffffffffffffffffffffffff169050816000806101000a81548173ffffffffffffffffffffffffffffffffffffffff021916908373ffffffffffffffffffffffffffffffffffffffff1602179055508173ffffffffffffffffffffffffffffffffffffffff168173ffffffffffffffffffffffffffffffffffffffff167f8be0079c531659141344cd1fd0a4f28419497f9722a3daafe3b4186f6b6457e060405160405180910390a35050565b82805482825590600052602060002090810192821562000224579160200282015b828111156200022357825182559160200191906001019062000206565b5b50905062000233919062000237565b5090565b5b808211156200025257600081600090555060010162000238565b5090565b6000604051905090565b600080fd5b600080fd5b600080fd5b6000601f19601f8301169050919050565b7f4e487b7100000000000000000000000000000000000000000000000000000000600052604160045260246000fd5b620002ba826200026f565b810181811067ffffffffffffffff82111715620002dc57620002db62000280565b5b80604052505050565b6000620002f162000256565b9050620002ff8282620002af565b919050565b600067ffffffffffffffff82111562000322576200032162000280565b5b602082029050602081019050919050565b600080fd5b6000819050919050565b6200034d8162000338565b81146200035957600080fd5b50565b6000815190506200036d8162000342565b92915050565b60006200038a620003848462000304565b620002e5565b90508083825260208201905060208402830185811115620003b057620003af62000333565b5b835b81811015620003dd5780620003c888826200035c565b845260208401935050602081019050620003b2565b5050509392505050565b600082601f830112620003ff57620003fe6200026a565b5b81516200041184826020860162000373565b91505092915050565b600073ffffffffffffffffffffffffffffffffffffffff82169050919050565b600062000447826200041a565b9050919050565b60006200045b826200043a565b9050919050565b6200046d816200044e565b81146200047957600080fd5b50565b6000815190506200048d8162000462565b92915050565b60008060408385031215620004ad57620004ac62000260565b5b600083015167ffffffffffffffff811115620004ce57620004cd62000265565b5b620004dc85828601620003e7565b9250506020620004ef858286016200047c565b9150509250929050565b62000504816200043a565b82525050565b6000602082019050620005216000830184620004f9565b92915050565b610d6680620005376000396000f3fe608060405234801561001057600080fd5b50600436106100575760003560e01c8063715018a61461005c57806379cf92d3146100665780638da5cb5b14610082578063f2fde38b146100a0578063fe2c6198146100bc575b600080fd5b6100646100ec565b005b610080600480360381019061007b919061070b565b610100565b005b61008a610122565b6040516100979190610795565b60405180910390f35b6100ba60048036038101906100b591906107dc565b61014b565b005b6100d660048036038101906100d19190610864565b6101d1565b6040516100e391906108c0565b60405180910390f35b6100f46103ab565b6100fe6000610432565b565b6101086103ab565b806001908051906020019061011e9291906104fe565b5050565b60008060009054906101000a900473ffffffffffffffffffffffffffffffffffffffff16905090565b6101536103ab565b600073ffffffffffffffffffffffffffffffffffffffff168173ffffffffffffffffffffffffffffffffffffffff16036101c55760006040517f1e4fbdf70000000000000000000000000000000000000000000000000000000081526004016101bc9190610795565b60405180910390fd5b6101ce81610432565b50565b6000806001848490506101e4919061090a565b905060018054905081106102065760018080549050610203919061090a565b90505b6000600260009054906101000a900473ffffffffffffffffffffffffffffffffffffffff1673ffffffffffffffffffffffffffffffffffffffff1663313ce5676040518163ffffffff1660e01b8152600401602060405180830381865afa158015610275573d6000803e3d6000fd5b505050506040513d601f19601f820116820180604052508101906102999190610977565b90506000600260009054906101000a900473ffffffffffffffffffffffffffffffffffffffff1673ffffffffffffffffffffffffffffffffffffffff1663feaf968c6040518163ffffffff1660e01b815260040160a060405180830381865afa15801561030a573d6000803e3d6000fd5b505050506040513d601f19601f8201168201806040525081019061032e9190610a31565b50505091505060008260126103439190610aac565b600a61034f9190610c14565b8261035a9190610c5f565b905060006001858154811061037257610371610ca1565b5b9060005260206000200154905081670de0b6b3a7640000826103949190610c5f565b61039e9190610cff565b9550505050505092915050565b6103b36104f6565b73ffffffffffffffffffffffffffffffffffffffff166103d1610122565b73ffffffffffffffffffffffffffffffffffffffff1614610430576103f46104f6565b6040517f118cdaa70000000000000000000000000000000000000000000000000000000081526004016104279190610795565b60405180910390fd5b565b60008060009054906101000a900473ffffffffffffffffffffffffffffffffffffffff169050816000806101000a81548173ffffffffffffffffffffffffffffffffffffffff021916908373ffffffffffffffffffffffffffffffffffffffff1602179055508173ffffffffffffffffffffffffffffffffffffffff168173ffffffffffffffffffffffffffffffffffffffff167f8be0079c531659141344cd1fd0a4f28419497f9722a3daafe3b4186f6b6457e060405160405180910390a35050565b600033905090565b82805482825590600052602060002090810192821561053a579160200282015b8281111561053957825182559160200191906001019061051e565b5b509050610547919061054b565b5090565b5b8082111561056457600081600090555060010161054c565b5090565b6000604051905090565b600080fd5b600080fd5b600080fd5b6000601f19601f8301169050919050565b7f4e487b7100000000000000000000000000000000000000000000000000000000600052604160045260246000fd5b6105ca82610581565b810181811067ffffffffffffffff821117156105e9576105e8610592565b5b80604052505050565b60006105fc610568565b905061060882826105c1565b919050565b600067ffffffffffffffff82111561062857610627610592565b5b602082029050602081019050919050565b600080fd5b6000819050919050565b6106518161063e565b811461065c57600080fd5b50565b60008135905061066e81610648565b92915050565b60006106876106828461060d565b6105f2565b905080838252602082019050602084028301858111156106aa576106a9610639565b5b835b818110156106d357806106bf888261065f565b8452602084019350506020810190506106ac565b5050509392505050565b600082601f8301126106f2576106f161057c565b5b8135610702848260208601610674565b91505092915050565b60006020828403121561072157610720610572565b5b600082013567ffffffffffffffff81111561073f5761073e610577565b5b61074b848285016106dd565b91505092915050565b600073ffffffffffffffffffffffffffffffffffffffff82169050919050565b600061077f82610754565b9050919050565b61078f81610774565b82525050565b60006020820190506107aa6000830184610786565b92915050565b6107b981610774565b81146107c457600080fd5b50565b6000813590506107d6816107b0565b92915050565b6000602082840312156107f2576107f1610572565b5b6000610800848285016107c7565b91505092915050565b600080fd5b60008083601f8401126108245761082361057c565b5b8235905067ffffffffffffffff81111561084157610840610809565b5b60208301915083600182028301111561085d5761085c610639565b5b9250929050565b6000806020838503121561087b5761087a610572565b5b600083013567ffffffffffffffff81111561089957610898610577565b5b6108a58582860161080e565b92509250509250929050565b6108ba8161063e565b82525050565b60006020820190506108d560008301846108b1565b92915050565b7f4e487b7100000000000000000000000000000000000000000000000000000000600052601160045260246000fd5b60006109158261063e565b91506109208361063e565b9250828203905081811115610938576109376108db565b5b92915050565b600060ff82169050919050565b6109548161093e565b811461095f57600080fd5b50565b6000815190506109718161094b565b92915050565b60006020828403121561098d5761098c610572565b5b600061099b84828501610962565b91505092915050565b600069ffffffffffffffffffff82169050919050565b6109c3816109a4565b81146109ce57600080fd5b50565b6000815190506109e0816109ba565b92915050565b6000819050919050565b6109f9816109e6565b8114610a0457600080fd5b50565b600081519050610a16816109f0565b92915050565b600081519050610a2b81610648565b92915050565b600080600080600060a08688031215610a4d57610a4c610572565b5b6000610a5b888289016109d1565b9550506020610a6c88828901610a07565b9450506040610a7d88828901610a1c565b9350506060610a8e88828901610a1c565b9250506080610a9f888289016109d1565b9150509295509295909350565b6000610ab78261093e565b9150610ac28361093e565b9250828203905060ff811115610adb57610ada6108db565b5b92915050565b60008160011c9050919050565b6000808291508390505b6001851115610b3857808604811115610b1457610b136108db565b5b6001851615610b235780820291505b8081029050610b3185610ae1565b9450610af8565b94509492505050565b600082610b515760019050610c0d565b81610b5f5760009050610c0d565b8160018114610b755760028114610b7f57610bae565b6001915050610c0d565b60ff841115610b9157610b906108db565b5b8360020a915084821115610ba857610ba76108db565b5b50610c0d565b5060208310610133831016604e8410600b8410161715610be35782820a905083811115610bde57610bdd6108db565b5b610c0d565b610bf08484846001610aee565b92509050818404811115610c0757610c066108db565b5b81810290505b9392505050565b6000610c1f8261063e565b9150610c2a8361093e565b9250610c577fffffffffffffffffffffffffffffffffffffffffffffffffffffffffffffffff8484610b41565b905092915050565b6000610c6a8261063e565b9150610c758361063e565b9250828202610c838161063e565b91508282048414831517610c9a57610c996108db565b5b5092915050565b7f4e487b7100000000000000000000000000000000000000000000000000000000600052603260045260246000fd5b7f4e487b7100000000000000000000000000000000000000000000000000000000600052601260045260246000fd5b6000610d0a8261063e565b9150610d158361063e565b925082610d2557610d24610cd0565b5b82820490509291505056fea264697066735822122068e311377b61691edb21770a561e6fb311ce8d795234bd84771d57a4d65963ec64736f6c63430008180033",
  "linkReferences": {},
  "deployedLinkReferences": {}
}