{
  "_format": "hh-sol-artifact-1",
  "contractName": "NNSRewarder",
  "sourceName": "contracts/NNSRewarder.sol",
  "abi": [
    {
      "inputs": [
        {
          "internalType": "contract IV3SwapRouter",
          "name": "swapRouter",
          "type": "address"
        },
        {
          "internalType": "contract IERC20",
          "name": "rewardToken",
          "type": "address"
        },
        {
          "internalType": "contract IERC20",
          "name": "weth9",
          "type": "address"
        },
        {
          "internalType": "address",
          "name": "protocol",
          "type": "address"
        }
      ],
      "stateMutability": "nonpayable",
      "type": "constructor"
    },
    {
      "inputs": [
        {
          "internalType": "address",
          "name": "target",
          "type": "address"
        }
      ],
      "name": "AddressEmptyCode",
      "type": "error"
    },
    {
      "inputs": [
        {
          "internalType": "address",
          "name": "account",
          "type": "address"
        }
      ],
      "name": "AddressInsufficientBalance",
      "type": "error"
    },
    {
      "inputs": [
        {
          "internalType": "uint256",
          "name": "cldId",
          "type": "uint256"
        },
        {
          "internalType": "address",
          "name": "addr",
          "type": "address"
        }
      ],
      "name": "CallerNotCommunityManager",
      "type": "error"
    },
    {
      "inputs": [
        {
          "internalType": "address",
          "name": "addr",
          "type": "address"
        }
      ],
      "name": "CallerNotController",
      "type": "error"
    },
    {
      "inputs": [
        {
          "internalType": "uint256",
          "name": "cldId",
          "type": "uint256"
        }
      ],
      "name": "CldAlreadyRegistered",
      "type": "error"
    },
    {
      "inputs": [],
      "name": "FailedInnerCall",
      "type": "error"
    },
    {
      "inputs": [
        {
          "internalType": "address",
          "name": "account",
          "type": "address"
        }
      ],
      "name": "InvalidAccount",
      "type": "error"
    },
    {
      "inputs": [
        {
          "internalType": "uint256",
          "name": "cldId",
          "type": "uint256"
        }
      ],
      "name": "InvalidCld",
      "type": "error"
    },
    {
      "inputs": [],
      "name": "InvalidShares",
      "type": "error"
    },
    {
      "inputs": [],
      "name": "NothingToWithdraw",
      "type": "error"
    },
    {
      "inputs": [
        {
          "internalType": "address",
          "name": "owner",
          "type": "address"
        }
      ],
      "name": "OwnableInvalidOwner",
      "type": "error"
    },
    {
      "inputs": [
        {
          "internalType": "address",
          "name": "account",
          "type": "address"
        }
      ],
      "name": "OwnableUnauthorizedAccount",
      "type": "error"
    },
    {
      "inputs": [
        {
          "internalType": "address",
          "name": "token",
          "type": "address"
        }
      ],
      "name": "SafeERC20FailedOperation",
      "type": "error"
    },
    {
      "anonymous": false,
      "inputs": [
        {
          "indexed": false,
          "internalType": "uint256",
          "name": "cldId",
          "type": "uint256"
        },
        {
          "indexed": false,
          "internalType": "address",
          "name": "target",
          "type": "address"
        },
        {
          "indexed": false,
          "internalType": "uint8",
          "name": "referralShare",
          "type": "uint8"
        },
        {
          "indexed": false,
          "internalType": "uint8",
          "name": "communityShare",
          "type": "uint8"
        },
        {
          "indexed": false,
          "internalType": "uint8",
          "name": "ecosystemShare",
          "type": "uint8"
        }
      ],
      "name": "CldConfigurationChanged",
      "type": "event"
    },
    {
      "anonymous": false,
      "inputs": [
        {
          "indexed": false,
          "internalType": "uint256",
          "name": "cldId",
          "type": "uint256"
        }
      ],
      "name": "CldRegistered",
      "type": "event"
    },
    {
      "anonymous": false,
      "inputs": [
        {
          "indexed": false,
          "internalType": "uint256",
          "name": "cldId",
          "type": "uint256"
        },
        {
          "indexed": false,
          "internalType": "address",
          "name": "referer",
          "type": "address"
        },
        {
          "indexed": false,
          "internalType": "uint256",
          "name": "amountEth",
          "type": "uint256"
        },
        {
          "indexed": false,
          "internalType": "uint256",
          "name": "amountERC20",
          "type": "uint256"
        }
      ],
      "name": "Collected",
      "type": "event"
    },
    {
      "anonymous": false,
      "inputs": [
        {
          "indexed": true,
          "internalType": "address",
          "name": "previousOwner",
          "type": "address"
        },
        {
          "indexed": true,
          "internalType": "address",
          "name": "newOwner",
          "type": "address"
        }
      ],
      "name": "OwnershipTransferred",
      "type": "event"
    },
    {
      "anonymous": false,
      "inputs": [
        {
          "indexed": false,
          "internalType": "address",
          "name": "account",
          "type": "address"
        },
        {
          "indexed": false,
          "internalType": "uint256[]",
          "name": "holderTokenIds",
          "type": "uint256[]"
        },
        {
          "indexed": false,
          "internalType": "uint256[]",
          "name": "ecosystemTokenIds",
          "type": "uint256[]"
        },
        {
          "indexed": false,
          "internalType": "uint256",
          "name": "amount",
          "type": "uint256"
        }
      ],
      "name": "Withdrawn",
      "type": "event"
    },
    {
      "inputs": [],
      "name": "PROTOCOL_SHARE",
      "outputs": [
        {
          "internalType": "uint8",
          "name": "",
          "type": "uint8"
        }
      ],
      "stateMutability": "view",
      "type": "function"
    },
    {
      "inputs": [],
      "name": "accountRewarder",
      "outputs": [
        {
          "internalType": "contract IAccountRewarder",
          "name": "",
          "type": "address"
        }
      ],
      "stateMutability": "view",
      "type": "function"
    },
    {
      "inputs": [
        {
          "internalType": "address",
          "name": "account",
          "type": "address"
        },
        {
          "internalType": "uint256[]",
          "name": "holderTokenIds",
          "type": "uint256[]"
        },
        {
          "internalType": "uint256[]",
          "name": "ecosystemTokenIds",
          "type": "uint256[]"
        }
      ],
      "name": "balanceOf",
      "outputs": [
        {
          "internalType": "uint256",
          "name": "",
          "type": "uint256"
        }
      ],
      "stateMutability": "view",
      "type": "function"
    },
    {
      "inputs": [
        {
          "internalType": "uint256",
          "name": "cldId",
          "type": "uint256"
        },
        {
          "internalType": "address",
          "name": "referer",
          "type": "address"
        }
      ],
      "name": "collect",
      "outputs": [],
      "stateMutability": "payable",
      "type": "function"
    },
    {
      "inputs": [
        {
          "internalType": "uint256",
          "name": "cldId",
          "type": "uint256"
        }
      ],
      "name": "configurationOf",
      "outputs": [
        {
          "components": [
            {
              "internalType": "uint8",
              "name": "referralShare",
              "type": "uint8"
            },
            {
              "internalType": "uint8",
              "name": "communityShare",
              "type": "uint8"
            },
            {
              "internalType": "uint8",
              "name": "ecosystemShare",
              "type": "uint8"
            },
            {
              "internalType": "uint8",
              "name": "protocolShare",
              "type": "uint8"
            },
            {
              "internalType": "address",
              "name": "payoutTarget",
              "type": "address"
            },
            {
              "internalType": "contract IRegistry",
              "name": "registry",
              "type": "address"
            }
          ],
          "internalType": "struct IRewarder.CldConfiguration",
          "name": "c",
          "type": "tuple"
        }
      ],
      "stateMutability": "view",
      "type": "function"
    },
    {
      "inputs": [],
      "name": "ecosystemRewarder",
      "outputs": [
        {
          "internalType": "contract IERC721BasedRewarder",
          "name": "",
          "type": "address"
        }
      ],
      "stateMutability": "view",
      "type": "function"
    },
    {
      "inputs": [],
      "name": "holderRewarder",
      "outputs": [
        {
          "internalType": "contract IERC721BasedRewarder",
          "name": "",
          "type": "address"
        }
      ],
      "stateMutability": "view",
      "type": "function"
    },
    {
      "inputs": [],
      "name": "owner",
      "outputs": [
        {
          "internalType": "address",
          "name": "",
          "type": "address"
        }
      ],
      "stateMutability": "view",
      "type": "function"
    },
    {
      "inputs": [
        {
          "internalType": "contract IRegistry",
          "name": "registry",
          "type": "address"
        },
        {
          "internalType": "address",
          "name": "payout",
          "type": "address"
        },
        {
          "internalType": "uint8",
          "name": "referralShare",
          "type": "uint8"
        },
        {
          "internalType": "uint8",
          "name": "communityShare",
          "type": "uint8"
        }
      ],
      "name": "registerCld",
      "outputs": [],
      "stateMutability": "nonpayable",
      "type": "function"
    },
    {
      "inputs": [],
      "name": "renounceOwnership",
      "outputs": [],
      "stateMutability": "nonpayable",
      "type": "function"
    },
    {
      "inputs": [
        {
          "internalType": "contract IAccountRewarder",
          "name": "rewarder",
          "type": "address"
        }
      ],
      "name": "setAccountRewarder",
      "outputs": [],
      "stateMutability": "nonpayable",
      "type": "function"
    },
    {
      "inputs": [
        {
          "internalType": "uint256",
          "name": "cldId",
          "type": "uint256"
        },
        {
          "internalType": "address",
          "name": "target",
          "type": "address"
        },
        {
          "internalType": "uint8",
          "name": "referralShare",
          "type": "uint8"
        },
        {
          "internalType": "uint8",
          "name": "communityShare",
          "type": "uint8"
        }
      ],
      "name": "setCldConfiguration",
      "outputs": [],
      "stateMutability": "nonpayable",
      "type": "function"
    },
    {
      "inputs": [
        {
          "internalType": "address",
          "name": "controller",
          "type": "address"
        }
      ],
      "name": "setController",
      "outputs": [],
      "stateMutability": "nonpayable",
      "type": "function"
    },
    {
      "inputs": [
        {
          "internalType": "contract IERC721BasedRewarder",
          "name": "rewarder",
          "type": "address"
        }
      ],
      "name": "setEcosystemRewarder",
      "outputs": [],
      "stateMutability": "nonpayable",
      "type": "function"
    },
    {
      "inputs": [
        {
          "internalType": "contract IERC721BasedRewarder",
          "name": "rewarder",
          "type": "address"
        }
      ],
      "name": "setHolderRewarder",
      "outputs": [],
      "stateMutability": "nonpayable",
      "type": "function"
    },
    {
      "inputs": [
        {
          "internalType": "address",
          "name": "newOwner",
          "type": "address"
        }
      ],
      "name": "transferOwnership",
      "outputs": [],
      "stateMutability": "nonpayable",
      "type": "function"
    },
    {
      "inputs": [
        {
          "internalType": "address",
          "name": "account",
          "type": "address"
        },
        {
          "internalType": "uint256[]",
          "name": "holderTokenIds",
          "type": "uint256[]"
        },
        {
          "internalType": "uint256[]",
          "name": "ecosystemTokenIds",
          "type": "uint256[]"
        }
      ],
      "name": "withdraw",
      "outputs": [],
      "stateMutability": "nonpayable",
      "type": "function"
    }
  ],
  "bytecode": "0x60806040523480156200001157600080fd5b5060405162001e0238038062001e02833981016040819052620000349162000124565b33806200005b57604051631e4fbdf760e01b81526000600482015260240160405180910390fd5b6200006681620000bb565b50600a80546001600160a01b039586166001600160a01b0319918216179091556009805494861694821694909417909355600b805492851692841692909217909155600180549190931691161790556200018c565b600080546001600160a01b038381166001600160a01b0319831681178455604051919092169283917f8be0079c531659141344cd1fd0a4f28419497f9722a3daafe3b4186f6b6457e09190a35050565b6001600160a01b03811681146200012157600080fd5b50565b600080600080608085870312156200013b57600080fd5b845162000148816200010b565b60208601519094506200015b816200010b565b60408601519093506200016e816200010b565b606086015190925062000181816200010b565b939692955090935050565b611c66806200019c6000396000f3fe60806040526004361061010e5760003560e01c8063715018a6116100a557806392eefe9b116100745780639aa9aac1116100595780639aa9aac11461034a578063e514a1401461036a578063f2fde38b1461038a57600080fd5b806392eefe9b1461030a5780639339b0a01461032a57600080fd5b8063715018a6146102a457806387ad6d00146102b95780638d3c100a146102d95780638da5cb5b146102ec57600080fd5b80633561cee0116100e15780633561cee014610211578063436e5d661461023f57806351adc7611461025f57806355ea42591461028657600080fd5b80631d4a103c1461011357806322de3b91146101355780632b28e2e21461016c5780632b5454211461018a575b600080fd5b34801561011f57600080fd5b5061013361012e36600461179a565b6103aa565b005b34801561014157600080fd5b506007546001600160a01b03165b6040516001600160a01b0390911681526020015b60405180910390f35b34801561017857600080fd5b506006546001600160a01b031661014f565b34801561019657600080fd5b506101aa6101a53660046117e9565b61049e565b6040516101639190600060c08201905060ff835116825260ff602084015116602083015260ff604084015116604083015260ff606084015116606083015260808301516001600160a01b0380821660808501528060a08601511660a0850152505092915050565b34801561021d57600080fd5b5061023161022c36600461184e565b610573565b604051908152602001610163565b34801561024b57600080fd5b5061013361025a3660046118d1565b61074a565b34801561026b57600080fd5b50610274600581565b60405160ff9091168152602001610163565b34801561029257600080fd5b506008546001600160a01b031661014f565b3480156102b057600080fd5b506101336108cb565b3480156102c557600080fd5b506101336102d4366004611902565b6108df565b6101336102e736600461191f565b610909565b3480156102f857600080fd5b506000546001600160a01b031661014f565b34801561031657600080fd5b50610133610325366004611902565b610ee8565b34801561033657600080fd5b5061013361034536600461184e565b610f12565b34801561035657600080fd5b50610133610365366004611902565b6111ea565b34801561037657600080fd5b50610133610385366004611902565b611214565b34801561039657600080fd5b506101336103a5366004611902565b61123e565b60006103b585611295565b90506001600160a01b0381166341ef73b9336040517fffffffff0000000000000000000000000000000000000000000000000000000060e084901b1681526001600160a01b039091166004820152602401602060405180830381865afa158015610423573d6000803e3d6000fd5b505050506040513d601f19601f82011682018060405250810190610447919061194f565b61048b576040517fef5e4579000000000000000000000000000000000000000000000000000000008152600481018690523360248201526044015b60405180910390fd5b610497858585856112ed565b5050505050565b6040805160c081018252600080825260208201819052918101829052606081018290526080810182905260a08101919091526000828152600560205260409020546001600160a01b0316806104f35750919050565b6040805160c0810182526000858152600460209081528382205460ff90811684528783526002825291849020549091169082015290810161053385611407565b60ff1681526005602080830191909152600095865260039052604094859020546001600160a01b0390811695820195909552919093166060909101525090565b600080805b8581101561061d576007546001600160a01b0316639cc7f7088888848181106105a3576105a3611971565b905060200201356040518263ffffffff1660e01b81526004016105c891815260200190565b602060405180830381865afa1580156105e5573d6000803e3d6000fd5b505050506040513d601f19601f820116820180604052508101906106099190611987565b61061390836119b6565b9150600101610578565b5060005b838110156106c6576006546001600160a01b0316639cc7f70886868481811061064c5761064c611971565b905060200201356040518263ffffffff1660e01b815260040161067191815260200190565b602060405180830381865afa15801561068e573d6000803e3d6000fd5b505050506040513d601f19601f820116820180604052508101906106b29190611987565b6106bc90836119b6565b9150600101610621565b506008546040516370a0823160e01b81526001600160a01b038981166004830152909116906370a0823190602401602060405180830381865afa158015610711573d6000803e3d6000fd5b505050506040513d601f19601f820116820180604052508101906107359190611987565b61073f90826119b6565b979650505050505050565b600c546001600160a01b0316336001600160a01b0316146107a557335b6040517f69867d640000000000000000000000000000000000000000000000000000000081526001600160a01b039091166004820152602401610482565b6000846001600160a01b03166383d48e046040518163ffffffff1660e01b8152600401600060405180830381865afa1580156107e5573d6000803e3d6000fd5b505050506040513d6000823e601f3d908101601f1916820160405261080d9190810190611a03565b6000818152600560205260409020549092506001600160a01b0316159050610864576040517f8099d06600000000000000000000000000000000000000000000000000000000815260048101829052602401610482565b60008181526005602090815260409182902080546001600160a01b0319166001600160a01b03891617905590518281527f8bd9cfa8c73842407f588399c731ae715c419ea74253764312148aa3f604cc8e910160405180910390a1610497818585856112ed565b6108d3611456565b6108dd600061149c565b565b6108e7611456565b600880546001600160a01b0319166001600160a01b0392909216919091179055565b600c546001600160a01b0316336001600160a01b03161461092a5733610767565b61093382611295565b506040805160e081018252600b546001600160a01b039081168252600954811660208301908152610bb883850190815230606085019081524760808601908152600060a0870181815260c08801828152600a5499517f04e45aaf000000000000000000000000000000000000000000000000000000008152895189166004820152965188166024880152945162ffffff16604487015292518616606486015290516084850152905160a48401529051831660c48301529293909116906304e45aaf90479060e40160206040518083038185885af1158015610a18573d6000803e3d6000fd5b50505050506040513d601f19601f82011682018060405250810190610a3d9190611987565b9050826001600160a01b0381161580610b4957506001600160a01b03841615801590610b495750600760009054906101000a90046001600160a01b03166001600160a01b031663bca6ce646040518163ffffffff1660e01b8152600401602060405180830381865afa158015610ab7573d6000803e3d6000fd5b505050506040513d601f19601f82011682018060405250810190610adb9190611aba565b6040516370a0823160e01b81526001600160a01b03868116600483015291909116906370a0823190602401602060405180830381865afa158015610b23573d6000803e3d6000fd5b505050506040513d601f19601f82011682018060405250810190610b479190611987565b155b15610b69576000858152600360205260409020546001600160a01b031693505b600085815260046020526040812054606490610b889060ff1685611ad7565b610b929190611b04565b600854604051634b4a1cd560e01b81526001600160a01b03888116600483015260248201849052929350911690634b4a1cd5906044016020604051808303816000875af1158015610be7573d6000803e3d6000fd5b505050506040513d601f19601f82011682018060405250810190610c0b9190611987565b50600086815260026020526040812054606490610c2b9060ff1686611ad7565b610c359190611b04565b60085460008981526003602052604090819020549051634b4a1cd560e01b81526001600160a01b039182166004820152602481018490529293501690634b4a1cd5906044016020604051808303816000875af1158015610c99573d6000803e3d6000fd5b505050506040513d601f19601f82011682018060405250810190610cbd9190611987565b5060006064610ccd600587611ad7565b610cd79190611b04565b600854600154604051634b4a1cd560e01b81526001600160a01b039182166004820152602481018490529293501690634b4a1cd5906044016020604051808303816000875af1158015610d2e573d6000803e3d6000fd5b505050506040513d601f19601f82011682018060405250810190610d529190611987565b5060006064610d608a611407565b610d6d9060ff1688611ad7565b610d779190611b04565b60065460405163b32fe94f60e01b8152600481018390529192506001600160a01b03169063b32fe94f906024016020604051808303816000875af1158015610dc3573d6000803e3d6000fd5b505050506040513d601f19601f82011682018060405250810190610de79190611987565b506000828285610df7888b611b18565b610e019190611b18565b610e0b9190611b18565b610e159190611b18565b90508015610e8e5760075460405163b32fe94f60e01b8152600481018390526001600160a01b039091169063b32fe94f906024016020604051808303816000875af1158015610e68573d6000803e3d6000fd5b505050506040513d601f19601f82011682018060405250810190610e8c9190611987565b505b604080518b81526001600160a01b038816602082015234818301526060810189905290517fe985bb809569e1ab693b8d0a44015cb780fa698a4b16df55472d8eeffa185b399181900360800190a150505050505050505050565b610ef0611456565b600c80546001600160a01b0319166001600160a01b0392909216919091179055565b6000805b84811015610fe6576007546001600160a01b031663d571409188888885818110610f4257610f42611971565b6040517fffffffff0000000000000000000000000000000000000000000000000000000060e087901b1681526001600160a01b03909416600485015260200291909101356024830152506044016020604051808303816000875af1158015610fae573d6000803e3d6000fd5b505050506040513d601f19601f82011682018060405250810190610fd29190611987565b610fdc90836119b6565b9150600101610f16565b5060005b828110156110ba576006546001600160a01b031663d57140918886868581811061101657611016611971565b6040517fffffffff0000000000000000000000000000000000000000000000000000000060e087901b1681526001600160a01b03909416600485015260200291909101356024830152506044016020604051808303816000875af1158015611082573d6000803e3d6000fd5b505050506040513d601f19601f820116820180604052508101906110a69190611987565b6110b090836119b6565b9150600101610fea565b506008546040517ff7b6d74f0000000000000000000000000000000000000000000000000000000081526001600160a01b0388811660048301529091169063f7b6d74f906024016020604051808303816000875af1158015611120573d6000803e3d6000fd5b505050506040513d601f19601f820116820180604052508101906111449190611987565b61114e90826119b6565b90508060000361118a576040517fd0d04f6000000000000000000000000000000000000000000000000000000000815260040160405180910390fd5b6009546111a1906001600160a01b031687836114ec565b7f969b29af630290bc397caf79e9ccc1dc011eba52c697419736a7131a886a9dff8686868686866040516111da96959493929190611b76565b60405180910390a1505050505050565b6111f2611456565b600680546001600160a01b0319166001600160a01b0392909216919091179055565b61121c611456565b600780546001600160a01b0319166001600160a01b0392909216919091179055565b611246611456565b6001600160a01b038116611289576040517f1e4fbdf700000000000000000000000000000000000000000000000000000000815260006004820152602401610482565b6112928161149c565b50565b6000818152600560205260408120546001600160a01b0316806112e7576040517f6128427d00000000000000000000000000000000000000000000000000000000815260048101849052602401610482565b92915050565b606460056112fb8385611bc0565b6113059190611bc0565b60ff161115611340576040517f6edcc52300000000000000000000000000000000000000000000000000000000815260040160405180910390fd5b600084815260036020908152604080832080546001600160a01b0388166001600160a01b031990911617905560028252808320805460ff80871660ff1992831617909255600490935292208054928516929091169190911790557f13586fd4fc41a55042bb5598cae4e4ca021684e2b1a1134f48d0fb7dbba31ca0848484846113c884611407565b604080519586526001600160a01b0394909416602086015260ff928316858501529082166060850152166080830152519081900360a00190a150505050565b6000818152600460209081526040808320546002928390529083205460059160ff9081169161143891166064611bd9565b6114429190611bd9565b61144c9190611bd9565b6112e79190611bf2565b6000546001600160a01b031633146108dd576040517f118cdaa7000000000000000000000000000000000000000000000000000000008152336004820152602401610482565b600080546001600160a01b038381166001600160a01b0319831681178455604051919092169283917f8be0079c531659141344cd1fd0a4f28419497f9722a3daafe3b4186f6b6457e09190a35050565b604080516001600160a01b038416602482015260448082018490528251808303909101815260649091019091526020810180517bffffffffffffffffffffffffffffffffffffffffffffffffffffffff167fa9059cbb0000000000000000000000000000000000000000000000000000000017905261156c908490611571565b505050565b60006115866001600160a01b038416836115ed565b905080516000141580156115ab5750808060200190518101906115a9919061194f565b155b1561156c576040517f5274afe70000000000000000000000000000000000000000000000000000000081526001600160a01b0384166004820152602401610482565b60606115fb83836000611602565b9392505050565b606081471015611640576040517fcd786059000000000000000000000000000000000000000000000000000000008152306004820152602401610482565b600080856001600160a01b0316848660405161165c9190611c14565b60006040518083038185875af1925050503d8060008114611699576040519150601f19603f3d011682016040523d82523d6000602084013e61169e565b606091505b50915091506116ae8683836116b8565b9695505050505050565b6060826116cd576116c88261172d565b6115fb565b81511580156116e457506001600160a01b0384163b155b15611726576040517f9996b3150000000000000000000000000000000000000000000000000000000081526001600160a01b0385166004820152602401610482565b50806115fb565b80511561173d5780518082602001fd5b6040517f1425ea4200000000000000000000000000000000000000000000000000000000815260040160405180910390fd5b6001600160a01b038116811461129257600080fd5b803560ff8116811461179557600080fd5b919050565b600080600080608085870312156117b057600080fd5b8435935060208501356117c28161176f565b92506117d060408601611784565b91506117de60608601611784565b905092959194509250565b6000602082840312156117fb57600080fd5b5035919050565b60008083601f84011261181457600080fd5b50813567ffffffffffffffff81111561182c57600080fd5b6020830191508360208260051b850101111561184757600080fd5b9250929050565b60008060008060006060868803121561186657600080fd5b85356118718161176f565b9450602086013567ffffffffffffffff8082111561188e57600080fd5b61189a89838a01611802565b909650945060408801359150808211156118b357600080fd5b506118c088828901611802565b969995985093965092949392505050565b600080600080608085870312156118e757600080fd5b84356118f28161176f565b935060208501356117c28161176f565b60006020828403121561191457600080fd5b81356115fb8161176f565b6000806040838503121561193257600080fd5b8235915060208301356119448161176f565b809150509250929050565b60006020828403121561196157600080fd5b815180151581146115fb57600080fd5b634e487b7160e01b600052603260045260246000fd5b60006020828403121561199957600080fd5b5051919050565b634e487b7160e01b600052601160045260246000fd5b808201808211156112e7576112e76119a0565b634e487b7160e01b600052604160045260246000fd5b60005b838110156119fa5781810151838201526020016119e2565b50506000910152565b60008060408385031215611a1657600080fd5b825167ffffffffffffffff80821115611a2e57600080fd5b818501915085601f830112611a4257600080fd5b815181811115611a5457611a546119c9565b604051601f8201601f19908116603f01168101908382118183101715611a7c57611a7c6119c9565b81604052828152886020848701011115611a9557600080fd5b611aa68360208301602088016119df565b602097909701519698969750505050505050565b600060208284031215611acc57600080fd5b81516115fb8161176f565b80820281158282048414176112e7576112e76119a0565b634e487b7160e01b600052601260045260246000fd5b600082611b1357611b13611aee565b500490565b818103818111156112e7576112e76119a0565b81835260007f07ffffffffffffffffffffffffffffffffffffffffffffffffffffffffffffff831115611b5d57600080fd5b8260051b80836020870137939093016020019392505050565b6001600160a01b0387168152608060208201526000611b99608083018789611b2b565b8281036040840152611bac818688611b2b565b915050826060830152979650505050505050565b60ff81811683821601908111156112e7576112e76119a0565b60ff82811682821603908111156112e7576112e76119a0565b600060ff831680611c0557611c05611aee565b8060ff84160491505092915050565b60008251611c268184602087016119df565b919091019291505056fea26469706673582212203f5622f4203766b95713c3c0b9b5ab797c75d85a40c7e21d2dc8e2b368ca255964736f6c63430008180033",
  "linkReferences": {},
  "deployedLinkReferences": {}
}