{
  "_format": "hh-sol-artifact-1",
  "contractName": "NNSController",
  "sourceName": "contracts/NNSController.sol",
  "abi": [
    {
      "inputs": [
        {
          "internalType": "contract IRewarder",
          "name": "rewarder",
          "type": "address"
        },
        {
          "internalType": "contract IResolver",
          "name": "resolver",
          "type": "address"
        },
        {
          "internalType": "contract ICldFactory",
          "name": "cldFactory",
          "type": "address"
        }
      ],
      "stateMutability": "nonpayable",
      "type": "constructor"
    },
    {
      "inputs": [],
      "name": "CldAlreadyExists",
      "type": "error"
    },
    {
      "inputs": [
        {
          "internalType": "uint256",
          "name": "required",
          "type": "uint256"
        },
        {
          "internalType": "uint256",
          "name": "provided",
          "type": "uint256"
        }
      ],
      "name": "InsufficientTransferAmount",
      "type": "error"
    },
    {
      "inputs": [],
      "name": "InvalidCld",
      "type": "error"
    },
    {
      "inputs": [],
      "name": "InvalidLabel",
      "type": "error"
    },
    {
      "inputs": [],
      "name": "InvalidPricingOracle",
      "type": "error"
    },
    {
      "inputs": [],
      "name": "InvalidRegistrationPeriod",
      "type": "error"
    },
    {
      "inputs": [
        {
          "internalType": "address",
          "name": "owner",
          "type": "address"
        }
      ],
      "name": "OwnableInvalidOwner",
      "type": "error"
    },
    {
      "inputs": [
        {
          "internalType": "address",
          "name": "account",
          "type": "address"
        }
      ],
      "name": "OwnableUnauthorizedAccount",
      "type": "error"
    },
    {
      "inputs": [
        {
          "internalType": "uint256",
          "name": "value",
          "type": "uint256"
        },
        {
          "internalType": "uint256",
          "name": "length",
          "type": "uint256"
        }
      ],
      "name": "StringsInsufficientHexLength",
      "type": "error"
    },
    {
      "inputs": [],
      "name": "UnauthorizedAccount",
      "type": "error"
    },
    {
      "anonymous": false,
      "inputs": [
        {
          "indexed": false,
          "internalType": "uint256",
          "name": "cldId",
          "type": "uint256"
        },
        {
          "indexed": false,
          "internalType": "string",
          "name": "name",
          "type": "string"
        },
        {
          "indexed": false,
          "internalType": "address",
          "name": "registry",
          "type": "address"
        },
        {
          "indexed": false,
          "internalType": "bool",
          "name": "hasExpiringNames",
          "type": "bool"
        }
      ],
      "name": "CldRegistered",
      "type": "event"
    },
    {
      "anonymous": false,
      "inputs": [
        {
          "indexed": true,
          "internalType": "address",
          "name": "previousOwner",
          "type": "address"
        },
        {
          "indexed": true,
          "internalType": "address",
          "name": "newOwner",
          "type": "address"
        }
      ],
      "name": "OwnershipTransferred",
      "type": "event"
    },
    {
      "anonymous": false,
      "inputs": [
        {
          "indexed": false,
          "internalType": "uint256",
          "name": "cldId",
          "type": "uint256"
        },
        {
          "indexed": false,
          "internalType": "address",
          "name": "oracle",
          "type": "address"
        }
      ],
      "name": "PricingOracleChanged",
      "type": "event"
    },
    {
      "inputs": [],
      "name": "RECORD_CRYPTO_ETH_ADDRESS",
      "outputs": [
        {
          "internalType": "uint256",
          "name": "",
          "type": "uint256"
        }
      ],
      "stateMutability": "view",
      "type": "function"
    },
    {
      "inputs": [
        {
          "internalType": "uint256",
          "name": "cldId",
          "type": "uint256"
        }
      ],
      "name": "isExpiringCLD",
      "outputs": [
        {
          "internalType": "bool",
          "name": "",
          "type": "bool"
        }
      ],
      "stateMutability": "view",
      "type": "function"
    },
    {
      "inputs": [],
      "name": "owner",
      "outputs": [
        {
          "internalType": "address",
          "name": "",
          "type": "address"
        }
      ],
      "stateMutability": "view",
      "type": "function"
    },
    {
      "inputs": [
        {
          "internalType": "uint256",
          "name": "cldId",
          "type": "uint256"
        }
      ],
      "name": "pricingOracleOf",
      "outputs": [
        {
          "internalType": "contract IPricingOracle",
          "name": "",
          "type": "address"
        }
      ],
      "stateMutability": "view",
      "type": "function"
    },
    {
      "inputs": [
        {
          "internalType": "address",
          "name": "to",
          "type": "address"
        },
        {
          "internalType": "string[]",
          "name": "labels",
          "type": "string[]"
        },
        {
          "internalType": "bool",
          "name": "withReverse",
          "type": "bool"
        },
        {
          "internalType": "address",
          "name": "referer",
          "type": "address"
        },
        {
          "internalType": "uint8",
          "name": "periods",
          "type": "uint8"
        }
      ],
      "name": "register",
      "outputs": [],
      "stateMutability": "payable",
      "type": "function"
    },
    {
      "inputs": [
        {
          "internalType": "string",
          "name": "name",
          "type": "string"
        },
        {
          "internalType": "uint8",
          "name": "communityReward",
          "type": "uint8"
        },
        {
          "internalType": "uint8",
          "name": "referralReward",
          "type": "uint8"
        },
        {
          "internalType": "contract IPricingOracle",
          "name": "pricingOracle",
          "type": "address"
        },
        {
          "internalType": "address",
          "name": "communityPayable",
          "type": "address"
        },
        {
          "internalType": "address",
          "name": "communityManager",
          "type": "address"
        },
        {
          "internalType": "bool",
          "name": "hasExpiringNames",
          "type": "bool"
        },
        {
          "internalType": "bool",
          "name": "isDefaultCldResolver",
          "type": "bool"
        },
        {
          "internalType": "bool",
          "name": "isSplitShareCld",
          "type": "bool"
        }
      ],
      "name": "registerCld",
      "outputs": [],
      "stateMutability": "nonpayable",
      "type": "function"
    },
    {
      "inputs": [
        {
          "internalType": "uint256",
          "name": "cldId",
          "type": "uint256"
        }
      ],
      "name": "registryOf",
      "outputs": [
        {
          "internalType": "contract IRegistry",
          "name": "",
          "type": "address"
        }
      ],
      "stateMutability": "view",
      "type": "function"
    },
    {
      "inputs": [],
      "name": "renounceOwnership",
      "outputs": [],
      "stateMutability": "nonpayable",
      "type": "function"
    },
    {
      "inputs": [
        {
          "internalType": "uint256",
          "name": "cldId",
          "type": "uint256"
        },
        {
          "internalType": "contract IPricingOracle",
          "name": "oracle",
          "type": "address"
        }
      ],
      "name": "setPricingOracle",
      "outputs": [],
      "stateMutability": "nonpayable",
      "type": "function"
    },
    {
      "inputs": [
        {
          "internalType": "address",
          "name": "newOwner",
          "type": "address"
        }
      ],
      "name": "transferOwnership",
      "outputs": [],
      "stateMutability": "nonpayable",
      "type": "function"
    }
  ],
  "bytecode": "0x60806040523480156200001157600080fd5b506040516200185038038062001850833981016040819052620000349162000113565b33806200005b57604051631e4fbdf760e01b81526000600482015260240160405180910390fd5b6200006681620000aa565b50600280546001600160a01b039485166001600160a01b03199182161790915560018054938516938216939093179092556003805491909316911617905562000167565b600080546001600160a01b038381166001600160a01b0319831681178455604051919092169283917f8be0079c531659141344cd1fd0a4f28419497f9722a3daafe3b4186f6b6457e09190a35050565b6001600160a01b03811681146200011057600080fd5b50565b6000806000606084860312156200012957600080fd5b83516200013681620000fa565b60208501519093506200014981620000fa565b60408501519092506200015c81620000fa565b809150509250925092565b6116d980620001776000396000f3fe6080604052600436106100b15760003560e01c8063a81ce6f911610069578063e22dfa5e1161004e578063e22dfa5e146101f0578063f2fde38b14610210578063fe7dbff61461023057600080fd5b8063a81ce6f914610178578063a8c86bd8146101ae57600080fd5b80636aacc08f1161009a5780636aacc08f14610115578063715018a6146101455780638da5cb5b1461015a57600080fd5b80631a0cab9e146100b65780633c128f6c146100f3575b600080fd5b3480156100c257600080fd5b506100d66100d1366004611008565b610243565b6040516001600160a01b0390911681526020015b60405180910390f35b3480156100ff57600080fd5b5061011361010e366004611046565b61026b565b005b34801561012157600080fd5b50610135610130366004611008565b61033f565b60405190151581526020016100ea565b34801561015157600080fd5b50610113610361565b34801561016657600080fd5b506000546001600160a01b03166100d6565b34801561018457600080fd5b506100d6610193366004611008565b6000908152600460205260409020546001600160a01b031690565b3480156101ba57600080fd5b506101e27f391a42857851a55da4050881bd0d2e6c9978bfa7483b787e07a760028ed71a2b81565b6040519081526020016100ea565b3480156101fc57600080fd5b5061011361020b36600461110f565b610375565b34801561021c57600080fd5b5061011361022b366004611215565b61068d565b61011361023e366004611239565b6106e9565b600061024e8261098b565b50506000908152600560205260409020546001600160a01b031690565b60006102768361098b565b6040517f41ef73b90000000000000000000000000000000000000000000000000000000081523360048201529091506001600160a01b038216906341ef73b990602401602060405180830381865afa1580156102d6573d6000803e3d6000fd5b505050506040513d601f19601f820116820180604052508101906102fa91906112f2565b610330576040517fa97ff08a00000000000000000000000000000000000000000000000000000000815260040160405180910390fd5b61033a83836109df565b505050565b600061034a8261098b565b505060009081526006602052604090205460ff1690565b610369610ab8565b6103736000610afe565b565b61037d610ab8565b6003546040517fe5854f480000000000000000000000000000000000000000000000000000000081526000916001600160a01b03169063e5854f48906103cb908d9030908a9060040161135f565b6020604051808303816000875af11580156103ea573d6000803e3d6000fd5b505050506040513d601f19601f8201168201806040525081019061040e9190611392565b90506000816001600160a01b03166383d48e046040518163ffffffff1660e01b8152600401600060405180830381865afa158015610450573d6000803e3d6000fd5b505050506040513d6000823e601f3d908101601f1916820160405261047891908101906113af565b6000818152600460205260409020549092506001600160a01b03161590506104cc576040517f6e12e57b00000000000000000000000000000000000000000000000000000000815260040160405180910390fd5b6002546040517fada7f1e60000000000000000000000000000000000000000000000000000000081526001600160a01b038481166004830152898116602483015260ff808d1660448401528d16606483015285151560848301529091169063ada7f1e69060a401600060405180830381600087803b15801561054d57600080fd5b505af1158015610561573d6000803e3d6000fd5b50506001546040517fa04d51650000000000000000000000000000000000000000000000000000000081526001600160a01b0386811660048301528815156024830152909116925063a04d51659150604401600060405180830381600087803b1580156105cd57600080fd5b505af11580156105e1573d6000803e3d6000fd5b5050506000828152600460205260409020805473ffffffffffffffffffffffffffffffffffffffff19166001600160a01b038516179055508415610639576000818152600660205260409020805460ff191660011790555b7f5a567326466bd36d057db73b18139b6b27662a2d8f225c0c2617be54a8f8e060818c848860405161066e9493929190611430565b60405180910390a161068081896109df565b5050505050505050505050565b610695610ab8565b6001600160a01b0381166106dd576040517f1e4fbdf7000000000000000000000000000000000000000000000000000000008152600060048201526024015b60405180910390fd5b6106e681610afe565b50565b6106f38585610b5b565b600061075960008787600181811061070d5761070d61146a565b905060200281019061071f9190611480565b8080601f016020809104026020016040519081016040528093929190818152602001838380828437600092019190915250610bc792505050565b905060006107668261098b565b9050600061079983858a8a60008181106107825761078261146a565b90506020028101906107949190611480565b610c4c565b604080516001808252818301909252919250600091906020808301908036833750506040805160018082528183019092529293506000929150602082015b60608152602001906001900390816107d75790505090507f391a42857851a55da4050881bd0d2e6c9978bfa7483b787e07a760028ed71a2b826000815181106108225761082261146a565b6020026020010181815250506108378b610dd6565b8160008151811061084a5761084a61146a565b6020026020010181905250836001600160a01b03166350cf25ef8c8c8c60008181106108785761087861146a565b905060200281019061088a9190611480565b86866108968c8e610dec565b8f6040518863ffffffff1660e01b81526004016108b997969594939291906114f7565b6020604051808303816000875af11580156108d8573d6000803e3d6000fd5b505050506040513d601f19601f820116820180604052508101906108fc91906115c8565b506002546040517f8d3c100a000000000000000000000000000000000000000000000000000000008152600481018790526001600160a01b03898116602483015290911690638d3c100a9085906044016000604051808303818588803b15801561096557600080fd5b505af1158015610979573d6000803e3d6000fd5b50505050505050505050505050505050565b6000818152600460205260408120546001600160a01b0316806109d9576040517eea4de600000000000000000000000000000000000000000000000000000000815260040160405180910390fd5b92915050565b6001600160a01b038116610a1f576040517f2715c31600000000000000000000000000000000000000000000000000000000815260040160405180910390fd5b6000828152600560205260409020546001600160a01b0390811690821603610a45575050565b600082815260056020908152604091829020805473ffffffffffffffffffffffffffffffffffffffff19166001600160a01b0385169081179091558251858152918201527f9c672d5bb2cafcb190c384545530db3acea27bf7a8a9184d2afc7b7b1339afd7910160405180910390a15050565b6000546001600160a01b03163314610373576040517f118cdaa70000000000000000000000000000000000000000000000000000000081523360048201526024016106d4565b600080546001600160a01b0383811673ffffffffffffffffffffffffffffffffffffffff19831681178455604051919092169283917f8be0079c531659141344cd1fd0a4f28419497f9722a3daafe3b4186f6b6457e09190a35050565b60028114610b7c57604051633d36cb8d60e01b815260040160405180910390fd5b81816000818110610b8f57610b8f61146a565b9050602002810190610ba19190611480565b9050600003610bc357604051633d36cb8d60e01b815260040160405180910390fd5b5050565b60008151600003610beb57604051633d36cb8d60e01b815260040160405180910390fd5b8282604051602001610bfd91906115e1565b60405160208183030381529060405280519060200120604051602001610c2d929190918252602082015260400190565b60408051601f1981840301815291905280516020909101209392505050565b6000848152600560205260408082205490517ffe2c619800000000000000000000000000000000000000000000000000000000815282916001600160a01b03169063fe2c619890610ca390879087906004016115fd565b602060405180830381865afa158015610cc0573d6000803e3d6000fd5b505050506040513d601f19601f82011682018060405250810190610ce491906115c8565b60008781526006602052604090205490915060ff1615610d4b5760008560ff1611610d3b576040517fddceada600000000000000000000000000000000000000000000000000000000815260040160405180910390fd5b610d4860ff861682611627565b90505b80341015610d8e576040517f5338e506000000000000000000000000000000000000000000000000000000008152600481018290523460248201526044016106d4565b803410610dcd57336108fc610da3833461163e565b6040518115909202916000818181858888f19350505050158015610dcb573d6000803e3d6000fd5b505b95945050505050565b60606109d96001600160a01b0383166014610e2a565b60008281526006602052604081205460ff1615610e2157610e1460ff83166301e13380611651565b63ffffffff1690506109d9565b50600092915050565b6060826000610e3a846002611627565b610e45906002611679565b67ffffffffffffffff811115610e5d57610e5d611076565b6040519080825280601f01601f191660200182016040528015610e87576020820181803683370190505b5090507f300000000000000000000000000000000000000000000000000000000000000081600081518110610ebe57610ebe61146a565b60200101906001600160f81b031916908160001a9053507f780000000000000000000000000000000000000000000000000000000000000081600181518110610f0957610f0961146a565b60200101906001600160f81b031916908160001a9053506000610f2d856002611627565b610f38906001611679565b90505b6001811115610fbd577f303132333435363738396162636465660000000000000000000000000000000083600f1660108110610f7957610f7961146a565b1a60f81b828281518110610f8f57610f8f61146a565b60200101906001600160f81b031916908160001a90535060049290921c91610fb68161168c565b9050610f3b565b508115611000576040517fe22e27eb00000000000000000000000000000000000000000000000000000000815260048101869052602481018590526044016106d4565b949350505050565b60006020828403121561101a57600080fd5b5035919050565b6001600160a01b03811681146106e657600080fd5b803561104181611021565b919050565b6000806040838503121561105957600080fd5b82359150602083013561106b81611021565b809150509250929050565b634e487b7160e01b600052604160045260246000fd5b604051601f8201601f1916810167ffffffffffffffff811182821017156110b5576110b5611076565b604052919050565b600067ffffffffffffffff8211156110d7576110d7611076565b50601f01601f191660200190565b803560ff8116811461104157600080fd5b80151581146106e657600080fd5b8035611041816110f6565b60008060008060008060008060006101208a8c03121561112e57600080fd5b893567ffffffffffffffff81111561114557600080fd5b8a01601f81018c1361115657600080fd5b8035611169611164826110bd565b61108c565b8181528d602083850101111561117e57600080fd5b81602084016020830137600060208383010152809b505050506111a360208b016110e5565b97506111b160408b016110e5565b96506111bf60608b01611036565b95506111cd60808b01611036565b94506111db60a08b01611036565b93506111e960c08b01611104565b92506111f760e08b01611104565b91506112066101008b01611104565b90509295985092959850929598565b60006020828403121561122757600080fd5b813561123281611021565b9392505050565b60008060008060008060a0878903121561125257600080fd5b863561125d81611021565b9550602087013567ffffffffffffffff8082111561127a57600080fd5b818901915089601f83011261128e57600080fd5b81358181111561129d57600080fd5b8a60208260051b85010111156112b257600080fd5b6020830197508096505050506112ca60408801611104565b92506112d860608801611036565b91506112e6608088016110e5565b90509295509295509295565b60006020828403121561130457600080fd5b8151611232816110f6565b60005b8381101561132a578181015183820152602001611312565b50506000910152565b6000815180845261134b81602086016020860161130f565b601f01601f19169290920160200192915050565b6060815260006113726060830186611333565b6001600160a01b0394851660208401529290931660409091015292915050565b6000602082840312156113a457600080fd5b815161123281611021565b600080604083850312156113c257600080fd5b825167ffffffffffffffff8111156113d957600080fd5b8301601f810185136113ea57600080fd5b80516113f8611164826110bd565b81815286602083850101111561140d57600080fd5b61141e82602083016020860161130f565b60209590950151949694955050505050565b8481526080602082015260006114496080830186611333565b6001600160a01b039490941660408301525090151560609091015292915050565b634e487b7160e01b600052603260045260246000fd5b6000808335601e1984360301811261149757600080fd5b83018035915067ffffffffffffffff8211156114b257600080fd5b6020019150368190038213156114c757600080fd5b9250929050565b81835281816020850137506000828201602090810191909152601f909101601f19169091010190565b6001600160a01b03881681526000602060c08184015261151b60c08401898b6114ce565b838103604085015287518082528289019183019060005b8181101561154e57835183529284019291840191600101611532565b5050848103606086015287518082528382019250600581901b82018401848a0160005b8381101561159f57601f1985840301865261158d838351611333565b95870195925090860190600101611571565b50506080870189905287151560a088015294506115bc9350505050565b98975050505050505050565b6000602082840312156115da57600080fd5b5051919050565b600082516115f381846020870161130f565b9190910192915050565b6020815260006110006020830184866114ce565b634e487b7160e01b600052601160045260246000fd5b80820281158282048414176109d9576109d9611611565b818103818111156109d9576109d9611611565b63ffffffff81811683821602808216919082811461167157611671611611565b505092915050565b808201808211156109d9576109d9611611565b60008161169b5761169b611611565b50600019019056fea264697066735822122009938f8f8f2f0c433b22269a7d99a08b6e1b8f23d772a2544f8241d825e9868e64736f6c63430008180033",
  "linkReferences": {},
  "deployedLinkReferences": {}
}