{
  "_format": "hh-sol-artifact-1",
  "contractName": "USDPricingOracle",
  "sourceName": "contracts/pricing/USDPricingOracle.sol",
  "abi": [
    {
      "inputs": [
        {
          "internalType": "uint256[]",
          "name": "prices",
          "type": "uint256[]"
        },
        {
          "internalType": "contract IAggregator",
          "name": "aggregator",
          "type": "address"
        }
      ],
      "stateMutability": "nonpayable",
      "type": "constructor"
    },
    {
      "inputs": [
        {
          "internalType": "address",
          "name": "owner",
          "type": "address"
        }
      ],
      "name": "OwnableInvalidOwner",
      "type": "error"
    },
    {
      "inputs": [
        {
          "internalType": "address",
          "name": "account",
          "type": "address"
        }
      ],
      "name": "OwnableUnauthorizedAccount",
      "type": "error"
    },
    {
      "anonymous": false,
      "inputs": [
        {
          "indexed": true,
          "internalType": "address",
          "name": "previousOwner",
          "type": "address"
        },
        {
          "indexed": true,
          "internalType": "address",
          "name": "newOwner",
          "type": "address"
        }
      ],
      "name": "OwnershipTransferred",
      "type": "event"
    },
    {
      "inputs": [],
      "name": "owner",
      "outputs": [
        {
          "internalType": "address",
          "name": "",
          "type": "address"
        }
      ],
      "stateMutability": "view",
      "type": "function"
    },
    {
      "inputs": [
        {
          "internalType": "string",
          "name": "name",
          "type": "string"
        }
      ],
      "name": "price",
      "outputs": [
        {
          "internalType": "uint256",
          "name": "",
          "type": "uint256"
        }
      ],
      "stateMutability": "view",
      "type": "function"
    },
    {
      "inputs": [],
      "name": "renounceOwnership",
      "outputs": [],
      "stateMutability": "nonpayable",
      "type": "function"
    },
    {
      "inputs": [
        {
          "internalType": "uint256[]",
          "name": "prices",
          "type": "uint256[]"
        }
      ],
      "name": "setPrices",
      "outputs": [],
      "stateMutability": "nonpayable",
      "type": "function"
    },
    {
      "inputs": [
        {
          "internalType": "address",
          "name": "newOwner",
          "type": "address"
        }
      ],
      "name": "transferOwnership",
      "outputs": [],
      "stateMutability": "nonpayable",
      "type": "function"
    }
  ],
  "bytecode": "0x608060405234801561001057600080fd5b50604051610a3d380380610a3d83398101604081905261002f9161017b565b338061005557604051631e4fbdf760e01b81526000600482015260240160405180910390fd5b61005e81610099565b5081516100729060019060208501906100e9565b50600280546001600160a01b0319166001600160a01b03929092169190911790555061024a565b600080546001600160a01b038381166001600160a01b0319831681178455604051919092169283917f8be0079c531659141344cd1fd0a4f28419497f9722a3daafe3b4186f6b6457e09190a35050565b828054828255906000526020600020908101928215610124579160200282015b82811115610124578251825591602001919060010190610109565b50610130929150610134565b5090565b5b808211156101305760008155600101610135565b634e487b7160e01b600052604160045260246000fd5b80516001600160a01b038116811461017657600080fd5b919050565b6000806040838503121561018e57600080fd5b82516001600160401b03808211156101a557600080fd5b818501915085601f8301126101b957600080fd5b81516020828211156101cd576101cd610149565b8160051b604051601f19603f830116810181811086821117156101f2576101f2610149565b60405292835281830193508481018201928984111561021057600080fd5b948201945b8386101561022e57855185529482019493820193610215565b965061023d905087820161015f565b9450505050509250929050565b6107e4806102596000396000f3fe608060405234801561001057600080fd5b50600436106100675760003560e01c80638da5cb5b116100505780638da5cb5b14610089578063f2fde38b146100a9578063fe2c6198146100bc57600080fd5b8063715018a61461006c57806379cf92d314610076575b600080fd5b6100746100dd565b005b610074610084366004610438565b6100f1565b6000546040516001600160a01b0390911681526020015b60405180910390f35b6100746100b73660046104f6565b610110565b6100cf6100ca366004610526565b61016c565b6040519081526020016100a0565b6100e5610314565b6100ef600061035a565b565b6100f9610314565b805161010c9060019060208401906103c2565b5050565b610118610314565b6001600160a01b038116610160576040517f1e4fbdf7000000000000000000000000000000000000000000000000000000008152600060048201526024015b60405180910390fd5b6101698161035a565b50565b60008061017a6001846105ae565b6001549091508110610197576001805461019491906105ae565b90505b600254604080517f313ce56700000000000000000000000000000000000000000000000000000000815290516000926001600160a01b03169163313ce5679160048083019260209291908290030181865afa1580156101fa573d6000803e3d6000fd5b505050506040513d601f19601f8201168201806040525081019061021e91906105c1565b90506000600260009054906101000a90046001600160a01b03166001600160a01b031663feaf968c6040518163ffffffff1660e01b815260040160a060405180830381865afa158015610275573d6000803e3d6000fd5b505050506040513d601f19601f820116820180604052508101906102999190610603565b50505091505060008260126102ae9190610653565b6102b990600a610750565b6102c3908361075f565b90506000600185815481106102da576102da610776565b906000526020600020015490508181670de0b6b3a76400006102fc919061075f565b610306919061078c565b955050505050505b92915050565b6000546001600160a01b031633146100ef576040517f118cdaa7000000000000000000000000000000000000000000000000000000008152336004820152602401610157565b600080546001600160a01b038381167fffffffffffffffffffffffff0000000000000000000000000000000000000000831681178455604051919092169283917f8be0079c531659141344cd1fd0a4f28419497f9722a3daafe3b4186f6b6457e09190a35050565b8280548282559060005260206000209081019282156103fd579160200282015b828111156103fd5782518255916020019190600101906103e2565b5061040992915061040d565b5090565b5b80821115610409576000815560010161040e565b634e487b7160e01b600052604160045260246000fd5b6000602080838503121561044b57600080fd5b823567ffffffffffffffff8082111561046357600080fd5b818501915085601f83011261047757600080fd5b81358181111561048957610489610422565b8060051b604051601f19603f830116810181811085821117156104ae576104ae610422565b6040529182528482019250838101850191888311156104cc57600080fd5b938501935b828510156104ea578435845293850193928501926104d1565b98975050505050505050565b60006020828403121561050857600080fd5b81356001600160a01b038116811461051f57600080fd5b9392505050565b6000806020838503121561053957600080fd5b823567ffffffffffffffff8082111561055157600080fd5b818501915085601f83011261056557600080fd5b81358181111561057457600080fd5b86602082850101111561058657600080fd5b60209290920196919550909350505050565b634e487b7160e01b600052601160045260246000fd5b8181038181111561030e5761030e610598565b6000602082840312156105d357600080fd5b815160ff8116811461051f57600080fd5b805169ffffffffffffffffffff811681146105fe57600080fd5b919050565b600080600080600060a0868803121561061b57600080fd5b610624866105e4565b9450602086015193506040860151925060608601519150610647608087016105e4565b90509295509295909350565b60ff828116828216039081111561030e5761030e610598565b600181815b808511156106a757816000190482111561068d5761068d610598565b8085161561069a57918102915b93841c9390800290610671565b509250929050565b6000826106be5750600161030e565b816106cb5750600061030e565b81600181146106e157600281146106eb57610707565b600191505061030e565b60ff8411156106fc576106fc610598565b50506001821b61030e565b5060208310610133831016604e8410600b841016171561072a575081810a61030e565b610734838361066c565b806000190482111561074857610748610598565b029392505050565b600061051f60ff8416836106af565b808202811582820484141761030e5761030e610598565b634e487b7160e01b600052603260045260246000fd5b6000826107a957634e487b7160e01b600052601260045260246000fd5b50049056fea264697066735822122078f0a9c4a4f562c7ab2ec2c42bc43c5d2989409c55505ebeec0c9b55a874ec3c64736f6c63430008180033",
  "linkReferences": {},
  "deployedLinkReferences": {}
}