{
  "_format": "hh-sol-artifact-1",
  "contractName": "NNSController",
  "sourceName": "contracts/NNSController.sol",
  "abi": [
    {
      "inputs": [
        {
          "internalType": "contract IRewarder",
          "name": "rewarder",
          "type": "address"
        },
        {
          "internalType": "contract IResolver",
          "name": "resolver",
          "type": "address"
        },
        {
          "internalType": "contract ICldFactory",
          "name": "cldFactory",
          "type": "address"
        }
      ],
      "stateMutability": "nonpayable",
      "type": "constructor"
    },
    {
      "inputs": [],
      "name": "CldAlreadyExists",
      "type": "error"
    },
    {
      "inputs": [
        {
          "internalType": "uint256",
          "name": "required",
          "type": "uint256"
        },
        {
          "internalType": "uint256",
          "name": "provided",
          "type": "uint256"
        }
      ],
      "name": "InsufficientTransferAmount",
      "type": "error"
    },
    {
      "inputs": [],
      "name": "InvalidCld",
      "type": "error"
    },
    {
      "inputs": [],
      "name": "InvalidLabel",
      "type": "error"
    },
    {
      "inputs": [],
      "name": "InvalidPricingOracle",
      "type": "error"
    },
    {
      "inputs": [],
      "name": "InvalidRegistrationPeriod",
      "type": "error"
    },
    {
      "inputs": [
        {
          "internalType": "uint256",
          "name": "cldId",
          "type": "uint256"
        }
      ],
      "name": "NonExpiringCld",
      "type": "error"
    },
    {
      "inputs": [
        {
          "internalType": "address",
          "name": "owner",
          "type": "address"
        }
      ],
      "name": "OwnableInvalidOwner",
      "type": "error"
    },
    {
      "inputs": [
        {
          "internalType": "address",
          "name": "account",
          "type": "address"
        }
      ],
      "name": "OwnableUnauthorizedAccount",
      "type": "error"
    },
    {
      "inputs": [
        {
          "internalType": "uint256",
          "name": "value",
          "type": "uint256"
        },
        {
          "internalType": "uint256",
          "name": "length",
          "type": "uint256"
        }
      ],
      "name": "StringsInsufficientHexLength",
      "type": "error"
    },
    {
      "inputs": [],
      "name": "UnauthorizedAccount",
      "type": "error"
    },
    {
      "anonymous": false,
      "inputs": [
        {
          "indexed": false,
          "internalType": "uint256",
          "name": "cldId",
          "type": "uint256"
        },
        {
          "indexed": false,
          "internalType": "string",
          "name": "name",
          "type": "string"
        },
        {
          "indexed": false,
          "internalType": "address",
          "name": "registry",
          "type": "address"
        },
        {
          "indexed": false,
          "internalType": "bool",
          "name": "hasExpiringNames",
          "type": "bool"
        }
      ],
      "name": "CldRegistered",
      "type": "event"
    },
    {
      "anonymous": false,
      "inputs": [
        {
          "indexed": true,
          "internalType": "address",
          "name": "previousOwner",
          "type": "address"
        },
        {
          "indexed": true,
          "internalType": "address",
          "name": "newOwner",
          "type": "address"
        }
      ],
      "name": "OwnershipTransferred",
      "type": "event"
    },
    {
      "anonymous": false,
      "inputs": [
        {
          "indexed": false,
          "internalType": "uint256",
          "name": "cldId",
          "type": "uint256"
        },
        {
          "indexed": false,
          "internalType": "address",
          "name": "oracle",
          "type": "address"
        }
      ],
      "name": "PricingOracleChanged",
      "type": "event"
    },
    {
      "inputs": [],
      "name": "RECORD_CRYPTO_ETH_ADDRESS",
      "outputs": [
        {
          "internalType": "uint256",
          "name": "",
          "type": "uint256"
        }
      ],
      "stateMutability": "view",
      "type": "function"
    },
    {
      "inputs": [
        {
          "internalType": "uint256",
          "name": "cldId",
          "type": "uint256"
        }
      ],
      "name": "isExpiringCLD",
      "outputs": [
        {
          "internalType": "bool",
          "name": "",
          "type": "bool"
        }
      ],
      "stateMutability": "view",
      "type": "function"
    },
    {
      "inputs": [],
      "name": "owner",
      "outputs": [
        {
          "internalType": "address",
          "name": "",
          "type": "address"
        }
      ],
      "stateMutability": "view",
      "type": "function"
    },
    {
      "inputs": [
        {
          "internalType": "uint256",
          "name": "cldId",
          "type": "uint256"
        }
      ],
      "name": "pricingOracleOf",
      "outputs": [
        {
          "internalType": "contract IPricingOracle",
          "name": "",
          "type": "address"
        }
      ],
      "stateMutability": "view",
      "type": "function"
    },
    {
      "inputs": [
        {
          "internalType": "address",
          "name": "to",
          "type": "address"
        },
        {
          "internalType": "string[]",
          "name": "labels",
          "type": "string[]"
        },
        {
          "internalType": "bool",
          "name": "withReverse",
          "type": "bool"
        },
        {
          "internalType": "address",
          "name": "referer",
          "type": "address"
        },
        {
          "internalType": "uint8",
          "name": "periods",
          "type": "uint8"
        }
      ],
      "name": "register",
      "outputs": [],
      "stateMutability": "payable",
      "type": "function"
    },
    {
      "inputs": [
        {
          "internalType": "string",
          "name": "name",
          "type": "string"
        },
        {
          "internalType": "uint8",
          "name": "communityReward",
          "type": "uint8"
        },
        {
          "internalType": "uint8",
          "name": "referralReward",
          "type": "uint8"
        },
        {
          "internalType": "contract IPricingOracle",
          "name": "pricingOracle",
          "type": "address"
        },
        {
          "internalType": "address",
          "name": "communityPayable",
          "type": "address"
        },
        {
          "internalType": "address",
          "name": "communityManager",
          "type": "address"
        },
        {
          "internalType": "bool",
          "name": "hasExpiringNames",
          "type": "bool"
        },
        {
          "internalType": "bool",
          "name": "isDefaultCldResolver",
          "type": "bool"
        }
      ],
      "name": "registerCld",
      "outputs": [],
      "stateMutability": "nonpayable",
      "type": "function"
    },
    {
      "inputs": [
        {
          "internalType": "uint256",
          "name": "cldId",
          "type": "uint256"
        }
      ],
      "name": "registryOf",
      "outputs": [
        {
          "internalType": "contract IRegistry",
          "name": "",
          "type": "address"
        }
      ],
      "stateMutability": "view",
      "type": "function"
    },
    {
      "inputs": [
        {
          "internalType": "string[]",
          "name": "labels",
          "type": "string[]"
        },
        {
          "internalType": "uint8",
          "name": "periods",
          "type": "uint8"
        }
      ],
      "name": "renew",
      "outputs": [],
      "stateMutability": "payable",
      "type": "function"
    },
    {
      "inputs": [],
      "name": "renounceOwnership",
      "outputs": [],
      "stateMutability": "nonpayable",
      "type": "function"
    },
    {
      "inputs": [
        {
          "internalType": "uint256",
          "name": "cldId",
          "type": "uint256"
        },
        {
          "internalType": "contract IPricingOracle",
          "name": "oracle",
          "type": "address"
        }
      ],
      "name": "setPricingOracle",
      "outputs": [],
      "stateMutability": "nonpayable",
      "type": "function"
    },
    {
      "inputs": [
        {
          "internalType": "address",
          "name": "newOwner",
          "type": "address"
        }
      ],
      "name": "transferOwnership",
      "outputs": [],
      "stateMutability": "nonpayable",
      "type": "function"
    }
  ],
  "bytecode": "0x60806040523480156200001157600080fd5b5060405162001a7b38038062001a7b833981016040819052620000349162000113565b33806200005b57604051631e4fbdf760e01b81526000600482015260240160405180910390fd5b6200006681620000aa565b50600280546001600160a01b039485166001600160a01b03199182161790915560018054938516938216939093179092556003805491909316911617905562000167565b600080546001600160a01b038381166001600160a01b0319831681178455604051919092169283917f8be0079c531659141344cd1fd0a4f28419497f9722a3daafe3b4186f6b6457e09190a35050565b6001600160a01b03811681146200011057600080fd5b50565b6000806000606084860312156200012957600080fd5b83516200013681620000fa565b60208501519093506200014981620000fa565b60408501519092506200015c81620000fa565b809150509250925092565b61190480620001776000396000f3fe6080604052600436106100bc5760003560e01c8063715018a611610074578063a8c86bd81161004e578063a8c86bd8146101ec578063f2fde38b1461022e578063fe7dbff61461024e57600080fd5b8063715018a6146101835780638da5cb5b14610198578063a81ce6f9146101b657600080fd5b80632fb9fb63116100a55780632fb9fb63146101205780633c128f6c146101335780636aacc08f1461015357600080fd5b80631a0cab9e146100c15780632759a310146100fe575b600080fd5b3480156100cd57600080fd5b506100e16100dc3660046111bd565b610261565b6040516001600160a01b0390911681526020015b60405180910390f35b34801561010a57600080fd5b5061011e610119366004611294565b610289565b005b61011e61012e3660046113d5565b610598565b34801561013f57600080fd5b5061011e61014e366004611429565b610798565b34801561015f57600080fd5b5061017361016e3660046111bd565b61087a565b60405190151581526020016100f5565b34801561018f57600080fd5b5061011e61089c565b3480156101a457600080fd5b506000546001600160a01b03166100e1565b3480156101c257600080fd5b506100e16101d13660046111bd565b6000908152600460205260409020546001600160a01b031690565b3480156101f857600080fd5b506102207f391a42857851a55da4050881bd0d2e6c9978bfa7483b787e07a760028ed71a2b81565b6040519081526020016100f5565b34801561023a57600080fd5b5061011e610249366004611459565b6108b0565b61011e61025c366004611476565b610907565b600061026c82610b2d565b50506000908152600560205260409020546001600160a01b031690565b610291610b81565b6003546040517fe5854f480000000000000000000000000000000000000000000000000000000081526000916001600160a01b03169063e5854f48906102df908c9030908990600401611550565b6020604051808303816000875af11580156102fe573d6000803e3d6000fd5b505050506040513d601f19601f820116820180604052508101906103229190611583565b90506000816001600160a01b03166383d48e046040518163ffffffff1660e01b8152600401600060405180830381865afa158015610364573d6000803e3d6000fd5b505050506040513d6000823e601f3d908101601f1916820160405261038c91908101906115a0565b6000818152600460205260409020549092506001600160a01b03161590506103e0576040517f6e12e57b00000000000000000000000000000000000000000000000000000000815260040160405180910390fd5b6002546040517f436e5d660000000000000000000000000000000000000000000000000000000081526001600160a01b038481166004830152888116602483015260ff808c1660448401528c1660648301529091169063436e5d6690608401600060405180830381600087803b15801561045957600080fd5b505af115801561046d573d6000803e3d6000fd5b50506001546040517fa04d51650000000000000000000000000000000000000000000000000000000081526001600160a01b0386811660048301528715156024830152909116925063a04d51659150604401600060405180830381600087803b1580156104d957600080fd5b505af11580156104ed573d6000803e3d6000fd5b5050506000828152600460205260409020805473ffffffffffffffffffffffffffffffffffffffff19166001600160a01b038516179055508315610545576000818152600660205260409020805460ff191660011790555b7f5a567326466bd36d057db73b18139b6b27662a2d8f225c0c2617be54a8f8e060818b848760405161057a9493929190611621565b60405180910390a161058c8188610bc7565b50505050505050505050565b6105a28383610ca0565b60006106086000858560018181106105bc576105bc61165b565b90506020028101906105ce9190611671565b8080601f016020809104026020016040519081016040528093929190818152602001838380828437600092019190915250610d0c92505050565b60008181526006602052604090205490915060ff1661065b576040517f42cad659000000000000000000000000000000000000000000000000000000008152600481018290526024015b60405180910390fd5b600061066682610b2d565b905060006106998385888860008181106106825761068261165b565b90506020028101906106949190611671565b610d41565b9050816001600160a01b031663acf1a841878760008181106106bd576106bd61165b565b90506020028101906106cf9190611671565b6106d98789610ecb565b6040518463ffffffff1660e01b81526004016106f7939291906116e1565b600060405180830381600087803b15801561071157600080fd5b505af1158015610725573d6000803e3d6000fd5b505060025460405163469e080560e11b815260048101879052600060248201526001600160a01b039091169250638d3c100a915083906044016000604051808303818588803b15801561077757600080fd5b505af115801561078b573d6000803e3d6000fd5b5050505050505050505050565b60006107a383610b2d565b90506001600160a01b0381166341ef73b9336040517fffffffff0000000000000000000000000000000000000000000000000000000060e084901b1681526001600160a01b039091166004820152602401602060405180830381865afa158015610811573d6000803e3d6000fd5b505050506040513d601f19601f820116820180604052508101906108359190611705565b61086b576040517fa97ff08a00000000000000000000000000000000000000000000000000000000815260040160405180910390fd5b6108758383610bc7565b505050565b600061088582610b2d565b505060009081526006602052604090205460ff1690565b6108a4610b81565b6108ae6000610f09565b565b6108b8610b81565b6001600160a01b0381166108fb576040517f1e4fbdf700000000000000000000000000000000000000000000000000000000815260006004820152602401610652565b61090481610f09565b50565b6109118585610ca0565b600061092b6000878760018181106105bc576105bc61165b565b9050600061093882610b2d565b9050600061095483858a8a60008181106106825761068261165b565b604080516001808252818301909252919250600091906020808301908036833750506040805160018082528183019092529293506000929150602082015b60608152602001906001900390816109925790505090507f391a42857851a55da4050881bd0d2e6c9978bfa7483b787e07a760028ed71a2b826000815181106109dd576109dd61165b565b6020026020010181815250506109f28b610f66565b81600081518110610a0557610a0561165b565b6020026020010181905250836001600160a01b03166350cf25ef8c8c8c6000818110610a3357610a3361165b565b9050602002810190610a459190611671565b8686610a518c8e610ecb565b8f6040518863ffffffff1660e01b8152600401610a749796959493929190611722565b6020604051808303816000875af1158015610a93573d6000803e3d6000fd5b505050506040513d601f19601f82011682018060405250810190610ab791906117f3565b5060025460405163469e080560e11b8152600481018790526001600160a01b03898116602483015290911690638d3c100a9085906044016000604051808303818588803b158015610b0757600080fd5b505af1158015610b1b573d6000803e3d6000fd5b50505050505050505050505050505050565b6000818152600460205260408120546001600160a01b031680610b7b576040517eea4de600000000000000000000000000000000000000000000000000000000815260040160405180910390fd5b92915050565b6000546001600160a01b031633146108ae576040517f118cdaa7000000000000000000000000000000000000000000000000000000008152336004820152602401610652565b6001600160a01b038116610c07576040517f2715c31600000000000000000000000000000000000000000000000000000000815260040160405180910390fd5b6000828152600560205260409020546001600160a01b0390811690821603610c2d575050565b600082815260056020908152604091829020805473ffffffffffffffffffffffffffffffffffffffff19166001600160a01b0385169081179091558251858152918201527f9c672d5bb2cafcb190c384545530db3acea27bf7a8a9184d2afc7b7b1339afd7910160405180910390a15050565b60028114610cc157604051633d36cb8d60e01b815260040160405180910390fd5b81816000818110610cd457610cd461165b565b9050602002810190610ce69190611671565b9050600003610d0857604051633d36cb8d60e01b815260040160405180910390fd5b5050565b60008151600003610d3057604051633d36cb8d60e01b815260040160405180910390fd5b610d3a8284610f7c565b9392505050565b6000848152600560205260408082205490517ffe2c619800000000000000000000000000000000000000000000000000000000815282916001600160a01b03169063fe2c619890610d98908790879060040161180c565b602060405180830381865afa158015610db5573d6000803e3d6000fd5b505050506040513d601f19601f82011682018060405250810190610dd991906117f3565b60008781526006602052604090205490915060ff1615610e405760008560ff1611610e30576040517fddceada600000000000000000000000000000000000000000000000000000000815260040160405180910390fd5b610e3d60ff861682611836565b90505b80341015610e83576040517f5338e50600000000000000000000000000000000000000000000000000000000815260048101829052346024820152604401610652565b803410610ec257336108fc610e98833461184d565b6040518115909202916000818181858888f19350505050158015610ec0573d6000803e3d6000fd5b505b95945050505050565b60008281526006602052604081205460ff1615610f0057610ef360ff83166301e13380611860565b63ffffffff169050610b7b565b50600092915050565b600080546001600160a01b0383811673ffffffffffffffffffffffffffffffffffffffff19831681178455604051919092169283917f8be0079c531659141344cd1fd0a4f28419497f9722a3daafe3b4186f6b6457e09190a35050565b6060610b7b6001600160a01b0383166014610fdf565b60008183604051602001610f909190611888565b60405160208183030381529060405280519060200120604051602001610fc0929190918252602082015260400190565b60408051601f1981840301815291905280516020909101209392505050565b6060826000610fef846002611836565b610ffa9060026118a4565b67ffffffffffffffff811115611012576110126111d6565b6040519080825280601f01601f19166020018201604052801561103c576020820181803683370190505b5090507f3000000000000000000000000000000000000000000000000000000000000000816000815181106110735761107361165b565b60200101906001600160f81b031916908160001a9053507f7800000000000000000000000000000000000000000000000000000000000000816001815181106110be576110be61165b565b60200101906001600160f81b031916908160001a90535060006110e2856002611836565b6110ed9060016118a4565b90505b6001811115611172577f303132333435363738396162636465660000000000000000000000000000000083600f166010811061112e5761112e61165b565b1a60f81b8282815181106111445761114461165b565b60200101906001600160f81b031916908160001a90535060049290921c9161116b816118b7565b90506110f0565b5081156111b5576040517fe22e27eb0000000000000000000000000000000000000000000000000000000081526004810186905260248101859052604401610652565b949350505050565b6000602082840312156111cf57600080fd5b5035919050565b634e487b7160e01b600052604160045260246000fd5b604051601f8201601f1916810167ffffffffffffffff81118282101715611215576112156111d6565b604052919050565b600067ffffffffffffffff821115611237576112376111d6565b50601f01601f191660200190565b803560ff8116811461125657600080fd5b919050565b6001600160a01b038116811461090457600080fd5b80356112568161125b565b801515811461090457600080fd5b80356112568161127b565b600080600080600080600080610100898b0312156112b157600080fd5b883567ffffffffffffffff8111156112c857600080fd5b8901601f81018b136112d957600080fd5b80356112ec6112e78261121d565b6111ec565b8181528c602083850101111561130157600080fd5b81602084016020830137600060208383010152809a5050505061132660208a01611245565b965061133460408a01611245565b955061134260608a01611270565b945061135060808a01611270565b935061135e60a08a01611270565b925061136c60c08a01611289565b915061137a60e08a01611289565b90509295985092959890939650565b60008083601f84011261139b57600080fd5b50813567ffffffffffffffff8111156113b357600080fd5b6020830191508360208260051b85010111156113ce57600080fd5b9250929050565b6000806000604084860312156113ea57600080fd5b833567ffffffffffffffff81111561140157600080fd5b61140d86828701611389565b9094509250611420905060208501611245565b90509250925092565b6000806040838503121561143c57600080fd5b82359150602083013561144e8161125b565b809150509250929050565b60006020828403121561146b57600080fd5b8135610d3a8161125b565b60008060008060008060a0878903121561148f57600080fd5b863561149a8161125b565b9550602087013567ffffffffffffffff8111156114b657600080fd5b6114c289828a01611389565b90965094505060408701356114d68161127b565b925060608701356114e68161125b565b91506114f460808801611245565b90509295509295509295565b60005b8381101561151b578181015183820152602001611503565b50506000910152565b6000815180845261153c816020860160208601611500565b601f01601f19169290920160200192915050565b6060815260006115636060830186611524565b6001600160a01b0394851660208401529290931660409091015292915050565b60006020828403121561159557600080fd5b8151610d3a8161125b565b600080604083850312156115b357600080fd5b825167ffffffffffffffff8111156115ca57600080fd5b8301601f810185136115db57600080fd5b80516115e96112e78261121d565b8181528660208385010111156115fe57600080fd5b61160f826020830160208601611500565b60209590950151949694955050505050565b84815260806020820152600061163a6080830186611524565b6001600160a01b039490941660408301525090151560609091015292915050565b634e487b7160e01b600052603260045260246000fd5b6000808335601e1984360301811261168857600080fd5b83018035915067ffffffffffffffff8211156116a357600080fd5b6020019150368190038213156113ce57600080fd5b81835281816020850137506000828201602090810191909152601f909101601f19169091010190565b6040815260006116f56040830185876116b8565b9050826020830152949350505050565b60006020828403121561171757600080fd5b8151610d3a8161127b565b6001600160a01b03881681526000602060c08184015261174660c08401898b6116b8565b838103604085015287518082528289019183019060005b818110156117795783518352928401929184019160010161175d565b5050848103606086015287518082528382019250600581901b82018401848a0160005b838110156117ca57601f198584030186526117b8838351611524565b9587019592509086019060010161179c565b50506080870189905287151560a088015294506117e79350505050565b98975050505050505050565b60006020828403121561180557600080fd5b5051919050565b6020815260006111b56020830184866116b8565b634e487b7160e01b600052601160045260246000fd5b8082028115828204841417610b7b57610b7b611820565b81810381811115610b7b57610b7b611820565b63ffffffff81811683821602808216919082811461188057611880611820565b505092915050565b6000825161189a818460208701611500565b9190910192915050565b80820180821115610b7b57610b7b611820565b6000816118c6576118c6611820565b50600019019056fea264697066735822122050316a717d71c48a7cf5aba0bbb0f6bada7c07d1f57020a77dd163d9d4dca46f64736f6c63430008180033",
  "linkReferences": {},
  "deployedLinkReferences": {}
}