{
  "_format": "hh-sol-artifact-1",
  "contractName": "NNSController",
  "sourceName": "contracts/NNSController.sol",
  "abi": [
    {
      "inputs": [
        {
          "internalType": "contract IRewarder",
          "name": "rewarder",
          "type": "address"
        },
        {
          "internalType": "contract IResolver",
          "name": "resolver",
          "type": "address"
        },
        {
          "internalType": "contract ICldFactory",
          "name": "cldFactory",
          "type": "address"
        },
        {
          "internalType": "address",
          "name": "signer_",
          "type": "address"
        }
      ],
      "stateMutability": "nonpayable",
      "type": "constructor"
    },
    {
      "inputs": [],
      "name": "CldAlreadyExists",
      "type": "error"
    },
    {
      "inputs": [],
      "name": "ECDSAInvalidSignature",
      "type": "error"
    },
    {
      "inputs": [
        {
          "internalType": "uint256",
          "name": "length",
          "type": "uint256"
        }
      ],
      "name": "ECDSAInvalidSignatureLength",
      "type": "error"
    },
    {
      "inputs": [
        {
          "internalType": "bytes32",
          "name": "s",
          "type": "bytes32"
        }
      ],
      "name": "ECDSAInvalidSignatureS",
      "type": "error"
    },
    {
      "inputs": [
        {
          "internalType": "uint256",
          "name": "required",
          "type": "uint256"
        },
        {
          "internalType": "uint256",
          "name": "provided",
          "type": "uint256"
        }
      ],
      "name": "InsufficientTransferAmount",
      "type": "error"
    },
    {
      "inputs": [],
      "name": "InvalidCld",
      "type": "error"
    },
    {
      "inputs": [],
      "name": "InvalidLabel",
      "type": "error"
    },
    {
      "inputs": [],
      "name": "InvalidPricingOracle",
      "type": "error"
    },
    {
      "inputs": [],
      "name": "InvalidRegistrationMethod",
      "type": "error"
    },
    {
      "inputs": [],
      "name": "InvalidRegistrationPeriod",
      "type": "error"
    },
    {
      "inputs": [
        {
          "internalType": "uint256",
          "name": "cldId",
          "type": "uint256"
        }
      ],
      "name": "NonExpiringCld",
      "type": "error"
    },
    {
      "inputs": [
        {
          "internalType": "address",
          "name": "owner",
          "type": "address"
        }
      ],
      "name": "OwnableInvalidOwner",
      "type": "error"
    },
    {
      "inputs": [
        {
          "internalType": "address",
          "name": "account",
          "type": "address"
        }
      ],
      "name": "OwnableUnauthorizedAccount",
      "type": "error"
    },
    {
      "inputs": [
        {
          "internalType": "uint256",
          "name": "value",
          "type": "uint256"
        },
        {
          "internalType": "uint256",
          "name": "length",
          "type": "uint256"
        }
      ],
      "name": "StringsInsufficientHexLength",
      "type": "error"
    },
    {
      "inputs": [],
      "name": "UnauthorizedAccount",
      "type": "error"
    },
    {
      "anonymous": false,
      "inputs": [
        {
          "indexed": false,
          "internalType": "uint256",
          "name": "cldId",
          "type": "uint256"
        },
        {
          "indexed": false,
          "internalType": "string",
          "name": "name",
          "type": "string"
        },
        {
          "indexed": false,
          "internalType": "address",
          "name": "registry",
          "type": "address"
        },
        {
          "indexed": false,
          "internalType": "bool",
          "name": "hasExpiringNames",
          "type": "bool"
        }
      ],
      "name": "CldRegistered",
      "type": "event"
    },
    {
      "anonymous": false,
      "inputs": [
        {
          "indexed": false,
          "internalType": "uint256",
          "name": "cldId",
          "type": "uint256"
        },
        {
          "indexed": false,
          "internalType": "bool",
          "name": "required",
          "type": "bool"
        }
      ],
      "name": "CldSignatureRequiredChanged",
      "type": "event"
    },
    {
      "anonymous": false,
      "inputs": [
        {
          "indexed": true,
          "internalType": "address",
          "name": "previousOwner",
          "type": "address"
        },
        {
          "indexed": true,
          "internalType": "address",
          "name": "newOwner",
          "type": "address"
        }
      ],
      "name": "OwnershipTransferred",
      "type": "event"
    },
    {
      "anonymous": false,
      "inputs": [
        {
          "indexed": false,
          "internalType": "uint256",
          "name": "cldId",
          "type": "uint256"
        },
        {
          "indexed": false,
          "internalType": "address",
          "name": "oracle",
          "type": "address"
        }
      ],
      "name": "PricingOracleChanged",
      "type": "event"
    },
    {
      "inputs": [],
      "name": "RECORD_CRYPTO_ETH_ADDRESS",
      "outputs": [
        {
          "internalType": "uint256",
          "name": "",
          "type": "uint256"
        }
      ],
      "stateMutability": "view",
      "type": "function"
    },
    {
      "inputs": [
        {
          "internalType": "uint256",
          "name": "cldId",
          "type": "uint256"
        }
      ],
      "name": "isExpiringCLD",
      "outputs": [
        {
          "internalType": "bool",
          "name": "",
          "type": "bool"
        }
      ],
      "stateMutability": "view",
      "type": "function"
    },
    {
      "inputs": [
        {
          "internalType": "uint256",
          "name": "cldId",
          "type": "uint256"
        }
      ],
      "name": "isSignatureRequired",
      "outputs": [
        {
          "internalType": "bool",
          "name": "",
          "type": "bool"
        }
      ],
      "stateMutability": "view",
      "type": "function"
    },
    {
      "inputs": [],
      "name": "owner",
      "outputs": [
        {
          "internalType": "address",
          "name": "",
          "type": "address"
        }
      ],
      "stateMutability": "view",
      "type": "function"
    },
    {
      "inputs": [
        {
          "internalType": "uint256",
          "name": "cldId",
          "type": "uint256"
        }
      ],
      "name": "pricingOracleOf",
      "outputs": [
        {
          "internalType": "contract IPricingOracle",
          "name": "",
          "type": "address"
        }
      ],
      "stateMutability": "view",
      "type": "function"
    },
    {
      "inputs": [
        {
          "internalType": "address",
          "name": "to",
          "type": "address"
        },
        {
          "internalType": "string[]",
          "name": "labels",
          "type": "string[]"
        },
        {
          "internalType": "bool",
          "name": "withReverse",
          "type": "bool"
        },
        {
          "internalType": "address",
          "name": "referer",
          "type": "address"
        },
        {
          "internalType": "uint8",
          "name": "periods",
          "type": "uint8"
        }
      ],
      "name": "register",
      "outputs": [],
      "stateMutability": "payable",
      "type": "function"
    },
    {
      "inputs": [
        {
          "internalType": "string",
          "name": "name",
          "type": "string"
        },
        {
          "internalType": "uint8",
          "name": "communityReward",
          "type": "uint8"
        },
        {
          "internalType": "uint8",
          "name": "referralReward",
          "type": "uint8"
        },
        {
          "internalType": "contract IPricingOracle",
          "name": "pricingOracle",
          "type": "address"
        },
        {
          "internalType": "address",
          "name": "communityPayable",
          "type": "address"
        },
        {
          "internalType": "address",
          "name": "communityManager",
          "type": "address"
        },
        {
          "internalType": "bool",
          "name": "hasExpiringNames",
          "type": "bool"
        },
        {
          "internalType": "bool",
          "name": "isDefaultCldResolver",
          "type": "bool"
        }
      ],
      "name": "registerCld",
      "outputs": [],
      "stateMutability": "nonpayable",
      "type": "function"
    },
    {
      "inputs": [
        {
          "internalType": "address",
          "name": "to",
          "type": "address"
        },
        {
          "internalType": "string[]",
          "name": "labels",
          "type": "string[]"
        },
        {
          "internalType": "bool",
          "name": "withReverse",
          "type": "bool"
        },
        {
          "internalType": "address",
          "name": "referer",
          "type": "address"
        },
        {
          "internalType": "uint8",
          "name": "periods",
          "type": "uint8"
        },
        {
          "internalType": "uint256",
          "name": "nonce",
          "type": "uint256"
        },
        {
          "internalType": "uint256",
          "name": "expiry",
          "type": "uint256"
        },
        {
          "internalType": "bytes",
          "name": "signature",
          "type": "bytes"
        }
      ],
      "name": "registerWithSignature",
      "outputs": [],
      "stateMutability": "payable",
      "type": "function"
    },
    {
      "inputs": [
        {
          "internalType": "uint256",
          "name": "cldId",
          "type": "uint256"
        }
      ],
      "name": "registryOf",
      "outputs": [
        {
          "internalType": "contract IRegistry",
          "name": "",
          "type": "address"
        }
      ],
      "stateMutability": "view",
      "type": "function"
    },
    {
      "inputs": [
        {
          "internalType": "string[]",
          "name": "labels",
          "type": "string[]"
        },
        {
          "internalType": "uint8",
          "name": "periods",
          "type": "uint8"
        }
      ],
      "name": "renew",
      "outputs": [],
      "stateMutability": "payable",
      "type": "function"
    },
    {
      "inputs": [],
      "name": "renounceOwnership",
      "outputs": [],
      "stateMutability": "nonpayable",
      "type": "function"
    },
    {
      "inputs": [
        {
          "internalType": "uint256",
          "name": "cldId",
          "type": "uint256"
        },
        {
          "internalType": "bool",
          "name": "requiresSignature",
          "type": "bool"
        }
      ],
      "name": "setCldSignatureRequired",
      "outputs": [],
      "stateMutability": "nonpayable",
      "type": "function"
    },
    {
      "inputs": [
        {
          "internalType": "uint256",
          "name": "cldId",
          "type": "uint256"
        },
        {
          "internalType": "contract IPricingOracle",
          "name": "oracle",
          "type": "address"
        }
      ],
      "name": "setPricingOracle",
      "outputs": [],
      "stateMutability": "nonpayable",
      "type": "function"
    },
    {
      "inputs": [],
      "name": "signer",
      "outputs": [
        {
          "internalType": "address",
          "name": "",
          "type": "address"
        }
      ],
      "stateMutability": "view",
      "type": "function"
    },
    {
      "inputs": [
        {
          "internalType": "address",
          "name": "newOwner",
          "type": "address"
        }
      ],
      "name": "transferOwnership",
      "outputs": [],
      "stateMutability": "nonpayable",
      "type": "function"
    },
    {
      "inputs": [
        {
          "internalType": "address",
          "name": "sign",
          "type": "address"
        }
      ],
      "name": "updateSigner",
      "outputs": [],
      "stateMutability": "nonpayable",
      "type": "function"
    }
  ],
  "bytecode": "0x60806040523480156200001157600080fd5b506040516200222338038062002223833981016040819052620000349162000124565b33806200005b57604051631e4fbdf760e01b81526000600482015260240160405180910390fd5b6200006681620000bb565b50600280546001600160a01b039586166001600160a01b03199182161790915560018054948616948216949094179093556003805492851692841692909217909155600480549190931691161790556200018c565b600080546001600160a01b038381166001600160a01b0319831681178455604051919092169283917f8be0079c531659141344cd1fd0a4f28419497f9722a3daafe3b4186f6b6457e09190a35050565b6001600160a01b03811681146200012157600080fd5b50565b600080600080608085870312156200013b57600080fd5b845162000148816200010b565b60208601519094506200015b816200010b565b60408601519093506200016e816200010b565b606086015190925062000181816200010b565b939692955090935050565b612087806200019c6000396000f3fe6080604052600436106100f35760003560e01c8063882f35541161008a578063a8c86bd811610059578063a8c86bd814610294578063e033d9bb146102d6578063f2fde38b146102f6578063fe7dbff61461031657600080fd5b8063882f35541461020d5780638da5cb5b14610220578063a7ecd37e1461023e578063a81ce6f91461025e57600080fd5b8063381bd401116100c6578063381bd401146101885780633c128f6c146101a85780636aacc08f146101c8578063715018a6146101f857600080fd5b80631a0cab9e146100f8578063238ac933146101355780632759a310146101535780632fb9fb6314610175575b600080fd5b34801561010457600080fd5b5061011861011336600461179a565b610329565b6040516001600160a01b0390911681526020015b60405180910390f35b34801561014157600080fd5b506004546001600160a01b0316610118565b34801561015f57600080fd5b5061017361016e3660046118af565b610351565b005b6101736101833660046119be565b610660565b34801561019457600080fd5b506101736101a3366004611a12565b610897565b3480156101b457600080fd5b506101736101c3366004611a42565b610903565b3480156101d457600080fd5b506101e86101e336600461179a565b6109e5565b604051901515815260200161012c565b34801561020457600080fd5b50610173610a07565b61017361021b366004611a67565b610a1b565b34801561022c57600080fd5b506000546001600160a01b0316610118565b34801561024a57600080fd5b50610173610259366004611b45565b610b8d565b34801561026a57600080fd5b5061011861027936600461179a565b6000908152600560205260409020546001600160a01b031690565b3480156102a057600080fd5b506102c87f391a42857851a55da4050881bd0d2e6c9978bfa7483b787e07a760028ed71a2b81565b60405190815260200161012c565b3480156102e257600080fd5b506101e86102f136600461179a565b610bc4565b34801561030257600080fd5b50610173610311366004611b45565b610be6565b610173610324366004611b62565b610c3d565b600061033482610c97565b50506000908152600660205260409020546001600160a01b031690565b610359610ceb565b6003546040517fe5854f480000000000000000000000000000000000000000000000000000000081526000916001600160a01b03169063e5854f48906103a7908c9030908990600401611c3c565b6020604051808303816000875af11580156103c6573d6000803e3d6000fd5b505050506040513d601f19601f820116820180604052508101906103ea9190611c6f565b90506000816001600160a01b03166383d48e046040518163ffffffff1660e01b8152600401600060405180830381865afa15801561042c573d6000803e3d6000fd5b505050506040513d6000823e601f3d908101601f191682016040526104549190810190611c8c565b6000818152600560205260409020549092506001600160a01b03161590506104a8576040517f6e12e57b00000000000000000000000000000000000000000000000000000000815260040160405180910390fd5b6002546040517f436e5d660000000000000000000000000000000000000000000000000000000081526001600160a01b038481166004830152888116602483015260ff808c1660448401528c1660648301529091169063436e5d6690608401600060405180830381600087803b15801561052157600080fd5b505af1158015610535573d6000803e3d6000fd5b50506001546040517fa04d51650000000000000000000000000000000000000000000000000000000081526001600160a01b0386811660048301528715156024830152909116925063a04d51659150604401600060405180830381600087803b1580156105a157600080fd5b505af11580156105b5573d6000803e3d6000fd5b5050506000828152600560205260409020805473ffffffffffffffffffffffffffffffffffffffff19166001600160a01b03851617905550831561060d576000818152600760205260409020805460ff191660011790555b7f5a567326466bd36d057db73b18139b6b27662a2d8f225c0c2617be54a8f8e060818b84876040516106429493929190611d0d565b60405180910390a16106548188610d31565b50505050505050505050565b61066a8383610e03565b505060006106d260008585600181811061068657610686611d47565b90506020028101906106989190611d5d565b8080601f016020809104026020016040519081016040528093929190818152602001838380828437600092019190915250610ef292505050565b60008181526007602052604090205490915060ff16610725576040517f42cad659000000000000000000000000000000000000000000000000000000008152600481018290526024015b60405180910390fd5b600061073082610c97565b9050600061079883858888600081811061074c5761074c611d47565b905060200281019061075e9190611d5d565b8080601f016020809104026020016040519081016040528093929190818152602001838380828437600092019190915250610f2792505050565b9050816001600160a01b031663acf1a841878760008181106107bc576107bc611d47565b90506020028101906107ce9190611d5d565b6107d887896110ae565b6040518463ffffffff1660e01b81526004016107f693929190611da4565b600060405180830381600087803b15801561081057600080fd5b505af1158015610824573d6000803e3d6000fd5b505060025460405163469e080560e11b815260048101879052600060248201526001600160a01b039091169250638d3c100a915083906044016000604051808303818588803b15801561087657600080fd5b505af115801561088a573d6000803e3d6000fd5b5050505050505050505050565b61089f610ceb565b6108a882610c97565b50600082815260086020908152604091829020805460ff19168415159081179091558251858152918201527ff180720f83337c340880c56f6a9fbb46eb8a31b714b00128c676a25d847fafaa91015b60405180910390a15050565b600061090e83610c97565b90506001600160a01b0381166341ef73b9336040517fffffffff0000000000000000000000000000000000000000000000000000000060e084901b1681526001600160a01b039091166004820152602401602060405180830381865afa15801561097c573d6000803e3d6000fd5b505050506040513d601f19601f820116820180604052508101906109a09190611ddd565b6109d6576040517fa97ff08a00000000000000000000000000000000000000000000000000000000815260040160405180910390fd5b6109e08383610d31565b505050565b60006109f082610c97565b505060009081526007602052604090205460ff1690565b610a0f610ceb565b610a1960006110ec565b565b600080610a288a8a610e03565b600082815260086020526040902054919350915060ff16610a5c57604051631c9a177360e31b815260040160405180910390fd5b60008b83838b8b8b8a8c604051602001610a7d989796959493929190611dfa565b6040516020818303038152906040528051906020012090506000610ad7610ad1837f19457468657265756d205369676e6564204d6573736167653a0a3332000000006000908152601c91909152603c902090565b86611149565b6004549091506001600160a01b03808316911614610b085760405163f645eedf60e01b815260040160405180910390fd5b854210610b285760405163f645eedf60e01b815260040160405180910390fd5b60008781526009602052604090205460ff1615610b585760405163f645eedf60e01b815260040160405180910390fd5b610b668d85858d8d8d611173565b5050506000938452505060096020525060409020805460ff19166001179055505050505050565b610b95610ceb565b6004805473ffffffffffffffffffffffffffffffffffffffff19166001600160a01b0392909216919091179055565b6000610bcf82610c97565b505060009081526008602052604090205460ff1690565b610bee610ceb565b6001600160a01b038116610c31576040517f1e4fbdf70000000000000000000000000000000000000000000000000000000081526000600482015260240161071c565b610c3a816110ec565b50565b600080610c4a8787610e03565b600082815260086020526040902054919350915060ff1615610c7f57604051631c9a177360e31b815260040160405180910390fd5b610c8d888383888888611173565b5050505050505050565b6000818152600560205260408120546001600160a01b031680610ce5576040517eea4de600000000000000000000000000000000000000000000000000000000815260040160405180910390fd5b92915050565b6000546001600160a01b03163314610a19576040517f118cdaa700000000000000000000000000000000000000000000000000000000815233600482015260240161071c565b6001600160a01b038116610d71576040517f2715c31600000000000000000000000000000000000000000000000000000000815260040160405180910390fd5b6000828152600660205260409020546001600160a01b0390811690821603610d97575050565b600082815260066020908152604091829020805473ffffffffffffffffffffffffffffffffffffffff19166001600160a01b0385169081179091558251858152918201527f9c672d5bb2cafcb190c384545530db3acea27bf7a8a9184d2afc7b7b1339afd791016108f7565b6000606060028314610e2857604051633d36cb8d60e01b815260040160405180910390fd5b83836000818110610e3b57610e3b611d47565b9050602002810190610e4d9190611d5d565b9050600003610e6f57604051633d36cb8d60e01b815260040160405180910390fd5b610e8760008585600181811061068657610686611d47565b84846000818110610e9a57610e9a611d47565b9050602002810190610eac9190611d5d565b81818080601f01602080910402602001604051908101604052809392919081815260200183838082843760009201919091525095975091955050505050505b9250929050565b60008151600003610f1657604051633d36cb8d60e01b815260040160405180910390fd5b610f208284611340565b9392505050565b6000838152600660205260408082205490517ffe2c619800000000000000000000000000000000000000000000000000000000815282916001600160a01b03169063fe2c619890610f7c908690600401611e92565b602060405180830381865afa158015610f99573d6000803e3d6000fd5b505050506040513d601f19601f82011682018060405250810190610fbd9190611ea5565b60008681526007602052604090205490915060ff16156110245760008460ff1611611014576040517fddceada600000000000000000000000000000000000000000000000000000000815260040160405180910390fd5b61102160ff851682611ed4565b90505b80341015611067576040517f5338e5060000000000000000000000000000000000000000000000000000000081526004810182905234602482015260440161071c565b8034106110a657336108fc61107c8334611eeb565b6040518115909202916000818181858888f193505050501580156110a4573d6000803e3d6000fd5b505b949350505050565b60008281526007602052604081205460ff16156110e3576110d660ff83166301e13380611efe565b63ffffffff169050610ce5565b50600092915050565b600080546001600160a01b0383811673ffffffffffffffffffffffffffffffffffffffff19831681178455604051919092169283917f8be0079c531659141344cd1fd0a4f28419497f9722a3daafe3b4186f6b6457e09190a35050565b60008060008061115986866113a3565b92509250925061116982826113f0565b5090949350505050565b600061117e86610c97565b9050600061118d878488610f27565b604080516001808252818301909252919250600091906020808301908036833750506040805160018082528183019092529293506000929150602082015b60608152602001906001900390816111cb5790505090507f391a42857851a55da4050881bd0d2e6c9978bfa7483b787e07a760028ed71a2b8260008151811061121657611216611d47565b60200260200101818152505061122b8a6114df565b8160008151811061123e5761123e611d47565b6020026020010181905250836001600160a01b03166350cf25ef8b8a85856112668f8c6110ae565b8d6040518763ffffffff1660e01b815260040161128896959493929190611f26565b6020604051808303816000875af11580156112a7573d6000803e3d6000fd5b505050506040513d601f19601f820116820180604052508101906112cb9190611ea5565b5060025460405163469e080560e11b8152600481018b90526001600160a01b03888116602483015290911690638d3c100a9085906044016000604051808303818588803b15801561131b57600080fd5b505af115801561132f573d6000803e3d6000fd5b505050505050505050505050505050565b600081836040516020016113549190611ff5565b60405160208183030381529060405280519060200120604051602001611384929190918252602082015260400190565b60408051601f1981840301815291905280516020909101209392505050565b600080600083516041036113dd5760208401516040850151606086015160001a6113cf888285856114f5565b9550955095505050506113e9565b50508151600091506002905b9250925092565b600082600381111561140457611404612011565b0361140d575050565b600182600381111561142157611421612011565b0361143f5760405163f645eedf60e01b815260040160405180910390fd5b600282600381111561145357611453612011565b0361148d576040517ffce698f70000000000000000000000000000000000000000000000000000000081526004810182905260240161071c565b60038260038111156114a1576114a1612011565b036114db576040517fd78bce0c0000000000000000000000000000000000000000000000000000000081526004810182905260240161071c565b5050565b6060610ce56001600160a01b03831660146115c4565b600080807f7fffffffffffffffffffffffffffffff5d576e7357a4501ddfe92f46681b20a084111561153057506000915060039050826115ba565b604080516000808252602082018084528a905260ff891692820192909252606081018790526080810186905260019060a0016020604051602081039080840390855afa158015611584573d6000803e3d6000fd5b5050604051601f1901519150506001600160a01b0381166115b0575060009250600191508290506115ba565b9250600091508190505b9450945094915050565b60608260006115d4846002611ed4565b6115df906002612027565b67ffffffffffffffff8111156115f7576115f76117b3565b6040519080825280601f01601f191660200182016040528015611621576020820181803683370190505b5090507f30000000000000000000000000000000000000000000000000000000000000008160008151811061165857611658611d47565b60200101906001600160f81b031916908160001a9053507f7800000000000000000000000000000000000000000000000000000000000000816001815181106116a3576116a3611d47565b60200101906001600160f81b031916908160001a90535060006116c7856002611ed4565b6116d2906001612027565b90505b6001811115611757577f303132333435363738396162636465660000000000000000000000000000000083600f166010811061171357611713611d47565b1a60f81b82828151811061172957611729611d47565b60200101906001600160f81b031916908160001a90535060049290921c916117508161203a565b90506116d5565b5081156110a6576040517fe22e27eb000000000000000000000000000000000000000000000000000000008152600481018690526024810185905260440161071c565b6000602082840312156117ac57600080fd5b5035919050565b634e487b7160e01b600052604160045260246000fd5b604051601f8201601f1916810167ffffffffffffffff811182821017156117f2576117f26117b3565b604052919050565b600067ffffffffffffffff821115611814576118146117b3565b50601f01601f191660200190565b6000611835611830846117fa565b6117c9565b905082815283838301111561184957600080fd5b828260208301376000602084830101529392505050565b803560ff8116811461187157600080fd5b919050565b6001600160a01b0381168114610c3a57600080fd5b803561187181611876565b8015158114610c3a57600080fd5b803561187181611896565b600080600080600080600080610100898b0312156118cc57600080fd5b883567ffffffffffffffff8111156118e357600080fd5b8901601f81018b136118f457600080fd5b6119038b823560208401611822565b98505061191260208a01611860565b965061192060408a01611860565b9550606089013561193081611876565b9450608089013561194081611876565b935061194e60a08a0161188b565b925061195c60c08a016118a4565b915061196a60e08a016118a4565b90509295985092959890939650565b60008083601f84011261198b57600080fd5b50813567ffffffffffffffff8111156119a357600080fd5b6020830191508360208260051b8501011115610eeb57600080fd5b6000806000604084860312156119d357600080fd5b833567ffffffffffffffff8111156119ea57600080fd5b6119f686828701611979565b9094509250611a09905060208501611860565b90509250925092565b60008060408385031215611a2557600080fd5b823591506020830135611a3781611896565b809150509250929050565b60008060408385031215611a5557600080fd5b823591506020830135611a3781611876565b60008060008060008060008060006101008a8c031215611a8657600080fd5b8935611a9181611876565b985060208a013567ffffffffffffffff80821115611aae57600080fd5b611aba8d838e01611979565b909a50985060408c01359150611acf82611896565b90965060608b013590611ae182611876565b819650611af060808d01611860565b955060a08c0135945060c08c0135935060e08c0135915080821115611b1457600080fd5b508a01601f81018c13611b2657600080fd5b611b358c823560208401611822565b9150509295985092959850929598565b600060208284031215611b5757600080fd5b8135610f2081611876565b60008060008060008060a08789031215611b7b57600080fd5b8635611b8681611876565b9550602087013567ffffffffffffffff811115611ba257600080fd5b611bae89828a01611979565b9096509450506040870135611bc281611896565b92506060870135611bd281611876565b9150611be060808801611860565b90509295509295509295565b60005b83811015611c07578181015183820152602001611bef565b50506000910152565b60008151808452611c28816020860160208601611bec565b601f01601f19169290920160200192915050565b606081526000611c4f6060830186611c10565b6001600160a01b0394851660208401529290931660409091015292915050565b600060208284031215611c8157600080fd5b8151610f2081611876565b60008060408385031215611c9f57600080fd5b825167ffffffffffffffff811115611cb657600080fd5b8301601f81018513611cc757600080fd5b8051611cd5611830826117fa565b818152866020838501011115611cea57600080fd5b611cfb826020830160208601611bec565b60209590950151949694955050505050565b848152608060208201526000611d266080830186611c10565b6001600160a01b039490941660408301525090151560609091015292915050565b634e487b7160e01b600052603260045260246000fd5b6000808335601e19843603018112611d7457600080fd5b83018035915067ffffffffffffffff821115611d8f57600080fd5b602001915036819003821315610eeb57600080fd5b604081528260408201528284606083013760006060848301015260006060601f19601f8601168301019050826020830152949350505050565b600060208284031215611def57600080fd5b8151610f2081611896565b60006bffffffffffffffffffffffff19808b60601b1683528960148401528851611e2b816034860160208d01611bec565b808401905088151560f81b6034820152818860601b1660358201527fff000000000000000000000000000000000000000000000000000000000000008760f81b16604982015285604a82015284606a820152608a8101925050509998505050505050505050565b602081526000610f206020830184611c10565b600060208284031215611eb757600080fd5b5051919050565b634e487b7160e01b600052601160045260246000fd5b8082028115828204841417610ce557610ce5611ebe565b81810381811115610ce557610ce5611ebe565b63ffffffff818116838216028082169190828114611f1e57611f1e611ebe565b505092915050565b6001600160a01b03871681526000602060c081840152611f4960c0840189611c10565b838103604085015287518082528289019183019060005b81811015611f7c57835183529284019291840191600101611f60565b5050848103606086015287518082528382019250600581901b82018401848a0160005b83811015611fcd57601f19858403018652611fbb838351611c10565b95870195925090860190600101611f9f565b50506080870189905287151560a08801529450611fea9350505050565b979650505050505050565b60008251612007818460208701611bec565b9190910192915050565b634e487b7160e01b600052602160045260246000fd5b80820180821115610ce557610ce5611ebe565b60008161204957612049611ebe565b50600019019056fea2646970667358221220b0e142b30fd54f833644a5b41351d445b4078d031273e949f16c1b08a170ee8864736f6c63430008180033",
  "linkReferences": {},
  "deployedLinkReferences": {}
}