{
  "_format": "hh-sol-artifact-1",
  "contractName": "NNSResolver",
  "sourceName": "contracts/NNSResolver.sol",
  "abi": [
    {
      "inputs": [],
      "stateMutability": "nonpayable",
      "type": "constructor"
    },
    {
      "inputs": [],
      "name": "CldAlreadyRegistered",
      "type": "error"
    },
    {
      "inputs": [],
      "name": "InvalidCld",
      "type": "error"
    },
    {
      "inputs": [
        {
          "internalType": "address",
          "name": "owner",
          "type": "address"
        }
      ],
      "name": "OwnableInvalidOwner",
      "type": "error"
    },
    {
      "inputs": [
        {
          "internalType": "address",
          "name": "account",
          "type": "address"
        }
      ],
      "name": "OwnableUnauthorizedAccount",
      "type": "error"
    },
    {
      "inputs": [],
      "name": "UnauthorizedAccount",
      "type": "error"
    },
    {
      "anonymous": false,
      "inputs": [
        {
          "indexed": false,
          "internalType": "uint256",
          "name": "cldId",
          "type": "uint256"
        },
        {
          "indexed": false,
          "internalType": "address",
          "name": "registry",
          "type": "address"
        }
      ],
      "name": "CldRegistered",
      "type": "event"
    },
    {
      "anonymous": false,
      "inputs": [
        {
          "indexed": false,
          "internalType": "address",
          "name": "account",
          "type": "address"
        },
        {
          "indexed": false,
          "internalType": "uint256",
          "name": "cldId",
          "type": "uint256"
        }
      ],
      "name": "DefaultCldChanged",
      "type": "event"
    },
    {
      "anonymous": false,
      "inputs": [
        {
          "indexed": false,
          "internalType": "uint256",
          "name": "cldId",
          "type": "uint256"
        }
      ],
      "name": "FallbackCldChanged",
      "type": "event"
    },
    {
      "anonymous": false,
      "inputs": [
        {
          "indexed": true,
          "internalType": "address",
          "name": "previousOwner",
          "type": "address"
        },
        {
          "indexed": true,
          "internalType": "address",
          "name": "newOwner",
          "type": "address"
        }
      ],
      "name": "OwnershipTransferred",
      "type": "event"
    },
    {
      "inputs": [],
      "name": "fallbackCld",
      "outputs": [
        {
          "internalType": "uint256",
          "name": "",
          "type": "uint256"
        }
      ],
      "stateMutability": "view",
      "type": "function"
    },
    {
      "inputs": [],
      "name": "owner",
      "outputs": [
        {
          "internalType": "address",
          "name": "",
          "type": "address"
        }
      ],
      "stateMutability": "view",
      "type": "function"
    },
    {
      "inputs": [
        {
          "internalType": "uint256",
          "name": "cldId",
          "type": "uint256"
        },
        {
          "internalType": "uint256",
          "name": "tokenId",
          "type": "uint256"
        },
        {
          "internalType": "uint256",
          "name": "key",
          "type": "uint256"
        }
      ],
      "name": "recordOf",
      "outputs": [
        {
          "internalType": "string",
          "name": "",
          "type": "string"
        }
      ],
      "stateMutability": "view",
      "type": "function"
    },
    {
      "inputs": [
        {
          "internalType": "uint256",
          "name": "cldId",
          "type": "uint256"
        },
        {
          "internalType": "uint256",
          "name": "tokenId",
          "type": "uint256"
        },
        {
          "internalType": "uint256[]",
          "name": "keys",
          "type": "uint256[]"
        }
      ],
      "name": "recordsOf",
      "outputs": [
        {
          "internalType": "string[]",
          "name": "values",
          "type": "string[]"
        }
      ],
      "stateMutability": "view",
      "type": "function"
    },
    {
      "inputs": [
        {
          "internalType": "contract IRegistry",
          "name": "registry",
          "type": "address"
        },
        {
          "internalType": "bool",
          "name": "isFallback",
          "type": "bool"
        }
      ],
      "name": "registerCld",
      "outputs": [],
      "stateMutability": "nonpayable",
      "type": "function"
    },
    {
      "inputs": [],
      "name": "renounceOwnership",
      "outputs": [],
      "stateMutability": "nonpayable",
      "type": "function"
    },
    {
      "inputs": [
        {
          "internalType": "address",
          "name": "addr",
          "type": "address"
        }
      ],
      "name": "reverseNameOf",
      "outputs": [
        {
          "internalType": "string",
          "name": "",
          "type": "string"
        }
      ],
      "stateMutability": "view",
      "type": "function"
    },
    {
      "inputs": [
        {
          "internalType": "address",
          "name": "addr",
          "type": "address"
        },
        {
          "internalType": "uint256[]",
          "name": "cldIds",
          "type": "uint256[]"
        },
        {
          "internalType": "bool",
          "name": "fallbackToDefault",
          "type": "bool"
        }
      ],
      "name": "reverseNameOf",
      "outputs": [
        {
          "internalType": "string",
          "name": "",
          "type": "string"
        }
      ],
      "stateMutability": "view",
      "type": "function"
    },
    {
      "inputs": [
        {
          "internalType": "address",
          "name": "addr",
          "type": "address"
        },
        {
          "internalType": "uint256[]",
          "name": "cldIds",
          "type": "uint256[]"
        },
        {
          "internalType": "bool",
          "name": "fallbackToDefault",
          "type": "bool"
        }
      ],
      "name": "reverseOf",
      "outputs": [
        {
          "internalType": "uint256",
          "name": "cldId",
          "type": "uint256"
        },
        {
          "internalType": "uint256",
          "name": "tokenId",
          "type": "uint256"
        }
      ],
      "stateMutability": "view",
      "type": "function"
    },
    {
      "inputs": [
        {
          "internalType": "address",
          "name": "addr",
          "type": "address"
        }
      ],
      "name": "reverseOf",
      "outputs": [
        {
          "internalType": "uint256",
          "name": "cldId",
          "type": "uint256"
        },
        {
          "internalType": "uint256",
          "name": "tokenId",
          "type": "uint256"
        }
      ],
      "stateMutability": "view",
      "type": "function"
    },
    {
      "inputs": [
        {
          "internalType": "address",
          "name": "account",
          "type": "address"
        },
        {
          "internalType": "uint256",
          "name": "cldId",
          "type": "uint256"
        }
      ],
      "name": "setDefaultCld",
      "outputs": [],
      "stateMutability": "nonpayable",
      "type": "function"
    },
    {
      "inputs": [
        {
          "internalType": "uint256",
          "name": "cldId",
          "type": "uint256"
        }
      ],
      "name": "setFallbackCld",
      "outputs": [],
      "stateMutability": "nonpayable",
      "type": "function"
    },
    {
      "inputs": [
        {
          "internalType": "address",
          "name": "newOwner",
          "type": "address"
        }
      ],
      "name": "transferOwnership",
      "outputs": [],
      "stateMutability": "nonpayable",
      "type": "function"
    }
  ],
  "bytecode": "0x60806040523480156200001157600080fd5b5033600073ffffffffffffffffffffffffffffffffffffffff168173ffffffffffffffffffffffffffffffffffffffff1603620000885760006040517f1e4fbdf70000000000000000000000000000000000000000000000000000000081526004016200007f9190620001a9565b60405180910390fd5b6200009981620000a060201b60201c565b50620001c6565b60008060009054906101000a900473ffffffffffffffffffffffffffffffffffffffff169050816000806101000a81548173ffffffffffffffffffffffffffffffffffffffff021916908373ffffffffffffffffffffffffffffffffffffffff1602179055508173ffffffffffffffffffffffffffffffffffffffff168173ffffffffffffffffffffffffffffffffffffffff167f8be0079c531659141344cd1fd0a4f28419497f9722a3daafe3b4186f6b6457e060405160405180910390a35050565b600073ffffffffffffffffffffffffffffffffffffffff82169050919050565b6000620001918262000164565b9050919050565b620001a38162000184565b82525050565b6000602082019050620001c0600083018462000198565b92915050565b6118d980620001d66000396000f3fe608060405234801561001057600080fd5b50600436106100cf5760003560e01c80638da5cb5b1161008c578063a102786f11610066578063a102786f14610200578063bebec6b414610230578063d966728914610260578063f2fde38b14610290576100cf565b80638da5cb5b146101965780639bd90186146101b4578063a04d5165146101e4576100cf565b806302ba102a146100d45780630c68c74d146100f05780632a003a051461010e5780636e3e7f481461013f578063715018a61461015b5780637e37479e14610165575b600080fd5b6100ee60048036038101906100e99190610e2d565b6102ac565b005b6100f861030a565b6040516101059190610e69565b60405180910390f35b61012860048036038101906101239190610f7f565b610314565b604051610136929190610ff3565b60405180910390f35b6101596004803603810190610154919061101c565b61042a565b005b6101636105a5565b005b61017f600480360381019061017a919061105c565b6105b9565b60405161018d929190610ff3565b60405180910390f35b61019e610653565b6040516101ab9190611098565b60405180910390f35b6101ce60048036038101906101c991906110b3565b61067c565b6040516101db9190611196565b60405180910390f35b6101fe60048036038101906101f991906111f6565b610710565b005b61021a60048036038101906102159190611236565b6108ca565b60405161022791906113b6565b60405180910390f35b61024a6004803603810190610245919061105c565b610961565b6040516102579190611196565b60405180910390f35b61027a60048036038101906102759190610f7f565b6109f9565b6040516102879190611196565b60405180910390f35b6102aa60048036038101906102a5919061105c565b610b07565b005b6102b4610b8d565b6102bd81610c14565b5080600254031561030757806002819055507f547f914863c509525a67bfd1b905c2c6c614e0198d5242aa652ad7a6b7d5dd11816040516102fe9190610e69565b60405180910390a15b50565b6000600254905090565b60008060005b8585905081101561040057600061034987878481811061033d5761033c6113d8565b5b90506020020135610c14565b90508073ffffffffffffffffffffffffffffffffffffffff16637e37479e896040518263ffffffff1660e01b81526004016103849190611098565b602060405180830381865afa1580156103a1573d6000803e3d6000fd5b505050506040513d601f19601f820116820180604052508101906103c5919061141c565b9250600083146103f2578686838181106103e2576103e16113d8565b5b9050602002013593505050610421565b50808060010191505061031a565b50821561041957610410866105b9565b91509150610421565b600080915091505b94509492505050565b600061043582610c14565b90508273ffffffffffffffffffffffffffffffffffffffff163373ffffffffffffffffffffffffffffffffffffffff16141580156104ec57508073ffffffffffffffffffffffffffffffffffffffff1663e985e9c584336040518363ffffffff1660e01b81526004016104a9929190611449565b602060405180830381865afa1580156104c6573d6000803e3d6000fd5b505050506040513d601f19601f820116820180604052508101906104ea9190611487565b155b15610523576040517fa97ff08a00000000000000000000000000000000000000000000000000000000815260040160405180910390fd5b81600360008573ffffffffffffffffffffffffffffffffffffffff1673ffffffffffffffffffffffffffffffffffffffff168152602001908152602001600020819055507fe4b54c6dd0e330a48975d7325ee994c79c566e6c78b3e375b2ade3bca34aeb8d83836040516105989291906114b4565b60405180910390a1505050565b6105ad610b8d565b6105b76000610cbb565b565b6000806105c583610d7f565b9150816105d183610c14565b73ffffffffffffffffffffffffffffffffffffffff16637e37479e856040518263ffffffff1660e01b81526004016106099190611098565b602060405180830381865afa158015610626573d6000803e3d6000fd5b505050506040513d601f19601f8201168201806040525081019061064a919061141c565b91509150915091565b60008060009054906101000a900473ffffffffffffffffffffffffffffffffffffffff16905090565b606061068784610c14565b73ffffffffffffffffffffffffffffffffffffffff1663064816cf84846040518363ffffffff1660e01b81526004016106c1929190610ff3565b600060405180830381865afa1580156106de573d6000803e3d6000fd5b505050506040513d6000823e3d601f19601f8201168201806040525081019061070791906115fe565b90509392505050565b610718610b8d565b60008273ffffffffffffffffffffffffffffffffffffffff166383d48e046040518163ffffffff1660e01b8152600401600060405180830381865afa158015610765573d6000803e3d6000fd5b505050506040513d6000823e3d601f19601f8201168201806040525081019061078e9190611647565b915050600073ffffffffffffffffffffffffffffffffffffffff166001600083815260200190815260200160002060009054906101000a900473ffffffffffffffffffffffffffffffffffffffff1673ffffffffffffffffffffffffffffffffffffffff161461082a576040517fd36fe93200000000000000000000000000000000000000000000000000000000815260040160405180910390fd5b826001600083815260200190815260200160002060006101000a81548173ffffffffffffffffffffffffffffffffffffffff021916908373ffffffffffffffffffffffffffffffffffffffff1602179055507f08c9b698b97f599b9e6bd9d77a2fc735231819e8fe5b06f44439eb688da1be3d81846040516108ad9291906116a3565b60405180910390a181156108c5576108c4816102ac565b5b505050565b60606108d585610c14565b73ffffffffffffffffffffffffffffffffffffffff1663215adba28585856040518463ffffffff1660e01b815260040161091193929190611747565b600060405180830381865afa15801561092e573d6000803e3d6000fd5b505050506040513d6000823e3d601f19601f82011682018060405250810190610957919061185a565b9050949350505050565b606061097461096f83610d7f565b610c14565b73ffffffffffffffffffffffffffffffffffffffff1663bebec6b4836040518263ffffffff1660e01b81526004016109ac9190611098565b600060405180830381865afa1580156109c9573d6000803e3d6000fd5b505050506040513d6000823e3d601f19601f820116820180604052508101906109f291906115fe565b9050919050565b606060005b84849050811015610ad5576000610a2d868684818110610a2157610a206113d8565b5b90506020020135610c14565b905060008173ffffffffffffffffffffffffffffffffffffffff1663bebec6b4896040518263ffffffff1660e01b8152600401610a6a9190611098565b600060405180830381865afa158015610a87573d6000803e3d6000fd5b505050506040513d6000823e3d601f19601f82011682018060405250810190610ab091906115fe565b90506000815114610ac657809350505050610aff565b505080806001019150506109fe565b508115610aec57610ae585610961565b9050610aff565b6040518060200160405280600081525090505b949350505050565b610b0f610b8d565b600073ffffffffffffffffffffffffffffffffffffffff168173ffffffffffffffffffffffffffffffffffffffff1603610b815760006040517f1e4fbdf7000000000000000000000000000000000000000000000000000000008152600401610b789190611098565b60405180910390fd5b610b8a81610cbb565b50565b610b95610ddb565b73ffffffffffffffffffffffffffffffffffffffff16610bb3610653565b73ffffffffffffffffffffffffffffffffffffffff1614610c1257610bd6610ddb565b6040517f118cdaa7000000000000000000000000000000000000000000000000000000008152600401610c099190611098565b60405180910390fd5b565b6000806001600084815260200190815260200160002060009054906101000a900473ffffffffffffffffffffffffffffffffffffffff169050600073ffffffffffffffffffffffffffffffffffffffff168173ffffffffffffffffffffffffffffffffffffffff1603610cb2576040517eea4de600000000000000000000000000000000000000000000000000000000815260040160405180910390fd5b80915050919050565b60008060009054906101000a900473ffffffffffffffffffffffffffffffffffffffff169050816000806101000a81548173ffffffffffffffffffffffffffffffffffffffff021916908373ffffffffffffffffffffffffffffffffffffffff1602179055508173ffffffffffffffffffffffffffffffffffffffff168173ffffffffffffffffffffffffffffffffffffffff167f8be0079c531659141344cd1fd0a4f28419497f9722a3daafe3b4186f6b6457e060405160405180910390a35050565b600080600360008473ffffffffffffffffffffffffffffffffffffffff1673ffffffffffffffffffffffffffffffffffffffff16815260200190815260200160002054905060008103610dd25760025490505b80915050919050565b600033905090565b6000604051905090565b600080fd5b600080fd5b6000819050919050565b610e0a81610df7565b8114610e1557600080fd5b50565b600081359050610e2781610e01565b92915050565b600060208284031215610e4357610e42610ded565b5b6000610e5184828501610e18565b91505092915050565b610e6381610df7565b82525050565b6000602082019050610e7e6000830184610e5a565b92915050565b600073ffffffffffffffffffffffffffffffffffffffff82169050919050565b6000610eaf82610e84565b9050919050565b610ebf81610ea4565b8114610eca57600080fd5b50565b600081359050610edc81610eb6565b92915050565b600080fd5b600080fd5b600080fd5b60008083601f840112610f0757610f06610ee2565b5b8235905067ffffffffffffffff811115610f2457610f23610ee7565b5b602083019150836020820283011115610f4057610f3f610eec565b5b9250929050565b60008115159050919050565b610f5c81610f47565b8114610f6757600080fd5b50565b600081359050610f7981610f53565b92915050565b60008060008060608587031215610f9957610f98610ded565b5b6000610fa787828801610ecd565b945050602085013567ffffffffffffffff811115610fc857610fc7610df2565b5b610fd487828801610ef1565b93509350506040610fe787828801610f6a565b91505092959194509250565b60006040820190506110086000830185610e5a565b6110156020830184610e5a565b9392505050565b6000806040838503121561103357611032610ded565b5b600061104185828601610ecd565b925050602061105285828601610e18565b9150509250929050565b60006020828403121561107257611071610ded565b5b600061108084828501610ecd565b91505092915050565b61109281610ea4565b82525050565b60006020820190506110ad6000830184611089565b92915050565b6000806000606084860312156110cc576110cb610ded565b5b60006110da86828701610e18565b93505060206110eb86828701610e18565b92505060406110fc86828701610e18565b9150509250925092565b600081519050919050565b600082825260208201905092915050565b60005b83811015611140578082015181840152602081019050611125565b60008484015250505050565b6000601f19601f8301169050919050565b600061116882611106565b6111728185611111565b9350611182818560208601611122565b61118b8161114c565b840191505092915050565b600060208201905081810360008301526111b0818461115d565b905092915050565b60006111c382610ea4565b9050919050565b6111d3816111b8565b81146111de57600080fd5b50565b6000813590506111f0816111ca565b92915050565b6000806040838503121561120d5761120c610ded565b5b600061121b858286016111e1565b925050602061122c85828601610f6a565b9150509250929050565b600080600080606085870312156112505761124f610ded565b5b600061125e87828801610e18565b945050602061126f87828801610e18565b935050604085013567ffffffffffffffff8111156112905761128f610df2565b5b61129c87828801610ef1565b925092505092959194509250565b600081519050919050565b600082825260208201905092915050565b6000819050602082019050919050565b600082825260208201905092915050565b60006112f282611106565b6112fc81856112d6565b935061130c818560208601611122565b6113158161114c565b840191505092915050565b600061132c83836112e7565b905092915050565b6000602082019050919050565b600061134c826112aa565b61135681856112b5565b935083602082028501611368856112c6565b8060005b858110156113a457848403895281516113858582611320565b945061139083611334565b925060208a0199505060018101905061136c565b50829750879550505050505092915050565b600060208201905081810360008301526113d08184611341565b905092915050565b7f4e487b7100000000000000000000000000000000000000000000000000000000600052603260045260246000fd5b60008151905061141681610e01565b92915050565b60006020828403121561143257611431610ded565b5b600061144084828501611407565b91505092915050565b600060408201905061145e6000830185611089565b61146b6020830184611089565b9392505050565b60008151905061148181610f53565b92915050565b60006020828403121561149d5761149c610ded565b5b60006114ab84828501611472565b91505092915050565b60006040820190506114c96000830185611089565b6114d66020830184610e5a565b9392505050565b600080fd5b7f4e487b7100000000000000000000000000000000000000000000000000000000600052604160045260246000fd5b61151a8261114c565b810181811067ffffffffffffffff82111715611539576115386114e2565b5b80604052505050565b600061154c610de3565b90506115588282611511565b919050565b600067ffffffffffffffff821115611578576115776114e2565b5b6115818261114c565b9050602081019050919050565b60006115a161159c8461155d565b611542565b9050828152602081018484840111156115bd576115bc6114dd565b5b6115c8848285611122565b509392505050565b600082601f8301126115e5576115e4610ee2565b5b81516115f584826020860161158e565b91505092915050565b60006020828403121561161457611613610ded565b5b600082015167ffffffffffffffff81111561163257611631610df2565b5b61163e848285016115d0565b91505092915050565b6000806040838503121561165e5761165d610ded565b5b600083015167ffffffffffffffff81111561167c5761167b610df2565b5b611688858286016115d0565b925050602061169985828601611407565b9150509250929050565b60006040820190506116b86000830185610e5a565b6116c56020830184611089565b9392505050565b600082825260208201905092915050565b600080fd5b82818337505050565b60006116f783856116cc565b93507f07ffffffffffffffffffffffffffffffffffffffffffffffffffffffffffffff83111561172a576117296116dd565b5b60208302925061173b8385846116e2565b82840190509392505050565b600060408201905061175c6000830186610e5a565b818103602083015261176f8184866116eb565b9050949350505050565b600067ffffffffffffffff821115611794576117936114e2565b5b602082029050602081019050919050565b60006117b86117b384611779565b611542565b905080838252602082019050602084028301858111156117db576117da610eec565b5b835b8181101561182257805167ffffffffffffffff811115611800576117ff610ee2565b5b80860161180d89826115d0565b855260208501945050506020810190506117dd565b5050509392505050565b600082601f83011261184157611840610ee2565b5b81516118518482602086016117a5565b91505092915050565b6000602082840312156118705761186f610ded565b5b600082015167ffffffffffffffff81111561188e5761188d610df2565b5b61189a8482850161182c565b9150509291505056fea264697066735822122055f9aead6da00682aafade6581856982f46fecf52cca748add97aea547063abb64736f6c63430008180033",
  "linkReferences": {},
  "deployedLinkReferences": {}
}